{
	"TokenSell.sol": {
		"Tokensell": {
			"abi": [
				{
					"inputs": [
						{
							"internalType": "address",
							"name": "",
							"type": "address"
						}
					],
					"name": "_balance",
					"outputs": [
						{
							"internalType": "uint256",
							"name": "",
							"type": "uint256"
						}
					],
					"stateMutability": "view",
					"type": "function"
				},
				{
					"inputs": [],
					"name": "axsToken",
					"outputs": [
						{
							"internalType": "address",
							"name": "",
							"type": "address"
						}
					],
					"stateMutability": "view",
					"type": "function"
				},
				{
					"inputs": [
						{
							"internalType": "uint256",
							"name": "_starttime",
							"type": "uint256"
						},
						{
							"internalType": "uint256",
							"name": "_endtime",
							"type": "uint256"
						}
					],
					"name": "launch",
					"outputs": [],
					"stateMutability": "view",
					"type": "function"
				},
				{
					"inputs": [],
					"name": "price",
					"outputs": [
						{
							"internalType": "uint256",
							"name": "",
							"type": "uint256"
						}
					],
					"stateMutability": "view",
					"type": "function"
				},
				{
					"inputs": [
						{
							"internalType": "uint256",
							"name": "buynmu",
							"type": "uint256"
						}
					],
					"name": "sale",
					"outputs": [],
					"stateMutability": "nonpayable",
					"type": "function"
				}
			],
			"devdoc": {
				"kind": "dev",
				"methods": {},
				"version": 1
			},
			"evm": {
				"assembly": "    /* \"TokenSell.sol\":125:928  contract Tokensell{\r... */\n  mstore(0x40, 0x80)\n    /* \"TokenSell.sol\":177:188  1 * 10 * 18 */\n  0xb4\n    /* \"TokenSell.sol\":154:188  uint256 public price = 1 * 10 * 18 */\n  0x00\n  sstore\n    /* \"TokenSell.sol\":221:222  0 */\n  0x00\n    /* \"TokenSell.sol\":199:222  uint256 userbalance = 0 */\n  0x01\n  sstore\n    /* \"TokenSell.sol\":307:349  0x0aa7726bc0cB085A3C4fbE3B09b91DD7E27f7fea */\n  0x0aa7726bc0cb085a3c4fbe3b09b91dd7e27f7fea\n    /* \"TokenSell.sol\":281:349  address public axsToken = 0x0aa7726bc0cB085A3C4fbE3B09b91DD7E27f7fea */\n  0x04\n  exp(0x0100, 0x00)\n  dup2\n  sload\n  dup2\n  0xffffffffffffffffffffffffffffffffffffffff\n  mul\n  not\n  and\n  swap1\n  dup4\n  0xffffffffffffffffffffffffffffffffffffffff\n  and\n  mul\n  or\n  swap1\n  sstore\n  pop\n    /* \"TokenSell.sol\":125:928  contract Tokensell{\r... */\n  callvalue\n  dup1\n  iszero\n  tag_1\n  jumpi\n  0x00\n  dup1\n  revert\ntag_1:\n  pop\n  dataSize(sub_0)\n  dup1\n  dataOffset(sub_0)\n  0x00\n  codecopy\n  0x00\n  return\nstop\n\nsub_0: assembly {\n        /* \"TokenSell.sol\":125:928  contract Tokensell{\r... */\n      mstore(0x40, 0x80)\n      callvalue\n      dup1\n      iszero\n      tag_1\n      jumpi\n      0x00\n      dup1\n      revert\n    tag_1:\n      pop\n      jumpi(tag_2, lt(calldatasize, 0x04))\n      shr(0xe0, calldataload(0x00))\n      dup1\n      0x180dc0ac\n      eq\n      tag_3\n      jumpi\n      dup1\n      0x82760cd2\n      eq\n      tag_4\n      jumpi\n      dup1\n      0x96032702\n      eq\n      tag_5\n      jumpi\n      dup1\n      0xa035b1fe\n      eq\n      tag_6\n      jumpi\n      dup1\n      0xd3aceae2\n      eq\n      tag_7\n      jumpi\n    tag_2:\n      0x00\n      dup1\n      revert\n        /* \"TokenSell.sol\":281:349  address public axsToken = 0x0aa7726bc0cB085A3C4fbE3B09b91DD7E27f7fea */\n    tag_3:\n      tag_8\n      tag_9\n      jump\t// in\n    tag_8:\n      mload(0x40)\n      tag_10\n      swap2\n      swap1\n      tag_11\n      jump\t// in\n    tag_10:\n      mload(0x40)\n      dup1\n      swap2\n      sub\n      swap1\n      return\n        /* \"TokenSell.sol\":409:636  function launch(uint _starttime , uint _endtime)external view{\r... */\n    tag_4:\n      tag_12\n      0x04\n      dup1\n      calldatasize\n      sub\n      dup2\n      add\n      swap1\n      tag_13\n      swap2\n      swap1\n      tag_14\n      jump\t// in\n    tag_13:\n      tag_15\n      jump\t// in\n    tag_12:\n      stop\n        /* \"TokenSell.sol\":642:919  function sale(uint256 buynmu)public{\r... */\n    tag_5:\n      tag_16\n      0x04\n      dup1\n      calldatasize\n      sub\n      dup2\n      add\n      swap1\n      tag_17\n      swap2\n      swap1\n      tag_18\n      jump\t// in\n    tag_17:\n      tag_19\n      jump\t// in\n    tag_16:\n      stop\n        /* \"TokenSell.sol\":154:188  uint256 public price = 1 * 10 * 18 */\n    tag_6:\n      tag_20\n      tag_21\n      jump\t// in\n    tag_20:\n      mload(0x40)\n      tag_22\n      swap2\n      swap1\n      tag_23\n      jump\t// in\n    tag_22:\n      mload(0x40)\n      dup1\n      swap2\n      sub\n      swap1\n      return\n        /* \"TokenSell.sol\":360:400  mapping(address => uint) public _balance */\n    tag_7:\n      tag_24\n      0x04\n      dup1\n      calldatasize\n      sub\n      dup2\n      add\n      swap1\n      tag_25\n      swap2\n      swap1\n      tag_26\n      jump\t// in\n    tag_25:\n      tag_27\n      jump\t// in\n    tag_24:\n      mload(0x40)\n      tag_28\n      swap2\n      swap1\n      tag_23\n      jump\t// in\n    tag_28:\n      mload(0x40)\n      dup1\n      swap2\n      sub\n      swap1\n      return\n        /* \"TokenSell.sol\":281:349  address public axsToken = 0x0aa7726bc0cB085A3C4fbE3B09b91DD7E27f7fea */\n    tag_9:\n      0x04\n      0x00\n      swap1\n      sload\n      swap1\n      0x0100\n      exp\n      swap1\n      div\n      0xffffffffffffffffffffffffffffffffffffffff\n      and\n      dup2\n      jump\t// out\n        /* \"TokenSell.sol\":409:636  function launch(uint _starttime , uint _endtime)external view{\r... */\n    tag_15:\n        /* \"TokenSell.sol\":503:518  block.timestamp */\n      timestamp\n        /* \"TokenSell.sol\":489:499  _starttime */\n      dup3\n        /* \"TokenSell.sol\":489:518  _starttime >= block.timestamp */\n      lt\n      iszero\n        /* \"TokenSell.sol\":481:519  require(_starttime >= block.timestamp) */\n      tag_30\n      jumpi\n      0x00\n      dup1\n      revert\n    tag_30:\n        /* \"TokenSell.sol\":550:560  _starttime */\n      dup2\n        /* \"TokenSell.sol\":538:546  _endtime */\n      dup2\n        /* \"TokenSell.sol\":538:560  _endtime >= _starttime */\n      lt\n      iszero\n        /* \"TokenSell.sol\":530:561  require(_endtime >= _starttime) */\n      tag_31\n      jumpi\n      0x00\n      dup1\n      revert\n    tag_31:\n        /* \"TokenSell.sol\":610:617  30 days */\n      0x278d00\n        /* \"TokenSell.sol\":592:607  block.timestamp */\n      timestamp\n        /* \"TokenSell.sol\":592:617  block.timestamp + 30 days */\n      tag_32\n      swap2\n      swap1\n      tag_33\n      jump\t// in\n    tag_32:\n        /* \"TokenSell.sol\":580:588  _endtime */\n      dup2\n        /* \"TokenSell.sol\":580:617  _endtime <= block.timestamp + 30 days */\n      gt\n      iszero\n        /* \"TokenSell.sol\":572:618  require(_endtime <= block.timestamp + 30 days) */\n      tag_34\n      jumpi\n      0x00\n      dup1\n      revert\n    tag_34:\n        /* \"TokenSell.sol\":409:636  function launch(uint _starttime , uint _endtime)external view{\r... */\n      pop\n      pop\n      jump\t// out\n        /* \"TokenSell.sol\":642:919  function sale(uint256 buynmu)public{\r... */\n    tag_19:\n        /* \"TokenSell.sol\":715:724  starttime */\n      sload(0x02)\n        /* \"TokenSell.sol\":696:711  block.timestamp */\n      timestamp\n        /* \"TokenSell.sol\":696:724  block.timestamp >= starttime */\n      lt\n      iszero\n        /* \"TokenSell.sol\":688:725  require(block.timestamp >= starttime) */\n      tag_36\n      jumpi\n      0x00\n      dup1\n      revert\n    tag_36:\n        /* \"TokenSell.sol\":763:770  endtime */\n      sload(0x03)\n        /* \"TokenSell.sol\":744:759  block.timestamp */\n      timestamp\n        /* \"TokenSell.sol\":744:770  block.timestamp <= endtime */\n      gt\n      iszero\n        /* \"TokenSell.sol\":736:771  require(block.timestamp <= endtime) */\n      tag_37\n      jumpi\n      0x00\n      dup1\n      revert\n    tag_37:\n        /* \"TokenSell.sol\":782:796  uint256 paynum */\n      0x00\n        /* \"TokenSell.sol\":816:824  10 ** 18 */\n      0x0de0b6b3a7640000\n        /* \"TokenSell.sol\":808:813  price */\n      sload(0x00)\n        /* \"TokenSell.sol\":799:805  buynmu */\n      dup4\n        /* \"TokenSell.sol\":799:813  buynmu * price */\n      tag_38\n      swap2\n      swap1\n      tag_39\n      jump\t// in\n    tag_38:\n        /* \"TokenSell.sol\":799:824  buynmu * price / 10 ** 18 */\n      tag_40\n      swap2\n      swap1\n      tag_41\n      jump\t// in\n    tag_40:\n        /* \"TokenSell.sol\":782:824  uint256 paynum = buynmu * price / 10 ** 18 */\n      swap1\n      pop\n        /* \"TokenSell.sol\":842:850  axsToken */\n      0x04\n      0x00\n      swap1\n      sload\n      swap1\n      0x0100\n      exp\n      swap1\n      div\n      0xffffffffffffffffffffffffffffffffffffffff\n      and\n        /* \"TokenSell.sol\":835:864  IERC20(axsToken).transferFrom */\n      0xffffffffffffffffffffffffffffffffffffffff\n      and\n      0x23b872dd\n        /* \"TokenSell.sol\":865:875  msg.sender */\n      caller\n        /* \"TokenSell.sol\":886:890  this */\n      address\n        /* \"TokenSell.sol\":892:898  paynum */\n      dup5\n        /* \"TokenSell.sol\":835:899  IERC20(axsToken).transferFrom(msg.sender , address(this),paynum) */\n      mload(0x40)\n      dup5\n      0xffffffff\n      and\n      0xe0\n      shl\n      dup2\n      mstore\n      0x04\n      add\n      tag_42\n      swap4\n      swap3\n      swap2\n      swap1\n      tag_43\n      jump\t// in\n    tag_42:\n      0x20\n      mload(0x40)\n      dup1\n      dup4\n      sub\n      dup2\n      0x00\n      dup8\n      dup1\n      extcodesize\n      iszero\n      dup1\n      iszero\n      tag_44\n      jumpi\n      0x00\n      dup1\n      revert\n    tag_44:\n      pop\n      gas\n      call\n      iszero\n      dup1\n      iszero\n      tag_46\n      jumpi\n      returndatasize\n      0x00\n      dup1\n      returndatacopy\n      revert(0x00, returndatasize)\n    tag_46:\n      pop\n      pop\n      pop\n      pop\n      mload(0x40)\n      returndatasize\n      not(0x1f)\n      0x1f\n      dup3\n      add\n      and\n      dup3\n      add\n      dup1\n      0x40\n      mstore\n      pop\n      dup2\n      add\n      swap1\n      tag_47\n      swap2\n      swap1\n      tag_48\n      jump\t// in\n    tag_47:\n      pop\n        /* \"TokenSell.sol\":677:919  {\r... */\n      pop\n        /* \"TokenSell.sol\":642:919  function sale(uint256 buynmu)public{\r... */\n      pop\n      jump\t// out\n        /* \"TokenSell.sol\":154:188  uint256 public price = 1 * 10 * 18 */\n    tag_21:\n      sload(0x00)\n      dup2\n      jump\t// out\n        /* \"TokenSell.sol\":360:400  mapping(address => uint) public _balance */\n    tag_27:\n      mstore(0x20, 0x05)\n      dup1\n      0x00\n      mstore\n      keccak256(0x00, 0x40)\n      0x00\n      swap2\n      pop\n      swap1\n      pop\n      sload\n      dup2\n      jump\t// out\n        /* \"#utility.yul\":7:146   */\n    tag_50:\n        /* \"#utility.yul\":53:58   */\n      0x00\n        /* \"#utility.yul\":91:97   */\n      dup2\n        /* \"#utility.yul\":78:98   */\n      calldataload\n        /* \"#utility.yul\":69:98   */\n      swap1\n      pop\n        /* \"#utility.yul\":107:140   */\n      tag_52\n        /* \"#utility.yul\":134:139   */\n      dup2\n        /* \"#utility.yul\":107:140   */\n      tag_53\n      jump\t// in\n    tag_52:\n        /* \"#utility.yul\":7:146   */\n      swap3\n      swap2\n      pop\n      pop\n      jump\t// out\n        /* \"#utility.yul\":152:289   */\n    tag_54:\n        /* \"#utility.yul\":206:211   */\n      0x00\n        /* \"#utility.yul\":237:243   */\n      dup2\n        /* \"#utility.yul\":231:244   */\n      mload\n        /* \"#utility.yul\":222:244   */\n      swap1\n      pop\n        /* \"#utility.yul\":253:283   */\n      tag_56\n        /* \"#utility.yul\":277:282   */\n      dup2\n        /* \"#utility.yul\":253:283   */\n      tag_57\n      jump\t// in\n    tag_56:\n        /* \"#utility.yul\":152:289   */\n      swap3\n      swap2\n      pop\n      pop\n      jump\t// out\n        /* \"#utility.yul\":295:434   */\n    tag_58:\n        /* \"#utility.yul\":341:346   */\n      0x00\n        /* \"#utility.yul\":379:385   */\n      dup2\n        /* \"#utility.yul\":366:386   */\n      calldataload\n        /* \"#utility.yul\":357:386   */\n      swap1\n      pop\n        /* \"#utility.yul\":395:428   */\n      tag_60\n        /* \"#utility.yul\":422:427   */\n      dup2\n        /* \"#utility.yul\":395:428   */\n      tag_61\n      jump\t// in\n    tag_60:\n        /* \"#utility.yul\":295:434   */\n      swap3\n      swap2\n      pop\n      pop\n      jump\t// out\n        /* \"#utility.yul\":440:769   */\n    tag_26:\n        /* \"#utility.yul\":499:505   */\n      0x00\n        /* \"#utility.yul\":548:550   */\n      0x20\n        /* \"#utility.yul\":536:545   */\n      dup3\n        /* \"#utility.yul\":527:534   */\n      dup5\n        /* \"#utility.yul\":523:546   */\n      sub\n        /* \"#utility.yul\":519:551   */\n      slt\n        /* \"#utility.yul\":516:635   */\n      iszero\n      tag_63\n      jumpi\n        /* \"#utility.yul\":554:633   */\n      tag_64\n      tag_65\n      jump\t// in\n    tag_64:\n        /* \"#utility.yul\":516:635   */\n    tag_63:\n        /* \"#utility.yul\":674:675   */\n      0x00\n        /* \"#utility.yul\":699:752   */\n      tag_66\n        /* \"#utility.yul\":744:751   */\n      dup5\n        /* \"#utility.yul\":735:741   */\n      dup3\n        /* \"#utility.yul\":724:733   */\n      dup6\n        /* \"#utility.yul\":720:742   */\n      add\n        /* \"#utility.yul\":699:752   */\n      tag_50\n      jump\t// in\n    tag_66:\n        /* \"#utility.yul\":689:752   */\n      swap2\n      pop\n        /* \"#utility.yul\":645:762   */\n      pop\n        /* \"#utility.yul\":440:769   */\n      swap3\n      swap2\n      pop\n      pop\n      jump\t// out\n        /* \"#utility.yul\":775:1120   */\n    tag_48:\n        /* \"#utility.yul\":842:848   */\n      0x00\n        /* \"#utility.yul\":891:893   */\n      0x20\n        /* \"#utility.yul\":879:888   */\n      dup3\n        /* \"#utility.yul\":870:877   */\n      dup5\n        /* \"#utility.yul\":866:889   */\n      sub\n        /* \"#utility.yul\":862:894   */\n      slt\n        /* \"#utility.yul\":859:978   */\n      iszero\n      tag_68\n      jumpi\n        /* \"#utility.yul\":897:976   */\n      tag_69\n      tag_65\n      jump\t// in\n    tag_69:\n        /* \"#utility.yul\":859:978   */\n    tag_68:\n        /* \"#utility.yul\":1017:1018   */\n      0x00\n        /* \"#utility.yul\":1042:1103   */\n      tag_70\n        /* \"#utility.yul\":1095:1102   */\n      dup5\n        /* \"#utility.yul\":1086:1092   */\n      dup3\n        /* \"#utility.yul\":1075:1084   */\n      dup6\n        /* \"#utility.yul\":1071:1093   */\n      add\n        /* \"#utility.yul\":1042:1103   */\n      tag_54\n      jump\t// in\n    tag_70:\n        /* \"#utility.yul\":1032:1103   */\n      swap2\n      pop\n        /* \"#utility.yul\":988:1113   */\n      pop\n        /* \"#utility.yul\":775:1120   */\n      swap3\n      swap2\n      pop\n      pop\n      jump\t// out\n        /* \"#utility.yul\":1126:1455   */\n    tag_18:\n        /* \"#utility.yul\":1185:1191   */\n      0x00\n        /* \"#utility.yul\":1234:1236   */\n      0x20\n        /* \"#utility.yul\":1222:1231   */\n      dup3\n        /* \"#utility.yul\":1213:1220   */\n      dup5\n        /* \"#utility.yul\":1209:1232   */\n      sub\n        /* \"#utility.yul\":1205:1237   */\n      slt\n        /* \"#utility.yul\":1202:1321   */\n      iszero\n      tag_72\n      jumpi\n        /* \"#utility.yul\":1240:1319   */\n      tag_73\n      tag_65\n      jump\t// in\n    tag_73:\n        /* \"#utility.yul\":1202:1321   */\n    tag_72:\n        /* \"#utility.yul\":1360:1361   */\n      0x00\n        /* \"#utility.yul\":1385:1438   */\n      tag_74\n        /* \"#utility.yul\":1430:1437   */\n      dup5\n        /* \"#utility.yul\":1421:1427   */\n      dup3\n        /* \"#utility.yul\":1410:1419   */\n      dup6\n        /* \"#utility.yul\":1406:1428   */\n      add\n        /* \"#utility.yul\":1385:1438   */\n      tag_58\n      jump\t// in\n    tag_74:\n        /* \"#utility.yul\":1375:1438   */\n      swap2\n      pop\n        /* \"#utility.yul\":1331:1448   */\n      pop\n        /* \"#utility.yul\":1126:1455   */\n      swap3\n      swap2\n      pop\n      pop\n      jump\t// out\n        /* \"#utility.yul\":1461:1935   */\n    tag_14:\n        /* \"#utility.yul\":1529:1535   */\n      0x00\n        /* \"#utility.yul\":1537:1543   */\n      dup1\n        /* \"#utility.yul\":1586:1588   */\n      0x40\n        /* \"#utility.yul\":1574:1583   */\n      dup4\n        /* \"#utility.yul\":1565:1572   */\n      dup6\n        /* \"#utility.yul\":1561:1584   */\n      sub\n        /* \"#utility.yul\":1557:1589   */\n      slt\n        /* \"#utility.yul\":1554:1673   */\n      iszero\n      tag_76\n      jumpi\n        /* \"#utility.yul\":1592:1671   */\n      tag_77\n      tag_65\n      jump\t// in\n    tag_77:\n        /* \"#utility.yul\":1554:1673   */\n    tag_76:\n        /* \"#utility.yul\":1712:1713   */\n      0x00\n        /* \"#utility.yul\":1737:1790   */\n      tag_78\n        /* \"#utility.yul\":1782:1789   */\n      dup6\n        /* \"#utility.yul\":1773:1779   */\n      dup3\n        /* \"#utility.yul\":1762:1771   */\n      dup7\n        /* \"#utility.yul\":1758:1780   */\n      add\n        /* \"#utility.yul\":1737:1790   */\n      tag_58\n      jump\t// in\n    tag_78:\n        /* \"#utility.yul\":1727:1790   */\n      swap3\n      pop\n        /* \"#utility.yul\":1683:1800   */\n      pop\n        /* \"#utility.yul\":1839:1841   */\n      0x20\n        /* \"#utility.yul\":1865:1918   */\n      tag_79\n        /* \"#utility.yul\":1910:1917   */\n      dup6\n        /* \"#utility.yul\":1901:1907   */\n      dup3\n        /* \"#utility.yul\":1890:1899   */\n      dup7\n        /* \"#utility.yul\":1886:1908   */\n      add\n        /* \"#utility.yul\":1865:1918   */\n      tag_58\n      jump\t// in\n    tag_79:\n        /* \"#utility.yul\":1855:1918   */\n      swap2\n      pop\n        /* \"#utility.yul\":1810:1928   */\n      pop\n        /* \"#utility.yul\":1461:1935   */\n      swap3\n      pop\n      swap3\n      swap1\n      pop\n      jump\t// out\n        /* \"#utility.yul\":1941:2059   */\n    tag_80:\n        /* \"#utility.yul\":2028:2052   */\n      tag_82\n        /* \"#utility.yul\":2046:2051   */\n      dup2\n        /* \"#utility.yul\":2028:2052   */\n      tag_83\n      jump\t// in\n    tag_82:\n        /* \"#utility.yul\":2023:2026   */\n      dup3\n        /* \"#utility.yul\":2016:2053   */\n      mstore\n        /* \"#utility.yul\":1941:2059   */\n      pop\n      pop\n      jump\t// out\n        /* \"#utility.yul\":2065:2183   */\n    tag_84:\n        /* \"#utility.yul\":2152:2176   */\n      tag_86\n        /* \"#utility.yul\":2170:2175   */\n      dup2\n        /* \"#utility.yul\":2152:2176   */\n      tag_87\n      jump\t// in\n    tag_86:\n        /* \"#utility.yul\":2147:2150   */\n      dup3\n        /* \"#utility.yul\":2140:2177   */\n      mstore\n        /* \"#utility.yul\":2065:2183   */\n      pop\n      pop\n      jump\t// out\n        /* \"#utility.yul\":2189:2411   */\n    tag_11:\n        /* \"#utility.yul\":2282:2286   */\n      0x00\n        /* \"#utility.yul\":2320:2322   */\n      0x20\n        /* \"#utility.yul\":2309:2318   */\n      dup3\n        /* \"#utility.yul\":2305:2323   */\n      add\n        /* \"#utility.yul\":2297:2323   */\n      swap1\n      pop\n        /* \"#utility.yul\":2333:2404   */\n      tag_89\n        /* \"#utility.yul\":2401:2402   */\n      0x00\n        /* \"#utility.yul\":2390:2399   */\n      dup4\n        /* \"#utility.yul\":2386:2403   */\n      add\n        /* \"#utility.yul\":2377:2383   */\n      dup5\n        /* \"#utility.yul\":2333:2404   */\n      tag_80\n      jump\t// in\n    tag_89:\n        /* \"#utility.yul\":2189:2411   */\n      swap3\n      swap2\n      pop\n      pop\n      jump\t// out\n        /* \"#utility.yul\":2417:2859   */\n    tag_43:\n        /* \"#utility.yul\":2566:2570   */\n      0x00\n        /* \"#utility.yul\":2604:2606   */\n      0x60\n        /* \"#utility.yul\":2593:2602   */\n      dup3\n        /* \"#utility.yul\":2589:2607   */\n      add\n        /* \"#utility.yul\":2581:2607   */\n      swap1\n      pop\n        /* \"#utility.yul\":2617:2688   */\n      tag_91\n        /* \"#utility.yul\":2685:2686   */\n      0x00\n        /* \"#utility.yul\":2674:2683   */\n      dup4\n        /* \"#utility.yul\":2670:2687   */\n      add\n        /* \"#utility.yul\":2661:2667   */\n      dup7\n        /* \"#utility.yul\":2617:2688   */\n      tag_80\n      jump\t// in\n    tag_91:\n        /* \"#utility.yul\":2698:2770   */\n      tag_92\n        /* \"#utility.yul\":2766:2768   */\n      0x20\n        /* \"#utility.yul\":2755:2764   */\n      dup4\n        /* \"#utility.yul\":2751:2769   */\n      add\n        /* \"#utility.yul\":2742:2748   */\n      dup6\n        /* \"#utility.yul\":2698:2770   */\n      tag_80\n      jump\t// in\n    tag_92:\n        /* \"#utility.yul\":2780:2852   */\n      tag_93\n        /* \"#utility.yul\":2848:2850   */\n      0x40\n        /* \"#utility.yul\":2837:2846   */\n      dup4\n        /* \"#utility.yul\":2833:2851   */\n      add\n        /* \"#utility.yul\":2824:2830   */\n      dup5\n        /* \"#utility.yul\":2780:2852   */\n      tag_84\n      jump\t// in\n    tag_93:\n        /* \"#utility.yul\":2417:2859   */\n      swap5\n      swap4\n      pop\n      pop\n      pop\n      pop\n      jump\t// out\n        /* \"#utility.yul\":2865:3087   */\n    tag_23:\n        /* \"#utility.yul\":2958:2962   */\n      0x00\n        /* \"#utility.yul\":2996:2998   */\n      0x20\n        /* \"#utility.yul\":2985:2994   */\n      dup3\n        /* \"#utility.yul\":2981:2999   */\n      add\n        /* \"#utility.yul\":2973:2999   */\n      swap1\n      pop\n        /* \"#utility.yul\":3009:3080   */\n      tag_95\n        /* \"#utility.yul\":3077:3078   */\n      0x00\n        /* \"#utility.yul\":3066:3075   */\n      dup4\n        /* \"#utility.yul\":3062:3079   */\n      add\n        /* \"#utility.yul\":3053:3059   */\n      dup5\n        /* \"#utility.yul\":3009:3080   */\n      tag_84\n      jump\t// in\n    tag_95:\n        /* \"#utility.yul\":2865:3087   */\n      swap3\n      swap2\n      pop\n      pop\n      jump\t// out\n        /* \"#utility.yul\":3174:3479   */\n    tag_33:\n        /* \"#utility.yul\":3214:3217   */\n      0x00\n        /* \"#utility.yul\":3233:3253   */\n      tag_99\n        /* \"#utility.yul\":3251:3252   */\n      dup3\n        /* \"#utility.yul\":3233:3253   */\n      tag_87\n      jump\t// in\n    tag_99:\n        /* \"#utility.yul\":3228:3253   */\n      swap2\n      pop\n        /* \"#utility.yul\":3267:3287   */\n      tag_100\n        /* \"#utility.yul\":3285:3286   */\n      dup4\n        /* \"#utility.yul\":3267:3287   */\n      tag_87\n      jump\t// in\n    tag_100:\n        /* \"#utility.yul\":3262:3287   */\n      swap3\n      pop\n        /* \"#utility.yul\":3421:3422   */\n      dup3\n        /* \"#utility.yul\":3353:3419   */\n      0xffffffffffffffffffffffffffffffffffffffffffffffffffffffffffffffff\n        /* \"#utility.yul\":3349:3423   */\n      sub\n        /* \"#utility.yul\":3346:3347   */\n      dup3\n        /* \"#utility.yul\":3343:3424   */\n      gt\n        /* \"#utility.yul\":3340:3447   */\n      iszero\n      tag_101\n      jumpi\n        /* \"#utility.yul\":3427:3445   */\n      tag_102\n      tag_103\n      jump\t// in\n    tag_102:\n        /* \"#utility.yul\":3340:3447   */\n    tag_101:\n        /* \"#utility.yul\":3471:3472   */\n      dup3\n        /* \"#utility.yul\":3468:3469   */\n      dup3\n        /* \"#utility.yul\":3464:3473   */\n      add\n        /* \"#utility.yul\":3457:3473   */\n      swap1\n      pop\n        /* \"#utility.yul\":3174:3479   */\n      swap3\n      swap2\n      pop\n      pop\n      jump\t// out\n        /* \"#utility.yul\":3485:3670   */\n    tag_41:\n        /* \"#utility.yul\":3525:3526   */\n      0x00\n        /* \"#utility.yul\":3542:3562   */\n      tag_105\n        /* \"#utility.yul\":3560:3561   */\n      dup3\n        /* \"#utility.yul\":3542:3562   */\n      tag_87\n      jump\t// in\n    tag_105:\n        /* \"#utility.yul\":3537:3562   */\n      swap2\n      pop\n        /* \"#utility.yul\":3576:3596   */\n      tag_106\n        /* \"#utility.yul\":3594:3595   */\n      dup4\n        /* \"#utility.yul\":3576:3596   */\n      tag_87\n      jump\t// in\n    tag_106:\n        /* \"#utility.yul\":3571:3596   */\n      swap3\n      pop\n        /* \"#utility.yul\":3615:3616   */\n      dup3\n        /* \"#utility.yul\":3605:3640   */\n      tag_107\n      jumpi\n        /* \"#utility.yul\":3620:3638   */\n      tag_108\n      tag_109\n      jump\t// in\n    tag_108:\n        /* \"#utility.yul\":3605:3640   */\n    tag_107:\n        /* \"#utility.yul\":3662:3663   */\n      dup3\n        /* \"#utility.yul\":3659:3660   */\n      dup3\n        /* \"#utility.yul\":3655:3664   */\n      div\n        /* \"#utility.yul\":3650:3664   */\n      swap1\n      pop\n        /* \"#utility.yul\":3485:3670   */\n      swap3\n      swap2\n      pop\n      pop\n      jump\t// out\n        /* \"#utility.yul\":3676:4024   */\n    tag_39:\n        /* \"#utility.yul\":3716:3723   */\n      0x00\n        /* \"#utility.yul\":3739:3759   */\n      tag_111\n        /* \"#utility.yul\":3757:3758   */\n      dup3\n        /* \"#utility.yul\":3739:3759   */\n      tag_87\n      jump\t// in\n    tag_111:\n        /* \"#utility.yul\":3734:3759   */\n      swap2\n      pop\n        /* \"#utility.yul\":3773:3793   */\n      tag_112\n        /* \"#utility.yul\":3791:3792   */\n      dup4\n        /* \"#utility.yul\":3773:3793   */\n      tag_87\n      jump\t// in\n    tag_112:\n        /* \"#utility.yul\":3768:3793   */\n      swap3\n      pop\n        /* \"#utility.yul\":3961:3962   */\n      dup2\n        /* \"#utility.yul\":3893:3959   */\n      0xffffffffffffffffffffffffffffffffffffffffffffffffffffffffffffffff\n        /* \"#utility.yul\":3889:3963   */\n      div\n        /* \"#utility.yul\":3886:3887   */\n      dup4\n        /* \"#utility.yul\":3883:3964   */\n      gt\n        /* \"#utility.yul\":3878:3879   */\n      dup3\n        /* \"#utility.yul\":3871:3880   */\n      iszero\n        /* \"#utility.yul\":3864:3881   */\n      iszero\n        /* \"#utility.yul\":3860:3965   */\n      and\n        /* \"#utility.yul\":3857:3988   */\n      iszero\n      tag_113\n      jumpi\n        /* \"#utility.yul\":3968:3986   */\n      tag_114\n      tag_103\n      jump\t// in\n    tag_114:\n        /* \"#utility.yul\":3857:3988   */\n    tag_113:\n        /* \"#utility.yul\":4016:4017   */\n      dup3\n        /* \"#utility.yul\":4013:4014   */\n      dup3\n        /* \"#utility.yul\":4009:4018   */\n      mul\n        /* \"#utility.yul\":3998:4018   */\n      swap1\n      pop\n        /* \"#utility.yul\":3676:4024   */\n      swap3\n      swap2\n      pop\n      pop\n      jump\t// out\n        /* \"#utility.yul\":4030:4126   */\n    tag_83:\n        /* \"#utility.yul\":4067:4074   */\n      0x00\n        /* \"#utility.yul\":4096:4120   */\n      tag_116\n        /* \"#utility.yul\":4114:4119   */\n      dup3\n        /* \"#utility.yul\":4096:4120   */\n      tag_117\n      jump\t// in\n    tag_116:\n        /* \"#utility.yul\":4085:4120   */\n      swap1\n      pop\n        /* \"#utility.yul\":4030:4126   */\n      swap2\n      swap1\n      pop\n      jump\t// out\n        /* \"#utility.yul\":4132:4222   */\n    tag_118:\n        /* \"#utility.yul\":4166:4173   */\n      0x00\n        /* \"#utility.yul\":4209:4214   */\n      dup2\n        /* \"#utility.yul\":4202:4215   */\n      iszero\n        /* \"#utility.yul\":4195:4216   */\n      iszero\n        /* \"#utility.yul\":4184:4216   */\n      swap1\n      pop\n        /* \"#utility.yul\":4132:4222   */\n      swap2\n      swap1\n      pop\n      jump\t// out\n        /* \"#utility.yul\":4228:4354   */\n    tag_117:\n        /* \"#utility.yul\":4265:4272   */\n      0x00\n        /* \"#utility.yul\":4305:4347   */\n      0xffffffffffffffffffffffffffffffffffffffff\n        /* \"#utility.yul\":4298:4303   */\n      dup3\n        /* \"#utility.yul\":4294:4348   */\n      and\n        /* \"#utility.yul\":4283:4348   */\n      swap1\n      pop\n        /* \"#utility.yul\":4228:4354   */\n      swap2\n      swap1\n      pop\n      jump\t// out\n        /* \"#utility.yul\":4360:4437   */\n    tag_87:\n        /* \"#utility.yul\":4397:4404   */\n      0x00\n        /* \"#utility.yul\":4426:4431   */\n      dup2\n        /* \"#utility.yul\":4415:4431   */\n      swap1\n      pop\n        /* \"#utility.yul\":4360:4437   */\n      swap2\n      swap1\n      pop\n      jump\t// out\n        /* \"#utility.yul\":4443:4623   */\n    tag_103:\n        /* \"#utility.yul\":4491:4568   */\n      0x4e487b7100000000000000000000000000000000000000000000000000000000\n        /* \"#utility.yul\":4488:4489   */\n      0x00\n        /* \"#utility.yul\":4481:4569   */\n      mstore\n        /* \"#utility.yul\":4588:4592   */\n      0x11\n        /* \"#utility.yul\":4585:4586   */\n      0x04\n        /* \"#utility.yul\":4578:4593   */\n      mstore\n        /* \"#utility.yul\":4612:4616   */\n      0x24\n        /* \"#utility.yul\":4609:4610   */\n      0x00\n        /* \"#utility.yul\":4602:4617   */\n      revert\n        /* \"#utility.yul\":4629:4809   */\n    tag_109:\n        /* \"#utility.yul\":4677:4754   */\n      0x4e487b7100000000000000000000000000000000000000000000000000000000\n        /* \"#utility.yul\":4674:4675   */\n      0x00\n        /* \"#utility.yul\":4667:4755   */\n      mstore\n        /* \"#utility.yul\":4774:4778   */\n      0x12\n        /* \"#utility.yul\":4771:4772   */\n      0x04\n        /* \"#utility.yul\":4764:4779   */\n      mstore\n        /* \"#utility.yul\":4798:4802   */\n      0x24\n        /* \"#utility.yul\":4795:4796   */\n      0x00\n        /* \"#utility.yul\":4788:4803   */\n      revert\n        /* \"#utility.yul\":4938:5055   */\n    tag_65:\n        /* \"#utility.yul\":5047:5048   */\n      0x00\n        /* \"#utility.yul\":5044:5045   */\n      dup1\n        /* \"#utility.yul\":5037:5049   */\n      revert\n        /* \"#utility.yul\":5061:5183   */\n    tag_53:\n        /* \"#utility.yul\":5134:5158   */\n      tag_128\n        /* \"#utility.yul\":5152:5157   */\n      dup2\n        /* \"#utility.yul\":5134:5158   */\n      tag_83\n      jump\t// in\n    tag_128:\n        /* \"#utility.yul\":5127:5132   */\n      dup2\n        /* \"#utility.yul\":5124:5159   */\n      eq\n        /* \"#utility.yul\":5114:5177   */\n      tag_129\n      jumpi\n        /* \"#utility.yul\":5173:5174   */\n      0x00\n        /* \"#utility.yul\":5170:5171   */\n      dup1\n        /* \"#utility.yul\":5163:5175   */\n      revert\n        /* \"#utility.yul\":5114:5177   */\n    tag_129:\n        /* \"#utility.yul\":5061:5183   */\n      pop\n      jump\t// out\n        /* \"#utility.yul\":5189:5305   */\n    tag_57:\n        /* \"#utility.yul\":5259:5280   */\n      tag_131\n        /* \"#utility.yul\":5274:5279   */\n      dup2\n        /* \"#utility.yul\":5259:5280   */\n      tag_118\n      jump\t// in\n    tag_131:\n        /* \"#utility.yul\":5252:5257   */\n      dup2\n        /* \"#utility.yul\":5249:5281   */\n      eq\n        /* \"#utility.yul\":5239:5299   */\n      tag_132\n      jumpi\n        /* \"#utility.yul\":5295:5296   */\n      0x00\n        /* \"#utility.yul\":5292:5293   */\n      dup1\n        /* \"#utility.yul\":5285:5297   */\n      revert\n        /* \"#utility.yul\":5239:5299   */\n    tag_132:\n        /* \"#utility.yul\":5189:5305   */\n      pop\n      jump\t// out\n        /* \"#utility.yul\":5311:5433   */\n    tag_61:\n        /* \"#utility.yul\":5384:5408   */\n      tag_134\n        /* \"#utility.yul\":5402:5407   */\n      dup2\n        /* \"#utility.yul\":5384:5408   */\n      tag_87\n      jump\t// in\n    tag_134:\n        /* \"#utility.yul\":5377:5382   */\n      dup2\n        /* \"#utility.yul\":5374:5409   */\n      eq\n        /* \"#utility.yul\":5364:5427   */\n      tag_135\n      jumpi\n        /* \"#utility.yul\":5423:5424   */\n      0x00\n        /* \"#utility.yul\":5420:5421   */\n      dup1\n        /* \"#utility.yul\":5413:5425   */\n      revert\n        /* \"#utility.yul\":5364:5427   */\n    tag_135:\n        /* \"#utility.yul\":5311:5433   */\n      pop\n      jump\t// out\n\n    auxdata: 0xa2646970667358221220dcab55d47d5fbf7e957579a57fe72a5336c1fe4ce64052df334a34135caada7264736f6c63430008070033\n}\n",
				"bytecode": {
					"linkReferences": {},
					"object": "608060405260b46000556000600155730aa7726bc0cb085a3c4fbe3b09b91dd7e27f7fea600460006101000a81548173ffffffffffffffffffffffffffffffffffffffff021916908373ffffffffffffffffffffffffffffffffffffffff16021790555034801561006f57600080fd5b5061060e8061007f6000396000f3fe608060405234801561001057600080fd5b50600436106100575760003560e01c8063180dc0ac1461005c57806382760cd21461007a5780639603270214610096578063a035b1fe146100b2578063d3aceae2146100d0575b600080fd5b610064610100565b604051610071919061039a565b60405180910390f35b610094600480360381019061008f919061033c565b610126565b005b6100b060048036038101906100ab919061030f565b61015f565b005b6100ba610258565b6040516100c791906103ec565b60405180910390f35b6100ea60048036038101906100e591906102b5565b61025e565b6040516100f791906103ec565b60405180910390f35b600460009054906101000a900473ffffffffffffffffffffffffffffffffffffffff1681565b4282101561013357600080fd5b8181101561014057600080fd5b62278d004261014f9190610407565b81111561015b57600080fd5b5050565b60025442101561016e57600080fd5b60035442111561017d57600080fd5b6000670de0b6b3a764000060005483610196919061048e565b6101a0919061045d565b9050600460009054906101000a900473ffffffffffffffffffffffffffffffffffffffff1673ffffffffffffffffffffffffffffffffffffffff166323b872dd3330846040518463ffffffff1660e01b8152600401610201939291906103b5565b602060405180830381600087803b15801561021b57600080fd5b505af115801561022f573d6000803e3d6000fd5b505050506040513d601f19601f8201168201806040525081019061025391906102e2565b505050565b60005481565b60056020528060005260406000206000915090505481565b60008135905061028581610593565b92915050565b60008151905061029a816105aa565b92915050565b6000813590506102af816105c1565b92915050565b6000602082840312156102cb576102ca61058e565b5b60006102d984828501610276565b91505092915050565b6000602082840312156102f8576102f761058e565b5b60006103068482850161028b565b91505092915050565b6000602082840312156103255761032461058e565b5b6000610333848285016102a0565b91505092915050565b600080604083850312156103535761035261058e565b5b6000610361858286016102a0565b9250506020610372858286016102a0565b9150509250929050565b610385816104e8565b82525050565b61039481610526565b82525050565b60006020820190506103af600083018461037c565b92915050565b60006060820190506103ca600083018661037c565b6103d7602083018561037c565b6103e4604083018461038b565b949350505050565b6000602082019050610401600083018461038b565b92915050565b600061041282610526565b915061041d83610526565b9250827fffffffffffffffffffffffffffffffffffffffffffffffffffffffffffffffff0382111561045257610451610530565b5b828201905092915050565b600061046882610526565b915061047383610526565b9250826104835761048261055f565b5b828204905092915050565b600061049982610526565b91506104a483610526565b9250817fffffffffffffffffffffffffffffffffffffffffffffffffffffffffffffffff04831182151516156104dd576104dc610530565b5b828202905092915050565b60006104f382610506565b9050919050565b60008115159050919050565b600073ffffffffffffffffffffffffffffffffffffffff82169050919050565b6000819050919050565b7f4e487b7100000000000000000000000000000000000000000000000000000000600052601160045260246000fd5b7f4e487b7100000000000000000000000000000000000000000000000000000000600052601260045260246000fd5b600080fd5b61059c816104e8565b81146105a757600080fd5b50565b6105b3816104fa565b81146105be57600080fd5b50565b6105ca81610526565b81146105d557600080fd5b5056fea2646970667358221220dcab55d47d5fbf7e957579a57fe72a5336c1fe4ce64052df334a34135caada7264736f6c63430008070033",
					"opcodes": "PUSH1 0x80 PUSH1 0x40 MSTORE PUSH1 0xB4 PUSH1 0x0 SSTORE PUSH1 0x0 PUSH1 0x1 SSTORE PUSH20 0xAA7726BC0CB085A3C4FBE3B09B91DD7E27F7FEA PUSH1 0x4 PUSH1 0x0 PUSH2 0x100 EXP DUP2 SLOAD DUP2 PUSH20 0xFFFFFFFFFFFFFFFFFFFFFFFFFFFFFFFFFFFFFFFF MUL NOT AND SWAP1 DUP4 PUSH20 0xFFFFFFFFFFFFFFFFFFFFFFFFFFFFFFFFFFFFFFFF AND MUL OR SWAP1 SSTORE POP CALLVALUE DUP1 ISZERO PUSH2 0x6F JUMPI PUSH1 0x0 DUP1 REVERT JUMPDEST POP PUSH2 0x60E DUP1 PUSH2 0x7F PUSH1 0x0 CODECOPY PUSH1 0x0 RETURN INVALID PUSH1 0x80 PUSH1 0x40 MSTORE CALLVALUE DUP1 ISZERO PUSH2 0x10 JUMPI PUSH1 0x0 DUP1 REVERT JUMPDEST POP PUSH1 0x4 CALLDATASIZE LT PUSH2 0x57 JUMPI PUSH1 0x0 CALLDATALOAD PUSH1 0xE0 SHR DUP1 PUSH4 0x180DC0AC EQ PUSH2 0x5C JUMPI DUP1 PUSH4 0x82760CD2 EQ PUSH2 0x7A JUMPI DUP1 PUSH4 0x96032702 EQ PUSH2 0x96 JUMPI DUP1 PUSH4 0xA035B1FE EQ PUSH2 0xB2 JUMPI DUP1 PUSH4 0xD3ACEAE2 EQ PUSH2 0xD0 JUMPI JUMPDEST PUSH1 0x0 DUP1 REVERT JUMPDEST PUSH2 0x64 PUSH2 0x100 JUMP JUMPDEST PUSH1 0x40 MLOAD PUSH2 0x71 SWAP2 SWAP1 PUSH2 0x39A JUMP JUMPDEST PUSH1 0x40 MLOAD DUP1 SWAP2 SUB SWAP1 RETURN JUMPDEST PUSH2 0x94 PUSH1 0x4 DUP1 CALLDATASIZE SUB DUP2 ADD SWAP1 PUSH2 0x8F SWAP2 SWAP1 PUSH2 0x33C JUMP JUMPDEST PUSH2 0x126 JUMP JUMPDEST STOP JUMPDEST PUSH2 0xB0 PUSH1 0x4 DUP1 CALLDATASIZE SUB DUP2 ADD SWAP1 PUSH2 0xAB SWAP2 SWAP1 PUSH2 0x30F JUMP JUMPDEST PUSH2 0x15F JUMP JUMPDEST STOP JUMPDEST PUSH2 0xBA PUSH2 0x258 JUMP JUMPDEST PUSH1 0x40 MLOAD PUSH2 0xC7 SWAP2 SWAP1 PUSH2 0x3EC JUMP JUMPDEST PUSH1 0x40 MLOAD DUP1 SWAP2 SUB SWAP1 RETURN JUMPDEST PUSH2 0xEA PUSH1 0x4 DUP1 CALLDATASIZE SUB DUP2 ADD SWAP1 PUSH2 0xE5 SWAP2 SWAP1 PUSH2 0x2B5 JUMP JUMPDEST PUSH2 0x25E JUMP JUMPDEST PUSH1 0x40 MLOAD PUSH2 0xF7 SWAP2 SWAP1 PUSH2 0x3EC JUMP JUMPDEST PUSH1 0x40 MLOAD DUP1 SWAP2 SUB SWAP1 RETURN JUMPDEST PUSH1 0x4 PUSH1 0x0 SWAP1 SLOAD SWAP1 PUSH2 0x100 EXP SWAP1 DIV PUSH20 0xFFFFFFFFFFFFFFFFFFFFFFFFFFFFFFFFFFFFFFFF AND DUP2 JUMP JUMPDEST TIMESTAMP DUP3 LT ISZERO PUSH2 0x133 JUMPI PUSH1 0x0 DUP1 REVERT JUMPDEST DUP2 DUP2 LT ISZERO PUSH2 0x140 JUMPI PUSH1 0x0 DUP1 REVERT JUMPDEST PUSH3 0x278D00 TIMESTAMP PUSH2 0x14F SWAP2 SWAP1 PUSH2 0x407 JUMP JUMPDEST DUP2 GT ISZERO PUSH2 0x15B JUMPI PUSH1 0x0 DUP1 REVERT JUMPDEST POP POP JUMP JUMPDEST PUSH1 0x2 SLOAD TIMESTAMP LT ISZERO PUSH2 0x16E JUMPI PUSH1 0x0 DUP1 REVERT JUMPDEST PUSH1 0x3 SLOAD TIMESTAMP GT ISZERO PUSH2 0x17D JUMPI PUSH1 0x0 DUP1 REVERT JUMPDEST PUSH1 0x0 PUSH8 0xDE0B6B3A7640000 PUSH1 0x0 SLOAD DUP4 PUSH2 0x196 SWAP2 SWAP1 PUSH2 0x48E JUMP JUMPDEST PUSH2 0x1A0 SWAP2 SWAP1 PUSH2 0x45D JUMP JUMPDEST SWAP1 POP PUSH1 0x4 PUSH1 0x0 SWAP1 SLOAD SWAP1 PUSH2 0x100 EXP SWAP1 DIV PUSH20 0xFFFFFFFFFFFFFFFFFFFFFFFFFFFFFFFFFFFFFFFF AND PUSH20 0xFFFFFFFFFFFFFFFFFFFFFFFFFFFFFFFFFFFFFFFF AND PUSH4 0x23B872DD CALLER ADDRESS DUP5 PUSH1 0x40 MLOAD DUP5 PUSH4 0xFFFFFFFF AND PUSH1 0xE0 SHL DUP2 MSTORE PUSH1 0x4 ADD PUSH2 0x201 SWAP4 SWAP3 SWAP2 SWAP1 PUSH2 0x3B5 JUMP JUMPDEST PUSH1 0x20 PUSH1 0x40 MLOAD DUP1 DUP4 SUB DUP2 PUSH1 0x0 DUP8 DUP1 EXTCODESIZE ISZERO DUP1 ISZERO PUSH2 0x21B JUMPI PUSH1 0x0 DUP1 REVERT JUMPDEST POP GAS CALL ISZERO DUP1 ISZERO PUSH2 0x22F JUMPI RETURNDATASIZE PUSH1 0x0 DUP1 RETURNDATACOPY RETURNDATASIZE PUSH1 0x0 REVERT JUMPDEST POP POP POP POP PUSH1 0x40 MLOAD RETURNDATASIZE PUSH1 0x1F NOT PUSH1 0x1F DUP3 ADD AND DUP3 ADD DUP1 PUSH1 0x40 MSTORE POP DUP2 ADD SWAP1 PUSH2 0x253 SWAP2 SWAP1 PUSH2 0x2E2 JUMP JUMPDEST POP POP POP JUMP JUMPDEST PUSH1 0x0 SLOAD DUP2 JUMP JUMPDEST PUSH1 0x5 PUSH1 0x20 MSTORE DUP1 PUSH1 0x0 MSTORE PUSH1 0x40 PUSH1 0x0 KECCAK256 PUSH1 0x0 SWAP2 POP SWAP1 POP SLOAD DUP2 JUMP JUMPDEST PUSH1 0x0 DUP2 CALLDATALOAD SWAP1 POP PUSH2 0x285 DUP2 PUSH2 0x593 JUMP JUMPDEST SWAP3 SWAP2 POP POP JUMP JUMPDEST PUSH1 0x0 DUP2 MLOAD SWAP1 POP PUSH2 0x29A DUP2 PUSH2 0x5AA JUMP JUMPDEST SWAP3 SWAP2 POP POP JUMP JUMPDEST PUSH1 0x0 DUP2 CALLDATALOAD SWAP1 POP PUSH2 0x2AF DUP2 PUSH2 0x5C1 JUMP JUMPDEST SWAP3 SWAP2 POP POP JUMP JUMPDEST PUSH1 0x0 PUSH1 0x20 DUP3 DUP5 SUB SLT ISZERO PUSH2 0x2CB JUMPI PUSH2 0x2CA PUSH2 0x58E JUMP JUMPDEST JUMPDEST PUSH1 0x0 PUSH2 0x2D9 DUP5 DUP3 DUP6 ADD PUSH2 0x276 JUMP JUMPDEST SWAP2 POP POP SWAP3 SWAP2 POP POP JUMP JUMPDEST PUSH1 0x0 PUSH1 0x20 DUP3 DUP5 SUB SLT ISZERO PUSH2 0x2F8 JUMPI PUSH2 0x2F7 PUSH2 0x58E JUMP JUMPDEST JUMPDEST PUSH1 0x0 PUSH2 0x306 DUP5 DUP3 DUP6 ADD PUSH2 0x28B JUMP JUMPDEST SWAP2 POP POP SWAP3 SWAP2 POP POP JUMP JUMPDEST PUSH1 0x0 PUSH1 0x20 DUP3 DUP5 SUB SLT ISZERO PUSH2 0x325 JUMPI PUSH2 0x324 PUSH2 0x58E JUMP JUMPDEST JUMPDEST PUSH1 0x0 PUSH2 0x333 DUP5 DUP3 DUP6 ADD PUSH2 0x2A0 JUMP JUMPDEST SWAP2 POP POP SWAP3 SWAP2 POP POP JUMP JUMPDEST PUSH1 0x0 DUP1 PUSH1 0x40 DUP4 DUP6 SUB SLT ISZERO PUSH2 0x353 JUMPI PUSH2 0x352 PUSH2 0x58E JUMP JUMPDEST JUMPDEST PUSH1 0x0 PUSH2 0x361 DUP6 DUP3 DUP7 ADD PUSH2 0x2A0 JUMP JUMPDEST SWAP3 POP POP PUSH1 0x20 PUSH2 0x372 DUP6 DUP3 DUP7 ADD PUSH2 0x2A0 JUMP JUMPDEST SWAP2 POP POP SWAP3 POP SWAP3 SWAP1 POP JUMP JUMPDEST PUSH2 0x385 DUP2 PUSH2 0x4E8 JUMP JUMPDEST DUP3 MSTORE POP POP JUMP JUMPDEST PUSH2 0x394 DUP2 PUSH2 0x526 JUMP JUMPDEST DUP3 MSTORE POP POP JUMP JUMPDEST PUSH1 0x0 PUSH1 0x20 DUP3 ADD SWAP1 POP PUSH2 0x3AF PUSH1 0x0 DUP4 ADD DUP5 PUSH2 0x37C JUMP JUMPDEST SWAP3 SWAP2 POP POP JUMP JUMPDEST PUSH1 0x0 PUSH1 0x60 DUP3 ADD SWAP1 POP PUSH2 0x3CA PUSH1 0x0 DUP4 ADD DUP7 PUSH2 0x37C JUMP JUMPDEST PUSH2 0x3D7 PUSH1 0x20 DUP4 ADD DUP6 PUSH2 0x37C JUMP JUMPDEST PUSH2 0x3E4 PUSH1 0x40 DUP4 ADD DUP5 PUSH2 0x38B JUMP JUMPDEST SWAP5 SWAP4 POP POP POP POP JUMP JUMPDEST PUSH1 0x0 PUSH1 0x20 DUP3 ADD SWAP1 POP PUSH2 0x401 PUSH1 0x0 DUP4 ADD DUP5 PUSH2 0x38B JUMP JUMPDEST SWAP3 SWAP2 POP POP JUMP JUMPDEST PUSH1 0x0 PUSH2 0x412 DUP3 PUSH2 0x526 JUMP JUMPDEST SWAP2 POP PUSH2 0x41D DUP4 PUSH2 0x526 JUMP JUMPDEST SWAP3 POP DUP3 PUSH32 0xFFFFFFFFFFFFFFFFFFFFFFFFFFFFFFFFFFFFFFFFFFFFFFFFFFFFFFFFFFFFFFFF SUB DUP3 GT ISZERO PUSH2 0x452 JUMPI PUSH2 0x451 PUSH2 0x530 JUMP JUMPDEST JUMPDEST DUP3 DUP3 ADD SWAP1 POP SWAP3 SWAP2 POP POP JUMP JUMPDEST PUSH1 0x0 PUSH2 0x468 DUP3 PUSH2 0x526 JUMP JUMPDEST SWAP2 POP PUSH2 0x473 DUP4 PUSH2 0x526 JUMP JUMPDEST SWAP3 POP DUP3 PUSH2 0x483 JUMPI PUSH2 0x482 PUSH2 0x55F JUMP JUMPDEST JUMPDEST DUP3 DUP3 DIV SWAP1 POP SWAP3 SWAP2 POP POP JUMP JUMPDEST PUSH1 0x0 PUSH2 0x499 DUP3 PUSH2 0x526 JUMP JUMPDEST SWAP2 POP PUSH2 0x4A4 DUP4 PUSH2 0x526 JUMP JUMPDEST SWAP3 POP DUP2 PUSH32 0xFFFFFFFFFFFFFFFFFFFFFFFFFFFFFFFFFFFFFFFFFFFFFFFFFFFFFFFFFFFFFFFF DIV DUP4 GT DUP3 ISZERO ISZERO AND ISZERO PUSH2 0x4DD JUMPI PUSH2 0x4DC PUSH2 0x530 JUMP JUMPDEST JUMPDEST DUP3 DUP3 MUL SWAP1 POP SWAP3 SWAP2 POP POP JUMP JUMPDEST PUSH1 0x0 PUSH2 0x4F3 DUP3 PUSH2 0x506 JUMP JUMPDEST SWAP1 POP SWAP2 SWAP1 POP JUMP JUMPDEST PUSH1 0x0 DUP2 ISZERO ISZERO SWAP1 POP SWAP2 SWAP1 POP JUMP JUMPDEST PUSH1 0x0 PUSH20 0xFFFFFFFFFFFFFFFFFFFFFFFFFFFFFFFFFFFFFFFF DUP3 AND SWAP1 POP SWAP2 SWAP1 POP JUMP JUMPDEST PUSH1 0x0 DUP2 SWAP1 POP SWAP2 SWAP1 POP JUMP JUMPDEST PUSH32 0x4E487B7100000000000000000000000000000000000000000000000000000000 PUSH1 0x0 MSTORE PUSH1 0x11 PUSH1 0x4 MSTORE PUSH1 0x24 PUSH1 0x0 REVERT JUMPDEST PUSH32 0x4E487B7100000000000000000000000000000000000000000000000000000000 PUSH1 0x0 MSTORE PUSH1 0x12 PUSH1 0x4 MSTORE PUSH1 0x24 PUSH1 0x0 REVERT JUMPDEST PUSH1 0x0 DUP1 REVERT JUMPDEST PUSH2 0x59C DUP2 PUSH2 0x4E8 JUMP JUMPDEST DUP2 EQ PUSH2 0x5A7 JUMPI PUSH1 0x0 DUP1 REVERT JUMPDEST POP JUMP JUMPDEST PUSH2 0x5B3 DUP2 PUSH2 0x4FA JUMP JUMPDEST DUP2 EQ PUSH2 0x5BE JUMPI PUSH1 0x0 DUP1 REVERT JUMPDEST POP JUMP JUMPDEST PUSH2 0x5CA DUP2 PUSH2 0x526 JUMP JUMPDEST DUP2 EQ PUSH2 0x5D5 JUMPI PUSH1 0x0 DUP1 REVERT JUMPDEST POP JUMP INVALID LOG2 PUSH5 0x6970667358 0x22 SLT KECCAK256 0xDC 0xAB SSTORE 0xD4 PUSH30 0x5FBF7E957579A57FE72A5336C1FE4CE64052DF334A34135CAADA7264736F PUSH13 0x63430008070033000000000000 "
				},
				"gasEstimates": {
					"creation": {
						"codeDepositCost": "310000",
						"executionCost": "51728",
						"totalCost": "361728"
					},
					"external": {
						"_balance(address)": "2880",
						"axsToken()": "2492",
						"launch(uint256,uint256)": "infinite",
						"price()": "2473",
						"sale(uint256)": "infinite"
					}
				},
				"methodIdentifiers": {
					"_balance(address)": "d3aceae2",
					"axsToken()": "180dc0ac",
					"launch(uint256,uint256)": "82760cd2",
					"price()": "a035b1fe",
					"sale(uint256)": "96032702"
				}
			},
			"storageLayout": {
				"storage": [
					{
						"astId": 87,
						"contract": "TokenSell.sol:Tokensell",
						"label": "price",
						"offset": 0,
						"slot": "0",
						"type": "t_uint256"
					},
					{
						"astId": 90,
						"contract": "TokenSell.sol:Tokensell",
						"label": "userbalance",
						"offset": 0,
						"slot": "1",
						"type": "t_uint256"
					},
					{
						"astId": 92,
						"contract": "TokenSell.sol:Tokensell",
						"label": "starttime",
						"offset": 0,
						"slot": "2",
						"type": "t_uint256"
					},
					{
						"astId": 94,
						"contract": "TokenSell.sol:Tokensell",
						"label": "endtime",
						"offset": 0,
						"slot": "3",
						"type": "t_uint256"
					},
					{
						"astId": 97,
						"contract": "TokenSell.sol:Tokensell",
						"label": "axsToken",
						"offset": 0,
						"slot": "4",
						"type": "t_address"
					},
					{
						"astId": 101,
						"contract": "TokenSell.sol:Tokensell",
						"label": "_balance",
						"offset": 0,
						"slot": "5",
						"type": "t_mapping(t_address,t_uint256)"
					}
				],
				"types": {
					"t_address": {
						"encoding": "inplace",
						"label": "address",
						"numberOfBytes": "20"
					},
					"t_mapping(t_address,t_uint256)": {
						"encoding": "mapping",
						"key": "t_address",
						"label": "mapping(address => uint256)",
						"numberOfBytes": "32",
						"value": "t_uint256"
					},
					"t_uint256": {
						"encoding": "inplace",
						"label": "uint256",
						"numberOfBytes": "32"
					}
				}
			},
			"userdoc": {
				"kind": "user",
				"methods": {},
				"version": 1
			}
		}
	}
}