{
	"TokenSell.sol": {
		"Tokensell": {
			"abi": [
				{
					"inputs": [
						{
							"internalType": "uint256",
							"name": "timeRuns",
							"type": "uint256"
						}
					],
					"stateMutability": "nonpayable",
					"type": "constructor"
				},
				{
					"inputs": [],
					"name": "axsToken",
					"outputs": [
						{
							"internalType": "address",
							"name": "",
							"type": "address"
						}
					],
					"stateMutability": "view",
					"type": "function"
				},
				{
					"inputs": [],
					"name": "endTime",
					"outputs": [
						{
							"internalType": "uint256",
							"name": "",
							"type": "uint256"
						}
					],
					"stateMutability": "view",
					"type": "function"
				},
				{
					"inputs": [
						{
							"internalType": "uint256",
							"name": "amount",
							"type": "uint256"
						}
					],
					"name": "receiveUSDT",
					"outputs": [],
					"stateMutability": "payable",
					"type": "function"
				},
				{
					"inputs": [],
					"name": "startTime",
					"outputs": [
						{
							"internalType": "uint256",
							"name": "",
							"type": "uint256"
						}
					],
					"stateMutability": "view",
					"type": "function"
				}
			],
			"devdoc": {
				"kind": "dev",
				"methods": {},
				"version": 1
			},
			"evm": {
				"assembly": "    /* \"TokenSell.sol\":125:604  contract Tokensell{\r... */\n  mstore(0x40, 0x80)\n    /* \"TokenSell.sol\":236:278  0x0aa7726bc0cB085A3C4fbE3B09b91DD7E27f7fea */\n  0x0aa7726bc0cb085a3c4fbe3b09b91dd7e27f7fea\n    /* \"TokenSell.sol\":210:278  address public axsToken = 0x0aa7726bc0cB085A3C4fbE3B09b91DD7E27f7fea */\n  0x02\n  exp(0x0100, 0x00)\n  dup2\n  sload\n  dup2\n  0xffffffffffffffffffffffffffffffffffffffff\n  mul\n  not\n  and\n  swap1\n  dup4\n  0xffffffffffffffffffffffffffffffffffffffff\n  and\n  mul\n  or\n  swap1\n  sstore\n  pop\n    /* \"TokenSell.sol\":287:389  constructor(uint timeRuns) public{\r... */\n  callvalue\n  dup1\n  iszero\n  tag_1\n  jumpi\n  0x00\n  dup1\n  revert\ntag_1:\n  pop\n  mload(0x40)\n  sub(codesize, bytecodeSize)\n  dup1\n  bytecodeSize\n  dup4\n  codecopy\n  dup2\n  dup2\n  add\n  0x40\n  mstore\n  dup2\n  add\n  swap1\n  tag_2\n  swap2\n  swap1\n  tag_3\n  jump\t// in\ntag_2:\n    /* \"TokenSell.sol\":370:379  1 minutes */\n  0x3c\n    /* \"TokenSell.sol\":359:367  timeRuns */\n  dup2\n    /* \"TokenSell.sol\":359:379  timeRuns * 1 minutes */\n  tag_6\n  swap2\n  swap1\n  tag_7\n  jump\t// in\ntag_6:\n    /* \"TokenSell.sol\":341:356  block.timestamp */\n  timestamp\n    /* \"TokenSell.sol\":341:379  block.timestamp + timeRuns * 1 minutes */\n  tag_8\n  swap2\n  swap1\n  tag_9\n  jump\t// in\ntag_8:\n    /* \"TokenSell.sol\":331:338  endTime */\n  0x01\n    /* \"TokenSell.sol\":331:379  endTime = block.timestamp + timeRuns * 1 minutes */\n  dup2\n  swap1\n  sstore\n  pop\n    /* \"TokenSell.sol\":287:389  constructor(uint timeRuns) public{\r... */\n  pop\n    /* \"TokenSell.sol\":125:604  contract Tokensell{\r... */\n  jump(tag_10)\n    /* \"#utility.yul\":7:150   */\ntag_12:\n    /* \"#utility.yul\":64:69   */\n  0x00\n    /* \"#utility.yul\":95:101   */\n  dup2\n    /* \"#utility.yul\":89:102   */\n  mload\n    /* \"#utility.yul\":80:102   */\n  swap1\n  pop\n    /* \"#utility.yul\":111:144   */\n  tag_14\n    /* \"#utility.yul\":138:143   */\n  dup2\n    /* \"#utility.yul\":111:144   */\n  tag_15\n  jump\t// in\ntag_14:\n    /* \"#utility.yul\":7:150   */\n  swap3\n  swap2\n  pop\n  pop\n  jump\t// out\n    /* \"#utility.yul\":156:507   */\ntag_3:\n    /* \"#utility.yul\":226:232   */\n  0x00\n    /* \"#utility.yul\":275:277   */\n  0x20\n    /* \"#utility.yul\":263:272   */\n  dup3\n    /* \"#utility.yul\":254:261   */\n  dup5\n    /* \"#utility.yul\":250:273   */\n  sub\n    /* \"#utility.yul\":246:278   */\n  slt\n    /* \"#utility.yul\":243:362   */\n  iszero\n  tag_17\n  jumpi\n    /* \"#utility.yul\":281:360   */\n  tag_18\n  tag_19\n  jump\t// in\ntag_18:\n    /* \"#utility.yul\":243:362   */\ntag_17:\n    /* \"#utility.yul\":401:402   */\n  0x00\n    /* \"#utility.yul\":426:490   */\n  tag_20\n    /* \"#utility.yul\":482:489   */\n  dup5\n    /* \"#utility.yul\":473:479   */\n  dup3\n    /* \"#utility.yul\":462:471   */\n  dup6\n    /* \"#utility.yul\":458:480   */\n  add\n    /* \"#utility.yul\":426:490   */\n  tag_12\n  jump\t// in\ntag_20:\n    /* \"#utility.yul\":416:490   */\n  swap2\n  pop\n    /* \"#utility.yul\":372:500   */\n  pop\n    /* \"#utility.yul\":156:507   */\n  swap3\n  swap2\n  pop\n  pop\n  jump\t// out\n    /* \"#utility.yul\":594:899   */\ntag_9:\n    /* \"#utility.yul\":634:637   */\n  0x00\n    /* \"#utility.yul\":653:673   */\n  tag_24\n    /* \"#utility.yul\":671:672   */\n  dup3\n    /* \"#utility.yul\":653:673   */\n  tag_25\n  jump\t// in\ntag_24:\n    /* \"#utility.yul\":648:673   */\n  swap2\n  pop\n    /* \"#utility.yul\":687:707   */\n  tag_26\n    /* \"#utility.yul\":705:706   */\n  dup4\n    /* \"#utility.yul\":687:707   */\n  tag_25\n  jump\t// in\ntag_26:\n    /* \"#utility.yul\":682:707   */\n  swap3\n  pop\n    /* \"#utility.yul\":841:842   */\n  dup3\n    /* \"#utility.yul\":773:839   */\n  0xffffffffffffffffffffffffffffffffffffffffffffffffffffffffffffffff\n    /* \"#utility.yul\":769:843   */\n  sub\n    /* \"#utility.yul\":766:767   */\n  dup3\n    /* \"#utility.yul\":763:844   */\n  gt\n    /* \"#utility.yul\":760:867   */\n  iszero\n  tag_27\n  jumpi\n    /* \"#utility.yul\":847:865   */\n  tag_28\n  tag_29\n  jump\t// in\ntag_28:\n    /* \"#utility.yul\":760:867   */\ntag_27:\n    /* \"#utility.yul\":891:892   */\n  dup3\n    /* \"#utility.yul\":888:889   */\n  dup3\n    /* \"#utility.yul\":884:893   */\n  add\n    /* \"#utility.yul\":877:893   */\n  swap1\n  pop\n    /* \"#utility.yul\":594:899   */\n  swap3\n  swap2\n  pop\n  pop\n  jump\t// out\n    /* \"#utility.yul\":905:1253   */\ntag_7:\n    /* \"#utility.yul\":945:952   */\n  0x00\n    /* \"#utility.yul\":968:988   */\n  tag_31\n    /* \"#utility.yul\":986:987   */\n  dup3\n    /* \"#utility.yul\":968:988   */\n  tag_25\n  jump\t// in\ntag_31:\n    /* \"#utility.yul\":963:988   */\n  swap2\n  pop\n    /* \"#utility.yul\":1002:1022   */\n  tag_32\n    /* \"#utility.yul\":1020:1021   */\n  dup4\n    /* \"#utility.yul\":1002:1022   */\n  tag_25\n  jump\t// in\ntag_32:\n    /* \"#utility.yul\":997:1022   */\n  swap3\n  pop\n    /* \"#utility.yul\":1190:1191   */\n  dup2\n    /* \"#utility.yul\":1122:1188   */\n  0xffffffffffffffffffffffffffffffffffffffffffffffffffffffffffffffff\n    /* \"#utility.yul\":1118:1192   */\n  div\n    /* \"#utility.yul\":1115:1116   */\n  dup4\n    /* \"#utility.yul\":1112:1193   */\n  gt\n    /* \"#utility.yul\":1107:1108   */\n  dup3\n    /* \"#utility.yul\":1100:1109   */\n  iszero\n    /* \"#utility.yul\":1093:1110   */\n  iszero\n    /* \"#utility.yul\":1089:1194   */\n  and\n    /* \"#utility.yul\":1086:1217   */\n  iszero\n  tag_33\n  jumpi\n    /* \"#utility.yul\":1197:1215   */\n  tag_34\n  tag_29\n  jump\t// in\ntag_34:\n    /* \"#utility.yul\":1086:1217   */\ntag_33:\n    /* \"#utility.yul\":1245:1246   */\n  dup3\n    /* \"#utility.yul\":1242:1243   */\n  dup3\n    /* \"#utility.yul\":1238:1247   */\n  mul\n    /* \"#utility.yul\":1227:1247   */\n  swap1\n  pop\n    /* \"#utility.yul\":905:1253   */\n  swap3\n  swap2\n  pop\n  pop\n  jump\t// out\n    /* \"#utility.yul\":1259:1336   */\ntag_25:\n    /* \"#utility.yul\":1296:1303   */\n  0x00\n    /* \"#utility.yul\":1325:1330   */\n  dup2\n    /* \"#utility.yul\":1314:1330   */\n  swap1\n  pop\n    /* \"#utility.yul\":1259:1336   */\n  swap2\n  swap1\n  pop\n  jump\t// out\n    /* \"#utility.yul\":1342:1522   */\ntag_29:\n    /* \"#utility.yul\":1390:1467   */\n  0x4e487b7100000000000000000000000000000000000000000000000000000000\n    /* \"#utility.yul\":1387:1388   */\n  0x00\n    /* \"#utility.yul\":1380:1468   */\n  mstore\n    /* \"#utility.yul\":1487:1491   */\n  0x11\n    /* \"#utility.yul\":1484:1485   */\n  0x04\n    /* \"#utility.yul\":1477:1492   */\n  mstore\n    /* \"#utility.yul\":1511:1515   */\n  0x24\n    /* \"#utility.yul\":1508:1509   */\n  0x00\n    /* \"#utility.yul\":1501:1516   */\n  revert\n    /* \"#utility.yul\":1651:1768   */\ntag_19:\n    /* \"#utility.yul\":1760:1761   */\n  0x00\n    /* \"#utility.yul\":1757:1758   */\n  dup1\n    /* \"#utility.yul\":1750:1762   */\n  revert\n    /* \"#utility.yul\":1774:1896   */\ntag_15:\n    /* \"#utility.yul\":1847:1871   */\n  tag_41\n    /* \"#utility.yul\":1865:1870   */\n  dup2\n    /* \"#utility.yul\":1847:1871   */\n  tag_25\n  jump\t// in\ntag_41:\n    /* \"#utility.yul\":1840:1845   */\n  dup2\n    /* \"#utility.yul\":1837:1872   */\n  eq\n    /* \"#utility.yul\":1827:1890   */\n  tag_42\n  jumpi\n    /* \"#utility.yul\":1886:1887   */\n  0x00\n    /* \"#utility.yul\":1883:1884   */\n  dup1\n    /* \"#utility.yul\":1876:1888   */\n  revert\n    /* \"#utility.yul\":1827:1890   */\ntag_42:\n    /* \"#utility.yul\":1774:1896   */\n  pop\n  jump\t// out\n    /* \"TokenSell.sol\":125:604  contract Tokensell{\r... */\ntag_10:\n  dataSize(sub_0)\n  dup1\n  dataOffset(sub_0)\n  0x00\n  codecopy\n  0x00\n  return\nstop\n\nsub_0: assembly {\n        /* \"TokenSell.sol\":125:604  contract Tokensell{\r... */\n      mstore(0x40, 0x80)\n      jumpi(tag_1, lt(calldatasize, 0x04))\n      shr(0xe0, calldataload(0x00))\n      dup1\n      0x180dc0ac\n      eq\n      tag_2\n      jumpi\n      dup1\n      0x3197cbb6\n      eq\n      tag_3\n      jumpi\n      dup1\n      0x38d51da8\n      eq\n      tag_4\n      jumpi\n      dup1\n      0x78e97925\n      eq\n      tag_5\n      jumpi\n    tag_1:\n      0x00\n      dup1\n      revert\n        /* \"TokenSell.sol\":210:278  address public axsToken = 0x0aa7726bc0cB085A3C4fbE3B09b91DD7E27f7fea */\n    tag_2:\n      callvalue\n      dup1\n      iszero\n      tag_6\n      jumpi\n      0x00\n      dup1\n      revert\n    tag_6:\n      pop\n      tag_7\n      tag_8\n      jump\t// in\n    tag_7:\n      mload(0x40)\n      tag_9\n      swap2\n      swap1\n      tag_10\n      jump\t// in\n    tag_9:\n      mload(0x40)\n      dup1\n      swap2\n      sub\n      swap1\n      return\n        /* \"TokenSell.sol\":178:197  uint public endTime */\n    tag_3:\n      callvalue\n      dup1\n      iszero\n      tag_11\n      jumpi\n      0x00\n      dup1\n      revert\n    tag_11:\n      pop\n      tag_12\n      tag_13\n      jump\t// in\n    tag_12:\n      mload(0x40)\n      tag_14\n      swap2\n      swap1\n      tag_15\n      jump\t// in\n    tag_14:\n      mload(0x40)\n      dup1\n      swap2\n      sub\n      swap1\n      return\n        /* \"TokenSell.sol\":399:601  function receiveUSDT(uint256 amount) public payable{\r... */\n    tag_4:\n      tag_16\n      0x04\n      dup1\n      calldatasize\n      sub\n      dup2\n      add\n      swap1\n      tag_17\n      swap2\n      swap1\n      tag_18\n      jump\t// in\n    tag_17:\n      tag_19\n      jump\t// in\n    tag_16:\n      stop\n        /* \"TokenSell.sol\":150:171  uint public startTime */\n    tag_5:\n      callvalue\n      dup1\n      iszero\n      tag_20\n      jumpi\n      0x00\n      dup1\n      revert\n    tag_20:\n      pop\n      tag_21\n      tag_22\n      jump\t// in\n    tag_21:\n      mload(0x40)\n      tag_23\n      swap2\n      swap1\n      tag_15\n      jump\t// in\n    tag_23:\n      mload(0x40)\n      dup1\n      swap2\n      sub\n      swap1\n      return\n        /* \"TokenSell.sol\":210:278  address public axsToken = 0x0aa7726bc0cB085A3C4fbE3B09b91DD7E27f7fea */\n    tag_8:\n      0x02\n      0x00\n      swap1\n      sload\n      swap1\n      0x0100\n      exp\n      swap1\n      div\n      0xffffffffffffffffffffffffffffffffffffffff\n      and\n      dup2\n      jump\t// out\n        /* \"TokenSell.sol\":178:197  uint public endTime */\n    tag_13:\n      sload(0x01)\n      dup2\n      jump\t// out\n        /* \"TokenSell.sol\":399:601  function receiveUSDT(uint256 amount) public payable{\r... */\n    tag_19:\n        /* \"TokenSell.sol\":487:494  endTime */\n      sload(0x01)\n        /* \"TokenSell.sol\":469:484  block.timestamp */\n      timestamp\n        /* \"TokenSell.sol\":469:494  block.timestamp < endTime */\n      lt\n        /* \"TokenSell.sol\":461:495  require(block.timestamp < endTime) */\n      tag_25\n      jumpi\n      0x00\n      dup1\n      revert\n    tag_25:\n        /* \"TokenSell.sol\":526:527  0 */\n      0x00\n        /* \"TokenSell.sol\":514:523  msg.value */\n      callvalue\n        /* \"TokenSell.sol\":514:527  msg.value > 0 */\n      gt\n        /* \"TokenSell.sol\":506:528  require(msg.value > 0) */\n      tag_26\n      jumpi\n      0x00\n      dup1\n      revert\n    tag_26:\n        /* \"TokenSell.sol\":546:554  axsToken */\n      0x02\n      0x00\n      swap1\n      sload\n      swap1\n      0x0100\n      exp\n      swap1\n      div\n      0xffffffffffffffffffffffffffffffffffffffff\n      and\n        /* \"TokenSell.sol\":539:564  IERC20(axsToken).transfer */\n      0xffffffffffffffffffffffffffffffffffffffff\n      and\n      0xa9059cbb\n        /* \"TokenSell.sol\":565:575  msg.sender */\n      caller\n        /* \"TokenSell.sol\":589:592  100 */\n      0x64\n        /* \"TokenSell.sol\":577:586  msg.value */\n      callvalue\n        /* \"TokenSell.sol\":577:592  msg.value * 100 */\n      tag_27\n      swap2\n      swap1\n      tag_28\n      jump\t// in\n    tag_27:\n        /* \"TokenSell.sol\":539:593  IERC20(axsToken).transfer(msg.sender, msg.value * 100) */\n      mload(0x40)\n      dup4\n      0xffffffff\n      and\n      0xe0\n      shl\n      dup2\n      mstore\n      0x04\n      add\n      tag_29\n      swap3\n      swap2\n      swap1\n      tag_30\n      jump\t// in\n    tag_29:\n      0x20\n      mload(0x40)\n      dup1\n      dup4\n      sub\n      dup2\n      0x00\n      dup8\n      dup1\n      extcodesize\n      iszero\n      dup1\n      iszero\n      tag_31\n      jumpi\n      0x00\n      dup1\n      revert\n    tag_31:\n      pop\n      gas\n      call\n      iszero\n      dup1\n      iszero\n      tag_33\n      jumpi\n      returndatasize\n      0x00\n      dup1\n      returndatacopy\n      revert(0x00, returndatasize)\n    tag_33:\n      pop\n      pop\n      pop\n      pop\n      mload(0x40)\n      returndatasize\n      not(0x1f)\n      0x1f\n      dup3\n      add\n      and\n      dup3\n      add\n      dup1\n      0x40\n      mstore\n      pop\n      dup2\n      add\n      swap1\n      tag_34\n      swap2\n      swap1\n      tag_35\n      jump\t// in\n    tag_34:\n      pop\n        /* \"TokenSell.sol\":399:601  function receiveUSDT(uint256 amount) public payable{\r... */\n      pop\n      jump\t// out\n        /* \"TokenSell.sol\":150:171  uint public startTime */\n    tag_22:\n      sload(0x00)\n      dup2\n      jump\t// out\n        /* \"#utility.yul\":7:144   */\n    tag_37:\n        /* \"#utility.yul\":61:66   */\n      0x00\n        /* \"#utility.yul\":92:98   */\n      dup2\n        /* \"#utility.yul\":86:99   */\n      mload\n        /* \"#utility.yul\":77:99   */\n      swap1\n      pop\n        /* \"#utility.yul\":108:138   */\n      tag_39\n        /* \"#utility.yul\":132:137   */\n      dup2\n        /* \"#utility.yul\":108:138   */\n      tag_40\n      jump\t// in\n    tag_39:\n        /* \"#utility.yul\":7:144   */\n      swap3\n      swap2\n      pop\n      pop\n      jump\t// out\n        /* \"#utility.yul\":150:289   */\n    tag_41:\n        /* \"#utility.yul\":196:201   */\n      0x00\n        /* \"#utility.yul\":234:240   */\n      dup2\n        /* \"#utility.yul\":221:241   */\n      calldataload\n        /* \"#utility.yul\":212:241   */\n      swap1\n      pop\n        /* \"#utility.yul\":250:283   */\n      tag_43\n        /* \"#utility.yul\":277:282   */\n      dup2\n        /* \"#utility.yul\":250:283   */\n      tag_44\n      jump\t// in\n    tag_43:\n        /* \"#utility.yul\":150:289   */\n      swap3\n      swap2\n      pop\n      pop\n      jump\t// out\n        /* \"#utility.yul\":295:640   */\n    tag_35:\n        /* \"#utility.yul\":362:368   */\n      0x00\n        /* \"#utility.yul\":411:413   */\n      0x20\n        /* \"#utility.yul\":399:408   */\n      dup3\n        /* \"#utility.yul\":390:397   */\n      dup5\n        /* \"#utility.yul\":386:409   */\n      sub\n        /* \"#utility.yul\":382:414   */\n      slt\n        /* \"#utility.yul\":379:498   */\n      iszero\n      tag_46\n      jumpi\n        /* \"#utility.yul\":417:496   */\n      tag_47\n      tag_48\n      jump\t// in\n    tag_47:\n        /* \"#utility.yul\":379:498   */\n    tag_46:\n        /* \"#utility.yul\":537:538   */\n      0x00\n        /* \"#utility.yul\":562:623   */\n      tag_49\n        /* \"#utility.yul\":615:622   */\n      dup5\n        /* \"#utility.yul\":606:612   */\n      dup3\n        /* \"#utility.yul\":595:604   */\n      dup6\n        /* \"#utility.yul\":591:613   */\n      add\n        /* \"#utility.yul\":562:623   */\n      tag_37\n      jump\t// in\n    tag_49:\n        /* \"#utility.yul\":552:623   */\n      swap2\n      pop\n        /* \"#utility.yul\":508:633   */\n      pop\n        /* \"#utility.yul\":295:640   */\n      swap3\n      swap2\n      pop\n      pop\n      jump\t// out\n        /* \"#utility.yul\":646:975   */\n    tag_18:\n        /* \"#utility.yul\":705:711   */\n      0x00\n        /* \"#utility.yul\":754:756   */\n      0x20\n        /* \"#utility.yul\":742:751   */\n      dup3\n        /* \"#utility.yul\":733:740   */\n      dup5\n        /* \"#utility.yul\":729:752   */\n      sub\n        /* \"#utility.yul\":725:757   */\n      slt\n        /* \"#utility.yul\":722:841   */\n      iszero\n      tag_51\n      jumpi\n        /* \"#utility.yul\":760:839   */\n      tag_52\n      tag_48\n      jump\t// in\n    tag_52:\n        /* \"#utility.yul\":722:841   */\n    tag_51:\n        /* \"#utility.yul\":880:881   */\n      0x00\n        /* \"#utility.yul\":905:958   */\n      tag_53\n        /* \"#utility.yul\":950:957   */\n      dup5\n        /* \"#utility.yul\":941:947   */\n      dup3\n        /* \"#utility.yul\":930:939   */\n      dup6\n        /* \"#utility.yul\":926:948   */\n      add\n        /* \"#utility.yul\":905:958   */\n      tag_41\n      jump\t// in\n    tag_53:\n        /* \"#utility.yul\":895:958   */\n      swap2\n      pop\n        /* \"#utility.yul\":851:968   */\n      pop\n        /* \"#utility.yul\":646:975   */\n      swap3\n      swap2\n      pop\n      pop\n      jump\t// out\n        /* \"#utility.yul\":981:1099   */\n    tag_54:\n        /* \"#utility.yul\":1068:1092   */\n      tag_56\n        /* \"#utility.yul\":1086:1091   */\n      dup2\n        /* \"#utility.yul\":1068:1092   */\n      tag_57\n      jump\t// in\n    tag_56:\n        /* \"#utility.yul\":1063:1066   */\n      dup3\n        /* \"#utility.yul\":1056:1093   */\n      mstore\n        /* \"#utility.yul\":981:1099   */\n      pop\n      pop\n      jump\t// out\n        /* \"#utility.yul\":1105:1223   */\n    tag_58:\n        /* \"#utility.yul\":1192:1216   */\n      tag_60\n        /* \"#utility.yul\":1210:1215   */\n      dup2\n        /* \"#utility.yul\":1192:1216   */\n      tag_61\n      jump\t// in\n    tag_60:\n        /* \"#utility.yul\":1187:1190   */\n      dup3\n        /* \"#utility.yul\":1180:1217   */\n      mstore\n        /* \"#utility.yul\":1105:1223   */\n      pop\n      pop\n      jump\t// out\n        /* \"#utility.yul\":1229:1451   */\n    tag_10:\n        /* \"#utility.yul\":1322:1326   */\n      0x00\n        /* \"#utility.yul\":1360:1362   */\n      0x20\n        /* \"#utility.yul\":1349:1358   */\n      dup3\n        /* \"#utility.yul\":1345:1363   */\n      add\n        /* \"#utility.yul\":1337:1363   */\n      swap1\n      pop\n        /* \"#utility.yul\":1373:1444   */\n      tag_63\n        /* \"#utility.yul\":1441:1442   */\n      0x00\n        /* \"#utility.yul\":1430:1439   */\n      dup4\n        /* \"#utility.yul\":1426:1443   */\n      add\n        /* \"#utility.yul\":1417:1423   */\n      dup5\n        /* \"#utility.yul\":1373:1444   */\n      tag_54\n      jump\t// in\n    tag_63:\n        /* \"#utility.yul\":1229:1451   */\n      swap3\n      swap2\n      pop\n      pop\n      jump\t// out\n        /* \"#utility.yul\":1457:1789   */\n    tag_30:\n        /* \"#utility.yul\":1578:1582   */\n      0x00\n        /* \"#utility.yul\":1616:1618   */\n      0x40\n        /* \"#utility.yul\":1605:1614   */\n      dup3\n        /* \"#utility.yul\":1601:1619   */\n      add\n        /* \"#utility.yul\":1593:1619   */\n      swap1\n      pop\n        /* \"#utility.yul\":1629:1700   */\n      tag_65\n        /* \"#utility.yul\":1697:1698   */\n      0x00\n        /* \"#utility.yul\":1686:1695   */\n      dup4\n        /* \"#utility.yul\":1682:1699   */\n      add\n        /* \"#utility.yul\":1673:1679   */\n      dup6\n        /* \"#utility.yul\":1629:1700   */\n      tag_54\n      jump\t// in\n    tag_65:\n        /* \"#utility.yul\":1710:1782   */\n      tag_66\n        /* \"#utility.yul\":1778:1780   */\n      0x20\n        /* \"#utility.yul\":1767:1776   */\n      dup4\n        /* \"#utility.yul\":1763:1781   */\n      add\n        /* \"#utility.yul\":1754:1760   */\n      dup5\n        /* \"#utility.yul\":1710:1782   */\n      tag_58\n      jump\t// in\n    tag_66:\n        /* \"#utility.yul\":1457:1789   */\n      swap4\n      swap3\n      pop\n      pop\n      pop\n      jump\t// out\n        /* \"#utility.yul\":1795:2017   */\n    tag_15:\n        /* \"#utility.yul\":1888:1892   */\n      0x00\n        /* \"#utility.yul\":1926:1928   */\n      0x20\n        /* \"#utility.yul\":1915:1924   */\n      dup3\n        /* \"#utility.yul\":1911:1929   */\n      add\n        /* \"#utility.yul\":1903:1929   */\n      swap1\n      pop\n        /* \"#utility.yul\":1939:2010   */\n      tag_68\n        /* \"#utility.yul\":2007:2008   */\n      0x00\n        /* \"#utility.yul\":1996:2005   */\n      dup4\n        /* \"#utility.yul\":1992:2009   */\n      add\n        /* \"#utility.yul\":1983:1989   */\n      dup5\n        /* \"#utility.yul\":1939:2010   */\n      tag_58\n      jump\t// in\n    tag_68:\n        /* \"#utility.yul\":1795:2017   */\n      swap3\n      swap2\n      pop\n      pop\n      jump\t// out\n        /* \"#utility.yul\":2104:2452   */\n    tag_28:\n        /* \"#utility.yul\":2144:2151   */\n      0x00\n        /* \"#utility.yul\":2167:2187   */\n      tag_72\n        /* \"#utility.yul\":2185:2186   */\n      dup3\n        /* \"#utility.yul\":2167:2187   */\n      tag_61\n      jump\t// in\n    tag_72:\n        /* \"#utility.yul\":2162:2187   */\n      swap2\n      pop\n        /* \"#utility.yul\":2201:2221   */\n      tag_73\n        /* \"#utility.yul\":2219:2220   */\n      dup4\n        /* \"#utility.yul\":2201:2221   */\n      tag_61\n      jump\t// in\n    tag_73:\n        /* \"#utility.yul\":2196:2221   */\n      swap3\n      pop\n        /* \"#utility.yul\":2389:2390   */\n      dup2\n        /* \"#utility.yul\":2321:2387   */\n      0xffffffffffffffffffffffffffffffffffffffffffffffffffffffffffffffff\n        /* \"#utility.yul\":2317:2391   */\n      div\n        /* \"#utility.yul\":2314:2315   */\n      dup4\n        /* \"#utility.yul\":2311:2392   */\n      gt\n        /* \"#utility.yul\":2306:2307   */\n      dup3\n        /* \"#utility.yul\":2299:2308   */\n      iszero\n        /* \"#utility.yul\":2292:2309   */\n      iszero\n        /* \"#utility.yul\":2288:2393   */\n      and\n        /* \"#utility.yul\":2285:2416   */\n      iszero\n      tag_74\n      jumpi\n        /* \"#utility.yul\":2396:2414   */\n      tag_75\n      tag_76\n      jump\t// in\n    tag_75:\n        /* \"#utility.yul\":2285:2416   */\n    tag_74:\n        /* \"#utility.yul\":2444:2445   */\n      dup3\n        /* \"#utility.yul\":2441:2442   */\n      dup3\n        /* \"#utility.yul\":2437:2446   */\n      mul\n        /* \"#utility.yul\":2426:2446   */\n      swap1\n      pop\n        /* \"#utility.yul\":2104:2452   */\n      swap3\n      swap2\n      pop\n      pop\n      jump\t// out\n        /* \"#utility.yul\":2458:2554   */\n    tag_57:\n        /* \"#utility.yul\":2495:2502   */\n      0x00\n        /* \"#utility.yul\":2524:2548   */\n      tag_78\n        /* \"#utility.yul\":2542:2547   */\n      dup3\n        /* \"#utility.yul\":2524:2548   */\n      tag_79\n      jump\t// in\n    tag_78:\n        /* \"#utility.yul\":2513:2548   */\n      swap1\n      pop\n        /* \"#utility.yul\":2458:2554   */\n      swap2\n      swap1\n      pop\n      jump\t// out\n        /* \"#utility.yul\":2560:2650   */\n    tag_80:\n        /* \"#utility.yul\":2594:2601   */\n      0x00\n        /* \"#utility.yul\":2637:2642   */\n      dup2\n        /* \"#utility.yul\":2630:2643   */\n      iszero\n        /* \"#utility.yul\":2623:2644   */\n      iszero\n        /* \"#utility.yul\":2612:2644   */\n      swap1\n      pop\n        /* \"#utility.yul\":2560:2650   */\n      swap2\n      swap1\n      pop\n      jump\t// out\n        /* \"#utility.yul\":2656:2782   */\n    tag_79:\n        /* \"#utility.yul\":2693:2700   */\n      0x00\n        /* \"#utility.yul\":2733:2775   */\n      0xffffffffffffffffffffffffffffffffffffffff\n        /* \"#utility.yul\":2726:2731   */\n      dup3\n        /* \"#utility.yul\":2722:2776   */\n      and\n        /* \"#utility.yul\":2711:2776   */\n      swap1\n      pop\n        /* \"#utility.yul\":2656:2782   */\n      swap2\n      swap1\n      pop\n      jump\t// out\n        /* \"#utility.yul\":2788:2865   */\n    tag_61:\n        /* \"#utility.yul\":2825:2832   */\n      0x00\n        /* \"#utility.yul\":2854:2859   */\n      dup2\n        /* \"#utility.yul\":2843:2859   */\n      swap1\n      pop\n        /* \"#utility.yul\":2788:2865   */\n      swap2\n      swap1\n      pop\n      jump\t// out\n        /* \"#utility.yul\":2871:3051   */\n    tag_76:\n        /* \"#utility.yul\":2919:2996   */\n      0x4e487b7100000000000000000000000000000000000000000000000000000000\n        /* \"#utility.yul\":2916:2917   */\n      0x00\n        /* \"#utility.yul\":2909:2997   */\n      mstore\n        /* \"#utility.yul\":3016:3020   */\n      0x11\n        /* \"#utility.yul\":3013:3014   */\n      0x04\n        /* \"#utility.yul\":3006:3021   */\n      mstore\n        /* \"#utility.yul\":3040:3044   */\n      0x24\n        /* \"#utility.yul\":3037:3038   */\n      0x00\n        /* \"#utility.yul\":3030:3045   */\n      revert\n        /* \"#utility.yul\":3180:3297   */\n    tag_48:\n        /* \"#utility.yul\":3289:3290   */\n      0x00\n        /* \"#utility.yul\":3286:3287   */\n      dup1\n        /* \"#utility.yul\":3279:3291   */\n      revert\n        /* \"#utility.yul\":3303:3419   */\n    tag_40:\n        /* \"#utility.yul\":3373:3394   */\n      tag_89\n        /* \"#utility.yul\":3388:3393   */\n      dup2\n        /* \"#utility.yul\":3373:3394   */\n      tag_80\n      jump\t// in\n    tag_89:\n        /* \"#utility.yul\":3366:3371   */\n      dup2\n        /* \"#utility.yul\":3363:3395   */\n      eq\n        /* \"#utility.yul\":3353:3413   */\n      tag_90\n      jumpi\n        /* \"#utility.yul\":3409:3410   */\n      0x00\n        /* \"#utility.yul\":3406:3407   */\n      dup1\n        /* \"#utility.yul\":3399:3411   */\n      revert\n        /* \"#utility.yul\":3353:3413   */\n    tag_90:\n        /* \"#utility.yul\":3303:3419   */\n      pop\n      jump\t// out\n        /* \"#utility.yul\":3425:3547   */\n    tag_44:\n        /* \"#utility.yul\":3498:3522   */\n      tag_92\n        /* \"#utility.yul\":3516:3521   */\n      dup2\n        /* \"#utility.yul\":3498:3522   */\n      tag_61\n      jump\t// in\n    tag_92:\n        /* \"#utility.yul\":3491:3496   */\n      dup2\n        /* \"#utility.yul\":3488:3523   */\n      eq\n        /* \"#utility.yul\":3478:3541   */\n      tag_93\n      jumpi\n        /* \"#utility.yul\":3537:3538   */\n      0x00\n        /* \"#utility.yul\":3534:3535   */\n      dup1\n        /* \"#utility.yul\":3527:3539   */\n      revert\n        /* \"#utility.yul\":3478:3541   */\n    tag_93:\n        /* \"#utility.yul\":3425:3547   */\n      pop\n      jump\t// out\n\n    auxdata: 0xa26469706673582212201627e342dfb42f916844d6393fc8debbad37684d179847835a83b01f938c894964736f6c63430008070033\n}\n",
				"bytecode": {
					"linkReferences": {},
					"object": "6080604052730aa7726bc0cb085a3c4fbe3b09b91dd7e27f7fea600260006101000a81548173ffffffffffffffffffffffffffffffffffffffff021916908373ffffffffffffffffffffffffffffffffffffffff16021790555034801561006557600080fd5b50604051610629380380610629833981810160405281019061008791906100c0565b603c816100949190610143565b4261009f91906100ed565b600181905550506101f2565b6000815190506100ba816101db565b92915050565b6000602082840312156100d6576100d56101d6565b5b60006100e4848285016100ab565b91505092915050565b60006100f88261019d565b91506101038361019d565b9250827fffffffffffffffffffffffffffffffffffffffffffffffffffffffffffffffff03821115610138576101376101a7565b5b828201905092915050565b600061014e8261019d565b91506101598361019d565b9250817fffffffffffffffffffffffffffffffffffffffffffffffffffffffffffffffff0483118215151615610192576101916101a7565b5b828202905092915050565b6000819050919050565b7f4e487b7100000000000000000000000000000000000000000000000000000000600052601160045260246000fd5b600080fd5b6101e48161019d565b81146101ef57600080fd5b50565b610428806102016000396000f3fe60806040526004361061003f5760003560e01c8063180dc0ac146100445780633197cbb61461006f57806338d51da81461009a57806378e97925146100b6575b600080fd5b34801561005057600080fd5b506100596100e1565b604051610066919061028f565b60405180910390f35b34801561007b57600080fd5b50610084610107565b60405161009191906102d3565b60405180910390f35b6100b460048036038101906100af9190610244565b61010d565b005b3480156100c257600080fd5b506100cb6101e7565b6040516100d891906102d3565b60405180910390f35b600260009054906101000a900473ffffffffffffffffffffffffffffffffffffffff1681565b60015481565b600154421061011b57600080fd5b6000341161012857600080fd5b600260009054906101000a900473ffffffffffffffffffffffffffffffffffffffff1673ffffffffffffffffffffffffffffffffffffffff1663a9059cbb3360643461017491906102ee565b6040518363ffffffff1660e01b81526004016101919291906102aa565b602060405180830381600087803b1580156101ab57600080fd5b505af11580156101bf573d6000803e3d6000fd5b505050506040513d601f19601f820116820180604052508101906101e39190610217565b5050565b60005481565b6000815190506101fc816103c4565b92915050565b600081359050610211816103db565b92915050565b60006020828403121561022d5761022c6103bf565b5b600061023b848285016101ed565b91505092915050565b60006020828403121561025a576102596103bf565b5b600061026884828501610202565b91505092915050565b61027a81610348565b82525050565b61028981610386565b82525050565b60006020820190506102a46000830184610271565b92915050565b60006040820190506102bf6000830185610271565b6102cc6020830184610280565b9392505050565b60006020820190506102e86000830184610280565b92915050565b60006102f982610386565b915061030483610386565b9250817fffffffffffffffffffffffffffffffffffffffffffffffffffffffffffffffff048311821515161561033d5761033c610390565b5b828202905092915050565b600061035382610366565b9050919050565b60008115159050919050565b600073ffffffffffffffffffffffffffffffffffffffff82169050919050565b6000819050919050565b7f4e487b7100000000000000000000000000000000000000000000000000000000600052601160045260246000fd5b600080fd5b6103cd8161035a565b81146103d857600080fd5b50565b6103e481610386565b81146103ef57600080fd5b5056fea26469706673582212201627e342dfb42f916844d6393fc8debbad37684d179847835a83b01f938c894964736f6c63430008070033",
					"opcodes": "PUSH1 0x80 PUSH1 0x40 MSTORE PUSH20 0xAA7726BC0CB085A3C4FBE3B09B91DD7E27F7FEA PUSH1 0x2 PUSH1 0x0 PUSH2 0x100 EXP DUP2 SLOAD DUP2 PUSH20 0xFFFFFFFFFFFFFFFFFFFFFFFFFFFFFFFFFFFFFFFF MUL NOT AND SWAP1 DUP4 PUSH20 0xFFFFFFFFFFFFFFFFFFFFFFFFFFFFFFFFFFFFFFFF AND MUL OR SWAP1 SSTORE POP CALLVALUE DUP1 ISZERO PUSH2 0x65 JUMPI PUSH1 0x0 DUP1 REVERT JUMPDEST POP PUSH1 0x40 MLOAD PUSH2 0x629 CODESIZE SUB DUP1 PUSH2 0x629 DUP4 CODECOPY DUP2 DUP2 ADD PUSH1 0x40 MSTORE DUP2 ADD SWAP1 PUSH2 0x87 SWAP2 SWAP1 PUSH2 0xC0 JUMP JUMPDEST PUSH1 0x3C DUP2 PUSH2 0x94 SWAP2 SWAP1 PUSH2 0x143 JUMP JUMPDEST TIMESTAMP PUSH2 0x9F SWAP2 SWAP1 PUSH2 0xED JUMP JUMPDEST PUSH1 0x1 DUP2 SWAP1 SSTORE POP POP PUSH2 0x1F2 JUMP JUMPDEST PUSH1 0x0 DUP2 MLOAD SWAP1 POP PUSH2 0xBA DUP2 PUSH2 0x1DB JUMP JUMPDEST SWAP3 SWAP2 POP POP JUMP JUMPDEST PUSH1 0x0 PUSH1 0x20 DUP3 DUP5 SUB SLT ISZERO PUSH2 0xD6 JUMPI PUSH2 0xD5 PUSH2 0x1D6 JUMP JUMPDEST JUMPDEST PUSH1 0x0 PUSH2 0xE4 DUP5 DUP3 DUP6 ADD PUSH2 0xAB JUMP JUMPDEST SWAP2 POP POP SWAP3 SWAP2 POP POP JUMP JUMPDEST PUSH1 0x0 PUSH2 0xF8 DUP3 PUSH2 0x19D JUMP JUMPDEST SWAP2 POP PUSH2 0x103 DUP4 PUSH2 0x19D JUMP JUMPDEST SWAP3 POP DUP3 PUSH32 0xFFFFFFFFFFFFFFFFFFFFFFFFFFFFFFFFFFFFFFFFFFFFFFFFFFFFFFFFFFFFFFFF SUB DUP3 GT ISZERO PUSH2 0x138 JUMPI PUSH2 0x137 PUSH2 0x1A7 JUMP JUMPDEST JUMPDEST DUP3 DUP3 ADD SWAP1 POP SWAP3 SWAP2 POP POP JUMP JUMPDEST PUSH1 0x0 PUSH2 0x14E DUP3 PUSH2 0x19D JUMP JUMPDEST SWAP2 POP PUSH2 0x159 DUP4 PUSH2 0x19D JUMP JUMPDEST SWAP3 POP DUP2 PUSH32 0xFFFFFFFFFFFFFFFFFFFFFFFFFFFFFFFFFFFFFFFFFFFFFFFFFFFFFFFFFFFFFFFF DIV DUP4 GT DUP3 ISZERO ISZERO AND ISZERO PUSH2 0x192 JUMPI PUSH2 0x191 PUSH2 0x1A7 JUMP JUMPDEST JUMPDEST DUP3 DUP3 MUL SWAP1 POP SWAP3 SWAP2 POP POP JUMP JUMPDEST PUSH1 0x0 DUP2 SWAP1 POP SWAP2 SWAP1 POP JUMP JUMPDEST PUSH32 0x4E487B7100000000000000000000000000000000000000000000000000000000 PUSH1 0x0 MSTORE PUSH1 0x11 PUSH1 0x4 MSTORE PUSH1 0x24 PUSH1 0x0 REVERT JUMPDEST PUSH1 0x0 DUP1 REVERT JUMPDEST PUSH2 0x1E4 DUP2 PUSH2 0x19D JUMP JUMPDEST DUP2 EQ PUSH2 0x1EF JUMPI PUSH1 0x0 DUP1 REVERT JUMPDEST POP JUMP JUMPDEST PUSH2 0x428 DUP1 PUSH2 0x201 PUSH1 0x0 CODECOPY PUSH1 0x0 RETURN INVALID PUSH1 0x80 PUSH1 0x40 MSTORE PUSH1 0x4 CALLDATASIZE LT PUSH2 0x3F JUMPI PUSH1 0x0 CALLDATALOAD PUSH1 0xE0 SHR DUP1 PUSH4 0x180DC0AC EQ PUSH2 0x44 JUMPI DUP1 PUSH4 0x3197CBB6 EQ PUSH2 0x6F JUMPI DUP1 PUSH4 0x38D51DA8 EQ PUSH2 0x9A JUMPI DUP1 PUSH4 0x78E97925 EQ PUSH2 0xB6 JUMPI JUMPDEST PUSH1 0x0 DUP1 REVERT JUMPDEST CALLVALUE DUP1 ISZERO PUSH2 0x50 JUMPI PUSH1 0x0 DUP1 REVERT JUMPDEST POP PUSH2 0x59 PUSH2 0xE1 JUMP JUMPDEST PUSH1 0x40 MLOAD PUSH2 0x66 SWAP2 SWAP1 PUSH2 0x28F JUMP JUMPDEST PUSH1 0x40 MLOAD DUP1 SWAP2 SUB SWAP1 RETURN JUMPDEST CALLVALUE DUP1 ISZERO PUSH2 0x7B JUMPI PUSH1 0x0 DUP1 REVERT JUMPDEST POP PUSH2 0x84 PUSH2 0x107 JUMP JUMPDEST PUSH1 0x40 MLOAD PUSH2 0x91 SWAP2 SWAP1 PUSH2 0x2D3 JUMP JUMPDEST PUSH1 0x40 MLOAD DUP1 SWAP2 SUB SWAP1 RETURN JUMPDEST PUSH2 0xB4 PUSH1 0x4 DUP1 CALLDATASIZE SUB DUP2 ADD SWAP1 PUSH2 0xAF SWAP2 SWAP1 PUSH2 0x244 JUMP JUMPDEST PUSH2 0x10D JUMP JUMPDEST STOP JUMPDEST CALLVALUE DUP1 ISZERO PUSH2 0xC2 JUMPI PUSH1 0x0 DUP1 REVERT JUMPDEST POP PUSH2 0xCB PUSH2 0x1E7 JUMP JUMPDEST PUSH1 0x40 MLOAD PUSH2 0xD8 SWAP2 SWAP1 PUSH2 0x2D3 JUMP JUMPDEST PUSH1 0x40 MLOAD DUP1 SWAP2 SUB SWAP1 RETURN JUMPDEST PUSH1 0x2 PUSH1 0x0 SWAP1 SLOAD SWAP1 PUSH2 0x100 EXP SWAP1 DIV PUSH20 0xFFFFFFFFFFFFFFFFFFFFFFFFFFFFFFFFFFFFFFFF AND DUP2 JUMP JUMPDEST PUSH1 0x1 SLOAD DUP2 JUMP JUMPDEST PUSH1 0x1 SLOAD TIMESTAMP LT PUSH2 0x11B JUMPI PUSH1 0x0 DUP1 REVERT JUMPDEST PUSH1 0x0 CALLVALUE GT PUSH2 0x128 JUMPI PUSH1 0x0 DUP1 REVERT JUMPDEST PUSH1 0x2 PUSH1 0x0 SWAP1 SLOAD SWAP1 PUSH2 0x100 EXP SWAP1 DIV PUSH20 0xFFFFFFFFFFFFFFFFFFFFFFFFFFFFFFFFFFFFFFFF AND PUSH20 0xFFFFFFFFFFFFFFFFFFFFFFFFFFFFFFFFFFFFFFFF AND PUSH4 0xA9059CBB CALLER PUSH1 0x64 CALLVALUE PUSH2 0x174 SWAP2 SWAP1 PUSH2 0x2EE JUMP JUMPDEST PUSH1 0x40 MLOAD DUP4 PUSH4 0xFFFFFFFF AND PUSH1 0xE0 SHL DUP2 MSTORE PUSH1 0x4 ADD PUSH2 0x191 SWAP3 SWAP2 SWAP1 PUSH2 0x2AA JUMP JUMPDEST PUSH1 0x20 PUSH1 0x40 MLOAD DUP1 DUP4 SUB DUP2 PUSH1 0x0 DUP8 DUP1 EXTCODESIZE ISZERO DUP1 ISZERO PUSH2 0x1AB JUMPI PUSH1 0x0 DUP1 REVERT JUMPDEST POP GAS CALL ISZERO DUP1 ISZERO PUSH2 0x1BF JUMPI RETURNDATASIZE PUSH1 0x0 DUP1 RETURNDATACOPY RETURNDATASIZE PUSH1 0x0 REVERT JUMPDEST POP POP POP POP PUSH1 0x40 MLOAD RETURNDATASIZE PUSH1 0x1F NOT PUSH1 0x1F DUP3 ADD AND DUP3 ADD DUP1 PUSH1 0x40 MSTORE POP DUP2 ADD SWAP1 PUSH2 0x1E3 SWAP2 SWAP1 PUSH2 0x217 JUMP JUMPDEST POP POP JUMP JUMPDEST PUSH1 0x0 SLOAD DUP2 JUMP JUMPDEST PUSH1 0x0 DUP2 MLOAD SWAP1 POP PUSH2 0x1FC DUP2 PUSH2 0x3C4 JUMP JUMPDEST SWAP3 SWAP2 POP POP JUMP JUMPDEST PUSH1 0x0 DUP2 CALLDATALOAD SWAP1 POP PUSH2 0x211 DUP2 PUSH2 0x3DB JUMP JUMPDEST SWAP3 SWAP2 POP POP JUMP JUMPDEST PUSH1 0x0 PUSH1 0x20 DUP3 DUP5 SUB SLT ISZERO PUSH2 0x22D JUMPI PUSH2 0x22C PUSH2 0x3BF JUMP JUMPDEST JUMPDEST PUSH1 0x0 PUSH2 0x23B DUP5 DUP3 DUP6 ADD PUSH2 0x1ED JUMP JUMPDEST SWAP2 POP POP SWAP3 SWAP2 POP POP JUMP JUMPDEST PUSH1 0x0 PUSH1 0x20 DUP3 DUP5 SUB SLT ISZERO PUSH2 0x25A JUMPI PUSH2 0x259 PUSH2 0x3BF JUMP JUMPDEST JUMPDEST PUSH1 0x0 PUSH2 0x268 DUP5 DUP3 DUP6 ADD PUSH2 0x202 JUMP JUMPDEST SWAP2 POP POP SWAP3 SWAP2 POP POP JUMP JUMPDEST PUSH2 0x27A DUP2 PUSH2 0x348 JUMP JUMPDEST DUP3 MSTORE POP POP JUMP JUMPDEST PUSH2 0x289 DUP2 PUSH2 0x386 JUMP JUMPDEST DUP3 MSTORE POP POP JUMP JUMPDEST PUSH1 0x0 PUSH1 0x20 DUP3 ADD SWAP1 POP PUSH2 0x2A4 PUSH1 0x0 DUP4 ADD DUP5 PUSH2 0x271 JUMP JUMPDEST SWAP3 SWAP2 POP POP JUMP JUMPDEST PUSH1 0x0 PUSH1 0x40 DUP3 ADD SWAP1 POP PUSH2 0x2BF PUSH1 0x0 DUP4 ADD DUP6 PUSH2 0x271 JUMP JUMPDEST PUSH2 0x2CC PUSH1 0x20 DUP4 ADD DUP5 PUSH2 0x280 JUMP JUMPDEST SWAP4 SWAP3 POP POP POP JUMP JUMPDEST PUSH1 0x0 PUSH1 0x20 DUP3 ADD SWAP1 POP PUSH2 0x2E8 PUSH1 0x0 DUP4 ADD DUP5 PUSH2 0x280 JUMP JUMPDEST SWAP3 SWAP2 POP POP JUMP JUMPDEST PUSH1 0x0 PUSH2 0x2F9 DUP3 PUSH2 0x386 JUMP JUMPDEST SWAP2 POP PUSH2 0x304 DUP4 PUSH2 0x386 JUMP JUMPDEST SWAP3 POP DUP2 PUSH32 0xFFFFFFFFFFFFFFFFFFFFFFFFFFFFFFFFFFFFFFFFFFFFFFFFFFFFFFFFFFFFFFFF DIV DUP4 GT DUP3 ISZERO ISZERO AND ISZERO PUSH2 0x33D JUMPI PUSH2 0x33C PUSH2 0x390 JUMP JUMPDEST JUMPDEST DUP3 DUP3 MUL SWAP1 POP SWAP3 SWAP2 POP POP JUMP JUMPDEST PUSH1 0x0 PUSH2 0x353 DUP3 PUSH2 0x366 JUMP JUMPDEST SWAP1 POP SWAP2 SWAP1 POP JUMP JUMPDEST PUSH1 0x0 DUP2 ISZERO ISZERO SWAP1 POP SWAP2 SWAP1 POP JUMP JUMPDEST PUSH1 0x0 PUSH20 0xFFFFFFFFFFFFFFFFFFFFFFFFFFFFFFFFFFFFFFFF DUP3 AND SWAP1 POP SWAP2 SWAP1 POP JUMP JUMPDEST PUSH1 0x0 DUP2 SWAP1 POP SWAP2 SWAP1 POP JUMP JUMPDEST PUSH32 0x4E487B7100000000000000000000000000000000000000000000000000000000 PUSH1 0x0 MSTORE PUSH1 0x11 PUSH1 0x4 MSTORE PUSH1 0x24 PUSH1 0x0 REVERT JUMPDEST PUSH1 0x0 DUP1 REVERT JUMPDEST PUSH2 0x3CD DUP2 PUSH2 0x35A JUMP JUMPDEST DUP2 EQ PUSH2 0x3D8 JUMPI PUSH1 0x0 DUP1 REVERT JUMPDEST POP JUMP JUMPDEST PUSH2 0x3E4 DUP2 PUSH2 0x386 JUMP JUMPDEST DUP2 EQ PUSH2 0x3EF JUMPI PUSH1 0x0 DUP1 REVERT JUMPDEST POP JUMP INVALID LOG2 PUSH5 0x6970667358 0x22 SLT KECCAK256 AND 0x27 0xE3 TIMESTAMP 0xDF 0xB4 0x2F SWAP2 PUSH9 0x44D6393FC8DEBBAD37 PUSH9 0x4D179847835A83B01F SWAP4 DUP13 DUP10 0x49 PUSH5 0x736F6C6343 STOP ADDMOD SMOD STOP CALLER "
				},
				"gasEstimates": {
					"creation": {
						"codeDepositCost": "212800",
						"executionCost": "infinite",
						"totalCost": "infinite"
					},
					"external": {
						"axsToken()": "2492",
						"endTime()": "2429",
						"receiveUSDT(uint256)": "infinite",
						"startTime()": "2473"
					}
				},
				"methodIdentifiers": {
					"axsToken()": "180dc0ac",
					"endTime()": "3197cbb6",
					"receiveUSDT(uint256)": "38d51da8",
					"startTime()": "78e97925"
				}
			},
			"storageLayout": {
				"storage": [
					{
						"astId": 82,
						"contract": "TokenSell.sol:Tokensell",
						"label": "startTime",
						"offset": 0,
						"slot": "0",
						"type": "t_uint256"
					},
					{
						"astId": 84,
						"contract": "TokenSell.sol:Tokensell",
						"label": "endTime",
						"offset": 0,
						"slot": "1",
						"type": "t_uint256"
					},
					{
						"astId": 87,
						"contract": "TokenSell.sol:Tokensell",
						"label": "axsToken",
						"offset": 0,
						"slot": "2",
						"type": "t_address"
					}
				],
				"types": {
					"t_address": {
						"encoding": "inplace",
						"label": "address",
						"numberOfBytes": "20"
					},
					"t_uint256": {
						"encoding": "inplace",
						"label": "uint256",
						"numberOfBytes": "32"
					}
				}
			},
			"userdoc": {
				"kind": "user",
				"methods": {},
				"version": 1
			}
		}
	}
}