{
	"Token.sol": {
		"Token": {
			"abi": [
				{
					"inputs": [
						{
							"internalType": "address",
							"name": "_minter",
							"type": "address"
						}
					],
					"stateMutability": "nonpayable",
					"type": "constructor"
				},
				{
					"inputs": [
						{
							"internalType": "address",
							"name": "",
							"type": "address"
						}
					],
					"name": "_balance",
					"outputs": [
						{
							"internalType": "uint256",
							"name": "",
							"type": "uint256"
						}
					],
					"stateMutability": "view",
					"type": "function"
				},
				{
					"inputs": [],
					"name": "_maxSupply",
					"outputs": [
						{
							"internalType": "uint256",
							"name": "",
							"type": "uint256"
						}
					],
					"stateMutability": "view",
					"type": "function"
				},
				{
					"inputs": [],
					"name": "_totalSupply",
					"outputs": [
						{
							"internalType": "uint256",
							"name": "",
							"type": "uint256"
						}
					],
					"stateMutability": "view",
					"type": "function"
				},
				{
					"inputs": [],
					"name": "decimal",
					"outputs": [
						{
							"internalType": "uint256",
							"name": "",
							"type": "uint256"
						}
					],
					"stateMutability": "view",
					"type": "function"
				},
				{
					"inputs": [
						{
							"internalType": "address",
							"name": "receiver",
							"type": "address"
						},
						{
							"internalType": "uint256",
							"name": "amount",
							"type": "uint256"
						}
					],
					"name": "mint",
					"outputs": [],
					"stateMutability": "nonpayable",
					"type": "function"
				},
				{
					"inputs": [],
					"name": "minter",
					"outputs": [
						{
							"internalType": "address",
							"name": "",
							"type": "address"
						}
					],
					"stateMutability": "view",
					"type": "function"
				},
				{
					"inputs": [],
					"name": "name",
					"outputs": [
						{
							"internalType": "string",
							"name": "",
							"type": "string"
						}
					],
					"stateMutability": "view",
					"type": "function"
				},
				{
					"inputs": [
						{
							"internalType": "address",
							"name": "get",
							"type": "address"
						},
						{
							"internalType": "uint256",
							"name": "amount",
							"type": "uint256"
						}
					],
					"name": "send",
					"outputs": [],
					"stateMutability": "nonpayable",
					"type": "function"
				},
				{
					"inputs": [],
					"name": "symbol",
					"outputs": [
						{
							"internalType": "string",
							"name": "",
							"type": "string"
						}
					],
					"stateMutability": "view",
					"type": "function"
				},
				{
					"inputs": [],
					"name": "totalSupply",
					"outputs": [
						{
							"internalType": "uint256",
							"name": "",
							"type": "uint256"
						}
					],
					"stateMutability": "view",
					"type": "function"
				}
			],
			"devdoc": {
				"kind": "dev",
				"methods": {},
				"version": 1
			},
			"evm": {
				"assembly": "    /* \"Token.sol\":62:1078  contract Token {... */\n  mstore(0x40, 0x80)\n    /* \"Token.sol\":83:114  string public name = \"solidity\" */\n  mload(0x40)\n  dup1\n  0x40\n  add\n  0x40\n  mstore\n  dup1\n  0x08\n  dup2\n  mstore\n  0x20\n  add\n  0x736f6c6964697479000000000000000000000000000000000000000000000000\n  dup2\n  mstore\n  pop\n  0x00\n  swap1\n  dup1\n  mload\n  swap1\n  0x20\n  add\n  swap1\n  tag_1\n  swap3\n  swap2\n  swap1\n  tag_2\n  jump\t// in\ntag_1:\n  pop\n    /* \"Token.sol\":120:148  string public symbol = \"SOL\" */\n  mload(0x40)\n  dup1\n  0x40\n  add\n  0x40\n  mstore\n  dup1\n  0x03\n  dup2\n  mstore\n  0x20\n  add\n  0x534f4c0000000000000000000000000000000000000000000000000000000000\n  dup2\n  mstore\n  pop\n  0x01\n  swap1\n  dup1\n  mload\n  swap1\n  0x20\n  add\n  swap1\n  tag_3\n  swap3\n  swap2\n  swap1\n  tag_2\n  jump\t// in\ntag_3:\n  pop\n    /* \"Token.sol\":179:181  18 */\n  0x12\n    /* \"Token.sol\":154:181  uint256 public decimal = 18 */\n  0x02\n  sstore\n    /* \"Token.sol\":215:233  21000000 *10 ** 18 */\n  0x115eec47f6cf7e35000000\n    /* \"Token.sol\":187:233  uint256 public _maxSupply = 21000000 *10 ** 18 */\n  0x03\n  sstore\n    /* \"Token.sol\":380:442  constructor(address _minter) {... */\n  callvalue\n  dup1\n  iszero\n  tag_4\n  jumpi\n  0x00\n  dup1\n  revert\ntag_4:\n  pop\n  mload(0x40)\n  sub(codesize, bytecodeSize)\n  dup1\n  bytecodeSize\n  dup4\n  codecopy\n  dup2\n  dup2\n  add\n  0x40\n  mstore\n  dup2\n  add\n  swap1\n  tag_5\n  swap2\n  swap1\n  tag_6\n  jump\t// in\ntag_5:\n    /* \"Token.sol\":428:435  _minter */\n  dup1\n    /* \"Token.sol\":419:425  minter */\n  0x04\n  0x00\n    /* \"Token.sol\":419:435  minter = _minter */\n  0x0100\n  exp\n  dup2\n  sload\n  dup2\n  0xffffffffffffffffffffffffffffffffffffffff\n  mul\n  not\n  and\n  swap1\n  dup4\n  0xffffffffffffffffffffffffffffffffffffffff\n  and\n  mul\n  or\n  swap1\n  sstore\n  pop\n    /* \"Token.sol\":380:442  constructor(address _minter) {... */\n  pop\n    /* \"Token.sol\":62:1078  contract Token {... */\n  jump(tag_9)\ntag_2:\n  dup3\n  dup1\n  sload\n  tag_10\n  swap1\n  tag_11\n  jump\t// in\ntag_10:\n  swap1\n  0x00\n  mstore\n  keccak256(0x00, 0x20)\n  swap1\n  0x1f\n  add\n  0x20\n  swap1\n  div\n  dup2\n  add\n  swap3\n  dup3\n  tag_13\n  jumpi\n  0x00\n  dup6\n  sstore\n  jump(tag_12)\ntag_13:\n  dup3\n  0x1f\n  lt\n  tag_14\n  jumpi\n  dup1\n  mload\n  not(0xff)\n  and\n  dup4\n  dup1\n  add\n  or\n  dup6\n  sstore\n  jump(tag_12)\ntag_14:\n  dup3\n  dup1\n  add\n  0x01\n  add\n  dup6\n  sstore\n  dup3\n  iszero\n  tag_12\n  jumpi\n  swap2\n  dup3\n  add\ntag_15:\n  dup3\n  dup2\n  gt\n  iszero\n  tag_16\n  jumpi\n  dup3\n  mload\n  dup3\n  sstore\n  swap2\n  0x20\n  add\n  swap2\n  swap1\n  0x01\n  add\n  swap1\n  jump(tag_15)\ntag_16:\ntag_12:\n  pop\n  swap1\n  pop\n  tag_17\n  swap2\n  swap1\n  tag_18\n  jump\t// in\ntag_17:\n  pop\n  swap1\n  jump\t// out\ntag_18:\ntag_19:\n  dup1\n  dup3\n  gt\n  iszero\n  tag_20\n  jumpi\n  0x00\n  dup2\n  0x00\n  swap1\n  sstore\n  pop\n  0x01\n  add\n  jump(tag_19)\ntag_20:\n  pop\n  swap1\n  jump\t// out\n    /* \"#utility.yul\":7:150   */\ntag_22:\n    /* \"#utility.yul\":64:69   */\n  0x00\n    /* \"#utility.yul\":95:101   */\n  dup2\n    /* \"#utility.yul\":89:102   */\n  mload\n    /* \"#utility.yul\":80:102   */\n  swap1\n  pop\n    /* \"#utility.yul\":111:144   */\n  tag_24\n    /* \"#utility.yul\":138:143   */\n  dup2\n    /* \"#utility.yul\":111:144   */\n  tag_25\n  jump\t// in\ntag_24:\n    /* \"#utility.yul\":7:150   */\n  swap3\n  swap2\n  pop\n  pop\n  jump\t// out\n    /* \"#utility.yul\":156:507   */\ntag_6:\n    /* \"#utility.yul\":226:232   */\n  0x00\n    /* \"#utility.yul\":275:277   */\n  0x20\n    /* \"#utility.yul\":263:272   */\n  dup3\n    /* \"#utility.yul\":254:261   */\n  dup5\n    /* \"#utility.yul\":250:273   */\n  sub\n    /* \"#utility.yul\":246:278   */\n  slt\n    /* \"#utility.yul\":243:362   */\n  iszero\n  tag_27\n  jumpi\n    /* \"#utility.yul\":281:360   */\n  tag_28\n  tag_29\n  jump\t// in\ntag_28:\n    /* \"#utility.yul\":243:362   */\ntag_27:\n    /* \"#utility.yul\":401:402   */\n  0x00\n    /* \"#utility.yul\":426:490   */\n  tag_30\n    /* \"#utility.yul\":482:489   */\n  dup5\n    /* \"#utility.yul\":473:479   */\n  dup3\n    /* \"#utility.yul\":462:471   */\n  dup6\n    /* \"#utility.yul\":458:480   */\n  add\n    /* \"#utility.yul\":426:490   */\n  tag_22\n  jump\t// in\ntag_30:\n    /* \"#utility.yul\":416:490   */\n  swap2\n  pop\n    /* \"#utility.yul\":372:500   */\n  pop\n    /* \"#utility.yul\":156:507   */\n  swap3\n  swap2\n  pop\n  pop\n  jump\t// out\n    /* \"#utility.yul\":594:690   */\ntag_33:\n    /* \"#utility.yul\":631:638   */\n  0x00\n    /* \"#utility.yul\":660:684   */\n  tag_35\n    /* \"#utility.yul\":678:683   */\n  dup3\n    /* \"#utility.yul\":660:684   */\n  tag_36\n  jump\t// in\ntag_35:\n    /* \"#utility.yul\":649:684   */\n  swap1\n  pop\n    /* \"#utility.yul\":594:690   */\n  swap2\n  swap1\n  pop\n  jump\t// out\n    /* \"#utility.yul\":696:822   */\ntag_36:\n    /* \"#utility.yul\":733:740   */\n  0x00\n    /* \"#utility.yul\":773:815   */\n  0xffffffffffffffffffffffffffffffffffffffff\n    /* \"#utility.yul\":766:771   */\n  dup3\n    /* \"#utility.yul\":762:816   */\n  and\n    /* \"#utility.yul\":751:816   */\n  swap1\n  pop\n    /* \"#utility.yul\":696:822   */\n  swap2\n  swap1\n  pop\n  jump\t// out\n    /* \"#utility.yul\":828:1148   */\ntag_11:\n    /* \"#utility.yul\":872:878   */\n  0x00\n    /* \"#utility.yul\":909:910   */\n  0x02\n    /* \"#utility.yul\":903:907   */\n  dup3\n    /* \"#utility.yul\":899:911   */\n  div\n    /* \"#utility.yul\":889:911   */\n  swap1\n  pop\n    /* \"#utility.yul\":956:957   */\n  0x01\n    /* \"#utility.yul\":950:954   */\n  dup3\n    /* \"#utility.yul\":946:958   */\n  and\n    /* \"#utility.yul\":977:995   */\n  dup1\n    /* \"#utility.yul\":967:1048   */\n  tag_39\n  jumpi\n    /* \"#utility.yul\":1033:1037   */\n  0x7f\n    /* \"#utility.yul\":1025:1031   */\n  dup3\n    /* \"#utility.yul\":1021:1038   */\n  and\n    /* \"#utility.yul\":1011:1038   */\n  swap2\n  pop\n    /* \"#utility.yul\":967:1048   */\ntag_39:\n    /* \"#utility.yul\":1095:1097   */\n  0x20\n    /* \"#utility.yul\":1087:1093   */\n  dup3\n    /* \"#utility.yul\":1084:1098   */\n  lt\n    /* \"#utility.yul\":1064:1082   */\n  dup2\n    /* \"#utility.yul\":1061:1099   */\n  eq\n    /* \"#utility.yul\":1058:1142   */\n  iszero\n  tag_40\n  jumpi\n    /* \"#utility.yul\":1114:1132   */\n  tag_41\n  tag_42\n  jump\t// in\ntag_41:\n    /* \"#utility.yul\":1058:1142   */\ntag_40:\n    /* \"#utility.yul\":879:1148   */\n  pop\n    /* \"#utility.yul\":828:1148   */\n  swap2\n  swap1\n  pop\n  jump\t// out\n    /* \"#utility.yul\":1154:1334   */\ntag_42:\n    /* \"#utility.yul\":1202:1279   */\n  0x4e487b7100000000000000000000000000000000000000000000000000000000\n    /* \"#utility.yul\":1199:1200   */\n  0x00\n    /* \"#utility.yul\":1192:1280   */\n  mstore\n    /* \"#utility.yul\":1299:1303   */\n  0x22\n    /* \"#utility.yul\":1296:1297   */\n  0x04\n    /* \"#utility.yul\":1289:1304   */\n  mstore\n    /* \"#utility.yul\":1323:1327   */\n  0x24\n    /* \"#utility.yul\":1320:1321   */\n  0x00\n    /* \"#utility.yul\":1313:1328   */\n  revert\n    /* \"#utility.yul\":1463:1580   */\ntag_29:\n    /* \"#utility.yul\":1572:1573   */\n  0x00\n    /* \"#utility.yul\":1569:1570   */\n  dup1\n    /* \"#utility.yul\":1562:1574   */\n  revert\n    /* \"#utility.yul\":1586:1708   */\ntag_25:\n    /* \"#utility.yul\":1659:1683   */\n  tag_48\n    /* \"#utility.yul\":1677:1682   */\n  dup2\n    /* \"#utility.yul\":1659:1683   */\n  tag_33\n  jump\t// in\ntag_48:\n    /* \"#utility.yul\":1652:1657   */\n  dup2\n    /* \"#utility.yul\":1649:1684   */\n  eq\n    /* \"#utility.yul\":1639:1702   */\n  tag_49\n  jumpi\n    /* \"#utility.yul\":1698:1699   */\n  0x00\n    /* \"#utility.yul\":1695:1696   */\n  dup1\n    /* \"#utility.yul\":1688:1700   */\n  revert\n    /* \"#utility.yul\":1639:1702   */\ntag_49:\n    /* \"#utility.yul\":1586:1708   */\n  pop\n  jump\t// out\n    /* \"Token.sol\":62:1078  contract Token {... */\ntag_9:\n  dataSize(sub_0)\n  dup1\n  dataOffset(sub_0)\n  0x00\n  codecopy\n  0x00\n  return\nstop\n\nsub_0: assembly {\n        /* \"Token.sol\":62:1078  contract Token {... */\n      mstore(0x40, 0x80)\n      callvalue\n      dup1\n      iszero\n      tag_1\n      jumpi\n      0x00\n      dup1\n      revert\n    tag_1:\n      pop\n      jumpi(tag_2, lt(calldatasize, 0x04))\n      shr(0xe0, calldataload(0x00))\n      dup1\n      0x40c10f19\n      gt\n      tag_13\n      jumpi\n      dup1\n      0x40c10f19\n      eq\n      tag_8\n      jumpi\n      dup1\n      0x76809ce3\n      eq\n      tag_9\n      jumpi\n      dup1\n      0x95d89b41\n      eq\n      tag_10\n      jumpi\n      dup1\n      0xd0679d34\n      eq\n      tag_11\n      jumpi\n      dup1\n      0xd3aceae2\n      eq\n      tag_12\n      jumpi\n      jump(tag_2)\n    tag_13:\n      dup1\n      0x06fdde03\n      eq\n      tag_3\n      jumpi\n      dup1\n      0x07546172\n      eq\n      tag_4\n      jumpi\n      dup1\n      0x18160ddd\n      eq\n      tag_5\n      jumpi\n      dup1\n      0x22f4596f\n      eq\n      tag_6\n      jumpi\n      dup1\n      0x3eaaf86b\n      eq\n      tag_7\n      jumpi\n    tag_2:\n      0x00\n      dup1\n      revert\n        /* \"Token.sol\":83:114  string public name = \"solidity\" */\n    tag_3:\n      tag_14\n      tag_15\n      jump\t// in\n    tag_14:\n      mload(0x40)\n      tag_16\n      swap2\n      swap1\n      tag_17\n      jump\t// in\n    tag_16:\n      mload(0x40)\n      dup1\n      swap2\n      sub\n      swap1\n      return\n        /* \"Token.sol\":239:260  address public minter */\n    tag_4:\n      tag_18\n      tag_19\n      jump\t// in\n    tag_18:\n      mload(0x40)\n      tag_20\n      swap2\n      swap1\n      tag_21\n      jump\t// in\n    tag_20:\n      mload(0x40)\n      dup1\n      swap2\n      sub\n      swap1\n      return\n        /* \"Token.sol\":560:648  function totalSupply() public view returns(uint256) {... */\n    tag_5:\n      tag_22\n      tag_23\n      jump\t// in\n    tag_22:\n      mload(0x40)\n      tag_24\n      swap2\n      swap1\n      tag_25\n      jump\t// in\n    tag_24:\n      mload(0x40)\n      dup1\n      swap2\n      sub\n      swap1\n      return\n        /* \"Token.sol\":187:233  uint256 public _maxSupply = 21000000 *10 ** 18 */\n    tag_6:\n      tag_26\n      tag_27\n      jump\t// in\n    tag_26:\n      mload(0x40)\n      tag_28\n      swap2\n      swap1\n      tag_25\n      jump\t// in\n    tag_28:\n      mload(0x40)\n      dup1\n      swap2\n      sub\n      swap1\n      return\n        /* \"Token.sol\":350:374  uint public _totalSupply */\n    tag_7:\n      tag_29\n      tag_30\n      jump\t// in\n    tag_29:\n      mload(0x40)\n      tag_31\n      swap2\n      swap1\n      tag_25\n      jump\t// in\n    tag_31:\n      mload(0x40)\n      dup1\n      swap2\n      sub\n      swap1\n      return\n        /* \"Token.sol\":863:1072  function mint(address receiver, uint amount) public onlyOwner{... */\n    tag_8:\n      tag_32\n      0x04\n      dup1\n      calldatasize\n      sub\n      dup2\n      add\n      swap1\n      tag_33\n      swap2\n      swap1\n      tag_34\n      jump\t// in\n    tag_33:\n      tag_35\n      jump\t// in\n    tag_32:\n      stop\n        /* \"Token.sol\":154:181  uint256 public decimal = 18 */\n    tag_9:\n      tag_36\n      tag_37\n      jump\t// in\n    tag_36:\n      mload(0x40)\n      tag_38\n      swap2\n      swap1\n      tag_25\n      jump\t// in\n    tag_38:\n      mload(0x40)\n      dup1\n      swap2\n      sub\n      swap1\n      return\n        /* \"Token.sol\":120:148  string public symbol = \"SOL\" */\n    tag_10:\n      tag_39\n      tag_40\n      jump\t// in\n    tag_39:\n      mload(0x40)\n      tag_41\n      swap2\n      swap1\n      tag_17\n      jump\t// in\n    tag_41:\n      mload(0x40)\n      dup1\n      swap2\n      sub\n      swap1\n      return\n        /* \"Token.sol\":653:858  function send(address get, uint amount) public{... */\n    tag_11:\n      tag_42\n      0x04\n      dup1\n      calldatasize\n      sub\n      dup2\n      add\n      swap1\n      tag_43\n      swap2\n      swap1\n      tag_34\n      jump\t// in\n    tag_43:\n      tag_44\n      jump\t// in\n    tag_42:\n      stop\n        /* \"Token.sol\":283:323  mapping(address => uint) public _balance */\n    tag_12:\n      tag_45\n      0x04\n      dup1\n      calldatasize\n      sub\n      dup2\n      add\n      swap1\n      tag_46\n      swap2\n      swap1\n      tag_47\n      jump\t// in\n    tag_46:\n      tag_48\n      jump\t// in\n    tag_45:\n      mload(0x40)\n      tag_49\n      swap2\n      swap1\n      tag_25\n      jump\t// in\n    tag_49:\n      mload(0x40)\n      dup1\n      swap2\n      sub\n      swap1\n      return\n        /* \"Token.sol\":83:114  string public name = \"solidity\" */\n    tag_15:\n      0x00\n      dup1\n      sload\n      tag_50\n      swap1\n      tag_51\n      jump\t// in\n    tag_50:\n      dup1\n      0x1f\n      add\n      0x20\n      dup1\n      swap2\n      div\n      mul\n      0x20\n      add\n      mload(0x40)\n      swap1\n      dup2\n      add\n      0x40\n      mstore\n      dup1\n      swap3\n      swap2\n      swap1\n      dup2\n      dup2\n      mstore\n      0x20\n      add\n      dup3\n      dup1\n      sload\n      tag_52\n      swap1\n      tag_51\n      jump\t// in\n    tag_52:\n      dup1\n      iszero\n      tag_53\n      jumpi\n      dup1\n      0x1f\n      lt\n      tag_54\n      jumpi\n      0x0100\n      dup1\n      dup4\n      sload\n      div\n      mul\n      dup4\n      mstore\n      swap2\n      0x20\n      add\n      swap2\n      jump(tag_53)\n    tag_54:\n      dup3\n      add\n      swap2\n      swap1\n      0x00\n      mstore\n      keccak256(0x00, 0x20)\n      swap1\n    tag_55:\n      dup2\n      sload\n      dup2\n      mstore\n      swap1\n      0x01\n      add\n      swap1\n      0x20\n      add\n      dup1\n      dup4\n      gt\n      tag_55\n      jumpi\n      dup3\n      swap1\n      sub\n      0x1f\n      and\n      dup3\n      add\n      swap2\n    tag_53:\n      pop\n      pop\n      pop\n      pop\n      pop\n      dup2\n      jump\t// out\n        /* \"Token.sol\":239:260  address public minter */\n    tag_19:\n      0x04\n      0x00\n      swap1\n      sload\n      swap1\n      0x0100\n      exp\n      swap1\n      div\n      0xffffffffffffffffffffffffffffffffffffffff\n      and\n      dup2\n      jump\t// out\n        /* \"Token.sol\":560:648  function totalSupply() public view returns(uint256) {... */\n    tag_23:\n        /* \"Token.sol\":603:610  uint256 */\n      0x00\n        /* \"Token.sol\":629:641  _totalSupply */\n      sload(0x06)\n        /* \"Token.sol\":622:641  return _totalSupply */\n      swap1\n      pop\n        /* \"Token.sol\":560:648  function totalSupply() public view returns(uint256) {... */\n      swap1\n      jump\t// out\n        /* \"Token.sol\":187:233  uint256 public _maxSupply = 21000000 *10 ** 18 */\n    tag_27:\n      sload(0x03)\n      dup2\n      jump\t// out\n        /* \"Token.sol\":350:374  uint public _totalSupply */\n    tag_30:\n      sload(0x06)\n      dup2\n      jump\t// out\n        /* \"Token.sol\":863:1072  function mint(address receiver, uint amount) public onlyOwner{... */\n    tag_35:\n        /* \"Token.sol\":507:513  minter */\n      0x04\n      0x00\n      swap1\n      sload\n      swap1\n      0x0100\n      exp\n      swap1\n      div\n      0xffffffffffffffffffffffffffffffffffffffff\n      and\n        /* \"Token.sol\":493:513  msg.sender == minter */\n      0xffffffffffffffffffffffffffffffffffffffff\n      and\n        /* \"Token.sol\":493:503  msg.sender */\n      caller\n        /* \"Token.sol\":493:513  msg.sender == minter */\n      0xffffffffffffffffffffffffffffffffffffffff\n      and\n      eq\n        /* \"Token.sol\":484:536  require (msg.sender == minter,\"not is own account\" ) */\n      tag_58\n      jumpi\n      mload(0x40)\n      0x08c379a000000000000000000000000000000000000000000000000000000000\n      dup2\n      mstore\n      0x04\n      add\n      tag_59\n      swap1\n      tag_60\n      jump\t// in\n    tag_59:\n      mload(0x40)\n      dup1\n      swap2\n      sub\n      swap1\n      revert\n    tag_58:\n        /* \"Token.sol\":967:977  _maxSupply */\n      sload(0x03)\n        /* \"Token.sol\":957:963  amount */\n      dup2\n        /* \"Token.sol\":942:954  _totalSupply */\n      sload(0x06)\n        /* \"Token.sol\":942:963  _totalSupply + amount */\n      tag_62\n      swap2\n      swap1\n      tag_63\n      jump\t// in\n    tag_62:\n        /* \"Token.sol\":942:977  _totalSupply + amount <= _maxSupply */\n      gt\n      iszero\n        /* \"Token.sol\":934:995  require(_totalSupply + amount <= _maxSupply,\"over maxsupply\") */\n      tag_64\n      jumpi\n      mload(0x40)\n      0x08c379a000000000000000000000000000000000000000000000000000000000\n      dup2\n      mstore\n      0x04\n      add\n      tag_65\n      swap1\n      tag_66\n      jump\t// in\n    tag_65:\n      mload(0x40)\n      dup1\n      swap2\n      sub\n      swap1\n      revert\n    tag_64:\n        /* \"Token.sol\":1021:1027  amount */\n      dup1\n        /* \"Token.sol\":1005:1017  _totalSupply */\n      0x06\n      0x00\n        /* \"Token.sol\":1005:1027  _totalSupply += amount */\n      dup3\n      dup3\n      sload\n      tag_67\n      swap2\n      swap1\n      tag_63\n      jump\t// in\n    tag_67:\n      swap3\n      pop\n      pop\n      dup2\n      swap1\n      sstore\n      pop\n        /* \"Token.sol\":1059:1065  amount */\n      dup1\n        /* \"Token.sol\":1037:1045  _balance */\n      0x05\n        /* \"Token.sol\":1037:1055  _balance[receiver] */\n      0x00\n        /* \"Token.sol\":1046:1054  receiver */\n      dup5\n        /* \"Token.sol\":1037:1055  _balance[receiver] */\n      0xffffffffffffffffffffffffffffffffffffffff\n      and\n      0xffffffffffffffffffffffffffffffffffffffff\n      and\n      dup2\n      mstore\n      0x20\n      add\n      swap1\n      dup2\n      mstore\n      0x20\n      add\n      0x00\n      keccak256\n      0x00\n        /* \"Token.sol\":1037:1065  _balance[receiver] += amount */\n      dup3\n      dup3\n      sload\n      tag_68\n      swap2\n      swap1\n      tag_63\n      jump\t// in\n    tag_68:\n      swap3\n      pop\n      pop\n      dup2\n      swap1\n      sstore\n      pop\n        /* \"Token.sol\":863:1072  function mint(address receiver, uint amount) public onlyOwner{... */\n      pop\n      pop\n      jump\t// out\n        /* \"Token.sol\":154:181  uint256 public decimal = 18 */\n    tag_37:\n      sload(0x02)\n      dup2\n      jump\t// out\n        /* \"Token.sol\":120:148  string public symbol = \"SOL\" */\n    tag_40:\n      0x01\n      dup1\n      sload\n      tag_69\n      swap1\n      tag_51\n      jump\t// in\n    tag_69:\n      dup1\n      0x1f\n      add\n      0x20\n      dup1\n      swap2\n      div\n      mul\n      0x20\n      add\n      mload(0x40)\n      swap1\n      dup2\n      add\n      0x40\n      mstore\n      dup1\n      swap3\n      swap2\n      swap1\n      dup2\n      dup2\n      mstore\n      0x20\n      add\n      dup3\n      dup1\n      sload\n      tag_70\n      swap1\n      tag_51\n      jump\t// in\n    tag_70:\n      dup1\n      iszero\n      tag_71\n      jumpi\n      dup1\n      0x1f\n      lt\n      tag_72\n      jumpi\n      0x0100\n      dup1\n      dup4\n      sload\n      div\n      mul\n      dup4\n      mstore\n      swap2\n      0x20\n      add\n      swap2\n      jump(tag_71)\n    tag_72:\n      dup3\n      add\n      swap2\n      swap1\n      0x00\n      mstore\n      keccak256(0x00, 0x20)\n      swap1\n    tag_73:\n      dup2\n      sload\n      dup2\n      mstore\n      swap1\n      0x01\n      add\n      swap1\n      0x20\n      add\n      dup1\n      dup4\n      gt\n      tag_73\n      jumpi\n      dup3\n      swap1\n      sub\n      0x1f\n      and\n      dup3\n      add\n      swap2\n    tag_71:\n      pop\n      pop\n      pop\n      pop\n      pop\n      dup2\n      jump\t// out\n        /* \"Token.sol\":653:858  function send(address get, uint amount) public{... */\n    tag_44:\n        /* \"Token.sol\":741:747  amount */\n      dup1\n        /* \"Token.sol\":717:725  _balance */\n      0x05\n        /* \"Token.sol\":717:737  _balance[msg.sender] */\n      0x00\n        /* \"Token.sol\":726:736  msg.sender */\n      caller\n        /* \"Token.sol\":717:737  _balance[msg.sender] */\n      0xffffffffffffffffffffffffffffffffffffffff\n      and\n      0xffffffffffffffffffffffffffffffffffffffff\n      and\n      dup2\n      mstore\n      0x20\n      add\n      swap1\n      dup2\n      mstore\n      0x20\n      add\n      0x00\n      keccak256\n      sload\n        /* \"Token.sol\":717:747  _balance[msg.sender] >= amount */\n      lt\n      iszero\n        /* \"Token.sol\":709:769  require(_balance[msg.sender] >= amount,\"not enougt balance\") */\n      tag_75\n      jumpi\n      mload(0x40)\n      0x08c379a000000000000000000000000000000000000000000000000000000000\n      dup2\n      mstore\n      0x04\n      add\n      tag_76\n      swap1\n      tag_77\n      jump\t// in\n    tag_76:\n      mload(0x40)\n      dup1\n      swap2\n      sub\n      swap1\n      revert\n    tag_75:\n        /* \"Token.sol\":803:809  amount */\n      dup1\n        /* \"Token.sol\":779:787  _balance */\n      0x05\n        /* \"Token.sol\":779:799  _balance[msg.sender] */\n      0x00\n        /* \"Token.sol\":788:798  msg.sender */\n      caller\n        /* \"Token.sol\":779:799  _balance[msg.sender] */\n      0xffffffffffffffffffffffffffffffffffffffff\n      and\n      0xffffffffffffffffffffffffffffffffffffffff\n      and\n      dup2\n      mstore\n      0x20\n      add\n      swap1\n      dup2\n      mstore\n      0x20\n      add\n      0x00\n      keccak256\n      0x00\n        /* \"Token.sol\":779:809  _balance[msg.sender] -= amount */\n      dup3\n      dup3\n      sload\n      tag_78\n      swap2\n      swap1\n      tag_79\n      jump\t// in\n    tag_78:\n      swap3\n      pop\n      pop\n      dup2\n      swap1\n      sstore\n      pop\n        /* \"Token.sol\":836:842  amount */\n      dup1\n        /* \"Token.sol\":819:827  _balance */\n      0x05\n        /* \"Token.sol\":819:832  _balance[get] */\n      0x00\n        /* \"Token.sol\":828:831  get */\n      dup5\n        /* \"Token.sol\":819:832  _balance[get] */\n      0xffffffffffffffffffffffffffffffffffffffff\n      and\n      0xffffffffffffffffffffffffffffffffffffffff\n      and\n      dup2\n      mstore\n      0x20\n      add\n      swap1\n      dup2\n      mstore\n      0x20\n      add\n      0x00\n      keccak256\n      0x00\n        /* \"Token.sol\":819:842  _balance[get] += amount */\n      dup3\n      dup3\n      sload\n      tag_80\n      swap2\n      swap1\n      tag_63\n      jump\t// in\n    tag_80:\n      swap3\n      pop\n      pop\n      dup2\n      swap1\n      sstore\n      pop\n        /* \"Token.sol\":653:858  function send(address get, uint amount) public{... */\n      pop\n      pop\n      jump\t// out\n        /* \"Token.sol\":283:323  mapping(address => uint) public _balance */\n    tag_48:\n      mstore(0x20, 0x05)\n      dup1\n      0x00\n      mstore\n      keccak256(0x00, 0x40)\n      0x00\n      swap2\n      pop\n      swap1\n      pop\n      sload\n      dup2\n      jump\t// out\n        /* \"#utility.yul\":7:146   */\n    tag_82:\n        /* \"#utility.yul\":53:58   */\n      0x00\n        /* \"#utility.yul\":91:97   */\n      dup2\n        /* \"#utility.yul\":78:98   */\n      calldataload\n        /* \"#utility.yul\":69:98   */\n      swap1\n      pop\n        /* \"#utility.yul\":107:140   */\n      tag_84\n        /* \"#utility.yul\":134:139   */\n      dup2\n        /* \"#utility.yul\":107:140   */\n      tag_85\n      jump\t// in\n    tag_84:\n        /* \"#utility.yul\":7:146   */\n      swap3\n      swap2\n      pop\n      pop\n      jump\t// out\n        /* \"#utility.yul\":152:291   */\n    tag_86:\n        /* \"#utility.yul\":198:203   */\n      0x00\n        /* \"#utility.yul\":236:242   */\n      dup2\n        /* \"#utility.yul\":223:243   */\n      calldataload\n        /* \"#utility.yul\":214:243   */\n      swap1\n      pop\n        /* \"#utility.yul\":252:285   */\n      tag_88\n        /* \"#utility.yul\":279:284   */\n      dup2\n        /* \"#utility.yul\":252:285   */\n      tag_89\n      jump\t// in\n    tag_88:\n        /* \"#utility.yul\":152:291   */\n      swap3\n      swap2\n      pop\n      pop\n      jump\t// out\n        /* \"#utility.yul\":297:626   */\n    tag_47:\n        /* \"#utility.yul\":356:362   */\n      0x00\n        /* \"#utility.yul\":405:407   */\n      0x20\n        /* \"#utility.yul\":393:402   */\n      dup3\n        /* \"#utility.yul\":384:391   */\n      dup5\n        /* \"#utility.yul\":380:403   */\n      sub\n        /* \"#utility.yul\":376:408   */\n      slt\n        /* \"#utility.yul\":373:492   */\n      iszero\n      tag_91\n      jumpi\n        /* \"#utility.yul\":411:490   */\n      tag_92\n      tag_93\n      jump\t// in\n    tag_92:\n        /* \"#utility.yul\":373:492   */\n    tag_91:\n        /* \"#utility.yul\":531:532   */\n      0x00\n        /* \"#utility.yul\":556:609   */\n      tag_94\n        /* \"#utility.yul\":601:608   */\n      dup5\n        /* \"#utility.yul\":592:598   */\n      dup3\n        /* \"#utility.yul\":581:590   */\n      dup6\n        /* \"#utility.yul\":577:599   */\n      add\n        /* \"#utility.yul\":556:609   */\n      tag_82\n      jump\t// in\n    tag_94:\n        /* \"#utility.yul\":546:609   */\n      swap2\n      pop\n        /* \"#utility.yul\":502:619   */\n      pop\n        /* \"#utility.yul\":297:626   */\n      swap3\n      swap2\n      pop\n      pop\n      jump\t// out\n        /* \"#utility.yul\":632:1106   */\n    tag_34:\n        /* \"#utility.yul\":700:706   */\n      0x00\n        /* \"#utility.yul\":708:714   */\n      dup1\n        /* \"#utility.yul\":757:759   */\n      0x40\n        /* \"#utility.yul\":745:754   */\n      dup4\n        /* \"#utility.yul\":736:743   */\n      dup6\n        /* \"#utility.yul\":732:755   */\n      sub\n        /* \"#utility.yul\":728:760   */\n      slt\n        /* \"#utility.yul\":725:844   */\n      iszero\n      tag_96\n      jumpi\n        /* \"#utility.yul\":763:842   */\n      tag_97\n      tag_93\n      jump\t// in\n    tag_97:\n        /* \"#utility.yul\":725:844   */\n    tag_96:\n        /* \"#utility.yul\":883:884   */\n      0x00\n        /* \"#utility.yul\":908:961   */\n      tag_98\n        /* \"#utility.yul\":953:960   */\n      dup6\n        /* \"#utility.yul\":944:950   */\n      dup3\n        /* \"#utility.yul\":933:942   */\n      dup7\n        /* \"#utility.yul\":929:951   */\n      add\n        /* \"#utility.yul\":908:961   */\n      tag_82\n      jump\t// in\n    tag_98:\n        /* \"#utility.yul\":898:961   */\n      swap3\n      pop\n        /* \"#utility.yul\":854:971   */\n      pop\n        /* \"#utility.yul\":1010:1012   */\n      0x20\n        /* \"#utility.yul\":1036:1089   */\n      tag_99\n        /* \"#utility.yul\":1081:1088   */\n      dup6\n        /* \"#utility.yul\":1072:1078   */\n      dup3\n        /* \"#utility.yul\":1061:1070   */\n      dup7\n        /* \"#utility.yul\":1057:1079   */\n      add\n        /* \"#utility.yul\":1036:1089   */\n      tag_86\n      jump\t// in\n    tag_99:\n        /* \"#utility.yul\":1026:1089   */\n      swap2\n      pop\n        /* \"#utility.yul\":981:1099   */\n      pop\n        /* \"#utility.yul\":632:1106   */\n      swap3\n      pop\n      swap3\n      swap1\n      pop\n      jump\t// out\n        /* \"#utility.yul\":1112:1230   */\n    tag_100:\n        /* \"#utility.yul\":1199:1223   */\n      tag_102\n        /* \"#utility.yul\":1217:1222   */\n      dup2\n        /* \"#utility.yul\":1199:1223   */\n      tag_103\n      jump\t// in\n    tag_102:\n        /* \"#utility.yul\":1194:1197   */\n      dup3\n        /* \"#utility.yul\":1187:1224   */\n      mstore\n        /* \"#utility.yul\":1112:1230   */\n      pop\n      pop\n      jump\t// out\n        /* \"#utility.yul\":1236:1600   */\n    tag_104:\n        /* \"#utility.yul\":1324:1327   */\n      0x00\n        /* \"#utility.yul\":1352:1391   */\n      tag_106\n        /* \"#utility.yul\":1385:1390   */\n      dup3\n        /* \"#utility.yul\":1352:1391   */\n      tag_107\n      jump\t// in\n    tag_106:\n        /* \"#utility.yul\":1407:1478   */\n      tag_108\n        /* \"#utility.yul\":1471:1477   */\n      dup2\n        /* \"#utility.yul\":1466:1469   */\n      dup6\n        /* \"#utility.yul\":1407:1478   */\n      tag_109\n      jump\t// in\n    tag_108:\n        /* \"#utility.yul\":1400:1478   */\n      swap4\n      pop\n        /* \"#utility.yul\":1487:1539   */\n      tag_110\n        /* \"#utility.yul\":1532:1538   */\n      dup2\n        /* \"#utility.yul\":1527:1530   */\n      dup6\n        /* \"#utility.yul\":1520:1524   */\n      0x20\n        /* \"#utility.yul\":1513:1518   */\n      dup7\n        /* \"#utility.yul\":1509:1525   */\n      add\n        /* \"#utility.yul\":1487:1539   */\n      tag_111\n      jump\t// in\n    tag_110:\n        /* \"#utility.yul\":1564:1593   */\n      tag_112\n        /* \"#utility.yul\":1586:1592   */\n      dup2\n        /* \"#utility.yul\":1564:1593   */\n      tag_113\n      jump\t// in\n    tag_112:\n        /* \"#utility.yul\":1559:1562   */\n      dup5\n        /* \"#utility.yul\":1555:1594   */\n      add\n        /* \"#utility.yul\":1548:1594   */\n      swap2\n      pop\n        /* \"#utility.yul\":1328:1600   */\n      pop\n        /* \"#utility.yul\":1236:1600   */\n      swap3\n      swap2\n      pop\n      pop\n      jump\t// out\n        /* \"#utility.yul\":1606:1972   */\n    tag_114:\n        /* \"#utility.yul\":1748:1751   */\n      0x00\n        /* \"#utility.yul\":1769:1836   */\n      tag_116\n        /* \"#utility.yul\":1833:1835   */\n      0x0e\n        /* \"#utility.yul\":1828:1831   */\n      dup4\n        /* \"#utility.yul\":1769:1836   */\n      tag_109\n      jump\t// in\n    tag_116:\n        /* \"#utility.yul\":1762:1836   */\n      swap2\n      pop\n        /* \"#utility.yul\":1845:1938   */\n      tag_117\n        /* \"#utility.yul\":1934:1937   */\n      dup3\n        /* \"#utility.yul\":1845:1938   */\n      tag_118\n      jump\t// in\n    tag_117:\n        /* \"#utility.yul\":1963:1965   */\n      0x20\n        /* \"#utility.yul\":1958:1961   */\n      dup3\n        /* \"#utility.yul\":1954:1966   */\n      add\n        /* \"#utility.yul\":1947:1966   */\n      swap1\n      pop\n        /* \"#utility.yul\":1606:1972   */\n      swap2\n      swap1\n      pop\n      jump\t// out\n        /* \"#utility.yul\":1978:2344   */\n    tag_119:\n        /* \"#utility.yul\":2120:2123   */\n      0x00\n        /* \"#utility.yul\":2141:2208   */\n      tag_121\n        /* \"#utility.yul\":2205:2207   */\n      0x12\n        /* \"#utility.yul\":2200:2203   */\n      dup4\n        /* \"#utility.yul\":2141:2208   */\n      tag_109\n      jump\t// in\n    tag_121:\n        /* \"#utility.yul\":2134:2208   */\n      swap2\n      pop\n        /* \"#utility.yul\":2217:2310   */\n      tag_122\n        /* \"#utility.yul\":2306:2309   */\n      dup3\n        /* \"#utility.yul\":2217:2310   */\n      tag_123\n      jump\t// in\n    tag_122:\n        /* \"#utility.yul\":2335:2337   */\n      0x20\n        /* \"#utility.yul\":2330:2333   */\n      dup3\n        /* \"#utility.yul\":2326:2338   */\n      add\n        /* \"#utility.yul\":2319:2338   */\n      swap1\n      pop\n        /* \"#utility.yul\":1978:2344   */\n      swap2\n      swap1\n      pop\n      jump\t// out\n        /* \"#utility.yul\":2350:2716   */\n    tag_124:\n        /* \"#utility.yul\":2492:2495   */\n      0x00\n        /* \"#utility.yul\":2513:2580   */\n      tag_126\n        /* \"#utility.yul\":2577:2579   */\n      0x12\n        /* \"#utility.yul\":2572:2575   */\n      dup4\n        /* \"#utility.yul\":2513:2580   */\n      tag_109\n      jump\t// in\n    tag_126:\n        /* \"#utility.yul\":2506:2580   */\n      swap2\n      pop\n        /* \"#utility.yul\":2589:2682   */\n      tag_127\n        /* \"#utility.yul\":2678:2681   */\n      dup3\n        /* \"#utility.yul\":2589:2682   */\n      tag_128\n      jump\t// in\n    tag_127:\n        /* \"#utility.yul\":2707:2709   */\n      0x20\n        /* \"#utility.yul\":2702:2705   */\n      dup3\n        /* \"#utility.yul\":2698:2710   */\n      add\n        /* \"#utility.yul\":2691:2710   */\n      swap1\n      pop\n        /* \"#utility.yul\":2350:2716   */\n      swap2\n      swap1\n      pop\n      jump\t// out\n        /* \"#utility.yul\":2722:2840   */\n    tag_129:\n        /* \"#utility.yul\":2809:2833   */\n      tag_131\n        /* \"#utility.yul\":2827:2832   */\n      dup2\n        /* \"#utility.yul\":2809:2833   */\n      tag_132\n      jump\t// in\n    tag_131:\n        /* \"#utility.yul\":2804:2807   */\n      dup3\n        /* \"#utility.yul\":2797:2834   */\n      mstore\n        /* \"#utility.yul\":2722:2840   */\n      pop\n      pop\n      jump\t// out\n        /* \"#utility.yul\":2846:3068   */\n    tag_21:\n        /* \"#utility.yul\":2939:2943   */\n      0x00\n        /* \"#utility.yul\":2977:2979   */\n      0x20\n        /* \"#utility.yul\":2966:2975   */\n      dup3\n        /* \"#utility.yul\":2962:2980   */\n      add\n        /* \"#utility.yul\":2954:2980   */\n      swap1\n      pop\n        /* \"#utility.yul\":2990:3061   */\n      tag_134\n        /* \"#utility.yul\":3058:3059   */\n      0x00\n        /* \"#utility.yul\":3047:3056   */\n      dup4\n        /* \"#utility.yul\":3043:3060   */\n      add\n        /* \"#utility.yul\":3034:3040   */\n      dup5\n        /* \"#utility.yul\":2990:3061   */\n      tag_100\n      jump\t// in\n    tag_134:\n        /* \"#utility.yul\":2846:3068   */\n      swap3\n      swap2\n      pop\n      pop\n      jump\t// out\n        /* \"#utility.yul\":3074:3387   */\n    tag_17:\n        /* \"#utility.yul\":3187:3191   */\n      0x00\n        /* \"#utility.yul\":3225:3227   */\n      0x20\n        /* \"#utility.yul\":3214:3223   */\n      dup3\n        /* \"#utility.yul\":3210:3228   */\n      add\n        /* \"#utility.yul\":3202:3228   */\n      swap1\n      pop\n        /* \"#utility.yul\":3274:3283   */\n      dup2\n        /* \"#utility.yul\":3268:3272   */\n      dup2\n        /* \"#utility.yul\":3264:3284   */\n      sub\n        /* \"#utility.yul\":3260:3261   */\n      0x00\n        /* \"#utility.yul\":3249:3258   */\n      dup4\n        /* \"#utility.yul\":3245:3262   */\n      add\n        /* \"#utility.yul\":3238:3285   */\n      mstore\n        /* \"#utility.yul\":3302:3380   */\n      tag_136\n        /* \"#utility.yul\":3375:3379   */\n      dup2\n        /* \"#utility.yul\":3366:3372   */\n      dup5\n        /* \"#utility.yul\":3302:3380   */\n      tag_104\n      jump\t// in\n    tag_136:\n        /* \"#utility.yul\":3294:3380   */\n      swap1\n      pop\n        /* \"#utility.yul\":3074:3387   */\n      swap3\n      swap2\n      pop\n      pop\n      jump\t// out\n        /* \"#utility.yul\":3393:3812   */\n    tag_66:\n        /* \"#utility.yul\":3559:3563   */\n      0x00\n        /* \"#utility.yul\":3597:3599   */\n      0x20\n        /* \"#utility.yul\":3586:3595   */\n      dup3\n        /* \"#utility.yul\":3582:3600   */\n      add\n        /* \"#utility.yul\":3574:3600   */\n      swap1\n      pop\n        /* \"#utility.yul\":3646:3655   */\n      dup2\n        /* \"#utility.yul\":3640:3644   */\n      dup2\n        /* \"#utility.yul\":3636:3656   */\n      sub\n        /* \"#utility.yul\":3632:3633   */\n      0x00\n        /* \"#utility.yul\":3621:3630   */\n      dup4\n        /* \"#utility.yul\":3617:3634   */\n      add\n        /* \"#utility.yul\":3610:3657   */\n      mstore\n        /* \"#utility.yul\":3674:3805   */\n      tag_138\n        /* \"#utility.yul\":3800:3804   */\n      dup2\n        /* \"#utility.yul\":3674:3805   */\n      tag_114\n      jump\t// in\n    tag_138:\n        /* \"#utility.yul\":3666:3805   */\n      swap1\n      pop\n        /* \"#utility.yul\":3393:3812   */\n      swap2\n      swap1\n      pop\n      jump\t// out\n        /* \"#utility.yul\":3818:4237   */\n    tag_60:\n        /* \"#utility.yul\":3984:3988   */\n      0x00\n        /* \"#utility.yul\":4022:4024   */\n      0x20\n        /* \"#utility.yul\":4011:4020   */\n      dup3\n        /* \"#utility.yul\":4007:4025   */\n      add\n        /* \"#utility.yul\":3999:4025   */\n      swap1\n      pop\n        /* \"#utility.yul\":4071:4080   */\n      dup2\n        /* \"#utility.yul\":4065:4069   */\n      dup2\n        /* \"#utility.yul\":4061:4081   */\n      sub\n        /* \"#utility.yul\":4057:4058   */\n      0x00\n        /* \"#utility.yul\":4046:4055   */\n      dup4\n        /* \"#utility.yul\":4042:4059   */\n      add\n        /* \"#utility.yul\":4035:4082   */\n      mstore\n        /* \"#utility.yul\":4099:4230   */\n      tag_140\n        /* \"#utility.yul\":4225:4229   */\n      dup2\n        /* \"#utility.yul\":4099:4230   */\n      tag_119\n      jump\t// in\n    tag_140:\n        /* \"#utility.yul\":4091:4230   */\n      swap1\n      pop\n        /* \"#utility.yul\":3818:4237   */\n      swap2\n      swap1\n      pop\n      jump\t// out\n        /* \"#utility.yul\":4243:4662   */\n    tag_77:\n        /* \"#utility.yul\":4409:4413   */\n      0x00\n        /* \"#utility.yul\":4447:4449   */\n      0x20\n        /* \"#utility.yul\":4436:4445   */\n      dup3\n        /* \"#utility.yul\":4432:4450   */\n      add\n        /* \"#utility.yul\":4424:4450   */\n      swap1\n      pop\n        /* \"#utility.yul\":4496:4505   */\n      dup2\n        /* \"#utility.yul\":4490:4494   */\n      dup2\n        /* \"#utility.yul\":4486:4506   */\n      sub\n        /* \"#utility.yul\":4482:4483   */\n      0x00\n        /* \"#utility.yul\":4471:4480   */\n      dup4\n        /* \"#utility.yul\":4467:4484   */\n      add\n        /* \"#utility.yul\":4460:4507   */\n      mstore\n        /* \"#utility.yul\":4524:4655   */\n      tag_142\n        /* \"#utility.yul\":4650:4654   */\n      dup2\n        /* \"#utility.yul\":4524:4655   */\n      tag_124\n      jump\t// in\n    tag_142:\n        /* \"#utility.yul\":4516:4655   */\n      swap1\n      pop\n        /* \"#utility.yul\":4243:4662   */\n      swap2\n      swap1\n      pop\n      jump\t// out\n        /* \"#utility.yul\":4668:4890   */\n    tag_25:\n        /* \"#utility.yul\":4761:4765   */\n      0x00\n        /* \"#utility.yul\":4799:4801   */\n      0x20\n        /* \"#utility.yul\":4788:4797   */\n      dup3\n        /* \"#utility.yul\":4784:4802   */\n      add\n        /* \"#utility.yul\":4776:4802   */\n      swap1\n      pop\n        /* \"#utility.yul\":4812:4883   */\n      tag_144\n        /* \"#utility.yul\":4880:4881   */\n      0x00\n        /* \"#utility.yul\":4869:4878   */\n      dup4\n        /* \"#utility.yul\":4865:4882   */\n      add\n        /* \"#utility.yul\":4856:4862   */\n      dup5\n        /* \"#utility.yul\":4812:4883   */\n      tag_129\n      jump\t// in\n    tag_144:\n        /* \"#utility.yul\":4668:4890   */\n      swap3\n      swap2\n      pop\n      pop\n      jump\t// out\n        /* \"#utility.yul\":4977:5076   */\n    tag_107:\n        /* \"#utility.yul\":5029:5035   */\n      0x00\n        /* \"#utility.yul\":5063:5068   */\n      dup2\n        /* \"#utility.yul\":5057:5069   */\n      mload\n        /* \"#utility.yul\":5047:5069   */\n      swap1\n      pop\n        /* \"#utility.yul\":4977:5076   */\n      swap2\n      swap1\n      pop\n      jump\t// out\n        /* \"#utility.yul\":5082:5251   */\n    tag_109:\n        /* \"#utility.yul\":5166:5177   */\n      0x00\n        /* \"#utility.yul\":5200:5206   */\n      dup3\n        /* \"#utility.yul\":5195:5198   */\n      dup3\n        /* \"#utility.yul\":5188:5207   */\n      mstore\n        /* \"#utility.yul\":5240:5244   */\n      0x20\n        /* \"#utility.yul\":5235:5238   */\n      dup3\n        /* \"#utility.yul\":5231:5245   */\n      add\n        /* \"#utility.yul\":5216:5245   */\n      swap1\n      pop\n        /* \"#utility.yul\":5082:5251   */\n      swap3\n      swap2\n      pop\n      pop\n      jump\t// out\n        /* \"#utility.yul\":5257:5562   */\n    tag_63:\n        /* \"#utility.yul\":5297:5300   */\n      0x00\n        /* \"#utility.yul\":5316:5336   */\n      tag_150\n        /* \"#utility.yul\":5334:5335   */\n      dup3\n        /* \"#utility.yul\":5316:5336   */\n      tag_132\n      jump\t// in\n    tag_150:\n        /* \"#utility.yul\":5311:5336   */\n      swap2\n      pop\n        /* \"#utility.yul\":5350:5370   */\n      tag_151\n        /* \"#utility.yul\":5368:5369   */\n      dup4\n        /* \"#utility.yul\":5350:5370   */\n      tag_132\n      jump\t// in\n    tag_151:\n        /* \"#utility.yul\":5345:5370   */\n      swap3\n      pop\n        /* \"#utility.yul\":5504:5505   */\n      dup3\n        /* \"#utility.yul\":5436:5502   */\n      0xffffffffffffffffffffffffffffffffffffffffffffffffffffffffffffffff\n        /* \"#utility.yul\":5432:5506   */\n      sub\n        /* \"#utility.yul\":5429:5430   */\n      dup3\n        /* \"#utility.yul\":5426:5507   */\n      gt\n        /* \"#utility.yul\":5423:5530   */\n      iszero\n      tag_152\n      jumpi\n        /* \"#utility.yul\":5510:5528   */\n      tag_153\n      tag_154\n      jump\t// in\n    tag_153:\n        /* \"#utility.yul\":5423:5530   */\n    tag_152:\n        /* \"#utility.yul\":5554:5555   */\n      dup3\n        /* \"#utility.yul\":5551:5552   */\n      dup3\n        /* \"#utility.yul\":5547:5556   */\n      add\n        /* \"#utility.yul\":5540:5556   */\n      swap1\n      pop\n        /* \"#utility.yul\":5257:5562   */\n      swap3\n      swap2\n      pop\n      pop\n      jump\t// out\n        /* \"#utility.yul\":5568:5759   */\n    tag_79:\n        /* \"#utility.yul\":5608:5612   */\n      0x00\n        /* \"#utility.yul\":5628:5648   */\n      tag_156\n        /* \"#utility.yul\":5646:5647   */\n      dup3\n        /* \"#utility.yul\":5628:5648   */\n      tag_132\n      jump\t// in\n    tag_156:\n        /* \"#utility.yul\":5623:5648   */\n      swap2\n      pop\n        /* \"#utility.yul\":5662:5682   */\n      tag_157\n        /* \"#utility.yul\":5680:5681   */\n      dup4\n        /* \"#utility.yul\":5662:5682   */\n      tag_132\n      jump\t// in\n    tag_157:\n        /* \"#utility.yul\":5657:5682   */\n      swap3\n      pop\n        /* \"#utility.yul\":5701:5702   */\n      dup3\n        /* \"#utility.yul\":5698:5699   */\n      dup3\n        /* \"#utility.yul\":5695:5703   */\n      lt\n        /* \"#utility.yul\":5692:5726   */\n      iszero\n      tag_158\n      jumpi\n        /* \"#utility.yul\":5706:5724   */\n      tag_159\n      tag_154\n      jump\t// in\n    tag_159:\n        /* \"#utility.yul\":5692:5726   */\n    tag_158:\n        /* \"#utility.yul\":5751:5752   */\n      dup3\n        /* \"#utility.yul\":5748:5749   */\n      dup3\n        /* \"#utility.yul\":5744:5753   */\n      sub\n        /* \"#utility.yul\":5736:5753   */\n      swap1\n      pop\n        /* \"#utility.yul\":5568:5759   */\n      swap3\n      swap2\n      pop\n      pop\n      jump\t// out\n        /* \"#utility.yul\":5765:5861   */\n    tag_103:\n        /* \"#utility.yul\":5802:5809   */\n      0x00\n        /* \"#utility.yul\":5831:5855   */\n      tag_161\n        /* \"#utility.yul\":5849:5854   */\n      dup3\n        /* \"#utility.yul\":5831:5855   */\n      tag_162\n      jump\t// in\n    tag_161:\n        /* \"#utility.yul\":5820:5855   */\n      swap1\n      pop\n        /* \"#utility.yul\":5765:5861   */\n      swap2\n      swap1\n      pop\n      jump\t// out\n        /* \"#utility.yul\":5867:5993   */\n    tag_162:\n        /* \"#utility.yul\":5904:5911   */\n      0x00\n        /* \"#utility.yul\":5944:5986   */\n      0xffffffffffffffffffffffffffffffffffffffff\n        /* \"#utility.yul\":5937:5942   */\n      dup3\n        /* \"#utility.yul\":5933:5987   */\n      and\n        /* \"#utility.yul\":5922:5987   */\n      swap1\n      pop\n        /* \"#utility.yul\":5867:5993   */\n      swap2\n      swap1\n      pop\n      jump\t// out\n        /* \"#utility.yul\":5999:6076   */\n    tag_132:\n        /* \"#utility.yul\":6036:6043   */\n      0x00\n        /* \"#utility.yul\":6065:6070   */\n      dup2\n        /* \"#utility.yul\":6054:6070   */\n      swap1\n      pop\n        /* \"#utility.yul\":5999:6076   */\n      swap2\n      swap1\n      pop\n      jump\t// out\n        /* \"#utility.yul\":6082:6389   */\n    tag_111:\n        /* \"#utility.yul\":6150:6151   */\n      0x00\n        /* \"#utility.yul\":6160:6273   */\n    tag_166:\n        /* \"#utility.yul\":6174:6180   */\n      dup4\n        /* \"#utility.yul\":6171:6172   */\n      dup2\n        /* \"#utility.yul\":6168:6181   */\n      lt\n        /* \"#utility.yul\":6160:6273   */\n      iszero\n      tag_168\n      jumpi\n        /* \"#utility.yul\":6259:6260   */\n      dup1\n        /* \"#utility.yul\":6254:6257   */\n      dup3\n        /* \"#utility.yul\":6250:6261   */\n      add\n        /* \"#utility.yul\":6244:6262   */\n      mload\n        /* \"#utility.yul\":6240:6241   */\n      dup2\n        /* \"#utility.yul\":6235:6238   */\n      dup5\n        /* \"#utility.yul\":6231:6242   */\n      add\n        /* \"#utility.yul\":6224:6263   */\n      mstore\n        /* \"#utility.yul\":6196:6198   */\n      0x20\n        /* \"#utility.yul\":6193:6194   */\n      dup2\n        /* \"#utility.yul\":6189:6199   */\n      add\n        /* \"#utility.yul\":6184:6199   */\n      swap1\n      pop\n        /* \"#utility.yul\":6160:6273   */\n      jump(tag_166)\n    tag_168:\n        /* \"#utility.yul\":6291:6297   */\n      dup4\n        /* \"#utility.yul\":6288:6289   */\n      dup2\n        /* \"#utility.yul\":6285:6298   */\n      gt\n        /* \"#utility.yul\":6282:6383   */\n      iszero\n      tag_169\n      jumpi\n        /* \"#utility.yul\":6371:6372   */\n      0x00\n        /* \"#utility.yul\":6362:6368   */\n      dup5\n        /* \"#utility.yul\":6357:6360   */\n      dup5\n        /* \"#utility.yul\":6353:6369   */\n      add\n        /* \"#utility.yul\":6346:6373   */\n      mstore\n        /* \"#utility.yul\":6282:6383   */\n    tag_169:\n        /* \"#utility.yul\":6131:6389   */\n      pop\n        /* \"#utility.yul\":6082:6389   */\n      pop\n      pop\n      pop\n      jump\t// out\n        /* \"#utility.yul\":6395:6715   */\n    tag_51:\n        /* \"#utility.yul\":6439:6445   */\n      0x00\n        /* \"#utility.yul\":6476:6477   */\n      0x02\n        /* \"#utility.yul\":6470:6474   */\n      dup3\n        /* \"#utility.yul\":6466:6478   */\n      div\n        /* \"#utility.yul\":6456:6478   */\n      swap1\n      pop\n        /* \"#utility.yul\":6523:6524   */\n      0x01\n        /* \"#utility.yul\":6517:6521   */\n      dup3\n        /* \"#utility.yul\":6513:6525   */\n      and\n        /* \"#utility.yul\":6544:6562   */\n      dup1\n        /* \"#utility.yul\":6534:6615   */\n      tag_171\n      jumpi\n        /* \"#utility.yul\":6600:6604   */\n      0x7f\n        /* \"#utility.yul\":6592:6598   */\n      dup3\n        /* \"#utility.yul\":6588:6605   */\n      and\n        /* \"#utility.yul\":6578:6605   */\n      swap2\n      pop\n        /* \"#utility.yul\":6534:6615   */\n    tag_171:\n        /* \"#utility.yul\":6662:6664   */\n      0x20\n        /* \"#utility.yul\":6654:6660   */\n      dup3\n        /* \"#utility.yul\":6651:6665   */\n      lt\n        /* \"#utility.yul\":6631:6649   */\n      dup2\n        /* \"#utility.yul\":6628:6666   */\n      eq\n        /* \"#utility.yul\":6625:6709   */\n      iszero\n      tag_172\n      jumpi\n        /* \"#utility.yul\":6681:6699   */\n      tag_173\n      tag_174\n      jump\t// in\n    tag_173:\n        /* \"#utility.yul\":6625:6709   */\n    tag_172:\n        /* \"#utility.yul\":6446:6715   */\n      pop\n        /* \"#utility.yul\":6395:6715   */\n      swap2\n      swap1\n      pop\n      jump\t// out\n        /* \"#utility.yul\":6721:6901   */\n    tag_154:\n        /* \"#utility.yul\":6769:6846   */\n      0x4e487b7100000000000000000000000000000000000000000000000000000000\n        /* \"#utility.yul\":6766:6767   */\n      0x00\n        /* \"#utility.yul\":6759:6847   */\n      mstore\n        /* \"#utility.yul\":6866:6870   */\n      0x11\n        /* \"#utility.yul\":6863:6864   */\n      0x04\n        /* \"#utility.yul\":6856:6871   */\n      mstore\n        /* \"#utility.yul\":6890:6894   */\n      0x24\n        /* \"#utility.yul\":6887:6888   */\n      0x00\n        /* \"#utility.yul\":6880:6895   */\n      revert\n        /* \"#utility.yul\":6907:7087   */\n    tag_174:\n        /* \"#utility.yul\":6955:7032   */\n      0x4e487b7100000000000000000000000000000000000000000000000000000000\n        /* \"#utility.yul\":6952:6953   */\n      0x00\n        /* \"#utility.yul\":6945:7033   */\n      mstore\n        /* \"#utility.yul\":7052:7056   */\n      0x22\n        /* \"#utility.yul\":7049:7050   */\n      0x04\n        /* \"#utility.yul\":7042:7057   */\n      mstore\n        /* \"#utility.yul\":7076:7080   */\n      0x24\n        /* \"#utility.yul\":7073:7074   */\n      0x00\n        /* \"#utility.yul\":7066:7081   */\n      revert\n        /* \"#utility.yul\":7216:7333   */\n    tag_93:\n        /* \"#utility.yul\":7325:7326   */\n      0x00\n        /* \"#utility.yul\":7322:7323   */\n      dup1\n        /* \"#utility.yul\":7315:7327   */\n      revert\n        /* \"#utility.yul\":7339:7441   */\n    tag_113:\n        /* \"#utility.yul\":7380:7386   */\n      0x00\n        /* \"#utility.yul\":7431:7433   */\n      0x1f\n        /* \"#utility.yul\":7427:7434   */\n      not\n        /* \"#utility.yul\":7422:7424   */\n      0x1f\n        /* \"#utility.yul\":7415:7420   */\n      dup4\n        /* \"#utility.yul\":7411:7425   */\n      add\n        /* \"#utility.yul\":7407:7435   */\n      and\n        /* \"#utility.yul\":7397:7435   */\n      swap1\n      pop\n        /* \"#utility.yul\":7339:7441   */\n      swap2\n      swap1\n      pop\n      jump\t// out\n        /* \"#utility.yul\":7447:7611   */\n    tag_118:\n        /* \"#utility.yul\":7587:7603   */\n      0x6f766572206d6178737570706c79000000000000000000000000000000000000\n        /* \"#utility.yul\":7583:7584   */\n      0x00\n        /* \"#utility.yul\":7575:7581   */\n      dup3\n        /* \"#utility.yul\":7571:7585   */\n      add\n        /* \"#utility.yul\":7564:7604   */\n      mstore\n        /* \"#utility.yul\":7447:7611   */\n      pop\n      jump\t// out\n        /* \"#utility.yul\":7617:7785   */\n    tag_123:\n        /* \"#utility.yul\":7757:7777   */\n      0x6e6f74206973206f776e206163636f756e740000000000000000000000000000\n        /* \"#utility.yul\":7753:7754   */\n      0x00\n        /* \"#utility.yul\":7745:7751   */\n      dup3\n        /* \"#utility.yul\":7741:7755   */\n      add\n        /* \"#utility.yul\":7734:7778   */\n      mstore\n        /* \"#utility.yul\":7617:7785   */\n      pop\n      jump\t// out\n        /* \"#utility.yul\":7791:7959   */\n    tag_128:\n        /* \"#utility.yul\":7931:7951   */\n      0x6e6f7420656e6f7567742062616c616e63650000000000000000000000000000\n        /* \"#utility.yul\":7927:7928   */\n      0x00\n        /* \"#utility.yul\":7919:7925   */\n      dup3\n        /* \"#utility.yul\":7915:7929   */\n      add\n        /* \"#utility.yul\":7908:7952   */\n      mstore\n        /* \"#utility.yul\":7791:7959   */\n      pop\n      jump\t// out\n        /* \"#utility.yul\":7965:8087   */\n    tag_85:\n        /* \"#utility.yul\":8038:8062   */\n      tag_185\n        /* \"#utility.yul\":8056:8061   */\n      dup2\n        /* \"#utility.yul\":8038:8062   */\n      tag_103\n      jump\t// in\n    tag_185:\n        /* \"#utility.yul\":8031:8036   */\n      dup2\n        /* \"#utility.yul\":8028:8063   */\n      eq\n        /* \"#utility.yul\":8018:8081   */\n      tag_186\n      jumpi\n        /* \"#utility.yul\":8077:8078   */\n      0x00\n        /* \"#utility.yul\":8074:8075   */\n      dup1\n        /* \"#utility.yul\":8067:8079   */\n      revert\n        /* \"#utility.yul\":8018:8081   */\n    tag_186:\n        /* \"#utility.yul\":7965:8087   */\n      pop\n      jump\t// out\n        /* \"#utility.yul\":8093:8215   */\n    tag_89:\n        /* \"#utility.yul\":8166:8190   */\n      tag_188\n        /* \"#utility.yul\":8184:8189   */\n      dup2\n        /* \"#utility.yul\":8166:8190   */\n      tag_132\n      jump\t// in\n    tag_188:\n        /* \"#utility.yul\":8159:8164   */\n      dup2\n        /* \"#utility.yul\":8156:8191   */\n      eq\n        /* \"#utility.yul\":8146:8209   */\n      tag_189\n      jumpi\n        /* \"#utility.yul\":8205:8206   */\n      0x00\n        /* \"#utility.yul\":8202:8203   */\n      dup1\n        /* \"#utility.yul\":8195:8207   */\n      revert\n        /* \"#utility.yul\":8146:8209   */\n    tag_189:\n        /* \"#utility.yul\":8093:8215   */\n      pop\n      jump\t// out\n\n    auxdata: 0xa2646970667358221220fecb887d0dd183c8d32ba5259d939b5e5b4b7d3a19217dad50bc2b83e195391664736f6c63430008070033\n}\n",
				"bytecode": {
					"linkReferences": {},
					"object": "60806040526040518060400160405280600881526020017f736f6c696469747900000000000000000000000000000000000000000000000081525060009080519060200190620000519291906200012f565b506040518060400160405280600381526020017f534f4c0000000000000000000000000000000000000000000000000000000000815250600190805190602001906200009f9291906200012f565b5060126002556a115eec47f6cf7e35000000600355348015620000c157600080fd5b5060405162000d7338038062000d738339818101604052810190620000e79190620001f6565b80600460006101000a81548173ffffffffffffffffffffffffffffffffffffffff021916908373ffffffffffffffffffffffffffffffffffffffff16021790555050620002e0565b8280546200013d906200025c565b90600052602060002090601f016020900481019282620001615760008555620001ad565b82601f106200017c57805160ff1916838001178555620001ad565b82800160010185558215620001ad579182015b82811115620001ac5782518255916020019190600101906200018f565b5b509050620001bc9190620001c0565b5090565b5b80821115620001db576000816000905550600101620001c1565b5090565b600081519050620001f081620002c6565b92915050565b6000602082840312156200020f576200020e620002c1565b5b60006200021f84828501620001df565b91505092915050565b600062000235826200023c565b9050919050565b600073ffffffffffffffffffffffffffffffffffffffff82169050919050565b600060028204905060018216806200027557607f821691505b602082108114156200028c576200028b62000292565b5b50919050565b7f4e487b7100000000000000000000000000000000000000000000000000000000600052602260045260246000fd5b600080fd5b620002d18162000228565b8114620002dd57600080fd5b50565b610a8380620002f06000396000f3fe608060405234801561001057600080fd5b506004361061009e5760003560e01c806340c10f191161006657806340c10f191461013957806376809ce31461015557806395d89b4114610173578063d0679d3414610191578063d3aceae2146101ad5761009e565b806306fdde03146100a357806307546172146100c157806318160ddd146100df57806322f4596f146100fd5780633eaaf86b1461011b575b600080fd5b6100ab6101dd565b6040516100b8919061074c565b60405180910390f35b6100c961026b565b6040516100d69190610731565b60405180910390f35b6100e7610291565b6040516100f491906107ce565b60405180910390f35b61010561029b565b60405161011291906107ce565b60405180910390f35b6101236102a1565b60405161013091906107ce565b60405180910390f35b610153600480360381019061014e9190610631565b6102a7565b005b61015d6103fc565b60405161016a91906107ce565b60405180910390f35b61017b610402565b604051610188919061074c565b60405180910390f35b6101ab60048036038101906101a69190610631565b610490565b005b6101c760048036038101906101c29190610604565b6105c2565b6040516101d491906107ce565b60405180910390f35b600080546101ea906108fe565b80601f0160208091040260200160405190810160405280929190818152602001828054610216906108fe565b80156102635780601f1061023857610100808354040283529160200191610263565b820191906000526020600020905b81548152906001019060200180831161024657829003601f168201915b505050505081565b600460009054906101000a900473ffffffffffffffffffffffffffffffffffffffff1681565b6000600654905090565b60035481565b60065481565b600460009054906101000a900473ffffffffffffffffffffffffffffffffffffffff1673ffffffffffffffffffffffffffffffffffffffff163373ffffffffffffffffffffffffffffffffffffffff1614610337576040517f08c379a000000000000000000000000000000000000000000000000000000000815260040161032e9061078e565b60405180910390fd5b600354816006546103489190610805565b1115610389576040517f08c379a00000000000000000000000000000000000000000000000000000000081526004016103809061076e565b60405180910390fd5b806006600082825461039b9190610805565b9250508190555080600560008473ffffffffffffffffffffffffffffffffffffffff1673ffffffffffffffffffffffffffffffffffffffff16815260200190815260200160002060008282546103f19190610805565b925050819055505050565b60025481565b6001805461040f906108fe565b80601f016020809104026020016040519081016040528092919081815260200182805461043b906108fe565b80156104885780601f1061045d57610100808354040283529160200191610488565b820191906000526020600020905b81548152906001019060200180831161046b57829003601f168201915b505050505081565b80600560003373ffffffffffffffffffffffffffffffffffffffff1673ffffffffffffffffffffffffffffffffffffffff168152602001908152602001600020541015610512576040517f08c379a0000000000000000000000000000000000000000000000000000000008152600401610509906107ae565b60405180910390fd5b80600560003373ffffffffffffffffffffffffffffffffffffffff1673ffffffffffffffffffffffffffffffffffffffff1681526020019081526020016000206000828254610561919061085b565b9250508190555080600560008473ffffffffffffffffffffffffffffffffffffffff1673ffffffffffffffffffffffffffffffffffffffff16815260200190815260200160002060008282546105b79190610805565b925050819055505050565b60056020528060005260406000206000915090505481565b6000813590506105e981610a1f565b92915050565b6000813590506105fe81610a36565b92915050565b60006020828403121561061a5761061961098e565b5b6000610628848285016105da565b91505092915050565b600080604083850312156106485761064761098e565b5b6000610656858286016105da565b9250506020610667858286016105ef565b9150509250929050565b61067a8161088f565b82525050565b600061068b826107e9565b61069581856107f4565b93506106a58185602086016108cb565b6106ae81610993565b840191505092915050565b60006106c6600e836107f4565b91506106d1826109a4565b602082019050919050565b60006106e96012836107f4565b91506106f4826109cd565b602082019050919050565b600061070c6012836107f4565b9150610717826109f6565b602082019050919050565b61072b816108c1565b82525050565b60006020820190506107466000830184610671565b92915050565b600060208201905081810360008301526107668184610680565b905092915050565b60006020820190508181036000830152610787816106b9565b9050919050565b600060208201905081810360008301526107a7816106dc565b9050919050565b600060208201905081810360008301526107c7816106ff565b9050919050565b60006020820190506107e36000830184610722565b92915050565b600081519050919050565b600082825260208201905092915050565b6000610810826108c1565b915061081b836108c1565b9250827fffffffffffffffffffffffffffffffffffffffffffffffffffffffffffffffff038211156108505761084f610930565b5b828201905092915050565b6000610866826108c1565b9150610871836108c1565b92508282101561088457610883610930565b5b828203905092915050565b600061089a826108a1565b9050919050565b600073ffffffffffffffffffffffffffffffffffffffff82169050919050565b6000819050919050565b60005b838110156108e95780820151818401526020810190506108ce565b838111156108f8576000848401525b50505050565b6000600282049050600182168061091657607f821691505b6020821081141561092a5761092961095f565b5b50919050565b7f4e487b7100000000000000000000000000000000000000000000000000000000600052601160045260246000fd5b7f4e487b7100000000000000000000000000000000000000000000000000000000600052602260045260246000fd5b600080fd5b6000601f19601f8301169050919050565b7f6f766572206d6178737570706c79000000000000000000000000000000000000600082015250565b7f6e6f74206973206f776e206163636f756e740000000000000000000000000000600082015250565b7f6e6f7420656e6f7567742062616c616e63650000000000000000000000000000600082015250565b610a288161088f565b8114610a3357600080fd5b50565b610a3f816108c1565b8114610a4a57600080fd5b5056fea2646970667358221220fecb887d0dd183c8d32ba5259d939b5e5b4b7d3a19217dad50bc2b83e195391664736f6c63430008070033",
					"opcodes": "PUSH1 0x80 PUSH1 0x40 MSTORE PUSH1 0x40 MLOAD DUP1 PUSH1 0x40 ADD PUSH1 0x40 MSTORE DUP1 PUSH1 0x8 DUP2 MSTORE PUSH1 0x20 ADD PUSH32 0x736F6C6964697479000000000000000000000000000000000000000000000000 DUP2 MSTORE POP PUSH1 0x0 SWAP1 DUP1 MLOAD SWAP1 PUSH1 0x20 ADD SWAP1 PUSH3 0x51 SWAP3 SWAP2 SWAP1 PUSH3 0x12F JUMP JUMPDEST POP PUSH1 0x40 MLOAD DUP1 PUSH1 0x40 ADD PUSH1 0x40 MSTORE DUP1 PUSH1 0x3 DUP2 MSTORE PUSH1 0x20 ADD PUSH32 0x534F4C0000000000000000000000000000000000000000000000000000000000 DUP2 MSTORE POP PUSH1 0x1 SWAP1 DUP1 MLOAD SWAP1 PUSH1 0x20 ADD SWAP1 PUSH3 0x9F SWAP3 SWAP2 SWAP1 PUSH3 0x12F JUMP JUMPDEST POP PUSH1 0x12 PUSH1 0x2 SSTORE PUSH11 0x115EEC47F6CF7E35000000 PUSH1 0x3 SSTORE CALLVALUE DUP1 ISZERO PUSH3 0xC1 JUMPI PUSH1 0x0 DUP1 REVERT JUMPDEST POP PUSH1 0x40 MLOAD PUSH3 0xD73 CODESIZE SUB DUP1 PUSH3 0xD73 DUP4 CODECOPY DUP2 DUP2 ADD PUSH1 0x40 MSTORE DUP2 ADD SWAP1 PUSH3 0xE7 SWAP2 SWAP1 PUSH3 0x1F6 JUMP JUMPDEST DUP1 PUSH1 0x4 PUSH1 0x0 PUSH2 0x100 EXP DUP2 SLOAD DUP2 PUSH20 0xFFFFFFFFFFFFFFFFFFFFFFFFFFFFFFFFFFFFFFFF MUL NOT AND SWAP1 DUP4 PUSH20 0xFFFFFFFFFFFFFFFFFFFFFFFFFFFFFFFFFFFFFFFF AND MUL OR SWAP1 SSTORE POP POP PUSH3 0x2E0 JUMP JUMPDEST DUP3 DUP1 SLOAD PUSH3 0x13D SWAP1 PUSH3 0x25C JUMP JUMPDEST SWAP1 PUSH1 0x0 MSTORE PUSH1 0x20 PUSH1 0x0 KECCAK256 SWAP1 PUSH1 0x1F ADD PUSH1 0x20 SWAP1 DIV DUP2 ADD SWAP3 DUP3 PUSH3 0x161 JUMPI PUSH1 0x0 DUP6 SSTORE PUSH3 0x1AD JUMP JUMPDEST DUP3 PUSH1 0x1F LT PUSH3 0x17C JUMPI DUP1 MLOAD PUSH1 0xFF NOT AND DUP4 DUP1 ADD OR DUP6 SSTORE PUSH3 0x1AD JUMP JUMPDEST DUP3 DUP1 ADD PUSH1 0x1 ADD DUP6 SSTORE DUP3 ISZERO PUSH3 0x1AD JUMPI SWAP2 DUP3 ADD JUMPDEST DUP3 DUP2 GT ISZERO PUSH3 0x1AC JUMPI DUP3 MLOAD DUP3 SSTORE SWAP2 PUSH1 0x20 ADD SWAP2 SWAP1 PUSH1 0x1 ADD SWAP1 PUSH3 0x18F JUMP JUMPDEST JUMPDEST POP SWAP1 POP PUSH3 0x1BC SWAP2 SWAP1 PUSH3 0x1C0 JUMP JUMPDEST POP SWAP1 JUMP JUMPDEST JUMPDEST DUP1 DUP3 GT ISZERO PUSH3 0x1DB JUMPI PUSH1 0x0 DUP2 PUSH1 0x0 SWAP1 SSTORE POP PUSH1 0x1 ADD PUSH3 0x1C1 JUMP JUMPDEST POP SWAP1 JUMP JUMPDEST PUSH1 0x0 DUP2 MLOAD SWAP1 POP PUSH3 0x1F0 DUP2 PUSH3 0x2C6 JUMP JUMPDEST SWAP3 SWAP2 POP POP JUMP JUMPDEST PUSH1 0x0 PUSH1 0x20 DUP3 DUP5 SUB SLT ISZERO PUSH3 0x20F JUMPI PUSH3 0x20E PUSH3 0x2C1 JUMP JUMPDEST JUMPDEST PUSH1 0x0 PUSH3 0x21F DUP5 DUP3 DUP6 ADD PUSH3 0x1DF JUMP JUMPDEST SWAP2 POP POP SWAP3 SWAP2 POP POP JUMP JUMPDEST PUSH1 0x0 PUSH3 0x235 DUP3 PUSH3 0x23C JUMP JUMPDEST SWAP1 POP SWAP2 SWAP1 POP JUMP JUMPDEST PUSH1 0x0 PUSH20 0xFFFFFFFFFFFFFFFFFFFFFFFFFFFFFFFFFFFFFFFF DUP3 AND SWAP1 POP SWAP2 SWAP1 POP JUMP JUMPDEST PUSH1 0x0 PUSH1 0x2 DUP3 DIV SWAP1 POP PUSH1 0x1 DUP3 AND DUP1 PUSH3 0x275 JUMPI PUSH1 0x7F DUP3 AND SWAP2 POP JUMPDEST PUSH1 0x20 DUP3 LT DUP2 EQ ISZERO PUSH3 0x28C JUMPI PUSH3 0x28B PUSH3 0x292 JUMP JUMPDEST JUMPDEST POP SWAP2 SWAP1 POP JUMP JUMPDEST PUSH32 0x4E487B7100000000000000000000000000000000000000000000000000000000 PUSH1 0x0 MSTORE PUSH1 0x22 PUSH1 0x4 MSTORE PUSH1 0x24 PUSH1 0x0 REVERT JUMPDEST PUSH1 0x0 DUP1 REVERT JUMPDEST PUSH3 0x2D1 DUP2 PUSH3 0x228 JUMP JUMPDEST DUP2 EQ PUSH3 0x2DD JUMPI PUSH1 0x0 DUP1 REVERT JUMPDEST POP JUMP JUMPDEST PUSH2 0xA83 DUP1 PUSH3 0x2F0 PUSH1 0x0 CODECOPY PUSH1 0x0 RETURN INVALID PUSH1 0x80 PUSH1 0x40 MSTORE CALLVALUE DUP1 ISZERO PUSH2 0x10 JUMPI PUSH1 0x0 DUP1 REVERT JUMPDEST POP PUSH1 0x4 CALLDATASIZE LT PUSH2 0x9E JUMPI PUSH1 0x0 CALLDATALOAD PUSH1 0xE0 SHR DUP1 PUSH4 0x40C10F19 GT PUSH2 0x66 JUMPI DUP1 PUSH4 0x40C10F19 EQ PUSH2 0x139 JUMPI DUP1 PUSH4 0x76809CE3 EQ PUSH2 0x155 JUMPI DUP1 PUSH4 0x95D89B41 EQ PUSH2 0x173 JUMPI DUP1 PUSH4 0xD0679D34 EQ PUSH2 0x191 JUMPI DUP1 PUSH4 0xD3ACEAE2 EQ PUSH2 0x1AD JUMPI PUSH2 0x9E JUMP JUMPDEST DUP1 PUSH4 0x6FDDE03 EQ PUSH2 0xA3 JUMPI DUP1 PUSH4 0x7546172 EQ PUSH2 0xC1 JUMPI DUP1 PUSH4 0x18160DDD EQ PUSH2 0xDF JUMPI DUP1 PUSH4 0x22F4596F EQ PUSH2 0xFD JUMPI DUP1 PUSH4 0x3EAAF86B EQ PUSH2 0x11B JUMPI JUMPDEST PUSH1 0x0 DUP1 REVERT JUMPDEST PUSH2 0xAB PUSH2 0x1DD JUMP JUMPDEST PUSH1 0x40 MLOAD PUSH2 0xB8 SWAP2 SWAP1 PUSH2 0x74C JUMP JUMPDEST PUSH1 0x40 MLOAD DUP1 SWAP2 SUB SWAP1 RETURN JUMPDEST PUSH2 0xC9 PUSH2 0x26B JUMP JUMPDEST PUSH1 0x40 MLOAD PUSH2 0xD6 SWAP2 SWAP1 PUSH2 0x731 JUMP JUMPDEST PUSH1 0x40 MLOAD DUP1 SWAP2 SUB SWAP1 RETURN JUMPDEST PUSH2 0xE7 PUSH2 0x291 JUMP JUMPDEST PUSH1 0x40 MLOAD PUSH2 0xF4 SWAP2 SWAP1 PUSH2 0x7CE JUMP JUMPDEST PUSH1 0x40 MLOAD DUP1 SWAP2 SUB SWAP1 RETURN JUMPDEST PUSH2 0x105 PUSH2 0x29B JUMP JUMPDEST PUSH1 0x40 MLOAD PUSH2 0x112 SWAP2 SWAP1 PUSH2 0x7CE JUMP JUMPDEST PUSH1 0x40 MLOAD DUP1 SWAP2 SUB SWAP1 RETURN JUMPDEST PUSH2 0x123 PUSH2 0x2A1 JUMP JUMPDEST PUSH1 0x40 MLOAD PUSH2 0x130 SWAP2 SWAP1 PUSH2 0x7CE JUMP JUMPDEST PUSH1 0x40 MLOAD DUP1 SWAP2 SUB SWAP1 RETURN JUMPDEST PUSH2 0x153 PUSH1 0x4 DUP1 CALLDATASIZE SUB DUP2 ADD SWAP1 PUSH2 0x14E SWAP2 SWAP1 PUSH2 0x631 JUMP JUMPDEST PUSH2 0x2A7 JUMP JUMPDEST STOP JUMPDEST PUSH2 0x15D PUSH2 0x3FC JUMP JUMPDEST PUSH1 0x40 MLOAD PUSH2 0x16A SWAP2 SWAP1 PUSH2 0x7CE JUMP JUMPDEST PUSH1 0x40 MLOAD DUP1 SWAP2 SUB SWAP1 RETURN JUMPDEST PUSH2 0x17B PUSH2 0x402 JUMP JUMPDEST PUSH1 0x40 MLOAD PUSH2 0x188 SWAP2 SWAP1 PUSH2 0x74C JUMP JUMPDEST PUSH1 0x40 MLOAD DUP1 SWAP2 SUB SWAP1 RETURN JUMPDEST PUSH2 0x1AB PUSH1 0x4 DUP1 CALLDATASIZE SUB DUP2 ADD SWAP1 PUSH2 0x1A6 SWAP2 SWAP1 PUSH2 0x631 JUMP JUMPDEST PUSH2 0x490 JUMP JUMPDEST STOP JUMPDEST PUSH2 0x1C7 PUSH1 0x4 DUP1 CALLDATASIZE SUB DUP2 ADD SWAP1 PUSH2 0x1C2 SWAP2 SWAP1 PUSH2 0x604 JUMP JUMPDEST PUSH2 0x5C2 JUMP JUMPDEST PUSH1 0x40 MLOAD PUSH2 0x1D4 SWAP2 SWAP1 PUSH2 0x7CE JUMP JUMPDEST PUSH1 0x40 MLOAD DUP1 SWAP2 SUB SWAP1 RETURN JUMPDEST PUSH1 0x0 DUP1 SLOAD PUSH2 0x1EA SWAP1 PUSH2 0x8FE JUMP JUMPDEST DUP1 PUSH1 0x1F ADD PUSH1 0x20 DUP1 SWAP2 DIV MUL PUSH1 0x20 ADD PUSH1 0x40 MLOAD SWAP1 DUP2 ADD PUSH1 0x40 MSTORE DUP1 SWAP3 SWAP2 SWAP1 DUP2 DUP2 MSTORE PUSH1 0x20 ADD DUP3 DUP1 SLOAD PUSH2 0x216 SWAP1 PUSH2 0x8FE JUMP JUMPDEST DUP1 ISZERO PUSH2 0x263 JUMPI DUP1 PUSH1 0x1F LT PUSH2 0x238 JUMPI PUSH2 0x100 DUP1 DUP4 SLOAD DIV MUL DUP4 MSTORE SWAP2 PUSH1 0x20 ADD SWAP2 PUSH2 0x263 JUMP JUMPDEST DUP3 ADD SWAP2 SWAP1 PUSH1 0x0 MSTORE PUSH1 0x20 PUSH1 0x0 KECCAK256 SWAP1 JUMPDEST DUP2 SLOAD DUP2 MSTORE SWAP1 PUSH1 0x1 ADD SWAP1 PUSH1 0x20 ADD DUP1 DUP4 GT PUSH2 0x246 JUMPI DUP3 SWAP1 SUB PUSH1 0x1F AND DUP3 ADD SWAP2 JUMPDEST POP POP POP POP POP DUP2 JUMP JUMPDEST PUSH1 0x4 PUSH1 0x0 SWAP1 SLOAD SWAP1 PUSH2 0x100 EXP SWAP1 DIV PUSH20 0xFFFFFFFFFFFFFFFFFFFFFFFFFFFFFFFFFFFFFFFF AND DUP2 JUMP JUMPDEST PUSH1 0x0 PUSH1 0x6 SLOAD SWAP1 POP SWAP1 JUMP JUMPDEST PUSH1 0x3 SLOAD DUP2 JUMP JUMPDEST PUSH1 0x6 SLOAD DUP2 JUMP JUMPDEST PUSH1 0x4 PUSH1 0x0 SWAP1 SLOAD SWAP1 PUSH2 0x100 EXP SWAP1 DIV PUSH20 0xFFFFFFFFFFFFFFFFFFFFFFFFFFFFFFFFFFFFFFFF AND PUSH20 0xFFFFFFFFFFFFFFFFFFFFFFFFFFFFFFFFFFFFFFFF AND CALLER PUSH20 0xFFFFFFFFFFFFFFFFFFFFFFFFFFFFFFFFFFFFFFFF AND EQ PUSH2 0x337 JUMPI PUSH1 0x40 MLOAD PUSH32 0x8C379A000000000000000000000000000000000000000000000000000000000 DUP2 MSTORE PUSH1 0x4 ADD PUSH2 0x32E SWAP1 PUSH2 0x78E JUMP JUMPDEST PUSH1 0x40 MLOAD DUP1 SWAP2 SUB SWAP1 REVERT JUMPDEST PUSH1 0x3 SLOAD DUP2 PUSH1 0x6 SLOAD PUSH2 0x348 SWAP2 SWAP1 PUSH2 0x805 JUMP JUMPDEST GT ISZERO PUSH2 0x389 JUMPI PUSH1 0x40 MLOAD PUSH32 0x8C379A000000000000000000000000000000000000000000000000000000000 DUP2 MSTORE PUSH1 0x4 ADD PUSH2 0x380 SWAP1 PUSH2 0x76E JUMP JUMPDEST PUSH1 0x40 MLOAD DUP1 SWAP2 SUB SWAP1 REVERT JUMPDEST DUP1 PUSH1 0x6 PUSH1 0x0 DUP3 DUP3 SLOAD PUSH2 0x39B SWAP2 SWAP1 PUSH2 0x805 JUMP JUMPDEST SWAP3 POP POP DUP2 SWAP1 SSTORE POP DUP1 PUSH1 0x5 PUSH1 0x0 DUP5 PUSH20 0xFFFFFFFFFFFFFFFFFFFFFFFFFFFFFFFFFFFFFFFF AND PUSH20 0xFFFFFFFFFFFFFFFFFFFFFFFFFFFFFFFFFFFFFFFF AND DUP2 MSTORE PUSH1 0x20 ADD SWAP1 DUP2 MSTORE PUSH1 0x20 ADD PUSH1 0x0 KECCAK256 PUSH1 0x0 DUP3 DUP3 SLOAD PUSH2 0x3F1 SWAP2 SWAP1 PUSH2 0x805 JUMP JUMPDEST SWAP3 POP POP DUP2 SWAP1 SSTORE POP POP POP JUMP JUMPDEST PUSH1 0x2 SLOAD DUP2 JUMP JUMPDEST PUSH1 0x1 DUP1 SLOAD PUSH2 0x40F SWAP1 PUSH2 0x8FE JUMP JUMPDEST DUP1 PUSH1 0x1F ADD PUSH1 0x20 DUP1 SWAP2 DIV MUL PUSH1 0x20 ADD PUSH1 0x40 MLOAD SWAP1 DUP2 ADD PUSH1 0x40 MSTORE DUP1 SWAP3 SWAP2 SWAP1 DUP2 DUP2 MSTORE PUSH1 0x20 ADD DUP3 DUP1 SLOAD PUSH2 0x43B SWAP1 PUSH2 0x8FE JUMP JUMPDEST DUP1 ISZERO PUSH2 0x488 JUMPI DUP1 PUSH1 0x1F LT PUSH2 0x45D JUMPI PUSH2 0x100 DUP1 DUP4 SLOAD DIV MUL DUP4 MSTORE SWAP2 PUSH1 0x20 ADD SWAP2 PUSH2 0x488 JUMP JUMPDEST DUP3 ADD SWAP2 SWAP1 PUSH1 0x0 MSTORE PUSH1 0x20 PUSH1 0x0 KECCAK256 SWAP1 JUMPDEST DUP2 SLOAD DUP2 MSTORE SWAP1 PUSH1 0x1 ADD SWAP1 PUSH1 0x20 ADD DUP1 DUP4 GT PUSH2 0x46B JUMPI DUP3 SWAP1 SUB PUSH1 0x1F AND DUP3 ADD SWAP2 JUMPDEST POP POP POP POP POP DUP2 JUMP JUMPDEST DUP1 PUSH1 0x5 PUSH1 0x0 CALLER PUSH20 0xFFFFFFFFFFFFFFFFFFFFFFFFFFFFFFFFFFFFFFFF AND PUSH20 0xFFFFFFFFFFFFFFFFFFFFFFFFFFFFFFFFFFFFFFFF AND DUP2 MSTORE PUSH1 0x20 ADD SWAP1 DUP2 MSTORE PUSH1 0x20 ADD PUSH1 0x0 KECCAK256 SLOAD LT ISZERO PUSH2 0x512 JUMPI PUSH1 0x40 MLOAD PUSH32 0x8C379A000000000000000000000000000000000000000000000000000000000 DUP2 MSTORE PUSH1 0x4 ADD PUSH2 0x509 SWAP1 PUSH2 0x7AE JUMP JUMPDEST PUSH1 0x40 MLOAD DUP1 SWAP2 SUB SWAP1 REVERT JUMPDEST DUP1 PUSH1 0x5 PUSH1 0x0 CALLER PUSH20 0xFFFFFFFFFFFFFFFFFFFFFFFFFFFFFFFFFFFFFFFF AND PUSH20 0xFFFFFFFFFFFFFFFFFFFFFFFFFFFFFFFFFFFFFFFF AND DUP2 MSTORE PUSH1 0x20 ADD SWAP1 DUP2 MSTORE PUSH1 0x20 ADD PUSH1 0x0 KECCAK256 PUSH1 0x0 DUP3 DUP3 SLOAD PUSH2 0x561 SWAP2 SWAP1 PUSH2 0x85B JUMP JUMPDEST SWAP3 POP POP DUP2 SWAP1 SSTORE POP DUP1 PUSH1 0x5 PUSH1 0x0 DUP5 PUSH20 0xFFFFFFFFFFFFFFFFFFFFFFFFFFFFFFFFFFFFFFFF AND PUSH20 0xFFFFFFFFFFFFFFFFFFFFFFFFFFFFFFFFFFFFFFFF AND DUP2 MSTORE PUSH1 0x20 ADD SWAP1 DUP2 MSTORE PUSH1 0x20 ADD PUSH1 0x0 KECCAK256 PUSH1 0x0 DUP3 DUP3 SLOAD PUSH2 0x5B7 SWAP2 SWAP1 PUSH2 0x805 JUMP JUMPDEST SWAP3 POP POP DUP2 SWAP1 SSTORE POP POP POP JUMP JUMPDEST PUSH1 0x5 PUSH1 0x20 MSTORE DUP1 PUSH1 0x0 MSTORE PUSH1 0x40 PUSH1 0x0 KECCAK256 PUSH1 0x0 SWAP2 POP SWAP1 POP SLOAD DUP2 JUMP JUMPDEST PUSH1 0x0 DUP2 CALLDATALOAD SWAP1 POP PUSH2 0x5E9 DUP2 PUSH2 0xA1F JUMP JUMPDEST SWAP3 SWAP2 POP POP JUMP JUMPDEST PUSH1 0x0 DUP2 CALLDATALOAD SWAP1 POP PUSH2 0x5FE DUP2 PUSH2 0xA36 JUMP JUMPDEST SWAP3 SWAP2 POP POP JUMP JUMPDEST PUSH1 0x0 PUSH1 0x20 DUP3 DUP5 SUB SLT ISZERO PUSH2 0x61A JUMPI PUSH2 0x619 PUSH2 0x98E JUMP JUMPDEST JUMPDEST PUSH1 0x0 PUSH2 0x628 DUP5 DUP3 DUP6 ADD PUSH2 0x5DA JUMP JUMPDEST SWAP2 POP POP SWAP3 SWAP2 POP POP JUMP JUMPDEST PUSH1 0x0 DUP1 PUSH1 0x40 DUP4 DUP6 SUB SLT ISZERO PUSH2 0x648 JUMPI PUSH2 0x647 PUSH2 0x98E JUMP JUMPDEST JUMPDEST PUSH1 0x0 PUSH2 0x656 DUP6 DUP3 DUP7 ADD PUSH2 0x5DA JUMP JUMPDEST SWAP3 POP POP PUSH1 0x20 PUSH2 0x667 DUP6 DUP3 DUP7 ADD PUSH2 0x5EF JUMP JUMPDEST SWAP2 POP POP SWAP3 POP SWAP3 SWAP1 POP JUMP JUMPDEST PUSH2 0x67A DUP2 PUSH2 0x88F JUMP JUMPDEST DUP3 MSTORE POP POP JUMP JUMPDEST PUSH1 0x0 PUSH2 0x68B DUP3 PUSH2 0x7E9 JUMP JUMPDEST PUSH2 0x695 DUP2 DUP6 PUSH2 0x7F4 JUMP JUMPDEST SWAP4 POP PUSH2 0x6A5 DUP2 DUP6 PUSH1 0x20 DUP7 ADD PUSH2 0x8CB JUMP JUMPDEST PUSH2 0x6AE DUP2 PUSH2 0x993 JUMP JUMPDEST DUP5 ADD SWAP2 POP POP SWAP3 SWAP2 POP POP JUMP JUMPDEST PUSH1 0x0 PUSH2 0x6C6 PUSH1 0xE DUP4 PUSH2 0x7F4 JUMP JUMPDEST SWAP2 POP PUSH2 0x6D1 DUP3 PUSH2 0x9A4 JUMP JUMPDEST PUSH1 0x20 DUP3 ADD SWAP1 POP SWAP2 SWAP1 POP JUMP JUMPDEST PUSH1 0x0 PUSH2 0x6E9 PUSH1 0x12 DUP4 PUSH2 0x7F4 JUMP JUMPDEST SWAP2 POP PUSH2 0x6F4 DUP3 PUSH2 0x9CD JUMP JUMPDEST PUSH1 0x20 DUP3 ADD SWAP1 POP SWAP2 SWAP1 POP JUMP JUMPDEST PUSH1 0x0 PUSH2 0x70C PUSH1 0x12 DUP4 PUSH2 0x7F4 JUMP JUMPDEST SWAP2 POP PUSH2 0x717 DUP3 PUSH2 0x9F6 JUMP JUMPDEST PUSH1 0x20 DUP3 ADD SWAP1 POP SWAP2 SWAP1 POP JUMP JUMPDEST PUSH2 0x72B DUP2 PUSH2 0x8C1 JUMP JUMPDEST DUP3 MSTORE POP POP JUMP JUMPDEST PUSH1 0x0 PUSH1 0x20 DUP3 ADD SWAP1 POP PUSH2 0x746 PUSH1 0x0 DUP4 ADD DUP5 PUSH2 0x671 JUMP JUMPDEST SWAP3 SWAP2 POP POP JUMP JUMPDEST PUSH1 0x0 PUSH1 0x20 DUP3 ADD SWAP1 POP DUP2 DUP2 SUB PUSH1 0x0 DUP4 ADD MSTORE PUSH2 0x766 DUP2 DUP5 PUSH2 0x680 JUMP JUMPDEST SWAP1 POP SWAP3 SWAP2 POP POP JUMP JUMPDEST PUSH1 0x0 PUSH1 0x20 DUP3 ADD SWAP1 POP DUP2 DUP2 SUB PUSH1 0x0 DUP4 ADD MSTORE PUSH2 0x787 DUP2 PUSH2 0x6B9 JUMP JUMPDEST SWAP1 POP SWAP2 SWAP1 POP JUMP JUMPDEST PUSH1 0x0 PUSH1 0x20 DUP3 ADD SWAP1 POP DUP2 DUP2 SUB PUSH1 0x0 DUP4 ADD MSTORE PUSH2 0x7A7 DUP2 PUSH2 0x6DC JUMP JUMPDEST SWAP1 POP SWAP2 SWAP1 POP JUMP JUMPDEST PUSH1 0x0 PUSH1 0x20 DUP3 ADD SWAP1 POP DUP2 DUP2 SUB PUSH1 0x0 DUP4 ADD MSTORE PUSH2 0x7C7 DUP2 PUSH2 0x6FF JUMP JUMPDEST SWAP1 POP SWAP2 SWAP1 POP JUMP JUMPDEST PUSH1 0x0 PUSH1 0x20 DUP3 ADD SWAP1 POP PUSH2 0x7E3 PUSH1 0x0 DUP4 ADD DUP5 PUSH2 0x722 JUMP JUMPDEST SWAP3 SWAP2 POP POP JUMP JUMPDEST PUSH1 0x0 DUP2 MLOAD SWAP1 POP SWAP2 SWAP1 POP JUMP JUMPDEST PUSH1 0x0 DUP3 DUP3 MSTORE PUSH1 0x20 DUP3 ADD SWAP1 POP SWAP3 SWAP2 POP POP JUMP JUMPDEST PUSH1 0x0 PUSH2 0x810 DUP3 PUSH2 0x8C1 JUMP JUMPDEST SWAP2 POP PUSH2 0x81B DUP4 PUSH2 0x8C1 JUMP JUMPDEST SWAP3 POP DUP3 PUSH32 0xFFFFFFFFFFFFFFFFFFFFFFFFFFFFFFFFFFFFFFFFFFFFFFFFFFFFFFFFFFFFFFFF SUB DUP3 GT ISZERO PUSH2 0x850 JUMPI PUSH2 0x84F PUSH2 0x930 JUMP JUMPDEST JUMPDEST DUP3 DUP3 ADD SWAP1 POP SWAP3 SWAP2 POP POP JUMP JUMPDEST PUSH1 0x0 PUSH2 0x866 DUP3 PUSH2 0x8C1 JUMP JUMPDEST SWAP2 POP PUSH2 0x871 DUP4 PUSH2 0x8C1 JUMP JUMPDEST SWAP3 POP DUP3 DUP3 LT ISZERO PUSH2 0x884 JUMPI PUSH2 0x883 PUSH2 0x930 JUMP JUMPDEST JUMPDEST DUP3 DUP3 SUB SWAP1 POP SWAP3 SWAP2 POP POP JUMP JUMPDEST PUSH1 0x0 PUSH2 0x89A DUP3 PUSH2 0x8A1 JUMP JUMPDEST SWAP1 POP SWAP2 SWAP1 POP JUMP JUMPDEST PUSH1 0x0 PUSH20 0xFFFFFFFFFFFFFFFFFFFFFFFFFFFFFFFFFFFFFFFF DUP3 AND SWAP1 POP SWAP2 SWAP1 POP JUMP JUMPDEST PUSH1 0x0 DUP2 SWAP1 POP SWAP2 SWAP1 POP JUMP JUMPDEST PUSH1 0x0 JUMPDEST DUP4 DUP2 LT ISZERO PUSH2 0x8E9 JUMPI DUP1 DUP3 ADD MLOAD DUP2 DUP5 ADD MSTORE PUSH1 0x20 DUP2 ADD SWAP1 POP PUSH2 0x8CE JUMP JUMPDEST DUP4 DUP2 GT ISZERO PUSH2 0x8F8 JUMPI PUSH1 0x0 DUP5 DUP5 ADD MSTORE JUMPDEST POP POP POP POP JUMP JUMPDEST PUSH1 0x0 PUSH1 0x2 DUP3 DIV SWAP1 POP PUSH1 0x1 DUP3 AND DUP1 PUSH2 0x916 JUMPI PUSH1 0x7F DUP3 AND SWAP2 POP JUMPDEST PUSH1 0x20 DUP3 LT DUP2 EQ ISZERO PUSH2 0x92A JUMPI PUSH2 0x929 PUSH2 0x95F JUMP JUMPDEST JUMPDEST POP SWAP2 SWAP1 POP JUMP JUMPDEST PUSH32 0x4E487B7100000000000000000000000000000000000000000000000000000000 PUSH1 0x0 MSTORE PUSH1 0x11 PUSH1 0x4 MSTORE PUSH1 0x24 PUSH1 0x0 REVERT JUMPDEST PUSH32 0x4E487B7100000000000000000000000000000000000000000000000000000000 PUSH1 0x0 MSTORE PUSH1 0x22 PUSH1 0x4 MSTORE PUSH1 0x24 PUSH1 0x0 REVERT JUMPDEST PUSH1 0x0 DUP1 REVERT JUMPDEST PUSH1 0x0 PUSH1 0x1F NOT PUSH1 0x1F DUP4 ADD AND SWAP1 POP SWAP2 SWAP1 POP JUMP JUMPDEST PUSH32 0x6F766572206D6178737570706C79000000000000000000000000000000000000 PUSH1 0x0 DUP3 ADD MSTORE POP JUMP JUMPDEST PUSH32 0x6E6F74206973206F776E206163636F756E740000000000000000000000000000 PUSH1 0x0 DUP3 ADD MSTORE POP JUMP JUMPDEST PUSH32 0x6E6F7420656E6F7567742062616C616E63650000000000000000000000000000 PUSH1 0x0 DUP3 ADD MSTORE POP JUMP JUMPDEST PUSH2 0xA28 DUP2 PUSH2 0x88F JUMP JUMPDEST DUP2 EQ PUSH2 0xA33 JUMPI PUSH1 0x0 DUP1 REVERT JUMPDEST POP JUMP JUMPDEST PUSH2 0xA3F DUP2 PUSH2 0x8C1 JUMP JUMPDEST DUP2 EQ PUSH2 0xA4A JUMPI PUSH1 0x0 DUP1 REVERT JUMPDEST POP JUMP INVALID LOG2 PUSH5 0x6970667358 0x22 SLT KECCAK256 INVALID 0xCB DUP9 PUSH30 0xDD183C8D32BA5259D939B5E5B4B7D3A19217DAD50BC2B83E19539166473 PUSH16 0x6C634300080700330000000000000000 "
				},
				"gasEstimates": {
					"creation": {
						"codeDepositCost": "538200",
						"executionCost": "infinite",
						"totalCost": "infinite"
					},
					"external": {
						"_balance(address)": "2902",
						"_maxSupply()": "2496",
						"_totalSupply()": "2518",
						"decimal()": "2451",
						"mint(address,uint256)": "infinite",
						"minter()": "2537",
						"name()": "infinite",
						"send(address,uint256)": "infinite",
						"symbol()": "infinite",
						"totalSupply()": "2482"
					}
				},
				"methodIdentifiers": {
					"_balance(address)": "d3aceae2",
					"_maxSupply()": "22f4596f",
					"_totalSupply()": "3eaaf86b",
					"decimal()": "76809ce3",
					"mint(address,uint256)": "40c10f19",
					"minter()": "07546172",
					"name()": "06fdde03",
					"send(address,uint256)": "d0679d34",
					"symbol()": "95d89b41",
					"totalSupply()": "18160ddd"
				}
			},
			"storageLayout": {
				"storage": [
					{
						"astId": 4,
						"contract": "Token.sol:Token",
						"label": "name",
						"offset": 0,
						"slot": "0",
						"type": "t_string_storage"
					},
					{
						"astId": 7,
						"contract": "Token.sol:Token",
						"label": "symbol",
						"offset": 0,
						"slot": "1",
						"type": "t_string_storage"
					},
					{
						"astId": 10,
						"contract": "Token.sol:Token",
						"label": "decimal",
						"offset": 0,
						"slot": "2",
						"type": "t_uint256"
					},
					{
						"astId": 17,
						"contract": "Token.sol:Token",
						"label": "_maxSupply",
						"offset": 0,
						"slot": "3",
						"type": "t_uint256"
					},
					{
						"astId": 19,
						"contract": "Token.sol:Token",
						"label": "minter",
						"offset": 0,
						"slot": "4",
						"type": "t_address"
					},
					{
						"astId": 23,
						"contract": "Token.sol:Token",
						"label": "_balance",
						"offset": 0,
						"slot": "5",
						"type": "t_mapping(t_address,t_uint256)"
					},
					{
						"astId": 25,
						"contract": "Token.sol:Token",
						"label": "_totalSupply",
						"offset": 0,
						"slot": "6",
						"type": "t_uint256"
					}
				],
				"types": {
					"t_address": {
						"encoding": "inplace",
						"label": "address",
						"numberOfBytes": "20"
					},
					"t_mapping(t_address,t_uint256)": {
						"encoding": "mapping",
						"key": "t_address",
						"label": "mapping(address => uint256)",
						"numberOfBytes": "32",
						"value": "t_uint256"
					},
					"t_string_storage": {
						"encoding": "bytes",
						"label": "string",
						"numberOfBytes": "32"
					},
					"t_uint256": {
						"encoding": "inplace",
						"label": "uint256",
						"numberOfBytes": "32"
					}
				}
			},
			"userdoc": {
				"kind": "user",
				"methods": {},
				"version": 1
			}
		}
	}
}