{
	"datetime.sol": {
		"DateTime": {
			"abi": [
				{
					"inputs": [
						{
							"internalType": "uint256",
							"name": "timestamp",
							"type": "uint256"
						}
					],
					"name": "getDay",
					"outputs": [
						{
							"internalType": "uint8",
							"name": "",
							"type": "uint8"
						}
					],
					"stateMutability": "pure",
					"type": "function"
				},
				{
					"inputs": [
						{
							"internalType": "uint8",
							"name": "month",
							"type": "uint8"
						},
						{
							"internalType": "uint16",
							"name": "year",
							"type": "uint16"
						}
					],
					"name": "getDaysInMonth",
					"outputs": [
						{
							"internalType": "uint8",
							"name": "",
							"type": "uint8"
						}
					],
					"stateMutability": "pure",
					"type": "function"
				},
				{
					"inputs": [
						{
							"internalType": "uint256",
							"name": "timestamp",
							"type": "uint256"
						}
					],
					"name": "getHour",
					"outputs": [
						{
							"internalType": "uint8",
							"name": "",
							"type": "uint8"
						}
					],
					"stateMutability": "pure",
					"type": "function"
				},
				{
					"inputs": [
						{
							"internalType": "uint256",
							"name": "timestamp",
							"type": "uint256"
						}
					],
					"name": "getMinute",
					"outputs": [
						{
							"internalType": "uint8",
							"name": "",
							"type": "uint8"
						}
					],
					"stateMutability": "pure",
					"type": "function"
				},
				{
					"inputs": [
						{
							"internalType": "uint256",
							"name": "timestamp",
							"type": "uint256"
						}
					],
					"name": "getMonth",
					"outputs": [
						{
							"internalType": "uint8",
							"name": "",
							"type": "uint8"
						}
					],
					"stateMutability": "pure",
					"type": "function"
				},
				{
					"inputs": [
						{
							"internalType": "uint256",
							"name": "timestamp",
							"type": "uint256"
						}
					],
					"name": "getSecond",
					"outputs": [
						{
							"internalType": "uint8",
							"name": "",
							"type": "uint8"
						}
					],
					"stateMutability": "pure",
					"type": "function"
				},
				{
					"inputs": [
						{
							"internalType": "uint256",
							"name": "timestamp",
							"type": "uint256"
						}
					],
					"name": "getWeekday",
					"outputs": [
						{
							"internalType": "uint8",
							"name": "",
							"type": "uint8"
						}
					],
					"stateMutability": "pure",
					"type": "function"
				},
				{
					"inputs": [
						{
							"internalType": "uint256",
							"name": "timestamp",
							"type": "uint256"
						}
					],
					"name": "getYear",
					"outputs": [
						{
							"internalType": "uint16",
							"name": "",
							"type": "uint16"
						}
					],
					"stateMutability": "pure",
					"type": "function"
				},
				{
					"inputs": [
						{
							"internalType": "uint16",
							"name": "year",
							"type": "uint16"
						}
					],
					"name": "isLeapYear",
					"outputs": [
						{
							"internalType": "bool",
							"name": "",
							"type": "bool"
						}
					],
					"stateMutability": "pure",
					"type": "function"
				},
				{
					"inputs": [
						{
							"internalType": "uint256",
							"name": "year",
							"type": "uint256"
						}
					],
					"name": "leapYearsBefore",
					"outputs": [
						{
							"internalType": "uint256",
							"name": "",
							"type": "uint256"
						}
					],
					"stateMutability": "pure",
					"type": "function"
				},
				{
					"inputs": [
						{
							"internalType": "uint16",
							"name": "year",
							"type": "uint16"
						},
						{
							"internalType": "uint8",
							"name": "month",
							"type": "uint8"
						},
						{
							"internalType": "uint8",
							"name": "day",
							"type": "uint8"
						},
						{
							"internalType": "uint8",
							"name": "hour",
							"type": "uint8"
						},
						{
							"internalType": "uint8",
							"name": "minute",
							"type": "uint8"
						}
					],
					"name": "toTimestamp",
					"outputs": [
						{
							"internalType": "uint256",
							"name": "timestamp",
							"type": "uint256"
						}
					],
					"stateMutability": "pure",
					"type": "function"
				},
				{
					"inputs": [
						{
							"internalType": "uint16",
							"name": "year",
							"type": "uint16"
						},
						{
							"internalType": "uint8",
							"name": "month",
							"type": "uint8"
						},
						{
							"internalType": "uint8",
							"name": "day",
							"type": "uint8"
						},
						{
							"internalType": "uint8",
							"name": "hour",
							"type": "uint8"
						}
					],
					"name": "toTimestamp",
					"outputs": [
						{
							"internalType": "uint256",
							"name": "timestamp",
							"type": "uint256"
						}
					],
					"stateMutability": "pure",
					"type": "function"
				},
				{
					"inputs": [
						{
							"internalType": "uint16",
							"name": "year",
							"type": "uint16"
						},
						{
							"internalType": "uint8",
							"name": "month",
							"type": "uint8"
						},
						{
							"internalType": "uint8",
							"name": "day",
							"type": "uint8"
						}
					],
					"name": "toTimestamp",
					"outputs": [
						{
							"internalType": "uint256",
							"name": "timestamp",
							"type": "uint256"
						}
					],
					"stateMutability": "pure",
					"type": "function"
				},
				{
					"inputs": [
						{
							"internalType": "uint16",
							"name": "year",
							"type": "uint16"
						},
						{
							"internalType": "uint8",
							"name": "month",
							"type": "uint8"
						},
						{
							"internalType": "uint8",
							"name": "day",
							"type": "uint8"
						},
						{
							"internalType": "uint8",
							"name": "hour",
							"type": "uint8"
						},
						{
							"internalType": "uint8",
							"name": "minute",
							"type": "uint8"
						},
						{
							"internalType": "uint8",
							"name": "second",
							"type": "uint8"
						}
					],
					"name": "toTimestamp",
					"outputs": [
						{
							"internalType": "uint256",
							"name": "timestamp",
							"type": "uint256"
						}
					],
					"stateMutability": "pure",
					"type": "function"
				}
			],
			"devdoc": {
				"kind": "dev",
				"methods": {},
				"version": 1
			},
			"evm": {
				"assembly": "    /* \"datetime.sol\":65:7856  contract DateTime {\r... */\n  mstore(0x40, 0x80)\n  callvalue\n  dup1\n  iszero\n  tag_1\n  jumpi\n  0x00\n  dup1\n  revert\ntag_1:\n  pop\n  dataSize(sub_0)\n  dup1\n  dataOffset(sub_0)\n  0x00\n  codecopy\n  0x00\n  return\nstop\n\nsub_0: assembly {\n        /* \"datetime.sol\":65:7856  contract DateTime {\r... */\n      mstore(0x40, 0x80)\n      callvalue\n      dup1\n      iszero\n      tag_1\n      jumpi\n      0x00\n      dup1\n      revert\n    tag_1:\n      pop\n      jumpi(tag_2, lt(calldatasize, 0x04))\n      shr(0xe0, calldataload(0x00))\n      dup1\n      0x9054bdec\n      gt\n      tag_17\n      jumpi\n      dup1\n      0xa6f0e577\n      gt\n      tag_18\n      jumpi\n      dup1\n      0xa6f0e577\n      eq\n      tag_13\n      jumpi\n      dup1\n      0xb1999937\n      eq\n      tag_14\n      jumpi\n      dup1\n      0xb238ad0e\n      eq\n      tag_15\n      jumpi\n      dup1\n      0xfa93f883\n      eq\n      tag_16\n      jumpi\n      jump(tag_2)\n    tag_18:\n      dup1\n      0x9054bdec\n      eq\n      tag_10\n      jumpi\n      dup1\n      0x92d66313\n      eq\n      tag_11\n      jumpi\n      dup1\n      0xa324ad24\n      eq\n      tag_12\n      jumpi\n      jump(tag_2)\n    tag_17:\n      dup1\n      0x65c72840\n      gt\n      tag_19\n      jumpi\n      dup1\n      0x65c72840\n      eq\n      tag_6\n      jumpi\n      dup1\n      0x7f791833\n      eq\n      tag_7\n      jumpi\n      dup1\n      0x8aa001fc\n      eq\n      tag_8\n      jumpi\n      dup1\n      0x8c8d98a0\n      eq\n      tag_9\n      jumpi\n      jump(tag_2)\n    tag_19:\n      dup1\n      0x3e239e1a\n      eq\n      tag_3\n      jumpi\n      dup1\n      0x4ac1ad78\n      eq\n      tag_4\n      jumpi\n      dup1\n      0x62ba9687\n      eq\n      tag_5\n      jumpi\n    tag_2:\n      0x00\n      dup1\n      revert\n        /* \"datetime.sol\":4902:5034  function getHour(uint timestamp) public pure returns (uint8) {\r... */\n    tag_3:\n      tag_20\n      0x04\n      dup1\n      calldatasize\n      sub\n      dup2\n      add\n      swap1\n      tag_21\n      swap2\n      swap1\n      tag_22\n      jump\t// in\n    tag_21:\n      tag_23\n      jump\t// in\n    tag_20:\n      mload(0x40)\n      tag_24\n      swap2\n      swap1\n      tag_25\n      jump\t// in\n    tag_24:\n      mload(0x40)\n      dup1\n      swap2\n      sub\n      swap1\n      return\n        /* \"datetime.sol\":5321:5466  function getWeekday(uint timestamp) public pure returns (uint8) {\r... */\n    tag_4:\n      tag_26\n      0x04\n      dup1\n      calldatasize\n      sub\n      dup2\n      add\n      swap1\n      tag_27\n      swap2\n      swap1\n      tag_22\n      jump\t// in\n    tag_27:\n      tag_28\n      jump\t// in\n    tag_26:\n      mload(0x40)\n      tag_29\n      swap2\n      swap1\n      tag_25\n      jump\t// in\n    tag_29:\n      mload(0x40)\n      dup1\n      swap2\n      sub\n      swap1\n      return\n        /* \"datetime.sol\":5859:6064  function toTimestamp(uint16 year, uint8 month, uint8 day, uint8 hour, uint8 minute) public pure returns (uint timestamp) {\r... */\n    tag_5:\n      tag_30\n      0x04\n      dup1\n      calldatasize\n      sub\n      dup2\n      add\n      swap1\n      tag_31\n      swap2\n      swap1\n      tag_32\n      jump\t// in\n    tag_31:\n      tag_33\n      jump\t// in\n    tag_30:\n      mload(0x40)\n      tag_34\n      swap2\n      swap1\n      tag_35\n      jump\t// in\n    tag_34:\n      mload(0x40)\n      dup1\n      swap2\n      sub\n      swap1\n      return\n        /* \"datetime.sol\":4763:4890  function getDay(uint timestamp) public pure returns (uint8) {\r... */\n    tag_6:\n      tag_36\n      0x04\n      dup1\n      calldatasize\n      sub\n      dup2\n      add\n      swap1\n      tag_37\n      swap2\n      swap1\n      tag_22\n      jump\t// in\n    tag_37:\n      tag_38\n      jump\t// in\n    tag_36:\n      mload(0x40)\n      tag_39\n      swap2\n      swap1\n      tag_25\n      jump\t// in\n    tag_39:\n      mload(0x40)\n      dup1\n      swap2\n      sub\n      swap1\n      return\n        /* \"datetime.sol\":5661:5847  function toTimestamp(uint16 year, uint8 month, uint8 day, uint8 hour) public pure returns (uint timestamp) {\r... */\n    tag_7:\n      tag_40\n      0x04\n      dup1\n      calldatasize\n      sub\n      dup2\n      add\n      swap1\n      tag_41\n      swap2\n      swap1\n      tag_42\n      jump\t// in\n    tag_41:\n      tag_43\n      jump\t// in\n    tag_40:\n      mload(0x40)\n      tag_44\n      swap2\n      swap1\n      tag_35\n      jump\t// in\n    tag_44:\n      mload(0x40)\n      dup1\n      swap2\n      sub\n      swap1\n      return\n        /* \"datetime.sol\":5187:5309  function getSecond(uint timestamp) public pure returns (uint8) {\r... */\n    tag_8:\n      tag_45\n      0x04\n      dup1\n      calldatasize\n      sub\n      dup2\n      add\n      swap1\n      tag_46\n      swap2\n      swap1\n      tag_22\n      jump\t// in\n    tag_46:\n      tag_47\n      jump\t// in\n    tag_45:\n      mload(0x40)\n      tag_48\n      swap2\n      swap1\n      tag_25\n      jump\t// in\n    tag_48:\n      mload(0x40)\n      dup1\n      swap2\n      sub\n      swap1\n      return\n        /* \"datetime.sol\":5478:5649  function toTimestamp(uint16 year, uint8 month, uint8 day) public pure returns (uint timestamp) {\r... */\n    tag_9:\n      tag_49\n      0x04\n      dup1\n      calldatasize\n      sub\n      dup2\n      add\n      swap1\n      tag_50\n      swap2\n      swap1\n      tag_51\n      jump\t// in\n    tag_50:\n      tag_52\n      jump\t// in\n    tag_49:\n      mload(0x40)\n      tag_53\n      swap2\n      swap1\n      tag_35\n      jump\t// in\n    tag_53:\n      mload(0x40)\n      dup1\n      swap2\n      sub\n      swap1\n      return\n        /* \"datetime.sol\":6076:7853  function toTimestamp(uint16 year, uint8 month, uint8 day, uint8 hour, uint8 minute, uint8 second) public pure returns (uint timestamp) {\r... */\n    tag_10:\n      tag_54\n      0x04\n      dup1\n      calldatasize\n      sub\n      dup2\n      add\n      swap1\n      tag_55\n      swap2\n      swap1\n      tag_56\n      jump\t// in\n    tag_55:\n      tag_57\n      jump\t// in\n    tag_54:\n      mload(0x40)\n      tag_58\n      swap2\n      swap1\n      tag_35\n      jump\t// in\n    tag_58:\n      mload(0x40)\n      dup1\n      swap2\n      sub\n      swap1\n      return\n        /* \"datetime.sol\":3615:4608  function getYear(uint timestamp) public pure returns (uint16) {\r... */\n    tag_11:\n      tag_59\n      0x04\n      dup1\n      calldatasize\n      sub\n      dup2\n      add\n      swap1\n      tag_60\n      swap2\n      swap1\n      tag_22\n      jump\t// in\n    tag_60:\n      tag_61\n      jump\t// in\n    tag_59:\n      mload(0x40)\n      tag_62\n      swap2\n      swap1\n      tag_63\n      jump\t// in\n    tag_62:\n      mload(0x40)\n      dup1\n      swap2\n      sub\n      swap1\n      return\n        /* \"datetime.sol\":4620:4751  function getMonth(uint timestamp) public pure returns (uint8) {\r... */\n    tag_12:\n      tag_64\n      0x04\n      dup1\n      calldatasize\n      sub\n      dup2\n      add\n      swap1\n      tag_65\n      swap2\n      swap1\n      tag_22\n      jump\t// in\n    tag_65:\n      tag_66\n      jump\t// in\n    tag_64:\n      mload(0x40)\n      tag_67\n      swap2\n      swap1\n      tag_25\n      jump\t// in\n    tag_67:\n      mload(0x40)\n      dup1\n      swap2\n      sub\n      swap1\n      return\n        /* \"datetime.sol\":742:1135  function isLeapYear(uint16 year) public pure returns (bool) {\r... */\n    tag_13:\n      tag_68\n      0x04\n      dup1\n      calldatasize\n      sub\n      dup2\n      add\n      swap1\n      tag_69\n      swap2\n      swap1\n      tag_70\n      jump\t// in\n    tag_69:\n      tag_71\n      jump\t// in\n    tag_68:\n      mload(0x40)\n      tag_72\n      swap2\n      swap1\n      tag_73\n      jump\t// in\n    tag_72:\n      mload(0x40)\n      dup1\n      swap2\n      sub\n      swap1\n      return\n        /* \"datetime.sol\":1147:1310  function leapYearsBefore(uint year) public pure returns (uint) {\r... */\n    tag_14:\n      tag_74\n      0x04\n      dup1\n      calldatasize\n      sub\n      dup2\n      add\n      swap1\n      tag_75\n      swap2\n      swap1\n      tag_22\n      jump\t// in\n    tag_75:\n      tag_76\n      jump\t// in\n    tag_74:\n      mload(0x40)\n      tag_77\n      swap2\n      swap1\n      tag_35\n      jump\t// in\n    tag_77:\n      mload(0x40)\n      dup1\n      swap2\n      sub\n      swap1\n      return\n        /* \"datetime.sol\":1322:1906  function getDaysInMonth(uint8 month, uint16 year) public pure returns (uint8) {\r... */\n    tag_15:\n      tag_78\n      0x04\n      dup1\n      calldatasize\n      sub\n      dup2\n      add\n      swap1\n      tag_79\n      swap2\n      swap1\n      tag_80\n      jump\t// in\n    tag_79:\n      tag_81\n      jump\t// in\n    tag_78:\n      mload(0x40)\n      tag_82\n      swap2\n      swap1\n      tag_25\n      jump\t// in\n    tag_82:\n      mload(0x40)\n      dup1\n      swap2\n      sub\n      swap1\n      return\n        /* \"datetime.sol\":5046:5175  function getMinute(uint timestamp) public pure returns (uint8) {\r... */\n    tag_16:\n      tag_83\n      0x04\n      dup1\n      calldatasize\n      sub\n      dup2\n      add\n      swap1\n      tag_84\n      swap2\n      swap1\n      tag_22\n      jump\t// in\n    tag_84:\n      tag_85\n      jump\t// in\n    tag_83:\n      mload(0x40)\n      tag_86\n      swap2\n      swap1\n      tag_25\n      jump\t// in\n    tag_86:\n      mload(0x40)\n      dup1\n      swap2\n      sub\n      swap1\n      return\n        /* \"datetime.sol\":4902:5034  function getHour(uint timestamp) public pure returns (uint8) {\r... */\n    tag_23:\n        /* \"datetime.sol\":4956:4961  uint8 */\n      0x00\n        /* \"datetime.sol\":5019:5021  24 */\n      0x18\n        /* \"datetime.sol\":5013:5015  60 */\n      0x3c\n        /* \"datetime.sol\":5008:5010  60 */\n      dup1\n        /* \"datetime.sol\":4996:5005  timestamp */\n      dup5\n        /* \"datetime.sol\":4996:5010  timestamp / 60 */\n      tag_88\n      swap2\n      swap1\n      tag_89\n      jump\t// in\n    tag_88:\n        /* \"datetime.sol\":4996:5015  timestamp / 60 / 60 */\n      tag_90\n      swap2\n      swap1\n      tag_89\n      jump\t// in\n    tag_90:\n        /* \"datetime.sol\":4995:5021  (timestamp / 60 / 60) % 24 */\n      tag_91\n      swap2\n      swap1\n      tag_92\n      jump\t// in\n    tag_91:\n        /* \"datetime.sol\":4982:5022  return uint8((timestamp / 60 / 60) % 24) */\n      swap1\n      pop\n        /* \"datetime.sol\":4902:5034  function getHour(uint timestamp) public pure returns (uint8) {\r... */\n      swap2\n      swap1\n      pop\n      jump\t// out\n        /* \"datetime.sol\":5321:5466  function getWeekday(uint timestamp) public pure returns (uint8) {\r... */\n    tag_28:\n        /* \"datetime.sol\":5378:5383  uint8 */\n      0x00\n        /* \"datetime.sol\":5452:5453  7 */\n      0x07\n        /* \"datetime.sol\":5447:5448  4 */\n      0x04\n        /* \"datetime.sol\":474:479  86400 */\n      0x015180\n        /* \"datetime.sol\":5418:5427  timestamp */\n      dup5\n        /* \"datetime.sol\":5418:5444  timestamp / DAY_IN_SECONDS */\n      tag_94\n      swap2\n      swap1\n      tag_89\n      jump\t// in\n    tag_94:\n        /* \"datetime.sol\":5418:5448  timestamp / DAY_IN_SECONDS + 4 */\n      tag_95\n      swap2\n      swap1\n      tag_96\n      jump\t// in\n    tag_95:\n        /* \"datetime.sol\":5417:5453  (timestamp / DAY_IN_SECONDS + 4) % 7 */\n      tag_97\n      swap2\n      swap1\n      tag_92\n      jump\t// in\n    tag_97:\n        /* \"datetime.sol\":5404:5454  return uint8((timestamp / DAY_IN_SECONDS + 4) % 7) */\n      swap1\n      pop\n        /* \"datetime.sol\":5321:5466  function getWeekday(uint timestamp) public pure returns (uint8) {\r... */\n      swap2\n      swap1\n      pop\n      jump\t// out\n        /* \"datetime.sol\":5859:6064  function toTimestamp(uint16 year, uint8 month, uint8 day, uint8 hour, uint8 minute) public pure returns (uint timestamp) {\r... */\n    tag_33:\n        /* \"datetime.sol\":5964:5978  uint timestamp */\n      0x00\n        /* \"datetime.sol\":6006:6052  toTimestamp(year, month, day, hour, minute, 0) */\n      tag_99\n        /* \"datetime.sol\":6018:6022  year */\n      dup7\n        /* \"datetime.sol\":6024:6029  month */\n      dup7\n        /* \"datetime.sol\":6031:6034  day */\n      dup7\n        /* \"datetime.sol\":6036:6040  hour */\n      dup7\n        /* \"datetime.sol\":6042:6048  minute */\n      dup7\n        /* \"datetime.sol\":6050:6051  0 */\n      0x00\n        /* \"datetime.sol\":6006:6017  toTimestamp */\n      tag_57\n        /* \"datetime.sol\":6006:6052  toTimestamp(year, month, day, hour, minute, 0) */\n      jump\t// in\n    tag_99:\n        /* \"datetime.sol\":5999:6052  return toTimestamp(year, month, day, hour, minute, 0) */\n      swap1\n      pop\n        /* \"datetime.sol\":5859:6064  function toTimestamp(uint16 year, uint8 month, uint8 day, uint8 hour, uint8 minute) public pure returns (uint timestamp) {\r... */\n      swap6\n      swap5\n      pop\n      pop\n      pop\n      pop\n      pop\n      jump\t// out\n        /* \"datetime.sol\":4763:4890  function getDay(uint timestamp) public pure returns (uint8) {\r... */\n    tag_38:\n        /* \"datetime.sol\":4816:4821  uint8 */\n      0x00\n        /* \"datetime.sol\":4849:4874  parseTimestamp(timestamp) */\n      tag_101\n        /* \"datetime.sol\":4864:4873  timestamp */\n      dup3\n        /* \"datetime.sol\":4849:4863  parseTimestamp */\n      tag_102\n        /* \"datetime.sol\":4849:4874  parseTimestamp(timestamp) */\n      jump\t// in\n    tag_101:\n        /* \"datetime.sol\":4849:4878  parseTimestamp(timestamp).day */\n      0x40\n      add\n      mload\n        /* \"datetime.sol\":4842:4878  return parseTimestamp(timestamp).day */\n      swap1\n      pop\n        /* \"datetime.sol\":4763:4890  function getDay(uint timestamp) public pure returns (uint8) {\r... */\n      swap2\n      swap1\n      pop\n      jump\t// out\n        /* \"datetime.sol\":5661:5847  function toTimestamp(uint16 year, uint8 month, uint8 day, uint8 hour) public pure returns (uint timestamp) {\r... */\n    tag_43:\n        /* \"datetime.sol\":5752:5766  uint timestamp */\n      0x00\n        /* \"datetime.sol\":5794:5835  toTimestamp(year, month, day, hour, 0, 0) */\n      tag_104\n        /* \"datetime.sol\":5806:5810  year */\n      dup6\n        /* \"datetime.sol\":5812:5817  month */\n      dup6\n        /* \"datetime.sol\":5819:5822  day */\n      dup6\n        /* \"datetime.sol\":5824:5828  hour */\n      dup6\n        /* \"datetime.sol\":5830:5831  0 */\n      0x00\n        /* \"datetime.sol\":5833:5834  0 */\n      dup1\n        /* \"datetime.sol\":5794:5805  toTimestamp */\n      tag_57\n        /* \"datetime.sol\":5794:5835  toTimestamp(year, month, day, hour, 0, 0) */\n      jump\t// in\n    tag_104:\n        /* \"datetime.sol\":5787:5835  return toTimestamp(year, month, day, hour, 0, 0) */\n      swap1\n      pop\n        /* \"datetime.sol\":5661:5847  function toTimestamp(uint16 year, uint8 month, uint8 day, uint8 hour) public pure returns (uint timestamp) {\r... */\n      swap5\n      swap4\n      pop\n      pop\n      pop\n      pop\n      jump\t// out\n        /* \"datetime.sol\":5187:5309  function getSecond(uint timestamp) public pure returns (uint8) {\r... */\n    tag_47:\n        /* \"datetime.sol\":5243:5248  uint8 */\n      0x00\n        /* \"datetime.sol\":5294:5296  60 */\n      0x3c\n        /* \"datetime.sol\":5282:5291  timestamp */\n      dup3\n        /* \"datetime.sol\":5282:5296  timestamp % 60 */\n      tag_106\n      swap2\n      swap1\n      tag_92\n      jump\t// in\n    tag_106:\n        /* \"datetime.sol\":5269:5297  return uint8(timestamp % 60) */\n      swap1\n      pop\n        /* \"datetime.sol\":5187:5309  function getSecond(uint timestamp) public pure returns (uint8) {\r... */\n      swap2\n      swap1\n      pop\n      jump\t// out\n        /* \"datetime.sol\":5478:5649  function toTimestamp(uint16 year, uint8 month, uint8 day) public pure returns (uint timestamp) {\r... */\n    tag_52:\n        /* \"datetime.sol\":5557:5571  uint timestamp */\n      0x00\n        /* \"datetime.sol\":5599:5637  toTimestamp(year, month, day, 0, 0, 0) */\n      tag_108\n        /* \"datetime.sol\":5611:5615  year */\n      dup5\n        /* \"datetime.sol\":5617:5622  month */\n      dup5\n        /* \"datetime.sol\":5624:5627  day */\n      dup5\n        /* \"datetime.sol\":5629:5630  0 */\n      0x00\n        /* \"datetime.sol\":5632:5633  0 */\n      dup1\n        /* \"datetime.sol\":5635:5636  0 */\n      0x00\n        /* \"datetime.sol\":5599:5610  toTimestamp */\n      tag_57\n        /* \"datetime.sol\":5599:5637  toTimestamp(year, month, day, 0, 0, 0) */\n      jump\t// in\n    tag_108:\n        /* \"datetime.sol\":5592:5637  return toTimestamp(year, month, day, 0, 0, 0) */\n      swap1\n      pop\n        /* \"datetime.sol\":5478:5649  function toTimestamp(uint16 year, uint8 month, uint8 day) public pure returns (uint timestamp) {\r... */\n      swap4\n      swap3\n      pop\n      pop\n      pop\n      jump\t// out\n        /* \"datetime.sol\":6076:7853  function toTimestamp(uint16 year, uint8 month, uint8 day, uint8 hour, uint8 minute, uint8 second) public pure returns (uint timestamp) {\r... */\n    tag_57:\n        /* \"datetime.sol\":6195:6209  uint timestamp */\n      0x00\n        /* \"datetime.sol\":6230:6238  uint16 i */\n      dup1\n        /* \"datetime.sol\":725:729  1970 */\n      0x07b2\n        /* \"datetime.sol\":6289:6304  i = ORIGIN_YEAR */\n      swap1\n      pop\n        /* \"datetime.sol\":6284:6604  for (i = ORIGIN_YEAR; i < year; i++) {\r... */\n    tag_110:\n        /* \"datetime.sol\":6310:6314  year */\n      dup8\n        /* \"datetime.sol\":6306:6314  i < year */\n      0xffff\n      and\n        /* \"datetime.sol\":6306:6307  i */\n      dup2\n        /* \"datetime.sol\":6306:6314  i < year */\n      0xffff\n      and\n      lt\n        /* \"datetime.sol\":6284:6604  for (i = ORIGIN_YEAR; i < year; i++) {\r... */\n      iszero\n      tag_111\n      jumpi\n        /* \"datetime.sol\":6352:6365  isLeapYear(i) */\n      tag_113\n        /* \"datetime.sol\":6363:6364  i */\n      dup2\n        /* \"datetime.sol\":6352:6362  isLeapYear */\n      tag_71\n        /* \"datetime.sol\":6352:6365  isLeapYear(i) */\n      jump\t// in\n    tag_113:\n        /* \"datetime.sol\":6348:6585  if (isLeapYear(i)) {\r... */\n      iszero\n      tag_114\n      jumpi\n        /* \"datetime.sol\":578:586  31622400 */\n      0x01e28500\n        /* \"datetime.sol\":6402:6435  timestamp += LEAP_YEAR_IN_SECONDS */\n      dup3\n      tag_115\n      swap2\n      swap1\n      tag_96\n      jump\t// in\n    tag_115:\n      swap2\n      pop\n        /* \"datetime.sol\":6348:6585  if (isLeapYear(i)) {\r... */\n      jump(tag_116)\n    tag_114:\n        /* \"datetime.sol\":522:530  31536000 */\n      0x01e13380\n        /* \"datetime.sol\":6529:6557  timestamp += YEAR_IN_SECONDS */\n      dup3\n      tag_117\n      swap2\n      swap1\n      tag_96\n      jump\t// in\n    tag_117:\n      swap2\n      pop\n        /* \"datetime.sol\":6348:6585  if (isLeapYear(i)) {\r... */\n    tag_116:\n        /* \"datetime.sol\":6316:6319  i++ */\n      dup1\n      dup1\n      tag_118\n      swap1\n      tag_119\n      jump\t// in\n    tag_118:\n      swap2\n      pop\n      pop\n        /* \"datetime.sol\":6284:6604  for (i = ORIGIN_YEAR; i < year; i++) {\r... */\n      jump(tag_110)\n    tag_111:\n        /* \"datetime.sol\":6650:6681  uint8[12] memory monthDayCounts */\n      tag_120\n      tag_121\n      jump\t// in\n    tag_120:\n        /* \"datetime.sol\":6720:6722  31 */\n      0x1f\n        /* \"datetime.sol\":6700:6714  monthDayCounts */\n      dup2\n        /* \"datetime.sol\":6715:6716  0 */\n      0x00\n        /* \"datetime.sol\":6700:6717  monthDayCounts[0] */\n      0x0c\n      dup2\n      lt\n      tag_122\n      jumpi\n      tag_123\n      tag_124\n      jump\t// in\n    tag_123:\n    tag_122:\n      0x20\n      mul\n      add\n        /* \"datetime.sol\":6700:6722  monthDayCounts[0] = 31 */\n      swap1\n      0xff\n      and\n      swap1\n      dup2\n      0xff\n      and\n      dup2\n      mstore\n      pop\n      pop\n        /* \"datetime.sol\":6745:6761  isLeapYear(year) */\n      tag_125\n        /* \"datetime.sol\":6756:6760  year */\n      dup10\n        /* \"datetime.sol\":6745:6755  isLeapYear */\n      tag_71\n        /* \"datetime.sol\":6745:6761  isLeapYear(year) */\n      jump\t// in\n    tag_125:\n        /* \"datetime.sol\":6741:6924  if (isLeapYear(year)) {\r... */\n      iszero\n      tag_126\n      jumpi\n        /* \"datetime.sol\":6810:6812  29 */\n      0x1d\n        /* \"datetime.sol\":6790:6804  monthDayCounts */\n      dup2\n        /* \"datetime.sol\":6805:6806  1 */\n      0x01\n        /* \"datetime.sol\":6790:6807  monthDayCounts[1] */\n      0x0c\n      dup2\n      lt\n      tag_127\n      jumpi\n      tag_128\n      tag_124\n      jump\t// in\n    tag_128:\n    tag_127:\n      0x20\n      mul\n      add\n        /* \"datetime.sol\":6790:6812  monthDayCounts[1] = 29 */\n      swap1\n      0xff\n      and\n      swap1\n      dup2\n      0xff\n      and\n      dup2\n      mstore\n      pop\n      pop\n        /* \"datetime.sol\":6741:6924  if (isLeapYear(year)) {\r... */\n      jump(tag_129)\n    tag_126:\n        /* \"datetime.sol\":6902:6904  28 */\n      0x1c\n        /* \"datetime.sol\":6882:6896  monthDayCounts */\n      dup2\n        /* \"datetime.sol\":6897:6898  1 */\n      0x01\n        /* \"datetime.sol\":6882:6899  monthDayCounts[1] */\n      0x0c\n      dup2\n      lt\n      tag_130\n      jumpi\n      tag_131\n      tag_124\n      jump\t// in\n    tag_131:\n    tag_130:\n      0x20\n      mul\n      add\n        /* \"datetime.sol\":6882:6904  monthDayCounts[1] = 28 */\n      swap1\n      0xff\n      and\n      swap1\n      dup2\n      0xff\n      and\n      dup2\n      mstore\n      pop\n      pop\n        /* \"datetime.sol\":6741:6924  if (isLeapYear(year)) {\r... */\n    tag_129:\n        /* \"datetime.sol\":6962:6964  31 */\n      0x1f\n        /* \"datetime.sol\":6942:6956  monthDayCounts */\n      dup2\n        /* \"datetime.sol\":6957:6958  2 */\n      0x02\n        /* \"datetime.sol\":6942:6959  monthDayCounts[2] */\n      0x0c\n      dup2\n      lt\n      tag_132\n      jumpi\n      tag_133\n      tag_124\n      jump\t// in\n    tag_133:\n    tag_132:\n      0x20\n      mul\n      add\n        /* \"datetime.sol\":6942:6964  monthDayCounts[2] = 31 */\n      swap1\n      0xff\n      and\n      swap1\n      dup2\n      0xff\n      and\n      dup2\n      mstore\n      pop\n      pop\n        /* \"datetime.sol\":7003:7005  30 */\n      0x1e\n        /* \"datetime.sol\":6983:6997  monthDayCounts */\n      dup2\n        /* \"datetime.sol\":6998:6999  3 */\n      0x03\n        /* \"datetime.sol\":6983:7000  monthDayCounts[3] */\n      0x0c\n      dup2\n      lt\n      tag_134\n      jumpi\n      tag_135\n      tag_124\n      jump\t// in\n    tag_135:\n    tag_134:\n      0x20\n      mul\n      add\n        /* \"datetime.sol\":6983:7005  monthDayCounts[3] = 30 */\n      swap1\n      0xff\n      and\n      swap1\n      dup2\n      0xff\n      and\n      dup2\n      mstore\n      pop\n      pop\n        /* \"datetime.sol\":7044:7046  31 */\n      0x1f\n        /* \"datetime.sol\":7024:7038  monthDayCounts */\n      dup2\n        /* \"datetime.sol\":7039:7040  4 */\n      0x04\n        /* \"datetime.sol\":7024:7041  monthDayCounts[4] */\n      0x0c\n      dup2\n      lt\n      tag_136\n      jumpi\n      tag_137\n      tag_124\n      jump\t// in\n    tag_137:\n    tag_136:\n      0x20\n      mul\n      add\n        /* \"datetime.sol\":7024:7046  monthDayCounts[4] = 31 */\n      swap1\n      0xff\n      and\n      swap1\n      dup2\n      0xff\n      and\n      dup2\n      mstore\n      pop\n      pop\n        /* \"datetime.sol\":7085:7087  30 */\n      0x1e\n        /* \"datetime.sol\":7065:7079  monthDayCounts */\n      dup2\n        /* \"datetime.sol\":7080:7081  5 */\n      0x05\n        /* \"datetime.sol\":7065:7082  monthDayCounts[5] */\n      0x0c\n      dup2\n      lt\n      tag_138\n      jumpi\n      tag_139\n      tag_124\n      jump\t// in\n    tag_139:\n    tag_138:\n      0x20\n      mul\n      add\n        /* \"datetime.sol\":7065:7087  monthDayCounts[5] = 30 */\n      swap1\n      0xff\n      and\n      swap1\n      dup2\n      0xff\n      and\n      dup2\n      mstore\n      pop\n      pop\n        /* \"datetime.sol\":7126:7128  31 */\n      0x1f\n        /* \"datetime.sol\":7106:7120  monthDayCounts */\n      dup2\n        /* \"datetime.sol\":7121:7122  6 */\n      0x06\n        /* \"datetime.sol\":7106:7123  monthDayCounts[6] */\n      0x0c\n      dup2\n      lt\n      tag_140\n      jumpi\n      tag_141\n      tag_124\n      jump\t// in\n    tag_141:\n    tag_140:\n      0x20\n      mul\n      add\n        /* \"datetime.sol\":7106:7128  monthDayCounts[6] = 31 */\n      swap1\n      0xff\n      and\n      swap1\n      dup2\n      0xff\n      and\n      dup2\n      mstore\n      pop\n      pop\n        /* \"datetime.sol\":7167:7169  31 */\n      0x1f\n        /* \"datetime.sol\":7147:7161  monthDayCounts */\n      dup2\n        /* \"datetime.sol\":7162:7163  7 */\n      0x07\n        /* \"datetime.sol\":7147:7164  monthDayCounts[7] */\n      0x0c\n      dup2\n      lt\n      tag_142\n      jumpi\n      tag_143\n      tag_124\n      jump\t// in\n    tag_143:\n    tag_142:\n      0x20\n      mul\n      add\n        /* \"datetime.sol\":7147:7169  monthDayCounts[7] = 31 */\n      swap1\n      0xff\n      and\n      swap1\n      dup2\n      0xff\n      and\n      dup2\n      mstore\n      pop\n      pop\n        /* \"datetime.sol\":7208:7210  30 */\n      0x1e\n        /* \"datetime.sol\":7188:7202  monthDayCounts */\n      dup2\n        /* \"datetime.sol\":7203:7204  8 */\n      0x08\n        /* \"datetime.sol\":7188:7205  monthDayCounts[8] */\n      0x0c\n      dup2\n      lt\n      tag_144\n      jumpi\n      tag_145\n      tag_124\n      jump\t// in\n    tag_145:\n    tag_144:\n      0x20\n      mul\n      add\n        /* \"datetime.sol\":7188:7210  monthDayCounts[8] = 30 */\n      swap1\n      0xff\n      and\n      swap1\n      dup2\n      0xff\n      and\n      dup2\n      mstore\n      pop\n      pop\n        /* \"datetime.sol\":7249:7251  31 */\n      0x1f\n        /* \"datetime.sol\":7229:7243  monthDayCounts */\n      dup2\n        /* \"datetime.sol\":7244:7245  9 */\n      0x09\n        /* \"datetime.sol\":7229:7246  monthDayCounts[9] */\n      0x0c\n      dup2\n      lt\n      tag_146\n      jumpi\n      tag_147\n      tag_124\n      jump\t// in\n    tag_147:\n    tag_146:\n      0x20\n      mul\n      add\n        /* \"datetime.sol\":7229:7251  monthDayCounts[9] = 31 */\n      swap1\n      0xff\n      and\n      swap1\n      dup2\n      0xff\n      and\n      dup2\n      mstore\n      pop\n      pop\n        /* \"datetime.sol\":7291:7293  30 */\n      0x1e\n        /* \"datetime.sol\":7270:7284  monthDayCounts */\n      dup2\n        /* \"datetime.sol\":7285:7287  10 */\n      0x0a\n        /* \"datetime.sol\":7270:7288  monthDayCounts[10] */\n      0x0c\n      dup2\n      lt\n      tag_148\n      jumpi\n      tag_149\n      tag_124\n      jump\t// in\n    tag_149:\n    tag_148:\n      0x20\n      mul\n      add\n        /* \"datetime.sol\":7270:7293  monthDayCounts[10] = 30 */\n      swap1\n      0xff\n      and\n      swap1\n      dup2\n      0xff\n      and\n      dup2\n      mstore\n      pop\n      pop\n        /* \"datetime.sol\":7333:7335  31 */\n      0x1f\n        /* \"datetime.sol\":7312:7326  monthDayCounts */\n      dup2\n        /* \"datetime.sol\":7327:7329  11 */\n      0x0b\n        /* \"datetime.sol\":7312:7330  monthDayCounts[11] */\n      0x0c\n      dup2\n      lt\n      tag_150\n      jumpi\n      tag_151\n      tag_124\n      jump\t// in\n    tag_151:\n    tag_150:\n      0x20\n      mul\n      add\n        /* \"datetime.sol\":7312:7335  monthDayCounts[11] = 31 */\n      swap1\n      0xff\n      and\n      swap1\n      dup2\n      0xff\n      and\n      dup2\n      mstore\n      pop\n      pop\n        /* \"datetime.sol\":7365:7366  1 */\n      0x01\n        /* \"datetime.sol\":7361:7366  i = 1 */\n      swap2\n      pop\n        /* \"datetime.sol\":7356:7482  for (i = 1; i < month; i++) {\r... */\n    tag_152:\n        /* \"datetime.sol\":7372:7377  month */\n      dup8\n        /* \"datetime.sol\":7368:7377  i < month */\n      0xff\n      and\n        /* \"datetime.sol\":7368:7369  i */\n      dup3\n        /* \"datetime.sol\":7368:7377  i < month */\n      0xffff\n      and\n      lt\n        /* \"datetime.sol\":7356:7482  for (i = 1; i < month; i++) {\r... */\n      iszero\n      tag_153\n      jumpi\n        /* \"datetime.sol\":7441:7455  monthDayCounts */\n      dup1\n        /* \"datetime.sol\":7460:7461  1 */\n      0x01\n        /* \"datetime.sol\":7456:7457  i */\n      dup4\n        /* \"datetime.sol\":7456:7461  i - 1 */\n      tag_155\n      swap2\n      swap1\n      tag_156\n      jump\t// in\n    tag_155:\n        /* \"datetime.sol\":7441:7462  monthDayCounts[i - 1] */\n      0xffff\n      and\n      0x0c\n      dup2\n      lt\n      tag_157\n      jumpi\n      tag_158\n      tag_124\n      jump\t// in\n    tag_158:\n    tag_157:\n      0x20\n      mul\n      add\n      mload\n        /* \"datetime.sol\":7424:7462  DAY_IN_SECONDS * monthDayCounts[i - 1] */\n      0xff\n      and\n        /* \"datetime.sol\":474:479  86400 */\n      0x015180\n        /* \"datetime.sol\":7424:7462  DAY_IN_SECONDS * monthDayCounts[i - 1] */\n      tag_159\n      swap2\n      swap1\n      tag_160\n      jump\t// in\n    tag_159:\n        /* \"datetime.sol\":7411:7462  timestamp += DAY_IN_SECONDS * monthDayCounts[i - 1] */\n      dup4\n      tag_161\n      swap2\n      swap1\n      tag_96\n      jump\t// in\n    tag_161:\n      swap3\n      pop\n        /* \"datetime.sol\":7379:7382  i++ */\n      dup2\n      dup1\n      tag_162\n      swap1\n      tag_119\n      jump\t// in\n    tag_162:\n      swap3\n      pop\n      pop\n        /* \"datetime.sol\":7356:7482  for (i = 1; i < month; i++) {\r... */\n      jump(tag_152)\n    tag_153:\n        /* \"datetime.sol\":7563:7564  1 */\n      0x01\n        /* \"datetime.sol\":7557:7560  day */\n      dup8\n        /* \"datetime.sol\":7557:7564  day - 1 */\n      tag_163\n      swap2\n      swap1\n      tag_164\n      jump\t// in\n    tag_163:\n        /* \"datetime.sol\":7539:7565  DAY_IN_SECONDS * (day - 1) */\n      0xff\n      and\n        /* \"datetime.sol\":474:479  86400 */\n      0x015180\n        /* \"datetime.sol\":7539:7565  DAY_IN_SECONDS * (day - 1) */\n      tag_165\n      swap2\n      swap1\n      tag_160\n      jump\t// in\n    tag_165:\n        /* \"datetime.sol\":7526:7565  timestamp += DAY_IN_SECONDS * (day - 1) */\n      dup4\n      tag_166\n      swap2\n      swap1\n      tag_96\n      jump\t// in\n    tag_166:\n      swap3\n      pop\n        /* \"datetime.sol\":7643:7647  hour */\n      dup6\n        /* \"datetime.sol\":7624:7648  HOUR_IN_SECONDS * (hour) */\n      0xff\n      and\n        /* \"datetime.sol\":631:635  3600 */\n      0x0e10\n        /* \"datetime.sol\":7624:7648  HOUR_IN_SECONDS * (hour) */\n      tag_167\n      swap2\n      swap1\n      tag_160\n      jump\t// in\n    tag_167:\n        /* \"datetime.sol\":7611:7648  timestamp += HOUR_IN_SECONDS * (hour) */\n      dup4\n      tag_168\n      swap2\n      swap1\n      tag_96\n      jump\t// in\n    tag_168:\n      swap3\n      pop\n        /* \"datetime.sol\":7730:7736  minute */\n      dup5\n        /* \"datetime.sol\":7709:7737  MINUTE_IN_SECONDS * (minute) */\n      0xff\n      and\n        /* \"datetime.sol\":680:682  60 */\n      0x3c\n        /* \"datetime.sol\":7709:7737  MINUTE_IN_SECONDS * (minute) */\n      tag_169\n      swap2\n      swap1\n      tag_160\n      jump\t// in\n    tag_169:\n        /* \"datetime.sol\":7696:7737  timestamp += MINUTE_IN_SECONDS * (minute) */\n      dup4\n      tag_170\n      swap2\n      swap1\n      tag_96\n      jump\t// in\n    tag_170:\n      swap3\n      pop\n        /* \"datetime.sol\":7798:7804  second */\n      dup4\n        /* \"datetime.sol\":7785:7804  timestamp += second */\n      0xff\n      and\n      dup4\n      tag_171\n      swap2\n      swap1\n      tag_96\n      jump\t// in\n    tag_171:\n      swap3\n      pop\n        /* \"datetime.sol\":7825:7841  return timestamp */\n      pop\n      pop\n        /* \"datetime.sol\":6076:7853  function toTimestamp(uint16 year, uint8 month, uint8 day, uint8 hour, uint8 minute, uint8 second) public pure returns (uint timestamp) {\r... */\n      swap7\n      swap6\n      pop\n      pop\n      pop\n      pop\n      pop\n      pop\n      jump\t// out\n        /* \"datetime.sol\":3615:4608  function getYear(uint timestamp) public pure returns (uint16) {\r... */\n    tag_61:\n        /* \"datetime.sol\":3669:3675  uint16 */\n      0x00\n        /* \"datetime.sol\":3696:3720  uint secondsAccountedFor */\n      dup1\n        /* \"datetime.sol\":3723:3724  0 */\n      0x00\n        /* \"datetime.sol\":3696:3724  uint secondsAccountedFor = 0 */\n      swap1\n      pop\n        /* \"datetime.sol\":3743:3754  uint16 year */\n      0x00\n        /* \"datetime.sol\":3773:3790  uint numLeapYears */\n      dup1\n        /* \"datetime.sol\":522:530  31536000 */\n      0x01e13380\n        /* \"datetime.sol\":3864:3873  timestamp */\n      dup6\n        /* \"datetime.sol\":3864:3891  timestamp / YEAR_IN_SECONDS */\n      tag_173\n      swap2\n      swap1\n      tag_89\n      jump\t// in\n    tag_173:\n        /* \"datetime.sol\":725:729  1970 */\n      0x07b2\n        /* \"datetime.sol\":3850:3891  ORIGIN_YEAR + timestamp / YEAR_IN_SECONDS */\n      0xffff\n      and\n      tag_174\n      swap2\n      swap1\n      tag_96\n      jump\t// in\n    tag_174:\n        /* \"datetime.sol\":3836:3892  year = uint16(ORIGIN_YEAR + timestamp / YEAR_IN_SECONDS) */\n      swap2\n      pop\n        /* \"datetime.sol\":3950:3978  leapYearsBefore(ORIGIN_YEAR) */\n      tag_175\n        /* \"datetime.sol\":725:729  1970 */\n      0x07b2\n        /* \"datetime.sol\":3950:3978  leapYearsBefore(ORIGIN_YEAR) */\n      0xffff\n      and\n        /* \"datetime.sol\":3950:3965  leapYearsBefore */\n      tag_76\n        /* \"datetime.sol\":3950:3978  leapYearsBefore(ORIGIN_YEAR) */\n      jump\t// in\n    tag_175:\n        /* \"datetime.sol\":3926:3947  leapYearsBefore(year) */\n      tag_176\n        /* \"datetime.sol\":3942:3946  year */\n      dup4\n        /* \"datetime.sol\":3926:3947  leapYearsBefore(year) */\n      0xffff\n      and\n        /* \"datetime.sol\":3926:3941  leapYearsBefore */\n      tag_76\n        /* \"datetime.sol\":3926:3947  leapYearsBefore(year) */\n      jump\t// in\n    tag_176:\n        /* \"datetime.sol\":3926:3978  leapYearsBefore(year) - leapYearsBefore(ORIGIN_YEAR) */\n      tag_177\n      swap2\n      swap1\n      tag_178\n      jump\t// in\n    tag_177:\n        /* \"datetime.sol\":3911:3978  numLeapYears = leapYearsBefore(year) - leapYearsBefore(ORIGIN_YEAR) */\n      swap1\n      pop\n        /* \"datetime.sol\":4045:4057  numLeapYears */\n      dup1\n        /* \"datetime.sol\":578:586  31622400 */\n      0x01e28500\n        /* \"datetime.sol\":4022:4057  LEAP_YEAR_IN_SECONDS * numLeapYears */\n      tag_179\n      swap2\n      swap1\n      tag_160\n      jump\t// in\n    tag_179:\n        /* \"datetime.sol\":3999:4057  secondsAccountedFor += LEAP_YEAR_IN_SECONDS * numLeapYears */\n      dup4\n      tag_180\n      swap2\n      swap1\n      tag_96\n      jump\t// in\n    tag_180:\n      swap3\n      pop\n        /* \"datetime.sol\":4139:4151  numLeapYears */\n      dup1\n        /* \"datetime.sol\":725:729  1970 */\n      0x07b2\n        /* \"datetime.sol\":4118:4122  year */\n      dup4\n        /* \"datetime.sol\":4118:4136  year - ORIGIN_YEAR */\n      tag_181\n      swap2\n      swap1\n      tag_156\n      jump\t// in\n    tag_181:\n        /* \"datetime.sol\":4118:4151  year - ORIGIN_YEAR - numLeapYears */\n      0xffff\n      and\n      tag_182\n      swap2\n      swap1\n      tag_178\n      jump\t// in\n    tag_182:\n        /* \"datetime.sol\":522:530  31536000 */\n      0x01e13380\n        /* \"datetime.sol\":4099:4152  YEAR_IN_SECONDS * (year - ORIGIN_YEAR - numLeapYears) */\n      tag_183\n      swap2\n      swap1\n      tag_160\n      jump\t// in\n    tag_183:\n        /* \"datetime.sol\":4076:4152  secondsAccountedFor += YEAR_IN_SECONDS * (year - ORIGIN_YEAR - numLeapYears) */\n      dup4\n      tag_184\n      swap2\n      swap1\n      tag_96\n      jump\t// in\n    tag_184:\n      swap3\n      pop\n        /* \"datetime.sol\":4173:4567  while (secondsAccountedFor > timestamp) {\r... */\n    tag_185:\n        /* \"datetime.sol\":4202:4211  timestamp */\n      dup5\n        /* \"datetime.sol\":4180:4199  secondsAccountedFor */\n      dup4\n        /* \"datetime.sol\":4180:4211  secondsAccountedFor > timestamp */\n      gt\n        /* \"datetime.sol\":4173:4567  while (secondsAccountedFor > timestamp) {\r... */\n      iszero\n      tag_186\n      jumpi\n        /* \"datetime.sol\":4244:4272  isLeapYear(uint16(year - 1)) */\n      tag_187\n        /* \"datetime.sol\":4269:4270  1 */\n      0x01\n        /* \"datetime.sol\":4262:4266  year */\n      dup4\n        /* \"datetime.sol\":4262:4270  year - 1 */\n      tag_188\n      swap2\n      swap1\n      tag_156\n      jump\t// in\n    tag_188:\n        /* \"datetime.sol\":4244:4254  isLeapYear */\n      tag_71\n        /* \"datetime.sol\":4244:4272  isLeapYear(uint16(year - 1)) */\n      jump\t// in\n    tag_187:\n        /* \"datetime.sol\":4240:4512  if (isLeapYear(uint16(year - 1))) {\r... */\n      iszero\n      tag_189\n      jumpi\n        /* \"datetime.sol\":578:586  31622400 */\n      0x01e28500\n        /* \"datetime.sol\":4309:4352  secondsAccountedFor -= LEAP_YEAR_IN_SECONDS */\n      dup4\n      tag_190\n      swap2\n      swap1\n      tag_178\n      jump\t// in\n    tag_190:\n      swap3\n      pop\n        /* \"datetime.sol\":4240:4512  if (isLeapYear(uint16(year - 1))) {\r... */\n      jump(tag_191)\n    tag_189:\n        /* \"datetime.sol\":522:530  31536000 */\n      0x01e13380\n        /* \"datetime.sol\":4446:4484  secondsAccountedFor -= YEAR_IN_SECONDS */\n      dup4\n      tag_192\n      swap2\n      swap1\n      tag_178\n      jump\t// in\n    tag_192:\n      swap3\n      pop\n        /* \"datetime.sol\":4240:4512  if (isLeapYear(uint16(year - 1))) {\r... */\n    tag_191:\n        /* \"datetime.sol\":4546:4547  1 */\n      0x01\n        /* \"datetime.sol\":4538:4547  year -= 1 */\n      dup3\n      tag_193\n      swap2\n      swap1\n      tag_156\n      jump\t// in\n    tag_193:\n      swap2\n      pop\n        /* \"datetime.sol\":4173:4567  while (secondsAccountedFor > timestamp) {\r... */\n      jump(tag_185)\n    tag_186:\n        /* \"datetime.sol\":4592:4596  year */\n      dup2\n        /* \"datetime.sol\":4585:4596  return year */\n      swap4\n      pop\n      pop\n      pop\n      pop\n        /* \"datetime.sol\":3615:4608  function getYear(uint timestamp) public pure returns (uint16) {\r... */\n      swap2\n      swap1\n      pop\n      jump\t// out\n        /* \"datetime.sol\":4620:4751  function getMonth(uint timestamp) public pure returns (uint8) {\r... */\n    tag_66:\n        /* \"datetime.sol\":4675:4680  uint8 */\n      0x00\n        /* \"datetime.sol\":4708:4733  parseTimestamp(timestamp) */\n      tag_195\n        /* \"datetime.sol\":4723:4732  timestamp */\n      dup3\n        /* \"datetime.sol\":4708:4722  parseTimestamp */\n      tag_102\n        /* \"datetime.sol\":4708:4733  parseTimestamp(timestamp) */\n      jump\t// in\n    tag_195:\n        /* \"datetime.sol\":4708:4739  parseTimestamp(timestamp).month */\n      0x20\n      add\n      mload\n        /* \"datetime.sol\":4701:4739  return parseTimestamp(timestamp).month */\n      swap1\n      pop\n        /* \"datetime.sol\":4620:4751  function getMonth(uint timestamp) public pure returns (uint8) {\r... */\n      swap2\n      swap1\n      pop\n      jump\t// out\n        /* \"datetime.sol\":742:1135  function isLeapYear(uint16 year) public pure returns (bool) {\r... */\n    tag_71:\n        /* \"datetime.sol\":796:800  bool */\n      0x00\n        /* \"datetime.sol\":837:838  0 */\n      dup1\n        /* \"datetime.sol\":832:833  4 */\n      0x04\n        /* \"datetime.sol\":825:829  year */\n      dup4\n        /* \"datetime.sol\":825:833  year % 4 */\n      tag_197\n      swap2\n      swap1\n      tag_198\n      jump\t// in\n    tag_197:\n        /* \"datetime.sol\":825:838  year % 4 != 0 */\n      0xffff\n      and\n      eq\n        /* \"datetime.sol\":821:899  if (year % 4 != 0) {\r... */\n      tag_199\n      jumpi\n        /* \"datetime.sol\":874:879  false */\n      0x00\n        /* \"datetime.sol\":867:879  return false */\n      swap1\n      pop\n      jump(tag_196)\n        /* \"datetime.sol\":821:899  if (year % 4 != 0) {\r... */\n    tag_199:\n        /* \"datetime.sol\":935:936  0 */\n      0x00\n        /* \"datetime.sol\":928:931  100 */\n      0x64\n        /* \"datetime.sol\":921:925  year */\n      dup4\n        /* \"datetime.sol\":921:931  year % 100 */\n      tag_200\n      swap2\n      swap1\n      tag_198\n      jump\t// in\n    tag_200:\n        /* \"datetime.sol\":921:936  year % 100 != 0 */\n      0xffff\n      and\n      eq\n        /* \"datetime.sol\":917:996  if (year % 100 != 0) {\r... */\n      tag_201\n      jumpi\n        /* \"datetime.sol\":972:976  true */\n      0x01\n        /* \"datetime.sol\":965:976  return true */\n      swap1\n      pop\n      jump(tag_196)\n        /* \"datetime.sol\":917:996  if (year % 100 != 0) {\r... */\n    tag_201:\n        /* \"datetime.sol\":1032:1033  0 */\n      0x00\n        /* \"datetime.sol\":1025:1028  400 */\n      0x0190\n        /* \"datetime.sol\":1018:1022  year */\n      dup4\n        /* \"datetime.sol\":1018:1028  year % 400 */\n      tag_202\n      swap2\n      swap1\n      tag_198\n      jump\t// in\n    tag_202:\n        /* \"datetime.sol\":1018:1033  year % 400 != 0 */\n      0xffff\n      and\n      eq\n        /* \"datetime.sol\":1014:1094  if (year % 400 != 0) {\r... */\n      tag_203\n      jumpi\n        /* \"datetime.sol\":1069:1074  false */\n      0x00\n        /* \"datetime.sol\":1062:1074  return false */\n      swap1\n      pop\n      jump(tag_196)\n        /* \"datetime.sol\":1014:1094  if (year % 400 != 0) {\r... */\n    tag_203:\n        /* \"datetime.sol\":1119:1123  true */\n      0x01\n        /* \"datetime.sol\":1112:1123  return true */\n      swap1\n      pop\n        /* \"datetime.sol\":742:1135  function isLeapYear(uint16 year) public pure returns (bool) {\r... */\n    tag_196:\n      swap2\n      swap1\n      pop\n      jump\t// out\n        /* \"datetime.sol\":1147:1310  function leapYearsBefore(uint year) public pure returns (uint) {\r... */\n    tag_76:\n        /* \"datetime.sol\":1204:1208  uint */\n      0x00\n        /* \"datetime.sol\":1237:1238  1 */\n      0x01\n        /* \"datetime.sol\":1229:1238  year -= 1 */\n      dup3\n      tag_205\n      swap2\n      swap1\n      tag_178\n      jump\t// in\n    tag_205:\n      swap2\n      pop\n        /* \"datetime.sol\":1295:1298  400 */\n      0x0190\n        /* \"datetime.sol\":1288:1292  year */\n      dup3\n        /* \"datetime.sol\":1288:1298  year / 400 */\n      tag_206\n      swap2\n      swap1\n      tag_89\n      jump\t// in\n    tag_206:\n        /* \"datetime.sol\":1282:1285  100 */\n      0x64\n        /* \"datetime.sol\":1275:1279  year */\n      dup4\n        /* \"datetime.sol\":1275:1285  year / 100 */\n      tag_207\n      swap2\n      swap1\n      tag_89\n      jump\t// in\n    tag_207:\n        /* \"datetime.sol\":1271:1272  4 */\n      0x04\n        /* \"datetime.sol\":1264:1268  year */\n      dup5\n        /* \"datetime.sol\":1264:1272  year / 4 */\n      tag_208\n      swap2\n      swap1\n      tag_89\n      jump\t// in\n    tag_208:\n        /* \"datetime.sol\":1264:1285  year / 4 - year / 100 */\n      tag_209\n      swap2\n      swap1\n      tag_178\n      jump\t// in\n    tag_209:\n        /* \"datetime.sol\":1264:1298  year / 4 - year / 100 + year / 400 */\n      tag_210\n      swap2\n      swap1\n      tag_96\n      jump\t// in\n    tag_210:\n        /* \"datetime.sol\":1257:1298  return year / 4 - year / 100 + year / 400 */\n      swap1\n      pop\n        /* \"datetime.sol\":1147:1310  function leapYearsBefore(uint year) public pure returns (uint) {\r... */\n      swap2\n      swap1\n      pop\n      jump\t// out\n        /* \"datetime.sol\":1322:1906  function getDaysInMonth(uint8 month, uint16 year) public pure returns (uint8) {\r... */\n    tag_81:\n        /* \"datetime.sol\":1393:1398  uint8 */\n      0x00\n        /* \"datetime.sol\":1432:1433  1 */\n      0x01\n        /* \"datetime.sol\":1423:1428  month */\n      dup4\n        /* \"datetime.sol\":1423:1433  month == 1 */\n      0xff\n      and\n      eq\n        /* \"datetime.sol\":1423:1447  month == 1 || month == 3 */\n      dup1\n      tag_212\n      jumpi\n      pop\n        /* \"datetime.sol\":1446:1447  3 */\n      0x03\n        /* \"datetime.sol\":1437:1442  month */\n      dup4\n        /* \"datetime.sol\":1437:1447  month == 3 */\n      0xff\n      and\n      eq\n        /* \"datetime.sol\":1423:1447  month == 1 || month == 3 */\n    tag_212:\n        /* \"datetime.sol\":1423:1461  month == 1 || month == 3 || month == 5 */\n      dup1\n      tag_213\n      jumpi\n      pop\n        /* \"datetime.sol\":1460:1461  5 */\n      0x05\n        /* \"datetime.sol\":1451:1456  month */\n      dup4\n        /* \"datetime.sol\":1451:1461  month == 5 */\n      0xff\n      and\n      eq\n        /* \"datetime.sol\":1423:1461  month == 1 || month == 3 || month == 5 */\n    tag_213:\n        /* \"datetime.sol\":1423:1475  month == 1 || month == 3 || month == 5 || month == 7 */\n      dup1\n      tag_214\n      jumpi\n      pop\n        /* \"datetime.sol\":1474:1475  7 */\n      0x07\n        /* \"datetime.sol\":1465:1470  month */\n      dup4\n        /* \"datetime.sol\":1465:1475  month == 7 */\n      0xff\n      and\n      eq\n        /* \"datetime.sol\":1423:1475  month == 1 || month == 3 || month == 5 || month == 7 */\n    tag_214:\n        /* \"datetime.sol\":1423:1489  month == 1 || month == 3 || month == 5 || month == 7 || month == 8 */\n      dup1\n      tag_215\n      jumpi\n      pop\n        /* \"datetime.sol\":1488:1489  8 */\n      0x08\n        /* \"datetime.sol\":1479:1484  month */\n      dup4\n        /* \"datetime.sol\":1479:1489  month == 8 */\n      0xff\n      and\n      eq\n        /* \"datetime.sol\":1423:1489  month == 1 || month == 3 || month == 5 || month == 7 || month == 8 */\n    tag_215:\n        /* \"datetime.sol\":1423:1504  month == 1 || month == 3 || month == 5 || month == 7 || month == 8 || month == 10 */\n      dup1\n      tag_216\n      jumpi\n      pop\n        /* \"datetime.sol\":1502:1504  10 */\n      0x0a\n        /* \"datetime.sol\":1493:1498  month */\n      dup4\n        /* \"datetime.sol\":1493:1504  month == 10 */\n      0xff\n      and\n      eq\n        /* \"datetime.sol\":1423:1504  month == 1 || month == 3 || month == 5 || month == 7 || month == 8 || month == 10 */\n    tag_216:\n        /* \"datetime.sol\":1423:1519  month == 1 || month == 3 || month == 5 || month == 7 || month == 8 || month == 10 || month == 12 */\n      dup1\n      tag_217\n      jumpi\n      pop\n        /* \"datetime.sol\":1517:1519  12 */\n      0x0c\n        /* \"datetime.sol\":1508:1513  month */\n      dup4\n        /* \"datetime.sol\":1508:1519  month == 12 */\n      0xff\n      and\n      eq\n        /* \"datetime.sol\":1423:1519  month == 1 || month == 3 || month == 5 || month == 7 || month == 8 || month == 10 || month == 12 */\n    tag_217:\n        /* \"datetime.sol\":1419:1895  if (month == 1 || month == 3 || month == 5 || month == 7 || month == 8 || month == 10 || month == 12) {\r... */\n      iszero\n      tag_218\n      jumpi\n        /* \"datetime.sol\":1555:1557  31 */\n      0x1f\n        /* \"datetime.sol\":1548:1557  return 31 */\n      swap1\n      pop\n      jump(tag_211)\n        /* \"datetime.sol\":1419:1895  if (month == 1 || month == 3 || month == 5 || month == 7 || month == 8 || month == 10 || month == 12) {\r... */\n    tag_218:\n        /* \"datetime.sol\":1613:1614  4 */\n      0x04\n        /* \"datetime.sol\":1604:1609  month */\n      dup4\n        /* \"datetime.sol\":1604:1614  month == 4 */\n      0xff\n      and\n      eq\n        /* \"datetime.sol\":1604:1628  month == 4 || month == 6 */\n      dup1\n      tag_220\n      jumpi\n      pop\n        /* \"datetime.sol\":1627:1628  6 */\n      0x06\n        /* \"datetime.sol\":1618:1623  month */\n      dup4\n        /* \"datetime.sol\":1618:1628  month == 6 */\n      0xff\n      and\n      eq\n        /* \"datetime.sol\":1604:1628  month == 4 || month == 6 */\n    tag_220:\n        /* \"datetime.sol\":1604:1642  month == 4 || month == 6 || month == 9 */\n      dup1\n      tag_221\n      jumpi\n      pop\n        /* \"datetime.sol\":1641:1642  9 */\n      0x09\n        /* \"datetime.sol\":1632:1637  month */\n      dup4\n        /* \"datetime.sol\":1632:1642  month == 9 */\n      0xff\n      and\n      eq\n        /* \"datetime.sol\":1604:1642  month == 4 || month == 6 || month == 9 */\n    tag_221:\n        /* \"datetime.sol\":1604:1657  month == 4 || month == 6 || month == 9 || month == 11 */\n      dup1\n      tag_222\n      jumpi\n      pop\n        /* \"datetime.sol\":1655:1657  11 */\n      0x0b\n        /* \"datetime.sol\":1646:1651  month */\n      dup4\n        /* \"datetime.sol\":1646:1657  month == 11 */\n      0xff\n      and\n      eq\n        /* \"datetime.sol\":1604:1657  month == 4 || month == 6 || month == 9 || month == 11 */\n    tag_222:\n        /* \"datetime.sol\":1600:1895  if (month == 4 || month == 6 || month == 9 || month == 11) {\r... */\n      iszero\n      tag_223\n      jumpi\n        /* \"datetime.sol\":1693:1695  30 */\n      0x1e\n        /* \"datetime.sol\":1686:1695  return 30 */\n      swap1\n      pop\n      jump(tag_211)\n        /* \"datetime.sol\":1600:1895  if (month == 4 || month == 6 || month == 9 || month == 11) {\r... */\n    tag_223:\n        /* \"datetime.sol\":1742:1758  isLeapYear(year) */\n      tag_225\n        /* \"datetime.sol\":1753:1757  year */\n      dup3\n        /* \"datetime.sol\":1742:1752  isLeapYear */\n      tag_71\n        /* \"datetime.sol\":1742:1758  isLeapYear(year) */\n      jump\t// in\n    tag_225:\n        /* \"datetime.sol\":1738:1895  if (isLeapYear(year)) {\r... */\n      iszero\n      tag_226\n      jumpi\n        /* \"datetime.sol\":1794:1796  29 */\n      0x1d\n        /* \"datetime.sol\":1787:1796  return 29 */\n      swap1\n      pop\n      jump(tag_211)\n        /* \"datetime.sol\":1738:1895  if (isLeapYear(year)) {\r... */\n    tag_226:\n        /* \"datetime.sol\":1873:1875  28 */\n      0x1c\n        /* \"datetime.sol\":1866:1875  return 28 */\n      swap1\n      pop\n        /* \"datetime.sol\":1322:1906  function getDaysInMonth(uint8 month, uint16 year) public pure returns (uint8) {\r... */\n    tag_211:\n      swap3\n      swap2\n      pop\n      pop\n      jump\t// out\n        /* \"datetime.sol\":5046:5175  function getMinute(uint timestamp) public pure returns (uint8) {\r... */\n    tag_85:\n        /* \"datetime.sol\":5102:5107  uint8 */\n      0x00\n        /* \"datetime.sol\":5160:5162  60 */\n      0x3c\n        /* \"datetime.sol\":5154:5156  60 */\n      dup1\n        /* \"datetime.sol\":5142:5151  timestamp */\n      dup4\n        /* \"datetime.sol\":5142:5156  timestamp / 60 */\n      tag_229\n      swap2\n      swap1\n      tag_89\n      jump\t// in\n    tag_229:\n        /* \"datetime.sol\":5141:5162  (timestamp / 60) % 60 */\n      tag_230\n      swap2\n      swap1\n      tag_92\n      jump\t// in\n    tag_230:\n        /* \"datetime.sol\":5128:5163  return uint8((timestamp / 60) % 60) */\n      swap1\n      pop\n        /* \"datetime.sol\":5046:5175  function getMinute(uint timestamp) public pure returns (uint8) {\r... */\n      swap2\n      swap1\n      pop\n      jump\t// out\n        /* \"datetime.sol\":1918:3603  function parseTimestamp(uint timestamp) internal pure returns (_DateTime memory dt) {\r... */\n    tag_102:\n        /* \"datetime.sol\":1981:2000  _DateTime memory dt */\n      tag_231\n      tag_232\n      jump\t// in\n    tag_231:\n        /* \"datetime.sol\":2021:2045  uint secondsAccountedFor */\n      0x00\n        /* \"datetime.sol\":2068:2076  uint buf */\n      dup1\n        /* \"datetime.sol\":2095:2102  uint8 i */\n      dup1\n        /* \"datetime.sol\":2158:2176  getYear(timestamp) */\n      tag_234\n        /* \"datetime.sol\":2166:2175  timestamp */\n      dup6\n        /* \"datetime.sol\":2158:2165  getYear */\n      tag_61\n        /* \"datetime.sol\":2158:2176  getYear(timestamp) */\n      jump\t// in\n    tag_234:\n        /* \"datetime.sol\":2148:2150  dt */\n      dup5\n        /* \"datetime.sol\":2148:2155  dt.year */\n      0x00\n      add\n        /* \"datetime.sol\":2148:2176  dt.year = getYear(timestamp) */\n      swap1\n      0xffff\n      and\n      swap1\n      dup2\n      0xffff\n      and\n      dup2\n      mstore\n      pop\n      pop\n        /* \"datetime.sol\":2228:2256  leapYearsBefore(ORIGIN_YEAR) */\n      tag_235\n        /* \"datetime.sol\":725:729  1970 */\n      0x07b2\n        /* \"datetime.sol\":2228:2256  leapYearsBefore(ORIGIN_YEAR) */\n      0xffff\n      and\n        /* \"datetime.sol\":2228:2243  leapYearsBefore */\n      tag_76\n        /* \"datetime.sol\":2228:2256  leapYearsBefore(ORIGIN_YEAR) */\n      jump\t// in\n    tag_235:\n        /* \"datetime.sol\":2201:2225  leapYearsBefore(dt.year) */\n      tag_236\n        /* \"datetime.sol\":2217:2219  dt */\n      dup6\n        /* \"datetime.sol\":2217:2224  dt.year */\n      0x00\n      add\n      mload\n        /* \"datetime.sol\":2201:2225  leapYearsBefore(dt.year) */\n      0xffff\n      and\n        /* \"datetime.sol\":2201:2216  leapYearsBefore */\n      tag_76\n        /* \"datetime.sol\":2201:2225  leapYearsBefore(dt.year) */\n      jump\t// in\n    tag_236:\n        /* \"datetime.sol\":2201:2256  leapYearsBefore(dt.year) - leapYearsBefore(ORIGIN_YEAR) */\n      tag_237\n      swap2\n      swap1\n      tag_178\n      jump\t// in\n    tag_237:\n        /* \"datetime.sol\":2195:2256  buf = leapYearsBefore(dt.year) - leapYearsBefore(ORIGIN_YEAR) */\n      swap2\n      pop\n        /* \"datetime.sol\":2323:2326  buf */\n      dup2\n        /* \"datetime.sol\":578:586  31622400 */\n      0x01e28500\n        /* \"datetime.sol\":2300:2326  LEAP_YEAR_IN_SECONDS * buf */\n      tag_238\n      swap2\n      swap1\n      tag_160\n      jump\t// in\n    tag_238:\n        /* \"datetime.sol\":2277:2326  secondsAccountedFor += LEAP_YEAR_IN_SECONDS * buf */\n      dup4\n      tag_239\n      swap2\n      swap1\n      tag_96\n      jump\t// in\n    tag_239:\n      swap3\n      pop\n        /* \"datetime.sol\":2411:2414  buf */\n      dup2\n        /* \"datetime.sol\":725:729  1970 */\n      0x07b2\n        /* \"datetime.sol\":2387:2389  dt */\n      dup6\n        /* \"datetime.sol\":2387:2394  dt.year */\n      0x00\n      add\n      mload\n        /* \"datetime.sol\":2387:2408  dt.year - ORIGIN_YEAR */\n      tag_240\n      swap2\n      swap1\n      tag_156\n      jump\t// in\n    tag_240:\n        /* \"datetime.sol\":2387:2414  dt.year - ORIGIN_YEAR - buf */\n      0xffff\n      and\n      tag_241\n      swap2\n      swap1\n      tag_178\n      jump\t// in\n    tag_241:\n        /* \"datetime.sol\":522:530  31536000 */\n      0x01e13380\n        /* \"datetime.sol\":2368:2415  YEAR_IN_SECONDS * (dt.year - ORIGIN_YEAR - buf) */\n      tag_242\n      swap2\n      swap1\n      tag_160\n      jump\t// in\n    tag_242:\n        /* \"datetime.sol\":2345:2415  secondsAccountedFor += YEAR_IN_SECONDS * (dt.year - ORIGIN_YEAR - buf) */\n      dup4\n      tag_243\n      swap2\n      swap1\n      tag_96\n      jump\t// in\n    tag_243:\n      swap3\n      pop\n        /* \"datetime.sol\":2462:2481  uint secondsInMonth */\n      0x00\n        /* \"datetime.sol\":2509:2510  1 */\n      0x01\n        /* \"datetime.sol\":2505:2510  i = 1 */\n      swap2\n      pop\n        /* \"datetime.sol\":2500:2892  for (i = 1; i <= 12; i++) {\r... */\n    tag_244:\n        /* \"datetime.sol\":2517:2519  12 */\n      0x0c\n        /* \"datetime.sol\":2512:2513  i */\n      dup3\n        /* \"datetime.sol\":2512:2519  i <= 12 */\n      0xff\n      and\n      gt\n        /* \"datetime.sol\":2500:2892  for (i = 1; i <= 12; i++) {\r... */\n      tag_245\n      jumpi\n        /* \"datetime.sol\":2587:2613  getDaysInMonth(i, dt.year) */\n      tag_247\n        /* \"datetime.sol\":2602:2603  i */\n      dup3\n        /* \"datetime.sol\":2605:2607  dt */\n      dup7\n        /* \"datetime.sol\":2605:2612  dt.year */\n      0x00\n      add\n      mload\n        /* \"datetime.sol\":2587:2601  getDaysInMonth */\n      tag_81\n        /* \"datetime.sol\":2587:2613  getDaysInMonth(i, dt.year) */\n      jump\t// in\n    tag_247:\n        /* \"datetime.sol\":2570:2613  DAY_IN_SECONDS * getDaysInMonth(i, dt.year) */\n      0xff\n      and\n        /* \"datetime.sol\":474:479  86400 */\n      0x015180\n        /* \"datetime.sol\":2570:2613  DAY_IN_SECONDS * getDaysInMonth(i, dt.year) */\n      tag_248\n      swap2\n      swap1\n      tag_160\n      jump\t// in\n    tag_248:\n        /* \"datetime.sol\":2553:2613  secondsInMonth = DAY_IN_SECONDS * getDaysInMonth(i, dt.year) */\n      swap1\n      pop\n        /* \"datetime.sol\":2683:2692  timestamp */\n      dup6\n        /* \"datetime.sol\":2661:2680  secondsAccountedFor */\n      dup5\n        /* \"datetime.sol\":2644:2658  secondsInMonth */\n      dup3\n        /* \"datetime.sol\":2644:2680  secondsInMonth + secondsAccountedFor */\n      tag_249\n      swap2\n      swap1\n      tag_96\n      jump\t// in\n    tag_249:\n        /* \"datetime.sol\":2644:2692  secondsInMonth + secondsAccountedFor > timestamp */\n      gt\n        /* \"datetime.sol\":2640:2809  if (secondsInMonth + secondsAccountedFor > timestamp) {\r... */\n      iszero\n      tag_250\n      jumpi\n        /* \"datetime.sol\":2740:2741  i */\n      dup2\n        /* \"datetime.sol\":2729:2731  dt */\n      dup6\n        /* \"datetime.sol\":2729:2737  dt.month */\n      0x20\n      add\n        /* \"datetime.sol\":2729:2741  dt.month = i */\n      swap1\n      0xff\n      and\n      swap1\n      dup2\n      0xff\n      and\n      dup2\n      mstore\n      pop\n      pop\n        /* \"datetime.sol\":2776:2781  break */\n      jump(tag_245)\n        /* \"datetime.sol\":2640:2809  if (secondsInMonth + secondsAccountedFor > timestamp) {\r... */\n    tag_250:\n        /* \"datetime.sol\":2858:2872  secondsInMonth */\n      dup1\n        /* \"datetime.sol\":2835:2872  secondsAccountedFor += secondsInMonth */\n      dup5\n      tag_251\n      swap2\n      swap1\n      tag_96\n      jump\t// in\n    tag_251:\n      swap4\n      pop\n        /* \"datetime.sol\":2521:2524  i++ */\n      dup2\n      dup1\n      tag_252\n      swap1\n      tag_253\n      jump\t// in\n    tag_252:\n      swap3\n      pop\n      pop\n        /* \"datetime.sol\":2500:2892  for (i = 1; i <= 12; i++) {\r... */\n      jump(tag_244)\n    tag_245:\n        /* \"datetime.sol\":2945:2946  1 */\n      0x01\n        /* \"datetime.sol\":2941:2946  i = 1 */\n      swap2\n      pop\n        /* \"datetime.sol\":2936:3270  for (i = 1; i <= getDaysInMonth(dt.month, dt.year); i++) {\r... */\n    tag_254:\n        /* \"datetime.sol\":2953:2986  getDaysInMonth(dt.month, dt.year) */\n      tag_257\n        /* \"datetime.sol\":2968:2970  dt */\n      dup6\n        /* \"datetime.sol\":2968:2976  dt.month */\n      0x20\n      add\n      mload\n        /* \"datetime.sol\":2978:2980  dt */\n      dup7\n        /* \"datetime.sol\":2978:2985  dt.year */\n      0x00\n      add\n      mload\n        /* \"datetime.sol\":2953:2967  getDaysInMonth */\n      tag_81\n        /* \"datetime.sol\":2953:2986  getDaysInMonth(dt.month, dt.year) */\n      jump\t// in\n    tag_257:\n        /* \"datetime.sol\":2948:2986  i <= getDaysInMonth(dt.month, dt.year) */\n      0xff\n      and\n        /* \"datetime.sol\":2948:2949  i */\n      dup3\n        /* \"datetime.sol\":2948:2986  i <= getDaysInMonth(dt.month, dt.year) */\n      0xff\n      and\n      gt\n        /* \"datetime.sol\":2936:3270  for (i = 1; i <= getDaysInMonth(dt.month, dt.year); i++) {\r... */\n      tag_255\n      jumpi\n        /* \"datetime.sol\":3063:3072  timestamp */\n      dup6\n        /* \"datetime.sol\":3041:3060  secondsAccountedFor */\n      dup5\n        /* \"datetime.sol\":474:479  86400 */\n      0x015180\n        /* \"datetime.sol\":3024:3060  DAY_IN_SECONDS + secondsAccountedFor */\n      tag_258\n      swap2\n      swap1\n      tag_96\n      jump\t// in\n    tag_258:\n        /* \"datetime.sol\":3024:3072  DAY_IN_SECONDS + secondsAccountedFor > timestamp */\n      gt\n        /* \"datetime.sol\":3020:3187  if (DAY_IN_SECONDS + secondsAccountedFor > timestamp) {\r... */\n      iszero\n      tag_259\n      jumpi\n        /* \"datetime.sol\":3118:3119  i */\n      dup2\n        /* \"datetime.sol\":3109:3111  dt */\n      dup6\n        /* \"datetime.sol\":3109:3115  dt.day */\n      0x40\n      add\n        /* \"datetime.sol\":3109:3119  dt.day = i */\n      swap1\n      0xff\n      and\n      swap1\n      dup2\n      0xff\n      and\n      dup2\n      mstore\n      pop\n      pop\n        /* \"datetime.sol\":3154:3159  break */\n      jump(tag_255)\n        /* \"datetime.sol\":3020:3187  if (DAY_IN_SECONDS + secondsAccountedFor > timestamp) {\r... */\n    tag_259:\n        /* \"datetime.sol\":474:479  86400 */\n      0x015180\n        /* \"datetime.sol\":3213:3250  secondsAccountedFor += DAY_IN_SECONDS */\n      dup5\n      tag_260\n      swap2\n      swap1\n      tag_96\n      jump\t// in\n    tag_260:\n      swap4\n      pop\n        /* \"datetime.sol\":2988:2991  i++ */\n      dup2\n      dup1\n      tag_261\n      swap1\n      tag_253\n      jump\t// in\n    tag_261:\n      swap3\n      pop\n      pop\n        /* \"datetime.sol\":2936:3270  for (i = 1; i <= getDaysInMonth(dt.month, dt.year); i++) {\r... */\n      jump(tag_254)\n    tag_255:\n        /* \"datetime.sol\":3325:3343  getHour(timestamp) */\n      tag_262\n        /* \"datetime.sol\":3333:3342  timestamp */\n      dup7\n        /* \"datetime.sol\":3325:3332  getHour */\n      tag_23\n        /* \"datetime.sol\":3325:3343  getHour(timestamp) */\n      jump\t// in\n    tag_262:\n        /* \"datetime.sol\":3315:3317  dt */\n      dup6\n        /* \"datetime.sol\":3315:3322  dt.hour */\n      0x60\n      add\n        /* \"datetime.sol\":3315:3343  dt.hour = getHour(timestamp) */\n      swap1\n      0xff\n      and\n      swap1\n      dup2\n      0xff\n      and\n      dup2\n      mstore\n      pop\n      pop\n        /* \"datetime.sol\":3403:3423  getMinute(timestamp) */\n      tag_263\n        /* \"datetime.sol\":3413:3422  timestamp */\n      dup7\n        /* \"datetime.sol\":3403:3412  getMinute */\n      tag_85\n        /* \"datetime.sol\":3403:3423  getMinute(timestamp) */\n      jump\t// in\n    tag_263:\n        /* \"datetime.sol\":3391:3393  dt */\n      dup6\n        /* \"datetime.sol\":3391:3400  dt.minute */\n      0x80\n      add\n        /* \"datetime.sol\":3391:3423  dt.minute = getMinute(timestamp) */\n      swap1\n      0xff\n      and\n      swap1\n      dup2\n      0xff\n      and\n      dup2\n      mstore\n      pop\n      pop\n        /* \"datetime.sol\":3483:3503  getSecond(timestamp) */\n      tag_264\n        /* \"datetime.sol\":3493:3502  timestamp */\n      dup7\n        /* \"datetime.sol\":3483:3492  getSecond */\n      tag_47\n        /* \"datetime.sol\":3483:3503  getSecond(timestamp) */\n      jump\t// in\n    tag_264:\n        /* \"datetime.sol\":3471:3473  dt */\n      dup6\n        /* \"datetime.sol\":3471:3480  dt.second */\n      0xa0\n      add\n        /* \"datetime.sol\":3471:3503  dt.second = getSecond(timestamp) */\n      swap1\n      0xff\n      and\n      swap1\n      dup2\n      0xff\n      and\n      dup2\n      mstore\n      pop\n      pop\n        /* \"datetime.sol\":3570:3591  getWeekday(timestamp) */\n      tag_265\n        /* \"datetime.sol\":3581:3590  timestamp */\n      dup7\n        /* \"datetime.sol\":3570:3580  getWeekday */\n      tag_28\n        /* \"datetime.sol\":3570:3591  getWeekday(timestamp) */\n      jump\t// in\n    tag_265:\n        /* \"datetime.sol\":3557:3559  dt */\n      dup6\n        /* \"datetime.sol\":3557:3567  dt.weekday */\n      0xc0\n      add\n        /* \"datetime.sol\":3557:3591  dt.weekday = getWeekday(timestamp) */\n      swap1\n      0xff\n      and\n      swap1\n      dup2\n      0xff\n      and\n      dup2\n      mstore\n      pop\n      pop\n        /* \"datetime.sol\":2002:3603  {\r... */\n      pop\n      pop\n      pop\n      pop\n        /* \"datetime.sol\":1918:3603  function parseTimestamp(uint timestamp) internal pure returns (_DateTime memory dt) {\r... */\n      swap2\n      swap1\n      pop\n      jump\t// out\n    tag_121:\n      mload(0x40)\n      dup1\n      0x0180\n      add\n      0x40\n      mstore\n      dup1\n      0x0c\n      swap1\n      0x20\n      dup3\n      mul\n      dup1\n      calldatasize\n      dup4\n      calldatacopy\n      dup1\n      dup3\n      add\n      swap2\n      pop\n      pop\n      swap1\n      pop\n      pop\n      swap1\n      jump\t// out\n    tag_232:\n      mload(0x40)\n      dup1\n      0xe0\n      add\n      0x40\n      mstore\n      dup1\n      and(0xffff, 0x00)\n      dup2\n      mstore\n      0x20\n      add\n      and(0xff, 0x00)\n      dup2\n      mstore\n      0x20\n      add\n      and(0xff, 0x00)\n      dup2\n      mstore\n      0x20\n      add\n      and(0xff, 0x00)\n      dup2\n      mstore\n      0x20\n      add\n      and(0xff, 0x00)\n      dup2\n      mstore\n      0x20\n      add\n      and(0xff, 0x00)\n      dup2\n      mstore\n      0x20\n      add\n      and(0xff, 0x00)\n      dup2\n      mstore\n      pop\n      swap1\n      jump\t// out\n        /* \"#utility.yul\":7:144   */\n    tag_267:\n        /* \"#utility.yul\":52:57   */\n      0x00\n        /* \"#utility.yul\":90:96   */\n      dup2\n        /* \"#utility.yul\":77:97   */\n      calldataload\n        /* \"#utility.yul\":68:97   */\n      swap1\n      pop\n        /* \"#utility.yul\":106:138   */\n      tag_269\n        /* \"#utility.yul\":132:137   */\n      dup2\n        /* \"#utility.yul\":106:138   */\n      tag_270\n      jump\t// in\n    tag_269:\n        /* \"#utility.yul\":7:144   */\n      swap3\n      swap2\n      pop\n      pop\n      jump\t// out\n        /* \"#utility.yul\":150:289   */\n    tag_271:\n        /* \"#utility.yul\":196:201   */\n      0x00\n        /* \"#utility.yul\":234:240   */\n      dup2\n        /* \"#utility.yul\":221:241   */\n      calldataload\n        /* \"#utility.yul\":212:241   */\n      swap1\n      pop\n        /* \"#utility.yul\":250:283   */\n      tag_273\n        /* \"#utility.yul\":277:282   */\n      dup2\n        /* \"#utility.yul\":250:283   */\n      tag_274\n      jump\t// in\n    tag_273:\n        /* \"#utility.yul\":150:289   */\n      swap3\n      swap2\n      pop\n      pop\n      jump\t// out\n        /* \"#utility.yul\":295:430   */\n    tag_275:\n        /* \"#utility.yul\":339:344   */\n      0x00\n        /* \"#utility.yul\":377:383   */\n      dup2\n        /* \"#utility.yul\":364:384   */\n      calldataload\n        /* \"#utility.yul\":355:384   */\n      swap1\n      pop\n        /* \"#utility.yul\":393:424   */\n      tag_277\n        /* \"#utility.yul\":418:423   */\n      dup2\n        /* \"#utility.yul\":393:424   */\n      tag_278\n      jump\t// in\n    tag_277:\n        /* \"#utility.yul\":295:430   */\n      swap3\n      swap2\n      pop\n      pop\n      jump\t// out\n        /* \"#utility.yul\":436:763   */\n    tag_70:\n        /* \"#utility.yul\":494:500   */\n      0x00\n        /* \"#utility.yul\":543:545   */\n      0x20\n        /* \"#utility.yul\":531:540   */\n      dup3\n        /* \"#utility.yul\":522:529   */\n      dup5\n        /* \"#utility.yul\":518:541   */\n      sub\n        /* \"#utility.yul\":514:546   */\n      slt\n        /* \"#utility.yul\":511:630   */\n      iszero\n      tag_280\n      jumpi\n        /* \"#utility.yul\":549:628   */\n      tag_281\n      tag_282\n      jump\t// in\n    tag_281:\n        /* \"#utility.yul\":511:630   */\n    tag_280:\n        /* \"#utility.yul\":669:670   */\n      0x00\n        /* \"#utility.yul\":694:746   */\n      tag_283\n        /* \"#utility.yul\":738:745   */\n      dup5\n        /* \"#utility.yul\":729:735   */\n      dup3\n        /* \"#utility.yul\":718:727   */\n      dup6\n        /* \"#utility.yul\":714:736   */\n      add\n        /* \"#utility.yul\":694:746   */\n      tag_267\n      jump\t// in\n    tag_283:\n        /* \"#utility.yul\":684:746   */\n      swap2\n      pop\n        /* \"#utility.yul\":640:756   */\n      pop\n        /* \"#utility.yul\":436:763   */\n      swap3\n      swap2\n      pop\n      pop\n      jump\t// out\n        /* \"#utility.yul\":769:1378   */\n    tag_51:\n        /* \"#utility.yul\":841:847   */\n      0x00\n        /* \"#utility.yul\":849:855   */\n      dup1\n        /* \"#utility.yul\":857:863   */\n      0x00\n        /* \"#utility.yul\":906:908   */\n      0x60\n        /* \"#utility.yul\":894:903   */\n      dup5\n        /* \"#utility.yul\":885:892   */\n      dup7\n        /* \"#utility.yul\":881:904   */\n      sub\n        /* \"#utility.yul\":877:909   */\n      slt\n        /* \"#utility.yul\":874:993   */\n      iszero\n      tag_285\n      jumpi\n        /* \"#utility.yul\":912:991   */\n      tag_286\n      tag_282\n      jump\t// in\n    tag_286:\n        /* \"#utility.yul\":874:993   */\n    tag_285:\n        /* \"#utility.yul\":1032:1033   */\n      0x00\n        /* \"#utility.yul\":1057:1109   */\n      tag_287\n        /* \"#utility.yul\":1101:1108   */\n      dup7\n        /* \"#utility.yul\":1092:1098   */\n      dup3\n        /* \"#utility.yul\":1081:1090   */\n      dup8\n        /* \"#utility.yul\":1077:1099   */\n      add\n        /* \"#utility.yul\":1057:1109   */\n      tag_267\n      jump\t// in\n    tag_287:\n        /* \"#utility.yul\":1047:1109   */\n      swap4\n      pop\n        /* \"#utility.yul\":1003:1119   */\n      pop\n        /* \"#utility.yul\":1158:1160   */\n      0x20\n        /* \"#utility.yul\":1184:1235   */\n      tag_288\n        /* \"#utility.yul\":1227:1234   */\n      dup7\n        /* \"#utility.yul\":1218:1224   */\n      dup3\n        /* \"#utility.yul\":1207:1216   */\n      dup8\n        /* \"#utility.yul\":1203:1225   */\n      add\n        /* \"#utility.yul\":1184:1235   */\n      tag_275\n      jump\t// in\n    tag_288:\n        /* \"#utility.yul\":1174:1235   */\n      swap3\n      pop\n        /* \"#utility.yul\":1129:1245   */\n      pop\n        /* \"#utility.yul\":1284:1286   */\n      0x40\n        /* \"#utility.yul\":1310:1361   */\n      tag_289\n        /* \"#utility.yul\":1353:1360   */\n      dup7\n        /* \"#utility.yul\":1344:1350   */\n      dup3\n        /* \"#utility.yul\":1333:1342   */\n      dup8\n        /* \"#utility.yul\":1329:1351   */\n      add\n        /* \"#utility.yul\":1310:1361   */\n      tag_275\n      jump\t// in\n    tag_289:\n        /* \"#utility.yul\":1300:1361   */\n      swap2\n      pop\n        /* \"#utility.yul\":1255:1371   */\n      pop\n        /* \"#utility.yul\":769:1378   */\n      swap3\n      pop\n      swap3\n      pop\n      swap3\n      jump\t// out\n        /* \"#utility.yul\":1384:2135   */\n    tag_42:\n        /* \"#utility.yul\":1463:1469   */\n      0x00\n        /* \"#utility.yul\":1471:1477   */\n      dup1\n        /* \"#utility.yul\":1479:1485   */\n      0x00\n        /* \"#utility.yul\":1487:1493   */\n      dup1\n        /* \"#utility.yul\":1536:1539   */\n      0x80\n        /* \"#utility.yul\":1524:1533   */\n      dup6\n        /* \"#utility.yul\":1515:1522   */\n      dup8\n        /* \"#utility.yul\":1511:1534   */\n      sub\n        /* \"#utility.yul\":1507:1540   */\n      slt\n        /* \"#utility.yul\":1504:1624   */\n      iszero\n      tag_291\n      jumpi\n        /* \"#utility.yul\":1543:1622   */\n      tag_292\n      tag_282\n      jump\t// in\n    tag_292:\n        /* \"#utility.yul\":1504:1624   */\n    tag_291:\n        /* \"#utility.yul\":1663:1664   */\n      0x00\n        /* \"#utility.yul\":1688:1740   */\n      tag_293\n        /* \"#utility.yul\":1732:1739   */\n      dup8\n        /* \"#utility.yul\":1723:1729   */\n      dup3\n        /* \"#utility.yul\":1712:1721   */\n      dup9\n        /* \"#utility.yul\":1708:1730   */\n      add\n        /* \"#utility.yul\":1688:1740   */\n      tag_267\n      jump\t// in\n    tag_293:\n        /* \"#utility.yul\":1678:1740   */\n      swap5\n      pop\n        /* \"#utility.yul\":1634:1750   */\n      pop\n        /* \"#utility.yul\":1789:1791   */\n      0x20\n        /* \"#utility.yul\":1815:1866   */\n      tag_294\n        /* \"#utility.yul\":1858:1865   */\n      dup8\n        /* \"#utility.yul\":1849:1855   */\n      dup3\n        /* \"#utility.yul\":1838:1847   */\n      dup9\n        /* \"#utility.yul\":1834:1856   */\n      add\n        /* \"#utility.yul\":1815:1866   */\n      tag_275\n      jump\t// in\n    tag_294:\n        /* \"#utility.yul\":1805:1866   */\n      swap4\n      pop\n        /* \"#utility.yul\":1760:1876   */\n      pop\n        /* \"#utility.yul\":1915:1917   */\n      0x40\n        /* \"#utility.yul\":1941:1992   */\n      tag_295\n        /* \"#utility.yul\":1984:1991   */\n      dup8\n        /* \"#utility.yul\":1975:1981   */\n      dup3\n        /* \"#utility.yul\":1964:1973   */\n      dup9\n        /* \"#utility.yul\":1960:1982   */\n      add\n        /* \"#utility.yul\":1941:1992   */\n      tag_275\n      jump\t// in\n    tag_295:\n        /* \"#utility.yul\":1931:1992   */\n      swap3\n      pop\n        /* \"#utility.yul\":1886:2002   */\n      pop\n        /* \"#utility.yul\":2041:2043   */\n      0x60\n        /* \"#utility.yul\":2067:2118   */\n      tag_296\n        /* \"#utility.yul\":2110:2117   */\n      dup8\n        /* \"#utility.yul\":2101:2107   */\n      dup3\n        /* \"#utility.yul\":2090:2099   */\n      dup9\n        /* \"#utility.yul\":2086:2108   */\n      add\n        /* \"#utility.yul\":2067:2118   */\n      tag_275\n      jump\t// in\n    tag_296:\n        /* \"#utility.yul\":2057:2118   */\n      swap2\n      pop\n        /* \"#utility.yul\":2012:2128   */\n      pop\n        /* \"#utility.yul\":1384:2135   */\n      swap3\n      swap6\n      swap2\n      swap5\n      pop\n      swap3\n      pop\n      jump\t// out\n        /* \"#utility.yul\":2141:3034   */\n    tag_32:\n        /* \"#utility.yul\":2227:2233   */\n      0x00\n        /* \"#utility.yul\":2235:2241   */\n      dup1\n        /* \"#utility.yul\":2243:2249   */\n      0x00\n        /* \"#utility.yul\":2251:2257   */\n      dup1\n        /* \"#utility.yul\":2259:2265   */\n      0x00\n        /* \"#utility.yul\":2308:2311   */\n      0xa0\n        /* \"#utility.yul\":2296:2305   */\n      dup7\n        /* \"#utility.yul\":2287:2294   */\n      dup9\n        /* \"#utility.yul\":2283:2306   */\n      sub\n        /* \"#utility.yul\":2279:2312   */\n      slt\n        /* \"#utility.yul\":2276:2396   */\n      iszero\n      tag_298\n      jumpi\n        /* \"#utility.yul\":2315:2394   */\n      tag_299\n      tag_282\n      jump\t// in\n    tag_299:\n        /* \"#utility.yul\":2276:2396   */\n    tag_298:\n        /* \"#utility.yul\":2435:2436   */\n      0x00\n        /* \"#utility.yul\":2460:2512   */\n      tag_300\n        /* \"#utility.yul\":2504:2511   */\n      dup9\n        /* \"#utility.yul\":2495:2501   */\n      dup3\n        /* \"#utility.yul\":2484:2493   */\n      dup10\n        /* \"#utility.yul\":2480:2502   */\n      add\n        /* \"#utility.yul\":2460:2512   */\n      tag_267\n      jump\t// in\n    tag_300:\n        /* \"#utility.yul\":2450:2512   */\n      swap6\n      pop\n        /* \"#utility.yul\":2406:2522   */\n      pop\n        /* \"#utility.yul\":2561:2563   */\n      0x20\n        /* \"#utility.yul\":2587:2638   */\n      tag_301\n        /* \"#utility.yul\":2630:2637   */\n      dup9\n        /* \"#utility.yul\":2621:2627   */\n      dup3\n        /* \"#utility.yul\":2610:2619   */\n      dup10\n        /* \"#utility.yul\":2606:2628   */\n      add\n        /* \"#utility.yul\":2587:2638   */\n      tag_275\n      jump\t// in\n    tag_301:\n        /* \"#utility.yul\":2577:2638   */\n      swap5\n      pop\n        /* \"#utility.yul\":2532:2648   */\n      pop\n        /* \"#utility.yul\":2687:2689   */\n      0x40\n        /* \"#utility.yul\":2713:2764   */\n      tag_302\n        /* \"#utility.yul\":2756:2763   */\n      dup9\n        /* \"#utility.yul\":2747:2753   */\n      dup3\n        /* \"#utility.yul\":2736:2745   */\n      dup10\n        /* \"#utility.yul\":2732:2754   */\n      add\n        /* \"#utility.yul\":2713:2764   */\n      tag_275\n      jump\t// in\n    tag_302:\n        /* \"#utility.yul\":2703:2764   */\n      swap4\n      pop\n        /* \"#utility.yul\":2658:2774   */\n      pop\n        /* \"#utility.yul\":2813:2815   */\n      0x60\n        /* \"#utility.yul\":2839:2890   */\n      tag_303\n        /* \"#utility.yul\":2882:2889   */\n      dup9\n        /* \"#utility.yul\":2873:2879   */\n      dup3\n        /* \"#utility.yul\":2862:2871   */\n      dup10\n        /* \"#utility.yul\":2858:2880   */\n      add\n        /* \"#utility.yul\":2839:2890   */\n      tag_275\n      jump\t// in\n    tag_303:\n        /* \"#utility.yul\":2829:2890   */\n      swap3\n      pop\n        /* \"#utility.yul\":2784:2900   */\n      pop\n        /* \"#utility.yul\":2939:2942   */\n      0x80\n        /* \"#utility.yul\":2966:3017   */\n      tag_304\n        /* \"#utility.yul\":3009:3016   */\n      dup9\n        /* \"#utility.yul\":3000:3006   */\n      dup3\n        /* \"#utility.yul\":2989:2998   */\n      dup10\n        /* \"#utility.yul\":2985:3007   */\n      add\n        /* \"#utility.yul\":2966:3017   */\n      tag_275\n      jump\t// in\n    tag_304:\n        /* \"#utility.yul\":2956:3017   */\n      swap2\n      pop\n        /* \"#utility.yul\":2910:3027   */\n      pop\n        /* \"#utility.yul\":2141:3034   */\n      swap3\n      swap6\n      pop\n      swap3\n      swap6\n      swap1\n      swap4\n      pop\n      jump\t// out\n        /* \"#utility.yul\":3040:4075   */\n    tag_56:\n        /* \"#utility.yul\":3133:3139   */\n      0x00\n        /* \"#utility.yul\":3141:3147   */\n      dup1\n        /* \"#utility.yul\":3149:3155   */\n      0x00\n        /* \"#utility.yul\":3157:3163   */\n      dup1\n        /* \"#utility.yul\":3165:3171   */\n      0x00\n        /* \"#utility.yul\":3173:3179   */\n      dup1\n        /* \"#utility.yul\":3222:3225   */\n      0xc0\n        /* \"#utility.yul\":3210:3219   */\n      dup8\n        /* \"#utility.yul\":3201:3208   */\n      dup10\n        /* \"#utility.yul\":3197:3220   */\n      sub\n        /* \"#utility.yul\":3193:3226   */\n      slt\n        /* \"#utility.yul\":3190:3310   */\n      iszero\n      tag_306\n      jumpi\n        /* \"#utility.yul\":3229:3308   */\n      tag_307\n      tag_282\n      jump\t// in\n    tag_307:\n        /* \"#utility.yul\":3190:3310   */\n    tag_306:\n        /* \"#utility.yul\":3349:3350   */\n      0x00\n        /* \"#utility.yul\":3374:3426   */\n      tag_308\n        /* \"#utility.yul\":3418:3425   */\n      dup10\n        /* \"#utility.yul\":3409:3415   */\n      dup3\n        /* \"#utility.yul\":3398:3407   */\n      dup11\n        /* \"#utility.yul\":3394:3416   */\n      add\n        /* \"#utility.yul\":3374:3426   */\n      tag_267\n      jump\t// in\n    tag_308:\n        /* \"#utility.yul\":3364:3426   */\n      swap7\n      pop\n        /* \"#utility.yul\":3320:3436   */\n      pop\n        /* \"#utility.yul\":3475:3477   */\n      0x20\n        /* \"#utility.yul\":3501:3552   */\n      tag_309\n        /* \"#utility.yul\":3544:3551   */\n      dup10\n        /* \"#utility.yul\":3535:3541   */\n      dup3\n        /* \"#utility.yul\":3524:3533   */\n      dup11\n        /* \"#utility.yul\":3520:3542   */\n      add\n        /* \"#utility.yul\":3501:3552   */\n      tag_275\n      jump\t// in\n    tag_309:\n        /* \"#utility.yul\":3491:3552   */\n      swap6\n      pop\n        /* \"#utility.yul\":3446:3562   */\n      pop\n        /* \"#utility.yul\":3601:3603   */\n      0x40\n        /* \"#utility.yul\":3627:3678   */\n      tag_310\n        /* \"#utility.yul\":3670:3677   */\n      dup10\n        /* \"#utility.yul\":3661:3667   */\n      dup3\n        /* \"#utility.yul\":3650:3659   */\n      dup11\n        /* \"#utility.yul\":3646:3668   */\n      add\n        /* \"#utility.yul\":3627:3678   */\n      tag_275\n      jump\t// in\n    tag_310:\n        /* \"#utility.yul\":3617:3678   */\n      swap5\n      pop\n        /* \"#utility.yul\":3572:3688   */\n      pop\n        /* \"#utility.yul\":3727:3729   */\n      0x60\n        /* \"#utility.yul\":3753:3804   */\n      tag_311\n        /* \"#utility.yul\":3796:3803   */\n      dup10\n        /* \"#utility.yul\":3787:3793   */\n      dup3\n        /* \"#utility.yul\":3776:3785   */\n      dup11\n        /* \"#utility.yul\":3772:3794   */\n      add\n        /* \"#utility.yul\":3753:3804   */\n      tag_275\n      jump\t// in\n    tag_311:\n        /* \"#utility.yul\":3743:3804   */\n      swap4\n      pop\n        /* \"#utility.yul\":3698:3814   */\n      pop\n        /* \"#utility.yul\":3853:3856   */\n      0x80\n        /* \"#utility.yul\":3880:3931   */\n      tag_312\n        /* \"#utility.yul\":3923:3930   */\n      dup10\n        /* \"#utility.yul\":3914:3920   */\n      dup3\n        /* \"#utility.yul\":3903:3912   */\n      dup11\n        /* \"#utility.yul\":3899:3921   */\n      add\n        /* \"#utility.yul\":3880:3931   */\n      tag_275\n      jump\t// in\n    tag_312:\n        /* \"#utility.yul\":3870:3931   */\n      swap3\n      pop\n        /* \"#utility.yul\":3824:3941   */\n      pop\n        /* \"#utility.yul\":3980:3983   */\n      0xa0\n        /* \"#utility.yul\":4007:4058   */\n      tag_313\n        /* \"#utility.yul\":4050:4057   */\n      dup10\n        /* \"#utility.yul\":4041:4047   */\n      dup3\n        /* \"#utility.yul\":4030:4039   */\n      dup11\n        /* \"#utility.yul\":4026:4048   */\n      add\n        /* \"#utility.yul\":4007:4058   */\n      tag_275\n      jump\t// in\n    tag_313:\n        /* \"#utility.yul\":3997:4058   */\n      swap2\n      pop\n        /* \"#utility.yul\":3951:4068   */\n      pop\n        /* \"#utility.yul\":3040:4075   */\n      swap3\n      swap6\n      pop\n      swap3\n      swap6\n      pop\n      swap3\n      swap6\n      jump\t// out\n        /* \"#utility.yul\":4081:4410   */\n    tag_22:\n        /* \"#utility.yul\":4140:4146   */\n      0x00\n        /* \"#utility.yul\":4189:4191   */\n      0x20\n        /* \"#utility.yul\":4177:4186   */\n      dup3\n        /* \"#utility.yul\":4168:4175   */\n      dup5\n        /* \"#utility.yul\":4164:4187   */\n      sub\n        /* \"#utility.yul\":4160:4192   */\n      slt\n        /* \"#utility.yul\":4157:4276   */\n      iszero\n      tag_315\n      jumpi\n        /* \"#utility.yul\":4195:4274   */\n      tag_316\n      tag_282\n      jump\t// in\n    tag_316:\n        /* \"#utility.yul\":4157:4276   */\n    tag_315:\n        /* \"#utility.yul\":4315:4316   */\n      0x00\n        /* \"#utility.yul\":4340:4393   */\n      tag_317\n        /* \"#utility.yul\":4385:4392   */\n      dup5\n        /* \"#utility.yul\":4376:4382   */\n      dup3\n        /* \"#utility.yul\":4365:4374   */\n      dup6\n        /* \"#utility.yul\":4361:4383   */\n      add\n        /* \"#utility.yul\":4340:4393   */\n      tag_271\n      jump\t// in\n    tag_317:\n        /* \"#utility.yul\":4330:4393   */\n      swap2\n      pop\n        /* \"#utility.yul\":4286:4403   */\n      pop\n        /* \"#utility.yul\":4081:4410   */\n      swap3\n      swap2\n      pop\n      pop\n      jump\t// out\n        /* \"#utility.yul\":4416:4884   */\n    tag_80:\n        /* \"#utility.yul\":4481:4487   */\n      0x00\n        /* \"#utility.yul\":4489:4495   */\n      dup1\n        /* \"#utility.yul\":4538:4540   */\n      0x40\n        /* \"#utility.yul\":4526:4535   */\n      dup4\n        /* \"#utility.yul\":4517:4524   */\n      dup6\n        /* \"#utility.yul\":4513:4536   */\n      sub\n        /* \"#utility.yul\":4509:4541   */\n      slt\n        /* \"#utility.yul\":4506:4625   */\n      iszero\n      tag_319\n      jumpi\n        /* \"#utility.yul\":4544:4623   */\n      tag_320\n      tag_282\n      jump\t// in\n    tag_320:\n        /* \"#utility.yul\":4506:4625   */\n    tag_319:\n        /* \"#utility.yul\":4664:4665   */\n      0x00\n        /* \"#utility.yul\":4689:4740   */\n      tag_321\n        /* \"#utility.yul\":4732:4739   */\n      dup6\n        /* \"#utility.yul\":4723:4729   */\n      dup3\n        /* \"#utility.yul\":4712:4721   */\n      dup7\n        /* \"#utility.yul\":4708:4730   */\n      add\n        /* \"#utility.yul\":4689:4740   */\n      tag_275\n      jump\t// in\n    tag_321:\n        /* \"#utility.yul\":4679:4740   */\n      swap3\n      pop\n        /* \"#utility.yul\":4635:4750   */\n      pop\n        /* \"#utility.yul\":4789:4791   */\n      0x20\n        /* \"#utility.yul\":4815:4867   */\n      tag_322\n        /* \"#utility.yul\":4859:4866   */\n      dup6\n        /* \"#utility.yul\":4850:4856   */\n      dup3\n        /* \"#utility.yul\":4839:4848   */\n      dup7\n        /* \"#utility.yul\":4835:4857   */\n      add\n        /* \"#utility.yul\":4815:4867   */\n      tag_267\n      jump\t// in\n    tag_322:\n        /* \"#utility.yul\":4805:4867   */\n      swap2\n      pop\n        /* \"#utility.yul\":4760:4877   */\n      pop\n        /* \"#utility.yul\":4416:4884   */\n      swap3\n      pop\n      swap3\n      swap1\n      pop\n      jump\t// out\n        /* \"#utility.yul\":4890:4999   */\n    tag_323:\n        /* \"#utility.yul\":4971:4992   */\n      tag_325\n        /* \"#utility.yul\":4986:4991   */\n      dup2\n        /* \"#utility.yul\":4971:4992   */\n      tag_326\n      jump\t// in\n    tag_325:\n        /* \"#utility.yul\":4966:4969   */\n      dup3\n        /* \"#utility.yul\":4959:4993   */\n      mstore\n        /* \"#utility.yul\":4890:4999   */\n      pop\n      pop\n      jump\t// out\n        /* \"#utility.yul\":5005:5120   */\n    tag_327:\n        /* \"#utility.yul\":5090:5113   */\n      tag_329\n        /* \"#utility.yul\":5107:5112   */\n      dup2\n        /* \"#utility.yul\":5090:5113   */\n      tag_330\n      jump\t// in\n    tag_329:\n        /* \"#utility.yul\":5085:5088   */\n      dup3\n        /* \"#utility.yul\":5078:5114   */\n      mstore\n        /* \"#utility.yul\":5005:5120   */\n      pop\n      pop\n      jump\t// out\n        /* \"#utility.yul\":5126:5244   */\n    tag_331:\n        /* \"#utility.yul\":5213:5237   */\n      tag_333\n        /* \"#utility.yul\":5231:5236   */\n      dup2\n        /* \"#utility.yul\":5213:5237   */\n      tag_334\n      jump\t// in\n    tag_333:\n        /* \"#utility.yul\":5208:5211   */\n      dup3\n        /* \"#utility.yul\":5201:5238   */\n      mstore\n        /* \"#utility.yul\":5126:5244   */\n      pop\n      pop\n      jump\t// out\n        /* \"#utility.yul\":5250:5362   */\n    tag_335:\n        /* \"#utility.yul\":5333:5355   */\n      tag_337\n        /* \"#utility.yul\":5349:5354   */\n      dup2\n        /* \"#utility.yul\":5333:5355   */\n      tag_338\n      jump\t// in\n    tag_337:\n        /* \"#utility.yul\":5328:5331   */\n      dup3\n        /* \"#utility.yul\":5321:5356   */\n      mstore\n        /* \"#utility.yul\":5250:5362   */\n      pop\n      pop\n      jump\t// out\n        /* \"#utility.yul\":5368:5578   */\n    tag_73:\n        /* \"#utility.yul\":5455:5459   */\n      0x00\n        /* \"#utility.yul\":5493:5495   */\n      0x20\n        /* \"#utility.yul\":5482:5491   */\n      dup3\n        /* \"#utility.yul\":5478:5496   */\n      add\n        /* \"#utility.yul\":5470:5496   */\n      swap1\n      pop\n        /* \"#utility.yul\":5506:5571   */\n      tag_340\n        /* \"#utility.yul\":5568:5569   */\n      0x00\n        /* \"#utility.yul\":5557:5566   */\n      dup4\n        /* \"#utility.yul\":5553:5570   */\n      add\n        /* \"#utility.yul\":5544:5550   */\n      dup5\n        /* \"#utility.yul\":5506:5571   */\n      tag_323\n      jump\t// in\n    tag_340:\n        /* \"#utility.yul\":5368:5578   */\n      swap3\n      swap2\n      pop\n      pop\n      jump\t// out\n        /* \"#utility.yul\":5584:5802   */\n    tag_63:\n        /* \"#utility.yul\":5675:5679   */\n      0x00\n        /* \"#utility.yul\":5713:5715   */\n      0x20\n        /* \"#utility.yul\":5702:5711   */\n      dup3\n        /* \"#utility.yul\":5698:5716   */\n      add\n        /* \"#utility.yul\":5690:5716   */\n      swap1\n      pop\n        /* \"#utility.yul\":5726:5795   */\n      tag_342\n        /* \"#utility.yul\":5792:5793   */\n      0x00\n        /* \"#utility.yul\":5781:5790   */\n      dup4\n        /* \"#utility.yul\":5777:5794   */\n      add\n        /* \"#utility.yul\":5768:5774   */\n      dup5\n        /* \"#utility.yul\":5726:5795   */\n      tag_327\n      jump\t// in\n    tag_342:\n        /* \"#utility.yul\":5584:5802   */\n      swap3\n      swap2\n      pop\n      pop\n      jump\t// out\n        /* \"#utility.yul\":5808:6030   */\n    tag_35:\n        /* \"#utility.yul\":5901:5905   */\n      0x00\n        /* \"#utility.yul\":5939:5941   */\n      0x20\n        /* \"#utility.yul\":5928:5937   */\n      dup3\n        /* \"#utility.yul\":5924:5942   */\n      add\n        /* \"#utility.yul\":5916:5942   */\n      swap1\n      pop\n        /* \"#utility.yul\":5952:6023   */\n      tag_344\n        /* \"#utility.yul\":6020:6021   */\n      0x00\n        /* \"#utility.yul\":6009:6018   */\n      dup4\n        /* \"#utility.yul\":6005:6022   */\n      add\n        /* \"#utility.yul\":5996:6002   */\n      dup5\n        /* \"#utility.yul\":5952:6023   */\n      tag_331\n      jump\t// in\n    tag_344:\n        /* \"#utility.yul\":5808:6030   */\n      swap3\n      swap2\n      pop\n      pop\n      jump\t// out\n        /* \"#utility.yul\":6036:6250   */\n    tag_25:\n        /* \"#utility.yul\":6125:6129   */\n      0x00\n        /* \"#utility.yul\":6163:6165   */\n      0x20\n        /* \"#utility.yul\":6152:6161   */\n      dup3\n        /* \"#utility.yul\":6148:6166   */\n      add\n        /* \"#utility.yul\":6140:6166   */\n      swap1\n      pop\n        /* \"#utility.yul\":6176:6243   */\n      tag_346\n        /* \"#utility.yul\":6240:6241   */\n      0x00\n        /* \"#utility.yul\":6229:6238   */\n      dup4\n        /* \"#utility.yul\":6225:6242   */\n      add\n        /* \"#utility.yul\":6216:6222   */\n      dup5\n        /* \"#utility.yul\":6176:6243   */\n      tag_335\n      jump\t// in\n    tag_346:\n        /* \"#utility.yul\":6036:6250   */\n      swap3\n      swap2\n      pop\n      pop\n      jump\t// out\n        /* \"#utility.yul\":6337:6642   */\n    tag_96:\n        /* \"#utility.yul\":6377:6380   */\n      0x00\n        /* \"#utility.yul\":6396:6416   */\n      tag_350\n        /* \"#utility.yul\":6414:6415   */\n      dup3\n        /* \"#utility.yul\":6396:6416   */\n      tag_334\n      jump\t// in\n    tag_350:\n        /* \"#utility.yul\":6391:6416   */\n      swap2\n      pop\n        /* \"#utility.yul\":6430:6450   */\n      tag_351\n        /* \"#utility.yul\":6448:6449   */\n      dup4\n        /* \"#utility.yul\":6430:6450   */\n      tag_334\n      jump\t// in\n    tag_351:\n        /* \"#utility.yul\":6425:6450   */\n      swap3\n      pop\n        /* \"#utility.yul\":6584:6585   */\n      dup3\n        /* \"#utility.yul\":6516:6582   */\n      0xffffffffffffffffffffffffffffffffffffffffffffffffffffffffffffffff\n        /* \"#utility.yul\":6512:6586   */\n      sub\n        /* \"#utility.yul\":6509:6510   */\n      dup3\n        /* \"#utility.yul\":6506:6587   */\n      gt\n        /* \"#utility.yul\":6503:6610   */\n      iszero\n      tag_352\n      jumpi\n        /* \"#utility.yul\":6590:6608   */\n      tag_353\n      tag_354\n      jump\t// in\n    tag_353:\n        /* \"#utility.yul\":6503:6610   */\n    tag_352:\n        /* \"#utility.yul\":6634:6635   */\n      dup3\n        /* \"#utility.yul\":6631:6632   */\n      dup3\n        /* \"#utility.yul\":6627:6636   */\n      add\n        /* \"#utility.yul\":6620:6636   */\n      swap1\n      pop\n        /* \"#utility.yul\":6337:6642   */\n      swap3\n      swap2\n      pop\n      pop\n      jump\t// out\n        /* \"#utility.yul\":6648:6833   */\n    tag_89:\n        /* \"#utility.yul\":6688:6689   */\n      0x00\n        /* \"#utility.yul\":6705:6725   */\n      tag_356\n        /* \"#utility.yul\":6723:6724   */\n      dup3\n        /* \"#utility.yul\":6705:6725   */\n      tag_334\n      jump\t// in\n    tag_356:\n        /* \"#utility.yul\":6700:6725   */\n      swap2\n      pop\n        /* \"#utility.yul\":6739:6759   */\n      tag_357\n        /* \"#utility.yul\":6757:6758   */\n      dup4\n        /* \"#utility.yul\":6739:6759   */\n      tag_334\n      jump\t// in\n    tag_357:\n        /* \"#utility.yul\":6734:6759   */\n      swap3\n      pop\n        /* \"#utility.yul\":6778:6779   */\n      dup3\n        /* \"#utility.yul\":6768:6803   */\n      tag_358\n      jumpi\n        /* \"#utility.yul\":6783:6801   */\n      tag_359\n      tag_360\n      jump\t// in\n    tag_359:\n        /* \"#utility.yul\":6768:6803   */\n    tag_358:\n        /* \"#utility.yul\":6825:6826   */\n      dup3\n        /* \"#utility.yul\":6822:6823   */\n      dup3\n        /* \"#utility.yul\":6818:6827   */\n      div\n        /* \"#utility.yul\":6813:6827   */\n      swap1\n      pop\n        /* \"#utility.yul\":6648:6833   */\n      swap3\n      swap2\n      pop\n      pop\n      jump\t// out\n        /* \"#utility.yul\":6839:7187   */\n    tag_160:\n        /* \"#utility.yul\":6879:6886   */\n      0x00\n        /* \"#utility.yul\":6902:6922   */\n      tag_362\n        /* \"#utility.yul\":6920:6921   */\n      dup3\n        /* \"#utility.yul\":6902:6922   */\n      tag_334\n      jump\t// in\n    tag_362:\n        /* \"#utility.yul\":6897:6922   */\n      swap2\n      pop\n        /* \"#utility.yul\":6936:6956   */\n      tag_363\n        /* \"#utility.yul\":6954:6955   */\n      dup4\n        /* \"#utility.yul\":6936:6956   */\n      tag_334\n      jump\t// in\n    tag_363:\n        /* \"#utility.yul\":6931:6956   */\n      swap3\n      pop\n        /* \"#utility.yul\":7124:7125   */\n      dup2\n        /* \"#utility.yul\":7056:7122   */\n      0xffffffffffffffffffffffffffffffffffffffffffffffffffffffffffffffff\n        /* \"#utility.yul\":7052:7126   */\n      div\n        /* \"#utility.yul\":7049:7050   */\n      dup4\n        /* \"#utility.yul\":7046:7127   */\n      gt\n        /* \"#utility.yul\":7041:7042   */\n      dup3\n        /* \"#utility.yul\":7034:7043   */\n      iszero\n        /* \"#utility.yul\":7027:7044   */\n      iszero\n        /* \"#utility.yul\":7023:7128   */\n      and\n        /* \"#utility.yul\":7020:7151   */\n      iszero\n      tag_364\n      jumpi\n        /* \"#utility.yul\":7131:7149   */\n      tag_365\n      tag_354\n      jump\t// in\n    tag_365:\n        /* \"#utility.yul\":7020:7151   */\n    tag_364:\n        /* \"#utility.yul\":7179:7180   */\n      dup3\n        /* \"#utility.yul\":7176:7177   */\n      dup3\n        /* \"#utility.yul\":7172:7181   */\n      mul\n        /* \"#utility.yul\":7161:7181   */\n      swap1\n      pop\n        /* \"#utility.yul\":6839:7187   */\n      swap3\n      swap2\n      pop\n      pop\n      jump\t// out\n        /* \"#utility.yul\":7193:7381   */\n    tag_156:\n        /* \"#utility.yul\":7232:7236   */\n      0x00\n        /* \"#utility.yul\":7252:7271   */\n      tag_367\n        /* \"#utility.yul\":7269:7270   */\n      dup3\n        /* \"#utility.yul\":7252:7271   */\n      tag_330\n      jump\t// in\n    tag_367:\n        /* \"#utility.yul\":7247:7271   */\n      swap2\n      pop\n        /* \"#utility.yul\":7285:7304   */\n      tag_368\n        /* \"#utility.yul\":7302:7303   */\n      dup4\n        /* \"#utility.yul\":7285:7304   */\n      tag_330\n      jump\t// in\n    tag_368:\n        /* \"#utility.yul\":7280:7304   */\n      swap3\n      pop\n        /* \"#utility.yul\":7323:7324   */\n      dup3\n        /* \"#utility.yul\":7320:7321   */\n      dup3\n        /* \"#utility.yul\":7317:7325   */\n      lt\n        /* \"#utility.yul\":7314:7348   */\n      iszero\n      tag_369\n      jumpi\n        /* \"#utility.yul\":7328:7346   */\n      tag_370\n      tag_354\n      jump\t// in\n    tag_370:\n        /* \"#utility.yul\":7314:7348   */\n    tag_369:\n        /* \"#utility.yul\":7373:7374   */\n      dup3\n        /* \"#utility.yul\":7370:7371   */\n      dup3\n        /* \"#utility.yul\":7366:7375   */\n      sub\n        /* \"#utility.yul\":7358:7375   */\n      swap1\n      pop\n        /* \"#utility.yul\":7193:7381   */\n      swap3\n      swap2\n      pop\n      pop\n      jump\t// out\n        /* \"#utility.yul\":7387:7578   */\n    tag_178:\n        /* \"#utility.yul\":7427:7431   */\n      0x00\n        /* \"#utility.yul\":7447:7467   */\n      tag_372\n        /* \"#utility.yul\":7465:7466   */\n      dup3\n        /* \"#utility.yul\":7447:7467   */\n      tag_334\n      jump\t// in\n    tag_372:\n        /* \"#utility.yul\":7442:7467   */\n      swap2\n      pop\n        /* \"#utility.yul\":7481:7501   */\n      tag_373\n        /* \"#utility.yul\":7499:7500   */\n      dup4\n        /* \"#utility.yul\":7481:7501   */\n      tag_334\n      jump\t// in\n    tag_373:\n        /* \"#utility.yul\":7476:7501   */\n      swap3\n      pop\n        /* \"#utility.yul\":7520:7521   */\n      dup3\n        /* \"#utility.yul\":7517:7518   */\n      dup3\n        /* \"#utility.yul\":7514:7522   */\n      lt\n        /* \"#utility.yul\":7511:7545   */\n      iszero\n      tag_374\n      jumpi\n        /* \"#utility.yul\":7525:7543   */\n      tag_375\n      tag_354\n      jump\t// in\n    tag_375:\n        /* \"#utility.yul\":7511:7545   */\n    tag_374:\n        /* \"#utility.yul\":7570:7571   */\n      dup3\n        /* \"#utility.yul\":7567:7568   */\n      dup3\n        /* \"#utility.yul\":7563:7572   */\n      sub\n        /* \"#utility.yul\":7555:7572   */\n      swap1\n      pop\n        /* \"#utility.yul\":7387:7578   */\n      swap3\n      swap2\n      pop\n      pop\n      jump\t// out\n        /* \"#utility.yul\":7584:7769   */\n    tag_164:\n        /* \"#utility.yul\":7622:7626   */\n      0x00\n        /* \"#utility.yul\":7642:7660   */\n      tag_377\n        /* \"#utility.yul\":7658:7659   */\n      dup3\n        /* \"#utility.yul\":7642:7660   */\n      tag_338\n      jump\t// in\n    tag_377:\n        /* \"#utility.yul\":7637:7660   */\n      swap2\n      pop\n        /* \"#utility.yul\":7674:7692   */\n      tag_378\n        /* \"#utility.yul\":7690:7691   */\n      dup4\n        /* \"#utility.yul\":7674:7692   */\n      tag_338\n      jump\t// in\n    tag_378:\n        /* \"#utility.yul\":7669:7692   */\n      swap3\n      pop\n        /* \"#utility.yul\":7711:7712   */\n      dup3\n        /* \"#utility.yul\":7708:7709   */\n      dup3\n        /* \"#utility.yul\":7705:7713   */\n      lt\n        /* \"#utility.yul\":7702:7736   */\n      iszero\n      tag_379\n      jumpi\n        /* \"#utility.yul\":7716:7734   */\n      tag_380\n      tag_354\n      jump\t// in\n    tag_380:\n        /* \"#utility.yul\":7702:7736   */\n    tag_379:\n        /* \"#utility.yul\":7761:7762   */\n      dup3\n        /* \"#utility.yul\":7758:7759   */\n      dup3\n        /* \"#utility.yul\":7754:7763   */\n      sub\n        /* \"#utility.yul\":7746:7763   */\n      swap1\n      pop\n        /* \"#utility.yul\":7584:7769   */\n      swap3\n      swap2\n      pop\n      pop\n      jump\t// out\n        /* \"#utility.yul\":7775:7865   */\n    tag_326:\n        /* \"#utility.yul\":7809:7816   */\n      0x00\n        /* \"#utility.yul\":7852:7857   */\n      dup2\n        /* \"#utility.yul\":7845:7858   */\n      iszero\n        /* \"#utility.yul\":7838:7859   */\n      iszero\n        /* \"#utility.yul\":7827:7859   */\n      swap1\n      pop\n        /* \"#utility.yul\":7775:7865   */\n      swap2\n      swap1\n      pop\n      jump\t// out\n        /* \"#utility.yul\":7871:7960   */\n    tag_330:\n        /* \"#utility.yul\":7907:7914   */\n      0x00\n        /* \"#utility.yul\":7947:7953   */\n      0xffff\n        /* \"#utility.yul\":7940:7945   */\n      dup3\n        /* \"#utility.yul\":7936:7954   */\n      and\n        /* \"#utility.yul\":7925:7954   */\n      swap1\n      pop\n        /* \"#utility.yul\":7871:7960   */\n      swap2\n      swap1\n      pop\n      jump\t// out\n        /* \"#utility.yul\":7966:8043   */\n    tag_334:\n        /* \"#utility.yul\":8003:8010   */\n      0x00\n        /* \"#utility.yul\":8032:8037   */\n      dup2\n        /* \"#utility.yul\":8021:8037   */\n      swap1\n      pop\n        /* \"#utility.yul\":7966:8043   */\n      swap2\n      swap1\n      pop\n      jump\t// out\n        /* \"#utility.yul\":8049:8135   */\n    tag_338:\n        /* \"#utility.yul\":8084:8091   */\n      0x00\n        /* \"#utility.yul\":8124:8128   */\n      0xff\n        /* \"#utility.yul\":8117:8122   */\n      dup3\n        /* \"#utility.yul\":8113:8129   */\n      and\n        /* \"#utility.yul\":8102:8129   */\n      swap1\n      pop\n        /* \"#utility.yul\":8049:8135   */\n      swap2\n      swap1\n      pop\n      jump\t// out\n        /* \"#utility.yul\":8141:8312   */\n    tag_119:\n        /* \"#utility.yul\":8179:8182   */\n      0x00\n        /* \"#utility.yul\":8202:8225   */\n      tag_386\n        /* \"#utility.yul\":8219:8224   */\n      dup3\n        /* \"#utility.yul\":8202:8225   */\n      tag_330\n      jump\t// in\n    tag_386:\n        /* \"#utility.yul\":8193:8225   */\n      swap2\n      pop\n        /* \"#utility.yul\":8247:8253   */\n      0xffff\n        /* \"#utility.yul\":8240:8245   */\n      dup3\n        /* \"#utility.yul\":8237:8254   */\n      eq\n        /* \"#utility.yul\":8234:8277   */\n      iszero\n      tag_387\n      jumpi\n        /* \"#utility.yul\":8257:8275   */\n      tag_388\n      tag_354\n      jump\t// in\n    tag_388:\n        /* \"#utility.yul\":8234:8277   */\n    tag_387:\n        /* \"#utility.yul\":8304:8305   */\n      0x01\n        /* \"#utility.yul\":8297:8302   */\n      dup3\n        /* \"#utility.yul\":8293:8306   */\n      add\n        /* \"#utility.yul\":8286:8306   */\n      swap1\n      pop\n        /* \"#utility.yul\":8141:8312   */\n      swap2\n      swap1\n      pop\n      jump\t// out\n        /* \"#utility.yul\":8318:8485   */\n    tag_253:\n        /* \"#utility.yul\":8355:8358   */\n      0x00\n        /* \"#utility.yul\":8378:8400   */\n      tag_390\n        /* \"#utility.yul\":8394:8399   */\n      dup3\n        /* \"#utility.yul\":8378:8400   */\n      tag_338\n      jump\t// in\n    tag_390:\n        /* \"#utility.yul\":8369:8400   */\n      swap2\n      pop\n        /* \"#utility.yul\":8422:8426   */\n      0xff\n        /* \"#utility.yul\":8415:8420   */\n      dup3\n        /* \"#utility.yul\":8412:8427   */\n      eq\n        /* \"#utility.yul\":8409:8450   */\n      iszero\n      tag_391\n      jumpi\n        /* \"#utility.yul\":8430:8448   */\n      tag_392\n      tag_354\n      jump\t// in\n    tag_392:\n        /* \"#utility.yul\":8409:8450   */\n    tag_391:\n        /* \"#utility.yul\":8477:8478   */\n      0x01\n        /* \"#utility.yul\":8470:8475   */\n      dup3\n        /* \"#utility.yul\":8466:8479   */\n      add\n        /* \"#utility.yul\":8459:8479   */\n      swap1\n      pop\n        /* \"#utility.yul\":8318:8485   */\n      swap2\n      swap1\n      pop\n      jump\t// out\n        /* \"#utility.yul\":8491:8664   */\n    tag_198:\n        /* \"#utility.yul\":8522:8523   */\n      0x00\n        /* \"#utility.yul\":8539:8558   */\n      tag_394\n        /* \"#utility.yul\":8556:8557   */\n      dup3\n        /* \"#utility.yul\":8539:8558   */\n      tag_330\n      jump\t// in\n    tag_394:\n        /* \"#utility.yul\":8534:8558   */\n      swap2\n      pop\n        /* \"#utility.yul\":8572:8591   */\n      tag_395\n        /* \"#utility.yul\":8589:8590   */\n      dup4\n        /* \"#utility.yul\":8572:8591   */\n      tag_330\n      jump\t// in\n    tag_395:\n        /* \"#utility.yul\":8567:8591   */\n      swap3\n      pop\n        /* \"#utility.yul\":8610:8611   */\n      dup3\n        /* \"#utility.yul\":8600:8635   */\n      tag_396\n      jumpi\n        /* \"#utility.yul\":8615:8633   */\n      tag_397\n      tag_360\n      jump\t// in\n    tag_397:\n        /* \"#utility.yul\":8600:8635   */\n    tag_396:\n        /* \"#utility.yul\":8656:8657   */\n      dup3\n        /* \"#utility.yul\":8653:8654   */\n      dup3\n        /* \"#utility.yul\":8649:8658   */\n      mod\n        /* \"#utility.yul\":8644:8658   */\n      swap1\n      pop\n        /* \"#utility.yul\":8491:8664   */\n      swap3\n      swap2\n      pop\n      pop\n      jump\t// out\n        /* \"#utility.yul\":8670:8846   */\n    tag_92:\n        /* \"#utility.yul\":8702:8703   */\n      0x00\n        /* \"#utility.yul\":8719:8739   */\n      tag_399\n        /* \"#utility.yul\":8737:8738   */\n      dup3\n        /* \"#utility.yul\":8719:8739   */\n      tag_334\n      jump\t// in\n    tag_399:\n        /* \"#utility.yul\":8714:8739   */\n      swap2\n      pop\n        /* \"#utility.yul\":8753:8773   */\n      tag_400\n        /* \"#utility.yul\":8771:8772   */\n      dup4\n        /* \"#utility.yul\":8753:8773   */\n      tag_334\n      jump\t// in\n    tag_400:\n        /* \"#utility.yul\":8748:8773   */\n      swap3\n      pop\n        /* \"#utility.yul\":8792:8793   */\n      dup3\n        /* \"#utility.yul\":8782:8817   */\n      tag_401\n      jumpi\n        /* \"#utility.yul\":8797:8815   */\n      tag_402\n      tag_360\n      jump\t// in\n    tag_402:\n        /* \"#utility.yul\":8782:8817   */\n    tag_401:\n        /* \"#utility.yul\":8838:8839   */\n      dup3\n        /* \"#utility.yul\":8835:8836   */\n      dup3\n        /* \"#utility.yul\":8831:8840   */\n      mod\n        /* \"#utility.yul\":8826:8840   */\n      swap1\n      pop\n        /* \"#utility.yul\":8670:8846   */\n      swap3\n      swap2\n      pop\n      pop\n      jump\t// out\n        /* \"#utility.yul\":8852:9032   */\n    tag_354:\n        /* \"#utility.yul\":8900:8977   */\n      0x4e487b7100000000000000000000000000000000000000000000000000000000\n        /* \"#utility.yul\":8897:8898   */\n      0x00\n        /* \"#utility.yul\":8890:8978   */\n      mstore\n        /* \"#utility.yul\":8997:9001   */\n      0x11\n        /* \"#utility.yul\":8994:8995   */\n      0x04\n        /* \"#utility.yul\":8987:9002   */\n      mstore\n        /* \"#utility.yul\":9021:9025   */\n      0x24\n        /* \"#utility.yul\":9018:9019   */\n      0x00\n        /* \"#utility.yul\":9011:9026   */\n      revert\n        /* \"#utility.yul\":9038:9218   */\n    tag_360:\n        /* \"#utility.yul\":9086:9163   */\n      0x4e487b7100000000000000000000000000000000000000000000000000000000\n        /* \"#utility.yul\":9083:9084   */\n      0x00\n        /* \"#utility.yul\":9076:9164   */\n      mstore\n        /* \"#utility.yul\":9183:9187   */\n      0x12\n        /* \"#utility.yul\":9180:9181   */\n      0x04\n        /* \"#utility.yul\":9173:9188   */\n      mstore\n        /* \"#utility.yul\":9207:9211   */\n      0x24\n        /* \"#utility.yul\":9204:9205   */\n      0x00\n        /* \"#utility.yul\":9197:9212   */\n      revert\n        /* \"#utility.yul\":9224:9404   */\n    tag_124:\n        /* \"#utility.yul\":9272:9349   */\n      0x4e487b7100000000000000000000000000000000000000000000000000000000\n        /* \"#utility.yul\":9269:9270   */\n      0x00\n        /* \"#utility.yul\":9262:9350   */\n      mstore\n        /* \"#utility.yul\":9369:9373   */\n      0x32\n        /* \"#utility.yul\":9366:9367   */\n      0x04\n        /* \"#utility.yul\":9359:9374   */\n      mstore\n        /* \"#utility.yul\":9393:9397   */\n      0x24\n        /* \"#utility.yul\":9390:9391   */\n      0x00\n        /* \"#utility.yul\":9383:9398   */\n      revert\n        /* \"#utility.yul\":9533:9650   */\n    tag_282:\n        /* \"#utility.yul\":9642:9643   */\n      0x00\n        /* \"#utility.yul\":9639:9640   */\n      dup1\n        /* \"#utility.yul\":9632:9644   */\n      revert\n        /* \"#utility.yul\":9656:9776   */\n    tag_270:\n        /* \"#utility.yul\":9728:9751   */\n      tag_410\n        /* \"#utility.yul\":9745:9750   */\n      dup2\n        /* \"#utility.yul\":9728:9751   */\n      tag_330\n      jump\t// in\n    tag_410:\n        /* \"#utility.yul\":9721:9726   */\n      dup2\n        /* \"#utility.yul\":9718:9752   */\n      eq\n        /* \"#utility.yul\":9708:9770   */\n      tag_411\n      jumpi\n        /* \"#utility.yul\":9766:9767   */\n      0x00\n        /* \"#utility.yul\":9763:9764   */\n      dup1\n        /* \"#utility.yul\":9756:9768   */\n      revert\n        /* \"#utility.yul\":9708:9770   */\n    tag_411:\n        /* \"#utility.yul\":9656:9776   */\n      pop\n      jump\t// out\n        /* \"#utility.yul\":9782:9904   */\n    tag_274:\n        /* \"#utility.yul\":9855:9879   */\n      tag_413\n        /* \"#utility.yul\":9873:9878   */\n      dup2\n        /* \"#utility.yul\":9855:9879   */\n      tag_334\n      jump\t// in\n    tag_413:\n        /* \"#utility.yul\":9848:9853   */\n      dup2\n        /* \"#utility.yul\":9845:9880   */\n      eq\n        /* \"#utility.yul\":9835:9898   */\n      tag_414\n      jumpi\n        /* \"#utility.yul\":9894:9895   */\n      0x00\n        /* \"#utility.yul\":9891:9892   */\n      dup1\n        /* \"#utility.yul\":9884:9896   */\n      revert\n        /* \"#utility.yul\":9835:9898   */\n    tag_414:\n        /* \"#utility.yul\":9782:9904   */\n      pop\n      jump\t// out\n        /* \"#utility.yul\":9910:10028   */\n    tag_278:\n        /* \"#utility.yul\":9981:10003   */\n      tag_416\n        /* \"#utility.yul\":9997:10002   */\n      dup2\n        /* \"#utility.yul\":9981:10003   */\n      tag_338\n      jump\t// in\n    tag_416:\n        /* \"#utility.yul\":9974:9979   */\n      dup2\n        /* \"#utility.yul\":9971:10004   */\n      eq\n        /* \"#utility.yul\":9961:10022   */\n      tag_417\n      jumpi\n        /* \"#utility.yul\":10018:10019   */\n      0x00\n        /* \"#utility.yul\":10015:10016   */\n      dup1\n        /* \"#utility.yul\":10008:10020   */\n      revert\n        /* \"#utility.yul\":9961:10022   */\n    tag_417:\n        /* \"#utility.yul\":9910:10028   */\n      pop\n      jump\t// out\n\n    auxdata: 0xa26469706673582212208dc7ed2c452e4221b86e1cdb74e9227f8226cf184f9095f3de967ec3c961ee7b64736f6c63430008070033\n}\n",
				"bytecode": {
					"linkReferences": {},
					"object": "608060405234801561001057600080fd5b506113ee806100206000396000f3fe608060405234801561001057600080fd5b50600436106100ea5760003560e01c80639054bdec1161008c578063a6f0e57711610066578063a6f0e577146102cf578063b1999937146102ff578063b238ad0e1461032f578063fa93f8831461035f576100ea565b80639054bdec1461023f57806392d663131461026f578063a324ad241461029f576100ea565b806365c72840116100c857806365c728401461017f5780637f791833146101af5780638aa001fc146101df5780638c8d98a01461020f576100ea565b80633e239e1a146100ef5780634ac1ad781461011f57806362ba96871461014f575b600080fd5b61010960048036038101906101049190610f67565b61038f565b6040516101169190611061565b60405180910390f35b61013960048036038101906101349190610f67565b6103bc565b6040516101469190611061565b60405180910390f35b61016960048036038101906101649190610e5f565b6103ec565b6040516101769190611046565b60405180910390f35b61019960048036038101906101949190610f67565b610408565b6040516101a69190611061565b60405180910390f35b6101c960048036038101906101c49190610df8565b61041e565b6040516101d69190611046565b60405180910390f35b6101f960048036038101906101f49190610f67565b610439565b6040516102069190611061565b60405180910390f35b61022960048036038101906102249190610da5565b61044f565b6040516102369190611046565b60405180910390f35b61025960048036038101906102549190610eda565b61046a565b6040516102669190611046565b60405180910390f35b61028960048036038101906102849190610f67565b6107d5565b604051610296919061102b565b60405180910390f35b6102b960048036038101906102b49190610f67565b6108ec565b6040516102c69190611061565b60405180910390f35b6102e960048036038101906102e49190610d78565b610902565b6040516102f69190611010565b60405180910390f35b61031960048036038101906103149190610f67565b610971565b6040516103269190611046565b60405180910390f35b61034960048036038101906103449190610f94565b6109c5565b6040516103569190611061565b60405180910390f35b61037960048036038101906103749190610f67565b610a91565b6040516103869190611061565b60405180910390f35b60006018603c80846103a191906110d2565b6103ab91906110d2565b6103b591906112b0565b9050919050565b60006007600462015180846103d191906110d2565b6103db919061107c565b6103e591906112b0565b9050919050565b60006103fd8686868686600061046a565b905095945050505050565b600061041382610ab2565b604001519050919050565b600061042f8585858560008061046a565b9050949350505050565b6000603c8261044891906112b0565b9050919050565b6000610461848484600080600061046a565b90509392505050565b6000806107b290505b8761ffff168161ffff1610156104ce5761048c81610902565b156104a8576301e28500826104a1919061107c565b91506104bb565b6301e13380826104b8919061107c565b91505b80806104c69061122a565b915050610473565b6104d6610cc3565b601f816000600c81106104ec576104eb61133f565b5b602002019060ff16908160ff168152505061050689610902565b1561053757601d816001600c81106105215761052061133f565b5b602002019060ff16908160ff168152505061055f565b601c816001600c811061054d5761054c61133f565b5b602002019060ff16908160ff16815250505b601f816002600c81106105755761057461133f565b5b602002019060ff16908160ff1681525050601e816003600c811061059c5761059b61133f565b5b602002019060ff16908160ff1681525050601f816004600c81106105c3576105c261133f565b5b602002019060ff16908160ff1681525050601e816005600c81106105ea576105e961133f565b5b602002019060ff16908160ff1681525050601f816006600c81106106115761061061133f565b5b602002019060ff16908160ff1681525050601f816007600c81106106385761063761133f565b5b602002019060ff16908160ff1681525050601e816008600c811061065f5761065e61133f565b5b602002019060ff16908160ff1681525050601f816009600c81106106865761068561133f565b5b602002019060ff16908160ff1681525050601e81600a600c81106106ad576106ac61133f565b5b602002019060ff16908160ff1681525050601f81600b600c81106106d4576106d361133f565b5b602002019060ff16908160ff1681525050600191505b8760ff168261ffff1610156107525780600183610707919061115d565b61ffff16600c811061071c5761071b61133f565b5b602002015160ff16620151806107329190611103565b8361073d919061107c565b9250818061074a9061122a565b9250506106ea565b60018761075f91906111c5565b60ff16620151806107709190611103565b8361077b919061107c565b92508560ff16610e1061078e9190611103565b83610799919061107c565b92508460ff16603c6107ab9190611103565b836107b6919061107c565b92508360ff16836107c7919061107c565b925050509695505050505050565b600080600090506000806301e13380856107ef91906110d2565b6107b261ffff16610800919061107c565b91506108116107b261ffff16610971565b61081e8361ffff16610971565b6108289190611191565b9050806301e2850061083a9190611103565b83610845919061107c565b9250806107b283610856919061115d565b61ffff166108649190611191565b6301e133806108739190611103565b8361087e919061107c565b92505b848311156108e15761089e600183610899919061115d565b610902565b156108ba576301e28500836108b39190611191565b92506108cd565b6301e13380836108ca9190611191565b92505b6001826108da919061115d565b9150610881565b819350505050919050565b60006108f782610ab2565b602001519050919050565b600080600483610912919061127f565b61ffff1614610924576000905061096c565b6000606483610933919061127f565b61ffff1614610945576001905061096c565b600061019083610955919061127f565b61ffff1614610967576000905061096c565b600190505b919050565b60006001826109809190611191565b91506101908261099091906110d2565b60648361099d91906110d2565b6004846109aa91906110d2565b6109b49190611191565b6109be919061107c565b9050919050565b600060018360ff1614806109dc575060038360ff16145b806109ea575060058360ff16145b806109f8575060078360ff16145b80610a06575060088360ff16145b80610a145750600a8360ff16145b80610a225750600c8360ff16145b15610a3057601f9050610a8b565b60048360ff161480610a45575060068360ff16145b80610a53575060098360ff16145b80610a615750600b8360ff16145b15610a6f57601e9050610a8b565b610a7882610902565b15610a8657601d9050610a8b565b601c90505b92915050565b6000603c8083610aa191906110d2565b610aab91906112b0565b9050919050565b610aba610ce6565b60008080610ac7856107d5565b846000019061ffff16908161ffff1681525050610ae96107b261ffff16610971565b610afa856000015161ffff16610971565b610b049190611191565b9150816301e28500610b169190611103565b83610b21919061107c565b9250816107b28560000151610b36919061115d565b61ffff16610b449190611191565b6301e13380610b539190611103565b83610b5e919061107c565b92506000600191505b600c8260ff1611610bde57610b808286600001516109c5565b60ff1662015180610b919190611103565b9050858482610ba0919061107c565b1115610bbd5781856020019060ff16908160ff1681525050610bde565b8084610bc9919061107c565b93508180610bd690611255565b925050610b67565b600191505b610bf5856020015186600001516109c5565b60ff168260ff1611610c5257858462015180610c11919061107c565b1115610c2e5781856040019060ff16908160ff1681525050610c52565b6201518084610c3d919061107c565b93508180610c4a90611255565b925050610be3565b610c5b8661038f565b856060019060ff16908160ff1681525050610c7586610a91565b856080019060ff16908160ff1681525050610c8f86610439565b8560a0019060ff16908160ff1681525050610ca9866103bc565b8560c0019060ff16908160ff168152505050505050919050565b604051806101800160405280600c90602082028036833780820191505090505090565b6040518060e00160405280600061ffff168152602001600060ff168152602001600060ff168152602001600060ff168152602001600060ff168152602001600060ff168152602001600060ff1681525090565b600081359050610d4881611373565b92915050565b600081359050610d5d8161138a565b92915050565b600081359050610d72816113a1565b92915050565b600060208284031215610d8e57610d8d61136e565b5b6000610d9c84828501610d39565b91505092915050565b600080600060608486031215610dbe57610dbd61136e565b5b6000610dcc86828701610d39565b9350506020610ddd86828701610d63565b9250506040610dee86828701610d63565b9150509250925092565b60008060008060808587031215610e1257610e1161136e565b5b6000610e2087828801610d39565b9450506020610e3187828801610d63565b9350506040610e4287828801610d63565b9250506060610e5387828801610d63565b91505092959194509250565b600080600080600060a08688031215610e7b57610e7a61136e565b5b6000610e8988828901610d39565b9550506020610e9a88828901610d63565b9450506040610eab88828901610d63565b9350506060610ebc88828901610d63565b9250506080610ecd88828901610d63565b9150509295509295909350565b60008060008060008060c08789031215610ef757610ef661136e565b5b6000610f0589828a01610d39565b9650506020610f1689828a01610d63565b9550506040610f2789828a01610d63565b9450506060610f3889828a01610d63565b9350506080610f4989828a01610d63565b92505060a0610f5a89828a01610d63565b9150509295509295509295565b600060208284031215610f7d57610f7c61136e565b5b6000610f8b84828501610d4e565b91505092915050565b60008060408385031215610fab57610faa61136e565b5b6000610fb985828601610d63565b9250506020610fca85828601610d39565b9150509250929050565b610fdd816111f9565b82525050565b610fec81611205565b82525050565b610ffb81611213565b82525050565b61100a8161121d565b82525050565b60006020820190506110256000830184610fd4565b92915050565b60006020820190506110406000830184610fe3565b92915050565b600060208201905061105b6000830184610ff2565b92915050565b60006020820190506110766000830184611001565b92915050565b600061108782611213565b915061109283611213565b9250827fffffffffffffffffffffffffffffffffffffffffffffffffffffffffffffffff038211156110c7576110c66112e1565b5b828201905092915050565b60006110dd82611213565b91506110e883611213565b9250826110f8576110f7611310565b5b828204905092915050565b600061110e82611213565b915061111983611213565b9250817fffffffffffffffffffffffffffffffffffffffffffffffffffffffffffffffff0483118215151615611152576111516112e1565b5b828202905092915050565b600061116882611205565b915061117383611205565b925082821015611186576111856112e1565b5b828203905092915050565b600061119c82611213565b91506111a783611213565b9250828210156111ba576111b96112e1565b5b828203905092915050565b60006111d08261121d565b91506111db8361121d565b9250828210156111ee576111ed6112e1565b5b828203905092915050565b60008115159050919050565b600061ffff82169050919050565b6000819050919050565b600060ff82169050919050565b600061123582611205565b915061ffff82141561124a576112496112e1565b5b600182019050919050565b60006112608261121d565b915060ff821415611274576112736112e1565b5b600182019050919050565b600061128a82611205565b915061129583611205565b9250826112a5576112a4611310565b5b828206905092915050565b60006112bb82611213565b91506112c683611213565b9250826112d6576112d5611310565b5b828206905092915050565b7f4e487b7100000000000000000000000000000000000000000000000000000000600052601160045260246000fd5b7f4e487b7100000000000000000000000000000000000000000000000000000000600052601260045260246000fd5b7f4e487b7100000000000000000000000000000000000000000000000000000000600052603260045260246000fd5b600080fd5b61137c81611205565b811461138757600080fd5b50565b61139381611213565b811461139e57600080fd5b50565b6113aa8161121d565b81146113b557600080fd5b5056fea26469706673582212208dc7ed2c452e4221b86e1cdb74e9227f8226cf184f9095f3de967ec3c961ee7b64736f6c63430008070033",
					"opcodes": "PUSH1 0x80 PUSH1 0x40 MSTORE CALLVALUE DUP1 ISZERO PUSH2 0x10 JUMPI PUSH1 0x0 DUP1 REVERT JUMPDEST POP PUSH2 0x13EE DUP1 PUSH2 0x20 PUSH1 0x0 CODECOPY PUSH1 0x0 RETURN INVALID PUSH1 0x80 PUSH1 0x40 MSTORE CALLVALUE DUP1 ISZERO PUSH2 0x10 JUMPI PUSH1 0x0 DUP1 REVERT JUMPDEST POP PUSH1 0x4 CALLDATASIZE LT PUSH2 0xEA JUMPI PUSH1 0x0 CALLDATALOAD PUSH1 0xE0 SHR DUP1 PUSH4 0x9054BDEC GT PUSH2 0x8C JUMPI DUP1 PUSH4 0xA6F0E577 GT PUSH2 0x66 JUMPI DUP1 PUSH4 0xA6F0E577 EQ PUSH2 0x2CF JUMPI DUP1 PUSH4 0xB1999937 EQ PUSH2 0x2FF JUMPI DUP1 PUSH4 0xB238AD0E EQ PUSH2 0x32F JUMPI DUP1 PUSH4 0xFA93F883 EQ PUSH2 0x35F JUMPI PUSH2 0xEA JUMP JUMPDEST DUP1 PUSH4 0x9054BDEC EQ PUSH2 0x23F JUMPI DUP1 PUSH4 0x92D66313 EQ PUSH2 0x26F JUMPI DUP1 PUSH4 0xA324AD24 EQ PUSH2 0x29F JUMPI PUSH2 0xEA JUMP JUMPDEST DUP1 PUSH4 0x65C72840 GT PUSH2 0xC8 JUMPI DUP1 PUSH4 0x65C72840 EQ PUSH2 0x17F JUMPI DUP1 PUSH4 0x7F791833 EQ PUSH2 0x1AF JUMPI DUP1 PUSH4 0x8AA001FC EQ PUSH2 0x1DF JUMPI DUP1 PUSH4 0x8C8D98A0 EQ PUSH2 0x20F JUMPI PUSH2 0xEA JUMP JUMPDEST DUP1 PUSH4 0x3E239E1A EQ PUSH2 0xEF JUMPI DUP1 PUSH4 0x4AC1AD78 EQ PUSH2 0x11F JUMPI DUP1 PUSH4 0x62BA9687 EQ PUSH2 0x14F JUMPI JUMPDEST PUSH1 0x0 DUP1 REVERT JUMPDEST PUSH2 0x109 PUSH1 0x4 DUP1 CALLDATASIZE SUB DUP2 ADD SWAP1 PUSH2 0x104 SWAP2 SWAP1 PUSH2 0xF67 JUMP JUMPDEST PUSH2 0x38F JUMP JUMPDEST PUSH1 0x40 MLOAD PUSH2 0x116 SWAP2 SWAP1 PUSH2 0x1061 JUMP JUMPDEST PUSH1 0x40 MLOAD DUP1 SWAP2 SUB SWAP1 RETURN JUMPDEST PUSH2 0x139 PUSH1 0x4 DUP1 CALLDATASIZE SUB DUP2 ADD SWAP1 PUSH2 0x134 SWAP2 SWAP1 PUSH2 0xF67 JUMP JUMPDEST PUSH2 0x3BC JUMP JUMPDEST PUSH1 0x40 MLOAD PUSH2 0x146 SWAP2 SWAP1 PUSH2 0x1061 JUMP JUMPDEST PUSH1 0x40 MLOAD DUP1 SWAP2 SUB SWAP1 RETURN JUMPDEST PUSH2 0x169 PUSH1 0x4 DUP1 CALLDATASIZE SUB DUP2 ADD SWAP1 PUSH2 0x164 SWAP2 SWAP1 PUSH2 0xE5F JUMP JUMPDEST PUSH2 0x3EC JUMP JUMPDEST PUSH1 0x40 MLOAD PUSH2 0x176 SWAP2 SWAP1 PUSH2 0x1046 JUMP JUMPDEST PUSH1 0x40 MLOAD DUP1 SWAP2 SUB SWAP1 RETURN JUMPDEST PUSH2 0x199 PUSH1 0x4 DUP1 CALLDATASIZE SUB DUP2 ADD SWAP1 PUSH2 0x194 SWAP2 SWAP1 PUSH2 0xF67 JUMP JUMPDEST PUSH2 0x408 JUMP JUMPDEST PUSH1 0x40 MLOAD PUSH2 0x1A6 SWAP2 SWAP1 PUSH2 0x1061 JUMP JUMPDEST PUSH1 0x40 MLOAD DUP1 SWAP2 SUB SWAP1 RETURN JUMPDEST PUSH2 0x1C9 PUSH1 0x4 DUP1 CALLDATASIZE SUB DUP2 ADD SWAP1 PUSH2 0x1C4 SWAP2 SWAP1 PUSH2 0xDF8 JUMP JUMPDEST PUSH2 0x41E JUMP JUMPDEST PUSH1 0x40 MLOAD PUSH2 0x1D6 SWAP2 SWAP1 PUSH2 0x1046 JUMP JUMPDEST PUSH1 0x40 MLOAD DUP1 SWAP2 SUB SWAP1 RETURN JUMPDEST PUSH2 0x1F9 PUSH1 0x4 DUP1 CALLDATASIZE SUB DUP2 ADD SWAP1 PUSH2 0x1F4 SWAP2 SWAP1 PUSH2 0xF67 JUMP JUMPDEST PUSH2 0x439 JUMP JUMPDEST PUSH1 0x40 MLOAD PUSH2 0x206 SWAP2 SWAP1 PUSH2 0x1061 JUMP JUMPDEST PUSH1 0x40 MLOAD DUP1 SWAP2 SUB SWAP1 RETURN JUMPDEST PUSH2 0x229 PUSH1 0x4 DUP1 CALLDATASIZE SUB DUP2 ADD SWAP1 PUSH2 0x224 SWAP2 SWAP1 PUSH2 0xDA5 JUMP JUMPDEST PUSH2 0x44F JUMP JUMPDEST PUSH1 0x40 MLOAD PUSH2 0x236 SWAP2 SWAP1 PUSH2 0x1046 JUMP JUMPDEST PUSH1 0x40 MLOAD DUP1 SWAP2 SUB SWAP1 RETURN JUMPDEST PUSH2 0x259 PUSH1 0x4 DUP1 CALLDATASIZE SUB DUP2 ADD SWAP1 PUSH2 0x254 SWAP2 SWAP1 PUSH2 0xEDA JUMP JUMPDEST PUSH2 0x46A JUMP JUMPDEST PUSH1 0x40 MLOAD PUSH2 0x266 SWAP2 SWAP1 PUSH2 0x1046 JUMP JUMPDEST PUSH1 0x40 MLOAD DUP1 SWAP2 SUB SWAP1 RETURN JUMPDEST PUSH2 0x289 PUSH1 0x4 DUP1 CALLDATASIZE SUB DUP2 ADD SWAP1 PUSH2 0x284 SWAP2 SWAP1 PUSH2 0xF67 JUMP JUMPDEST PUSH2 0x7D5 JUMP JUMPDEST PUSH1 0x40 MLOAD PUSH2 0x296 SWAP2 SWAP1 PUSH2 0x102B JUMP JUMPDEST PUSH1 0x40 MLOAD DUP1 SWAP2 SUB SWAP1 RETURN JUMPDEST PUSH2 0x2B9 PUSH1 0x4 DUP1 CALLDATASIZE SUB DUP2 ADD SWAP1 PUSH2 0x2B4 SWAP2 SWAP1 PUSH2 0xF67 JUMP JUMPDEST PUSH2 0x8EC JUMP JUMPDEST PUSH1 0x40 MLOAD PUSH2 0x2C6 SWAP2 SWAP1 PUSH2 0x1061 JUMP JUMPDEST PUSH1 0x40 MLOAD DUP1 SWAP2 SUB SWAP1 RETURN JUMPDEST PUSH2 0x2E9 PUSH1 0x4 DUP1 CALLDATASIZE SUB DUP2 ADD SWAP1 PUSH2 0x2E4 SWAP2 SWAP1 PUSH2 0xD78 JUMP JUMPDEST PUSH2 0x902 JUMP JUMPDEST PUSH1 0x40 MLOAD PUSH2 0x2F6 SWAP2 SWAP1 PUSH2 0x1010 JUMP JUMPDEST PUSH1 0x40 MLOAD DUP1 SWAP2 SUB SWAP1 RETURN JUMPDEST PUSH2 0x319 PUSH1 0x4 DUP1 CALLDATASIZE SUB DUP2 ADD SWAP1 PUSH2 0x314 SWAP2 SWAP1 PUSH2 0xF67 JUMP JUMPDEST PUSH2 0x971 JUMP JUMPDEST PUSH1 0x40 MLOAD PUSH2 0x326 SWAP2 SWAP1 PUSH2 0x1046 JUMP JUMPDEST PUSH1 0x40 MLOAD DUP1 SWAP2 SUB SWAP1 RETURN JUMPDEST PUSH2 0x349 PUSH1 0x4 DUP1 CALLDATASIZE SUB DUP2 ADD SWAP1 PUSH2 0x344 SWAP2 SWAP1 PUSH2 0xF94 JUMP JUMPDEST PUSH2 0x9C5 JUMP JUMPDEST PUSH1 0x40 MLOAD PUSH2 0x356 SWAP2 SWAP1 PUSH2 0x1061 JUMP JUMPDEST PUSH1 0x40 MLOAD DUP1 SWAP2 SUB SWAP1 RETURN JUMPDEST PUSH2 0x379 PUSH1 0x4 DUP1 CALLDATASIZE SUB DUP2 ADD SWAP1 PUSH2 0x374 SWAP2 SWAP1 PUSH2 0xF67 JUMP JUMPDEST PUSH2 0xA91 JUMP JUMPDEST PUSH1 0x40 MLOAD PUSH2 0x386 SWAP2 SWAP1 PUSH2 0x1061 JUMP JUMPDEST PUSH1 0x40 MLOAD DUP1 SWAP2 SUB SWAP1 RETURN JUMPDEST PUSH1 0x0 PUSH1 0x18 PUSH1 0x3C DUP1 DUP5 PUSH2 0x3A1 SWAP2 SWAP1 PUSH2 0x10D2 JUMP JUMPDEST PUSH2 0x3AB SWAP2 SWAP1 PUSH2 0x10D2 JUMP JUMPDEST PUSH2 0x3B5 SWAP2 SWAP1 PUSH2 0x12B0 JUMP JUMPDEST SWAP1 POP SWAP2 SWAP1 POP JUMP JUMPDEST PUSH1 0x0 PUSH1 0x7 PUSH1 0x4 PUSH3 0x15180 DUP5 PUSH2 0x3D1 SWAP2 SWAP1 PUSH2 0x10D2 JUMP JUMPDEST PUSH2 0x3DB SWAP2 SWAP1 PUSH2 0x107C JUMP JUMPDEST PUSH2 0x3E5 SWAP2 SWAP1 PUSH2 0x12B0 JUMP JUMPDEST SWAP1 POP SWAP2 SWAP1 POP JUMP JUMPDEST PUSH1 0x0 PUSH2 0x3FD DUP7 DUP7 DUP7 DUP7 DUP7 PUSH1 0x0 PUSH2 0x46A JUMP JUMPDEST SWAP1 POP SWAP6 SWAP5 POP POP POP POP POP JUMP JUMPDEST PUSH1 0x0 PUSH2 0x413 DUP3 PUSH2 0xAB2 JUMP JUMPDEST PUSH1 0x40 ADD MLOAD SWAP1 POP SWAP2 SWAP1 POP JUMP JUMPDEST PUSH1 0x0 PUSH2 0x42F DUP6 DUP6 DUP6 DUP6 PUSH1 0x0 DUP1 PUSH2 0x46A JUMP JUMPDEST SWAP1 POP SWAP5 SWAP4 POP POP POP POP JUMP JUMPDEST PUSH1 0x0 PUSH1 0x3C DUP3 PUSH2 0x448 SWAP2 SWAP1 PUSH2 0x12B0 JUMP JUMPDEST SWAP1 POP SWAP2 SWAP1 POP JUMP JUMPDEST PUSH1 0x0 PUSH2 0x461 DUP5 DUP5 DUP5 PUSH1 0x0 DUP1 PUSH1 0x0 PUSH2 0x46A JUMP JUMPDEST SWAP1 POP SWAP4 SWAP3 POP POP POP JUMP JUMPDEST PUSH1 0x0 DUP1 PUSH2 0x7B2 SWAP1 POP JUMPDEST DUP8 PUSH2 0xFFFF AND DUP2 PUSH2 0xFFFF AND LT ISZERO PUSH2 0x4CE JUMPI PUSH2 0x48C DUP2 PUSH2 0x902 JUMP JUMPDEST ISZERO PUSH2 0x4A8 JUMPI PUSH4 0x1E28500 DUP3 PUSH2 0x4A1 SWAP2 SWAP1 PUSH2 0x107C JUMP JUMPDEST SWAP2 POP PUSH2 0x4BB JUMP JUMPDEST PUSH4 0x1E13380 DUP3 PUSH2 0x4B8 SWAP2 SWAP1 PUSH2 0x107C JUMP JUMPDEST SWAP2 POP JUMPDEST DUP1 DUP1 PUSH2 0x4C6 SWAP1 PUSH2 0x122A JUMP JUMPDEST SWAP2 POP POP PUSH2 0x473 JUMP JUMPDEST PUSH2 0x4D6 PUSH2 0xCC3 JUMP JUMPDEST PUSH1 0x1F DUP2 PUSH1 0x0 PUSH1 0xC DUP2 LT PUSH2 0x4EC JUMPI PUSH2 0x4EB PUSH2 0x133F JUMP JUMPDEST JUMPDEST PUSH1 0x20 MUL ADD SWAP1 PUSH1 0xFF AND SWAP1 DUP2 PUSH1 0xFF AND DUP2 MSTORE POP POP PUSH2 0x506 DUP10 PUSH2 0x902 JUMP JUMPDEST ISZERO PUSH2 0x537 JUMPI PUSH1 0x1D DUP2 PUSH1 0x1 PUSH1 0xC DUP2 LT PUSH2 0x521 JUMPI PUSH2 0x520 PUSH2 0x133F JUMP JUMPDEST JUMPDEST PUSH1 0x20 MUL ADD SWAP1 PUSH1 0xFF AND SWAP1 DUP2 PUSH1 0xFF AND DUP2 MSTORE POP POP PUSH2 0x55F JUMP JUMPDEST PUSH1 0x1C DUP2 PUSH1 0x1 PUSH1 0xC DUP2 LT PUSH2 0x54D JUMPI PUSH2 0x54C PUSH2 0x133F JUMP JUMPDEST JUMPDEST PUSH1 0x20 MUL ADD SWAP1 PUSH1 0xFF AND SWAP1 DUP2 PUSH1 0xFF AND DUP2 MSTORE POP POP JUMPDEST PUSH1 0x1F DUP2 PUSH1 0x2 PUSH1 0xC DUP2 LT PUSH2 0x575 JUMPI PUSH2 0x574 PUSH2 0x133F JUMP JUMPDEST JUMPDEST PUSH1 0x20 MUL ADD SWAP1 PUSH1 0xFF AND SWAP1 DUP2 PUSH1 0xFF AND DUP2 MSTORE POP POP PUSH1 0x1E DUP2 PUSH1 0x3 PUSH1 0xC DUP2 LT PUSH2 0x59C JUMPI PUSH2 0x59B PUSH2 0x133F JUMP JUMPDEST JUMPDEST PUSH1 0x20 MUL ADD SWAP1 PUSH1 0xFF AND SWAP1 DUP2 PUSH1 0xFF AND DUP2 MSTORE POP POP PUSH1 0x1F DUP2 PUSH1 0x4 PUSH1 0xC DUP2 LT PUSH2 0x5C3 JUMPI PUSH2 0x5C2 PUSH2 0x133F JUMP JUMPDEST JUMPDEST PUSH1 0x20 MUL ADD SWAP1 PUSH1 0xFF AND SWAP1 DUP2 PUSH1 0xFF AND DUP2 MSTORE POP POP PUSH1 0x1E DUP2 PUSH1 0x5 PUSH1 0xC DUP2 LT PUSH2 0x5EA JUMPI PUSH2 0x5E9 PUSH2 0x133F JUMP JUMPDEST JUMPDEST PUSH1 0x20 MUL ADD SWAP1 PUSH1 0xFF AND SWAP1 DUP2 PUSH1 0xFF AND DUP2 MSTORE POP POP PUSH1 0x1F DUP2 PUSH1 0x6 PUSH1 0xC DUP2 LT PUSH2 0x611 JUMPI PUSH2 0x610 PUSH2 0x133F JUMP JUMPDEST JUMPDEST PUSH1 0x20 MUL ADD SWAP1 PUSH1 0xFF AND SWAP1 DUP2 PUSH1 0xFF AND DUP2 MSTORE POP POP PUSH1 0x1F DUP2 PUSH1 0x7 PUSH1 0xC DUP2 LT PUSH2 0x638 JUMPI PUSH2 0x637 PUSH2 0x133F JUMP JUMPDEST JUMPDEST PUSH1 0x20 MUL ADD SWAP1 PUSH1 0xFF AND SWAP1 DUP2 PUSH1 0xFF AND DUP2 MSTORE POP POP PUSH1 0x1E DUP2 PUSH1 0x8 PUSH1 0xC DUP2 LT PUSH2 0x65F JUMPI PUSH2 0x65E PUSH2 0x133F JUMP JUMPDEST JUMPDEST PUSH1 0x20 MUL ADD SWAP1 PUSH1 0xFF AND SWAP1 DUP2 PUSH1 0xFF AND DUP2 MSTORE POP POP PUSH1 0x1F DUP2 PUSH1 0x9 PUSH1 0xC DUP2 LT PUSH2 0x686 JUMPI PUSH2 0x685 PUSH2 0x133F JUMP JUMPDEST JUMPDEST PUSH1 0x20 MUL ADD SWAP1 PUSH1 0xFF AND SWAP1 DUP2 PUSH1 0xFF AND DUP2 MSTORE POP POP PUSH1 0x1E DUP2 PUSH1 0xA PUSH1 0xC DUP2 LT PUSH2 0x6AD JUMPI PUSH2 0x6AC PUSH2 0x133F JUMP JUMPDEST JUMPDEST PUSH1 0x20 MUL ADD SWAP1 PUSH1 0xFF AND SWAP1 DUP2 PUSH1 0xFF AND DUP2 MSTORE POP POP PUSH1 0x1F DUP2 PUSH1 0xB PUSH1 0xC DUP2 LT PUSH2 0x6D4 JUMPI PUSH2 0x6D3 PUSH2 0x133F JUMP JUMPDEST JUMPDEST PUSH1 0x20 MUL ADD SWAP1 PUSH1 0xFF AND SWAP1 DUP2 PUSH1 0xFF AND DUP2 MSTORE POP POP PUSH1 0x1 SWAP2 POP JUMPDEST DUP8 PUSH1 0xFF AND DUP3 PUSH2 0xFFFF AND LT ISZERO PUSH2 0x752 JUMPI DUP1 PUSH1 0x1 DUP4 PUSH2 0x707 SWAP2 SWAP1 PUSH2 0x115D JUMP JUMPDEST PUSH2 0xFFFF AND PUSH1 0xC DUP2 LT PUSH2 0x71C JUMPI PUSH2 0x71B PUSH2 0x133F JUMP JUMPDEST JUMPDEST PUSH1 0x20 MUL ADD MLOAD PUSH1 0xFF AND PUSH3 0x15180 PUSH2 0x732 SWAP2 SWAP1 PUSH2 0x1103 JUMP JUMPDEST DUP4 PUSH2 0x73D SWAP2 SWAP1 PUSH2 0x107C JUMP JUMPDEST SWAP3 POP DUP2 DUP1 PUSH2 0x74A SWAP1 PUSH2 0x122A JUMP JUMPDEST SWAP3 POP POP PUSH2 0x6EA JUMP JUMPDEST PUSH1 0x1 DUP8 PUSH2 0x75F SWAP2 SWAP1 PUSH2 0x11C5 JUMP JUMPDEST PUSH1 0xFF AND PUSH3 0x15180 PUSH2 0x770 SWAP2 SWAP1 PUSH2 0x1103 JUMP JUMPDEST DUP4 PUSH2 0x77B SWAP2 SWAP1 PUSH2 0x107C JUMP JUMPDEST SWAP3 POP DUP6 PUSH1 0xFF AND PUSH2 0xE10 PUSH2 0x78E SWAP2 SWAP1 PUSH2 0x1103 JUMP JUMPDEST DUP4 PUSH2 0x799 SWAP2 SWAP1 PUSH2 0x107C JUMP JUMPDEST SWAP3 POP DUP5 PUSH1 0xFF AND PUSH1 0x3C PUSH2 0x7AB SWAP2 SWAP1 PUSH2 0x1103 JUMP JUMPDEST DUP4 PUSH2 0x7B6 SWAP2 SWAP1 PUSH2 0x107C JUMP JUMPDEST SWAP3 POP DUP4 PUSH1 0xFF AND DUP4 PUSH2 0x7C7 SWAP2 SWAP1 PUSH2 0x107C JUMP JUMPDEST SWAP3 POP POP POP SWAP7 SWAP6 POP POP POP POP POP POP JUMP JUMPDEST PUSH1 0x0 DUP1 PUSH1 0x0 SWAP1 POP PUSH1 0x0 DUP1 PUSH4 0x1E13380 DUP6 PUSH2 0x7EF SWAP2 SWAP1 PUSH2 0x10D2 JUMP JUMPDEST PUSH2 0x7B2 PUSH2 0xFFFF AND PUSH2 0x800 SWAP2 SWAP1 PUSH2 0x107C JUMP JUMPDEST SWAP2 POP PUSH2 0x811 PUSH2 0x7B2 PUSH2 0xFFFF AND PUSH2 0x971 JUMP JUMPDEST PUSH2 0x81E DUP4 PUSH2 0xFFFF AND PUSH2 0x971 JUMP JUMPDEST PUSH2 0x828 SWAP2 SWAP1 PUSH2 0x1191 JUMP JUMPDEST SWAP1 POP DUP1 PUSH4 0x1E28500 PUSH2 0x83A SWAP2 SWAP1 PUSH2 0x1103 JUMP JUMPDEST DUP4 PUSH2 0x845 SWAP2 SWAP1 PUSH2 0x107C JUMP JUMPDEST SWAP3 POP DUP1 PUSH2 0x7B2 DUP4 PUSH2 0x856 SWAP2 SWAP1 PUSH2 0x115D JUMP JUMPDEST PUSH2 0xFFFF AND PUSH2 0x864 SWAP2 SWAP1 PUSH2 0x1191 JUMP JUMPDEST PUSH4 0x1E13380 PUSH2 0x873 SWAP2 SWAP1 PUSH2 0x1103 JUMP JUMPDEST DUP4 PUSH2 0x87E SWAP2 SWAP1 PUSH2 0x107C JUMP JUMPDEST SWAP3 POP JUMPDEST DUP5 DUP4 GT ISZERO PUSH2 0x8E1 JUMPI PUSH2 0x89E PUSH1 0x1 DUP4 PUSH2 0x899 SWAP2 SWAP1 PUSH2 0x115D JUMP JUMPDEST PUSH2 0x902 JUMP JUMPDEST ISZERO PUSH2 0x8BA JUMPI PUSH4 0x1E28500 DUP4 PUSH2 0x8B3 SWAP2 SWAP1 PUSH2 0x1191 JUMP JUMPDEST SWAP3 POP PUSH2 0x8CD JUMP JUMPDEST PUSH4 0x1E13380 DUP4 PUSH2 0x8CA SWAP2 SWAP1 PUSH2 0x1191 JUMP JUMPDEST SWAP3 POP JUMPDEST PUSH1 0x1 DUP3 PUSH2 0x8DA SWAP2 SWAP1 PUSH2 0x115D JUMP JUMPDEST SWAP2 POP PUSH2 0x881 JUMP JUMPDEST DUP2 SWAP4 POP POP POP POP SWAP2 SWAP1 POP JUMP JUMPDEST PUSH1 0x0 PUSH2 0x8F7 DUP3 PUSH2 0xAB2 JUMP JUMPDEST PUSH1 0x20 ADD MLOAD SWAP1 POP SWAP2 SWAP1 POP JUMP JUMPDEST PUSH1 0x0 DUP1 PUSH1 0x4 DUP4 PUSH2 0x912 SWAP2 SWAP1 PUSH2 0x127F JUMP JUMPDEST PUSH2 0xFFFF AND EQ PUSH2 0x924 JUMPI PUSH1 0x0 SWAP1 POP PUSH2 0x96C JUMP JUMPDEST PUSH1 0x0 PUSH1 0x64 DUP4 PUSH2 0x933 SWAP2 SWAP1 PUSH2 0x127F JUMP JUMPDEST PUSH2 0xFFFF AND EQ PUSH2 0x945 JUMPI PUSH1 0x1 SWAP1 POP PUSH2 0x96C JUMP JUMPDEST PUSH1 0x0 PUSH2 0x190 DUP4 PUSH2 0x955 SWAP2 SWAP1 PUSH2 0x127F JUMP JUMPDEST PUSH2 0xFFFF AND EQ PUSH2 0x967 JUMPI PUSH1 0x0 SWAP1 POP PUSH2 0x96C JUMP JUMPDEST PUSH1 0x1 SWAP1 POP JUMPDEST SWAP2 SWAP1 POP JUMP JUMPDEST PUSH1 0x0 PUSH1 0x1 DUP3 PUSH2 0x980 SWAP2 SWAP1 PUSH2 0x1191 JUMP JUMPDEST SWAP2 POP PUSH2 0x190 DUP3 PUSH2 0x990 SWAP2 SWAP1 PUSH2 0x10D2 JUMP JUMPDEST PUSH1 0x64 DUP4 PUSH2 0x99D SWAP2 SWAP1 PUSH2 0x10D2 JUMP JUMPDEST PUSH1 0x4 DUP5 PUSH2 0x9AA SWAP2 SWAP1 PUSH2 0x10D2 JUMP JUMPDEST PUSH2 0x9B4 SWAP2 SWAP1 PUSH2 0x1191 JUMP JUMPDEST PUSH2 0x9BE SWAP2 SWAP1 PUSH2 0x107C JUMP JUMPDEST SWAP1 POP SWAP2 SWAP1 POP JUMP JUMPDEST PUSH1 0x0 PUSH1 0x1 DUP4 PUSH1 0xFF AND EQ DUP1 PUSH2 0x9DC JUMPI POP PUSH1 0x3 DUP4 PUSH1 0xFF AND EQ JUMPDEST DUP1 PUSH2 0x9EA JUMPI POP PUSH1 0x5 DUP4 PUSH1 0xFF AND EQ JUMPDEST DUP1 PUSH2 0x9F8 JUMPI POP PUSH1 0x7 DUP4 PUSH1 0xFF AND EQ JUMPDEST DUP1 PUSH2 0xA06 JUMPI POP PUSH1 0x8 DUP4 PUSH1 0xFF AND EQ JUMPDEST DUP1 PUSH2 0xA14 JUMPI POP PUSH1 0xA DUP4 PUSH1 0xFF AND EQ JUMPDEST DUP1 PUSH2 0xA22 JUMPI POP PUSH1 0xC DUP4 PUSH1 0xFF AND EQ JUMPDEST ISZERO PUSH2 0xA30 JUMPI PUSH1 0x1F SWAP1 POP PUSH2 0xA8B JUMP JUMPDEST PUSH1 0x4 DUP4 PUSH1 0xFF AND EQ DUP1 PUSH2 0xA45 JUMPI POP PUSH1 0x6 DUP4 PUSH1 0xFF AND EQ JUMPDEST DUP1 PUSH2 0xA53 JUMPI POP PUSH1 0x9 DUP4 PUSH1 0xFF AND EQ JUMPDEST DUP1 PUSH2 0xA61 JUMPI POP PUSH1 0xB DUP4 PUSH1 0xFF AND EQ JUMPDEST ISZERO PUSH2 0xA6F JUMPI PUSH1 0x1E SWAP1 POP PUSH2 0xA8B JUMP JUMPDEST PUSH2 0xA78 DUP3 PUSH2 0x902 JUMP JUMPDEST ISZERO PUSH2 0xA86 JUMPI PUSH1 0x1D SWAP1 POP PUSH2 0xA8B JUMP JUMPDEST PUSH1 0x1C SWAP1 POP JUMPDEST SWAP3 SWAP2 POP POP JUMP JUMPDEST PUSH1 0x0 PUSH1 0x3C DUP1 DUP4 PUSH2 0xAA1 SWAP2 SWAP1 PUSH2 0x10D2 JUMP JUMPDEST PUSH2 0xAAB SWAP2 SWAP1 PUSH2 0x12B0 JUMP JUMPDEST SWAP1 POP SWAP2 SWAP1 POP JUMP JUMPDEST PUSH2 0xABA PUSH2 0xCE6 JUMP JUMPDEST PUSH1 0x0 DUP1 DUP1 PUSH2 0xAC7 DUP6 PUSH2 0x7D5 JUMP JUMPDEST DUP5 PUSH1 0x0 ADD SWAP1 PUSH2 0xFFFF AND SWAP1 DUP2 PUSH2 0xFFFF AND DUP2 MSTORE POP POP PUSH2 0xAE9 PUSH2 0x7B2 PUSH2 0xFFFF AND PUSH2 0x971 JUMP JUMPDEST PUSH2 0xAFA DUP6 PUSH1 0x0 ADD MLOAD PUSH2 0xFFFF AND PUSH2 0x971 JUMP JUMPDEST PUSH2 0xB04 SWAP2 SWAP1 PUSH2 0x1191 JUMP JUMPDEST SWAP2 POP DUP2 PUSH4 0x1E28500 PUSH2 0xB16 SWAP2 SWAP1 PUSH2 0x1103 JUMP JUMPDEST DUP4 PUSH2 0xB21 SWAP2 SWAP1 PUSH2 0x107C JUMP JUMPDEST SWAP3 POP DUP2 PUSH2 0x7B2 DUP6 PUSH1 0x0 ADD MLOAD PUSH2 0xB36 SWAP2 SWAP1 PUSH2 0x115D JUMP JUMPDEST PUSH2 0xFFFF AND PUSH2 0xB44 SWAP2 SWAP1 PUSH2 0x1191 JUMP JUMPDEST PUSH4 0x1E13380 PUSH2 0xB53 SWAP2 SWAP1 PUSH2 0x1103 JUMP JUMPDEST DUP4 PUSH2 0xB5E SWAP2 SWAP1 PUSH2 0x107C JUMP JUMPDEST SWAP3 POP PUSH1 0x0 PUSH1 0x1 SWAP2 POP JUMPDEST PUSH1 0xC DUP3 PUSH1 0xFF AND GT PUSH2 0xBDE JUMPI PUSH2 0xB80 DUP3 DUP7 PUSH1 0x0 ADD MLOAD PUSH2 0x9C5 JUMP JUMPDEST PUSH1 0xFF AND PUSH3 0x15180 PUSH2 0xB91 SWAP2 SWAP1 PUSH2 0x1103 JUMP JUMPDEST SWAP1 POP DUP6 DUP5 DUP3 PUSH2 0xBA0 SWAP2 SWAP1 PUSH2 0x107C JUMP JUMPDEST GT ISZERO PUSH2 0xBBD JUMPI DUP2 DUP6 PUSH1 0x20 ADD SWAP1 PUSH1 0xFF AND SWAP1 DUP2 PUSH1 0xFF AND DUP2 MSTORE POP POP PUSH2 0xBDE JUMP JUMPDEST DUP1 DUP5 PUSH2 0xBC9 SWAP2 SWAP1 PUSH2 0x107C JUMP JUMPDEST SWAP4 POP DUP2 DUP1 PUSH2 0xBD6 SWAP1 PUSH2 0x1255 JUMP JUMPDEST SWAP3 POP POP PUSH2 0xB67 JUMP JUMPDEST PUSH1 0x1 SWAP2 POP JUMPDEST PUSH2 0xBF5 DUP6 PUSH1 0x20 ADD MLOAD DUP7 PUSH1 0x0 ADD MLOAD PUSH2 0x9C5 JUMP JUMPDEST PUSH1 0xFF AND DUP3 PUSH1 0xFF AND GT PUSH2 0xC52 JUMPI DUP6 DUP5 PUSH3 0x15180 PUSH2 0xC11 SWAP2 SWAP1 PUSH2 0x107C JUMP JUMPDEST GT ISZERO PUSH2 0xC2E JUMPI DUP2 DUP6 PUSH1 0x40 ADD SWAP1 PUSH1 0xFF AND SWAP1 DUP2 PUSH1 0xFF AND DUP2 MSTORE POP POP PUSH2 0xC52 JUMP JUMPDEST PUSH3 0x15180 DUP5 PUSH2 0xC3D SWAP2 SWAP1 PUSH2 0x107C JUMP JUMPDEST SWAP4 POP DUP2 DUP1 PUSH2 0xC4A SWAP1 PUSH2 0x1255 JUMP JUMPDEST SWAP3 POP POP PUSH2 0xBE3 JUMP JUMPDEST PUSH2 0xC5B DUP7 PUSH2 0x38F JUMP JUMPDEST DUP6 PUSH1 0x60 ADD SWAP1 PUSH1 0xFF AND SWAP1 DUP2 PUSH1 0xFF AND DUP2 MSTORE POP POP PUSH2 0xC75 DUP7 PUSH2 0xA91 JUMP JUMPDEST DUP6 PUSH1 0x80 ADD SWAP1 PUSH1 0xFF AND SWAP1 DUP2 PUSH1 0xFF AND DUP2 MSTORE POP POP PUSH2 0xC8F DUP7 PUSH2 0x439 JUMP JUMPDEST DUP6 PUSH1 0xA0 ADD SWAP1 PUSH1 0xFF AND SWAP1 DUP2 PUSH1 0xFF AND DUP2 MSTORE POP POP PUSH2 0xCA9 DUP7 PUSH2 0x3BC JUMP JUMPDEST DUP6 PUSH1 0xC0 ADD SWAP1 PUSH1 0xFF AND SWAP1 DUP2 PUSH1 0xFF AND DUP2 MSTORE POP POP POP POP POP POP SWAP2 SWAP1 POP JUMP JUMPDEST PUSH1 0x40 MLOAD DUP1 PUSH2 0x180 ADD PUSH1 0x40 MSTORE DUP1 PUSH1 0xC SWAP1 PUSH1 0x20 DUP3 MUL DUP1 CALLDATASIZE DUP4 CALLDATACOPY DUP1 DUP3 ADD SWAP2 POP POP SWAP1 POP POP SWAP1 JUMP JUMPDEST PUSH1 0x40 MLOAD DUP1 PUSH1 0xE0 ADD PUSH1 0x40 MSTORE DUP1 PUSH1 0x0 PUSH2 0xFFFF AND DUP2 MSTORE PUSH1 0x20 ADD PUSH1 0x0 PUSH1 0xFF AND DUP2 MSTORE PUSH1 0x20 ADD PUSH1 0x0 PUSH1 0xFF AND DUP2 MSTORE PUSH1 0x20 ADD PUSH1 0x0 PUSH1 0xFF AND DUP2 MSTORE PUSH1 0x20 ADD PUSH1 0x0 PUSH1 0xFF AND DUP2 MSTORE PUSH1 0x20 ADD PUSH1 0x0 PUSH1 0xFF AND DUP2 MSTORE PUSH1 0x20 ADD PUSH1 0x0 PUSH1 0xFF AND DUP2 MSTORE POP SWAP1 JUMP JUMPDEST PUSH1 0x0 DUP2 CALLDATALOAD SWAP1 POP PUSH2 0xD48 DUP2 PUSH2 0x1373 JUMP JUMPDEST SWAP3 SWAP2 POP POP JUMP JUMPDEST PUSH1 0x0 DUP2 CALLDATALOAD SWAP1 POP PUSH2 0xD5D DUP2 PUSH2 0x138A JUMP JUMPDEST SWAP3 SWAP2 POP POP JUMP JUMPDEST PUSH1 0x0 DUP2 CALLDATALOAD SWAP1 POP PUSH2 0xD72 DUP2 PUSH2 0x13A1 JUMP JUMPDEST SWAP3 SWAP2 POP POP JUMP JUMPDEST PUSH1 0x0 PUSH1 0x20 DUP3 DUP5 SUB SLT ISZERO PUSH2 0xD8E JUMPI PUSH2 0xD8D PUSH2 0x136E JUMP JUMPDEST JUMPDEST PUSH1 0x0 PUSH2 0xD9C DUP5 DUP3 DUP6 ADD PUSH2 0xD39 JUMP JUMPDEST SWAP2 POP POP SWAP3 SWAP2 POP POP JUMP JUMPDEST PUSH1 0x0 DUP1 PUSH1 0x0 PUSH1 0x60 DUP5 DUP7 SUB SLT ISZERO PUSH2 0xDBE JUMPI PUSH2 0xDBD PUSH2 0x136E JUMP JUMPDEST JUMPDEST PUSH1 0x0 PUSH2 0xDCC DUP7 DUP3 DUP8 ADD PUSH2 0xD39 JUMP JUMPDEST SWAP4 POP POP PUSH1 0x20 PUSH2 0xDDD DUP7 DUP3 DUP8 ADD PUSH2 0xD63 JUMP JUMPDEST SWAP3 POP POP PUSH1 0x40 PUSH2 0xDEE DUP7 DUP3 DUP8 ADD PUSH2 0xD63 JUMP JUMPDEST SWAP2 POP POP SWAP3 POP SWAP3 POP SWAP3 JUMP JUMPDEST PUSH1 0x0 DUP1 PUSH1 0x0 DUP1 PUSH1 0x80 DUP6 DUP8 SUB SLT ISZERO PUSH2 0xE12 JUMPI PUSH2 0xE11 PUSH2 0x136E JUMP JUMPDEST JUMPDEST PUSH1 0x0 PUSH2 0xE20 DUP8 DUP3 DUP9 ADD PUSH2 0xD39 JUMP JUMPDEST SWAP5 POP POP PUSH1 0x20 PUSH2 0xE31 DUP8 DUP3 DUP9 ADD PUSH2 0xD63 JUMP JUMPDEST SWAP4 POP POP PUSH1 0x40 PUSH2 0xE42 DUP8 DUP3 DUP9 ADD PUSH2 0xD63 JUMP JUMPDEST SWAP3 POP POP PUSH1 0x60 PUSH2 0xE53 DUP8 DUP3 DUP9 ADD PUSH2 0xD63 JUMP JUMPDEST SWAP2 POP POP SWAP3 SWAP6 SWAP2 SWAP5 POP SWAP3 POP JUMP JUMPDEST PUSH1 0x0 DUP1 PUSH1 0x0 DUP1 PUSH1 0x0 PUSH1 0xA0 DUP7 DUP9 SUB SLT ISZERO PUSH2 0xE7B JUMPI PUSH2 0xE7A PUSH2 0x136E JUMP JUMPDEST JUMPDEST PUSH1 0x0 PUSH2 0xE89 DUP9 DUP3 DUP10 ADD PUSH2 0xD39 JUMP JUMPDEST SWAP6 POP POP PUSH1 0x20 PUSH2 0xE9A DUP9 DUP3 DUP10 ADD PUSH2 0xD63 JUMP JUMPDEST SWAP5 POP POP PUSH1 0x40 PUSH2 0xEAB DUP9 DUP3 DUP10 ADD PUSH2 0xD63 JUMP JUMPDEST SWAP4 POP POP PUSH1 0x60 PUSH2 0xEBC DUP9 DUP3 DUP10 ADD PUSH2 0xD63 JUMP JUMPDEST SWAP3 POP POP PUSH1 0x80 PUSH2 0xECD DUP9 DUP3 DUP10 ADD PUSH2 0xD63 JUMP JUMPDEST SWAP2 POP POP SWAP3 SWAP6 POP SWAP3 SWAP6 SWAP1 SWAP4 POP JUMP JUMPDEST PUSH1 0x0 DUP1 PUSH1 0x0 DUP1 PUSH1 0x0 DUP1 PUSH1 0xC0 DUP8 DUP10 SUB SLT ISZERO PUSH2 0xEF7 JUMPI PUSH2 0xEF6 PUSH2 0x136E JUMP JUMPDEST JUMPDEST PUSH1 0x0 PUSH2 0xF05 DUP10 DUP3 DUP11 ADD PUSH2 0xD39 JUMP JUMPDEST SWAP7 POP POP PUSH1 0x20 PUSH2 0xF16 DUP10 DUP3 DUP11 ADD PUSH2 0xD63 JUMP JUMPDEST SWAP6 POP POP PUSH1 0x40 PUSH2 0xF27 DUP10 DUP3 DUP11 ADD PUSH2 0xD63 JUMP JUMPDEST SWAP5 POP POP PUSH1 0x60 PUSH2 0xF38 DUP10 DUP3 DUP11 ADD PUSH2 0xD63 JUMP JUMPDEST SWAP4 POP POP PUSH1 0x80 PUSH2 0xF49 DUP10 DUP3 DUP11 ADD PUSH2 0xD63 JUMP JUMPDEST SWAP3 POP POP PUSH1 0xA0 PUSH2 0xF5A DUP10 DUP3 DUP11 ADD PUSH2 0xD63 JUMP JUMPDEST SWAP2 POP POP SWAP3 SWAP6 POP SWAP3 SWAP6 POP SWAP3 SWAP6 JUMP JUMPDEST PUSH1 0x0 PUSH1 0x20 DUP3 DUP5 SUB SLT ISZERO PUSH2 0xF7D JUMPI PUSH2 0xF7C PUSH2 0x136E JUMP JUMPDEST JUMPDEST PUSH1 0x0 PUSH2 0xF8B DUP5 DUP3 DUP6 ADD PUSH2 0xD4E JUMP JUMPDEST SWAP2 POP POP SWAP3 SWAP2 POP POP JUMP JUMPDEST PUSH1 0x0 DUP1 PUSH1 0x40 DUP4 DUP6 SUB SLT ISZERO PUSH2 0xFAB JUMPI PUSH2 0xFAA PUSH2 0x136E JUMP JUMPDEST JUMPDEST PUSH1 0x0 PUSH2 0xFB9 DUP6 DUP3 DUP7 ADD PUSH2 0xD63 JUMP JUMPDEST SWAP3 POP POP PUSH1 0x20 PUSH2 0xFCA DUP6 DUP3 DUP7 ADD PUSH2 0xD39 JUMP JUMPDEST SWAP2 POP POP SWAP3 POP SWAP3 SWAP1 POP JUMP JUMPDEST PUSH2 0xFDD DUP2 PUSH2 0x11F9 JUMP JUMPDEST DUP3 MSTORE POP POP JUMP JUMPDEST PUSH2 0xFEC DUP2 PUSH2 0x1205 JUMP JUMPDEST DUP3 MSTORE POP POP JUMP JUMPDEST PUSH2 0xFFB DUP2 PUSH2 0x1213 JUMP JUMPDEST DUP3 MSTORE POP POP JUMP JUMPDEST PUSH2 0x100A DUP2 PUSH2 0x121D JUMP JUMPDEST DUP3 MSTORE POP POP JUMP JUMPDEST PUSH1 0x0 PUSH1 0x20 DUP3 ADD SWAP1 POP PUSH2 0x1025 PUSH1 0x0 DUP4 ADD DUP5 PUSH2 0xFD4 JUMP JUMPDEST SWAP3 SWAP2 POP POP JUMP JUMPDEST PUSH1 0x0 PUSH1 0x20 DUP3 ADD SWAP1 POP PUSH2 0x1040 PUSH1 0x0 DUP4 ADD DUP5 PUSH2 0xFE3 JUMP JUMPDEST SWAP3 SWAP2 POP POP JUMP JUMPDEST PUSH1 0x0 PUSH1 0x20 DUP3 ADD SWAP1 POP PUSH2 0x105B PUSH1 0x0 DUP4 ADD DUP5 PUSH2 0xFF2 JUMP JUMPDEST SWAP3 SWAP2 POP POP JUMP JUMPDEST PUSH1 0x0 PUSH1 0x20 DUP3 ADD SWAP1 POP PUSH2 0x1076 PUSH1 0x0 DUP4 ADD DUP5 PUSH2 0x1001 JUMP JUMPDEST SWAP3 SWAP2 POP POP JUMP JUMPDEST PUSH1 0x0 PUSH2 0x1087 DUP3 PUSH2 0x1213 JUMP JUMPDEST SWAP2 POP PUSH2 0x1092 DUP4 PUSH2 0x1213 JUMP JUMPDEST SWAP3 POP DUP3 PUSH32 0xFFFFFFFFFFFFFFFFFFFFFFFFFFFFFFFFFFFFFFFFFFFFFFFFFFFFFFFFFFFFFFFF SUB DUP3 GT ISZERO PUSH2 0x10C7 JUMPI PUSH2 0x10C6 PUSH2 0x12E1 JUMP JUMPDEST JUMPDEST DUP3 DUP3 ADD SWAP1 POP SWAP3 SWAP2 POP POP JUMP JUMPDEST PUSH1 0x0 PUSH2 0x10DD DUP3 PUSH2 0x1213 JUMP JUMPDEST SWAP2 POP PUSH2 0x10E8 DUP4 PUSH2 0x1213 JUMP JUMPDEST SWAP3 POP DUP3 PUSH2 0x10F8 JUMPI PUSH2 0x10F7 PUSH2 0x1310 JUMP JUMPDEST JUMPDEST DUP3 DUP3 DIV SWAP1 POP SWAP3 SWAP2 POP POP JUMP JUMPDEST PUSH1 0x0 PUSH2 0x110E DUP3 PUSH2 0x1213 JUMP JUMPDEST SWAP2 POP PUSH2 0x1119 DUP4 PUSH2 0x1213 JUMP JUMPDEST SWAP3 POP DUP2 PUSH32 0xFFFFFFFFFFFFFFFFFFFFFFFFFFFFFFFFFFFFFFFFFFFFFFFFFFFFFFFFFFFFFFFF DIV DUP4 GT DUP3 ISZERO ISZERO AND ISZERO PUSH2 0x1152 JUMPI PUSH2 0x1151 PUSH2 0x12E1 JUMP JUMPDEST JUMPDEST DUP3 DUP3 MUL SWAP1 POP SWAP3 SWAP2 POP POP JUMP JUMPDEST PUSH1 0x0 PUSH2 0x1168 DUP3 PUSH2 0x1205 JUMP JUMPDEST SWAP2 POP PUSH2 0x1173 DUP4 PUSH2 0x1205 JUMP JUMPDEST SWAP3 POP DUP3 DUP3 LT ISZERO PUSH2 0x1186 JUMPI PUSH2 0x1185 PUSH2 0x12E1 JUMP JUMPDEST JUMPDEST DUP3 DUP3 SUB SWAP1 POP SWAP3 SWAP2 POP POP JUMP JUMPDEST PUSH1 0x0 PUSH2 0x119C DUP3 PUSH2 0x1213 JUMP JUMPDEST SWAP2 POP PUSH2 0x11A7 DUP4 PUSH2 0x1213 JUMP JUMPDEST SWAP3 POP DUP3 DUP3 LT ISZERO PUSH2 0x11BA JUMPI PUSH2 0x11B9 PUSH2 0x12E1 JUMP JUMPDEST JUMPDEST DUP3 DUP3 SUB SWAP1 POP SWAP3 SWAP2 POP POP JUMP JUMPDEST PUSH1 0x0 PUSH2 0x11D0 DUP3 PUSH2 0x121D JUMP JUMPDEST SWAP2 POP PUSH2 0x11DB DUP4 PUSH2 0x121D JUMP JUMPDEST SWAP3 POP DUP3 DUP3 LT ISZERO PUSH2 0x11EE JUMPI PUSH2 0x11ED PUSH2 0x12E1 JUMP JUMPDEST JUMPDEST DUP3 DUP3 SUB SWAP1 POP SWAP3 SWAP2 POP POP JUMP JUMPDEST PUSH1 0x0 DUP2 ISZERO ISZERO SWAP1 POP SWAP2 SWAP1 POP JUMP JUMPDEST PUSH1 0x0 PUSH2 0xFFFF DUP3 AND SWAP1 POP SWAP2 SWAP1 POP JUMP JUMPDEST PUSH1 0x0 DUP2 SWAP1 POP SWAP2 SWAP1 POP JUMP JUMPDEST PUSH1 0x0 PUSH1 0xFF DUP3 AND SWAP1 POP SWAP2 SWAP1 POP JUMP JUMPDEST PUSH1 0x0 PUSH2 0x1235 DUP3 PUSH2 0x1205 JUMP JUMPDEST SWAP2 POP PUSH2 0xFFFF DUP3 EQ ISZERO PUSH2 0x124A JUMPI PUSH2 0x1249 PUSH2 0x12E1 JUMP JUMPDEST JUMPDEST PUSH1 0x1 DUP3 ADD SWAP1 POP SWAP2 SWAP1 POP JUMP JUMPDEST PUSH1 0x0 PUSH2 0x1260 DUP3 PUSH2 0x121D JUMP JUMPDEST SWAP2 POP PUSH1 0xFF DUP3 EQ ISZERO PUSH2 0x1274 JUMPI PUSH2 0x1273 PUSH2 0x12E1 JUMP JUMPDEST JUMPDEST PUSH1 0x1 DUP3 ADD SWAP1 POP SWAP2 SWAP1 POP JUMP JUMPDEST PUSH1 0x0 PUSH2 0x128A DUP3 PUSH2 0x1205 JUMP JUMPDEST SWAP2 POP PUSH2 0x1295 DUP4 PUSH2 0x1205 JUMP JUMPDEST SWAP3 POP DUP3 PUSH2 0x12A5 JUMPI PUSH2 0x12A4 PUSH2 0x1310 JUMP JUMPDEST JUMPDEST DUP3 DUP3 MOD SWAP1 POP SWAP3 SWAP2 POP POP JUMP JUMPDEST PUSH1 0x0 PUSH2 0x12BB DUP3 PUSH2 0x1213 JUMP JUMPDEST SWAP2 POP PUSH2 0x12C6 DUP4 PUSH2 0x1213 JUMP JUMPDEST SWAP3 POP DUP3 PUSH2 0x12D6 JUMPI PUSH2 0x12D5 PUSH2 0x1310 JUMP JUMPDEST JUMPDEST DUP3 DUP3 MOD SWAP1 POP SWAP3 SWAP2 POP POP JUMP JUMPDEST PUSH32 0x4E487B7100000000000000000000000000000000000000000000000000000000 PUSH1 0x0 MSTORE PUSH1 0x11 PUSH1 0x4 MSTORE PUSH1 0x24 PUSH1 0x0 REVERT JUMPDEST PUSH32 0x4E487B7100000000000000000000000000000000000000000000000000000000 PUSH1 0x0 MSTORE PUSH1 0x12 PUSH1 0x4 MSTORE PUSH1 0x24 PUSH1 0x0 REVERT JUMPDEST PUSH32 0x4E487B7100000000000000000000000000000000000000000000000000000000 PUSH1 0x0 MSTORE PUSH1 0x32 PUSH1 0x4 MSTORE PUSH1 0x24 PUSH1 0x0 REVERT JUMPDEST PUSH1 0x0 DUP1 REVERT JUMPDEST PUSH2 0x137C DUP2 PUSH2 0x1205 JUMP JUMPDEST DUP2 EQ PUSH2 0x1387 JUMPI PUSH1 0x0 DUP1 REVERT JUMPDEST POP JUMP JUMPDEST PUSH2 0x1393 DUP2 PUSH2 0x1213 JUMP JUMPDEST DUP2 EQ PUSH2 0x139E JUMPI PUSH1 0x0 DUP1 REVERT JUMPDEST POP JUMP JUMPDEST PUSH2 0x13AA DUP2 PUSH2 0x121D JUMP JUMPDEST DUP2 EQ PUSH2 0x13B5 JUMPI PUSH1 0x0 DUP1 REVERT JUMPDEST POP JUMP INVALID LOG2 PUSH5 0x6970667358 0x22 SLT KECCAK256 DUP14 0xC7 0xED 0x2C GASLIMIT 0x2E TIMESTAMP 0x21 0xB8 PUSH15 0x1CDB74E9227F8226CF184F9095F3DE SWAP7 PUSH31 0xC3C961EE7B64736F6C63430008070033000000000000000000000000000000 "
				},
				"gasEstimates": {
					"creation": {
						"codeDepositCost": "1020400",
						"executionCost": "1061",
						"totalCost": "1021461"
					},
					"external": {
						"getDay(uint256)": "infinite",
						"getDaysInMonth(uint8,uint16)": "infinite",
						"getHour(uint256)": "infinite",
						"getMinute(uint256)": "infinite",
						"getMonth(uint256)": "infinite",
						"getSecond(uint256)": "infinite",
						"getWeekday(uint256)": "infinite",
						"getYear(uint256)": "infinite",
						"isLeapYear(uint16)": "infinite",
						"leapYearsBefore(uint256)": "infinite",
						"toTimestamp(uint16,uint8,uint8)": "infinite",
						"toTimestamp(uint16,uint8,uint8,uint8)": "infinite",
						"toTimestamp(uint16,uint8,uint8,uint8,uint8)": "infinite",
						"toTimestamp(uint16,uint8,uint8,uint8,uint8,uint8)": "infinite"
					},
					"internal": {
						"parseTimestamp(uint256)": "infinite"
					}
				},
				"methodIdentifiers": {
					"getDay(uint256)": "65c72840",
					"getDaysInMonth(uint8,uint16)": "b238ad0e",
					"getHour(uint256)": "3e239e1a",
					"getMinute(uint256)": "fa93f883",
					"getMonth(uint256)": "a324ad24",
					"getSecond(uint256)": "8aa001fc",
					"getWeekday(uint256)": "4ac1ad78",
					"getYear(uint256)": "92d66313",
					"isLeapYear(uint16)": "a6f0e577",
					"leapYearsBefore(uint256)": "b1999937",
					"toTimestamp(uint16,uint8,uint8)": "8c8d98a0",
					"toTimestamp(uint16,uint8,uint8,uint8)": "7f791833",
					"toTimestamp(uint16,uint8,uint8,uint8,uint8)": "62ba9687",
					"toTimestamp(uint16,uint8,uint8,uint8,uint8,uint8)": "9054bdec"
				}
			},
			"storageLayout": {
				"storage": [],
				"types": null
			},
			"userdoc": {
				"kind": "user",
				"methods": {},
				"version": 1
			}
		}
	}
}