{
	"TokenSell.sol": {
		"Tokensell": {
			"abi": [
				{
					"inputs": [],
					"name": "Usdt",
					"outputs": [
						{
							"internalType": "address",
							"name": "",
							"type": "address"
						}
					],
					"stateMutability": "view",
					"type": "function"
				},
				{
					"inputs": [
						{
							"internalType": "address",
							"name": "",
							"type": "address"
						}
					],
					"name": "_balance",
					"outputs": [
						{
							"internalType": "uint256",
							"name": "",
							"type": "uint256"
						}
					],
					"stateMutability": "view",
					"type": "function"
				},
				{
					"inputs": [],
					"name": "axsToken",
					"outputs": [
						{
							"internalType": "address",
							"name": "",
							"type": "address"
						}
					],
					"stateMutability": "view",
					"type": "function"
				},
				{
					"inputs": [
						{
							"internalType": "address",
							"name": "userbalance",
							"type": "address"
						}
					],
					"name": "getuserbalance",
					"outputs": [
						{
							"internalType": "uint256",
							"name": "",
							"type": "uint256"
						}
					],
					"stateMutability": "view",
					"type": "function"
				},
				{
					"inputs": [
						{
							"internalType": "uint256",
							"name": "_starttime",
							"type": "uint256"
						},
						{
							"internalType": "uint256",
							"name": "_endtime",
							"type": "uint256"
						}
					],
					"name": "launch",
					"outputs": [],
					"stateMutability": "view",
					"type": "function"
				},
				{
					"inputs": [],
					"name": "price",
					"outputs": [
						{
							"internalType": "uint256",
							"name": "",
							"type": "uint256"
						}
					],
					"stateMutability": "view",
					"type": "function"
				},
				{
					"inputs": [
						{
							"internalType": "address",
							"name": "get",
							"type": "address"
						},
						{
							"internalType": "uint256",
							"name": "buynmu",
							"type": "uint256"
						}
					],
					"name": "sale",
					"outputs": [],
					"stateMutability": "nonpayable",
					"type": "function"
				},
				{
					"inputs": [],
					"name": "wuthdraw",
					"outputs": [],
					"stateMutability": "nonpayable",
					"type": "function"
				}
			],
			"devdoc": {
				"kind": "dev",
				"methods": {},
				"version": 1
			},
			"evm": {
				"assembly": "    /* \"TokenSell.sol\":152:1509  contract Tokensell{\r... */\n  mstore(0x40, 0x80)\n    /* \"TokenSell.sol\":204:215  1 * 10 * 18 */\n  0xb4\n    /* \"TokenSell.sol\":181:215  uint256 public price = 1 * 10 * 18 */\n  0x00\n  sstore\n    /* \"TokenSell.sol\":300:342  0x0aa7726bc0cB085A3C4fbE3B09b91DD7E27f7fea */\n  0x0aa7726bc0cb085a3c4fbe3b09b91dd7e27f7fea\n    /* \"TokenSell.sol\":274:342  address public axsToken = 0x0aa7726bc0cB085A3C4fbE3B09b91DD7E27f7fea */\n  0x03\n  exp(0x0100, 0x00)\n  dup2\n  sload\n  dup2\n  0xffffffffffffffffffffffffffffffffffffffff\n  mul\n  not\n  and\n  swap1\n  dup4\n  0xffffffffffffffffffffffffffffffffffffffff\n  and\n  mul\n  or\n  swap1\n  sstore\n  pop\n    /* \"TokenSell.sol\":375:417  0xdDE601eBe61EC5fD0729125D4Fd89F0f3b32B296 */\n  0xdde601ebe61ec5fd0729125d4fd89f0f3b32b296\n    /* \"TokenSell.sol\":353:417  address public Usdt = 0xdDE601eBe61EC5fD0729125D4Fd89F0f3b32B296 */\n  0x04\n  exp(0x0100, 0x00)\n  dup2\n  sload\n  dup2\n  0xffffffffffffffffffffffffffffffffffffffff\n  mul\n  not\n  and\n  swap1\n  dup4\n  0xffffffffffffffffffffffffffffffffffffffff\n  and\n  mul\n  or\n  swap1\n  sstore\n  pop\n    /* \"TokenSell.sol\":152:1509  contract Tokensell{\r... */\n  callvalue\n  dup1\n  iszero\n  tag_1\n  jumpi\n  0x00\n  dup1\n  revert\ntag_1:\n  pop\n  dataSize(sub_0)\n  dup1\n  dataOffset(sub_0)\n  0x00\n  codecopy\n  0x00\n  return\nstop\n\nsub_0: assembly {\n        /* \"TokenSell.sol\":152:1509  contract Tokensell{\r... */\n      mstore(0x40, 0x80)\n      callvalue\n      dup1\n      iszero\n      tag_1\n      jumpi\n      0x00\n      dup1\n      revert\n    tag_1:\n      pop\n      jumpi(tag_2, lt(calldatasize, 0x04))\n      shr(0xe0, calldataload(0x00))\n      dup1\n      0xb07d5526\n      gt\n      tag_11\n      jumpi\n      dup1\n      0xb07d5526\n      eq\n      tag_7\n      jumpi\n      dup1\n      0xb6dd5913\n      eq\n      tag_8\n      jumpi\n      dup1\n      0xbb81e016\n      eq\n      tag_9\n      jumpi\n      dup1\n      0xd3aceae2\n      eq\n      tag_10\n      jumpi\n      jump(tag_2)\n    tag_11:\n      dup1\n      0x180dc0ac\n      eq\n      tag_3\n      jumpi\n      dup1\n      0x611efc09\n      eq\n      tag_4\n      jumpi\n      dup1\n      0x82760cd2\n      eq\n      tag_5\n      jumpi\n      dup1\n      0xa035b1fe\n      eq\n      tag_6\n      jumpi\n    tag_2:\n      0x00\n      dup1\n      revert\n        /* \"TokenSell.sol\":274:342  address public axsToken = 0x0aa7726bc0cB085A3C4fbE3B09b91DD7E27f7fea */\n    tag_3:\n      tag_12\n      tag_13\n      jump\t// in\n    tag_12:\n      mload(0x40)\n      tag_14\n      swap2\n      swap1\n      tag_15\n      jump\t// in\n    tag_14:\n      mload(0x40)\n      dup1\n      swap2\n      sub\n      swap1\n      return\n        /* \"TokenSell.sol\":919:1226  function sale(address get,uint256 buynmu)public{\r... */\n    tag_4:\n      tag_16\n      0x04\n      dup1\n      calldatasize\n      sub\n      dup2\n      add\n      swap1\n      tag_17\n      swap2\n      swap1\n      tag_18\n      jump\t// in\n    tag_17:\n      tag_19\n      jump\t// in\n    tag_16:\n      stop\n        /* \"TokenSell.sol\":686:913  function launch(uint _starttime , uint _endtime)external view{\r... */\n    tag_5:\n      tag_20\n      0x04\n      dup1\n      calldatasize\n      sub\n      dup2\n      add\n      swap1\n      tag_21\n      swap2\n      swap1\n      tag_22\n      jump\t// in\n    tag_21:\n      tag_23\n      jump\t// in\n    tag_20:\n      stop\n        /* \"TokenSell.sol\":181:215  uint256 public price = 1 * 10 * 18 */\n    tag_6:\n      tag_24\n      tag_25\n      jump\t// in\n    tag_24:\n      mload(0x40)\n      tag_26\n      swap2\n      swap1\n      tag_27\n      jump\t// in\n    tag_26:\n      mload(0x40)\n      dup1\n      swap2\n      sub\n      swap1\n      return\n        /* \"TokenSell.sol\":1232:1498  function wuthdraw()public{\r... */\n    tag_7:\n      tag_28\n      tag_29\n      jump\t// in\n    tag_28:\n      stop\n        /* \"TokenSell.sol\":353:417  address public Usdt = 0xdDE601eBe61EC5fD0729125D4Fd89F0f3b32B296 */\n    tag_8:\n      tag_30\n      tag_31\n      jump\t// in\n    tag_30:\n      mload(0x40)\n      tag_32\n      swap2\n      swap1\n      tag_15\n      jump\t// in\n    tag_32:\n      mload(0x40)\n      dup1\n      swap2\n      sub\n      swap1\n      return\n        /* \"TokenSell.sol\":481:680  function getuserbalance(address userbalance)public view returns(uint256){\r... */\n    tag_9:\n      tag_33\n      0x04\n      dup1\n      calldatasize\n      sub\n      dup2\n      add\n      swap1\n      tag_34\n      swap2\n      swap1\n      tag_35\n      jump\t// in\n    tag_34:\n      tag_36\n      jump\t// in\n    tag_33:\n      mload(0x40)\n      tag_37\n      swap2\n      swap1\n      tag_27\n      jump\t// in\n    tag_37:\n      mload(0x40)\n      dup1\n      swap2\n      sub\n      swap1\n      return\n        /* \"TokenSell.sol\":428:468  mapping(address => uint) public _balance */\n    tag_10:\n      tag_38\n      0x04\n      dup1\n      calldatasize\n      sub\n      dup2\n      add\n      swap1\n      tag_39\n      swap2\n      swap1\n      tag_35\n      jump\t// in\n    tag_39:\n      tag_40\n      jump\t// in\n    tag_38:\n      mload(0x40)\n      tag_41\n      swap2\n      swap1\n      tag_27\n      jump\t// in\n    tag_41:\n      mload(0x40)\n      dup1\n      swap2\n      sub\n      swap1\n      return\n        /* \"TokenSell.sol\":274:342  address public axsToken = 0x0aa7726bc0cB085A3C4fbE3B09b91DD7E27f7fea */\n    tag_13:\n      0x03\n      0x00\n      swap1\n      sload\n      swap1\n      0x0100\n      exp\n      swap1\n      div\n      0xffffffffffffffffffffffffffffffffffffffff\n      and\n      dup2\n      jump\t// out\n        /* \"TokenSell.sol\":919:1226  function sale(address get,uint256 buynmu)public{\r... */\n    tag_19:\n        /* \"TokenSell.sol\":1004:1013  starttime */\n      sload(0x01)\n        /* \"TokenSell.sol\":985:1000  block.timestamp */\n      timestamp\n        /* \"TokenSell.sol\":985:1013  block.timestamp >= starttime */\n      lt\n      iszero\n        /* \"TokenSell.sol\":977:1014  require(block.timestamp >= starttime) */\n      tag_43\n      jumpi\n      0x00\n      dup1\n      revert\n    tag_43:\n        /* \"TokenSell.sol\":1052:1059  endtime */\n      sload(0x02)\n        /* \"TokenSell.sol\":1033:1048  block.timestamp */\n      timestamp\n        /* \"TokenSell.sol\":1033:1059  block.timestamp <= endtime */\n      gt\n      iszero\n        /* \"TokenSell.sol\":1025:1060  require(block.timestamp <= endtime) */\n      tag_44\n      jumpi\n      0x00\n      dup1\n      revert\n    tag_44:\n        /* \"TokenSell.sol\":1071:1085  uint256 paynum */\n      0x00\n        /* \"TokenSell.sol\":1105:1113  10 ** 18 */\n      0x0de0b6b3a7640000\n        /* \"TokenSell.sol\":1097:1102  price */\n      sload(0x00)\n        /* \"TokenSell.sol\":1088:1094  buynmu */\n      dup4\n        /* \"TokenSell.sol\":1088:1102  buynmu * price */\n      tag_45\n      swap2\n      swap1\n      tag_46\n      jump\t// in\n    tag_45:\n        /* \"TokenSell.sol\":1088:1113  buynmu * price / 10 ** 18 */\n      tag_47\n      swap2\n      swap1\n      tag_48\n      jump\t// in\n    tag_47:\n        /* \"TokenSell.sol\":1071:1113  uint256 paynum = buynmu * price / 10 ** 18 */\n      swap1\n      pop\n        /* \"TokenSell.sol\":1131:1135  Usdt */\n      0x04\n      0x00\n      swap1\n      sload\n      swap1\n      0x0100\n      exp\n      swap1\n      div\n      0xffffffffffffffffffffffffffffffffffffffff\n      and\n        /* \"TokenSell.sol\":1124:1149  IERC20(Usdt).transferFrom */\n      0xffffffffffffffffffffffffffffffffffffffff\n      and\n      0x23b872dd\n        /* \"TokenSell.sol\":1150:1160  msg.sender */\n      caller\n        /* \"TokenSell.sol\":1171:1175  this */\n      address\n        /* \"TokenSell.sol\":1177:1183  paynum */\n      dup5\n        /* \"TokenSell.sol\":1124:1184  IERC20(Usdt).transferFrom(msg.sender , address(this),paynum) */\n      mload(0x40)\n      dup5\n      0xffffffff\n      and\n      0xe0\n      shl\n      dup2\n      mstore\n      0x04\n      add\n      tag_49\n      swap4\n      swap3\n      swap2\n      swap1\n      tag_50\n      jump\t// in\n    tag_49:\n      0x20\n      mload(0x40)\n      dup1\n      dup4\n      sub\n      dup2\n      0x00\n      dup8\n      dup1\n      extcodesize\n      iszero\n      dup1\n      iszero\n      tag_51\n      jumpi\n      0x00\n      dup1\n      revert\n    tag_51:\n      pop\n      gas\n      call\n      iszero\n      dup1\n      iszero\n      tag_53\n      jumpi\n      returndatasize\n      0x00\n      dup1\n      returndatacopy\n      revert(0x00, returndatasize)\n    tag_53:\n      pop\n      pop\n      pop\n      pop\n      mload(0x40)\n      returndatasize\n      not(0x1f)\n      0x1f\n      dup3\n      add\n      and\n      dup3\n      add\n      dup1\n      0x40\n      mstore\n      pop\n      dup2\n      add\n      swap1\n      tag_54\n      swap2\n      swap1\n      tag_55\n      jump\t// in\n    tag_54:\n      pop\n        /* \"TokenSell.sol\":1212:1218  buynmu */\n      dup2\n        /* \"TokenSell.sol\":1195:1203  _balance */\n      0x05\n        /* \"TokenSell.sol\":1195:1208  _balance[get] */\n      0x00\n        /* \"TokenSell.sol\":1204:1207  get */\n      dup6\n        /* \"TokenSell.sol\":1195:1208  _balance[get] */\n      0xffffffffffffffffffffffffffffffffffffffff\n      and\n      0xffffffffffffffffffffffffffffffffffffffff\n      and\n      dup2\n      mstore\n      0x20\n      add\n      swap1\n      dup2\n      mstore\n      0x20\n      add\n      0x00\n      keccak256\n      0x00\n        /* \"TokenSell.sol\":1195:1218  _balance[get] += buynmu */\n      dup3\n      dup3\n      sload\n      tag_56\n      swap2\n      swap1\n      tag_57\n      jump\t// in\n    tag_56:\n      swap3\n      pop\n      pop\n      dup2\n      swap1\n      sstore\n      pop\n        /* \"TokenSell.sol\":966:1226  {\r... */\n      pop\n        /* \"TokenSell.sol\":919:1226  function sale(address get,uint256 buynmu)public{\r... */\n      pop\n      pop\n      jump\t// out\n        /* \"TokenSell.sol\":686:913  function launch(uint _starttime , uint _endtime)external view{\r... */\n    tag_23:\n        /* \"TokenSell.sol\":780:795  block.timestamp */\n      timestamp\n        /* \"TokenSell.sol\":766:776  _starttime */\n      dup3\n        /* \"TokenSell.sol\":766:795  _starttime >= block.timestamp */\n      lt\n      iszero\n        /* \"TokenSell.sol\":758:796  require(_starttime >= block.timestamp) */\n      tag_59\n      jumpi\n      0x00\n      dup1\n      revert\n    tag_59:\n        /* \"TokenSell.sol\":827:837  _starttime */\n      dup2\n        /* \"TokenSell.sol\":815:823  _endtime */\n      dup2\n        /* \"TokenSell.sol\":815:837  _endtime >= _starttime */\n      lt\n      iszero\n        /* \"TokenSell.sol\":807:838  require(_endtime >= _starttime) */\n      tag_60\n      jumpi\n      0x00\n      dup1\n      revert\n    tag_60:\n        /* \"TokenSell.sol\":887:894  30 days */\n      0x278d00\n        /* \"TokenSell.sol\":869:884  block.timestamp */\n      timestamp\n        /* \"TokenSell.sol\":869:894  block.timestamp + 30 days */\n      tag_61\n      swap2\n      swap1\n      tag_57\n      jump\t// in\n    tag_61:\n        /* \"TokenSell.sol\":857:865  _endtime */\n      dup2\n        /* \"TokenSell.sol\":857:894  _endtime <= block.timestamp + 30 days */\n      gt\n      iszero\n        /* \"TokenSell.sol\":849:895  require(_endtime <= block.timestamp + 30 days) */\n      tag_62\n      jumpi\n      0x00\n      dup1\n      revert\n    tag_62:\n        /* \"TokenSell.sol\":686:913  function launch(uint _starttime , uint _endtime)external view{\r... */\n      pop\n      pop\n      jump\t// out\n        /* \"TokenSell.sol\":181:215  uint256 public price = 1 * 10 * 18 */\n    tag_25:\n      sload(0x00)\n      dup2\n      jump\t// out\n        /* \"TokenSell.sol\":1232:1498  function wuthdraw()public{\r... */\n    tag_29:\n        /* \"TokenSell.sol\":1295:1304  starttime */\n      sload(0x01)\n        /* \"TokenSell.sol\":1276:1291  block.timestamp */\n      timestamp\n        /* \"TokenSell.sol\":1276:1304  block.timestamp >= starttime */\n      lt\n      iszero\n        /* \"TokenSell.sol\":1268:1305  require(block.timestamp >= starttime) */\n      tag_64\n      jumpi\n      0x00\n      dup1\n      revert\n    tag_64:\n        /* \"TokenSell.sol\":1343:1350  endtime */\n      sload(0x02)\n        /* \"TokenSell.sol\":1324:1339  block.timestamp */\n      timestamp\n        /* \"TokenSell.sol\":1324:1350  block.timestamp <= endtime */\n      gt\n      iszero\n        /* \"TokenSell.sol\":1316:1351  require(block.timestamp <= endtime) */\n      tag_65\n      jumpi\n      0x00\n      dup1\n      revert\n    tag_65:\n        /* \"TokenSell.sol\":1362:1370  uint bal */\n      0x00\n        /* \"TokenSell.sol\":1380:1384  Usdt */\n      0x04\n      0x00\n      swap1\n      sload\n      swap1\n      0x0100\n      exp\n      swap1\n      div\n      0xffffffffffffffffffffffffffffffffffffffff\n      and\n        /* \"TokenSell.sol\":1373:1395  IERC20(Usdt).balanceOf */\n      0xffffffffffffffffffffffffffffffffffffffff\n      and\n      0x70a08231\n        /* \"TokenSell.sol\":1404:1408  this */\n      address\n        /* \"TokenSell.sol\":1373:1410  IERC20(Usdt).balanceOf(address(this)) */\n      mload(0x40)\n      dup3\n      0xffffffff\n      and\n      0xe0\n      shl\n      dup2\n      mstore\n      0x04\n      add\n      tag_66\n      swap2\n      swap1\n      tag_15\n      jump\t// in\n    tag_66:\n      0x20\n      mload(0x40)\n      dup1\n      dup4\n      sub\n      dup2\n      dup7\n      dup1\n      extcodesize\n      iszero\n      dup1\n      iszero\n      tag_67\n      jumpi\n      0x00\n      dup1\n      revert\n    tag_67:\n      pop\n      gas\n      staticcall\n      iszero\n      dup1\n      iszero\n      tag_69\n      jumpi\n      returndatasize\n      0x00\n      dup1\n      returndatacopy\n      revert(0x00, returndatasize)\n    tag_69:\n      pop\n      pop\n      pop\n      pop\n      mload(0x40)\n      returndatasize\n      not(0x1f)\n      0x1f\n      dup3\n      add\n      and\n      dup3\n      add\n      dup1\n      0x40\n      mstore\n      pop\n      dup2\n      add\n      swap1\n      tag_70\n      swap2\n      swap1\n      tag_71\n      jump\t// in\n    tag_70:\n        /* \"TokenSell.sol\":1362:1410  uint bal = IERC20(Usdt).balanceOf(address(this)) */\n      swap1\n      pop\n        /* \"TokenSell.sol\":1428:1432  Usdt */\n      0x04\n      0x00\n      swap1\n      sload\n      swap1\n      0x0100\n      exp\n      swap1\n      div\n      0xffffffffffffffffffffffffffffffffffffffff\n      and\n        /* \"TokenSell.sol\":1421:1442  IERC20(Usdt).transfer */\n      0xffffffffffffffffffffffffffffffffffffffff\n      and\n      0xa9059cbb\n        /* \"TokenSell.sol\":1443:1485  0x0aa7726bc0cB085A3C4fbE3B09b91DD7E27f7fea */\n      0x0aa7726bc0cb085a3c4fbe3b09b91dd7e27f7fea\n        /* \"TokenSell.sol\":1486:1489  bal */\n      dup4\n        /* \"TokenSell.sol\":1421:1490  IERC20(Usdt).transfer(0x0aa7726bc0cB085A3C4fbE3B09b91DD7E27f7fea,bal) */\n      mload(0x40)\n      dup4\n      0xffffffff\n      and\n      0xe0\n      shl\n      dup2\n      mstore\n      0x04\n      add\n      tag_72\n      swap3\n      swap2\n      swap1\n      tag_73\n      jump\t// in\n    tag_72:\n      0x20\n      mload(0x40)\n      dup1\n      dup4\n      sub\n      dup2\n      0x00\n      dup8\n      dup1\n      extcodesize\n      iszero\n      dup1\n      iszero\n      tag_74\n      jumpi\n      0x00\n      dup1\n      revert\n    tag_74:\n      pop\n      gas\n      call\n      iszero\n      dup1\n      iszero\n      tag_76\n      jumpi\n      returndatasize\n      0x00\n      dup1\n      returndatacopy\n      revert(0x00, returndatasize)\n    tag_76:\n      pop\n      pop\n      pop\n      pop\n      mload(0x40)\n      returndatasize\n      not(0x1f)\n      0x1f\n      dup3\n      add\n      and\n      dup3\n      add\n      dup1\n      0x40\n      mstore\n      pop\n      dup2\n      add\n      swap1\n      tag_77\n      swap2\n      swap1\n      tag_55\n      jump\t// in\n    tag_77:\n      pop\n        /* \"TokenSell.sol\":1257:1498  {\r... */\n      pop\n        /* \"TokenSell.sol\":1232:1498  function wuthdraw()public{\r... */\n      jump\t// out\n        /* \"TokenSell.sol\":353:417  address public Usdt = 0xdDE601eBe61EC5fD0729125D4Fd89F0f3b32B296 */\n    tag_31:\n      0x04\n      0x00\n      swap1\n      sload\n      swap1\n      0x0100\n      exp\n      swap1\n      div\n      0xffffffffffffffffffffffffffffffffffffffff\n      and\n      dup2\n      jump\t// out\n        /* \"TokenSell.sol\":481:680  function getuserbalance(address userbalance)public view returns(uint256){\r... */\n    tag_36:\n        /* \"TokenSell.sol\":545:552  uint256 */\n      0x00\n        /* \"TokenSell.sol\":564:575  uint256 bal */\n      dup1\n        /* \"TokenSell.sol\":585:627  0xdDE601eBe61EC5fD0729125D4Fd89F0f3b32B296 */\n      0xdde601ebe61ec5fd0729125d4fd89f0f3b32b296\n        /* \"TokenSell.sol\":578:638  IERC20(0xdDE601eBe61EC5fD0729125D4Fd89F0f3b32B296).balanceOf */\n      0xffffffffffffffffffffffffffffffffffffffff\n      and\n      0x70a08231\n        /* \"TokenSell.sol\":639:650  userbalance */\n      dup5\n        /* \"TokenSell.sol\":578:651  IERC20(0xdDE601eBe61EC5fD0729125D4Fd89F0f3b32B296).balanceOf(userbalance) */\n      mload(0x40)\n      dup3\n      0xffffffff\n      and\n      0xe0\n      shl\n      dup2\n      mstore\n      0x04\n      add\n      tag_79\n      swap2\n      swap1\n      tag_15\n      jump\t// in\n    tag_79:\n      0x20\n      mload(0x40)\n      dup1\n      dup4\n      sub\n      dup2\n      dup7\n      dup1\n      extcodesize\n      iszero\n      dup1\n      iszero\n      tag_80\n      jumpi\n      0x00\n      dup1\n      revert\n    tag_80:\n      pop\n      gas\n      staticcall\n      iszero\n      dup1\n      iszero\n      tag_82\n      jumpi\n      returndatasize\n      0x00\n      dup1\n      returndatacopy\n      revert(0x00, returndatasize)\n    tag_82:\n      pop\n      pop\n      pop\n      pop\n      mload(0x40)\n      returndatasize\n      not(0x1f)\n      0x1f\n      dup3\n      add\n      and\n      dup3\n      add\n      dup1\n      0x40\n      mstore\n      pop\n      dup2\n      add\n      swap1\n      tag_83\n      swap2\n      swap1\n      tag_71\n      jump\t// in\n    tag_83:\n        /* \"TokenSell.sol\":564:651  uint256 bal = IERC20(0xdDE601eBe61EC5fD0729125D4Fd89F0f3b32B296).balanceOf(userbalance) */\n      swap1\n      pop\n        /* \"TokenSell.sol\":669:672  bal */\n      dup1\n        /* \"TokenSell.sol\":662:672  return bal */\n      swap2\n      pop\n      pop\n        /* \"TokenSell.sol\":481:680  function getuserbalance(address userbalance)public view returns(uint256){\r... */\n      swap2\n      swap1\n      pop\n      jump\t// out\n        /* \"TokenSell.sol\":428:468  mapping(address => uint) public _balance */\n    tag_40:\n      mstore(0x20, 0x05)\n      dup1\n      0x00\n      mstore\n      keccak256(0x00, 0x40)\n      0x00\n      swap2\n      pop\n      swap1\n      pop\n      sload\n      dup2\n      jump\t// out\n        /* \"#utility.yul\":7:146   */\n    tag_85:\n        /* \"#utility.yul\":53:58   */\n      0x00\n        /* \"#utility.yul\":91:97   */\n      dup2\n        /* \"#utility.yul\":78:98   */\n      calldataload\n        /* \"#utility.yul\":69:98   */\n      swap1\n      pop\n        /* \"#utility.yul\":107:140   */\n      tag_87\n        /* \"#utility.yul\":134:139   */\n      dup2\n        /* \"#utility.yul\":107:140   */\n      tag_88\n      jump\t// in\n    tag_87:\n        /* \"#utility.yul\":7:146   */\n      swap3\n      swap2\n      pop\n      pop\n      jump\t// out\n        /* \"#utility.yul\":152:289   */\n    tag_89:\n        /* \"#utility.yul\":206:211   */\n      0x00\n        /* \"#utility.yul\":237:243   */\n      dup2\n        /* \"#utility.yul\":231:244   */\n      mload\n        /* \"#utility.yul\":222:244   */\n      swap1\n      pop\n        /* \"#utility.yul\":253:283   */\n      tag_91\n        /* \"#utility.yul\":277:282   */\n      dup2\n        /* \"#utility.yul\":253:283   */\n      tag_92\n      jump\t// in\n    tag_91:\n        /* \"#utility.yul\":152:289   */\n      swap3\n      swap2\n      pop\n      pop\n      jump\t// out\n        /* \"#utility.yul\":295:434   */\n    tag_93:\n        /* \"#utility.yul\":341:346   */\n      0x00\n        /* \"#utility.yul\":379:385   */\n      dup2\n        /* \"#utility.yul\":366:386   */\n      calldataload\n        /* \"#utility.yul\":357:386   */\n      swap1\n      pop\n        /* \"#utility.yul\":395:428   */\n      tag_95\n        /* \"#utility.yul\":422:427   */\n      dup2\n        /* \"#utility.yul\":395:428   */\n      tag_96\n      jump\t// in\n    tag_95:\n        /* \"#utility.yul\":295:434   */\n      swap3\n      swap2\n      pop\n      pop\n      jump\t// out\n        /* \"#utility.yul\":440:583   */\n    tag_97:\n        /* \"#utility.yul\":497:502   */\n      0x00\n        /* \"#utility.yul\":528:534   */\n      dup2\n        /* \"#utility.yul\":522:535   */\n      mload\n        /* \"#utility.yul\":513:535   */\n      swap1\n      pop\n        /* \"#utility.yul\":544:577   */\n      tag_99\n        /* \"#utility.yul\":571:576   */\n      dup2\n        /* \"#utility.yul\":544:577   */\n      tag_96\n      jump\t// in\n    tag_99:\n        /* \"#utility.yul\":440:583   */\n      swap3\n      swap2\n      pop\n      pop\n      jump\t// out\n        /* \"#utility.yul\":589:918   */\n    tag_35:\n        /* \"#utility.yul\":648:654   */\n      0x00\n        /* \"#utility.yul\":697:699   */\n      0x20\n        /* \"#utility.yul\":685:694   */\n      dup3\n        /* \"#utility.yul\":676:683   */\n      dup5\n        /* \"#utility.yul\":672:695   */\n      sub\n        /* \"#utility.yul\":668:700   */\n      slt\n        /* \"#utility.yul\":665:784   */\n      iszero\n      tag_101\n      jumpi\n        /* \"#utility.yul\":703:782   */\n      tag_102\n      tag_103\n      jump\t// in\n    tag_102:\n        /* \"#utility.yul\":665:784   */\n    tag_101:\n        /* \"#utility.yul\":823:824   */\n      0x00\n        /* \"#utility.yul\":848:901   */\n      tag_104\n        /* \"#utility.yul\":893:900   */\n      dup5\n        /* \"#utility.yul\":884:890   */\n      dup3\n        /* \"#utility.yul\":873:882   */\n      dup6\n        /* \"#utility.yul\":869:891   */\n      add\n        /* \"#utility.yul\":848:901   */\n      tag_85\n      jump\t// in\n    tag_104:\n        /* \"#utility.yul\":838:901   */\n      swap2\n      pop\n        /* \"#utility.yul\":794:911   */\n      pop\n        /* \"#utility.yul\":589:918   */\n      swap3\n      swap2\n      pop\n      pop\n      jump\t// out\n        /* \"#utility.yul\":924:1398   */\n    tag_18:\n        /* \"#utility.yul\":992:998   */\n      0x00\n        /* \"#utility.yul\":1000:1006   */\n      dup1\n        /* \"#utility.yul\":1049:1051   */\n      0x40\n        /* \"#utility.yul\":1037:1046   */\n      dup4\n        /* \"#utility.yul\":1028:1035   */\n      dup6\n        /* \"#utility.yul\":1024:1047   */\n      sub\n        /* \"#utility.yul\":1020:1052   */\n      slt\n        /* \"#utility.yul\":1017:1136   */\n      iszero\n      tag_106\n      jumpi\n        /* \"#utility.yul\":1055:1134   */\n      tag_107\n      tag_103\n      jump\t// in\n    tag_107:\n        /* \"#utility.yul\":1017:1136   */\n    tag_106:\n        /* \"#utility.yul\":1175:1176   */\n      0x00\n        /* \"#utility.yul\":1200:1253   */\n      tag_108\n        /* \"#utility.yul\":1245:1252   */\n      dup6\n        /* \"#utility.yul\":1236:1242   */\n      dup3\n        /* \"#utility.yul\":1225:1234   */\n      dup7\n        /* \"#utility.yul\":1221:1243   */\n      add\n        /* \"#utility.yul\":1200:1253   */\n      tag_85\n      jump\t// in\n    tag_108:\n        /* \"#utility.yul\":1190:1253   */\n      swap3\n      pop\n        /* \"#utility.yul\":1146:1263   */\n      pop\n        /* \"#utility.yul\":1302:1304   */\n      0x20\n        /* \"#utility.yul\":1328:1381   */\n      tag_109\n        /* \"#utility.yul\":1373:1380   */\n      dup6\n        /* \"#utility.yul\":1364:1370   */\n      dup3\n        /* \"#utility.yul\":1353:1362   */\n      dup7\n        /* \"#utility.yul\":1349:1371   */\n      add\n        /* \"#utility.yul\":1328:1381   */\n      tag_93\n      jump\t// in\n    tag_109:\n        /* \"#utility.yul\":1318:1381   */\n      swap2\n      pop\n        /* \"#utility.yul\":1273:1391   */\n      pop\n        /* \"#utility.yul\":924:1398   */\n      swap3\n      pop\n      swap3\n      swap1\n      pop\n      jump\t// out\n        /* \"#utility.yul\":1404:1749   */\n    tag_55:\n        /* \"#utility.yul\":1471:1477   */\n      0x00\n        /* \"#utility.yul\":1520:1522   */\n      0x20\n        /* \"#utility.yul\":1508:1517   */\n      dup3\n        /* \"#utility.yul\":1499:1506   */\n      dup5\n        /* \"#utility.yul\":1495:1518   */\n      sub\n        /* \"#utility.yul\":1491:1523   */\n      slt\n        /* \"#utility.yul\":1488:1607   */\n      iszero\n      tag_111\n      jumpi\n        /* \"#utility.yul\":1526:1605   */\n      tag_112\n      tag_103\n      jump\t// in\n    tag_112:\n        /* \"#utility.yul\":1488:1607   */\n    tag_111:\n        /* \"#utility.yul\":1646:1647   */\n      0x00\n        /* \"#utility.yul\":1671:1732   */\n      tag_113\n        /* \"#utility.yul\":1724:1731   */\n      dup5\n        /* \"#utility.yul\":1715:1721   */\n      dup3\n        /* \"#utility.yul\":1704:1713   */\n      dup6\n        /* \"#utility.yul\":1700:1722   */\n      add\n        /* \"#utility.yul\":1671:1732   */\n      tag_89\n      jump\t// in\n    tag_113:\n        /* \"#utility.yul\":1661:1732   */\n      swap2\n      pop\n        /* \"#utility.yul\":1617:1742   */\n      pop\n        /* \"#utility.yul\":1404:1749   */\n      swap3\n      swap2\n      pop\n      pop\n      jump\t// out\n        /* \"#utility.yul\":1755:2106   */\n    tag_71:\n        /* \"#utility.yul\":1825:1831   */\n      0x00\n        /* \"#utility.yul\":1874:1876   */\n      0x20\n        /* \"#utility.yul\":1862:1871   */\n      dup3\n        /* \"#utility.yul\":1853:1860   */\n      dup5\n        /* \"#utility.yul\":1849:1872   */\n      sub\n        /* \"#utility.yul\":1845:1877   */\n      slt\n        /* \"#utility.yul\":1842:1961   */\n      iszero\n      tag_115\n      jumpi\n        /* \"#utility.yul\":1880:1959   */\n      tag_116\n      tag_103\n      jump\t// in\n    tag_116:\n        /* \"#utility.yul\":1842:1961   */\n    tag_115:\n        /* \"#utility.yul\":2000:2001   */\n      0x00\n        /* \"#utility.yul\":2025:2089   */\n      tag_117\n        /* \"#utility.yul\":2081:2088   */\n      dup5\n        /* \"#utility.yul\":2072:2078   */\n      dup3\n        /* \"#utility.yul\":2061:2070   */\n      dup6\n        /* \"#utility.yul\":2057:2079   */\n      add\n        /* \"#utility.yul\":2025:2089   */\n      tag_97\n      jump\t// in\n    tag_117:\n        /* \"#utility.yul\":2015:2089   */\n      swap2\n      pop\n        /* \"#utility.yul\":1971:2099   */\n      pop\n        /* \"#utility.yul\":1755:2106   */\n      swap3\n      swap2\n      pop\n      pop\n      jump\t// out\n        /* \"#utility.yul\":2112:2586   */\n    tag_22:\n        /* \"#utility.yul\":2180:2186   */\n      0x00\n        /* \"#utility.yul\":2188:2194   */\n      dup1\n        /* \"#utility.yul\":2237:2239   */\n      0x40\n        /* \"#utility.yul\":2225:2234   */\n      dup4\n        /* \"#utility.yul\":2216:2223   */\n      dup6\n        /* \"#utility.yul\":2212:2235   */\n      sub\n        /* \"#utility.yul\":2208:2240   */\n      slt\n        /* \"#utility.yul\":2205:2324   */\n      iszero\n      tag_119\n      jumpi\n        /* \"#utility.yul\":2243:2322   */\n      tag_120\n      tag_103\n      jump\t// in\n    tag_120:\n        /* \"#utility.yul\":2205:2324   */\n    tag_119:\n        /* \"#utility.yul\":2363:2364   */\n      0x00\n        /* \"#utility.yul\":2388:2441   */\n      tag_121\n        /* \"#utility.yul\":2433:2440   */\n      dup6\n        /* \"#utility.yul\":2424:2430   */\n      dup3\n        /* \"#utility.yul\":2413:2422   */\n      dup7\n        /* \"#utility.yul\":2409:2431   */\n      add\n        /* \"#utility.yul\":2388:2441   */\n      tag_93\n      jump\t// in\n    tag_121:\n        /* \"#utility.yul\":2378:2441   */\n      swap3\n      pop\n        /* \"#utility.yul\":2334:2451   */\n      pop\n        /* \"#utility.yul\":2490:2492   */\n      0x20\n        /* \"#utility.yul\":2516:2569   */\n      tag_122\n        /* \"#utility.yul\":2561:2568   */\n      dup6\n        /* \"#utility.yul\":2552:2558   */\n      dup3\n        /* \"#utility.yul\":2541:2550   */\n      dup7\n        /* \"#utility.yul\":2537:2559   */\n      add\n        /* \"#utility.yul\":2516:2569   */\n      tag_93\n      jump\t// in\n    tag_122:\n        /* \"#utility.yul\":2506:2569   */\n      swap2\n      pop\n        /* \"#utility.yul\":2461:2579   */\n      pop\n        /* \"#utility.yul\":2112:2586   */\n      swap3\n      pop\n      swap3\n      swap1\n      pop\n      jump\t// out\n        /* \"#utility.yul\":2592:2710   */\n    tag_123:\n        /* \"#utility.yul\":2679:2703   */\n      tag_125\n        /* \"#utility.yul\":2697:2702   */\n      dup2\n        /* \"#utility.yul\":2679:2703   */\n      tag_126\n      jump\t// in\n    tag_125:\n        /* \"#utility.yul\":2674:2677   */\n      dup3\n        /* \"#utility.yul\":2667:2704   */\n      mstore\n        /* \"#utility.yul\":2592:2710   */\n      pop\n      pop\n      jump\t// out\n        /* \"#utility.yul\":2716:2834   */\n    tag_127:\n        /* \"#utility.yul\":2803:2827   */\n      tag_129\n        /* \"#utility.yul\":2821:2826   */\n      dup2\n        /* \"#utility.yul\":2803:2827   */\n      tag_130\n      jump\t// in\n    tag_129:\n        /* \"#utility.yul\":2798:2801   */\n      dup3\n        /* \"#utility.yul\":2791:2828   */\n      mstore\n        /* \"#utility.yul\":2716:2834   */\n      pop\n      pop\n      jump\t// out\n        /* \"#utility.yul\":2840:3062   */\n    tag_15:\n        /* \"#utility.yul\":2933:2937   */\n      0x00\n        /* \"#utility.yul\":2971:2973   */\n      0x20\n        /* \"#utility.yul\":2960:2969   */\n      dup3\n        /* \"#utility.yul\":2956:2974   */\n      add\n        /* \"#utility.yul\":2948:2974   */\n      swap1\n      pop\n        /* \"#utility.yul\":2984:3055   */\n      tag_132\n        /* \"#utility.yul\":3052:3053   */\n      0x00\n        /* \"#utility.yul\":3041:3050   */\n      dup4\n        /* \"#utility.yul\":3037:3054   */\n      add\n        /* \"#utility.yul\":3028:3034   */\n      dup5\n        /* \"#utility.yul\":2984:3055   */\n      tag_123\n      jump\t// in\n    tag_132:\n        /* \"#utility.yul\":2840:3062   */\n      swap3\n      swap2\n      pop\n      pop\n      jump\t// out\n        /* \"#utility.yul\":3068:3510   */\n    tag_50:\n        /* \"#utility.yul\":3217:3221   */\n      0x00\n        /* \"#utility.yul\":3255:3257   */\n      0x60\n        /* \"#utility.yul\":3244:3253   */\n      dup3\n        /* \"#utility.yul\":3240:3258   */\n      add\n        /* \"#utility.yul\":3232:3258   */\n      swap1\n      pop\n        /* \"#utility.yul\":3268:3339   */\n      tag_134\n        /* \"#utility.yul\":3336:3337   */\n      0x00\n        /* \"#utility.yul\":3325:3334   */\n      dup4\n        /* \"#utility.yul\":3321:3338   */\n      add\n        /* \"#utility.yul\":3312:3318   */\n      dup7\n        /* \"#utility.yul\":3268:3339   */\n      tag_123\n      jump\t// in\n    tag_134:\n        /* \"#utility.yul\":3349:3421   */\n      tag_135\n        /* \"#utility.yul\":3417:3419   */\n      0x20\n        /* \"#utility.yul\":3406:3415   */\n      dup4\n        /* \"#utility.yul\":3402:3420   */\n      add\n        /* \"#utility.yul\":3393:3399   */\n      dup6\n        /* \"#utility.yul\":3349:3421   */\n      tag_123\n      jump\t// in\n    tag_135:\n        /* \"#utility.yul\":3431:3503   */\n      tag_136\n        /* \"#utility.yul\":3499:3501   */\n      0x40\n        /* \"#utility.yul\":3488:3497   */\n      dup4\n        /* \"#utility.yul\":3484:3502   */\n      add\n        /* \"#utility.yul\":3475:3481   */\n      dup5\n        /* \"#utility.yul\":3431:3503   */\n      tag_127\n      jump\t// in\n    tag_136:\n        /* \"#utility.yul\":3068:3510   */\n      swap5\n      swap4\n      pop\n      pop\n      pop\n      pop\n      jump\t// out\n        /* \"#utility.yul\":3516:3848   */\n    tag_73:\n        /* \"#utility.yul\":3637:3641   */\n      0x00\n        /* \"#utility.yul\":3675:3677   */\n      0x40\n        /* \"#utility.yul\":3664:3673   */\n      dup3\n        /* \"#utility.yul\":3660:3678   */\n      add\n        /* \"#utility.yul\":3652:3678   */\n      swap1\n      pop\n        /* \"#utility.yul\":3688:3759   */\n      tag_138\n        /* \"#utility.yul\":3756:3757   */\n      0x00\n        /* \"#utility.yul\":3745:3754   */\n      dup4\n        /* \"#utility.yul\":3741:3758   */\n      add\n        /* \"#utility.yul\":3732:3738   */\n      dup6\n        /* \"#utility.yul\":3688:3759   */\n      tag_123\n      jump\t// in\n    tag_138:\n        /* \"#utility.yul\":3769:3841   */\n      tag_139\n        /* \"#utility.yul\":3837:3839   */\n      0x20\n        /* \"#utility.yul\":3826:3835   */\n      dup4\n        /* \"#utility.yul\":3822:3840   */\n      add\n        /* \"#utility.yul\":3813:3819   */\n      dup5\n        /* \"#utility.yul\":3769:3841   */\n      tag_127\n      jump\t// in\n    tag_139:\n        /* \"#utility.yul\":3516:3848   */\n      swap4\n      swap3\n      pop\n      pop\n      pop\n      jump\t// out\n        /* \"#utility.yul\":3854:4076   */\n    tag_27:\n        /* \"#utility.yul\":3947:3951   */\n      0x00\n        /* \"#utility.yul\":3985:3987   */\n      0x20\n        /* \"#utility.yul\":3974:3983   */\n      dup3\n        /* \"#utility.yul\":3970:3988   */\n      add\n        /* \"#utility.yul\":3962:3988   */\n      swap1\n      pop\n        /* \"#utility.yul\":3998:4069   */\n      tag_141\n        /* \"#utility.yul\":4066:4067   */\n      0x00\n        /* \"#utility.yul\":4055:4064   */\n      dup4\n        /* \"#utility.yul\":4051:4068   */\n      add\n        /* \"#utility.yul\":4042:4048   */\n      dup5\n        /* \"#utility.yul\":3998:4069   */\n      tag_127\n      jump\t// in\n    tag_141:\n        /* \"#utility.yul\":3854:4076   */\n      swap3\n      swap2\n      pop\n      pop\n      jump\t// out\n        /* \"#utility.yul\":4163:4468   */\n    tag_57:\n        /* \"#utility.yul\":4203:4206   */\n      0x00\n        /* \"#utility.yul\":4222:4242   */\n      tag_145\n        /* \"#utility.yul\":4240:4241   */\n      dup3\n        /* \"#utility.yul\":4222:4242   */\n      tag_130\n      jump\t// in\n    tag_145:\n        /* \"#utility.yul\":4217:4242   */\n      swap2\n      pop\n        /* \"#utility.yul\":4256:4276   */\n      tag_146\n        /* \"#utility.yul\":4274:4275   */\n      dup4\n        /* \"#utility.yul\":4256:4276   */\n      tag_130\n      jump\t// in\n    tag_146:\n        /* \"#utility.yul\":4251:4276   */\n      swap3\n      pop\n        /* \"#utility.yul\":4410:4411   */\n      dup3\n        /* \"#utility.yul\":4342:4408   */\n      0xffffffffffffffffffffffffffffffffffffffffffffffffffffffffffffffff\n        /* \"#utility.yul\":4338:4412   */\n      sub\n        /* \"#utility.yul\":4335:4336   */\n      dup3\n        /* \"#utility.yul\":4332:4413   */\n      gt\n        /* \"#utility.yul\":4329:4436   */\n      iszero\n      tag_147\n      jumpi\n        /* \"#utility.yul\":4416:4434   */\n      tag_148\n      tag_149\n      jump\t// in\n    tag_148:\n        /* \"#utility.yul\":4329:4436   */\n    tag_147:\n        /* \"#utility.yul\":4460:4461   */\n      dup3\n        /* \"#utility.yul\":4457:4458   */\n      dup3\n        /* \"#utility.yul\":4453:4462   */\n      add\n        /* \"#utility.yul\":4446:4462   */\n      swap1\n      pop\n        /* \"#utility.yul\":4163:4468   */\n      swap3\n      swap2\n      pop\n      pop\n      jump\t// out\n        /* \"#utility.yul\":4474:4659   */\n    tag_48:\n        /* \"#utility.yul\":4514:4515   */\n      0x00\n        /* \"#utility.yul\":4531:4551   */\n      tag_151\n        /* \"#utility.yul\":4549:4550   */\n      dup3\n        /* \"#utility.yul\":4531:4551   */\n      tag_130\n      jump\t// in\n    tag_151:\n        /* \"#utility.yul\":4526:4551   */\n      swap2\n      pop\n        /* \"#utility.yul\":4565:4585   */\n      tag_152\n        /* \"#utility.yul\":4583:4584   */\n      dup4\n        /* \"#utility.yul\":4565:4585   */\n      tag_130\n      jump\t// in\n    tag_152:\n        /* \"#utility.yul\":4560:4585   */\n      swap3\n      pop\n        /* \"#utility.yul\":4604:4605   */\n      dup3\n        /* \"#utility.yul\":4594:4629   */\n      tag_153\n      jumpi\n        /* \"#utility.yul\":4609:4627   */\n      tag_154\n      tag_155\n      jump\t// in\n    tag_154:\n        /* \"#utility.yul\":4594:4629   */\n    tag_153:\n        /* \"#utility.yul\":4651:4652   */\n      dup3\n        /* \"#utility.yul\":4648:4649   */\n      dup3\n        /* \"#utility.yul\":4644:4653   */\n      div\n        /* \"#utility.yul\":4639:4653   */\n      swap1\n      pop\n        /* \"#utility.yul\":4474:4659   */\n      swap3\n      swap2\n      pop\n      pop\n      jump\t// out\n        /* \"#utility.yul\":4665:5013   */\n    tag_46:\n        /* \"#utility.yul\":4705:4712   */\n      0x00\n        /* \"#utility.yul\":4728:4748   */\n      tag_157\n        /* \"#utility.yul\":4746:4747   */\n      dup3\n        /* \"#utility.yul\":4728:4748   */\n      tag_130\n      jump\t// in\n    tag_157:\n        /* \"#utility.yul\":4723:4748   */\n      swap2\n      pop\n        /* \"#utility.yul\":4762:4782   */\n      tag_158\n        /* \"#utility.yul\":4780:4781   */\n      dup4\n        /* \"#utility.yul\":4762:4782   */\n      tag_130\n      jump\t// in\n    tag_158:\n        /* \"#utility.yul\":4757:4782   */\n      swap3\n      pop\n        /* \"#utility.yul\":4950:4951   */\n      dup2\n        /* \"#utility.yul\":4882:4948   */\n      0xffffffffffffffffffffffffffffffffffffffffffffffffffffffffffffffff\n        /* \"#utility.yul\":4878:4952   */\n      div\n        /* \"#utility.yul\":4875:4876   */\n      dup4\n        /* \"#utility.yul\":4872:4953   */\n      gt\n        /* \"#utility.yul\":4867:4868   */\n      dup3\n        /* \"#utility.yul\":4860:4869   */\n      iszero\n        /* \"#utility.yul\":4853:4870   */\n      iszero\n        /* \"#utility.yul\":4849:4954   */\n      and\n        /* \"#utility.yul\":4846:4977   */\n      iszero\n      tag_159\n      jumpi\n        /* \"#utility.yul\":4957:4975   */\n      tag_160\n      tag_149\n      jump\t// in\n    tag_160:\n        /* \"#utility.yul\":4846:4977   */\n    tag_159:\n        /* \"#utility.yul\":5005:5006   */\n      dup3\n        /* \"#utility.yul\":5002:5003   */\n      dup3\n        /* \"#utility.yul\":4998:5007   */\n      mul\n        /* \"#utility.yul\":4987:5007   */\n      swap1\n      pop\n        /* \"#utility.yul\":4665:5013   */\n      swap3\n      swap2\n      pop\n      pop\n      jump\t// out\n        /* \"#utility.yul\":5019:5115   */\n    tag_126:\n        /* \"#utility.yul\":5056:5063   */\n      0x00\n        /* \"#utility.yul\":5085:5109   */\n      tag_162\n        /* \"#utility.yul\":5103:5108   */\n      dup3\n        /* \"#utility.yul\":5085:5109   */\n      tag_163\n      jump\t// in\n    tag_162:\n        /* \"#utility.yul\":5074:5109   */\n      swap1\n      pop\n        /* \"#utility.yul\":5019:5115   */\n      swap2\n      swap1\n      pop\n      jump\t// out\n        /* \"#utility.yul\":5121:5211   */\n    tag_164:\n        /* \"#utility.yul\":5155:5162   */\n      0x00\n        /* \"#utility.yul\":5198:5203   */\n      dup2\n        /* \"#utility.yul\":5191:5204   */\n      iszero\n        /* \"#utility.yul\":5184:5205   */\n      iszero\n        /* \"#utility.yul\":5173:5205   */\n      swap1\n      pop\n        /* \"#utility.yul\":5121:5211   */\n      swap2\n      swap1\n      pop\n      jump\t// out\n        /* \"#utility.yul\":5217:5343   */\n    tag_163:\n        /* \"#utility.yul\":5254:5261   */\n      0x00\n        /* \"#utility.yul\":5294:5336   */\n      0xffffffffffffffffffffffffffffffffffffffff\n        /* \"#utility.yul\":5287:5292   */\n      dup3\n        /* \"#utility.yul\":5283:5337   */\n      and\n        /* \"#utility.yul\":5272:5337   */\n      swap1\n      pop\n        /* \"#utility.yul\":5217:5343   */\n      swap2\n      swap1\n      pop\n      jump\t// out\n        /* \"#utility.yul\":5349:5426   */\n    tag_130:\n        /* \"#utility.yul\":5386:5393   */\n      0x00\n        /* \"#utility.yul\":5415:5420   */\n      dup2\n        /* \"#utility.yul\":5404:5420   */\n      swap1\n      pop\n        /* \"#utility.yul\":5349:5426   */\n      swap2\n      swap1\n      pop\n      jump\t// out\n        /* \"#utility.yul\":5432:5612   */\n    tag_149:\n        /* \"#utility.yul\":5480:5557   */\n      0x4e487b7100000000000000000000000000000000000000000000000000000000\n        /* \"#utility.yul\":5477:5478   */\n      0x00\n        /* \"#utility.yul\":5470:5558   */\n      mstore\n        /* \"#utility.yul\":5577:5581   */\n      0x11\n        /* \"#utility.yul\":5574:5575   */\n      0x04\n        /* \"#utility.yul\":5567:5582   */\n      mstore\n        /* \"#utility.yul\":5601:5605   */\n      0x24\n        /* \"#utility.yul\":5598:5599   */\n      0x00\n        /* \"#utility.yul\":5591:5606   */\n      revert\n        /* \"#utility.yul\":5618:5798   */\n    tag_155:\n        /* \"#utility.yul\":5666:5743   */\n      0x4e487b7100000000000000000000000000000000000000000000000000000000\n        /* \"#utility.yul\":5663:5664   */\n      0x00\n        /* \"#utility.yul\":5656:5744   */\n      mstore\n        /* \"#utility.yul\":5763:5767   */\n      0x12\n        /* \"#utility.yul\":5760:5761   */\n      0x04\n        /* \"#utility.yul\":5753:5768   */\n      mstore\n        /* \"#utility.yul\":5787:5791   */\n      0x24\n        /* \"#utility.yul\":5784:5785   */\n      0x00\n        /* \"#utility.yul\":5777:5792   */\n      revert\n        /* \"#utility.yul\":5927:6044   */\n    tag_103:\n        /* \"#utility.yul\":6036:6037   */\n      0x00\n        /* \"#utility.yul\":6033:6034   */\n      dup1\n        /* \"#utility.yul\":6026:6038   */\n      revert\n        /* \"#utility.yul\":6050:6172   */\n    tag_88:\n        /* \"#utility.yul\":6123:6147   */\n      tag_174\n        /* \"#utility.yul\":6141:6146   */\n      dup2\n        /* \"#utility.yul\":6123:6147   */\n      tag_126\n      jump\t// in\n    tag_174:\n        /* \"#utility.yul\":6116:6121   */\n      dup2\n        /* \"#utility.yul\":6113:6148   */\n      eq\n        /* \"#utility.yul\":6103:6166   */\n      tag_175\n      jumpi\n        /* \"#utility.yul\":6162:6163   */\n      0x00\n        /* \"#utility.yul\":6159:6160   */\n      dup1\n        /* \"#utility.yul\":6152:6164   */\n      revert\n        /* \"#utility.yul\":6103:6166   */\n    tag_175:\n        /* \"#utility.yul\":6050:6172   */\n      pop\n      jump\t// out\n        /* \"#utility.yul\":6178:6294   */\n    tag_92:\n        /* \"#utility.yul\":6248:6269   */\n      tag_177\n        /* \"#utility.yul\":6263:6268   */\n      dup2\n        /* \"#utility.yul\":6248:6269   */\n      tag_164\n      jump\t// in\n    tag_177:\n        /* \"#utility.yul\":6241:6246   */\n      dup2\n        /* \"#utility.yul\":6238:6270   */\n      eq\n        /* \"#utility.yul\":6228:6288   */\n      tag_178\n      jumpi\n        /* \"#utility.yul\":6284:6285   */\n      0x00\n        /* \"#utility.yul\":6281:6282   */\n      dup1\n        /* \"#utility.yul\":6274:6286   */\n      revert\n        /* \"#utility.yul\":6228:6288   */\n    tag_178:\n        /* \"#utility.yul\":6178:6294   */\n      pop\n      jump\t// out\n        /* \"#utility.yul\":6300:6422   */\n    tag_96:\n        /* \"#utility.yul\":6373:6397   */\n      tag_180\n        /* \"#utility.yul\":6391:6396   */\n      dup2\n        /* \"#utility.yul\":6373:6397   */\n      tag_130\n      jump\t// in\n    tag_180:\n        /* \"#utility.yul\":6366:6371   */\n      dup2\n        /* \"#utility.yul\":6363:6398   */\n      eq\n        /* \"#utility.yul\":6353:6416   */\n      tag_181\n      jumpi\n        /* \"#utility.yul\":6412:6413   */\n      0x00\n        /* \"#utility.yul\":6409:6410   */\n      dup1\n        /* \"#utility.yul\":6402:6414   */\n      revert\n        /* \"#utility.yul\":6353:6416   */\n    tag_181:\n        /* \"#utility.yul\":6300:6422   */\n      pop\n      jump\t// out\n\n    auxdata: 0xa2646970667358221220c8d7a118eca6891da54504cedbb1ff0e2e6e702957a04f7c6027afe8049adf4f64736f6c63430008070033\n}\n",
				"bytecode": {
					"linkReferences": {},
					"object": "608060405260b4600055730aa7726bc0cb085a3c4fbe3b09b91dd7e27f7fea600360006101000a81548173ffffffffffffffffffffffffffffffffffffffff021916908373ffffffffffffffffffffffffffffffffffffffff16021790555073dde601ebe61ec5fd0729125d4fd89f0f3b32b296600460006101000a81548173ffffffffffffffffffffffffffffffffffffffff021916908373ffffffffffffffffffffffffffffffffffffffff1602179055503480156100bf57600080fd5b506109d1806100cf6000396000f3fe608060405234801561001057600080fd5b50600436106100885760003560e01c8063b07d55261161005b578063b07d552614610101578063b6dd59131461010b578063bb81e01614610129578063d3aceae21461015957610088565b8063180dc0ac1461008d578063611efc09146100ab57806382760cd2146100c7578063a035b1fe146100e3575b600080fd5b610095610189565b6040516100a29190610734565b60405180910390f35b6100c560048036038101906100c0919061063c565b6101af565b005b6100e160048036038101906100dc91906106d6565b6102ff565b005b6100eb610338565b6040516100f891906107af565b60405180910390f35b61010961033e565b005b6101136104d2565b6040516101209190610734565b60405180910390f35b610143600480360381019061013e919061060f565b6104f8565b60405161015091906107af565b60405180910390f35b610173600480360381019061016e919061060f565b6105a3565b60405161018091906107af565b60405180910390f35b600360009054906101000a900473ffffffffffffffffffffffffffffffffffffffff1681565b6001544210156101be57600080fd5b6002544211156101cd57600080fd5b6000670de0b6b3a7640000600054836101e69190610851565b6101f09190610820565b9050600460009054906101000a900473ffffffffffffffffffffffffffffffffffffffff1673ffffffffffffffffffffffffffffffffffffffff166323b872dd3330846040518463ffffffff1660e01b81526004016102519392919061074f565b602060405180830381600087803b15801561026b57600080fd5b505af115801561027f573d6000803e3d6000fd5b505050506040513d601f19601f820116820180604052508101906102a3919061067c565b5081600560008573ffffffffffffffffffffffffffffffffffffffff1673ffffffffffffffffffffffffffffffffffffffff16815260200190815260200160002060008282546102f391906107ca565b92505081905550505050565b4282101561030c57600080fd5b8181101561031957600080fd5b62278d004261032891906107ca565b81111561033457600080fd5b5050565b60005481565b60015442101561034d57600080fd5b60025442111561035c57600080fd5b6000600460009054906101000a900473ffffffffffffffffffffffffffffffffffffffff1673ffffffffffffffffffffffffffffffffffffffff166370a08231306040518263ffffffff1660e01b81526004016103b99190610734565b60206040518083038186803b1580156103d157600080fd5b505afa1580156103e5573d6000803e3d6000fd5b505050506040513d601f19601f8201168201806040525081019061040991906106a9565b9050600460009054906101000a900473ffffffffffffffffffffffffffffffffffffffff1673ffffffffffffffffffffffffffffffffffffffff1663a9059cbb730aa7726bc0cb085a3c4fbe3b09b91dd7e27f7fea836040518363ffffffff1660e01b815260040161047c929190610786565b602060405180830381600087803b15801561049657600080fd5b505af11580156104aa573d6000803e3d6000fd5b505050506040513d601f19601f820116820180604052508101906104ce919061067c565b5050565b600460009054906101000a900473ffffffffffffffffffffffffffffffffffffffff1681565b60008073dde601ebe61ec5fd0729125d4fd89f0f3b32b29673ffffffffffffffffffffffffffffffffffffffff166370a08231846040518263ffffffff1660e01b81526004016105489190610734565b60206040518083038186803b15801561056057600080fd5b505afa158015610574573d6000803e3d6000fd5b505050506040513d601f19601f8201168201806040525081019061059891906106a9565b905080915050919050565b60056020528060005260406000206000915090505481565b6000813590506105ca81610956565b92915050565b6000815190506105df8161096d565b92915050565b6000813590506105f481610984565b92915050565b60008151905061060981610984565b92915050565b60006020828403121561062557610624610951565b5b6000610633848285016105bb565b91505092915050565b6000806040838503121561065357610652610951565b5b6000610661858286016105bb565b9250506020610672858286016105e5565b9150509250929050565b60006020828403121561069257610691610951565b5b60006106a0848285016105d0565b91505092915050565b6000602082840312156106bf576106be610951565b5b60006106cd848285016105fa565b91505092915050565b600080604083850312156106ed576106ec610951565b5b60006106fb858286016105e5565b925050602061070c858286016105e5565b9150509250929050565b61071f816108ab565b82525050565b61072e816108e9565b82525050565b60006020820190506107496000830184610716565b92915050565b60006060820190506107646000830186610716565b6107716020830185610716565b61077e6040830184610725565b949350505050565b600060408201905061079b6000830185610716565b6107a86020830184610725565b9392505050565b60006020820190506107c46000830184610725565b92915050565b60006107d5826108e9565b91506107e0836108e9565b9250827fffffffffffffffffffffffffffffffffffffffffffffffffffffffffffffffff03821115610815576108146108f3565b5b828201905092915050565b600061082b826108e9565b9150610836836108e9565b92508261084657610845610922565b5b828204905092915050565b600061085c826108e9565b9150610867836108e9565b9250817fffffffffffffffffffffffffffffffffffffffffffffffffffffffffffffffff04831182151516156108a05761089f6108f3565b5b828202905092915050565b60006108b6826108c9565b9050919050565b60008115159050919050565b600073ffffffffffffffffffffffffffffffffffffffff82169050919050565b6000819050919050565b7f4e487b7100000000000000000000000000000000000000000000000000000000600052601160045260246000fd5b7f4e487b7100000000000000000000000000000000000000000000000000000000600052601260045260246000fd5b600080fd5b61095f816108ab565b811461096a57600080fd5b50565b610976816108bd565b811461098157600080fd5b50565b61098d816108e9565b811461099857600080fd5b5056fea2646970667358221220c8d7a118eca6891da54504cedbb1ff0e2e6e702957a04f7c6027afe8049adf4f64736f6c63430008070033",
					"opcodes": "PUSH1 0x80 PUSH1 0x40 MSTORE PUSH1 0xB4 PUSH1 0x0 SSTORE PUSH20 0xAA7726BC0CB085A3C4FBE3B09B91DD7E27F7FEA PUSH1 0x3 PUSH1 0x0 PUSH2 0x100 EXP DUP2 SLOAD DUP2 PUSH20 0xFFFFFFFFFFFFFFFFFFFFFFFFFFFFFFFFFFFFFFFF MUL NOT AND SWAP1 DUP4 PUSH20 0xFFFFFFFFFFFFFFFFFFFFFFFFFFFFFFFFFFFFFFFF AND MUL OR SWAP1 SSTORE POP PUSH20 0xDDE601EBE61EC5FD0729125D4FD89F0F3B32B296 PUSH1 0x4 PUSH1 0x0 PUSH2 0x100 EXP DUP2 SLOAD DUP2 PUSH20 0xFFFFFFFFFFFFFFFFFFFFFFFFFFFFFFFFFFFFFFFF MUL NOT AND SWAP1 DUP4 PUSH20 0xFFFFFFFFFFFFFFFFFFFFFFFFFFFFFFFFFFFFFFFF AND MUL OR SWAP1 SSTORE POP CALLVALUE DUP1 ISZERO PUSH2 0xBF JUMPI PUSH1 0x0 DUP1 REVERT JUMPDEST POP PUSH2 0x9D1 DUP1 PUSH2 0xCF PUSH1 0x0 CODECOPY PUSH1 0x0 RETURN INVALID PUSH1 0x80 PUSH1 0x40 MSTORE CALLVALUE DUP1 ISZERO PUSH2 0x10 JUMPI PUSH1 0x0 DUP1 REVERT JUMPDEST POP PUSH1 0x4 CALLDATASIZE LT PUSH2 0x88 JUMPI PUSH1 0x0 CALLDATALOAD PUSH1 0xE0 SHR DUP1 PUSH4 0xB07D5526 GT PUSH2 0x5B JUMPI DUP1 PUSH4 0xB07D5526 EQ PUSH2 0x101 JUMPI DUP1 PUSH4 0xB6DD5913 EQ PUSH2 0x10B JUMPI DUP1 PUSH4 0xBB81E016 EQ PUSH2 0x129 JUMPI DUP1 PUSH4 0xD3ACEAE2 EQ PUSH2 0x159 JUMPI PUSH2 0x88 JUMP JUMPDEST DUP1 PUSH4 0x180DC0AC EQ PUSH2 0x8D JUMPI DUP1 PUSH4 0x611EFC09 EQ PUSH2 0xAB JUMPI DUP1 PUSH4 0x82760CD2 EQ PUSH2 0xC7 JUMPI DUP1 PUSH4 0xA035B1FE EQ PUSH2 0xE3 JUMPI JUMPDEST PUSH1 0x0 DUP1 REVERT JUMPDEST PUSH2 0x95 PUSH2 0x189 JUMP JUMPDEST PUSH1 0x40 MLOAD PUSH2 0xA2 SWAP2 SWAP1 PUSH2 0x734 JUMP JUMPDEST PUSH1 0x40 MLOAD DUP1 SWAP2 SUB SWAP1 RETURN JUMPDEST PUSH2 0xC5 PUSH1 0x4 DUP1 CALLDATASIZE SUB DUP2 ADD SWAP1 PUSH2 0xC0 SWAP2 SWAP1 PUSH2 0x63C JUMP JUMPDEST PUSH2 0x1AF JUMP JUMPDEST STOP JUMPDEST PUSH2 0xE1 PUSH1 0x4 DUP1 CALLDATASIZE SUB DUP2 ADD SWAP1 PUSH2 0xDC SWAP2 SWAP1 PUSH2 0x6D6 JUMP JUMPDEST PUSH2 0x2FF JUMP JUMPDEST STOP JUMPDEST PUSH2 0xEB PUSH2 0x338 JUMP JUMPDEST PUSH1 0x40 MLOAD PUSH2 0xF8 SWAP2 SWAP1 PUSH2 0x7AF JUMP JUMPDEST PUSH1 0x40 MLOAD DUP1 SWAP2 SUB SWAP1 RETURN JUMPDEST PUSH2 0x109 PUSH2 0x33E JUMP JUMPDEST STOP JUMPDEST PUSH2 0x113 PUSH2 0x4D2 JUMP JUMPDEST PUSH1 0x40 MLOAD PUSH2 0x120 SWAP2 SWAP1 PUSH2 0x734 JUMP JUMPDEST PUSH1 0x40 MLOAD DUP1 SWAP2 SUB SWAP1 RETURN JUMPDEST PUSH2 0x143 PUSH1 0x4 DUP1 CALLDATASIZE SUB DUP2 ADD SWAP1 PUSH2 0x13E SWAP2 SWAP1 PUSH2 0x60F JUMP JUMPDEST PUSH2 0x4F8 JUMP JUMPDEST PUSH1 0x40 MLOAD PUSH2 0x150 SWAP2 SWAP1 PUSH2 0x7AF JUMP JUMPDEST PUSH1 0x40 MLOAD DUP1 SWAP2 SUB SWAP1 RETURN JUMPDEST PUSH2 0x173 PUSH1 0x4 DUP1 CALLDATASIZE SUB DUP2 ADD SWAP1 PUSH2 0x16E SWAP2 SWAP1 PUSH2 0x60F JUMP JUMPDEST PUSH2 0x5A3 JUMP JUMPDEST PUSH1 0x40 MLOAD PUSH2 0x180 SWAP2 SWAP1 PUSH2 0x7AF JUMP JUMPDEST PUSH1 0x40 MLOAD DUP1 SWAP2 SUB SWAP1 RETURN JUMPDEST PUSH1 0x3 PUSH1 0x0 SWAP1 SLOAD SWAP1 PUSH2 0x100 EXP SWAP1 DIV PUSH20 0xFFFFFFFFFFFFFFFFFFFFFFFFFFFFFFFFFFFFFFFF AND DUP2 JUMP JUMPDEST PUSH1 0x1 SLOAD TIMESTAMP LT ISZERO PUSH2 0x1BE JUMPI PUSH1 0x0 DUP1 REVERT JUMPDEST PUSH1 0x2 SLOAD TIMESTAMP GT ISZERO PUSH2 0x1CD JUMPI PUSH1 0x0 DUP1 REVERT JUMPDEST PUSH1 0x0 PUSH8 0xDE0B6B3A7640000 PUSH1 0x0 SLOAD DUP4 PUSH2 0x1E6 SWAP2 SWAP1 PUSH2 0x851 JUMP JUMPDEST PUSH2 0x1F0 SWAP2 SWAP1 PUSH2 0x820 JUMP JUMPDEST SWAP1 POP PUSH1 0x4 PUSH1 0x0 SWAP1 SLOAD SWAP1 PUSH2 0x100 EXP SWAP1 DIV PUSH20 0xFFFFFFFFFFFFFFFFFFFFFFFFFFFFFFFFFFFFFFFF AND PUSH20 0xFFFFFFFFFFFFFFFFFFFFFFFFFFFFFFFFFFFFFFFF AND PUSH4 0x23B872DD CALLER ADDRESS DUP5 PUSH1 0x40 MLOAD DUP5 PUSH4 0xFFFFFFFF AND PUSH1 0xE0 SHL DUP2 MSTORE PUSH1 0x4 ADD PUSH2 0x251 SWAP4 SWAP3 SWAP2 SWAP1 PUSH2 0x74F JUMP JUMPDEST PUSH1 0x20 PUSH1 0x40 MLOAD DUP1 DUP4 SUB DUP2 PUSH1 0x0 DUP8 DUP1 EXTCODESIZE ISZERO DUP1 ISZERO PUSH2 0x26B JUMPI PUSH1 0x0 DUP1 REVERT JUMPDEST POP GAS CALL ISZERO DUP1 ISZERO PUSH2 0x27F JUMPI RETURNDATASIZE PUSH1 0x0 DUP1 RETURNDATACOPY RETURNDATASIZE PUSH1 0x0 REVERT JUMPDEST POP POP POP POP PUSH1 0x40 MLOAD RETURNDATASIZE PUSH1 0x1F NOT PUSH1 0x1F DUP3 ADD AND DUP3 ADD DUP1 PUSH1 0x40 MSTORE POP DUP2 ADD SWAP1 PUSH2 0x2A3 SWAP2 SWAP1 PUSH2 0x67C JUMP JUMPDEST POP DUP2 PUSH1 0x5 PUSH1 0x0 DUP6 PUSH20 0xFFFFFFFFFFFFFFFFFFFFFFFFFFFFFFFFFFFFFFFF AND PUSH20 0xFFFFFFFFFFFFFFFFFFFFFFFFFFFFFFFFFFFFFFFF AND DUP2 MSTORE PUSH1 0x20 ADD SWAP1 DUP2 MSTORE PUSH1 0x20 ADD PUSH1 0x0 KECCAK256 PUSH1 0x0 DUP3 DUP3 SLOAD PUSH2 0x2F3 SWAP2 SWAP1 PUSH2 0x7CA JUMP JUMPDEST SWAP3 POP POP DUP2 SWAP1 SSTORE POP POP POP POP JUMP JUMPDEST TIMESTAMP DUP3 LT ISZERO PUSH2 0x30C JUMPI PUSH1 0x0 DUP1 REVERT JUMPDEST DUP2 DUP2 LT ISZERO PUSH2 0x319 JUMPI PUSH1 0x0 DUP1 REVERT JUMPDEST PUSH3 0x278D00 TIMESTAMP PUSH2 0x328 SWAP2 SWAP1 PUSH2 0x7CA JUMP JUMPDEST DUP2 GT ISZERO PUSH2 0x334 JUMPI PUSH1 0x0 DUP1 REVERT JUMPDEST POP POP JUMP JUMPDEST PUSH1 0x0 SLOAD DUP2 JUMP JUMPDEST PUSH1 0x1 SLOAD TIMESTAMP LT ISZERO PUSH2 0x34D JUMPI PUSH1 0x0 DUP1 REVERT JUMPDEST PUSH1 0x2 SLOAD TIMESTAMP GT ISZERO PUSH2 0x35C JUMPI PUSH1 0x0 DUP1 REVERT JUMPDEST PUSH1 0x0 PUSH1 0x4 PUSH1 0x0 SWAP1 SLOAD SWAP1 PUSH2 0x100 EXP SWAP1 DIV PUSH20 0xFFFFFFFFFFFFFFFFFFFFFFFFFFFFFFFFFFFFFFFF AND PUSH20 0xFFFFFFFFFFFFFFFFFFFFFFFFFFFFFFFFFFFFFFFF AND PUSH4 0x70A08231 ADDRESS PUSH1 0x40 MLOAD DUP3 PUSH4 0xFFFFFFFF AND PUSH1 0xE0 SHL DUP2 MSTORE PUSH1 0x4 ADD PUSH2 0x3B9 SWAP2 SWAP1 PUSH2 0x734 JUMP JUMPDEST PUSH1 0x20 PUSH1 0x40 MLOAD DUP1 DUP4 SUB DUP2 DUP7 DUP1 EXTCODESIZE ISZERO DUP1 ISZERO PUSH2 0x3D1 JUMPI PUSH1 0x0 DUP1 REVERT JUMPDEST POP GAS STATICCALL ISZERO DUP1 ISZERO PUSH2 0x3E5 JUMPI RETURNDATASIZE PUSH1 0x0 DUP1 RETURNDATACOPY RETURNDATASIZE PUSH1 0x0 REVERT JUMPDEST POP POP POP POP PUSH1 0x40 MLOAD RETURNDATASIZE PUSH1 0x1F NOT PUSH1 0x1F DUP3 ADD AND DUP3 ADD DUP1 PUSH1 0x40 MSTORE POP DUP2 ADD SWAP1 PUSH2 0x409 SWAP2 SWAP1 PUSH2 0x6A9 JUMP JUMPDEST SWAP1 POP PUSH1 0x4 PUSH1 0x0 SWAP1 SLOAD SWAP1 PUSH2 0x100 EXP SWAP1 DIV PUSH20 0xFFFFFFFFFFFFFFFFFFFFFFFFFFFFFFFFFFFFFFFF AND PUSH20 0xFFFFFFFFFFFFFFFFFFFFFFFFFFFFFFFFFFFFFFFF AND PUSH4 0xA9059CBB PUSH20 0xAA7726BC0CB085A3C4FBE3B09B91DD7E27F7FEA DUP4 PUSH1 0x40 MLOAD DUP4 PUSH4 0xFFFFFFFF AND PUSH1 0xE0 SHL DUP2 MSTORE PUSH1 0x4 ADD PUSH2 0x47C SWAP3 SWAP2 SWAP1 PUSH2 0x786 JUMP JUMPDEST PUSH1 0x20 PUSH1 0x40 MLOAD DUP1 DUP4 SUB DUP2 PUSH1 0x0 DUP8 DUP1 EXTCODESIZE ISZERO DUP1 ISZERO PUSH2 0x496 JUMPI PUSH1 0x0 DUP1 REVERT JUMPDEST POP GAS CALL ISZERO DUP1 ISZERO PUSH2 0x4AA JUMPI RETURNDATASIZE PUSH1 0x0 DUP1 RETURNDATACOPY RETURNDATASIZE PUSH1 0x0 REVERT JUMPDEST POP POP POP POP PUSH1 0x40 MLOAD RETURNDATASIZE PUSH1 0x1F NOT PUSH1 0x1F DUP3 ADD AND DUP3 ADD DUP1 PUSH1 0x40 MSTORE POP DUP2 ADD SWAP1 PUSH2 0x4CE SWAP2 SWAP1 PUSH2 0x67C JUMP JUMPDEST POP POP JUMP JUMPDEST PUSH1 0x4 PUSH1 0x0 SWAP1 SLOAD SWAP1 PUSH2 0x100 EXP SWAP1 DIV PUSH20 0xFFFFFFFFFFFFFFFFFFFFFFFFFFFFFFFFFFFFFFFF AND DUP2 JUMP JUMPDEST PUSH1 0x0 DUP1 PUSH20 0xDDE601EBE61EC5FD0729125D4FD89F0F3B32B296 PUSH20 0xFFFFFFFFFFFFFFFFFFFFFFFFFFFFFFFFFFFFFFFF AND PUSH4 0x70A08231 DUP5 PUSH1 0x40 MLOAD DUP3 PUSH4 0xFFFFFFFF AND PUSH1 0xE0 SHL DUP2 MSTORE PUSH1 0x4 ADD PUSH2 0x548 SWAP2 SWAP1 PUSH2 0x734 JUMP JUMPDEST PUSH1 0x20 PUSH1 0x40 MLOAD DUP1 DUP4 SUB DUP2 DUP7 DUP1 EXTCODESIZE ISZERO DUP1 ISZERO PUSH2 0x560 JUMPI PUSH1 0x0 DUP1 REVERT JUMPDEST POP GAS STATICCALL ISZERO DUP1 ISZERO PUSH2 0x574 JUMPI RETURNDATASIZE PUSH1 0x0 DUP1 RETURNDATACOPY RETURNDATASIZE PUSH1 0x0 REVERT JUMPDEST POP POP POP POP PUSH1 0x40 MLOAD RETURNDATASIZE PUSH1 0x1F NOT PUSH1 0x1F DUP3 ADD AND DUP3 ADD DUP1 PUSH1 0x40 MSTORE POP DUP2 ADD SWAP1 PUSH2 0x598 SWAP2 SWAP1 PUSH2 0x6A9 JUMP JUMPDEST SWAP1 POP DUP1 SWAP2 POP POP SWAP2 SWAP1 POP JUMP JUMPDEST PUSH1 0x5 PUSH1 0x20 MSTORE DUP1 PUSH1 0x0 MSTORE PUSH1 0x40 PUSH1 0x0 KECCAK256 PUSH1 0x0 SWAP2 POP SWAP1 POP SLOAD DUP2 JUMP JUMPDEST PUSH1 0x0 DUP2 CALLDATALOAD SWAP1 POP PUSH2 0x5CA DUP2 PUSH2 0x956 JUMP JUMPDEST SWAP3 SWAP2 POP POP JUMP JUMPDEST PUSH1 0x0 DUP2 MLOAD SWAP1 POP PUSH2 0x5DF DUP2 PUSH2 0x96D JUMP JUMPDEST SWAP3 SWAP2 POP POP JUMP JUMPDEST PUSH1 0x0 DUP2 CALLDATALOAD SWAP1 POP PUSH2 0x5F4 DUP2 PUSH2 0x984 JUMP JUMPDEST SWAP3 SWAP2 POP POP JUMP JUMPDEST PUSH1 0x0 DUP2 MLOAD SWAP1 POP PUSH2 0x609 DUP2 PUSH2 0x984 JUMP JUMPDEST SWAP3 SWAP2 POP POP JUMP JUMPDEST PUSH1 0x0 PUSH1 0x20 DUP3 DUP5 SUB SLT ISZERO PUSH2 0x625 JUMPI PUSH2 0x624 PUSH2 0x951 JUMP JUMPDEST JUMPDEST PUSH1 0x0 PUSH2 0x633 DUP5 DUP3 DUP6 ADD PUSH2 0x5BB JUMP JUMPDEST SWAP2 POP POP SWAP3 SWAP2 POP POP JUMP JUMPDEST PUSH1 0x0 DUP1 PUSH1 0x40 DUP4 DUP6 SUB SLT ISZERO PUSH2 0x653 JUMPI PUSH2 0x652 PUSH2 0x951 JUMP JUMPDEST JUMPDEST PUSH1 0x0 PUSH2 0x661 DUP6 DUP3 DUP7 ADD PUSH2 0x5BB JUMP JUMPDEST SWAP3 POP POP PUSH1 0x20 PUSH2 0x672 DUP6 DUP3 DUP7 ADD PUSH2 0x5E5 JUMP JUMPDEST SWAP2 POP POP SWAP3 POP SWAP3 SWAP1 POP JUMP JUMPDEST PUSH1 0x0 PUSH1 0x20 DUP3 DUP5 SUB SLT ISZERO PUSH2 0x692 JUMPI PUSH2 0x691 PUSH2 0x951 JUMP JUMPDEST JUMPDEST PUSH1 0x0 PUSH2 0x6A0 DUP5 DUP3 DUP6 ADD PUSH2 0x5D0 JUMP JUMPDEST SWAP2 POP POP SWAP3 SWAP2 POP POP JUMP JUMPDEST PUSH1 0x0 PUSH1 0x20 DUP3 DUP5 SUB SLT ISZERO PUSH2 0x6BF JUMPI PUSH2 0x6BE PUSH2 0x951 JUMP JUMPDEST JUMPDEST PUSH1 0x0 PUSH2 0x6CD DUP5 DUP3 DUP6 ADD PUSH2 0x5FA JUMP JUMPDEST SWAP2 POP POP SWAP3 SWAP2 POP POP JUMP JUMPDEST PUSH1 0x0 DUP1 PUSH1 0x40 DUP4 DUP6 SUB SLT ISZERO PUSH2 0x6ED JUMPI PUSH2 0x6EC PUSH2 0x951 JUMP JUMPDEST JUMPDEST PUSH1 0x0 PUSH2 0x6FB DUP6 DUP3 DUP7 ADD PUSH2 0x5E5 JUMP JUMPDEST SWAP3 POP POP PUSH1 0x20 PUSH2 0x70C DUP6 DUP3 DUP7 ADD PUSH2 0x5E5 JUMP JUMPDEST SWAP2 POP POP SWAP3 POP SWAP3 SWAP1 POP JUMP JUMPDEST PUSH2 0x71F DUP2 PUSH2 0x8AB JUMP JUMPDEST DUP3 MSTORE POP POP JUMP JUMPDEST PUSH2 0x72E DUP2 PUSH2 0x8E9 JUMP JUMPDEST DUP3 MSTORE POP POP JUMP JUMPDEST PUSH1 0x0 PUSH1 0x20 DUP3 ADD SWAP1 POP PUSH2 0x749 PUSH1 0x0 DUP4 ADD DUP5 PUSH2 0x716 JUMP JUMPDEST SWAP3 SWAP2 POP POP JUMP JUMPDEST PUSH1 0x0 PUSH1 0x60 DUP3 ADD SWAP1 POP PUSH2 0x764 PUSH1 0x0 DUP4 ADD DUP7 PUSH2 0x716 JUMP JUMPDEST PUSH2 0x771 PUSH1 0x20 DUP4 ADD DUP6 PUSH2 0x716 JUMP JUMPDEST PUSH2 0x77E PUSH1 0x40 DUP4 ADD DUP5 PUSH2 0x725 JUMP JUMPDEST SWAP5 SWAP4 POP POP POP POP JUMP JUMPDEST PUSH1 0x0 PUSH1 0x40 DUP3 ADD SWAP1 POP PUSH2 0x79B PUSH1 0x0 DUP4 ADD DUP6 PUSH2 0x716 JUMP JUMPDEST PUSH2 0x7A8 PUSH1 0x20 DUP4 ADD DUP5 PUSH2 0x725 JUMP JUMPDEST SWAP4 SWAP3 POP POP POP JUMP JUMPDEST PUSH1 0x0 PUSH1 0x20 DUP3 ADD SWAP1 POP PUSH2 0x7C4 PUSH1 0x0 DUP4 ADD DUP5 PUSH2 0x725 JUMP JUMPDEST SWAP3 SWAP2 POP POP JUMP JUMPDEST PUSH1 0x0 PUSH2 0x7D5 DUP3 PUSH2 0x8E9 JUMP JUMPDEST SWAP2 POP PUSH2 0x7E0 DUP4 PUSH2 0x8E9 JUMP JUMPDEST SWAP3 POP DUP3 PUSH32 0xFFFFFFFFFFFFFFFFFFFFFFFFFFFFFFFFFFFFFFFFFFFFFFFFFFFFFFFFFFFFFFFF SUB DUP3 GT ISZERO PUSH2 0x815 JUMPI PUSH2 0x814 PUSH2 0x8F3 JUMP JUMPDEST JUMPDEST DUP3 DUP3 ADD SWAP1 POP SWAP3 SWAP2 POP POP JUMP JUMPDEST PUSH1 0x0 PUSH2 0x82B DUP3 PUSH2 0x8E9 JUMP JUMPDEST SWAP2 POP PUSH2 0x836 DUP4 PUSH2 0x8E9 JUMP JUMPDEST SWAP3 POP DUP3 PUSH2 0x846 JUMPI PUSH2 0x845 PUSH2 0x922 JUMP JUMPDEST JUMPDEST DUP3 DUP3 DIV SWAP1 POP SWAP3 SWAP2 POP POP JUMP JUMPDEST PUSH1 0x0 PUSH2 0x85C DUP3 PUSH2 0x8E9 JUMP JUMPDEST SWAP2 POP PUSH2 0x867 DUP4 PUSH2 0x8E9 JUMP JUMPDEST SWAP3 POP DUP2 PUSH32 0xFFFFFFFFFFFFFFFFFFFFFFFFFFFFFFFFFFFFFFFFFFFFFFFFFFFFFFFFFFFFFFFF DIV DUP4 GT DUP3 ISZERO ISZERO AND ISZERO PUSH2 0x8A0 JUMPI PUSH2 0x89F PUSH2 0x8F3 JUMP JUMPDEST JUMPDEST DUP3 DUP3 MUL SWAP1 POP SWAP3 SWAP2 POP POP JUMP JUMPDEST PUSH1 0x0 PUSH2 0x8B6 DUP3 PUSH2 0x8C9 JUMP JUMPDEST SWAP1 POP SWAP2 SWAP1 POP JUMP JUMPDEST PUSH1 0x0 DUP2 ISZERO ISZERO SWAP1 POP SWAP2 SWAP1 POP JUMP JUMPDEST PUSH1 0x0 PUSH20 0xFFFFFFFFFFFFFFFFFFFFFFFFFFFFFFFFFFFFFFFF DUP3 AND SWAP1 POP SWAP2 SWAP1 POP JUMP JUMPDEST PUSH1 0x0 DUP2 SWAP1 POP SWAP2 SWAP1 POP JUMP JUMPDEST PUSH32 0x4E487B7100000000000000000000000000000000000000000000000000000000 PUSH1 0x0 MSTORE PUSH1 0x11 PUSH1 0x4 MSTORE PUSH1 0x24 PUSH1 0x0 REVERT JUMPDEST PUSH32 0x4E487B7100000000000000000000000000000000000000000000000000000000 PUSH1 0x0 MSTORE PUSH1 0x12 PUSH1 0x4 MSTORE PUSH1 0x24 PUSH1 0x0 REVERT JUMPDEST PUSH1 0x0 DUP1 REVERT JUMPDEST PUSH2 0x95F DUP2 PUSH2 0x8AB JUMP JUMPDEST DUP2 EQ PUSH2 0x96A JUMPI PUSH1 0x0 DUP1 REVERT JUMPDEST POP JUMP JUMPDEST PUSH2 0x976 DUP2 PUSH2 0x8BD JUMP JUMPDEST DUP2 EQ PUSH2 0x981 JUMPI PUSH1 0x0 DUP1 REVERT JUMPDEST POP JUMP JUMPDEST PUSH2 0x98D DUP2 PUSH2 0x8E9 JUMP JUMPDEST DUP2 EQ PUSH2 0x998 JUMPI PUSH1 0x0 DUP1 REVERT JUMPDEST POP JUMP INVALID LOG2 PUSH5 0x6970667358 0x22 SLT KECCAK256 0xC8 0xD7 LOG1 XOR 0xEC 0xA6 DUP10 SAR 0xA5 GASLIMIT DIV 0xCE 0xDB 0xB1 SELFDESTRUCT 0xE 0x2E PUSH15 0x702957A04F7C6027AFE8049ADF4F64 PUSH20 0x6F6C634300080700330000000000000000000000 "
				},
				"gasEstimates": {
					"creation": {
						"codeDepositCost": "502600",
						"executionCost": "71177",
						"totalCost": "573777"
					},
					"external": {
						"Usdt()": "2536",
						"_balance(address)": "2880",
						"axsToken()": "2515",
						"getuserbalance(address)": "infinite",
						"launch(uint256,uint256)": "infinite",
						"price()": "2496",
						"sale(address,uint256)": "infinite",
						"wuthdraw()": "infinite"
					}
				},
				"methodIdentifiers": {
					"Usdt()": "b6dd5913",
					"_balance(address)": "d3aceae2",
					"axsToken()": "180dc0ac",
					"getuserbalance(address)": "bb81e016",
					"launch(uint256,uint256)": "82760cd2",
					"price()": "a035b1fe",
					"sale(address,uint256)": "611efc09",
					"wuthdraw()": "b07d5526"
				}
			},
			"storageLayout": {
				"storage": [
					{
						"astId": 88,
						"contract": "TokenSell.sol:Tokensell",
						"label": "price",
						"offset": 0,
						"slot": "0",
						"type": "t_uint256"
					},
					{
						"astId": 90,
						"contract": "TokenSell.sol:Tokensell",
						"label": "starttime",
						"offset": 0,
						"slot": "1",
						"type": "t_uint256"
					},
					{
						"astId": 92,
						"contract": "TokenSell.sol:Tokensell",
						"label": "endtime",
						"offset": 0,
						"slot": "2",
						"type": "t_uint256"
					},
					{
						"astId": 95,
						"contract": "TokenSell.sol:Tokensell",
						"label": "axsToken",
						"offset": 0,
						"slot": "3",
						"type": "t_address"
					},
					{
						"astId": 98,
						"contract": "TokenSell.sol:Tokensell",
						"label": "Usdt",
						"offset": 0,
						"slot": "4",
						"type": "t_address"
					},
					{
						"astId": 102,
						"contract": "TokenSell.sol:Tokensell",
						"label": "_balance",
						"offset": 0,
						"slot": "5",
						"type": "t_mapping(t_address,t_uint256)"
					}
				],
				"types": {
					"t_address": {
						"encoding": "inplace",
						"label": "address",
						"numberOfBytes": "20"
					},
					"t_mapping(t_address,t_uint256)": {
						"encoding": "mapping",
						"key": "t_address",
						"label": "mapping(address => uint256)",
						"numberOfBytes": "32",
						"value": "t_uint256"
					},
					"t_uint256": {
						"encoding": "inplace",
						"label": "uint256",
						"numberOfBytes": "32"
					}
				}
			},
			"userdoc": {
				"kind": "user",
				"methods": {},
				"version": 1
			}
		}
	}
}