{
	"TokenSell.sol": {
		"Tokensell": {
			"abi": [
				{
					"inputs": [
						{
							"internalType": "address",
							"name": "",
							"type": "address"
						}
					],
					"name": "_balance",
					"outputs": [
						{
							"internalType": "uint256",
							"name": "",
							"type": "uint256"
						}
					],
					"stateMutability": "view",
					"type": "function"
				},
				{
					"inputs": [],
					"name": "axsToken",
					"outputs": [
						{
							"internalType": "address",
							"name": "",
							"type": "address"
						}
					],
					"stateMutability": "view",
					"type": "function"
				},
				{
					"inputs": [
						{
							"internalType": "uint256",
							"name": "_starttime",
							"type": "uint256"
						},
						{
							"internalType": "uint256",
							"name": "_endtime",
							"type": "uint256"
						}
					],
					"name": "launch",
					"outputs": [],
					"stateMutability": "view",
					"type": "function"
				},
				{
					"inputs": [],
					"name": "price",
					"outputs": [
						{
							"internalType": "uint256",
							"name": "",
							"type": "uint256"
						}
					],
					"stateMutability": "view",
					"type": "function"
				},
				{
					"inputs": [
						{
							"internalType": "address",
							"name": "get",
							"type": "address"
						},
						{
							"internalType": "uint256",
							"name": "buynmu",
							"type": "uint256"
						}
					],
					"name": "sale",
					"outputs": [],
					"stateMutability": "nonpayable",
					"type": "function"
				}
			],
			"devdoc": {
				"kind": "dev",
				"methods": {},
				"version": 1
			},
			"evm": {
				"assembly": "    /* \"TokenSell.sol\":125:962  contract Tokensell{\r... */\n  mstore(0x40, 0x80)\n    /* \"TokenSell.sol\":177:188  1 * 10 * 18 */\n  0xb4\n    /* \"TokenSell.sol\":154:188  uint256 public price = 1 * 10 * 18 */\n  0x00\n  sstore\n    /* \"TokenSell.sol\":221:222  0 */\n  0x00\n    /* \"TokenSell.sol\":199:222  uint256 userbalance = 0 */\n  0x01\n  sstore\n    /* \"TokenSell.sol\":307:349  0x0aa7726bc0cB085A3C4fbE3B09b91DD7E27f7fea */\n  0x0aa7726bc0cb085a3c4fbe3b09b91dd7e27f7fea\n    /* \"TokenSell.sol\":281:349  address public axsToken = 0x0aa7726bc0cB085A3C4fbE3B09b91DD7E27f7fea */\n  0x04\n  exp(0x0100, 0x00)\n  dup2\n  sload\n  dup2\n  0xffffffffffffffffffffffffffffffffffffffff\n  mul\n  not\n  and\n  swap1\n  dup4\n  0xffffffffffffffffffffffffffffffffffffffff\n  and\n  mul\n  or\n  swap1\n  sstore\n  pop\n    /* \"TokenSell.sol\":125:962  contract Tokensell{\r... */\n  callvalue\n  dup1\n  iszero\n  tag_1\n  jumpi\n  0x00\n  dup1\n  revert\ntag_1:\n  pop\n  dataSize(sub_0)\n  dup1\n  dataOffset(sub_0)\n  0x00\n  codecopy\n  0x00\n  return\nstop\n\nsub_0: assembly {\n        /* \"TokenSell.sol\":125:962  contract Tokensell{\r... */\n      mstore(0x40, 0x80)\n      callvalue\n      dup1\n      iszero\n      tag_1\n      jumpi\n      0x00\n      dup1\n      revert\n    tag_1:\n      pop\n      jumpi(tag_2, lt(calldatasize, 0x04))\n      shr(0xe0, calldataload(0x00))\n      dup1\n      0x180dc0ac\n      eq\n      tag_3\n      jumpi\n      dup1\n      0x611efc09\n      eq\n      tag_4\n      jumpi\n      dup1\n      0x82760cd2\n      eq\n      tag_5\n      jumpi\n      dup1\n      0xa035b1fe\n      eq\n      tag_6\n      jumpi\n      dup1\n      0xd3aceae2\n      eq\n      tag_7\n      jumpi\n    tag_2:\n      0x00\n      dup1\n      revert\n        /* \"TokenSell.sol\":281:349  address public axsToken = 0x0aa7726bc0cB085A3C4fbE3B09b91DD7E27f7fea */\n    tag_3:\n      tag_8\n      tag_9\n      jump\t// in\n    tag_8:\n      mload(0x40)\n      tag_10\n      swap2\n      swap1\n      tag_11\n      jump\t// in\n    tag_10:\n      mload(0x40)\n      dup1\n      swap2\n      sub\n      swap1\n      return\n        /* \"TokenSell.sol\":642:953  function sale(address get,uint256 buynmu)public{\r... */\n    tag_4:\n      tag_12\n      0x04\n      dup1\n      calldatasize\n      sub\n      dup2\n      add\n      swap1\n      tag_13\n      swap2\n      swap1\n      tag_14\n      jump\t// in\n    tag_13:\n      tag_15\n      jump\t// in\n    tag_12:\n      stop\n        /* \"TokenSell.sol\":409:636  function launch(uint _starttime , uint _endtime)external view{\r... */\n    tag_5:\n      tag_16\n      0x04\n      dup1\n      calldatasize\n      sub\n      dup2\n      add\n      swap1\n      tag_17\n      swap2\n      swap1\n      tag_18\n      jump\t// in\n    tag_17:\n      tag_19\n      jump\t// in\n    tag_16:\n      stop\n        /* \"TokenSell.sol\":154:188  uint256 public price = 1 * 10 * 18 */\n    tag_6:\n      tag_20\n      tag_21\n      jump\t// in\n    tag_20:\n      mload(0x40)\n      tag_22\n      swap2\n      swap1\n      tag_23\n      jump\t// in\n    tag_22:\n      mload(0x40)\n      dup1\n      swap2\n      sub\n      swap1\n      return\n        /* \"TokenSell.sol\":360:400  mapping(address => uint) public _balance */\n    tag_7:\n      tag_24\n      0x04\n      dup1\n      calldatasize\n      sub\n      dup2\n      add\n      swap1\n      tag_25\n      swap2\n      swap1\n      tag_26\n      jump\t// in\n    tag_25:\n      tag_27\n      jump\t// in\n    tag_24:\n      mload(0x40)\n      tag_28\n      swap2\n      swap1\n      tag_23\n      jump\t// in\n    tag_28:\n      mload(0x40)\n      dup1\n      swap2\n      sub\n      swap1\n      return\n        /* \"TokenSell.sol\":281:349  address public axsToken = 0x0aa7726bc0cB085A3C4fbE3B09b91DD7E27f7fea */\n    tag_9:\n      0x04\n      0x00\n      swap1\n      sload\n      swap1\n      0x0100\n      exp\n      swap1\n      div\n      0xffffffffffffffffffffffffffffffffffffffff\n      and\n      dup2\n      jump\t// out\n        /* \"TokenSell.sol\":642:953  function sale(address get,uint256 buynmu)public{\r... */\n    tag_15:\n        /* \"TokenSell.sol\":727:736  starttime */\n      sload(0x02)\n        /* \"TokenSell.sol\":708:723  block.timestamp */\n      timestamp\n        /* \"TokenSell.sol\":708:736  block.timestamp >= starttime */\n      lt\n      iszero\n        /* \"TokenSell.sol\":700:737  require(block.timestamp >= starttime) */\n      tag_30\n      jumpi\n      0x00\n      dup1\n      revert\n    tag_30:\n        /* \"TokenSell.sol\":775:782  endtime */\n      sload(0x03)\n        /* \"TokenSell.sol\":756:771  block.timestamp */\n      timestamp\n        /* \"TokenSell.sol\":756:782  block.timestamp <= endtime */\n      gt\n      iszero\n        /* \"TokenSell.sol\":748:783  require(block.timestamp <= endtime) */\n      tag_31\n      jumpi\n      0x00\n      dup1\n      revert\n    tag_31:\n        /* \"TokenSell.sol\":794:808  uint256 paynum */\n      0x00\n        /* \"TokenSell.sol\":828:836  10 ** 18 */\n      0x0de0b6b3a7640000\n        /* \"TokenSell.sol\":820:825  price */\n      sload(0x00)\n        /* \"TokenSell.sol\":811:817  buynmu */\n      dup4\n        /* \"TokenSell.sol\":811:825  buynmu * price */\n      tag_32\n      swap2\n      swap1\n      tag_33\n      jump\t// in\n    tag_32:\n        /* \"TokenSell.sol\":811:836  buynmu * price / 10 ** 18 */\n      tag_34\n      swap2\n      swap1\n      tag_35\n      jump\t// in\n    tag_34:\n        /* \"TokenSell.sol\":794:836  uint256 paynum = buynmu * price / 10 ** 18 */\n      swap1\n      pop\n        /* \"TokenSell.sol\":854:862  axsToken */\n      0x04\n      0x00\n      swap1\n      sload\n      swap1\n      0x0100\n      exp\n      swap1\n      div\n      0xffffffffffffffffffffffffffffffffffffffff\n      and\n        /* \"TokenSell.sol\":847:876  IERC20(axsToken).transferFrom */\n      0xffffffffffffffffffffffffffffffffffffffff\n      and\n      0x23b872dd\n        /* \"TokenSell.sol\":877:887  msg.sender */\n      caller\n        /* \"TokenSell.sol\":898:902  this */\n      address\n        /* \"TokenSell.sol\":904:910  paynum */\n      dup5\n        /* \"TokenSell.sol\":847:911  IERC20(axsToken).transferFrom(msg.sender , address(this),paynum) */\n      mload(0x40)\n      dup5\n      0xffffffff\n      and\n      0xe0\n      shl\n      dup2\n      mstore\n      0x04\n      add\n      tag_36\n      swap4\n      swap3\n      swap2\n      swap1\n      tag_37\n      jump\t// in\n    tag_36:\n      0x20\n      mload(0x40)\n      dup1\n      dup4\n      sub\n      dup2\n      0x00\n      dup8\n      dup1\n      extcodesize\n      iszero\n      dup1\n      iszero\n      tag_38\n      jumpi\n      0x00\n      dup1\n      revert\n    tag_38:\n      pop\n      gas\n      call\n      iszero\n      dup1\n      iszero\n      tag_40\n      jumpi\n      returndatasize\n      0x00\n      dup1\n      returndatacopy\n      revert(0x00, returndatasize)\n    tag_40:\n      pop\n      pop\n      pop\n      pop\n      mload(0x40)\n      returndatasize\n      not(0x1f)\n      0x1f\n      dup3\n      add\n      and\n      dup3\n      add\n      dup1\n      0x40\n      mstore\n      pop\n      dup2\n      add\n      swap1\n      tag_41\n      swap2\n      swap1\n      tag_42\n      jump\t// in\n    tag_41:\n      pop\n        /* \"TokenSell.sol\":939:945  buynmu */\n      dup2\n        /* \"TokenSell.sol\":922:930  _balance */\n      0x05\n        /* \"TokenSell.sol\":922:935  _balance[get] */\n      0x00\n        /* \"TokenSell.sol\":931:934  get */\n      dup6\n        /* \"TokenSell.sol\":922:935  _balance[get] */\n      0xffffffffffffffffffffffffffffffffffffffff\n      and\n      0xffffffffffffffffffffffffffffffffffffffff\n      and\n      dup2\n      mstore\n      0x20\n      add\n      swap1\n      dup2\n      mstore\n      0x20\n      add\n      0x00\n      keccak256\n      0x00\n        /* \"TokenSell.sol\":922:945  _balance[get] += buynmu */\n      dup3\n      dup3\n      sload\n      tag_43\n      swap2\n      swap1\n      tag_44\n      jump\t// in\n    tag_43:\n      swap3\n      pop\n      pop\n      dup2\n      swap1\n      sstore\n      pop\n        /* \"TokenSell.sol\":689:953  {\r... */\n      pop\n        /* \"TokenSell.sol\":642:953  function sale(address get,uint256 buynmu)public{\r... */\n      pop\n      pop\n      jump\t// out\n        /* \"TokenSell.sol\":409:636  function launch(uint _starttime , uint _endtime)external view{\r... */\n    tag_19:\n        /* \"TokenSell.sol\":503:518  block.timestamp */\n      timestamp\n        /* \"TokenSell.sol\":489:499  _starttime */\n      dup3\n        /* \"TokenSell.sol\":489:518  _starttime >= block.timestamp */\n      lt\n      iszero\n        /* \"TokenSell.sol\":481:519  require(_starttime >= block.timestamp) */\n      tag_46\n      jumpi\n      0x00\n      dup1\n      revert\n    tag_46:\n        /* \"TokenSell.sol\":550:560  _starttime */\n      dup2\n        /* \"TokenSell.sol\":538:546  _endtime */\n      dup2\n        /* \"TokenSell.sol\":538:560  _endtime >= _starttime */\n      lt\n      iszero\n        /* \"TokenSell.sol\":530:561  require(_endtime >= _starttime) */\n      tag_47\n      jumpi\n      0x00\n      dup1\n      revert\n    tag_47:\n        /* \"TokenSell.sol\":610:617  30 days */\n      0x278d00\n        /* \"TokenSell.sol\":592:607  block.timestamp */\n      timestamp\n        /* \"TokenSell.sol\":592:617  block.timestamp + 30 days */\n      tag_48\n      swap2\n      swap1\n      tag_44\n      jump\t// in\n    tag_48:\n        /* \"TokenSell.sol\":580:588  _endtime */\n      dup2\n        /* \"TokenSell.sol\":580:617  _endtime <= block.timestamp + 30 days */\n      gt\n      iszero\n        /* \"TokenSell.sol\":572:618  require(_endtime <= block.timestamp + 30 days) */\n      tag_49\n      jumpi\n      0x00\n      dup1\n      revert\n    tag_49:\n        /* \"TokenSell.sol\":409:636  function launch(uint _starttime , uint _endtime)external view{\r... */\n      pop\n      pop\n      jump\t// out\n        /* \"TokenSell.sol\":154:188  uint256 public price = 1 * 10 * 18 */\n    tag_21:\n      sload(0x00)\n      dup2\n      jump\t// out\n        /* \"TokenSell.sol\":360:400  mapping(address => uint) public _balance */\n    tag_27:\n      mstore(0x20, 0x05)\n      dup1\n      0x00\n      mstore\n      keccak256(0x00, 0x40)\n      0x00\n      swap2\n      pop\n      swap1\n      pop\n      sload\n      dup2\n      jump\t// out\n        /* \"#utility.yul\":7:146   */\n    tag_51:\n        /* \"#utility.yul\":53:58   */\n      0x00\n        /* \"#utility.yul\":91:97   */\n      dup2\n        /* \"#utility.yul\":78:98   */\n      calldataload\n        /* \"#utility.yul\":69:98   */\n      swap1\n      pop\n        /* \"#utility.yul\":107:140   */\n      tag_53\n        /* \"#utility.yul\":134:139   */\n      dup2\n        /* \"#utility.yul\":107:140   */\n      tag_54\n      jump\t// in\n    tag_53:\n        /* \"#utility.yul\":7:146   */\n      swap3\n      swap2\n      pop\n      pop\n      jump\t// out\n        /* \"#utility.yul\":152:289   */\n    tag_55:\n        /* \"#utility.yul\":206:211   */\n      0x00\n        /* \"#utility.yul\":237:243   */\n      dup2\n        /* \"#utility.yul\":231:244   */\n      mload\n        /* \"#utility.yul\":222:244   */\n      swap1\n      pop\n        /* \"#utility.yul\":253:283   */\n      tag_57\n        /* \"#utility.yul\":277:282   */\n      dup2\n        /* \"#utility.yul\":253:283   */\n      tag_58\n      jump\t// in\n    tag_57:\n        /* \"#utility.yul\":152:289   */\n      swap3\n      swap2\n      pop\n      pop\n      jump\t// out\n        /* \"#utility.yul\":295:434   */\n    tag_59:\n        /* \"#utility.yul\":341:346   */\n      0x00\n        /* \"#utility.yul\":379:385   */\n      dup2\n        /* \"#utility.yul\":366:386   */\n      calldataload\n        /* \"#utility.yul\":357:386   */\n      swap1\n      pop\n        /* \"#utility.yul\":395:428   */\n      tag_61\n        /* \"#utility.yul\":422:427   */\n      dup2\n        /* \"#utility.yul\":395:428   */\n      tag_62\n      jump\t// in\n    tag_61:\n        /* \"#utility.yul\":295:434   */\n      swap3\n      swap2\n      pop\n      pop\n      jump\t// out\n        /* \"#utility.yul\":440:769   */\n    tag_26:\n        /* \"#utility.yul\":499:505   */\n      0x00\n        /* \"#utility.yul\":548:550   */\n      0x20\n        /* \"#utility.yul\":536:545   */\n      dup3\n        /* \"#utility.yul\":527:534   */\n      dup5\n        /* \"#utility.yul\":523:546   */\n      sub\n        /* \"#utility.yul\":519:551   */\n      slt\n        /* \"#utility.yul\":516:635   */\n      iszero\n      tag_64\n      jumpi\n        /* \"#utility.yul\":554:633   */\n      tag_65\n      tag_66\n      jump\t// in\n    tag_65:\n        /* \"#utility.yul\":516:635   */\n    tag_64:\n        /* \"#utility.yul\":674:675   */\n      0x00\n        /* \"#utility.yul\":699:752   */\n      tag_67\n        /* \"#utility.yul\":744:751   */\n      dup5\n        /* \"#utility.yul\":735:741   */\n      dup3\n        /* \"#utility.yul\":724:733   */\n      dup6\n        /* \"#utility.yul\":720:742   */\n      add\n        /* \"#utility.yul\":699:752   */\n      tag_51\n      jump\t// in\n    tag_67:\n        /* \"#utility.yul\":689:752   */\n      swap2\n      pop\n        /* \"#utility.yul\":645:762   */\n      pop\n        /* \"#utility.yul\":440:769   */\n      swap3\n      swap2\n      pop\n      pop\n      jump\t// out\n        /* \"#utility.yul\":775:1249   */\n    tag_14:\n        /* \"#utility.yul\":843:849   */\n      0x00\n        /* \"#utility.yul\":851:857   */\n      dup1\n        /* \"#utility.yul\":900:902   */\n      0x40\n        /* \"#utility.yul\":888:897   */\n      dup4\n        /* \"#utility.yul\":879:886   */\n      dup6\n        /* \"#utility.yul\":875:898   */\n      sub\n        /* \"#utility.yul\":871:903   */\n      slt\n        /* \"#utility.yul\":868:987   */\n      iszero\n      tag_69\n      jumpi\n        /* \"#utility.yul\":906:985   */\n      tag_70\n      tag_66\n      jump\t// in\n    tag_70:\n        /* \"#utility.yul\":868:987   */\n    tag_69:\n        /* \"#utility.yul\":1026:1027   */\n      0x00\n        /* \"#utility.yul\":1051:1104   */\n      tag_71\n        /* \"#utility.yul\":1096:1103   */\n      dup6\n        /* \"#utility.yul\":1087:1093   */\n      dup3\n        /* \"#utility.yul\":1076:1085   */\n      dup7\n        /* \"#utility.yul\":1072:1094   */\n      add\n        /* \"#utility.yul\":1051:1104   */\n      tag_51\n      jump\t// in\n    tag_71:\n        /* \"#utility.yul\":1041:1104   */\n      swap3\n      pop\n        /* \"#utility.yul\":997:1114   */\n      pop\n        /* \"#utility.yul\":1153:1155   */\n      0x20\n        /* \"#utility.yul\":1179:1232   */\n      tag_72\n        /* \"#utility.yul\":1224:1231   */\n      dup6\n        /* \"#utility.yul\":1215:1221   */\n      dup3\n        /* \"#utility.yul\":1204:1213   */\n      dup7\n        /* \"#utility.yul\":1200:1222   */\n      add\n        /* \"#utility.yul\":1179:1232   */\n      tag_59\n      jump\t// in\n    tag_72:\n        /* \"#utility.yul\":1169:1232   */\n      swap2\n      pop\n        /* \"#utility.yul\":1124:1242   */\n      pop\n        /* \"#utility.yul\":775:1249   */\n      swap3\n      pop\n      swap3\n      swap1\n      pop\n      jump\t// out\n        /* \"#utility.yul\":1255:1600   */\n    tag_42:\n        /* \"#utility.yul\":1322:1328   */\n      0x00\n        /* \"#utility.yul\":1371:1373   */\n      0x20\n        /* \"#utility.yul\":1359:1368   */\n      dup3\n        /* \"#utility.yul\":1350:1357   */\n      dup5\n        /* \"#utility.yul\":1346:1369   */\n      sub\n        /* \"#utility.yul\":1342:1374   */\n      slt\n        /* \"#utility.yul\":1339:1458   */\n      iszero\n      tag_74\n      jumpi\n        /* \"#utility.yul\":1377:1456   */\n      tag_75\n      tag_66\n      jump\t// in\n    tag_75:\n        /* \"#utility.yul\":1339:1458   */\n    tag_74:\n        /* \"#utility.yul\":1497:1498   */\n      0x00\n        /* \"#utility.yul\":1522:1583   */\n      tag_76\n        /* \"#utility.yul\":1575:1582   */\n      dup5\n        /* \"#utility.yul\":1566:1572   */\n      dup3\n        /* \"#utility.yul\":1555:1564   */\n      dup6\n        /* \"#utility.yul\":1551:1573   */\n      add\n        /* \"#utility.yul\":1522:1583   */\n      tag_55\n      jump\t// in\n    tag_76:\n        /* \"#utility.yul\":1512:1583   */\n      swap2\n      pop\n        /* \"#utility.yul\":1468:1593   */\n      pop\n        /* \"#utility.yul\":1255:1600   */\n      swap3\n      swap2\n      pop\n      pop\n      jump\t// out\n        /* \"#utility.yul\":1606:2080   */\n    tag_18:\n        /* \"#utility.yul\":1674:1680   */\n      0x00\n        /* \"#utility.yul\":1682:1688   */\n      dup1\n        /* \"#utility.yul\":1731:1733   */\n      0x40\n        /* \"#utility.yul\":1719:1728   */\n      dup4\n        /* \"#utility.yul\":1710:1717   */\n      dup6\n        /* \"#utility.yul\":1706:1729   */\n      sub\n        /* \"#utility.yul\":1702:1734   */\n      slt\n        /* \"#utility.yul\":1699:1818   */\n      iszero\n      tag_78\n      jumpi\n        /* \"#utility.yul\":1737:1816   */\n      tag_79\n      tag_66\n      jump\t// in\n    tag_79:\n        /* \"#utility.yul\":1699:1818   */\n    tag_78:\n        /* \"#utility.yul\":1857:1858   */\n      0x00\n        /* \"#utility.yul\":1882:1935   */\n      tag_80\n        /* \"#utility.yul\":1927:1934   */\n      dup6\n        /* \"#utility.yul\":1918:1924   */\n      dup3\n        /* \"#utility.yul\":1907:1916   */\n      dup7\n        /* \"#utility.yul\":1903:1925   */\n      add\n        /* \"#utility.yul\":1882:1935   */\n      tag_59\n      jump\t// in\n    tag_80:\n        /* \"#utility.yul\":1872:1935   */\n      swap3\n      pop\n        /* \"#utility.yul\":1828:1945   */\n      pop\n        /* \"#utility.yul\":1984:1986   */\n      0x20\n        /* \"#utility.yul\":2010:2063   */\n      tag_81\n        /* \"#utility.yul\":2055:2062   */\n      dup6\n        /* \"#utility.yul\":2046:2052   */\n      dup3\n        /* \"#utility.yul\":2035:2044   */\n      dup7\n        /* \"#utility.yul\":2031:2053   */\n      add\n        /* \"#utility.yul\":2010:2063   */\n      tag_59\n      jump\t// in\n    tag_81:\n        /* \"#utility.yul\":2000:2063   */\n      swap2\n      pop\n        /* \"#utility.yul\":1955:2073   */\n      pop\n        /* \"#utility.yul\":1606:2080   */\n      swap3\n      pop\n      swap3\n      swap1\n      pop\n      jump\t// out\n        /* \"#utility.yul\":2086:2204   */\n    tag_82:\n        /* \"#utility.yul\":2173:2197   */\n      tag_84\n        /* \"#utility.yul\":2191:2196   */\n      dup2\n        /* \"#utility.yul\":2173:2197   */\n      tag_85\n      jump\t// in\n    tag_84:\n        /* \"#utility.yul\":2168:2171   */\n      dup3\n        /* \"#utility.yul\":2161:2198   */\n      mstore\n        /* \"#utility.yul\":2086:2204   */\n      pop\n      pop\n      jump\t// out\n        /* \"#utility.yul\":2210:2328   */\n    tag_86:\n        /* \"#utility.yul\":2297:2321   */\n      tag_88\n        /* \"#utility.yul\":2315:2320   */\n      dup2\n        /* \"#utility.yul\":2297:2321   */\n      tag_89\n      jump\t// in\n    tag_88:\n        /* \"#utility.yul\":2292:2295   */\n      dup3\n        /* \"#utility.yul\":2285:2322   */\n      mstore\n        /* \"#utility.yul\":2210:2328   */\n      pop\n      pop\n      jump\t// out\n        /* \"#utility.yul\":2334:2556   */\n    tag_11:\n        /* \"#utility.yul\":2427:2431   */\n      0x00\n        /* \"#utility.yul\":2465:2467   */\n      0x20\n        /* \"#utility.yul\":2454:2463   */\n      dup3\n        /* \"#utility.yul\":2450:2468   */\n      add\n        /* \"#utility.yul\":2442:2468   */\n      swap1\n      pop\n        /* \"#utility.yul\":2478:2549   */\n      tag_91\n        /* \"#utility.yul\":2546:2547   */\n      0x00\n        /* \"#utility.yul\":2535:2544   */\n      dup4\n        /* \"#utility.yul\":2531:2548   */\n      add\n        /* \"#utility.yul\":2522:2528   */\n      dup5\n        /* \"#utility.yul\":2478:2549   */\n      tag_82\n      jump\t// in\n    tag_91:\n        /* \"#utility.yul\":2334:2556   */\n      swap3\n      swap2\n      pop\n      pop\n      jump\t// out\n        /* \"#utility.yul\":2562:3004   */\n    tag_37:\n        /* \"#utility.yul\":2711:2715   */\n      0x00\n        /* \"#utility.yul\":2749:2751   */\n      0x60\n        /* \"#utility.yul\":2738:2747   */\n      dup3\n        /* \"#utility.yul\":2734:2752   */\n      add\n        /* \"#utility.yul\":2726:2752   */\n      swap1\n      pop\n        /* \"#utility.yul\":2762:2833   */\n      tag_93\n        /* \"#utility.yul\":2830:2831   */\n      0x00\n        /* \"#utility.yul\":2819:2828   */\n      dup4\n        /* \"#utility.yul\":2815:2832   */\n      add\n        /* \"#utility.yul\":2806:2812   */\n      dup7\n        /* \"#utility.yul\":2762:2833   */\n      tag_82\n      jump\t// in\n    tag_93:\n        /* \"#utility.yul\":2843:2915   */\n      tag_94\n        /* \"#utility.yul\":2911:2913   */\n      0x20\n        /* \"#utility.yul\":2900:2909   */\n      dup4\n        /* \"#utility.yul\":2896:2914   */\n      add\n        /* \"#utility.yul\":2887:2893   */\n      dup6\n        /* \"#utility.yul\":2843:2915   */\n      tag_82\n      jump\t// in\n    tag_94:\n        /* \"#utility.yul\":2925:2997   */\n      tag_95\n        /* \"#utility.yul\":2993:2995   */\n      0x40\n        /* \"#utility.yul\":2982:2991   */\n      dup4\n        /* \"#utility.yul\":2978:2996   */\n      add\n        /* \"#utility.yul\":2969:2975   */\n      dup5\n        /* \"#utility.yul\":2925:2997   */\n      tag_86\n      jump\t// in\n    tag_95:\n        /* \"#utility.yul\":2562:3004   */\n      swap5\n      swap4\n      pop\n      pop\n      pop\n      pop\n      jump\t// out\n        /* \"#utility.yul\":3010:3232   */\n    tag_23:\n        /* \"#utility.yul\":3103:3107   */\n      0x00\n        /* \"#utility.yul\":3141:3143   */\n      0x20\n        /* \"#utility.yul\":3130:3139   */\n      dup3\n        /* \"#utility.yul\":3126:3144   */\n      add\n        /* \"#utility.yul\":3118:3144   */\n      swap1\n      pop\n        /* \"#utility.yul\":3154:3225   */\n      tag_97\n        /* \"#utility.yul\":3222:3223   */\n      0x00\n        /* \"#utility.yul\":3211:3220   */\n      dup4\n        /* \"#utility.yul\":3207:3224   */\n      add\n        /* \"#utility.yul\":3198:3204   */\n      dup5\n        /* \"#utility.yul\":3154:3225   */\n      tag_86\n      jump\t// in\n    tag_97:\n        /* \"#utility.yul\":3010:3232   */\n      swap3\n      swap2\n      pop\n      pop\n      jump\t// out\n        /* \"#utility.yul\":3319:3624   */\n    tag_44:\n        /* \"#utility.yul\":3359:3362   */\n      0x00\n        /* \"#utility.yul\":3378:3398   */\n      tag_101\n        /* \"#utility.yul\":3396:3397   */\n      dup3\n        /* \"#utility.yul\":3378:3398   */\n      tag_89\n      jump\t// in\n    tag_101:\n        /* \"#utility.yul\":3373:3398   */\n      swap2\n      pop\n        /* \"#utility.yul\":3412:3432   */\n      tag_102\n        /* \"#utility.yul\":3430:3431   */\n      dup4\n        /* \"#utility.yul\":3412:3432   */\n      tag_89\n      jump\t// in\n    tag_102:\n        /* \"#utility.yul\":3407:3432   */\n      swap3\n      pop\n        /* \"#utility.yul\":3566:3567   */\n      dup3\n        /* \"#utility.yul\":3498:3564   */\n      0xffffffffffffffffffffffffffffffffffffffffffffffffffffffffffffffff\n        /* \"#utility.yul\":3494:3568   */\n      sub\n        /* \"#utility.yul\":3491:3492   */\n      dup3\n        /* \"#utility.yul\":3488:3569   */\n      gt\n        /* \"#utility.yul\":3485:3592   */\n      iszero\n      tag_103\n      jumpi\n        /* \"#utility.yul\":3572:3590   */\n      tag_104\n      tag_105\n      jump\t// in\n    tag_104:\n        /* \"#utility.yul\":3485:3592   */\n    tag_103:\n        /* \"#utility.yul\":3616:3617   */\n      dup3\n        /* \"#utility.yul\":3613:3614   */\n      dup3\n        /* \"#utility.yul\":3609:3618   */\n      add\n        /* \"#utility.yul\":3602:3618   */\n      swap1\n      pop\n        /* \"#utility.yul\":3319:3624   */\n      swap3\n      swap2\n      pop\n      pop\n      jump\t// out\n        /* \"#utility.yul\":3630:3815   */\n    tag_35:\n        /* \"#utility.yul\":3670:3671   */\n      0x00\n        /* \"#utility.yul\":3687:3707   */\n      tag_107\n        /* \"#utility.yul\":3705:3706   */\n      dup3\n        /* \"#utility.yul\":3687:3707   */\n      tag_89\n      jump\t// in\n    tag_107:\n        /* \"#utility.yul\":3682:3707   */\n      swap2\n      pop\n        /* \"#utility.yul\":3721:3741   */\n      tag_108\n        /* \"#utility.yul\":3739:3740   */\n      dup4\n        /* \"#utility.yul\":3721:3741   */\n      tag_89\n      jump\t// in\n    tag_108:\n        /* \"#utility.yul\":3716:3741   */\n      swap3\n      pop\n        /* \"#utility.yul\":3760:3761   */\n      dup3\n        /* \"#utility.yul\":3750:3785   */\n      tag_109\n      jumpi\n        /* \"#utility.yul\":3765:3783   */\n      tag_110\n      tag_111\n      jump\t// in\n    tag_110:\n        /* \"#utility.yul\":3750:3785   */\n    tag_109:\n        /* \"#utility.yul\":3807:3808   */\n      dup3\n        /* \"#utility.yul\":3804:3805   */\n      dup3\n        /* \"#utility.yul\":3800:3809   */\n      div\n        /* \"#utility.yul\":3795:3809   */\n      swap1\n      pop\n        /* \"#utility.yul\":3630:3815   */\n      swap3\n      swap2\n      pop\n      pop\n      jump\t// out\n        /* \"#utility.yul\":3821:4169   */\n    tag_33:\n        /* \"#utility.yul\":3861:3868   */\n      0x00\n        /* \"#utility.yul\":3884:3904   */\n      tag_113\n        /* \"#utility.yul\":3902:3903   */\n      dup3\n        /* \"#utility.yul\":3884:3904   */\n      tag_89\n      jump\t// in\n    tag_113:\n        /* \"#utility.yul\":3879:3904   */\n      swap2\n      pop\n        /* \"#utility.yul\":3918:3938   */\n      tag_114\n        /* \"#utility.yul\":3936:3937   */\n      dup4\n        /* \"#utility.yul\":3918:3938   */\n      tag_89\n      jump\t// in\n    tag_114:\n        /* \"#utility.yul\":3913:3938   */\n      swap3\n      pop\n        /* \"#utility.yul\":4106:4107   */\n      dup2\n        /* \"#utility.yul\":4038:4104   */\n      0xffffffffffffffffffffffffffffffffffffffffffffffffffffffffffffffff\n        /* \"#utility.yul\":4034:4108   */\n      div\n        /* \"#utility.yul\":4031:4032   */\n      dup4\n        /* \"#utility.yul\":4028:4109   */\n      gt\n        /* \"#utility.yul\":4023:4024   */\n      dup3\n        /* \"#utility.yul\":4016:4025   */\n      iszero\n        /* \"#utility.yul\":4009:4026   */\n      iszero\n        /* \"#utility.yul\":4005:4110   */\n      and\n        /* \"#utility.yul\":4002:4133   */\n      iszero\n      tag_115\n      jumpi\n        /* \"#utility.yul\":4113:4131   */\n      tag_116\n      tag_105\n      jump\t// in\n    tag_116:\n        /* \"#utility.yul\":4002:4133   */\n    tag_115:\n        /* \"#utility.yul\":4161:4162   */\n      dup3\n        /* \"#utility.yul\":4158:4159   */\n      dup3\n        /* \"#utility.yul\":4154:4163   */\n      mul\n        /* \"#utility.yul\":4143:4163   */\n      swap1\n      pop\n        /* \"#utility.yul\":3821:4169   */\n      swap3\n      swap2\n      pop\n      pop\n      jump\t// out\n        /* \"#utility.yul\":4175:4271   */\n    tag_85:\n        /* \"#utility.yul\":4212:4219   */\n      0x00\n        /* \"#utility.yul\":4241:4265   */\n      tag_118\n        /* \"#utility.yul\":4259:4264   */\n      dup3\n        /* \"#utility.yul\":4241:4265   */\n      tag_119\n      jump\t// in\n    tag_118:\n        /* \"#utility.yul\":4230:4265   */\n      swap1\n      pop\n        /* \"#utility.yul\":4175:4271   */\n      swap2\n      swap1\n      pop\n      jump\t// out\n        /* \"#utility.yul\":4277:4367   */\n    tag_120:\n        /* \"#utility.yul\":4311:4318   */\n      0x00\n        /* \"#utility.yul\":4354:4359   */\n      dup2\n        /* \"#utility.yul\":4347:4360   */\n      iszero\n        /* \"#utility.yul\":4340:4361   */\n      iszero\n        /* \"#utility.yul\":4329:4361   */\n      swap1\n      pop\n        /* \"#utility.yul\":4277:4367   */\n      swap2\n      swap1\n      pop\n      jump\t// out\n        /* \"#utility.yul\":4373:4499   */\n    tag_119:\n        /* \"#utility.yul\":4410:4417   */\n      0x00\n        /* \"#utility.yul\":4450:4492   */\n      0xffffffffffffffffffffffffffffffffffffffff\n        /* \"#utility.yul\":4443:4448   */\n      dup3\n        /* \"#utility.yul\":4439:4493   */\n      and\n        /* \"#utility.yul\":4428:4493   */\n      swap1\n      pop\n        /* \"#utility.yul\":4373:4499   */\n      swap2\n      swap1\n      pop\n      jump\t// out\n        /* \"#utility.yul\":4505:4582   */\n    tag_89:\n        /* \"#utility.yul\":4542:4549   */\n      0x00\n        /* \"#utility.yul\":4571:4576   */\n      dup2\n        /* \"#utility.yul\":4560:4576   */\n      swap1\n      pop\n        /* \"#utility.yul\":4505:4582   */\n      swap2\n      swap1\n      pop\n      jump\t// out\n        /* \"#utility.yul\":4588:4768   */\n    tag_105:\n        /* \"#utility.yul\":4636:4713   */\n      0x4e487b7100000000000000000000000000000000000000000000000000000000\n        /* \"#utility.yul\":4633:4634   */\n      0x00\n        /* \"#utility.yul\":4626:4714   */\n      mstore\n        /* \"#utility.yul\":4733:4737   */\n      0x11\n        /* \"#utility.yul\":4730:4731   */\n      0x04\n        /* \"#utility.yul\":4723:4738   */\n      mstore\n        /* \"#utility.yul\":4757:4761   */\n      0x24\n        /* \"#utility.yul\":4754:4755   */\n      0x00\n        /* \"#utility.yul\":4747:4762   */\n      revert\n        /* \"#utility.yul\":4774:4954   */\n    tag_111:\n        /* \"#utility.yul\":4822:4899   */\n      0x4e487b7100000000000000000000000000000000000000000000000000000000\n        /* \"#utility.yul\":4819:4820   */\n      0x00\n        /* \"#utility.yul\":4812:4900   */\n      mstore\n        /* \"#utility.yul\":4919:4923   */\n      0x12\n        /* \"#utility.yul\":4916:4917   */\n      0x04\n        /* \"#utility.yul\":4909:4924   */\n      mstore\n        /* \"#utility.yul\":4943:4947   */\n      0x24\n        /* \"#utility.yul\":4940:4941   */\n      0x00\n        /* \"#utility.yul\":4933:4948   */\n      revert\n        /* \"#utility.yul\":5083:5200   */\n    tag_66:\n        /* \"#utility.yul\":5192:5193   */\n      0x00\n        /* \"#utility.yul\":5189:5190   */\n      dup1\n        /* \"#utility.yul\":5182:5194   */\n      revert\n        /* \"#utility.yul\":5206:5328   */\n    tag_54:\n        /* \"#utility.yul\":5279:5303   */\n      tag_130\n        /* \"#utility.yul\":5297:5302   */\n      dup2\n        /* \"#utility.yul\":5279:5303   */\n      tag_85\n      jump\t// in\n    tag_130:\n        /* \"#utility.yul\":5272:5277   */\n      dup2\n        /* \"#utility.yul\":5269:5304   */\n      eq\n        /* \"#utility.yul\":5259:5322   */\n      tag_131\n      jumpi\n        /* \"#utility.yul\":5318:5319   */\n      0x00\n        /* \"#utility.yul\":5315:5316   */\n      dup1\n        /* \"#utility.yul\":5308:5320   */\n      revert\n        /* \"#utility.yul\":5259:5322   */\n    tag_131:\n        /* \"#utility.yul\":5206:5328   */\n      pop\n      jump\t// out\n        /* \"#utility.yul\":5334:5450   */\n    tag_58:\n        /* \"#utility.yul\":5404:5425   */\n      tag_133\n        /* \"#utility.yul\":5419:5424   */\n      dup2\n        /* \"#utility.yul\":5404:5425   */\n      tag_120\n      jump\t// in\n    tag_133:\n        /* \"#utility.yul\":5397:5402   */\n      dup2\n        /* \"#utility.yul\":5394:5426   */\n      eq\n        /* \"#utility.yul\":5384:5444   */\n      tag_134\n      jumpi\n        /* \"#utility.yul\":5440:5441   */\n      0x00\n        /* \"#utility.yul\":5437:5438   */\n      dup1\n        /* \"#utility.yul\":5430:5442   */\n      revert\n        /* \"#utility.yul\":5384:5444   */\n    tag_134:\n        /* \"#utility.yul\":5334:5450   */\n      pop\n      jump\t// out\n        /* \"#utility.yul\":5456:5578   */\n    tag_62:\n        /* \"#utility.yul\":5529:5553   */\n      tag_136\n        /* \"#utility.yul\":5547:5552   */\n      dup2\n        /* \"#utility.yul\":5529:5553   */\n      tag_89\n      jump\t// in\n    tag_136:\n        /* \"#utility.yul\":5522:5527   */\n      dup2\n        /* \"#utility.yul\":5519:5554   */\n      eq\n        /* \"#utility.yul\":5509:5572   */\n      tag_137\n      jumpi\n        /* \"#utility.yul\":5568:5569   */\n      0x00\n        /* \"#utility.yul\":5565:5566   */\n      dup1\n        /* \"#utility.yul\":5558:5570   */\n      revert\n        /* \"#utility.yul\":5509:5572   */\n    tag_137:\n        /* \"#utility.yul\":5456:5578   */\n      pop\n      jump\t// out\n\n    auxdata: 0xa2646970667358221220d93cc544c9c236f39a4701758bbe35d0577fb6758343e861df9b944eb8dd62cc64736f6c63430008070033\n}\n",
				"bytecode": {
					"linkReferences": {},
					"object": "608060405260b46000556000600155730aa7726bc0cb085a3c4fbe3b09b91dd7e27f7fea600460006101000a81548173ffffffffffffffffffffffffffffffffffffffff021916908373ffffffffffffffffffffffffffffffffffffffff16021790555034801561006f57600080fd5b506106788061007f6000396000f3fe608060405234801561001057600080fd5b50600436106100575760003560e01c8063180dc0ac1461005c578063611efc091461007a57806382760cd214610096578063a035b1fe146100b2578063d3aceae2146100d0575b600080fd5b610064610100565b6040516100719190610404565b60405180910390f35b610094600480360381019061008f9190610339565b610126565b005b6100b060048036038101906100ab91906103a6565b610276565b005b6100ba6102af565b6040516100c79190610456565b60405180910390f35b6100ea60048036038101906100e5919061030c565b6102b5565b6040516100f79190610456565b60405180910390f35b600460009054906101000a900473ffffffffffffffffffffffffffffffffffffffff1681565b60025442101561013557600080fd5b60035442111561014457600080fd5b6000670de0b6b3a76400006000548361015d91906104f8565b61016791906104c7565b9050600460009054906101000a900473ffffffffffffffffffffffffffffffffffffffff1673ffffffffffffffffffffffffffffffffffffffff166323b872dd3330846040518463ffffffff1660e01b81526004016101c89392919061041f565b602060405180830381600087803b1580156101e257600080fd5b505af11580156101f6573d6000803e3d6000fd5b505050506040513d601f19601f8201168201806040525081019061021a9190610379565b5081600560008573ffffffffffffffffffffffffffffffffffffffff1673ffffffffffffffffffffffffffffffffffffffff168152602001908152602001600020600082825461026a9190610471565b92505081905550505050565b4282101561028357600080fd5b8181101561029057600080fd5b62278d004261029f9190610471565b8111156102ab57600080fd5b5050565b60005481565b60056020528060005260406000206000915090505481565b6000813590506102dc816105fd565b92915050565b6000815190506102f181610614565b92915050565b6000813590506103068161062b565b92915050565b600060208284031215610322576103216105f8565b5b6000610330848285016102cd565b91505092915050565b600080604083850312156103505761034f6105f8565b5b600061035e858286016102cd565b925050602061036f858286016102f7565b9150509250929050565b60006020828403121561038f5761038e6105f8565b5b600061039d848285016102e2565b91505092915050565b600080604083850312156103bd576103bc6105f8565b5b60006103cb858286016102f7565b92505060206103dc858286016102f7565b9150509250929050565b6103ef81610552565b82525050565b6103fe81610590565b82525050565b600060208201905061041960008301846103e6565b92915050565b600060608201905061043460008301866103e6565b61044160208301856103e6565b61044e60408301846103f5565b949350505050565b600060208201905061046b60008301846103f5565b92915050565b600061047c82610590565b915061048783610590565b9250827fffffffffffffffffffffffffffffffffffffffffffffffffffffffffffffffff038211156104bc576104bb61059a565b5b828201905092915050565b60006104d282610590565b91506104dd83610590565b9250826104ed576104ec6105c9565b5b828204905092915050565b600061050382610590565b915061050e83610590565b9250817fffffffffffffffffffffffffffffffffffffffffffffffffffffffffffffffff04831182151516156105475761054661059a565b5b828202905092915050565b600061055d82610570565b9050919050565b60008115159050919050565b600073ffffffffffffffffffffffffffffffffffffffff82169050919050565b6000819050919050565b7f4e487b7100000000000000000000000000000000000000000000000000000000600052601160045260246000fd5b7f4e487b7100000000000000000000000000000000000000000000000000000000600052601260045260246000fd5b600080fd5b61060681610552565b811461061157600080fd5b50565b61061d81610564565b811461062857600080fd5b50565b61063481610590565b811461063f57600080fd5b5056fea2646970667358221220d93cc544c9c236f39a4701758bbe35d0577fb6758343e861df9b944eb8dd62cc64736f6c63430008070033",
					"opcodes": "PUSH1 0x80 PUSH1 0x40 MSTORE PUSH1 0xB4 PUSH1 0x0 SSTORE PUSH1 0x0 PUSH1 0x1 SSTORE PUSH20 0xAA7726BC0CB085A3C4FBE3B09B91DD7E27F7FEA PUSH1 0x4 PUSH1 0x0 PUSH2 0x100 EXP DUP2 SLOAD DUP2 PUSH20 0xFFFFFFFFFFFFFFFFFFFFFFFFFFFFFFFFFFFFFFFF MUL NOT AND SWAP1 DUP4 PUSH20 0xFFFFFFFFFFFFFFFFFFFFFFFFFFFFFFFFFFFFFFFF AND MUL OR SWAP1 SSTORE POP CALLVALUE DUP1 ISZERO PUSH2 0x6F JUMPI PUSH1 0x0 DUP1 REVERT JUMPDEST POP PUSH2 0x678 DUP1 PUSH2 0x7F PUSH1 0x0 CODECOPY PUSH1 0x0 RETURN INVALID PUSH1 0x80 PUSH1 0x40 MSTORE CALLVALUE DUP1 ISZERO PUSH2 0x10 JUMPI PUSH1 0x0 DUP1 REVERT JUMPDEST POP PUSH1 0x4 CALLDATASIZE LT PUSH2 0x57 JUMPI PUSH1 0x0 CALLDATALOAD PUSH1 0xE0 SHR DUP1 PUSH4 0x180DC0AC EQ PUSH2 0x5C JUMPI DUP1 PUSH4 0x611EFC09 EQ PUSH2 0x7A JUMPI DUP1 PUSH4 0x82760CD2 EQ PUSH2 0x96 JUMPI DUP1 PUSH4 0xA035B1FE EQ PUSH2 0xB2 JUMPI DUP1 PUSH4 0xD3ACEAE2 EQ PUSH2 0xD0 JUMPI JUMPDEST PUSH1 0x0 DUP1 REVERT JUMPDEST PUSH2 0x64 PUSH2 0x100 JUMP JUMPDEST PUSH1 0x40 MLOAD PUSH2 0x71 SWAP2 SWAP1 PUSH2 0x404 JUMP JUMPDEST PUSH1 0x40 MLOAD DUP1 SWAP2 SUB SWAP1 RETURN JUMPDEST PUSH2 0x94 PUSH1 0x4 DUP1 CALLDATASIZE SUB DUP2 ADD SWAP1 PUSH2 0x8F SWAP2 SWAP1 PUSH2 0x339 JUMP JUMPDEST PUSH2 0x126 JUMP JUMPDEST STOP JUMPDEST PUSH2 0xB0 PUSH1 0x4 DUP1 CALLDATASIZE SUB DUP2 ADD SWAP1 PUSH2 0xAB SWAP2 SWAP1 PUSH2 0x3A6 JUMP JUMPDEST PUSH2 0x276 JUMP JUMPDEST STOP JUMPDEST PUSH2 0xBA PUSH2 0x2AF JUMP JUMPDEST PUSH1 0x40 MLOAD PUSH2 0xC7 SWAP2 SWAP1 PUSH2 0x456 JUMP JUMPDEST PUSH1 0x40 MLOAD DUP1 SWAP2 SUB SWAP1 RETURN JUMPDEST PUSH2 0xEA PUSH1 0x4 DUP1 CALLDATASIZE SUB DUP2 ADD SWAP1 PUSH2 0xE5 SWAP2 SWAP1 PUSH2 0x30C JUMP JUMPDEST PUSH2 0x2B5 JUMP JUMPDEST PUSH1 0x40 MLOAD PUSH2 0xF7 SWAP2 SWAP1 PUSH2 0x456 JUMP JUMPDEST PUSH1 0x40 MLOAD DUP1 SWAP2 SUB SWAP1 RETURN JUMPDEST PUSH1 0x4 PUSH1 0x0 SWAP1 SLOAD SWAP1 PUSH2 0x100 EXP SWAP1 DIV PUSH20 0xFFFFFFFFFFFFFFFFFFFFFFFFFFFFFFFFFFFFFFFF AND DUP2 JUMP JUMPDEST PUSH1 0x2 SLOAD TIMESTAMP LT ISZERO PUSH2 0x135 JUMPI PUSH1 0x0 DUP1 REVERT JUMPDEST PUSH1 0x3 SLOAD TIMESTAMP GT ISZERO PUSH2 0x144 JUMPI PUSH1 0x0 DUP1 REVERT JUMPDEST PUSH1 0x0 PUSH8 0xDE0B6B3A7640000 PUSH1 0x0 SLOAD DUP4 PUSH2 0x15D SWAP2 SWAP1 PUSH2 0x4F8 JUMP JUMPDEST PUSH2 0x167 SWAP2 SWAP1 PUSH2 0x4C7 JUMP JUMPDEST SWAP1 POP PUSH1 0x4 PUSH1 0x0 SWAP1 SLOAD SWAP1 PUSH2 0x100 EXP SWAP1 DIV PUSH20 0xFFFFFFFFFFFFFFFFFFFFFFFFFFFFFFFFFFFFFFFF AND PUSH20 0xFFFFFFFFFFFFFFFFFFFFFFFFFFFFFFFFFFFFFFFF AND PUSH4 0x23B872DD CALLER ADDRESS DUP5 PUSH1 0x40 MLOAD DUP5 PUSH4 0xFFFFFFFF AND PUSH1 0xE0 SHL DUP2 MSTORE PUSH1 0x4 ADD PUSH2 0x1C8 SWAP4 SWAP3 SWAP2 SWAP1 PUSH2 0x41F JUMP JUMPDEST PUSH1 0x20 PUSH1 0x40 MLOAD DUP1 DUP4 SUB DUP2 PUSH1 0x0 DUP8 DUP1 EXTCODESIZE ISZERO DUP1 ISZERO PUSH2 0x1E2 JUMPI PUSH1 0x0 DUP1 REVERT JUMPDEST POP GAS CALL ISZERO DUP1 ISZERO PUSH2 0x1F6 JUMPI RETURNDATASIZE PUSH1 0x0 DUP1 RETURNDATACOPY RETURNDATASIZE PUSH1 0x0 REVERT JUMPDEST POP POP POP POP PUSH1 0x40 MLOAD RETURNDATASIZE PUSH1 0x1F NOT PUSH1 0x1F DUP3 ADD AND DUP3 ADD DUP1 PUSH1 0x40 MSTORE POP DUP2 ADD SWAP1 PUSH2 0x21A SWAP2 SWAP1 PUSH2 0x379 JUMP JUMPDEST POP DUP2 PUSH1 0x5 PUSH1 0x0 DUP6 PUSH20 0xFFFFFFFFFFFFFFFFFFFFFFFFFFFFFFFFFFFFFFFF AND PUSH20 0xFFFFFFFFFFFFFFFFFFFFFFFFFFFFFFFFFFFFFFFF AND DUP2 MSTORE PUSH1 0x20 ADD SWAP1 DUP2 MSTORE PUSH1 0x20 ADD PUSH1 0x0 KECCAK256 PUSH1 0x0 DUP3 DUP3 SLOAD PUSH2 0x26A SWAP2 SWAP1 PUSH2 0x471 JUMP JUMPDEST SWAP3 POP POP DUP2 SWAP1 SSTORE POP POP POP POP JUMP JUMPDEST TIMESTAMP DUP3 LT ISZERO PUSH2 0x283 JUMPI PUSH1 0x0 DUP1 REVERT JUMPDEST DUP2 DUP2 LT ISZERO PUSH2 0x290 JUMPI PUSH1 0x0 DUP1 REVERT JUMPDEST PUSH3 0x278D00 TIMESTAMP PUSH2 0x29F SWAP2 SWAP1 PUSH2 0x471 JUMP JUMPDEST DUP2 GT ISZERO PUSH2 0x2AB JUMPI PUSH1 0x0 DUP1 REVERT JUMPDEST POP POP JUMP JUMPDEST PUSH1 0x0 SLOAD DUP2 JUMP JUMPDEST PUSH1 0x5 PUSH1 0x20 MSTORE DUP1 PUSH1 0x0 MSTORE PUSH1 0x40 PUSH1 0x0 KECCAK256 PUSH1 0x0 SWAP2 POP SWAP1 POP SLOAD DUP2 JUMP JUMPDEST PUSH1 0x0 DUP2 CALLDATALOAD SWAP1 POP PUSH2 0x2DC DUP2 PUSH2 0x5FD JUMP JUMPDEST SWAP3 SWAP2 POP POP JUMP JUMPDEST PUSH1 0x0 DUP2 MLOAD SWAP1 POP PUSH2 0x2F1 DUP2 PUSH2 0x614 JUMP JUMPDEST SWAP3 SWAP2 POP POP JUMP JUMPDEST PUSH1 0x0 DUP2 CALLDATALOAD SWAP1 POP PUSH2 0x306 DUP2 PUSH2 0x62B JUMP JUMPDEST SWAP3 SWAP2 POP POP JUMP JUMPDEST PUSH1 0x0 PUSH1 0x20 DUP3 DUP5 SUB SLT ISZERO PUSH2 0x322 JUMPI PUSH2 0x321 PUSH2 0x5F8 JUMP JUMPDEST JUMPDEST PUSH1 0x0 PUSH2 0x330 DUP5 DUP3 DUP6 ADD PUSH2 0x2CD JUMP JUMPDEST SWAP2 POP POP SWAP3 SWAP2 POP POP JUMP JUMPDEST PUSH1 0x0 DUP1 PUSH1 0x40 DUP4 DUP6 SUB SLT ISZERO PUSH2 0x350 JUMPI PUSH2 0x34F PUSH2 0x5F8 JUMP JUMPDEST JUMPDEST PUSH1 0x0 PUSH2 0x35E DUP6 DUP3 DUP7 ADD PUSH2 0x2CD JUMP JUMPDEST SWAP3 POP POP PUSH1 0x20 PUSH2 0x36F DUP6 DUP3 DUP7 ADD PUSH2 0x2F7 JUMP JUMPDEST SWAP2 POP POP SWAP3 POP SWAP3 SWAP1 POP JUMP JUMPDEST PUSH1 0x0 PUSH1 0x20 DUP3 DUP5 SUB SLT ISZERO PUSH2 0x38F JUMPI PUSH2 0x38E PUSH2 0x5F8 JUMP JUMPDEST JUMPDEST PUSH1 0x0 PUSH2 0x39D DUP5 DUP3 DUP6 ADD PUSH2 0x2E2 JUMP JUMPDEST SWAP2 POP POP SWAP3 SWAP2 POP POP JUMP JUMPDEST PUSH1 0x0 DUP1 PUSH1 0x40 DUP4 DUP6 SUB SLT ISZERO PUSH2 0x3BD JUMPI PUSH2 0x3BC PUSH2 0x5F8 JUMP JUMPDEST JUMPDEST PUSH1 0x0 PUSH2 0x3CB DUP6 DUP3 DUP7 ADD PUSH2 0x2F7 JUMP JUMPDEST SWAP3 POP POP PUSH1 0x20 PUSH2 0x3DC DUP6 DUP3 DUP7 ADD PUSH2 0x2F7 JUMP JUMPDEST SWAP2 POP POP SWAP3 POP SWAP3 SWAP1 POP JUMP JUMPDEST PUSH2 0x3EF DUP2 PUSH2 0x552 JUMP JUMPDEST DUP3 MSTORE POP POP JUMP JUMPDEST PUSH2 0x3FE DUP2 PUSH2 0x590 JUMP JUMPDEST DUP3 MSTORE POP POP JUMP JUMPDEST PUSH1 0x0 PUSH1 0x20 DUP3 ADD SWAP1 POP PUSH2 0x419 PUSH1 0x0 DUP4 ADD DUP5 PUSH2 0x3E6 JUMP JUMPDEST SWAP3 SWAP2 POP POP JUMP JUMPDEST PUSH1 0x0 PUSH1 0x60 DUP3 ADD SWAP1 POP PUSH2 0x434 PUSH1 0x0 DUP4 ADD DUP7 PUSH2 0x3E6 JUMP JUMPDEST PUSH2 0x441 PUSH1 0x20 DUP4 ADD DUP6 PUSH2 0x3E6 JUMP JUMPDEST PUSH2 0x44E PUSH1 0x40 DUP4 ADD DUP5 PUSH2 0x3F5 JUMP JUMPDEST SWAP5 SWAP4 POP POP POP POP JUMP JUMPDEST PUSH1 0x0 PUSH1 0x20 DUP3 ADD SWAP1 POP PUSH2 0x46B PUSH1 0x0 DUP4 ADD DUP5 PUSH2 0x3F5 JUMP JUMPDEST SWAP3 SWAP2 POP POP JUMP JUMPDEST PUSH1 0x0 PUSH2 0x47C DUP3 PUSH2 0x590 JUMP JUMPDEST SWAP2 POP PUSH2 0x487 DUP4 PUSH2 0x590 JUMP JUMPDEST SWAP3 POP DUP3 PUSH32 0xFFFFFFFFFFFFFFFFFFFFFFFFFFFFFFFFFFFFFFFFFFFFFFFFFFFFFFFFFFFFFFFF SUB DUP3 GT ISZERO PUSH2 0x4BC JUMPI PUSH2 0x4BB PUSH2 0x59A JUMP JUMPDEST JUMPDEST DUP3 DUP3 ADD SWAP1 POP SWAP3 SWAP2 POP POP JUMP JUMPDEST PUSH1 0x0 PUSH2 0x4D2 DUP3 PUSH2 0x590 JUMP JUMPDEST SWAP2 POP PUSH2 0x4DD DUP4 PUSH2 0x590 JUMP JUMPDEST SWAP3 POP DUP3 PUSH2 0x4ED JUMPI PUSH2 0x4EC PUSH2 0x5C9 JUMP JUMPDEST JUMPDEST DUP3 DUP3 DIV SWAP1 POP SWAP3 SWAP2 POP POP JUMP JUMPDEST PUSH1 0x0 PUSH2 0x503 DUP3 PUSH2 0x590 JUMP JUMPDEST SWAP2 POP PUSH2 0x50E DUP4 PUSH2 0x590 JUMP JUMPDEST SWAP3 POP DUP2 PUSH32 0xFFFFFFFFFFFFFFFFFFFFFFFFFFFFFFFFFFFFFFFFFFFFFFFFFFFFFFFFFFFFFFFF DIV DUP4 GT DUP3 ISZERO ISZERO AND ISZERO PUSH2 0x547 JUMPI PUSH2 0x546 PUSH2 0x59A JUMP JUMPDEST JUMPDEST DUP3 DUP3 MUL SWAP1 POP SWAP3 SWAP2 POP POP JUMP JUMPDEST PUSH1 0x0 PUSH2 0x55D DUP3 PUSH2 0x570 JUMP JUMPDEST SWAP1 POP SWAP2 SWAP1 POP JUMP JUMPDEST PUSH1 0x0 DUP2 ISZERO ISZERO SWAP1 POP SWAP2 SWAP1 POP JUMP JUMPDEST PUSH1 0x0 PUSH20 0xFFFFFFFFFFFFFFFFFFFFFFFFFFFFFFFFFFFFFFFF DUP3 AND SWAP1 POP SWAP2 SWAP1 POP JUMP JUMPDEST PUSH1 0x0 DUP2 SWAP1 POP SWAP2 SWAP1 POP JUMP JUMPDEST PUSH32 0x4E487B7100000000000000000000000000000000000000000000000000000000 PUSH1 0x0 MSTORE PUSH1 0x11 PUSH1 0x4 MSTORE PUSH1 0x24 PUSH1 0x0 REVERT JUMPDEST PUSH32 0x4E487B7100000000000000000000000000000000000000000000000000000000 PUSH1 0x0 MSTORE PUSH1 0x12 PUSH1 0x4 MSTORE PUSH1 0x24 PUSH1 0x0 REVERT JUMPDEST PUSH1 0x0 DUP1 REVERT JUMPDEST PUSH2 0x606 DUP2 PUSH2 0x552 JUMP JUMPDEST DUP2 EQ PUSH2 0x611 JUMPI PUSH1 0x0 DUP1 REVERT JUMPDEST POP JUMP JUMPDEST PUSH2 0x61D DUP2 PUSH2 0x564 JUMP JUMPDEST DUP2 EQ PUSH2 0x628 JUMPI PUSH1 0x0 DUP1 REVERT JUMPDEST POP JUMP JUMPDEST PUSH2 0x634 DUP2 PUSH2 0x590 JUMP JUMPDEST DUP2 EQ PUSH2 0x63F JUMPI PUSH1 0x0 DUP1 REVERT JUMPDEST POP JUMP INVALID LOG2 PUSH5 0x6970667358 0x22 SLT KECCAK256 0xD9 EXTCODECOPY 0xC5 DIFFICULTY 0xC9 0xC2 CALLDATASIZE RETURN SWAP11 SELFBALANCE ADD PUSH22 0x8BBE35D0577FB6758343E861DF9B944EB8DD62CC6473 PUSH16 0x6C634300080700330000000000000000 "
				},
				"gasEstimates": {
					"creation": {
						"codeDepositCost": "331200",
						"executionCost": "51747",
						"totalCost": "382947"
					},
					"external": {
						"_balance(address)": "2880",
						"axsToken()": "2492",
						"launch(uint256,uint256)": "infinite",
						"price()": "2473",
						"sale(address,uint256)": "infinite"
					}
				},
				"methodIdentifiers": {
					"_balance(address)": "d3aceae2",
					"axsToken()": "180dc0ac",
					"launch(uint256,uint256)": "82760cd2",
					"price()": "a035b1fe",
					"sale(address,uint256)": "611efc09"
				}
			},
			"storageLayout": {
				"storage": [
					{
						"astId": 87,
						"contract": "TokenSell.sol:Tokensell",
						"label": "price",
						"offset": 0,
						"slot": "0",
						"type": "t_uint256"
					},
					{
						"astId": 90,
						"contract": "TokenSell.sol:Tokensell",
						"label": "userbalance",
						"offset": 0,
						"slot": "1",
						"type": "t_uint256"
					},
					{
						"astId": 92,
						"contract": "TokenSell.sol:Tokensell",
						"label": "starttime",
						"offset": 0,
						"slot": "2",
						"type": "t_uint256"
					},
					{
						"astId": 94,
						"contract": "TokenSell.sol:Tokensell",
						"label": "endtime",
						"offset": 0,
						"slot": "3",
						"type": "t_uint256"
					},
					{
						"astId": 97,
						"contract": "TokenSell.sol:Tokensell",
						"label": "axsToken",
						"offset": 0,
						"slot": "4",
						"type": "t_address"
					},
					{
						"astId": 101,
						"contract": "TokenSell.sol:Tokensell",
						"label": "_balance",
						"offset": 0,
						"slot": "5",
						"type": "t_mapping(t_address,t_uint256)"
					}
				],
				"types": {
					"t_address": {
						"encoding": "inplace",
						"label": "address",
						"numberOfBytes": "20"
					},
					"t_mapping(t_address,t_uint256)": {
						"encoding": "mapping",
						"key": "t_address",
						"label": "mapping(address => uint256)",
						"numberOfBytes": "32",
						"value": "t_uint256"
					},
					"t_uint256": {
						"encoding": "inplace",
						"label": "uint256",
						"numberOfBytes": "32"
					}
				}
			},
			"userdoc": {
				"kind": "user",
				"methods": {},
				"version": 1
			}
		}
	}
}