{
	"TokenSell.sol": {
		"Tokensell": {
			"abi": [
				{
					"inputs": [
						{
							"internalType": "uint256",
							"name": "timeRuns",
							"type": "uint256"
						}
					],
					"stateMutability": "nonpayable",
					"type": "constructor"
				},
				{
					"inputs": [],
					"name": "axsToken",
					"outputs": [
						{
							"internalType": "address",
							"name": "",
							"type": "address"
						}
					],
					"stateMutability": "view",
					"type": "function"
				},
				{
					"inputs": [],
					"name": "endTime",
					"outputs": [
						{
							"internalType": "uint256",
							"name": "",
							"type": "uint256"
						}
					],
					"stateMutability": "view",
					"type": "function"
				},
				{
					"inputs": [],
					"name": "now",
					"outputs": [
						{
							"internalType": "uint256",
							"name": "",
							"type": "uint256"
						}
					],
					"stateMutability": "view",
					"type": "function"
				},
				{
					"inputs": [],
					"name": "receiveUSDT",
					"outputs": [],
					"stateMutability": "payable",
					"type": "function"
				},
				{
					"inputs": [],
					"name": "startTime",
					"outputs": [
						{
							"internalType": "uint256",
							"name": "",
							"type": "uint256"
						}
					],
					"stateMutability": "view",
					"type": "function"
				}
			],
			"devdoc": {
				"kind": "dev",
				"methods": {},
				"version": 1
			},
			"evm": {
				"assembly": "    /* \"TokenSell.sol\":125:743  contract Tokensell{\r... */\n  mstore(0x40, 0x80)\n    /* \"TokenSell.sol\":240:249  1 minutes */\n  0x3c\n    /* \"TokenSell.sol\":222:237  block.timestamp */\n  timestamp\n    /* \"TokenSell.sol\":222:249  block.timestamp * 1 minutes */\n  tag_1\n  swap2\n  swap1\n  tag_2\n  jump\t// in\ntag_1:\n    /* \"TokenSell.sol\":204:249  uint public now = block.timestamp * 1 minutes */\n  0x02\n  sstore\n    /* \"TokenSell.sol\":288:330  0x0aa7726bc0cB085A3C4fbE3B09b91DD7E27f7fea */\n  0x0aa7726bc0cb085a3c4fbe3b09b91dd7e27f7fea\n    /* \"TokenSell.sol\":262:330  address public axsToken = 0x0aa7726bc0cB085A3C4fbE3B09b91DD7E27f7fea */\n  0x03\n  exp(0x0100, 0x00)\n  dup2\n  sload\n  dup2\n  0xffffffffffffffffffffffffffffffffffffffff\n  mul\n  not\n  and\n  swap1\n  dup4\n  0xffffffffffffffffffffffffffffffffffffffff\n  and\n  mul\n  or\n  swap1\n  sstore\n  pop\n    /* \"TokenSell.sol\":339:503  constructor(uint timeRuns) public{\r... */\n  callvalue\n  dup1\n  iszero\n  tag_3\n  jumpi\n  0x00\n  dup1\n  revert\ntag_3:\n  pop\n  mload(0x40)\n  sub(codesize, bytecodeSize)\n  dup1\n  bytecodeSize\n  dup4\n  codecopy\n  dup2\n  dup2\n  add\n  0x40\n  mstore\n  dup2\n  add\n  swap1\n  tag_4\n  swap2\n  swap1\n  tag_5\n  jump\t// in\ntag_4:\n    /* \"TokenSell.sol\":424:433  1 minutes */\n  0x3c\n    /* \"TokenSell.sol\":413:421  timeRuns */\n  dup2\n    /* \"TokenSell.sol\":413:433  timeRuns * 1 minutes */\n  tag_8\n  swap2\n  swap1\n  tag_2\n  jump\t// in\ntag_8:\n    /* \"TokenSell.sol\":395:410  block.timestamp */\n  timestamp\n    /* \"TokenSell.sol\":395:433  block.timestamp + timeRuns * 1 minutes */\n  tag_9\n  swap2\n  swap1\n  tag_10\n  jump\t// in\ntag_9:\n    /* \"TokenSell.sol\":383:392  startTime */\n  0x00\n    /* \"TokenSell.sol\":383:433  startTime = block.timestamp + timeRuns * 1 minutes */\n  dup2\n  swap1\n  sstore\n  pop\n    /* \"TokenSell.sol\":484:493  1 minutes */\n  0x3c\n    /* \"TokenSell.sol\":473:481  timeRuns */\n  dup2\n    /* \"TokenSell.sol\":473:493  timeRuns * 1 minutes */\n  tag_11\n  swap2\n  swap1\n  tag_2\n  jump\t// in\ntag_11:\n    /* \"TokenSell.sol\":455:470  block.timestamp */\n  timestamp\n    /* \"TokenSell.sol\":455:493  block.timestamp + timeRuns * 1 minutes */\n  tag_12\n  swap2\n  swap1\n  tag_10\n  jump\t// in\ntag_12:\n    /* \"TokenSell.sol\":445:452  endTime */\n  0x01\n    /* \"TokenSell.sol\":445:493  endTime = block.timestamp + timeRuns * 1 minutes */\n  dup2\n  swap1\n  sstore\n  pop\n    /* \"TokenSell.sol\":339:503  constructor(uint timeRuns) public{\r... */\n  pop\n    /* \"TokenSell.sol\":125:743  contract Tokensell{\r... */\n  jump(tag_13)\n    /* \"#utility.yul\":7:150   */\ntag_15:\n    /* \"#utility.yul\":64:69   */\n  0x00\n    /* \"#utility.yul\":95:101   */\n  dup2\n    /* \"#utility.yul\":89:102   */\n  mload\n    /* \"#utility.yul\":80:102   */\n  swap1\n  pop\n    /* \"#utility.yul\":111:144   */\n  tag_17\n    /* \"#utility.yul\":138:143   */\n  dup2\n    /* \"#utility.yul\":111:144   */\n  tag_18\n  jump\t// in\ntag_17:\n    /* \"#utility.yul\":7:150   */\n  swap3\n  swap2\n  pop\n  pop\n  jump\t// out\n    /* \"#utility.yul\":156:507   */\ntag_5:\n    /* \"#utility.yul\":226:232   */\n  0x00\n    /* \"#utility.yul\":275:277   */\n  0x20\n    /* \"#utility.yul\":263:272   */\n  dup3\n    /* \"#utility.yul\":254:261   */\n  dup5\n    /* \"#utility.yul\":250:273   */\n  sub\n    /* \"#utility.yul\":246:278   */\n  slt\n    /* \"#utility.yul\":243:362   */\n  iszero\n  tag_20\n  jumpi\n    /* \"#utility.yul\":281:360   */\n  tag_21\n  tag_22\n  jump\t// in\ntag_21:\n    /* \"#utility.yul\":243:362   */\ntag_20:\n    /* \"#utility.yul\":401:402   */\n  0x00\n    /* \"#utility.yul\":426:490   */\n  tag_23\n    /* \"#utility.yul\":482:489   */\n  dup5\n    /* \"#utility.yul\":473:479   */\n  dup3\n    /* \"#utility.yul\":462:471   */\n  dup6\n    /* \"#utility.yul\":458:480   */\n  add\n    /* \"#utility.yul\":426:490   */\n  tag_15\n  jump\t// in\ntag_23:\n    /* \"#utility.yul\":416:490   */\n  swap2\n  pop\n    /* \"#utility.yul\":372:500   */\n  pop\n    /* \"#utility.yul\":156:507   */\n  swap3\n  swap2\n  pop\n  pop\n  jump\t// out\n    /* \"#utility.yul\":594:899   */\ntag_10:\n    /* \"#utility.yul\":634:637   */\n  0x00\n    /* \"#utility.yul\":653:673   */\n  tag_27\n    /* \"#utility.yul\":671:672   */\n  dup3\n    /* \"#utility.yul\":653:673   */\n  tag_28\n  jump\t// in\ntag_27:\n    /* \"#utility.yul\":648:673   */\n  swap2\n  pop\n    /* \"#utility.yul\":687:707   */\n  tag_29\n    /* \"#utility.yul\":705:706   */\n  dup4\n    /* \"#utility.yul\":687:707   */\n  tag_28\n  jump\t// in\ntag_29:\n    /* \"#utility.yul\":682:707   */\n  swap3\n  pop\n    /* \"#utility.yul\":841:842   */\n  dup3\n    /* \"#utility.yul\":773:839   */\n  0xffffffffffffffffffffffffffffffffffffffffffffffffffffffffffffffff\n    /* \"#utility.yul\":769:843   */\n  sub\n    /* \"#utility.yul\":766:767   */\n  dup3\n    /* \"#utility.yul\":763:844   */\n  gt\n    /* \"#utility.yul\":760:867   */\n  iszero\n  tag_30\n  jumpi\n    /* \"#utility.yul\":847:865   */\n  tag_31\n  tag_32\n  jump\t// in\ntag_31:\n    /* \"#utility.yul\":760:867   */\ntag_30:\n    /* \"#utility.yul\":891:892   */\n  dup3\n    /* \"#utility.yul\":888:889   */\n  dup3\n    /* \"#utility.yul\":884:893   */\n  add\n    /* \"#utility.yul\":877:893   */\n  swap1\n  pop\n    /* \"#utility.yul\":594:899   */\n  swap3\n  swap2\n  pop\n  pop\n  jump\t// out\n    /* \"#utility.yul\":905:1253   */\ntag_2:\n    /* \"#utility.yul\":945:952   */\n  0x00\n    /* \"#utility.yul\":968:988   */\n  tag_34\n    /* \"#utility.yul\":986:987   */\n  dup3\n    /* \"#utility.yul\":968:988   */\n  tag_28\n  jump\t// in\ntag_34:\n    /* \"#utility.yul\":963:988   */\n  swap2\n  pop\n    /* \"#utility.yul\":1002:1022   */\n  tag_35\n    /* \"#utility.yul\":1020:1021   */\n  dup4\n    /* \"#utility.yul\":1002:1022   */\n  tag_28\n  jump\t// in\ntag_35:\n    /* \"#utility.yul\":997:1022   */\n  swap3\n  pop\n    /* \"#utility.yul\":1190:1191   */\n  dup2\n    /* \"#utility.yul\":1122:1188   */\n  0xffffffffffffffffffffffffffffffffffffffffffffffffffffffffffffffff\n    /* \"#utility.yul\":1118:1192   */\n  div\n    /* \"#utility.yul\":1115:1116   */\n  dup4\n    /* \"#utility.yul\":1112:1193   */\n  gt\n    /* \"#utility.yul\":1107:1108   */\n  dup3\n    /* \"#utility.yul\":1100:1109   */\n  iszero\n    /* \"#utility.yul\":1093:1110   */\n  iszero\n    /* \"#utility.yul\":1089:1194   */\n  and\n    /* \"#utility.yul\":1086:1217   */\n  iszero\n  tag_36\n  jumpi\n    /* \"#utility.yul\":1197:1215   */\n  tag_37\n  tag_32\n  jump\t// in\ntag_37:\n    /* \"#utility.yul\":1086:1217   */\ntag_36:\n    /* \"#utility.yul\":1245:1246   */\n  dup3\n    /* \"#utility.yul\":1242:1243   */\n  dup3\n    /* \"#utility.yul\":1238:1247   */\n  mul\n    /* \"#utility.yul\":1227:1247   */\n  swap1\n  pop\n    /* \"#utility.yul\":905:1253   */\n  swap3\n  swap2\n  pop\n  pop\n  jump\t// out\n    /* \"#utility.yul\":1259:1336   */\ntag_28:\n    /* \"#utility.yul\":1296:1303   */\n  0x00\n    /* \"#utility.yul\":1325:1330   */\n  dup2\n    /* \"#utility.yul\":1314:1330   */\n  swap1\n  pop\n    /* \"#utility.yul\":1259:1336   */\n  swap2\n  swap1\n  pop\n  jump\t// out\n    /* \"#utility.yul\":1342:1522   */\ntag_32:\n    /* \"#utility.yul\":1390:1467   */\n  0x4e487b7100000000000000000000000000000000000000000000000000000000\n    /* \"#utility.yul\":1387:1388   */\n  0x00\n    /* \"#utility.yul\":1380:1468   */\n  mstore\n    /* \"#utility.yul\":1487:1491   */\n  0x11\n    /* \"#utility.yul\":1484:1485   */\n  0x04\n    /* \"#utility.yul\":1477:1492   */\n  mstore\n    /* \"#utility.yul\":1511:1515   */\n  0x24\n    /* \"#utility.yul\":1508:1509   */\n  0x00\n    /* \"#utility.yul\":1501:1516   */\n  revert\n    /* \"#utility.yul\":1651:1768   */\ntag_22:\n    /* \"#utility.yul\":1760:1761   */\n  0x00\n    /* \"#utility.yul\":1757:1758   */\n  dup1\n    /* \"#utility.yul\":1750:1762   */\n  revert\n    /* \"#utility.yul\":1774:1896   */\ntag_18:\n    /* \"#utility.yul\":1847:1871   */\n  tag_44\n    /* \"#utility.yul\":1865:1870   */\n  dup2\n    /* \"#utility.yul\":1847:1871   */\n  tag_28\n  jump\t// in\ntag_44:\n    /* \"#utility.yul\":1840:1845   */\n  dup2\n    /* \"#utility.yul\":1837:1872   */\n  eq\n    /* \"#utility.yul\":1827:1890   */\n  tag_45\n  jumpi\n    /* \"#utility.yul\":1886:1887   */\n  0x00\n    /* \"#utility.yul\":1883:1884   */\n  dup1\n    /* \"#utility.yul\":1876:1888   */\n  revert\n    /* \"#utility.yul\":1827:1890   */\ntag_45:\n    /* \"#utility.yul\":1774:1896   */\n  pop\n  jump\t// out\n    /* \"TokenSell.sol\":125:743  contract Tokensell{\r... */\ntag_13:\n  dataSize(sub_0)\n  dup1\n  dataOffset(sub_0)\n  0x00\n  codecopy\n  0x00\n  return\nstop\n\nsub_0: assembly {\n        /* \"TokenSell.sol\":125:743  contract Tokensell{\r... */\n      mstore(0x40, 0x80)\n      jumpi(tag_1, lt(calldatasize, 0x04))\n      shr(0xe0, calldataload(0x00))\n      dup1\n      0x180dc0ac\n      eq\n      tag_2\n      jumpi\n      dup1\n      0x3197cbb6\n      eq\n      tag_3\n      jumpi\n      dup1\n      0x55cf0a69\n      eq\n      tag_4\n      jumpi\n      dup1\n      0x78e97925\n      eq\n      tag_5\n      jumpi\n      dup1\n      0x8abe09f2\n      eq\n      tag_6\n      jumpi\n    tag_1:\n      0x00\n      dup1\n      revert\n        /* \"TokenSell.sol\":262:330  address public axsToken = 0x0aa7726bc0cB085A3C4fbE3B09b91DD7E27f7fea */\n    tag_2:\n      callvalue\n      dup1\n      iszero\n      tag_7\n      jumpi\n      0x00\n      dup1\n      revert\n    tag_7:\n      pop\n      tag_8\n      tag_9\n      jump\t// in\n    tag_8:\n      mload(0x40)\n      tag_10\n      swap2\n      swap1\n      tag_11\n      jump\t// in\n    tag_10:\n      mload(0x40)\n      dup1\n      swap2\n      sub\n      swap1\n      return\n        /* \"TokenSell.sol\":178:197  uint public endTime */\n    tag_3:\n      callvalue\n      dup1\n      iszero\n      tag_12\n      jumpi\n      0x00\n      dup1\n      revert\n    tag_12:\n      pop\n      tag_13\n      tag_14\n      jump\t// in\n    tag_13:\n      mload(0x40)\n      tag_15\n      swap2\n      swap1\n      tag_16\n      jump\t// in\n    tag_15:\n      mload(0x40)\n      dup1\n      swap2\n      sub\n      swap1\n      return\n        /* \"TokenSell.sol\":513:740  function receiveUSDT() public payable{\r... */\n    tag_4:\n      tag_17\n      tag_18\n      jump\t// in\n    tag_17:\n      stop\n        /* \"TokenSell.sol\":150:171  uint public startTime */\n    tag_5:\n      callvalue\n      dup1\n      iszero\n      tag_19\n      jumpi\n      0x00\n      dup1\n      revert\n    tag_19:\n      pop\n      tag_20\n      tag_21\n      jump\t// in\n    tag_20:\n      mload(0x40)\n      tag_22\n      swap2\n      swap1\n      tag_16\n      jump\t// in\n    tag_22:\n      mload(0x40)\n      dup1\n      swap2\n      sub\n      swap1\n      return\n        /* \"TokenSell.sol\":204:249  uint public now = block.timestamp * 1 minutes */\n    tag_6:\n      callvalue\n      dup1\n      iszero\n      tag_23\n      jumpi\n      0x00\n      dup1\n      revert\n    tag_23:\n      pop\n      tag_24\n      tag_25\n      jump\t// in\n    tag_24:\n      mload(0x40)\n      tag_26\n      swap2\n      swap1\n      tag_16\n      jump\t// in\n    tag_26:\n      mload(0x40)\n      dup1\n      swap2\n      sub\n      swap1\n      return\n        /* \"TokenSell.sol\":262:330  address public axsToken = 0x0aa7726bc0cB085A3C4fbE3B09b91DD7E27f7fea */\n    tag_9:\n      0x03\n      0x00\n      swap1\n      sload\n      swap1\n      0x0100\n      exp\n      swap1\n      div\n      0xffffffffffffffffffffffffffffffffffffffff\n      and\n      dup2\n      jump\t// out\n        /* \"TokenSell.sol\":178:197  uint public endTime */\n    tag_14:\n      sload(0x01)\n      dup2\n      jump\t// out\n        /* \"TokenSell.sol\":513:740  function receiveUSDT() public payable{\r... */\n    tag_18:\n        /* \"TokenSell.sol\":581:588  endTime */\n      sload(0x01)\n        /* \"TokenSell.sol\":569:578  startTime */\n      sload(0x00)\n        /* \"TokenSell.sol\":569:588  startTime < endTime */\n      lt\n        /* \"TokenSell.sol\":561:589  require(startTime < endTime) */\n      tag_28\n      jumpi\n      0x00\n      dup1\n      revert\n    tag_28:\n        /* \"TokenSell.sol\":626:633  endTime */\n      sload(0x01)\n        /* \"TokenSell.sol\":608:623  block.timestamp */\n      timestamp\n        /* \"TokenSell.sol\":608:633  block.timestamp < endTime */\n      lt\n        /* \"TokenSell.sol\":600:634  require(block.timestamp < endTime) */\n      tag_29\n      jumpi\n      0x00\n      dup1\n      revert\n    tag_29:\n        /* \"TokenSell.sol\":665:666  0 */\n      0x00\n        /* \"TokenSell.sol\":653:662  msg.value */\n      callvalue\n        /* \"TokenSell.sol\":653:666  msg.value > 0 */\n      gt\n        /* \"TokenSell.sol\":645:667  require(msg.value > 0) */\n      tag_30\n      jumpi\n      0x00\n      dup1\n      revert\n    tag_30:\n        /* \"TokenSell.sol\":685:693  axsToken */\n      0x03\n      0x00\n      swap1\n      sload\n      swap1\n      0x0100\n      exp\n      swap1\n      div\n      0xffffffffffffffffffffffffffffffffffffffff\n      and\n        /* \"TokenSell.sol\":678:703  IERC20(axsToken).transfer */\n      0xffffffffffffffffffffffffffffffffffffffff\n      and\n      0xa9059cbb\n        /* \"TokenSell.sol\":704:714  msg.sender */\n      caller\n        /* \"TokenSell.sol\":728:731  100 */\n      0x64\n        /* \"TokenSell.sol\":716:725  msg.value */\n      callvalue\n        /* \"TokenSell.sol\":716:731  msg.value * 100 */\n      tag_31\n      swap2\n      swap1\n      tag_32\n      jump\t// in\n    tag_31:\n        /* \"TokenSell.sol\":678:732  IERC20(axsToken).transfer(msg.sender, msg.value * 100) */\n      mload(0x40)\n      dup4\n      0xffffffff\n      and\n      0xe0\n      shl\n      dup2\n      mstore\n      0x04\n      add\n      tag_33\n      swap3\n      swap2\n      swap1\n      tag_34\n      jump\t// in\n    tag_33:\n      0x20\n      mload(0x40)\n      dup1\n      dup4\n      sub\n      dup2\n      0x00\n      dup8\n      dup1\n      extcodesize\n      iszero\n      dup1\n      iszero\n      tag_35\n      jumpi\n      0x00\n      dup1\n      revert\n    tag_35:\n      pop\n      gas\n      call\n      iszero\n      dup1\n      iszero\n      tag_37\n      jumpi\n      returndatasize\n      0x00\n      dup1\n      returndatacopy\n      revert(0x00, returndatasize)\n    tag_37:\n      pop\n      pop\n      pop\n      pop\n      mload(0x40)\n      returndatasize\n      not(0x1f)\n      0x1f\n      dup3\n      add\n      and\n      dup3\n      add\n      dup1\n      0x40\n      mstore\n      pop\n      dup2\n      add\n      swap1\n      tag_38\n      swap2\n      swap1\n      tag_39\n      jump\t// in\n    tag_38:\n      pop\n        /* \"TokenSell.sol\":513:740  function receiveUSDT() public payable{\r... */\n      jump\t// out\n        /* \"TokenSell.sol\":150:171  uint public startTime */\n    tag_21:\n      sload(0x00)\n      dup2\n      jump\t// out\n        /* \"TokenSell.sol\":204:249  uint public now = block.timestamp * 1 minutes */\n    tag_25:\n      sload(0x02)\n      dup2\n      jump\t// out\n        /* \"#utility.yul\":7:144   */\n    tag_41:\n        /* \"#utility.yul\":61:66   */\n      0x00\n        /* \"#utility.yul\":92:98   */\n      dup2\n        /* \"#utility.yul\":86:99   */\n      mload\n        /* \"#utility.yul\":77:99   */\n      swap1\n      pop\n        /* \"#utility.yul\":108:138   */\n      tag_43\n        /* \"#utility.yul\":132:137   */\n      dup2\n        /* \"#utility.yul\":108:138   */\n      tag_44\n      jump\t// in\n    tag_43:\n        /* \"#utility.yul\":7:144   */\n      swap3\n      swap2\n      pop\n      pop\n      jump\t// out\n        /* \"#utility.yul\":150:495   */\n    tag_39:\n        /* \"#utility.yul\":217:223   */\n      0x00\n        /* \"#utility.yul\":266:268   */\n      0x20\n        /* \"#utility.yul\":254:263   */\n      dup3\n        /* \"#utility.yul\":245:252   */\n      dup5\n        /* \"#utility.yul\":241:264   */\n      sub\n        /* \"#utility.yul\":237:269   */\n      slt\n        /* \"#utility.yul\":234:353   */\n      iszero\n      tag_46\n      jumpi\n        /* \"#utility.yul\":272:351   */\n      tag_47\n      tag_48\n      jump\t// in\n    tag_47:\n        /* \"#utility.yul\":234:353   */\n    tag_46:\n        /* \"#utility.yul\":392:393   */\n      0x00\n        /* \"#utility.yul\":417:478   */\n      tag_49\n        /* \"#utility.yul\":470:477   */\n      dup5\n        /* \"#utility.yul\":461:467   */\n      dup3\n        /* \"#utility.yul\":450:459   */\n      dup6\n        /* \"#utility.yul\":446:468   */\n      add\n        /* \"#utility.yul\":417:478   */\n      tag_41\n      jump\t// in\n    tag_49:\n        /* \"#utility.yul\":407:478   */\n      swap2\n      pop\n        /* \"#utility.yul\":363:488   */\n      pop\n        /* \"#utility.yul\":150:495   */\n      swap3\n      swap2\n      pop\n      pop\n      jump\t// out\n        /* \"#utility.yul\":501:619   */\n    tag_50:\n        /* \"#utility.yul\":588:612   */\n      tag_52\n        /* \"#utility.yul\":606:611   */\n      dup2\n        /* \"#utility.yul\":588:612   */\n      tag_53\n      jump\t// in\n    tag_52:\n        /* \"#utility.yul\":583:586   */\n      dup3\n        /* \"#utility.yul\":576:613   */\n      mstore\n        /* \"#utility.yul\":501:619   */\n      pop\n      pop\n      jump\t// out\n        /* \"#utility.yul\":625:743   */\n    tag_54:\n        /* \"#utility.yul\":712:736   */\n      tag_56\n        /* \"#utility.yul\":730:735   */\n      dup2\n        /* \"#utility.yul\":712:736   */\n      tag_57\n      jump\t// in\n    tag_56:\n        /* \"#utility.yul\":707:710   */\n      dup3\n        /* \"#utility.yul\":700:737   */\n      mstore\n        /* \"#utility.yul\":625:743   */\n      pop\n      pop\n      jump\t// out\n        /* \"#utility.yul\":749:971   */\n    tag_11:\n        /* \"#utility.yul\":842:846   */\n      0x00\n        /* \"#utility.yul\":880:882   */\n      0x20\n        /* \"#utility.yul\":869:878   */\n      dup3\n        /* \"#utility.yul\":865:883   */\n      add\n        /* \"#utility.yul\":857:883   */\n      swap1\n      pop\n        /* \"#utility.yul\":893:964   */\n      tag_59\n        /* \"#utility.yul\":961:962   */\n      0x00\n        /* \"#utility.yul\":950:959   */\n      dup4\n        /* \"#utility.yul\":946:963   */\n      add\n        /* \"#utility.yul\":937:943   */\n      dup5\n        /* \"#utility.yul\":893:964   */\n      tag_50\n      jump\t// in\n    tag_59:\n        /* \"#utility.yul\":749:971   */\n      swap3\n      swap2\n      pop\n      pop\n      jump\t// out\n        /* \"#utility.yul\":977:1309   */\n    tag_34:\n        /* \"#utility.yul\":1098:1102   */\n      0x00\n        /* \"#utility.yul\":1136:1138   */\n      0x40\n        /* \"#utility.yul\":1125:1134   */\n      dup3\n        /* \"#utility.yul\":1121:1139   */\n      add\n        /* \"#utility.yul\":1113:1139   */\n      swap1\n      pop\n        /* \"#utility.yul\":1149:1220   */\n      tag_61\n        /* \"#utility.yul\":1217:1218   */\n      0x00\n        /* \"#utility.yul\":1206:1215   */\n      dup4\n        /* \"#utility.yul\":1202:1219   */\n      add\n        /* \"#utility.yul\":1193:1199   */\n      dup6\n        /* \"#utility.yul\":1149:1220   */\n      tag_50\n      jump\t// in\n    tag_61:\n        /* \"#utility.yul\":1230:1302   */\n      tag_62\n        /* \"#utility.yul\":1298:1300   */\n      0x20\n        /* \"#utility.yul\":1287:1296   */\n      dup4\n        /* \"#utility.yul\":1283:1301   */\n      add\n        /* \"#utility.yul\":1274:1280   */\n      dup5\n        /* \"#utility.yul\":1230:1302   */\n      tag_54\n      jump\t// in\n    tag_62:\n        /* \"#utility.yul\":977:1309   */\n      swap4\n      swap3\n      pop\n      pop\n      pop\n      jump\t// out\n        /* \"#utility.yul\":1315:1537   */\n    tag_16:\n        /* \"#utility.yul\":1408:1412   */\n      0x00\n        /* \"#utility.yul\":1446:1448   */\n      0x20\n        /* \"#utility.yul\":1435:1444   */\n      dup3\n        /* \"#utility.yul\":1431:1449   */\n      add\n        /* \"#utility.yul\":1423:1449   */\n      swap1\n      pop\n        /* \"#utility.yul\":1459:1530   */\n      tag_64\n        /* \"#utility.yul\":1527:1528   */\n      0x00\n        /* \"#utility.yul\":1516:1525   */\n      dup4\n        /* \"#utility.yul\":1512:1529   */\n      add\n        /* \"#utility.yul\":1503:1509   */\n      dup5\n        /* \"#utility.yul\":1459:1530   */\n      tag_54\n      jump\t// in\n    tag_64:\n        /* \"#utility.yul\":1315:1537   */\n      swap3\n      swap2\n      pop\n      pop\n      jump\t// out\n        /* \"#utility.yul\":1624:1972   */\n    tag_32:\n        /* \"#utility.yul\":1664:1671   */\n      0x00\n        /* \"#utility.yul\":1687:1707   */\n      tag_68\n        /* \"#utility.yul\":1705:1706   */\n      dup3\n        /* \"#utility.yul\":1687:1707   */\n      tag_57\n      jump\t// in\n    tag_68:\n        /* \"#utility.yul\":1682:1707   */\n      swap2\n      pop\n        /* \"#utility.yul\":1721:1741   */\n      tag_69\n        /* \"#utility.yul\":1739:1740   */\n      dup4\n        /* \"#utility.yul\":1721:1741   */\n      tag_57\n      jump\t// in\n    tag_69:\n        /* \"#utility.yul\":1716:1741   */\n      swap3\n      pop\n        /* \"#utility.yul\":1909:1910   */\n      dup2\n        /* \"#utility.yul\":1841:1907   */\n      0xffffffffffffffffffffffffffffffffffffffffffffffffffffffffffffffff\n        /* \"#utility.yul\":1837:1911   */\n      div\n        /* \"#utility.yul\":1834:1835   */\n      dup4\n        /* \"#utility.yul\":1831:1912   */\n      gt\n        /* \"#utility.yul\":1826:1827   */\n      dup3\n        /* \"#utility.yul\":1819:1828   */\n      iszero\n        /* \"#utility.yul\":1812:1829   */\n      iszero\n        /* \"#utility.yul\":1808:1913   */\n      and\n        /* \"#utility.yul\":1805:1936   */\n      iszero\n      tag_70\n      jumpi\n        /* \"#utility.yul\":1916:1934   */\n      tag_71\n      tag_72\n      jump\t// in\n    tag_71:\n        /* \"#utility.yul\":1805:1936   */\n    tag_70:\n        /* \"#utility.yul\":1964:1965   */\n      dup3\n        /* \"#utility.yul\":1961:1962   */\n      dup3\n        /* \"#utility.yul\":1957:1966   */\n      mul\n        /* \"#utility.yul\":1946:1966   */\n      swap1\n      pop\n        /* \"#utility.yul\":1624:1972   */\n      swap3\n      swap2\n      pop\n      pop\n      jump\t// out\n        /* \"#utility.yul\":1978:2074   */\n    tag_53:\n        /* \"#utility.yul\":2015:2022   */\n      0x00\n        /* \"#utility.yul\":2044:2068   */\n      tag_74\n        /* \"#utility.yul\":2062:2067   */\n      dup3\n        /* \"#utility.yul\":2044:2068   */\n      tag_75\n      jump\t// in\n    tag_74:\n        /* \"#utility.yul\":2033:2068   */\n      swap1\n      pop\n        /* \"#utility.yul\":1978:2074   */\n      swap2\n      swap1\n      pop\n      jump\t// out\n        /* \"#utility.yul\":2080:2170   */\n    tag_76:\n        /* \"#utility.yul\":2114:2121   */\n      0x00\n        /* \"#utility.yul\":2157:2162   */\n      dup2\n        /* \"#utility.yul\":2150:2163   */\n      iszero\n        /* \"#utility.yul\":2143:2164   */\n      iszero\n        /* \"#utility.yul\":2132:2164   */\n      swap1\n      pop\n        /* \"#utility.yul\":2080:2170   */\n      swap2\n      swap1\n      pop\n      jump\t// out\n        /* \"#utility.yul\":2176:2302   */\n    tag_75:\n        /* \"#utility.yul\":2213:2220   */\n      0x00\n        /* \"#utility.yul\":2253:2295   */\n      0xffffffffffffffffffffffffffffffffffffffff\n        /* \"#utility.yul\":2246:2251   */\n      dup3\n        /* \"#utility.yul\":2242:2296   */\n      and\n        /* \"#utility.yul\":2231:2296   */\n      swap1\n      pop\n        /* \"#utility.yul\":2176:2302   */\n      swap2\n      swap1\n      pop\n      jump\t// out\n        /* \"#utility.yul\":2308:2385   */\n    tag_57:\n        /* \"#utility.yul\":2345:2352   */\n      0x00\n        /* \"#utility.yul\":2374:2379   */\n      dup2\n        /* \"#utility.yul\":2363:2379   */\n      swap1\n      pop\n        /* \"#utility.yul\":2308:2385   */\n      swap2\n      swap1\n      pop\n      jump\t// out\n        /* \"#utility.yul\":2391:2571   */\n    tag_72:\n        /* \"#utility.yul\":2439:2516   */\n      0x4e487b7100000000000000000000000000000000000000000000000000000000\n        /* \"#utility.yul\":2436:2437   */\n      0x00\n        /* \"#utility.yul\":2429:2517   */\n      mstore\n        /* \"#utility.yul\":2536:2540   */\n      0x11\n        /* \"#utility.yul\":2533:2534   */\n      0x04\n        /* \"#utility.yul\":2526:2541   */\n      mstore\n        /* \"#utility.yul\":2560:2564   */\n      0x24\n        /* \"#utility.yul\":2557:2558   */\n      0x00\n        /* \"#utility.yul\":2550:2565   */\n      revert\n        /* \"#utility.yul\":2700:2817   */\n    tag_48:\n        /* \"#utility.yul\":2809:2810   */\n      0x00\n        /* \"#utility.yul\":2806:2807   */\n      dup1\n        /* \"#utility.yul\":2799:2811   */\n      revert\n        /* \"#utility.yul\":2823:2939   */\n    tag_44:\n        /* \"#utility.yul\":2893:2914   */\n      tag_85\n        /* \"#utility.yul\":2908:2913   */\n      dup2\n        /* \"#utility.yul\":2893:2914   */\n      tag_76\n      jump\t// in\n    tag_85:\n        /* \"#utility.yul\":2886:2891   */\n      dup2\n        /* \"#utility.yul\":2883:2915   */\n      eq\n        /* \"#utility.yul\":2873:2933   */\n      tag_86\n      jumpi\n        /* \"#utility.yul\":2929:2930   */\n      0x00\n        /* \"#utility.yul\":2926:2927   */\n      dup1\n        /* \"#utility.yul\":2919:2931   */\n      revert\n        /* \"#utility.yul\":2873:2933   */\n    tag_86:\n        /* \"#utility.yul\":2823:2939   */\n      pop\n      jump\t// out\n\n    auxdata: 0xa26469706673582212201d1a0603ba6b117e9e93c915fb02a0e19372461fad88f176546638fb54fdeb9264736f6c63430008070033\n}\n",
				"bytecode": {
					"linkReferences": {},
					"object": "6080604052603c426100119190610171565b600255730aa7726bc0cb085a3c4fbe3b09b91dd7e27f7fea600360006101000a81548173ffffffffffffffffffffffffffffffffffffffff021916908373ffffffffffffffffffffffffffffffffffffffff16021790555034801561007557600080fd5b50604051610637380380610637833981810160405281019061009791906100ee565b603c816100a49190610171565b426100af919061011b565b600081905550603c816100c29190610171565b426100cd919061011b565b60018190555050610220565b6000815190506100e881610209565b92915050565b60006020828403121561010457610103610204565b5b6000610112848285016100d9565b91505092915050565b6000610126826101cb565b9150610131836101cb565b9250827fffffffffffffffffffffffffffffffffffffffffffffffffffffffffffffffff03821115610166576101656101d5565b5b828201905092915050565b600061017c826101cb565b9150610187836101cb565b9250817fffffffffffffffffffffffffffffffffffffffffffffffffffffffffffffffff04831182151516156101c0576101bf6101d5565b5b828202905092915050565b6000819050919050565b7f4e487b7100000000000000000000000000000000000000000000000000000000600052601160045260246000fd5b600080fd5b610212816101cb565b811461021d57600080fd5b50565b6104088061022f6000396000f3fe60806040526004361061004a5760003560e01c8063180dc0ac1461004f5780633197cbb61461007a57806355cf0a69146100a557806378e97925146100af5780638abe09f2146100da575b600080fd5b34801561005b57600080fd5b50610064610105565b6040516100719190610286565b60405180910390f35b34801561008657600080fd5b5061008f61012b565b60405161009c91906102ca565b60405180910390f35b6100ad610131565b005b3480156100bb57600080fd5b506100c461021a565b6040516100d191906102ca565b60405180910390f35b3480156100e657600080fd5b506100ef610220565b6040516100fc91906102ca565b60405180910390f35b600360009054906101000a900473ffffffffffffffffffffffffffffffffffffffff1681565b60015481565b6001546000541061014157600080fd5b600154421061014f57600080fd5b6000341161015c57600080fd5b600360009054906101000a900473ffffffffffffffffffffffffffffffffffffffff1673ffffffffffffffffffffffffffffffffffffffff1663a9059cbb336064346101a891906102e5565b6040518363ffffffff1660e01b81526004016101c59291906102a1565b602060405180830381600087803b1580156101df57600080fd5b505af11580156101f3573d6000803e3d6000fd5b505050506040513d601f19601f82011682018060405250810190610217919061023b565b50565b60005481565b60025481565b600081519050610235816103bb565b92915050565b600060208284031215610251576102506103b6565b5b600061025f84828501610226565b91505092915050565b6102718161033f565b82525050565b6102808161037d565b82525050565b600060208201905061029b6000830184610268565b92915050565b60006040820190506102b66000830185610268565b6102c36020830184610277565b9392505050565b60006020820190506102df6000830184610277565b92915050565b60006102f08261037d565b91506102fb8361037d565b9250817fffffffffffffffffffffffffffffffffffffffffffffffffffffffffffffffff048311821515161561033457610333610387565b5b828202905092915050565b600061034a8261035d565b9050919050565b60008115159050919050565b600073ffffffffffffffffffffffffffffffffffffffff82169050919050565b6000819050919050565b7f4e487b7100000000000000000000000000000000000000000000000000000000600052601160045260246000fd5b600080fd5b6103c481610351565b81146103cf57600080fd5b5056fea26469706673582212201d1a0603ba6b117e9e93c915fb02a0e19372461fad88f176546638fb54fdeb9264736f6c63430008070033",
					"opcodes": "PUSH1 0x80 PUSH1 0x40 MSTORE PUSH1 0x3C TIMESTAMP PUSH2 0x11 SWAP2 SWAP1 PUSH2 0x171 JUMP JUMPDEST PUSH1 0x2 SSTORE PUSH20 0xAA7726BC0CB085A3C4FBE3B09B91DD7E27F7FEA PUSH1 0x3 PUSH1 0x0 PUSH2 0x100 EXP DUP2 SLOAD DUP2 PUSH20 0xFFFFFFFFFFFFFFFFFFFFFFFFFFFFFFFFFFFFFFFF MUL NOT AND SWAP1 DUP4 PUSH20 0xFFFFFFFFFFFFFFFFFFFFFFFFFFFFFFFFFFFFFFFF AND MUL OR SWAP1 SSTORE POP CALLVALUE DUP1 ISZERO PUSH2 0x75 JUMPI PUSH1 0x0 DUP1 REVERT JUMPDEST POP PUSH1 0x40 MLOAD PUSH2 0x637 CODESIZE SUB DUP1 PUSH2 0x637 DUP4 CODECOPY DUP2 DUP2 ADD PUSH1 0x40 MSTORE DUP2 ADD SWAP1 PUSH2 0x97 SWAP2 SWAP1 PUSH2 0xEE JUMP JUMPDEST PUSH1 0x3C DUP2 PUSH2 0xA4 SWAP2 SWAP1 PUSH2 0x171 JUMP JUMPDEST TIMESTAMP PUSH2 0xAF SWAP2 SWAP1 PUSH2 0x11B JUMP JUMPDEST PUSH1 0x0 DUP2 SWAP1 SSTORE POP PUSH1 0x3C DUP2 PUSH2 0xC2 SWAP2 SWAP1 PUSH2 0x171 JUMP JUMPDEST TIMESTAMP PUSH2 0xCD SWAP2 SWAP1 PUSH2 0x11B JUMP JUMPDEST PUSH1 0x1 DUP2 SWAP1 SSTORE POP POP PUSH2 0x220 JUMP JUMPDEST PUSH1 0x0 DUP2 MLOAD SWAP1 POP PUSH2 0xE8 DUP2 PUSH2 0x209 JUMP JUMPDEST SWAP3 SWAP2 POP POP JUMP JUMPDEST PUSH1 0x0 PUSH1 0x20 DUP3 DUP5 SUB SLT ISZERO PUSH2 0x104 JUMPI PUSH2 0x103 PUSH2 0x204 JUMP JUMPDEST JUMPDEST PUSH1 0x0 PUSH2 0x112 DUP5 DUP3 DUP6 ADD PUSH2 0xD9 JUMP JUMPDEST SWAP2 POP POP SWAP3 SWAP2 POP POP JUMP JUMPDEST PUSH1 0x0 PUSH2 0x126 DUP3 PUSH2 0x1CB JUMP JUMPDEST SWAP2 POP PUSH2 0x131 DUP4 PUSH2 0x1CB JUMP JUMPDEST SWAP3 POP DUP3 PUSH32 0xFFFFFFFFFFFFFFFFFFFFFFFFFFFFFFFFFFFFFFFFFFFFFFFFFFFFFFFFFFFFFFFF SUB DUP3 GT ISZERO PUSH2 0x166 JUMPI PUSH2 0x165 PUSH2 0x1D5 JUMP JUMPDEST JUMPDEST DUP3 DUP3 ADD SWAP1 POP SWAP3 SWAP2 POP POP JUMP JUMPDEST PUSH1 0x0 PUSH2 0x17C DUP3 PUSH2 0x1CB JUMP JUMPDEST SWAP2 POP PUSH2 0x187 DUP4 PUSH2 0x1CB JUMP JUMPDEST SWAP3 POP DUP2 PUSH32 0xFFFFFFFFFFFFFFFFFFFFFFFFFFFFFFFFFFFFFFFFFFFFFFFFFFFFFFFFFFFFFFFF DIV DUP4 GT DUP3 ISZERO ISZERO AND ISZERO PUSH2 0x1C0 JUMPI PUSH2 0x1BF PUSH2 0x1D5 JUMP JUMPDEST JUMPDEST DUP3 DUP3 MUL SWAP1 POP SWAP3 SWAP2 POP POP JUMP JUMPDEST PUSH1 0x0 DUP2 SWAP1 POP SWAP2 SWAP1 POP JUMP JUMPDEST PUSH32 0x4E487B7100000000000000000000000000000000000000000000000000000000 PUSH1 0x0 MSTORE PUSH1 0x11 PUSH1 0x4 MSTORE PUSH1 0x24 PUSH1 0x0 REVERT JUMPDEST PUSH1 0x0 DUP1 REVERT JUMPDEST PUSH2 0x212 DUP2 PUSH2 0x1CB JUMP JUMPDEST DUP2 EQ PUSH2 0x21D JUMPI PUSH1 0x0 DUP1 REVERT JUMPDEST POP JUMP JUMPDEST PUSH2 0x408 DUP1 PUSH2 0x22F PUSH1 0x0 CODECOPY PUSH1 0x0 RETURN INVALID PUSH1 0x80 PUSH1 0x40 MSTORE PUSH1 0x4 CALLDATASIZE LT PUSH2 0x4A JUMPI PUSH1 0x0 CALLDATALOAD PUSH1 0xE0 SHR DUP1 PUSH4 0x180DC0AC EQ PUSH2 0x4F JUMPI DUP1 PUSH4 0x3197CBB6 EQ PUSH2 0x7A JUMPI DUP1 PUSH4 0x55CF0A69 EQ PUSH2 0xA5 JUMPI DUP1 PUSH4 0x78E97925 EQ PUSH2 0xAF JUMPI DUP1 PUSH4 0x8ABE09F2 EQ PUSH2 0xDA JUMPI JUMPDEST PUSH1 0x0 DUP1 REVERT JUMPDEST CALLVALUE DUP1 ISZERO PUSH2 0x5B JUMPI PUSH1 0x0 DUP1 REVERT JUMPDEST POP PUSH2 0x64 PUSH2 0x105 JUMP JUMPDEST PUSH1 0x40 MLOAD PUSH2 0x71 SWAP2 SWAP1 PUSH2 0x286 JUMP JUMPDEST PUSH1 0x40 MLOAD DUP1 SWAP2 SUB SWAP1 RETURN JUMPDEST CALLVALUE DUP1 ISZERO PUSH2 0x86 JUMPI PUSH1 0x0 DUP1 REVERT JUMPDEST POP PUSH2 0x8F PUSH2 0x12B JUMP JUMPDEST PUSH1 0x40 MLOAD PUSH2 0x9C SWAP2 SWAP1 PUSH2 0x2CA JUMP JUMPDEST PUSH1 0x40 MLOAD DUP1 SWAP2 SUB SWAP1 RETURN JUMPDEST PUSH2 0xAD PUSH2 0x131 JUMP JUMPDEST STOP JUMPDEST CALLVALUE DUP1 ISZERO PUSH2 0xBB JUMPI PUSH1 0x0 DUP1 REVERT JUMPDEST POP PUSH2 0xC4 PUSH2 0x21A JUMP JUMPDEST PUSH1 0x40 MLOAD PUSH2 0xD1 SWAP2 SWAP1 PUSH2 0x2CA JUMP JUMPDEST PUSH1 0x40 MLOAD DUP1 SWAP2 SUB SWAP1 RETURN JUMPDEST CALLVALUE DUP1 ISZERO PUSH2 0xE6 JUMPI PUSH1 0x0 DUP1 REVERT JUMPDEST POP PUSH2 0xEF PUSH2 0x220 JUMP JUMPDEST PUSH1 0x40 MLOAD PUSH2 0xFC SWAP2 SWAP1 PUSH2 0x2CA JUMP JUMPDEST PUSH1 0x40 MLOAD DUP1 SWAP2 SUB SWAP1 RETURN JUMPDEST PUSH1 0x3 PUSH1 0x0 SWAP1 SLOAD SWAP1 PUSH2 0x100 EXP SWAP1 DIV PUSH20 0xFFFFFFFFFFFFFFFFFFFFFFFFFFFFFFFFFFFFFFFF AND DUP2 JUMP JUMPDEST PUSH1 0x1 SLOAD DUP2 JUMP JUMPDEST PUSH1 0x1 SLOAD PUSH1 0x0 SLOAD LT PUSH2 0x141 JUMPI PUSH1 0x0 DUP1 REVERT JUMPDEST PUSH1 0x1 SLOAD TIMESTAMP LT PUSH2 0x14F JUMPI PUSH1 0x0 DUP1 REVERT JUMPDEST PUSH1 0x0 CALLVALUE GT PUSH2 0x15C JUMPI PUSH1 0x0 DUP1 REVERT JUMPDEST PUSH1 0x3 PUSH1 0x0 SWAP1 SLOAD SWAP1 PUSH2 0x100 EXP SWAP1 DIV PUSH20 0xFFFFFFFFFFFFFFFFFFFFFFFFFFFFFFFFFFFFFFFF AND PUSH20 0xFFFFFFFFFFFFFFFFFFFFFFFFFFFFFFFFFFFFFFFF AND PUSH4 0xA9059CBB CALLER PUSH1 0x64 CALLVALUE PUSH2 0x1A8 SWAP2 SWAP1 PUSH2 0x2E5 JUMP JUMPDEST PUSH1 0x40 MLOAD DUP4 PUSH4 0xFFFFFFFF AND PUSH1 0xE0 SHL DUP2 MSTORE PUSH1 0x4 ADD PUSH2 0x1C5 SWAP3 SWAP2 SWAP1 PUSH2 0x2A1 JUMP JUMPDEST PUSH1 0x20 PUSH1 0x40 MLOAD DUP1 DUP4 SUB DUP2 PUSH1 0x0 DUP8 DUP1 EXTCODESIZE ISZERO DUP1 ISZERO PUSH2 0x1DF JUMPI PUSH1 0x0 DUP1 REVERT JUMPDEST POP GAS CALL ISZERO DUP1 ISZERO PUSH2 0x1F3 JUMPI RETURNDATASIZE PUSH1 0x0 DUP1 RETURNDATACOPY RETURNDATASIZE PUSH1 0x0 REVERT JUMPDEST POP POP POP POP PUSH1 0x40 MLOAD RETURNDATASIZE PUSH1 0x1F NOT PUSH1 0x1F DUP3 ADD AND DUP3 ADD DUP1 PUSH1 0x40 MSTORE POP DUP2 ADD SWAP1 PUSH2 0x217 SWAP2 SWAP1 PUSH2 0x23B JUMP JUMPDEST POP JUMP JUMPDEST PUSH1 0x0 SLOAD DUP2 JUMP JUMPDEST PUSH1 0x2 SLOAD DUP2 JUMP JUMPDEST PUSH1 0x0 DUP2 MLOAD SWAP1 POP PUSH2 0x235 DUP2 PUSH2 0x3BB JUMP JUMPDEST SWAP3 SWAP2 POP POP JUMP JUMPDEST PUSH1 0x0 PUSH1 0x20 DUP3 DUP5 SUB SLT ISZERO PUSH2 0x251 JUMPI PUSH2 0x250 PUSH2 0x3B6 JUMP JUMPDEST JUMPDEST PUSH1 0x0 PUSH2 0x25F DUP5 DUP3 DUP6 ADD PUSH2 0x226 JUMP JUMPDEST SWAP2 POP POP SWAP3 SWAP2 POP POP JUMP JUMPDEST PUSH2 0x271 DUP2 PUSH2 0x33F JUMP JUMPDEST DUP3 MSTORE POP POP JUMP JUMPDEST PUSH2 0x280 DUP2 PUSH2 0x37D JUMP JUMPDEST DUP3 MSTORE POP POP JUMP JUMPDEST PUSH1 0x0 PUSH1 0x20 DUP3 ADD SWAP1 POP PUSH2 0x29B PUSH1 0x0 DUP4 ADD DUP5 PUSH2 0x268 JUMP JUMPDEST SWAP3 SWAP2 POP POP JUMP JUMPDEST PUSH1 0x0 PUSH1 0x40 DUP3 ADD SWAP1 POP PUSH2 0x2B6 PUSH1 0x0 DUP4 ADD DUP6 PUSH2 0x268 JUMP JUMPDEST PUSH2 0x2C3 PUSH1 0x20 DUP4 ADD DUP5 PUSH2 0x277 JUMP JUMPDEST SWAP4 SWAP3 POP POP POP JUMP JUMPDEST PUSH1 0x0 PUSH1 0x20 DUP3 ADD SWAP1 POP PUSH2 0x2DF PUSH1 0x0 DUP4 ADD DUP5 PUSH2 0x277 JUMP JUMPDEST SWAP3 SWAP2 POP POP JUMP JUMPDEST PUSH1 0x0 PUSH2 0x2F0 DUP3 PUSH2 0x37D JUMP JUMPDEST SWAP2 POP PUSH2 0x2FB DUP4 PUSH2 0x37D JUMP JUMPDEST SWAP3 POP DUP2 PUSH32 0xFFFFFFFFFFFFFFFFFFFFFFFFFFFFFFFFFFFFFFFFFFFFFFFFFFFFFFFFFFFFFFFF DIV DUP4 GT DUP3 ISZERO ISZERO AND ISZERO PUSH2 0x334 JUMPI PUSH2 0x333 PUSH2 0x387 JUMP JUMPDEST JUMPDEST DUP3 DUP3 MUL SWAP1 POP SWAP3 SWAP2 POP POP JUMP JUMPDEST PUSH1 0x0 PUSH2 0x34A DUP3 PUSH2 0x35D JUMP JUMPDEST SWAP1 POP SWAP2 SWAP1 POP JUMP JUMPDEST PUSH1 0x0 DUP2 ISZERO ISZERO SWAP1 POP SWAP2 SWAP1 POP JUMP JUMPDEST PUSH1 0x0 PUSH20 0xFFFFFFFFFFFFFFFFFFFFFFFFFFFFFFFFFFFFFFFF DUP3 AND SWAP1 POP SWAP2 SWAP1 POP JUMP JUMPDEST PUSH1 0x0 DUP2 SWAP1 POP SWAP2 SWAP1 POP JUMP JUMPDEST PUSH32 0x4E487B7100000000000000000000000000000000000000000000000000000000 PUSH1 0x0 MSTORE PUSH1 0x11 PUSH1 0x4 MSTORE PUSH1 0x24 PUSH1 0x0 REVERT JUMPDEST PUSH1 0x0 DUP1 REVERT JUMPDEST PUSH2 0x3C4 DUP2 PUSH2 0x351 JUMP JUMPDEST DUP2 EQ PUSH2 0x3CF JUMPI PUSH1 0x0 DUP1 REVERT JUMPDEST POP JUMP INVALID LOG2 PUSH5 0x6970667358 0x22 SLT KECCAK256 SAR BYTE MOD SUB 0xBA PUSH12 0x117E9E93C915FB02A0E19372 CHAINID 0x1F 0xAD DUP9 CALL PUSH23 0x546638FB54FDEB9264736F6C6343000807003300000000 "
				},
				"gasEstimates": {
					"creation": {
						"codeDepositCost": "206400",
						"executionCost": "infinite",
						"totalCost": "infinite"
					},
					"external": {
						"axsToken()": "2492",
						"endTime()": "2429",
						"now()": "2495",
						"receiveUSDT()": "infinite",
						"startTime()": "2473"
					}
				},
				"methodIdentifiers": {
					"axsToken()": "180dc0ac",
					"endTime()": "3197cbb6",
					"now()": "8abe09f2",
					"receiveUSDT()": "55cf0a69",
					"startTime()": "78e97925"
				}
			},
			"storageLayout": {
				"storage": [
					{
						"astId": 82,
						"contract": "TokenSell.sol:Tokensell",
						"label": "startTime",
						"offset": 0,
						"slot": "0",
						"type": "t_uint256"
					},
					{
						"astId": 84,
						"contract": "TokenSell.sol:Tokensell",
						"label": "endTime",
						"offset": 0,
						"slot": "1",
						"type": "t_uint256"
					},
					{
						"astId": 90,
						"contract": "TokenSell.sol:Tokensell",
						"label": "now",
						"offset": 0,
						"slot": "2",
						"type": "t_uint256"
					},
					{
						"astId": 93,
						"contract": "TokenSell.sol:Tokensell",
						"label": "axsToken",
						"offset": 0,
						"slot": "3",
						"type": "t_address"
					}
				],
				"types": {
					"t_address": {
						"encoding": "inplace",
						"label": "address",
						"numberOfBytes": "20"
					},
					"t_uint256": {
						"encoding": "inplace",
						"label": "uint256",
						"numberOfBytes": "32"
					}
				}
			},
			"userdoc": {
				"kind": "user",
				"methods": {},
				"version": 1
			}
		}
	}
}