{
	"Token.sol": {
		"Token": {
			"abi": [
				{
					"inputs": [
						{
							"internalType": "address",
							"name": "",
							"type": "address"
						}
					],
					"name": "balance",
					"outputs": [
						{
							"internalType": "uint256",
							"name": "",
							"type": "uint256"
						}
					],
					"stateMutability": "view",
					"type": "function"
				},
				{
					"inputs": [],
					"name": "decimal",
					"outputs": [
						{
							"internalType": "uint256",
							"name": "",
							"type": "uint256"
						}
					],
					"stateMutability": "view",
					"type": "function"
				},
				{
					"inputs": [],
					"name": "minter",
					"outputs": [
						{
							"internalType": "address",
							"name": "",
							"type": "address"
						}
					],
					"stateMutability": "view",
					"type": "function"
				},
				{
					"inputs": [],
					"name": "name",
					"outputs": [
						{
							"internalType": "string",
							"name": "",
							"type": "string"
						}
					],
					"stateMutability": "view",
					"type": "function"
				},
				{
					"inputs": [],
					"name": "owner",
					"outputs": [],
					"stateMutability": "nonpayable",
					"type": "function"
				},
				{
					"inputs": [],
					"name": "symbol",
					"outputs": [
						{
							"internalType": "string",
							"name": "",
							"type": "string"
						}
					],
					"stateMutability": "view",
					"type": "function"
				},
				{
					"inputs": [],
					"name": "totalSupply",
					"outputs": [
						{
							"internalType": "uint256",
							"name": "",
							"type": "uint256"
						}
					],
					"stateMutability": "view",
					"type": "function"
				}
			],
			"devdoc": {
				"kind": "dev",
				"methods": {},
				"version": 1
			},
			"evm": {
				"assembly": "    /* \"Token.sol\":62:406  contract Token {... */\n  mstore(0x40, 0x80)\n    /* \"Token.sol\":83:114  string public name = \"solidity\" */\n  mload(0x40)\n  dup1\n  0x40\n  add\n  0x40\n  mstore\n  dup1\n  0x08\n  dup2\n  mstore\n  0x20\n  add\n  0x736f6c6964697479000000000000000000000000000000000000000000000000\n  dup2\n  mstore\n  pop\n  0x00\n  swap1\n  dup1\n  mload\n  swap1\n  0x20\n  add\n  swap1\n  tag_1\n  swap3\n  swap2\n  swap1\n  tag_2\n  jump\t// in\ntag_1:\n  pop\n    /* \"Token.sol\":120:148  string public symbol = \"SOL\" */\n  mload(0x40)\n  dup1\n  0x40\n  add\n  0x40\n  mstore\n  dup1\n  0x03\n  dup2\n  mstore\n  0x20\n  add\n  0x534f4c0000000000000000000000000000000000000000000000000000000000\n  dup2\n  mstore\n  pop\n  0x01\n  swap1\n  dup1\n  mload\n  swap1\n  0x20\n  add\n  swap1\n  tag_3\n  swap3\n  swap2\n  swap1\n  tag_2\n  jump\t// in\ntag_3:\n  pop\n    /* \"Token.sol\":179:181  18 */\n  0x12\n    /* \"Token.sol\":154:181  uint256 public decimal = 18 */\n  0x02\n  sstore\n    /* \"Token.sol\":216:225  210000000 */\n  0x0c845880\n    /* \"Token.sol\":187:225  uint256 public totalSupply = 210000000 */\n  0x03\n  sstore\n    /* \"Token.sol\":62:406  contract Token {... */\n  callvalue\n  dup1\n  iszero\n  tag_4\n  jumpi\n  0x00\n  dup1\n  revert\ntag_4:\n  pop\n  jump(tag_5)\ntag_2:\n  dup3\n  dup1\n  sload\n  tag_6\n  swap1\n  tag_7\n  jump\t// in\ntag_6:\n  swap1\n  0x00\n  mstore\n  keccak256(0x00, 0x20)\n  swap1\n  0x1f\n  add\n  0x20\n  swap1\n  div\n  dup2\n  add\n  swap3\n  dup3\n  tag_9\n  jumpi\n  0x00\n  dup6\n  sstore\n  jump(tag_8)\ntag_9:\n  dup3\n  0x1f\n  lt\n  tag_10\n  jumpi\n  dup1\n  mload\n  not(0xff)\n  and\n  dup4\n  dup1\n  add\n  or\n  dup6\n  sstore\n  jump(tag_8)\ntag_10:\n  dup3\n  dup1\n  add\n  0x01\n  add\n  dup6\n  sstore\n  dup3\n  iszero\n  tag_8\n  jumpi\n  swap2\n  dup3\n  add\ntag_11:\n  dup3\n  dup2\n  gt\n  iszero\n  tag_12\n  jumpi\n  dup3\n  mload\n  dup3\n  sstore\n  swap2\n  0x20\n  add\n  swap2\n  swap1\n  0x01\n  add\n  swap1\n  jump(tag_11)\ntag_12:\ntag_8:\n  pop\n  swap1\n  pop\n  tag_13\n  swap2\n  swap1\n  tag_14\n  jump\t// in\ntag_13:\n  pop\n  swap1\n  jump\t// out\ntag_14:\ntag_15:\n  dup1\n  dup3\n  gt\n  iszero\n  tag_16\n  jumpi\n  0x00\n  dup2\n  0x00\n  swap1\n  sstore\n  pop\n  0x01\n  add\n  jump(tag_15)\ntag_16:\n  pop\n  swap1\n  jump\t// out\n    /* \"#utility.yul\":7:327   */\ntag_7:\n    /* \"#utility.yul\":51:57   */\n  0x00\n    /* \"#utility.yul\":88:89   */\n  0x02\n    /* \"#utility.yul\":82:86   */\n  dup3\n    /* \"#utility.yul\":78:90   */\n  div\n    /* \"#utility.yul\":68:90   */\n  swap1\n  pop\n    /* \"#utility.yul\":135:136   */\n  0x01\n    /* \"#utility.yul\":129:133   */\n  dup3\n    /* \"#utility.yul\":125:137   */\n  and\n    /* \"#utility.yul\":156:174   */\n  dup1\n    /* \"#utility.yul\":146:227   */\n  tag_19\n  jumpi\n    /* \"#utility.yul\":212:216   */\n  0x7f\n    /* \"#utility.yul\":204:210   */\n  dup3\n    /* \"#utility.yul\":200:217   */\n  and\n    /* \"#utility.yul\":190:217   */\n  swap2\n  pop\n    /* \"#utility.yul\":146:227   */\ntag_19:\n    /* \"#utility.yul\":274:276   */\n  0x20\n    /* \"#utility.yul\":266:272   */\n  dup3\n    /* \"#utility.yul\":263:277   */\n  lt\n    /* \"#utility.yul\":243:261   */\n  dup2\n    /* \"#utility.yul\":240:278   */\n  eq\n    /* \"#utility.yul\":237:321   */\n  iszero\n  tag_20\n  jumpi\n    /* \"#utility.yul\":293:311   */\n  tag_21\n  tag_22\n  jump\t// in\ntag_21:\n    /* \"#utility.yul\":237:321   */\ntag_20:\n    /* \"#utility.yul\":58:327   */\n  pop\n    /* \"#utility.yul\":7:327   */\n  swap2\n  swap1\n  pop\n  jump\t// out\n    /* \"#utility.yul\":333:513   */\ntag_22:\n    /* \"#utility.yul\":381:458   */\n  0x4e487b7100000000000000000000000000000000000000000000000000000000\n    /* \"#utility.yul\":378:379   */\n  0x00\n    /* \"#utility.yul\":371:459   */\n  mstore\n    /* \"#utility.yul\":478:482   */\n  0x22\n    /* \"#utility.yul\":475:476   */\n  0x04\n    /* \"#utility.yul\":468:483   */\n  mstore\n    /* \"#utility.yul\":502:506   */\n  0x24\n    /* \"#utility.yul\":499:500   */\n  0x00\n    /* \"#utility.yul\":492:507   */\n  revert\n    /* \"Token.sol\":62:406  contract Token {... */\ntag_5:\n  dataSize(sub_0)\n  dup1\n  dataOffset(sub_0)\n  0x00\n  codecopy\n  0x00\n  return\nstop\n\nsub_0: assembly {\n        /* \"Token.sol\":62:406  contract Token {... */\n      mstore(0x40, 0x80)\n      callvalue\n      dup1\n      iszero\n      tag_1\n      jumpi\n      0x00\n      dup1\n      revert\n    tag_1:\n      pop\n      jumpi(tag_2, lt(calldatasize, 0x04))\n      shr(0xe0, calldataload(0x00))\n      dup1\n      0x76809ce3\n      gt\n      tag_10\n      jumpi\n      dup1\n      0x76809ce3\n      eq\n      tag_6\n      jumpi\n      dup1\n      0x8da5cb5b\n      eq\n      tag_7\n      jumpi\n      dup1\n      0x95d89b41\n      eq\n      tag_8\n      jumpi\n      dup1\n      0xe3d670d7\n      eq\n      tag_9\n      jumpi\n      jump(tag_2)\n    tag_10:\n      dup1\n      0x06fdde03\n      eq\n      tag_3\n      jumpi\n      dup1\n      0x07546172\n      eq\n      tag_4\n      jumpi\n      dup1\n      0x18160ddd\n      eq\n      tag_5\n      jumpi\n    tag_2:\n      0x00\n      dup1\n      revert\n        /* \"Token.sol\":83:114  string public name = \"solidity\" */\n    tag_3:\n      tag_11\n      tag_12\n      jump\t// in\n    tag_11:\n      mload(0x40)\n      tag_13\n      swap2\n      swap1\n      tag_14\n      jump\t// in\n    tag_13:\n      mload(0x40)\n      dup1\n      swap2\n      sub\n      swap1\n      return\n        /* \"Token.sol\":231:252  address public minter */\n    tag_4:\n      tag_15\n      tag_16\n      jump\t// in\n    tag_15:\n      mload(0x40)\n      tag_17\n      swap2\n      swap1\n      tag_18\n      jump\t// in\n    tag_17:\n      mload(0x40)\n      dup1\n      swap2\n      sub\n      swap1\n      return\n        /* \"Token.sol\":187:225  uint256 public totalSupply = 210000000 */\n    tag_5:\n      tag_19\n      tag_20\n      jump\t// in\n    tag_19:\n      mload(0x40)\n      tag_21\n      swap2\n      swap1\n      tag_22\n      jump\t// in\n    tag_21:\n      mload(0x40)\n      dup1\n      swap2\n      sub\n      swap1\n      return\n        /* \"Token.sol\":154:181  uint256 public decimal = 18 */\n    tag_6:\n      tag_23\n      tag_24\n      jump\t// in\n    tag_23:\n      mload(0x40)\n      tag_25\n      swap2\n      swap1\n      tag_22\n      jump\t// in\n    tag_25:\n      mload(0x40)\n      dup1\n      swap2\n      sub\n      swap1\n      return\n        /* \"Token.sol\":341:400  function owner() public{... */\n    tag_7:\n      tag_26\n      tag_27\n      jump\t// in\n    tag_26:\n      stop\n        /* \"Token.sol\":120:148  string public symbol = \"SOL\" */\n    tag_8:\n      tag_28\n      tag_29\n      jump\t// in\n    tag_28:\n      mload(0x40)\n      tag_30\n      swap2\n      swap1\n      tag_14\n      jump\t// in\n    tag_30:\n      mload(0x40)\n      dup1\n      swap2\n      sub\n      swap1\n      return\n        /* \"Token.sol\":275:314  mapping(address => uint) public balance */\n    tag_9:\n      tag_31\n      0x04\n      dup1\n      calldatasize\n      sub\n      dup2\n      add\n      swap1\n      tag_32\n      swap2\n      swap1\n      tag_33\n      jump\t// in\n    tag_32:\n      tag_34\n      jump\t// in\n    tag_31:\n      mload(0x40)\n      tag_35\n      swap2\n      swap1\n      tag_22\n      jump\t// in\n    tag_35:\n      mload(0x40)\n      dup1\n      swap2\n      sub\n      swap1\n      return\n        /* \"Token.sol\":83:114  string public name = \"solidity\" */\n    tag_12:\n      0x00\n      dup1\n      sload\n      tag_36\n      swap1\n      tag_37\n      jump\t// in\n    tag_36:\n      dup1\n      0x1f\n      add\n      0x20\n      dup1\n      swap2\n      div\n      mul\n      0x20\n      add\n      mload(0x40)\n      swap1\n      dup2\n      add\n      0x40\n      mstore\n      dup1\n      swap3\n      swap2\n      swap1\n      dup2\n      dup2\n      mstore\n      0x20\n      add\n      dup3\n      dup1\n      sload\n      tag_38\n      swap1\n      tag_37\n      jump\t// in\n    tag_38:\n      dup1\n      iszero\n      tag_39\n      jumpi\n      dup1\n      0x1f\n      lt\n      tag_40\n      jumpi\n      0x0100\n      dup1\n      dup4\n      sload\n      div\n      mul\n      dup4\n      mstore\n      swap2\n      0x20\n      add\n      swap2\n      jump(tag_39)\n    tag_40:\n      dup3\n      add\n      swap2\n      swap1\n      0x00\n      mstore\n      keccak256(0x00, 0x20)\n      swap1\n    tag_41:\n      dup2\n      sload\n      dup2\n      mstore\n      swap1\n      0x01\n      add\n      swap1\n      0x20\n      add\n      dup1\n      dup4\n      gt\n      tag_41\n      jumpi\n      dup3\n      swap1\n      sub\n      0x1f\n      and\n      dup3\n      add\n      swap2\n    tag_39:\n      pop\n      pop\n      pop\n      pop\n      pop\n      dup2\n      jump\t// out\n        /* \"Token.sol\":231:252  address public minter */\n    tag_16:\n      0x04\n      0x00\n      swap1\n      sload\n      swap1\n      0x0100\n      exp\n      swap1\n      div\n      0xffffffffffffffffffffffffffffffffffffffff\n      and\n      dup2\n      jump\t// out\n        /* \"Token.sol\":187:225  uint256 public totalSupply = 210000000 */\n    tag_20:\n      sload(0x03)\n      dup2\n      jump\t// out\n        /* \"Token.sol\":154:181  uint256 public decimal = 18 */\n    tag_24:\n      sload(0x02)\n      dup2\n      jump\t// out\n        /* \"Token.sol\":341:400  function owner() public{... */\n    tag_27:\n        /* \"Token.sol\":383:393  msg.sender */\n      caller\n        /* \"Token.sol\":374:380  minter */\n      0x04\n      0x00\n        /* \"Token.sol\":374:393  minter = msg.sender */\n      0x0100\n      exp\n      dup2\n      sload\n      dup2\n      0xffffffffffffffffffffffffffffffffffffffff\n      mul\n      not\n      and\n      swap1\n      dup4\n      0xffffffffffffffffffffffffffffffffffffffff\n      and\n      mul\n      or\n      swap1\n      sstore\n      pop\n        /* \"Token.sol\":341:400  function owner() public{... */\n      jump\t// out\n        /* \"Token.sol\":120:148  string public symbol = \"SOL\" */\n    tag_29:\n      0x01\n      dup1\n      sload\n      tag_43\n      swap1\n      tag_37\n      jump\t// in\n    tag_43:\n      dup1\n      0x1f\n      add\n      0x20\n      dup1\n      swap2\n      div\n      mul\n      0x20\n      add\n      mload(0x40)\n      swap1\n      dup2\n      add\n      0x40\n      mstore\n      dup1\n      swap3\n      swap2\n      swap1\n      dup2\n      dup2\n      mstore\n      0x20\n      add\n      dup3\n      dup1\n      sload\n      tag_44\n      swap1\n      tag_37\n      jump\t// in\n    tag_44:\n      dup1\n      iszero\n      tag_45\n      jumpi\n      dup1\n      0x1f\n      lt\n      tag_46\n      jumpi\n      0x0100\n      dup1\n      dup4\n      sload\n      div\n      mul\n      dup4\n      mstore\n      swap2\n      0x20\n      add\n      swap2\n      jump(tag_45)\n    tag_46:\n      dup3\n      add\n      swap2\n      swap1\n      0x00\n      mstore\n      keccak256(0x00, 0x20)\n      swap1\n    tag_47:\n      dup2\n      sload\n      dup2\n      mstore\n      swap1\n      0x01\n      add\n      swap1\n      0x20\n      add\n      dup1\n      dup4\n      gt\n      tag_47\n      jumpi\n      dup3\n      swap1\n      sub\n      0x1f\n      and\n      dup3\n      add\n      swap2\n    tag_45:\n      pop\n      pop\n      pop\n      pop\n      pop\n      dup2\n      jump\t// out\n        /* \"Token.sol\":275:314  mapping(address => uint) public balance */\n    tag_34:\n      mstore(0x20, 0x05)\n      dup1\n      0x00\n      mstore\n      keccak256(0x00, 0x40)\n      0x00\n      swap2\n      pop\n      swap1\n      pop\n      sload\n      dup2\n      jump\t// out\n        /* \"#utility.yul\":7:146   */\n    tag_49:\n        /* \"#utility.yul\":53:58   */\n      0x00\n        /* \"#utility.yul\":91:97   */\n      dup2\n        /* \"#utility.yul\":78:98   */\n      calldataload\n        /* \"#utility.yul\":69:98   */\n      swap1\n      pop\n        /* \"#utility.yul\":107:140   */\n      tag_51\n        /* \"#utility.yul\":134:139   */\n      dup2\n        /* \"#utility.yul\":107:140   */\n      tag_52\n      jump\t// in\n    tag_51:\n        /* \"#utility.yul\":7:146   */\n      swap3\n      swap2\n      pop\n      pop\n      jump\t// out\n        /* \"#utility.yul\":152:481   */\n    tag_33:\n        /* \"#utility.yul\":211:217   */\n      0x00\n        /* \"#utility.yul\":260:262   */\n      0x20\n        /* \"#utility.yul\":248:257   */\n      dup3\n        /* \"#utility.yul\":239:246   */\n      dup5\n        /* \"#utility.yul\":235:258   */\n      sub\n        /* \"#utility.yul\":231:263   */\n      slt\n        /* \"#utility.yul\":228:347   */\n      iszero\n      tag_54\n      jumpi\n        /* \"#utility.yul\":266:345   */\n      tag_55\n      tag_56\n      jump\t// in\n    tag_55:\n        /* \"#utility.yul\":228:347   */\n    tag_54:\n        /* \"#utility.yul\":386:387   */\n      0x00\n        /* \"#utility.yul\":411:464   */\n      tag_57\n        /* \"#utility.yul\":456:463   */\n      dup5\n        /* \"#utility.yul\":447:453   */\n      dup3\n        /* \"#utility.yul\":436:445   */\n      dup6\n        /* \"#utility.yul\":432:454   */\n      add\n        /* \"#utility.yul\":411:464   */\n      tag_49\n      jump\t// in\n    tag_57:\n        /* \"#utility.yul\":401:464   */\n      swap2\n      pop\n        /* \"#utility.yul\":357:474   */\n      pop\n        /* \"#utility.yul\":152:481   */\n      swap3\n      swap2\n      pop\n      pop\n      jump\t// out\n        /* \"#utility.yul\":487:605   */\n    tag_58:\n        /* \"#utility.yul\":574:598   */\n      tag_60\n        /* \"#utility.yul\":592:597   */\n      dup2\n        /* \"#utility.yul\":574:598   */\n      tag_61\n      jump\t// in\n    tag_60:\n        /* \"#utility.yul\":569:572   */\n      dup3\n        /* \"#utility.yul\":562:599   */\n      mstore\n        /* \"#utility.yul\":487:605   */\n      pop\n      pop\n      jump\t// out\n        /* \"#utility.yul\":611:975   */\n    tag_62:\n        /* \"#utility.yul\":699:702   */\n      0x00\n        /* \"#utility.yul\":727:766   */\n      tag_64\n        /* \"#utility.yul\":760:765   */\n      dup3\n        /* \"#utility.yul\":727:766   */\n      tag_65\n      jump\t// in\n    tag_64:\n        /* \"#utility.yul\":782:853   */\n      tag_66\n        /* \"#utility.yul\":846:852   */\n      dup2\n        /* \"#utility.yul\":841:844   */\n      dup6\n        /* \"#utility.yul\":782:853   */\n      tag_67\n      jump\t// in\n    tag_66:\n        /* \"#utility.yul\":775:853   */\n      swap4\n      pop\n        /* \"#utility.yul\":862:914   */\n      tag_68\n        /* \"#utility.yul\":907:913   */\n      dup2\n        /* \"#utility.yul\":902:905   */\n      dup6\n        /* \"#utility.yul\":895:899   */\n      0x20\n        /* \"#utility.yul\":888:893   */\n      dup7\n        /* \"#utility.yul\":884:900   */\n      add\n        /* \"#utility.yul\":862:914   */\n      tag_69\n      jump\t// in\n    tag_68:\n        /* \"#utility.yul\":939:968   */\n      tag_70\n        /* \"#utility.yul\":961:967   */\n      dup2\n        /* \"#utility.yul\":939:968   */\n      tag_71\n      jump\t// in\n    tag_70:\n        /* \"#utility.yul\":934:937   */\n      dup5\n        /* \"#utility.yul\":930:969   */\n      add\n        /* \"#utility.yul\":923:969   */\n      swap2\n      pop\n        /* \"#utility.yul\":703:975   */\n      pop\n        /* \"#utility.yul\":611:975   */\n      swap3\n      swap2\n      pop\n      pop\n      jump\t// out\n        /* \"#utility.yul\":981:1099   */\n    tag_72:\n        /* \"#utility.yul\":1068:1092   */\n      tag_74\n        /* \"#utility.yul\":1086:1091   */\n      dup2\n        /* \"#utility.yul\":1068:1092   */\n      tag_75\n      jump\t// in\n    tag_74:\n        /* \"#utility.yul\":1063:1066   */\n      dup3\n        /* \"#utility.yul\":1056:1093   */\n      mstore\n        /* \"#utility.yul\":981:1099   */\n      pop\n      pop\n      jump\t// out\n        /* \"#utility.yul\":1105:1327   */\n    tag_18:\n        /* \"#utility.yul\":1198:1202   */\n      0x00\n        /* \"#utility.yul\":1236:1238   */\n      0x20\n        /* \"#utility.yul\":1225:1234   */\n      dup3\n        /* \"#utility.yul\":1221:1239   */\n      add\n        /* \"#utility.yul\":1213:1239   */\n      swap1\n      pop\n        /* \"#utility.yul\":1249:1320   */\n      tag_77\n        /* \"#utility.yul\":1317:1318   */\n      0x00\n        /* \"#utility.yul\":1306:1315   */\n      dup4\n        /* \"#utility.yul\":1302:1319   */\n      add\n        /* \"#utility.yul\":1293:1299   */\n      dup5\n        /* \"#utility.yul\":1249:1320   */\n      tag_58\n      jump\t// in\n    tag_77:\n        /* \"#utility.yul\":1105:1327   */\n      swap3\n      swap2\n      pop\n      pop\n      jump\t// out\n        /* \"#utility.yul\":1333:1646   */\n    tag_14:\n        /* \"#utility.yul\":1446:1450   */\n      0x00\n        /* \"#utility.yul\":1484:1486   */\n      0x20\n        /* \"#utility.yul\":1473:1482   */\n      dup3\n        /* \"#utility.yul\":1469:1487   */\n      add\n        /* \"#utility.yul\":1461:1487   */\n      swap1\n      pop\n        /* \"#utility.yul\":1533:1542   */\n      dup2\n        /* \"#utility.yul\":1527:1531   */\n      dup2\n        /* \"#utility.yul\":1523:1543   */\n      sub\n        /* \"#utility.yul\":1519:1520   */\n      0x00\n        /* \"#utility.yul\":1508:1517   */\n      dup4\n        /* \"#utility.yul\":1504:1521   */\n      add\n        /* \"#utility.yul\":1497:1544   */\n      mstore\n        /* \"#utility.yul\":1561:1639   */\n      tag_79\n        /* \"#utility.yul\":1634:1638   */\n      dup2\n        /* \"#utility.yul\":1625:1631   */\n      dup5\n        /* \"#utility.yul\":1561:1639   */\n      tag_62\n      jump\t// in\n    tag_79:\n        /* \"#utility.yul\":1553:1639   */\n      swap1\n      pop\n        /* \"#utility.yul\":1333:1646   */\n      swap3\n      swap2\n      pop\n      pop\n      jump\t// out\n        /* \"#utility.yul\":1652:1874   */\n    tag_22:\n        /* \"#utility.yul\":1745:1749   */\n      0x00\n        /* \"#utility.yul\":1783:1785   */\n      0x20\n        /* \"#utility.yul\":1772:1781   */\n      dup3\n        /* \"#utility.yul\":1768:1786   */\n      add\n        /* \"#utility.yul\":1760:1786   */\n      swap1\n      pop\n        /* \"#utility.yul\":1796:1867   */\n      tag_81\n        /* \"#utility.yul\":1864:1865   */\n      0x00\n        /* \"#utility.yul\":1853:1862   */\n      dup4\n        /* \"#utility.yul\":1849:1866   */\n      add\n        /* \"#utility.yul\":1840:1846   */\n      dup5\n        /* \"#utility.yul\":1796:1867   */\n      tag_72\n      jump\t// in\n    tag_81:\n        /* \"#utility.yul\":1652:1874   */\n      swap3\n      swap2\n      pop\n      pop\n      jump\t// out\n        /* \"#utility.yul\":1961:2060   */\n    tag_65:\n        /* \"#utility.yul\":2013:2019   */\n      0x00\n        /* \"#utility.yul\":2047:2052   */\n      dup2\n        /* \"#utility.yul\":2041:2053   */\n      mload\n        /* \"#utility.yul\":2031:2053   */\n      swap1\n      pop\n        /* \"#utility.yul\":1961:2060   */\n      swap2\n      swap1\n      pop\n      jump\t// out\n        /* \"#utility.yul\":2066:2235   */\n    tag_67:\n        /* \"#utility.yul\":2150:2161   */\n      0x00\n        /* \"#utility.yul\":2184:2190   */\n      dup3\n        /* \"#utility.yul\":2179:2182   */\n      dup3\n        /* \"#utility.yul\":2172:2191   */\n      mstore\n        /* \"#utility.yul\":2224:2228   */\n      0x20\n        /* \"#utility.yul\":2219:2222   */\n      dup3\n        /* \"#utility.yul\":2215:2229   */\n      add\n        /* \"#utility.yul\":2200:2229   */\n      swap1\n      pop\n        /* \"#utility.yul\":2066:2235   */\n      swap3\n      swap2\n      pop\n      pop\n      jump\t// out\n        /* \"#utility.yul\":2241:2337   */\n    tag_61:\n        /* \"#utility.yul\":2278:2285   */\n      0x00\n        /* \"#utility.yul\":2307:2331   */\n      tag_87\n        /* \"#utility.yul\":2325:2330   */\n      dup3\n        /* \"#utility.yul\":2307:2331   */\n      tag_88\n      jump\t// in\n    tag_87:\n        /* \"#utility.yul\":2296:2331   */\n      swap1\n      pop\n        /* \"#utility.yul\":2241:2337   */\n      swap2\n      swap1\n      pop\n      jump\t// out\n        /* \"#utility.yul\":2343:2469   */\n    tag_88:\n        /* \"#utility.yul\":2380:2387   */\n      0x00\n        /* \"#utility.yul\":2420:2462   */\n      0xffffffffffffffffffffffffffffffffffffffff\n        /* \"#utility.yul\":2413:2418   */\n      dup3\n        /* \"#utility.yul\":2409:2463   */\n      and\n        /* \"#utility.yul\":2398:2463   */\n      swap1\n      pop\n        /* \"#utility.yul\":2343:2469   */\n      swap2\n      swap1\n      pop\n      jump\t// out\n        /* \"#utility.yul\":2475:2552   */\n    tag_75:\n        /* \"#utility.yul\":2512:2519   */\n      0x00\n        /* \"#utility.yul\":2541:2546   */\n      dup2\n        /* \"#utility.yul\":2530:2546   */\n      swap1\n      pop\n        /* \"#utility.yul\":2475:2552   */\n      swap2\n      swap1\n      pop\n      jump\t// out\n        /* \"#utility.yul\":2558:2865   */\n    tag_69:\n        /* \"#utility.yul\":2626:2627   */\n      0x00\n        /* \"#utility.yul\":2636:2749   */\n    tag_92:\n        /* \"#utility.yul\":2650:2656   */\n      dup4\n        /* \"#utility.yul\":2647:2648   */\n      dup2\n        /* \"#utility.yul\":2644:2657   */\n      lt\n        /* \"#utility.yul\":2636:2749   */\n      iszero\n      tag_94\n      jumpi\n        /* \"#utility.yul\":2735:2736   */\n      dup1\n        /* \"#utility.yul\":2730:2733   */\n      dup3\n        /* \"#utility.yul\":2726:2737   */\n      add\n        /* \"#utility.yul\":2720:2738   */\n      mload\n        /* \"#utility.yul\":2716:2717   */\n      dup2\n        /* \"#utility.yul\":2711:2714   */\n      dup5\n        /* \"#utility.yul\":2707:2718   */\n      add\n        /* \"#utility.yul\":2700:2739   */\n      mstore\n        /* \"#utility.yul\":2672:2674   */\n      0x20\n        /* \"#utility.yul\":2669:2670   */\n      dup2\n        /* \"#utility.yul\":2665:2675   */\n      add\n        /* \"#utility.yul\":2660:2675   */\n      swap1\n      pop\n        /* \"#utility.yul\":2636:2749   */\n      jump(tag_92)\n    tag_94:\n        /* \"#utility.yul\":2767:2773   */\n      dup4\n        /* \"#utility.yul\":2764:2765   */\n      dup2\n        /* \"#utility.yul\":2761:2774   */\n      gt\n        /* \"#utility.yul\":2758:2859   */\n      iszero\n      tag_95\n      jumpi\n        /* \"#utility.yul\":2847:2848   */\n      0x00\n        /* \"#utility.yul\":2838:2844   */\n      dup5\n        /* \"#utility.yul\":2833:2836   */\n      dup5\n        /* \"#utility.yul\":2829:2845   */\n      add\n        /* \"#utility.yul\":2822:2849   */\n      mstore\n        /* \"#utility.yul\":2758:2859   */\n    tag_95:\n        /* \"#utility.yul\":2607:2865   */\n      pop\n        /* \"#utility.yul\":2558:2865   */\n      pop\n      pop\n      pop\n      jump\t// out\n        /* \"#utility.yul\":2871:3191   */\n    tag_37:\n        /* \"#utility.yul\":2915:2921   */\n      0x00\n        /* \"#utility.yul\":2952:2953   */\n      0x02\n        /* \"#utility.yul\":2946:2950   */\n      dup3\n        /* \"#utility.yul\":2942:2954   */\n      div\n        /* \"#utility.yul\":2932:2954   */\n      swap1\n      pop\n        /* \"#utility.yul\":2999:3000   */\n      0x01\n        /* \"#utility.yul\":2993:2997   */\n      dup3\n        /* \"#utility.yul\":2989:3001   */\n      and\n        /* \"#utility.yul\":3020:3038   */\n      dup1\n        /* \"#utility.yul\":3010:3091   */\n      tag_97\n      jumpi\n        /* \"#utility.yul\":3076:3080   */\n      0x7f\n        /* \"#utility.yul\":3068:3074   */\n      dup3\n        /* \"#utility.yul\":3064:3081   */\n      and\n        /* \"#utility.yul\":3054:3081   */\n      swap2\n      pop\n        /* \"#utility.yul\":3010:3091   */\n    tag_97:\n        /* \"#utility.yul\":3138:3140   */\n      0x20\n        /* \"#utility.yul\":3130:3136   */\n      dup3\n        /* \"#utility.yul\":3127:3141   */\n      lt\n        /* \"#utility.yul\":3107:3125   */\n      dup2\n        /* \"#utility.yul\":3104:3142   */\n      eq\n        /* \"#utility.yul\":3101:3185   */\n      iszero\n      tag_98\n      jumpi\n        /* \"#utility.yul\":3157:3175   */\n      tag_99\n      tag_100\n      jump\t// in\n    tag_99:\n        /* \"#utility.yul\":3101:3185   */\n    tag_98:\n        /* \"#utility.yul\":2922:3191   */\n      pop\n        /* \"#utility.yul\":2871:3191   */\n      swap2\n      swap1\n      pop\n      jump\t// out\n        /* \"#utility.yul\":3197:3377   */\n    tag_100:\n        /* \"#utility.yul\":3245:3322   */\n      0x4e487b7100000000000000000000000000000000000000000000000000000000\n        /* \"#utility.yul\":3242:3243   */\n      0x00\n        /* \"#utility.yul\":3235:3323   */\n      mstore\n        /* \"#utility.yul\":3342:3346   */\n      0x22\n        /* \"#utility.yul\":3339:3340   */\n      0x04\n        /* \"#utility.yul\":3332:3347   */\n      mstore\n        /* \"#utility.yul\":3366:3370   */\n      0x24\n        /* \"#utility.yul\":3363:3364   */\n      0x00\n        /* \"#utility.yul\":3356:3371   */\n      revert\n        /* \"#utility.yul\":3506:3623   */\n    tag_56:\n        /* \"#utility.yul\":3615:3616   */\n      0x00\n        /* \"#utility.yul\":3612:3613   */\n      dup1\n        /* \"#utility.yul\":3605:3617   */\n      revert\n        /* \"#utility.yul\":3629:3731   */\n    tag_71:\n        /* \"#utility.yul\":3670:3676   */\n      0x00\n        /* \"#utility.yul\":3721:3723   */\n      0x1f\n        /* \"#utility.yul\":3717:3724   */\n      not\n        /* \"#utility.yul\":3712:3714   */\n      0x1f\n        /* \"#utility.yul\":3705:3710   */\n      dup4\n        /* \"#utility.yul\":3701:3715   */\n      add\n        /* \"#utility.yul\":3697:3725   */\n      and\n        /* \"#utility.yul\":3687:3725   */\n      swap1\n      pop\n        /* \"#utility.yul\":3629:3731   */\n      swap2\n      swap1\n      pop\n      jump\t// out\n        /* \"#utility.yul\":3737:3859   */\n    tag_52:\n        /* \"#utility.yul\":3810:3834   */\n      tag_107\n        /* \"#utility.yul\":3828:3833   */\n      dup2\n        /* \"#utility.yul\":3810:3834   */\n      tag_61\n      jump\t// in\n    tag_107:\n        /* \"#utility.yul\":3803:3808   */\n      dup2\n        /* \"#utility.yul\":3800:3835   */\n      eq\n        /* \"#utility.yul\":3790:3853   */\n      tag_108\n      jumpi\n        /* \"#utility.yul\":3849:3850   */\n      0x00\n        /* \"#utility.yul\":3846:3847   */\n      dup1\n        /* \"#utility.yul\":3839:3851   */\n      revert\n        /* \"#utility.yul\":3790:3853   */\n    tag_108:\n        /* \"#utility.yul\":3737:3859   */\n      pop\n      jump\t// out\n\n    auxdata: 0xa2646970667358221220d0f0f035827cc3da8836c68ead81ee247f5b2a0586671a70fd32fe4e4534ceea64736f6c63430008070033\n}\n",
				"bytecode": {
					"linkReferences": {},
					"object": "60806040526040518060400160405280600881526020017f736f6c69646974790000000000000000000000000000000000000000000000008152506000908051906020019061004f9291906100bb565b506040518060400160405280600381526020017f534f4c00000000000000000000000000000000000000000000000000000000008152506001908051906020019061009b9291906100bb565b506012600255630c8458806003553480156100b557600080fd5b506101bf565b8280546100c79061015e565b90600052602060002090601f0160209004810192826100e95760008555610130565b82601f1061010257805160ff1916838001178555610130565b82800160010185558215610130579182015b8281111561012f578251825591602001919060010190610114565b5b50905061013d9190610141565b5090565b5b8082111561015a576000816000905550600101610142565b5090565b6000600282049050600182168061017657607f821691505b6020821081141561018a57610189610190565b5b50919050565b7f4e487b7100000000000000000000000000000000000000000000000000000000600052602260045260246000fd5b61053b806101ce6000396000f3fe608060405234801561001057600080fd5b506004361061007d5760003560e01c806376809ce31161005b57806376809ce3146100dc5780638da5cb5b146100fa57806395d89b4114610104578063e3d670d7146101225761007d565b806306fdde031461008257806307546172146100a057806318160ddd146100be575b600080fd5b61008a610152565b60405161009791906103af565b60405180910390f35b6100a86101e0565b6040516100b59190610394565b60405180910390f35b6100c6610206565b6040516100d391906103d1565b60405180910390f35b6100e461020c565b6040516100f191906103d1565b60405180910390f35b610102610212565b005b61010c610255565b60405161011991906103af565b60405180910390f35b61013c60048036038101906101379190610310565b6102e3565b60405161014991906103d1565b60405180910390f35b6000805461015f90610477565b80601f016020809104026020016040519081016040528092919081815260200182805461018b90610477565b80156101d85780601f106101ad576101008083540402835291602001916101d8565b820191906000526020600020905b8154815290600101906020018083116101bb57829003601f168201915b505050505081565b600460009054906101000a900473ffffffffffffffffffffffffffffffffffffffff1681565b60035481565b60025481565b33600460006101000a81548173ffffffffffffffffffffffffffffffffffffffff021916908373ffffffffffffffffffffffffffffffffffffffff160217905550565b6001805461026290610477565b80601f016020809104026020016040519081016040528092919081815260200182805461028e90610477565b80156102db5780601f106102b0576101008083540402835291602001916102db565b820191906000526020600020905b8154815290600101906020018083116102be57829003601f168201915b505050505081565b60056020528060005260406000206000915090505481565b60008135905061030a816104ee565b92915050565b600060208284031215610326576103256104d8565b5b6000610334848285016102fb565b91505092915050565b61034681610408565b82525050565b6000610357826103ec565b61036181856103f7565b9350610371818560208601610444565b61037a816104dd565b840191505092915050565b61038e8161043a565b82525050565b60006020820190506103a9600083018461033d565b92915050565b600060208201905081810360008301526103c9818461034c565b905092915050565b60006020820190506103e66000830184610385565b92915050565b600081519050919050565b600082825260208201905092915050565b60006104138261041a565b9050919050565b600073ffffffffffffffffffffffffffffffffffffffff82169050919050565b6000819050919050565b60005b83811015610462578082015181840152602081019050610447565b83811115610471576000848401525b50505050565b6000600282049050600182168061048f57607f821691505b602082108114156104a3576104a26104a9565b5b50919050565b7f4e487b7100000000000000000000000000000000000000000000000000000000600052602260045260246000fd5b600080fd5b6000601f19601f8301169050919050565b6104f781610408565b811461050257600080fd5b5056fea2646970667358221220d0f0f035827cc3da8836c68ead81ee247f5b2a0586671a70fd32fe4e4534ceea64736f6c63430008070033",
					"opcodes": "PUSH1 0x80 PUSH1 0x40 MSTORE PUSH1 0x40 MLOAD DUP1 PUSH1 0x40 ADD PUSH1 0x40 MSTORE DUP1 PUSH1 0x8 DUP2 MSTORE PUSH1 0x20 ADD PUSH32 0x736F6C6964697479000000000000000000000000000000000000000000000000 DUP2 MSTORE POP PUSH1 0x0 SWAP1 DUP1 MLOAD SWAP1 PUSH1 0x20 ADD SWAP1 PUSH2 0x4F SWAP3 SWAP2 SWAP1 PUSH2 0xBB JUMP JUMPDEST POP PUSH1 0x40 MLOAD DUP1 PUSH1 0x40 ADD PUSH1 0x40 MSTORE DUP1 PUSH1 0x3 DUP2 MSTORE PUSH1 0x20 ADD PUSH32 0x534F4C0000000000000000000000000000000000000000000000000000000000 DUP2 MSTORE POP PUSH1 0x1 SWAP1 DUP1 MLOAD SWAP1 PUSH1 0x20 ADD SWAP1 PUSH2 0x9B SWAP3 SWAP2 SWAP1 PUSH2 0xBB JUMP JUMPDEST POP PUSH1 0x12 PUSH1 0x2 SSTORE PUSH4 0xC845880 PUSH1 0x3 SSTORE CALLVALUE DUP1 ISZERO PUSH2 0xB5 JUMPI PUSH1 0x0 DUP1 REVERT JUMPDEST POP PUSH2 0x1BF JUMP JUMPDEST DUP3 DUP1 SLOAD PUSH2 0xC7 SWAP1 PUSH2 0x15E JUMP JUMPDEST SWAP1 PUSH1 0x0 MSTORE PUSH1 0x20 PUSH1 0x0 KECCAK256 SWAP1 PUSH1 0x1F ADD PUSH1 0x20 SWAP1 DIV DUP2 ADD SWAP3 DUP3 PUSH2 0xE9 JUMPI PUSH1 0x0 DUP6 SSTORE PUSH2 0x130 JUMP JUMPDEST DUP3 PUSH1 0x1F LT PUSH2 0x102 JUMPI DUP1 MLOAD PUSH1 0xFF NOT AND DUP4 DUP1 ADD OR DUP6 SSTORE PUSH2 0x130 JUMP JUMPDEST DUP3 DUP1 ADD PUSH1 0x1 ADD DUP6 SSTORE DUP3 ISZERO PUSH2 0x130 JUMPI SWAP2 DUP3 ADD JUMPDEST DUP3 DUP2 GT ISZERO PUSH2 0x12F JUMPI DUP3 MLOAD DUP3 SSTORE SWAP2 PUSH1 0x20 ADD SWAP2 SWAP1 PUSH1 0x1 ADD SWAP1 PUSH2 0x114 JUMP JUMPDEST JUMPDEST POP SWAP1 POP PUSH2 0x13D SWAP2 SWAP1 PUSH2 0x141 JUMP JUMPDEST POP SWAP1 JUMP JUMPDEST JUMPDEST DUP1 DUP3 GT ISZERO PUSH2 0x15A JUMPI PUSH1 0x0 DUP2 PUSH1 0x0 SWAP1 SSTORE POP PUSH1 0x1 ADD PUSH2 0x142 JUMP JUMPDEST POP SWAP1 JUMP JUMPDEST PUSH1 0x0 PUSH1 0x2 DUP3 DIV SWAP1 POP PUSH1 0x1 DUP3 AND DUP1 PUSH2 0x176 JUMPI PUSH1 0x7F DUP3 AND SWAP2 POP JUMPDEST PUSH1 0x20 DUP3 LT DUP2 EQ ISZERO PUSH2 0x18A JUMPI PUSH2 0x189 PUSH2 0x190 JUMP JUMPDEST JUMPDEST POP SWAP2 SWAP1 POP JUMP JUMPDEST PUSH32 0x4E487B7100000000000000000000000000000000000000000000000000000000 PUSH1 0x0 MSTORE PUSH1 0x22 PUSH1 0x4 MSTORE PUSH1 0x24 PUSH1 0x0 REVERT JUMPDEST PUSH2 0x53B DUP1 PUSH2 0x1CE PUSH1 0x0 CODECOPY PUSH1 0x0 RETURN INVALID PUSH1 0x80 PUSH1 0x40 MSTORE CALLVALUE DUP1 ISZERO PUSH2 0x10 JUMPI PUSH1 0x0 DUP1 REVERT JUMPDEST POP PUSH1 0x4 CALLDATASIZE LT PUSH2 0x7D JUMPI PUSH1 0x0 CALLDATALOAD PUSH1 0xE0 SHR DUP1 PUSH4 0x76809CE3 GT PUSH2 0x5B JUMPI DUP1 PUSH4 0x76809CE3 EQ PUSH2 0xDC JUMPI DUP1 PUSH4 0x8DA5CB5B EQ PUSH2 0xFA JUMPI DUP1 PUSH4 0x95D89B41 EQ PUSH2 0x104 JUMPI DUP1 PUSH4 0xE3D670D7 EQ PUSH2 0x122 JUMPI PUSH2 0x7D JUMP JUMPDEST DUP1 PUSH4 0x6FDDE03 EQ PUSH2 0x82 JUMPI DUP1 PUSH4 0x7546172 EQ PUSH2 0xA0 JUMPI DUP1 PUSH4 0x18160DDD EQ PUSH2 0xBE JUMPI JUMPDEST PUSH1 0x0 DUP1 REVERT JUMPDEST PUSH2 0x8A PUSH2 0x152 JUMP JUMPDEST PUSH1 0x40 MLOAD PUSH2 0x97 SWAP2 SWAP1 PUSH2 0x3AF JUMP JUMPDEST PUSH1 0x40 MLOAD DUP1 SWAP2 SUB SWAP1 RETURN JUMPDEST PUSH2 0xA8 PUSH2 0x1E0 JUMP JUMPDEST PUSH1 0x40 MLOAD PUSH2 0xB5 SWAP2 SWAP1 PUSH2 0x394 JUMP JUMPDEST PUSH1 0x40 MLOAD DUP1 SWAP2 SUB SWAP1 RETURN JUMPDEST PUSH2 0xC6 PUSH2 0x206 JUMP JUMPDEST PUSH1 0x40 MLOAD PUSH2 0xD3 SWAP2 SWAP1 PUSH2 0x3D1 JUMP JUMPDEST PUSH1 0x40 MLOAD DUP1 SWAP2 SUB SWAP1 RETURN JUMPDEST PUSH2 0xE4 PUSH2 0x20C JUMP JUMPDEST PUSH1 0x40 MLOAD PUSH2 0xF1 SWAP2 SWAP1 PUSH2 0x3D1 JUMP JUMPDEST PUSH1 0x40 MLOAD DUP1 SWAP2 SUB SWAP1 RETURN JUMPDEST PUSH2 0x102 PUSH2 0x212 JUMP JUMPDEST STOP JUMPDEST PUSH2 0x10C PUSH2 0x255 JUMP JUMPDEST PUSH1 0x40 MLOAD PUSH2 0x119 SWAP2 SWAP1 PUSH2 0x3AF JUMP JUMPDEST PUSH1 0x40 MLOAD DUP1 SWAP2 SUB SWAP1 RETURN JUMPDEST PUSH2 0x13C PUSH1 0x4 DUP1 CALLDATASIZE SUB DUP2 ADD SWAP1 PUSH2 0x137 SWAP2 SWAP1 PUSH2 0x310 JUMP JUMPDEST PUSH2 0x2E3 JUMP JUMPDEST PUSH1 0x40 MLOAD PUSH2 0x149 SWAP2 SWAP1 PUSH2 0x3D1 JUMP JUMPDEST PUSH1 0x40 MLOAD DUP1 SWAP2 SUB SWAP1 RETURN JUMPDEST PUSH1 0x0 DUP1 SLOAD PUSH2 0x15F SWAP1 PUSH2 0x477 JUMP JUMPDEST DUP1 PUSH1 0x1F ADD PUSH1 0x20 DUP1 SWAP2 DIV MUL PUSH1 0x20 ADD PUSH1 0x40 MLOAD SWAP1 DUP2 ADD PUSH1 0x40 MSTORE DUP1 SWAP3 SWAP2 SWAP1 DUP2 DUP2 MSTORE PUSH1 0x20 ADD DUP3 DUP1 SLOAD PUSH2 0x18B SWAP1 PUSH2 0x477 JUMP JUMPDEST DUP1 ISZERO PUSH2 0x1D8 JUMPI DUP1 PUSH1 0x1F LT PUSH2 0x1AD JUMPI PUSH2 0x100 DUP1 DUP4 SLOAD DIV MUL DUP4 MSTORE SWAP2 PUSH1 0x20 ADD SWAP2 PUSH2 0x1D8 JUMP JUMPDEST DUP3 ADD SWAP2 SWAP1 PUSH1 0x0 MSTORE PUSH1 0x20 PUSH1 0x0 KECCAK256 SWAP1 JUMPDEST DUP2 SLOAD DUP2 MSTORE SWAP1 PUSH1 0x1 ADD SWAP1 PUSH1 0x20 ADD DUP1 DUP4 GT PUSH2 0x1BB JUMPI DUP3 SWAP1 SUB PUSH1 0x1F AND DUP3 ADD SWAP2 JUMPDEST POP POP POP POP POP DUP2 JUMP JUMPDEST PUSH1 0x4 PUSH1 0x0 SWAP1 SLOAD SWAP1 PUSH2 0x100 EXP SWAP1 DIV PUSH20 0xFFFFFFFFFFFFFFFFFFFFFFFFFFFFFFFFFFFFFFFF AND DUP2 JUMP JUMPDEST PUSH1 0x3 SLOAD DUP2 JUMP JUMPDEST PUSH1 0x2 SLOAD DUP2 JUMP JUMPDEST CALLER PUSH1 0x4 PUSH1 0x0 PUSH2 0x100 EXP DUP2 SLOAD DUP2 PUSH20 0xFFFFFFFFFFFFFFFFFFFFFFFFFFFFFFFFFFFFFFFF MUL NOT AND SWAP1 DUP4 PUSH20 0xFFFFFFFFFFFFFFFFFFFFFFFFFFFFFFFFFFFFFFFF AND MUL OR SWAP1 SSTORE POP JUMP JUMPDEST PUSH1 0x1 DUP1 SLOAD PUSH2 0x262 SWAP1 PUSH2 0x477 JUMP JUMPDEST DUP1 PUSH1 0x1F ADD PUSH1 0x20 DUP1 SWAP2 DIV MUL PUSH1 0x20 ADD PUSH1 0x40 MLOAD SWAP1 DUP2 ADD PUSH1 0x40 MSTORE DUP1 SWAP3 SWAP2 SWAP1 DUP2 DUP2 MSTORE PUSH1 0x20 ADD DUP3 DUP1 SLOAD PUSH2 0x28E SWAP1 PUSH2 0x477 JUMP JUMPDEST DUP1 ISZERO PUSH2 0x2DB JUMPI DUP1 PUSH1 0x1F LT PUSH2 0x2B0 JUMPI PUSH2 0x100 DUP1 DUP4 SLOAD DIV MUL DUP4 MSTORE SWAP2 PUSH1 0x20 ADD SWAP2 PUSH2 0x2DB JUMP JUMPDEST DUP3 ADD SWAP2 SWAP1 PUSH1 0x0 MSTORE PUSH1 0x20 PUSH1 0x0 KECCAK256 SWAP1 JUMPDEST DUP2 SLOAD DUP2 MSTORE SWAP1 PUSH1 0x1 ADD SWAP1 PUSH1 0x20 ADD DUP1 DUP4 GT PUSH2 0x2BE JUMPI DUP3 SWAP1 SUB PUSH1 0x1F AND DUP3 ADD SWAP2 JUMPDEST POP POP POP POP POP DUP2 JUMP JUMPDEST PUSH1 0x5 PUSH1 0x20 MSTORE DUP1 PUSH1 0x0 MSTORE PUSH1 0x40 PUSH1 0x0 KECCAK256 PUSH1 0x0 SWAP2 POP SWAP1 POP SLOAD DUP2 JUMP JUMPDEST PUSH1 0x0 DUP2 CALLDATALOAD SWAP1 POP PUSH2 0x30A DUP2 PUSH2 0x4EE JUMP JUMPDEST SWAP3 SWAP2 POP POP JUMP JUMPDEST PUSH1 0x0 PUSH1 0x20 DUP3 DUP5 SUB SLT ISZERO PUSH2 0x326 JUMPI PUSH2 0x325 PUSH2 0x4D8 JUMP JUMPDEST JUMPDEST PUSH1 0x0 PUSH2 0x334 DUP5 DUP3 DUP6 ADD PUSH2 0x2FB JUMP JUMPDEST SWAP2 POP POP SWAP3 SWAP2 POP POP JUMP JUMPDEST PUSH2 0x346 DUP2 PUSH2 0x408 JUMP JUMPDEST DUP3 MSTORE POP POP JUMP JUMPDEST PUSH1 0x0 PUSH2 0x357 DUP3 PUSH2 0x3EC JUMP JUMPDEST PUSH2 0x361 DUP2 DUP6 PUSH2 0x3F7 JUMP JUMPDEST SWAP4 POP PUSH2 0x371 DUP2 DUP6 PUSH1 0x20 DUP7 ADD PUSH2 0x444 JUMP JUMPDEST PUSH2 0x37A DUP2 PUSH2 0x4DD JUMP JUMPDEST DUP5 ADD SWAP2 POP POP SWAP3 SWAP2 POP POP JUMP JUMPDEST PUSH2 0x38E DUP2 PUSH2 0x43A JUMP JUMPDEST DUP3 MSTORE POP POP JUMP JUMPDEST PUSH1 0x0 PUSH1 0x20 DUP3 ADD SWAP1 POP PUSH2 0x3A9 PUSH1 0x0 DUP4 ADD DUP5 PUSH2 0x33D JUMP JUMPDEST SWAP3 SWAP2 POP POP JUMP JUMPDEST PUSH1 0x0 PUSH1 0x20 DUP3 ADD SWAP1 POP DUP2 DUP2 SUB PUSH1 0x0 DUP4 ADD MSTORE PUSH2 0x3C9 DUP2 DUP5 PUSH2 0x34C JUMP JUMPDEST SWAP1 POP SWAP3 SWAP2 POP POP JUMP JUMPDEST PUSH1 0x0 PUSH1 0x20 DUP3 ADD SWAP1 POP PUSH2 0x3E6 PUSH1 0x0 DUP4 ADD DUP5 PUSH2 0x385 JUMP JUMPDEST SWAP3 SWAP2 POP POP JUMP JUMPDEST PUSH1 0x0 DUP2 MLOAD SWAP1 POP SWAP2 SWAP1 POP JUMP JUMPDEST PUSH1 0x0 DUP3 DUP3 MSTORE PUSH1 0x20 DUP3 ADD SWAP1 POP SWAP3 SWAP2 POP POP JUMP JUMPDEST PUSH1 0x0 PUSH2 0x413 DUP3 PUSH2 0x41A JUMP JUMPDEST SWAP1 POP SWAP2 SWAP1 POP JUMP JUMPDEST PUSH1 0x0 PUSH20 0xFFFFFFFFFFFFFFFFFFFFFFFFFFFFFFFFFFFFFFFF DUP3 AND SWAP1 POP SWAP2 SWAP1 POP JUMP JUMPDEST PUSH1 0x0 DUP2 SWAP1 POP SWAP2 SWAP1 POP JUMP JUMPDEST PUSH1 0x0 JUMPDEST DUP4 DUP2 LT ISZERO PUSH2 0x462 JUMPI DUP1 DUP3 ADD MLOAD DUP2 DUP5 ADD MSTORE PUSH1 0x20 DUP2 ADD SWAP1 POP PUSH2 0x447 JUMP JUMPDEST DUP4 DUP2 GT ISZERO PUSH2 0x471 JUMPI PUSH1 0x0 DUP5 DUP5 ADD MSTORE JUMPDEST POP POP POP POP JUMP JUMPDEST PUSH1 0x0 PUSH1 0x2 DUP3 DIV SWAP1 POP PUSH1 0x1 DUP3 AND DUP1 PUSH2 0x48F JUMPI PUSH1 0x7F DUP3 AND SWAP2 POP JUMPDEST PUSH1 0x20 DUP3 LT DUP2 EQ ISZERO PUSH2 0x4A3 JUMPI PUSH2 0x4A2 PUSH2 0x4A9 JUMP JUMPDEST JUMPDEST POP SWAP2 SWAP1 POP JUMP JUMPDEST PUSH32 0x4E487B7100000000000000000000000000000000000000000000000000000000 PUSH1 0x0 MSTORE PUSH1 0x22 PUSH1 0x4 MSTORE PUSH1 0x24 PUSH1 0x0 REVERT JUMPDEST PUSH1 0x0 DUP1 REVERT JUMPDEST PUSH1 0x0 PUSH1 0x1F NOT PUSH1 0x1F DUP4 ADD AND SWAP1 POP SWAP2 SWAP1 POP JUMP JUMPDEST PUSH2 0x4F7 DUP2 PUSH2 0x408 JUMP JUMPDEST DUP2 EQ PUSH2 0x502 JUMPI PUSH1 0x0 DUP1 REVERT JUMPDEST POP JUMP INVALID LOG2 PUSH5 0x6970667358 0x22 SLT KECCAK256 0xD0 CREATE CREATE CALLDATALOAD DUP3 PUSH29 0xC3DA8836C68EAD81EE247F5B2A0586671A70FD32FE4E4534CEEA64736F PUSH13 0x63430008070033000000000000 "
				},
				"gasEstimates": {
					"creation": {
						"codeDepositCost": "267800",
						"executionCost": "infinite",
						"totalCost": "infinite"
					},
					"external": {
						"balance(address)": "2880",
						"decimal()": "2429",
						"minter()": "2537",
						"name()": "infinite",
						"owner()": "24432",
						"symbol()": "infinite",
						"totalSupply()": "2474"
					}
				},
				"methodIdentifiers": {
					"balance(address)": "e3d670d7",
					"decimal()": "76809ce3",
					"minter()": "07546172",
					"name()": "06fdde03",
					"owner()": "8da5cb5b",
					"symbol()": "95d89b41",
					"totalSupply()": "18160ddd"
				}
			},
			"storageLayout": {
				"storage": [
					{
						"astId": 4,
						"contract": "Token.sol:Token",
						"label": "name",
						"offset": 0,
						"slot": "0",
						"type": "t_string_storage"
					},
					{
						"astId": 7,
						"contract": "Token.sol:Token",
						"label": "symbol",
						"offset": 0,
						"slot": "1",
						"type": "t_string_storage"
					},
					{
						"astId": 10,
						"contract": "Token.sol:Token",
						"label": "decimal",
						"offset": 0,
						"slot": "2",
						"type": "t_uint256"
					},
					{
						"astId": 13,
						"contract": "Token.sol:Token",
						"label": "totalSupply",
						"offset": 0,
						"slot": "3",
						"type": "t_uint256"
					},
					{
						"astId": 15,
						"contract": "Token.sol:Token",
						"label": "minter",
						"offset": 0,
						"slot": "4",
						"type": "t_address"
					},
					{
						"astId": 19,
						"contract": "Token.sol:Token",
						"label": "balance",
						"offset": 0,
						"slot": "5",
						"type": "t_mapping(t_address,t_uint256)"
					}
				],
				"types": {
					"t_address": {
						"encoding": "inplace",
						"label": "address",
						"numberOfBytes": "20"
					},
					"t_mapping(t_address,t_uint256)": {
						"encoding": "mapping",
						"key": "t_address",
						"label": "mapping(address => uint256)",
						"numberOfBytes": "32",
						"value": "t_uint256"
					},
					"t_string_storage": {
						"encoding": "bytes",
						"label": "string",
						"numberOfBytes": "32"
					},
					"t_uint256": {
						"encoding": "inplace",
						"label": "uint256",
						"numberOfBytes": "32"
					}
				}
			},
			"userdoc": {
				"kind": "user",
				"methods": {},
				"version": 1
			}
		}
	}
}