{
	"TokenSell.sol": {
		"Tokensell": {
			"abi": [
				{
					"inputs": [
						{
							"internalType": "address",
							"name": "",
							"type": "address"
						}
					],
					"name": "_balance",
					"outputs": [
						{
							"internalType": "uint256",
							"name": "",
							"type": "uint256"
						}
					],
					"stateMutability": "view",
					"type": "function"
				},
				{
					"inputs": [],
					"name": "axsToken",
					"outputs": [
						{
							"internalType": "address",
							"name": "",
							"type": "address"
						}
					],
					"stateMutability": "view",
					"type": "function"
				},
				{
					"inputs": [
						{
							"internalType": "uint256",
							"name": "_starttime",
							"type": "uint256"
						},
						{
							"internalType": "uint256",
							"name": "_endtime",
							"type": "uint256"
						}
					],
					"name": "launch",
					"outputs": [],
					"stateMutability": "view",
					"type": "function"
				},
				{
					"inputs": [],
					"name": "price",
					"outputs": [
						{
							"internalType": "uint256",
							"name": "",
							"type": "uint256"
						}
					],
					"stateMutability": "view",
					"type": "function"
				},
				{
					"inputs": [
						{
							"internalType": "address",
							"name": "get",
							"type": "address"
						},
						{
							"internalType": "uint256",
							"name": "buynmu",
							"type": "uint256"
						}
					],
					"name": "sale",
					"outputs": [],
					"stateMutability": "nonpayable",
					"type": "function"
				},
				{
					"inputs": [],
					"name": "wuthdraw",
					"outputs": [],
					"stateMutability": "nonpayable",
					"type": "function"
				}
			],
			"devdoc": {
				"kind": "dev",
				"methods": {},
				"version": 1
			},
			"evm": {
				"assembly": "    /* \"TokenSell.sol\":125:1242  contract Tokensell{\r... */\n  mstore(0x40, 0x80)\n    /* \"TokenSell.sol\":177:188  1 * 10 * 18 */\n  0xb4\n    /* \"TokenSell.sol\":154:188  uint256 public price = 1 * 10 * 18 */\n  0x00\n  sstore\n    /* \"TokenSell.sol\":221:222  0 */\n  0x00\n    /* \"TokenSell.sol\":199:222  uint256 userbalance = 0 */\n  0x01\n  sstore\n    /* \"TokenSell.sol\":307:349  0x0aa7726bc0cB085A3C4fbE3B09b91DD7E27f7fea */\n  0x0aa7726bc0cb085a3c4fbe3b09b91dd7e27f7fea\n    /* \"TokenSell.sol\":281:349  address public axsToken = 0x0aa7726bc0cB085A3C4fbE3B09b91DD7E27f7fea */\n  0x04\n  exp(0x0100, 0x00)\n  dup2\n  sload\n  dup2\n  0xffffffffffffffffffffffffffffffffffffffff\n  mul\n  not\n  and\n  swap1\n  dup4\n  0xffffffffffffffffffffffffffffffffffffffff\n  and\n  mul\n  or\n  swap1\n  sstore\n  pop\n    /* \"TokenSell.sol\":125:1242  contract Tokensell{\r... */\n  callvalue\n  dup1\n  iszero\n  tag_1\n  jumpi\n  0x00\n  dup1\n  revert\ntag_1:\n  pop\n  dataSize(sub_0)\n  dup1\n  dataOffset(sub_0)\n  0x00\n  codecopy\n  0x00\n  return\nstop\n\nsub_0: assembly {\n        /* \"TokenSell.sol\":125:1242  contract Tokensell{\r... */\n      mstore(0x40, 0x80)\n      callvalue\n      dup1\n      iszero\n      tag_1\n      jumpi\n      0x00\n      dup1\n      revert\n    tag_1:\n      pop\n      jumpi(tag_2, lt(calldatasize, 0x04))\n      shr(0xe0, calldataload(0x00))\n      dup1\n      0x180dc0ac\n      eq\n      tag_3\n      jumpi\n      dup1\n      0x611efc09\n      eq\n      tag_4\n      jumpi\n      dup1\n      0x82760cd2\n      eq\n      tag_5\n      jumpi\n      dup1\n      0xa035b1fe\n      eq\n      tag_6\n      jumpi\n      dup1\n      0xb07d5526\n      eq\n      tag_7\n      jumpi\n      dup1\n      0xd3aceae2\n      eq\n      tag_8\n      jumpi\n    tag_2:\n      0x00\n      dup1\n      revert\n        /* \"TokenSell.sol\":281:349  address public axsToken = 0x0aa7726bc0cB085A3C4fbE3B09b91DD7E27f7fea */\n    tag_3:\n      tag_9\n      tag_10\n      jump\t// in\n    tag_9:\n      mload(0x40)\n      tag_11\n      swap2\n      swap1\n      tag_12\n      jump\t// in\n    tag_11:\n      mload(0x40)\n      dup1\n      swap2\n      sub\n      swap1\n      return\n        /* \"TokenSell.sol\":642:953  function sale(address get,uint256 buynmu)public{\r... */\n    tag_4:\n      tag_13\n      0x04\n      dup1\n      calldatasize\n      sub\n      dup2\n      add\n      swap1\n      tag_14\n      swap2\n      swap1\n      tag_15\n      jump\t// in\n    tag_14:\n      tag_16\n      jump\t// in\n    tag_13:\n      stop\n        /* \"TokenSell.sol\":409:636  function launch(uint _starttime , uint _endtime)external view{\r... */\n    tag_5:\n      tag_17\n      0x04\n      dup1\n      calldatasize\n      sub\n      dup2\n      add\n      swap1\n      tag_18\n      swap2\n      swap1\n      tag_19\n      jump\t// in\n    tag_18:\n      tag_20\n      jump\t// in\n    tag_17:\n      stop\n        /* \"TokenSell.sol\":154:188  uint256 public price = 1 * 10 * 18 */\n    tag_6:\n      tag_21\n      tag_22\n      jump\t// in\n    tag_21:\n      mload(0x40)\n      tag_23\n      swap2\n      swap1\n      tag_24\n      jump\t// in\n    tag_23:\n      mload(0x40)\n      dup1\n      swap2\n      sub\n      swap1\n      return\n        /* \"TokenSell.sol\":959:1233  function wuthdraw()public{\r... */\n    tag_7:\n      tag_25\n      tag_26\n      jump\t// in\n    tag_25:\n      stop\n        /* \"TokenSell.sol\":360:400  mapping(address => uint) public _balance */\n    tag_8:\n      tag_27\n      0x04\n      dup1\n      calldatasize\n      sub\n      dup2\n      add\n      swap1\n      tag_28\n      swap2\n      swap1\n      tag_29\n      jump\t// in\n    tag_28:\n      tag_30\n      jump\t// in\n    tag_27:\n      mload(0x40)\n      tag_31\n      swap2\n      swap1\n      tag_24\n      jump\t// in\n    tag_31:\n      mload(0x40)\n      dup1\n      swap2\n      sub\n      swap1\n      return\n        /* \"TokenSell.sol\":281:349  address public axsToken = 0x0aa7726bc0cB085A3C4fbE3B09b91DD7E27f7fea */\n    tag_10:\n      0x04\n      0x00\n      swap1\n      sload\n      swap1\n      0x0100\n      exp\n      swap1\n      div\n      0xffffffffffffffffffffffffffffffffffffffff\n      and\n      dup2\n      jump\t// out\n        /* \"TokenSell.sol\":642:953  function sale(address get,uint256 buynmu)public{\r... */\n    tag_16:\n        /* \"TokenSell.sol\":727:736  starttime */\n      sload(0x02)\n        /* \"TokenSell.sol\":708:723  block.timestamp */\n      timestamp\n        /* \"TokenSell.sol\":708:736  block.timestamp >= starttime */\n      lt\n      iszero\n        /* \"TokenSell.sol\":700:737  require(block.timestamp >= starttime) */\n      tag_33\n      jumpi\n      0x00\n      dup1\n      revert\n    tag_33:\n        /* \"TokenSell.sol\":775:782  endtime */\n      sload(0x03)\n        /* \"TokenSell.sol\":756:771  block.timestamp */\n      timestamp\n        /* \"TokenSell.sol\":756:782  block.timestamp <= endtime */\n      gt\n      iszero\n        /* \"TokenSell.sol\":748:783  require(block.timestamp <= endtime) */\n      tag_34\n      jumpi\n      0x00\n      dup1\n      revert\n    tag_34:\n        /* \"TokenSell.sol\":794:808  uint256 paynum */\n      0x00\n        /* \"TokenSell.sol\":828:836  10 ** 18 */\n      0x0de0b6b3a7640000\n        /* \"TokenSell.sol\":820:825  price */\n      sload(0x00)\n        /* \"TokenSell.sol\":811:817  buynmu */\n      dup4\n        /* \"TokenSell.sol\":811:825  buynmu * price */\n      tag_35\n      swap2\n      swap1\n      tag_36\n      jump\t// in\n    tag_35:\n        /* \"TokenSell.sol\":811:836  buynmu * price / 10 ** 18 */\n      tag_37\n      swap2\n      swap1\n      tag_38\n      jump\t// in\n    tag_37:\n        /* \"TokenSell.sol\":794:836  uint256 paynum = buynmu * price / 10 ** 18 */\n      swap1\n      pop\n        /* \"TokenSell.sol\":854:862  axsToken */\n      0x04\n      0x00\n      swap1\n      sload\n      swap1\n      0x0100\n      exp\n      swap1\n      div\n      0xffffffffffffffffffffffffffffffffffffffff\n      and\n        /* \"TokenSell.sol\":847:876  IERC20(axsToken).transferFrom */\n      0xffffffffffffffffffffffffffffffffffffffff\n      and\n      0x23b872dd\n        /* \"TokenSell.sol\":877:887  msg.sender */\n      caller\n        /* \"TokenSell.sol\":898:902  this */\n      address\n        /* \"TokenSell.sol\":904:910  paynum */\n      dup5\n        /* \"TokenSell.sol\":847:911  IERC20(axsToken).transferFrom(msg.sender , address(this),paynum) */\n      mload(0x40)\n      dup5\n      0xffffffff\n      and\n      0xe0\n      shl\n      dup2\n      mstore\n      0x04\n      add\n      tag_39\n      swap4\n      swap3\n      swap2\n      swap1\n      tag_40\n      jump\t// in\n    tag_39:\n      0x20\n      mload(0x40)\n      dup1\n      dup4\n      sub\n      dup2\n      0x00\n      dup8\n      dup1\n      extcodesize\n      iszero\n      dup1\n      iszero\n      tag_41\n      jumpi\n      0x00\n      dup1\n      revert\n    tag_41:\n      pop\n      gas\n      call\n      iszero\n      dup1\n      iszero\n      tag_43\n      jumpi\n      returndatasize\n      0x00\n      dup1\n      returndatacopy\n      revert(0x00, returndatasize)\n    tag_43:\n      pop\n      pop\n      pop\n      pop\n      mload(0x40)\n      returndatasize\n      not(0x1f)\n      0x1f\n      dup3\n      add\n      and\n      dup3\n      add\n      dup1\n      0x40\n      mstore\n      pop\n      dup2\n      add\n      swap1\n      tag_44\n      swap2\n      swap1\n      tag_45\n      jump\t// in\n    tag_44:\n      pop\n        /* \"TokenSell.sol\":939:945  buynmu */\n      dup2\n        /* \"TokenSell.sol\":922:930  _balance */\n      0x05\n        /* \"TokenSell.sol\":922:935  _balance[get] */\n      0x00\n        /* \"TokenSell.sol\":931:934  get */\n      dup6\n        /* \"TokenSell.sol\":922:935  _balance[get] */\n      0xffffffffffffffffffffffffffffffffffffffff\n      and\n      0xffffffffffffffffffffffffffffffffffffffff\n      and\n      dup2\n      mstore\n      0x20\n      add\n      swap1\n      dup2\n      mstore\n      0x20\n      add\n      0x00\n      keccak256\n      0x00\n        /* \"TokenSell.sol\":922:945  _balance[get] += buynmu */\n      dup3\n      dup3\n      sload\n      tag_46\n      swap2\n      swap1\n      tag_47\n      jump\t// in\n    tag_46:\n      swap3\n      pop\n      pop\n      dup2\n      swap1\n      sstore\n      pop\n        /* \"TokenSell.sol\":689:953  {\r... */\n      pop\n        /* \"TokenSell.sol\":642:953  function sale(address get,uint256 buynmu)public{\r... */\n      pop\n      pop\n      jump\t// out\n        /* \"TokenSell.sol\":409:636  function launch(uint _starttime , uint _endtime)external view{\r... */\n    tag_20:\n        /* \"TokenSell.sol\":503:518  block.timestamp */\n      timestamp\n        /* \"TokenSell.sol\":489:499  _starttime */\n      dup3\n        /* \"TokenSell.sol\":489:518  _starttime >= block.timestamp */\n      lt\n      iszero\n        /* \"TokenSell.sol\":481:519  require(_starttime >= block.timestamp) */\n      tag_49\n      jumpi\n      0x00\n      dup1\n      revert\n    tag_49:\n        /* \"TokenSell.sol\":550:560  _starttime */\n      dup2\n        /* \"TokenSell.sol\":538:546  _endtime */\n      dup2\n        /* \"TokenSell.sol\":538:560  _endtime >= _starttime */\n      lt\n      iszero\n        /* \"TokenSell.sol\":530:561  require(_endtime >= _starttime) */\n      tag_50\n      jumpi\n      0x00\n      dup1\n      revert\n    tag_50:\n        /* \"TokenSell.sol\":610:617  30 days */\n      0x278d00\n        /* \"TokenSell.sol\":592:607  block.timestamp */\n      timestamp\n        /* \"TokenSell.sol\":592:617  block.timestamp + 30 days */\n      tag_51\n      swap2\n      swap1\n      tag_47\n      jump\t// in\n    tag_51:\n        /* \"TokenSell.sol\":580:588  _endtime */\n      dup2\n        /* \"TokenSell.sol\":580:617  _endtime <= block.timestamp + 30 days */\n      gt\n      iszero\n        /* \"TokenSell.sol\":572:618  require(_endtime <= block.timestamp + 30 days) */\n      tag_52\n      jumpi\n      0x00\n      dup1\n      revert\n    tag_52:\n        /* \"TokenSell.sol\":409:636  function launch(uint _starttime , uint _endtime)external view{\r... */\n      pop\n      pop\n      jump\t// out\n        /* \"TokenSell.sol\":154:188  uint256 public price = 1 * 10 * 18 */\n    tag_22:\n      sload(0x00)\n      dup2\n      jump\t// out\n        /* \"TokenSell.sol\":959:1233  function wuthdraw()public{\r... */\n    tag_26:\n        /* \"TokenSell.sol\":1022:1031  starttime */\n      sload(0x02)\n        /* \"TokenSell.sol\":1003:1018  block.timestamp */\n      timestamp\n        /* \"TokenSell.sol\":1003:1031  block.timestamp >= starttime */\n      lt\n      iszero\n        /* \"TokenSell.sol\":995:1032  require(block.timestamp >= starttime) */\n      tag_54\n      jumpi\n      0x00\n      dup1\n      revert\n    tag_54:\n        /* \"TokenSell.sol\":1070:1077  endtime */\n      sload(0x03)\n        /* \"TokenSell.sol\":1051:1066  block.timestamp */\n      timestamp\n        /* \"TokenSell.sol\":1051:1077  block.timestamp <= endtime */\n      gt\n      iszero\n        /* \"TokenSell.sol\":1043:1078  require(block.timestamp <= endtime) */\n      tag_55\n      jumpi\n      0x00\n      dup1\n      revert\n    tag_55:\n        /* \"TokenSell.sol\":1089:1097  uint bal */\n      0x00\n        /* \"TokenSell.sol\":1107:1115  axsToken */\n      0x04\n      0x00\n      swap1\n      sload\n      swap1\n      0x0100\n      exp\n      swap1\n      div\n      0xffffffffffffffffffffffffffffffffffffffff\n      and\n        /* \"TokenSell.sol\":1100:1126  IERC20(axsToken).balanceOf */\n      0xffffffffffffffffffffffffffffffffffffffff\n      and\n      0x70a08231\n        /* \"TokenSell.sol\":1135:1139  this */\n      address\n        /* \"TokenSell.sol\":1100:1141  IERC20(axsToken).balanceOf(address(this)) */\n      mload(0x40)\n      dup3\n      0xffffffff\n      and\n      0xe0\n      shl\n      dup2\n      mstore\n      0x04\n      add\n      tag_56\n      swap2\n      swap1\n      tag_12\n      jump\t// in\n    tag_56:\n      0x20\n      mload(0x40)\n      dup1\n      dup4\n      sub\n      dup2\n      dup7\n      dup1\n      extcodesize\n      iszero\n      dup1\n      iszero\n      tag_57\n      jumpi\n      0x00\n      dup1\n      revert\n    tag_57:\n      pop\n      gas\n      staticcall\n      iszero\n      dup1\n      iszero\n      tag_59\n      jumpi\n      returndatasize\n      0x00\n      dup1\n      returndatacopy\n      revert(0x00, returndatasize)\n    tag_59:\n      pop\n      pop\n      pop\n      pop\n      mload(0x40)\n      returndatasize\n      not(0x1f)\n      0x1f\n      dup3\n      add\n      and\n      dup3\n      add\n      dup1\n      0x40\n      mstore\n      pop\n      dup2\n      add\n      swap1\n      tag_60\n      swap2\n      swap1\n      tag_61\n      jump\t// in\n    tag_60:\n        /* \"TokenSell.sol\":1089:1141  uint bal = IERC20(axsToken).balanceOf(address(this)) */\n      swap1\n      pop\n        /* \"TokenSell.sol\":1159:1167  axsToken */\n      0x04\n      0x00\n      swap1\n      sload\n      swap1\n      0x0100\n      exp\n      swap1\n      div\n      0xffffffffffffffffffffffffffffffffffffffff\n      and\n        /* \"TokenSell.sol\":1152:1177  IERC20(axsToken).transfer */\n      0xffffffffffffffffffffffffffffffffffffffff\n      and\n      0xa9059cbb\n        /* \"TokenSell.sol\":1178:1220  0xdDE601eBe61EC5fD0729125D4Fd89F0f3b32B296 */\n      0xdde601ebe61ec5fd0729125d4fd89f0f3b32b296\n        /* \"TokenSell.sol\":1221:1224  bal */\n      dup4\n        /* \"TokenSell.sol\":1152:1225  IERC20(axsToken).transfer(0xdDE601eBe61EC5fD0729125D4Fd89F0f3b32B296,bal) */\n      mload(0x40)\n      dup4\n      0xffffffff\n      and\n      0xe0\n      shl\n      dup2\n      mstore\n      0x04\n      add\n      tag_62\n      swap3\n      swap2\n      swap1\n      tag_63\n      jump\t// in\n    tag_62:\n      0x20\n      mload(0x40)\n      dup1\n      dup4\n      sub\n      dup2\n      0x00\n      dup8\n      dup1\n      extcodesize\n      iszero\n      dup1\n      iszero\n      tag_64\n      jumpi\n      0x00\n      dup1\n      revert\n    tag_64:\n      pop\n      gas\n      call\n      iszero\n      dup1\n      iszero\n      tag_66\n      jumpi\n      returndatasize\n      0x00\n      dup1\n      returndatacopy\n      revert(0x00, returndatasize)\n    tag_66:\n      pop\n      pop\n      pop\n      pop\n      mload(0x40)\n      returndatasize\n      not(0x1f)\n      0x1f\n      dup3\n      add\n      and\n      dup3\n      add\n      dup1\n      0x40\n      mstore\n      pop\n      dup2\n      add\n      swap1\n      tag_67\n      swap2\n      swap1\n      tag_45\n      jump\t// in\n    tag_67:\n      pop\n        /* \"TokenSell.sol\":984:1233  {\r... */\n      pop\n        /* \"TokenSell.sol\":959:1233  function wuthdraw()public{\r... */\n      jump\t// out\n        /* \"TokenSell.sol\":360:400  mapping(address => uint) public _balance */\n    tag_30:\n      mstore(0x20, 0x05)\n      dup1\n      0x00\n      mstore\n      keccak256(0x00, 0x40)\n      0x00\n      swap2\n      pop\n      swap1\n      pop\n      sload\n      dup2\n      jump\t// out\n        /* \"#utility.yul\":7:146   */\n    tag_69:\n        /* \"#utility.yul\":53:58   */\n      0x00\n        /* \"#utility.yul\":91:97   */\n      dup2\n        /* \"#utility.yul\":78:98   */\n      calldataload\n        /* \"#utility.yul\":69:98   */\n      swap1\n      pop\n        /* \"#utility.yul\":107:140   */\n      tag_71\n        /* \"#utility.yul\":134:139   */\n      dup2\n        /* \"#utility.yul\":107:140   */\n      tag_72\n      jump\t// in\n    tag_71:\n        /* \"#utility.yul\":7:146   */\n      swap3\n      swap2\n      pop\n      pop\n      jump\t// out\n        /* \"#utility.yul\":152:289   */\n    tag_73:\n        /* \"#utility.yul\":206:211   */\n      0x00\n        /* \"#utility.yul\":237:243   */\n      dup2\n        /* \"#utility.yul\":231:244   */\n      mload\n        /* \"#utility.yul\":222:244   */\n      swap1\n      pop\n        /* \"#utility.yul\":253:283   */\n      tag_75\n        /* \"#utility.yul\":277:282   */\n      dup2\n        /* \"#utility.yul\":253:283   */\n      tag_76\n      jump\t// in\n    tag_75:\n        /* \"#utility.yul\":152:289   */\n      swap3\n      swap2\n      pop\n      pop\n      jump\t// out\n        /* \"#utility.yul\":295:434   */\n    tag_77:\n        /* \"#utility.yul\":341:346   */\n      0x00\n        /* \"#utility.yul\":379:385   */\n      dup2\n        /* \"#utility.yul\":366:386   */\n      calldataload\n        /* \"#utility.yul\":357:386   */\n      swap1\n      pop\n        /* \"#utility.yul\":395:428   */\n      tag_79\n        /* \"#utility.yul\":422:427   */\n      dup2\n        /* \"#utility.yul\":395:428   */\n      tag_80\n      jump\t// in\n    tag_79:\n        /* \"#utility.yul\":295:434   */\n      swap3\n      swap2\n      pop\n      pop\n      jump\t// out\n        /* \"#utility.yul\":440:583   */\n    tag_81:\n        /* \"#utility.yul\":497:502   */\n      0x00\n        /* \"#utility.yul\":528:534   */\n      dup2\n        /* \"#utility.yul\":522:535   */\n      mload\n        /* \"#utility.yul\":513:535   */\n      swap1\n      pop\n        /* \"#utility.yul\":544:577   */\n      tag_83\n        /* \"#utility.yul\":571:576   */\n      dup2\n        /* \"#utility.yul\":544:577   */\n      tag_80\n      jump\t// in\n    tag_83:\n        /* \"#utility.yul\":440:583   */\n      swap3\n      swap2\n      pop\n      pop\n      jump\t// out\n        /* \"#utility.yul\":589:918   */\n    tag_29:\n        /* \"#utility.yul\":648:654   */\n      0x00\n        /* \"#utility.yul\":697:699   */\n      0x20\n        /* \"#utility.yul\":685:694   */\n      dup3\n        /* \"#utility.yul\":676:683   */\n      dup5\n        /* \"#utility.yul\":672:695   */\n      sub\n        /* \"#utility.yul\":668:700   */\n      slt\n        /* \"#utility.yul\":665:784   */\n      iszero\n      tag_85\n      jumpi\n        /* \"#utility.yul\":703:782   */\n      tag_86\n      tag_87\n      jump\t// in\n    tag_86:\n        /* \"#utility.yul\":665:784   */\n    tag_85:\n        /* \"#utility.yul\":823:824   */\n      0x00\n        /* \"#utility.yul\":848:901   */\n      tag_88\n        /* \"#utility.yul\":893:900   */\n      dup5\n        /* \"#utility.yul\":884:890   */\n      dup3\n        /* \"#utility.yul\":873:882   */\n      dup6\n        /* \"#utility.yul\":869:891   */\n      add\n        /* \"#utility.yul\":848:901   */\n      tag_69\n      jump\t// in\n    tag_88:\n        /* \"#utility.yul\":838:901   */\n      swap2\n      pop\n        /* \"#utility.yul\":794:911   */\n      pop\n        /* \"#utility.yul\":589:918   */\n      swap3\n      swap2\n      pop\n      pop\n      jump\t// out\n        /* \"#utility.yul\":924:1398   */\n    tag_15:\n        /* \"#utility.yul\":992:998   */\n      0x00\n        /* \"#utility.yul\":1000:1006   */\n      dup1\n        /* \"#utility.yul\":1049:1051   */\n      0x40\n        /* \"#utility.yul\":1037:1046   */\n      dup4\n        /* \"#utility.yul\":1028:1035   */\n      dup6\n        /* \"#utility.yul\":1024:1047   */\n      sub\n        /* \"#utility.yul\":1020:1052   */\n      slt\n        /* \"#utility.yul\":1017:1136   */\n      iszero\n      tag_90\n      jumpi\n        /* \"#utility.yul\":1055:1134   */\n      tag_91\n      tag_87\n      jump\t// in\n    tag_91:\n        /* \"#utility.yul\":1017:1136   */\n    tag_90:\n        /* \"#utility.yul\":1175:1176   */\n      0x00\n        /* \"#utility.yul\":1200:1253   */\n      tag_92\n        /* \"#utility.yul\":1245:1252   */\n      dup6\n        /* \"#utility.yul\":1236:1242   */\n      dup3\n        /* \"#utility.yul\":1225:1234   */\n      dup7\n        /* \"#utility.yul\":1221:1243   */\n      add\n        /* \"#utility.yul\":1200:1253   */\n      tag_69\n      jump\t// in\n    tag_92:\n        /* \"#utility.yul\":1190:1253   */\n      swap3\n      pop\n        /* \"#utility.yul\":1146:1263   */\n      pop\n        /* \"#utility.yul\":1302:1304   */\n      0x20\n        /* \"#utility.yul\":1328:1381   */\n      tag_93\n        /* \"#utility.yul\":1373:1380   */\n      dup6\n        /* \"#utility.yul\":1364:1370   */\n      dup3\n        /* \"#utility.yul\":1353:1362   */\n      dup7\n        /* \"#utility.yul\":1349:1371   */\n      add\n        /* \"#utility.yul\":1328:1381   */\n      tag_77\n      jump\t// in\n    tag_93:\n        /* \"#utility.yul\":1318:1381   */\n      swap2\n      pop\n        /* \"#utility.yul\":1273:1391   */\n      pop\n        /* \"#utility.yul\":924:1398   */\n      swap3\n      pop\n      swap3\n      swap1\n      pop\n      jump\t// out\n        /* \"#utility.yul\":1404:1749   */\n    tag_45:\n        /* \"#utility.yul\":1471:1477   */\n      0x00\n        /* \"#utility.yul\":1520:1522   */\n      0x20\n        /* \"#utility.yul\":1508:1517   */\n      dup3\n        /* \"#utility.yul\":1499:1506   */\n      dup5\n        /* \"#utility.yul\":1495:1518   */\n      sub\n        /* \"#utility.yul\":1491:1523   */\n      slt\n        /* \"#utility.yul\":1488:1607   */\n      iszero\n      tag_95\n      jumpi\n        /* \"#utility.yul\":1526:1605   */\n      tag_96\n      tag_87\n      jump\t// in\n    tag_96:\n        /* \"#utility.yul\":1488:1607   */\n    tag_95:\n        /* \"#utility.yul\":1646:1647   */\n      0x00\n        /* \"#utility.yul\":1671:1732   */\n      tag_97\n        /* \"#utility.yul\":1724:1731   */\n      dup5\n        /* \"#utility.yul\":1715:1721   */\n      dup3\n        /* \"#utility.yul\":1704:1713   */\n      dup6\n        /* \"#utility.yul\":1700:1722   */\n      add\n        /* \"#utility.yul\":1671:1732   */\n      tag_73\n      jump\t// in\n    tag_97:\n        /* \"#utility.yul\":1661:1732   */\n      swap2\n      pop\n        /* \"#utility.yul\":1617:1742   */\n      pop\n        /* \"#utility.yul\":1404:1749   */\n      swap3\n      swap2\n      pop\n      pop\n      jump\t// out\n        /* \"#utility.yul\":1755:2106   */\n    tag_61:\n        /* \"#utility.yul\":1825:1831   */\n      0x00\n        /* \"#utility.yul\":1874:1876   */\n      0x20\n        /* \"#utility.yul\":1862:1871   */\n      dup3\n        /* \"#utility.yul\":1853:1860   */\n      dup5\n        /* \"#utility.yul\":1849:1872   */\n      sub\n        /* \"#utility.yul\":1845:1877   */\n      slt\n        /* \"#utility.yul\":1842:1961   */\n      iszero\n      tag_99\n      jumpi\n        /* \"#utility.yul\":1880:1959   */\n      tag_100\n      tag_87\n      jump\t// in\n    tag_100:\n        /* \"#utility.yul\":1842:1961   */\n    tag_99:\n        /* \"#utility.yul\":2000:2001   */\n      0x00\n        /* \"#utility.yul\":2025:2089   */\n      tag_101\n        /* \"#utility.yul\":2081:2088   */\n      dup5\n        /* \"#utility.yul\":2072:2078   */\n      dup3\n        /* \"#utility.yul\":2061:2070   */\n      dup6\n        /* \"#utility.yul\":2057:2079   */\n      add\n        /* \"#utility.yul\":2025:2089   */\n      tag_81\n      jump\t// in\n    tag_101:\n        /* \"#utility.yul\":2015:2089   */\n      swap2\n      pop\n        /* \"#utility.yul\":1971:2099   */\n      pop\n        /* \"#utility.yul\":1755:2106   */\n      swap3\n      swap2\n      pop\n      pop\n      jump\t// out\n        /* \"#utility.yul\":2112:2586   */\n    tag_19:\n        /* \"#utility.yul\":2180:2186   */\n      0x00\n        /* \"#utility.yul\":2188:2194   */\n      dup1\n        /* \"#utility.yul\":2237:2239   */\n      0x40\n        /* \"#utility.yul\":2225:2234   */\n      dup4\n        /* \"#utility.yul\":2216:2223   */\n      dup6\n        /* \"#utility.yul\":2212:2235   */\n      sub\n        /* \"#utility.yul\":2208:2240   */\n      slt\n        /* \"#utility.yul\":2205:2324   */\n      iszero\n      tag_103\n      jumpi\n        /* \"#utility.yul\":2243:2322   */\n      tag_104\n      tag_87\n      jump\t// in\n    tag_104:\n        /* \"#utility.yul\":2205:2324   */\n    tag_103:\n        /* \"#utility.yul\":2363:2364   */\n      0x00\n        /* \"#utility.yul\":2388:2441   */\n      tag_105\n        /* \"#utility.yul\":2433:2440   */\n      dup6\n        /* \"#utility.yul\":2424:2430   */\n      dup3\n        /* \"#utility.yul\":2413:2422   */\n      dup7\n        /* \"#utility.yul\":2409:2431   */\n      add\n        /* \"#utility.yul\":2388:2441   */\n      tag_77\n      jump\t// in\n    tag_105:\n        /* \"#utility.yul\":2378:2441   */\n      swap3\n      pop\n        /* \"#utility.yul\":2334:2451   */\n      pop\n        /* \"#utility.yul\":2490:2492   */\n      0x20\n        /* \"#utility.yul\":2516:2569   */\n      tag_106\n        /* \"#utility.yul\":2561:2568   */\n      dup6\n        /* \"#utility.yul\":2552:2558   */\n      dup3\n        /* \"#utility.yul\":2541:2550   */\n      dup7\n        /* \"#utility.yul\":2537:2559   */\n      add\n        /* \"#utility.yul\":2516:2569   */\n      tag_77\n      jump\t// in\n    tag_106:\n        /* \"#utility.yul\":2506:2569   */\n      swap2\n      pop\n        /* \"#utility.yul\":2461:2579   */\n      pop\n        /* \"#utility.yul\":2112:2586   */\n      swap3\n      pop\n      swap3\n      swap1\n      pop\n      jump\t// out\n        /* \"#utility.yul\":2592:2710   */\n    tag_107:\n        /* \"#utility.yul\":2679:2703   */\n      tag_109\n        /* \"#utility.yul\":2697:2702   */\n      dup2\n        /* \"#utility.yul\":2679:2703   */\n      tag_110\n      jump\t// in\n    tag_109:\n        /* \"#utility.yul\":2674:2677   */\n      dup3\n        /* \"#utility.yul\":2667:2704   */\n      mstore\n        /* \"#utility.yul\":2592:2710   */\n      pop\n      pop\n      jump\t// out\n        /* \"#utility.yul\":2716:2834   */\n    tag_111:\n        /* \"#utility.yul\":2803:2827   */\n      tag_113\n        /* \"#utility.yul\":2821:2826   */\n      dup2\n        /* \"#utility.yul\":2803:2827   */\n      tag_114\n      jump\t// in\n    tag_113:\n        /* \"#utility.yul\":2798:2801   */\n      dup3\n        /* \"#utility.yul\":2791:2828   */\n      mstore\n        /* \"#utility.yul\":2716:2834   */\n      pop\n      pop\n      jump\t// out\n        /* \"#utility.yul\":2840:3062   */\n    tag_12:\n        /* \"#utility.yul\":2933:2937   */\n      0x00\n        /* \"#utility.yul\":2971:2973   */\n      0x20\n        /* \"#utility.yul\":2960:2969   */\n      dup3\n        /* \"#utility.yul\":2956:2974   */\n      add\n        /* \"#utility.yul\":2948:2974   */\n      swap1\n      pop\n        /* \"#utility.yul\":2984:3055   */\n      tag_116\n        /* \"#utility.yul\":3052:3053   */\n      0x00\n        /* \"#utility.yul\":3041:3050   */\n      dup4\n        /* \"#utility.yul\":3037:3054   */\n      add\n        /* \"#utility.yul\":3028:3034   */\n      dup5\n        /* \"#utility.yul\":2984:3055   */\n      tag_107\n      jump\t// in\n    tag_116:\n        /* \"#utility.yul\":2840:3062   */\n      swap3\n      swap2\n      pop\n      pop\n      jump\t// out\n        /* \"#utility.yul\":3068:3510   */\n    tag_40:\n        /* \"#utility.yul\":3217:3221   */\n      0x00\n        /* \"#utility.yul\":3255:3257   */\n      0x60\n        /* \"#utility.yul\":3244:3253   */\n      dup3\n        /* \"#utility.yul\":3240:3258   */\n      add\n        /* \"#utility.yul\":3232:3258   */\n      swap1\n      pop\n        /* \"#utility.yul\":3268:3339   */\n      tag_118\n        /* \"#utility.yul\":3336:3337   */\n      0x00\n        /* \"#utility.yul\":3325:3334   */\n      dup4\n        /* \"#utility.yul\":3321:3338   */\n      add\n        /* \"#utility.yul\":3312:3318   */\n      dup7\n        /* \"#utility.yul\":3268:3339   */\n      tag_107\n      jump\t// in\n    tag_118:\n        /* \"#utility.yul\":3349:3421   */\n      tag_119\n        /* \"#utility.yul\":3417:3419   */\n      0x20\n        /* \"#utility.yul\":3406:3415   */\n      dup4\n        /* \"#utility.yul\":3402:3420   */\n      add\n        /* \"#utility.yul\":3393:3399   */\n      dup6\n        /* \"#utility.yul\":3349:3421   */\n      tag_107\n      jump\t// in\n    tag_119:\n        /* \"#utility.yul\":3431:3503   */\n      tag_120\n        /* \"#utility.yul\":3499:3501   */\n      0x40\n        /* \"#utility.yul\":3488:3497   */\n      dup4\n        /* \"#utility.yul\":3484:3502   */\n      add\n        /* \"#utility.yul\":3475:3481   */\n      dup5\n        /* \"#utility.yul\":3431:3503   */\n      tag_111\n      jump\t// in\n    tag_120:\n        /* \"#utility.yul\":3068:3510   */\n      swap5\n      swap4\n      pop\n      pop\n      pop\n      pop\n      jump\t// out\n        /* \"#utility.yul\":3516:3848   */\n    tag_63:\n        /* \"#utility.yul\":3637:3641   */\n      0x00\n        /* \"#utility.yul\":3675:3677   */\n      0x40\n        /* \"#utility.yul\":3664:3673   */\n      dup3\n        /* \"#utility.yul\":3660:3678   */\n      add\n        /* \"#utility.yul\":3652:3678   */\n      swap1\n      pop\n        /* \"#utility.yul\":3688:3759   */\n      tag_122\n        /* \"#utility.yul\":3756:3757   */\n      0x00\n        /* \"#utility.yul\":3745:3754   */\n      dup4\n        /* \"#utility.yul\":3741:3758   */\n      add\n        /* \"#utility.yul\":3732:3738   */\n      dup6\n        /* \"#utility.yul\":3688:3759   */\n      tag_107\n      jump\t// in\n    tag_122:\n        /* \"#utility.yul\":3769:3841   */\n      tag_123\n        /* \"#utility.yul\":3837:3839   */\n      0x20\n        /* \"#utility.yul\":3826:3835   */\n      dup4\n        /* \"#utility.yul\":3822:3840   */\n      add\n        /* \"#utility.yul\":3813:3819   */\n      dup5\n        /* \"#utility.yul\":3769:3841   */\n      tag_111\n      jump\t// in\n    tag_123:\n        /* \"#utility.yul\":3516:3848   */\n      swap4\n      swap3\n      pop\n      pop\n      pop\n      jump\t// out\n        /* \"#utility.yul\":3854:4076   */\n    tag_24:\n        /* \"#utility.yul\":3947:3951   */\n      0x00\n        /* \"#utility.yul\":3985:3987   */\n      0x20\n        /* \"#utility.yul\":3974:3983   */\n      dup3\n        /* \"#utility.yul\":3970:3988   */\n      add\n        /* \"#utility.yul\":3962:3988   */\n      swap1\n      pop\n        /* \"#utility.yul\":3998:4069   */\n      tag_125\n        /* \"#utility.yul\":4066:4067   */\n      0x00\n        /* \"#utility.yul\":4055:4064   */\n      dup4\n        /* \"#utility.yul\":4051:4068   */\n      add\n        /* \"#utility.yul\":4042:4048   */\n      dup5\n        /* \"#utility.yul\":3998:4069   */\n      tag_111\n      jump\t// in\n    tag_125:\n        /* \"#utility.yul\":3854:4076   */\n      swap3\n      swap2\n      pop\n      pop\n      jump\t// out\n        /* \"#utility.yul\":4163:4468   */\n    tag_47:\n        /* \"#utility.yul\":4203:4206   */\n      0x00\n        /* \"#utility.yul\":4222:4242   */\n      tag_129\n        /* \"#utility.yul\":4240:4241   */\n      dup3\n        /* \"#utility.yul\":4222:4242   */\n      tag_114\n      jump\t// in\n    tag_129:\n        /* \"#utility.yul\":4217:4242   */\n      swap2\n      pop\n        /* \"#utility.yul\":4256:4276   */\n      tag_130\n        /* \"#utility.yul\":4274:4275   */\n      dup4\n        /* \"#utility.yul\":4256:4276   */\n      tag_114\n      jump\t// in\n    tag_130:\n        /* \"#utility.yul\":4251:4276   */\n      swap3\n      pop\n        /* \"#utility.yul\":4410:4411   */\n      dup3\n        /* \"#utility.yul\":4342:4408   */\n      0xffffffffffffffffffffffffffffffffffffffffffffffffffffffffffffffff\n        /* \"#utility.yul\":4338:4412   */\n      sub\n        /* \"#utility.yul\":4335:4336   */\n      dup3\n        /* \"#utility.yul\":4332:4413   */\n      gt\n        /* \"#utility.yul\":4329:4436   */\n      iszero\n      tag_131\n      jumpi\n        /* \"#utility.yul\":4416:4434   */\n      tag_132\n      tag_133\n      jump\t// in\n    tag_132:\n        /* \"#utility.yul\":4329:4436   */\n    tag_131:\n        /* \"#utility.yul\":4460:4461   */\n      dup3\n        /* \"#utility.yul\":4457:4458   */\n      dup3\n        /* \"#utility.yul\":4453:4462   */\n      add\n        /* \"#utility.yul\":4446:4462   */\n      swap1\n      pop\n        /* \"#utility.yul\":4163:4468   */\n      swap3\n      swap2\n      pop\n      pop\n      jump\t// out\n        /* \"#utility.yul\":4474:4659   */\n    tag_38:\n        /* \"#utility.yul\":4514:4515   */\n      0x00\n        /* \"#utility.yul\":4531:4551   */\n      tag_135\n        /* \"#utility.yul\":4549:4550   */\n      dup3\n        /* \"#utility.yul\":4531:4551   */\n      tag_114\n      jump\t// in\n    tag_135:\n        /* \"#utility.yul\":4526:4551   */\n      swap2\n      pop\n        /* \"#utility.yul\":4565:4585   */\n      tag_136\n        /* \"#utility.yul\":4583:4584   */\n      dup4\n        /* \"#utility.yul\":4565:4585   */\n      tag_114\n      jump\t// in\n    tag_136:\n        /* \"#utility.yul\":4560:4585   */\n      swap3\n      pop\n        /* \"#utility.yul\":4604:4605   */\n      dup3\n        /* \"#utility.yul\":4594:4629   */\n      tag_137\n      jumpi\n        /* \"#utility.yul\":4609:4627   */\n      tag_138\n      tag_139\n      jump\t// in\n    tag_138:\n        /* \"#utility.yul\":4594:4629   */\n    tag_137:\n        /* \"#utility.yul\":4651:4652   */\n      dup3\n        /* \"#utility.yul\":4648:4649   */\n      dup3\n        /* \"#utility.yul\":4644:4653   */\n      div\n        /* \"#utility.yul\":4639:4653   */\n      swap1\n      pop\n        /* \"#utility.yul\":4474:4659   */\n      swap3\n      swap2\n      pop\n      pop\n      jump\t// out\n        /* \"#utility.yul\":4665:5013   */\n    tag_36:\n        /* \"#utility.yul\":4705:4712   */\n      0x00\n        /* \"#utility.yul\":4728:4748   */\n      tag_141\n        /* \"#utility.yul\":4746:4747   */\n      dup3\n        /* \"#utility.yul\":4728:4748   */\n      tag_114\n      jump\t// in\n    tag_141:\n        /* \"#utility.yul\":4723:4748   */\n      swap2\n      pop\n        /* \"#utility.yul\":4762:4782   */\n      tag_142\n        /* \"#utility.yul\":4780:4781   */\n      dup4\n        /* \"#utility.yul\":4762:4782   */\n      tag_114\n      jump\t// in\n    tag_142:\n        /* \"#utility.yul\":4757:4782   */\n      swap3\n      pop\n        /* \"#utility.yul\":4950:4951   */\n      dup2\n        /* \"#utility.yul\":4882:4948   */\n      0xffffffffffffffffffffffffffffffffffffffffffffffffffffffffffffffff\n        /* \"#utility.yul\":4878:4952   */\n      div\n        /* \"#utility.yul\":4875:4876   */\n      dup4\n        /* \"#utility.yul\":4872:4953   */\n      gt\n        /* \"#utility.yul\":4867:4868   */\n      dup3\n        /* \"#utility.yul\":4860:4869   */\n      iszero\n        /* \"#utility.yul\":4853:4870   */\n      iszero\n        /* \"#utility.yul\":4849:4954   */\n      and\n        /* \"#utility.yul\":4846:4977   */\n      iszero\n      tag_143\n      jumpi\n        /* \"#utility.yul\":4957:4975   */\n      tag_144\n      tag_133\n      jump\t// in\n    tag_144:\n        /* \"#utility.yul\":4846:4977   */\n    tag_143:\n        /* \"#utility.yul\":5005:5006   */\n      dup3\n        /* \"#utility.yul\":5002:5003   */\n      dup3\n        /* \"#utility.yul\":4998:5007   */\n      mul\n        /* \"#utility.yul\":4987:5007   */\n      swap1\n      pop\n        /* \"#utility.yul\":4665:5013   */\n      swap3\n      swap2\n      pop\n      pop\n      jump\t// out\n        /* \"#utility.yul\":5019:5115   */\n    tag_110:\n        /* \"#utility.yul\":5056:5063   */\n      0x00\n        /* \"#utility.yul\":5085:5109   */\n      tag_146\n        /* \"#utility.yul\":5103:5108   */\n      dup3\n        /* \"#utility.yul\":5085:5109   */\n      tag_147\n      jump\t// in\n    tag_146:\n        /* \"#utility.yul\":5074:5109   */\n      swap1\n      pop\n        /* \"#utility.yul\":5019:5115   */\n      swap2\n      swap1\n      pop\n      jump\t// out\n        /* \"#utility.yul\":5121:5211   */\n    tag_148:\n        /* \"#utility.yul\":5155:5162   */\n      0x00\n        /* \"#utility.yul\":5198:5203   */\n      dup2\n        /* \"#utility.yul\":5191:5204   */\n      iszero\n        /* \"#utility.yul\":5184:5205   */\n      iszero\n        /* \"#utility.yul\":5173:5205   */\n      swap1\n      pop\n        /* \"#utility.yul\":5121:5211   */\n      swap2\n      swap1\n      pop\n      jump\t// out\n        /* \"#utility.yul\":5217:5343   */\n    tag_147:\n        /* \"#utility.yul\":5254:5261   */\n      0x00\n        /* \"#utility.yul\":5294:5336   */\n      0xffffffffffffffffffffffffffffffffffffffff\n        /* \"#utility.yul\":5287:5292   */\n      dup3\n        /* \"#utility.yul\":5283:5337   */\n      and\n        /* \"#utility.yul\":5272:5337   */\n      swap1\n      pop\n        /* \"#utility.yul\":5217:5343   */\n      swap2\n      swap1\n      pop\n      jump\t// out\n        /* \"#utility.yul\":5349:5426   */\n    tag_114:\n        /* \"#utility.yul\":5386:5393   */\n      0x00\n        /* \"#utility.yul\":5415:5420   */\n      dup2\n        /* \"#utility.yul\":5404:5420   */\n      swap1\n      pop\n        /* \"#utility.yul\":5349:5426   */\n      swap2\n      swap1\n      pop\n      jump\t// out\n        /* \"#utility.yul\":5432:5612   */\n    tag_133:\n        /* \"#utility.yul\":5480:5557   */\n      0x4e487b7100000000000000000000000000000000000000000000000000000000\n        /* \"#utility.yul\":5477:5478   */\n      0x00\n        /* \"#utility.yul\":5470:5558   */\n      mstore\n        /* \"#utility.yul\":5577:5581   */\n      0x11\n        /* \"#utility.yul\":5574:5575   */\n      0x04\n        /* \"#utility.yul\":5567:5582   */\n      mstore\n        /* \"#utility.yul\":5601:5605   */\n      0x24\n        /* \"#utility.yul\":5598:5599   */\n      0x00\n        /* \"#utility.yul\":5591:5606   */\n      revert\n        /* \"#utility.yul\":5618:5798   */\n    tag_139:\n        /* \"#utility.yul\":5666:5743   */\n      0x4e487b7100000000000000000000000000000000000000000000000000000000\n        /* \"#utility.yul\":5663:5664   */\n      0x00\n        /* \"#utility.yul\":5656:5744   */\n      mstore\n        /* \"#utility.yul\":5763:5767   */\n      0x12\n        /* \"#utility.yul\":5760:5761   */\n      0x04\n        /* \"#utility.yul\":5753:5768   */\n      mstore\n        /* \"#utility.yul\":5787:5791   */\n      0x24\n        /* \"#utility.yul\":5784:5785   */\n      0x00\n        /* \"#utility.yul\":5777:5792   */\n      revert\n        /* \"#utility.yul\":5927:6044   */\n    tag_87:\n        /* \"#utility.yul\":6036:6037   */\n      0x00\n        /* \"#utility.yul\":6033:6034   */\n      dup1\n        /* \"#utility.yul\":6026:6038   */\n      revert\n        /* \"#utility.yul\":6050:6172   */\n    tag_72:\n        /* \"#utility.yul\":6123:6147   */\n      tag_158\n        /* \"#utility.yul\":6141:6146   */\n      dup2\n        /* \"#utility.yul\":6123:6147   */\n      tag_110\n      jump\t// in\n    tag_158:\n        /* \"#utility.yul\":6116:6121   */\n      dup2\n        /* \"#utility.yul\":6113:6148   */\n      eq\n        /* \"#utility.yul\":6103:6166   */\n      tag_159\n      jumpi\n        /* \"#utility.yul\":6162:6163   */\n      0x00\n        /* \"#utility.yul\":6159:6160   */\n      dup1\n        /* \"#utility.yul\":6152:6164   */\n      revert\n        /* \"#utility.yul\":6103:6166   */\n    tag_159:\n        /* \"#utility.yul\":6050:6172   */\n      pop\n      jump\t// out\n        /* \"#utility.yul\":6178:6294   */\n    tag_76:\n        /* \"#utility.yul\":6248:6269   */\n      tag_161\n        /* \"#utility.yul\":6263:6268   */\n      dup2\n        /* \"#utility.yul\":6248:6269   */\n      tag_148\n      jump\t// in\n    tag_161:\n        /* \"#utility.yul\":6241:6246   */\n      dup2\n        /* \"#utility.yul\":6238:6270   */\n      eq\n        /* \"#utility.yul\":6228:6288   */\n      tag_162\n      jumpi\n        /* \"#utility.yul\":6284:6285   */\n      0x00\n        /* \"#utility.yul\":6281:6282   */\n      dup1\n        /* \"#utility.yul\":6274:6286   */\n      revert\n        /* \"#utility.yul\":6228:6288   */\n    tag_162:\n        /* \"#utility.yul\":6178:6294   */\n      pop\n      jump\t// out\n        /* \"#utility.yul\":6300:6422   */\n    tag_80:\n        /* \"#utility.yul\":6373:6397   */\n      tag_164\n        /* \"#utility.yul\":6391:6396   */\n      dup2\n        /* \"#utility.yul\":6373:6397   */\n      tag_114\n      jump\t// in\n    tag_164:\n        /* \"#utility.yul\":6366:6371   */\n      dup2\n        /* \"#utility.yul\":6363:6398   */\n      eq\n        /* \"#utility.yul\":6353:6416   */\n      tag_165\n      jumpi\n        /* \"#utility.yul\":6412:6413   */\n      0x00\n        /* \"#utility.yul\":6409:6410   */\n      dup1\n        /* \"#utility.yul\":6402:6414   */\n      revert\n        /* \"#utility.yul\":6353:6416   */\n    tag_165:\n        /* \"#utility.yul\":6300:6422   */\n      pop\n      jump\t// out\n\n    auxdata: 0xa2646970667358221220af4868ebb92164f5d2e00676fc54b81fdff1947f311874c73ee50cb5f6f78f1664736f6c63430008070033\n}\n",
				"bytecode": {
					"linkReferences": {},
					"object": "608060405260b46000556000600155730aa7726bc0cb085a3c4fbe3b09b91dd7e27f7fea600460006101000a81548173ffffffffffffffffffffffffffffffffffffffff021916908373ffffffffffffffffffffffffffffffffffffffff16021790555034801561006f57600080fd5b5061088c8061007f6000396000f3fe608060405234801561001057600080fd5b50600436106100625760003560e01c8063180dc0ac14610067578063611efc091461008557806382760cd2146100a1578063a035b1fe146100bd578063b07d5526146100db578063d3aceae2146100e5575b600080fd5b61006f610115565b60405161007c91906105ef565b60405180910390f35b61009f600480360381019061009a91906104f7565b61013b565b005b6100bb60048036038101906100b69190610591565b61028b565b005b6100c56102c4565b6040516100d2919061066a565b60405180910390f35b6100e36102ca565b005b6100ff60048036038101906100fa91906104ca565b61045e565b60405161010c919061066a565b60405180910390f35b600460009054906101000a900473ffffffffffffffffffffffffffffffffffffffff1681565b60025442101561014a57600080fd5b60035442111561015957600080fd5b6000670de0b6b3a764000060005483610172919061070c565b61017c91906106db565b9050600460009054906101000a900473ffffffffffffffffffffffffffffffffffffffff1673ffffffffffffffffffffffffffffffffffffffff166323b872dd3330846040518463ffffffff1660e01b81526004016101dd9392919061060a565b602060405180830381600087803b1580156101f757600080fd5b505af115801561020b573d6000803e3d6000fd5b505050506040513d601f19601f8201168201806040525081019061022f9190610537565b5081600560008573ffffffffffffffffffffffffffffffffffffffff1673ffffffffffffffffffffffffffffffffffffffff168152602001908152602001600020600082825461027f9190610685565b92505081905550505050565b4282101561029857600080fd5b818110156102a557600080fd5b62278d00426102b49190610685565b8111156102c057600080fd5b5050565b60005481565b6002544210156102d957600080fd5b6003544211156102e857600080fd5b6000600460009054906101000a900473ffffffffffffffffffffffffffffffffffffffff1673ffffffffffffffffffffffffffffffffffffffff166370a08231306040518263ffffffff1660e01b815260040161034591906105ef565b60206040518083038186803b15801561035d57600080fd5b505afa158015610371573d6000803e3d6000fd5b505050506040513d601f19601f820116820180604052508101906103959190610564565b9050600460009054906101000a900473ffffffffffffffffffffffffffffffffffffffff1673ffffffffffffffffffffffffffffffffffffffff1663a9059cbb73dde601ebe61ec5fd0729125d4fd89f0f3b32b296836040518363ffffffff1660e01b8152600401610408929190610641565b602060405180830381600087803b15801561042257600080fd5b505af1158015610436573d6000803e3d6000fd5b505050506040513d601f19601f8201168201806040525081019061045a9190610537565b5050565b60056020528060005260406000206000915090505481565b60008135905061048581610811565b92915050565b60008151905061049a81610828565b92915050565b6000813590506104af8161083f565b92915050565b6000815190506104c48161083f565b92915050565b6000602082840312156104e0576104df61080c565b5b60006104ee84828501610476565b91505092915050565b6000806040838503121561050e5761050d61080c565b5b600061051c85828601610476565b925050602061052d858286016104a0565b9150509250929050565b60006020828403121561054d5761054c61080c565b5b600061055b8482850161048b565b91505092915050565b60006020828403121561057a5761057961080c565b5b6000610588848285016104b5565b91505092915050565b600080604083850312156105a8576105a761080c565b5b60006105b6858286016104a0565b92505060206105c7858286016104a0565b9150509250929050565b6105da81610766565b82525050565b6105e9816107a4565b82525050565b600060208201905061060460008301846105d1565b92915050565b600060608201905061061f60008301866105d1565b61062c60208301856105d1565b61063960408301846105e0565b949350505050565b600060408201905061065660008301856105d1565b61066360208301846105e0565b9392505050565b600060208201905061067f60008301846105e0565b92915050565b6000610690826107a4565b915061069b836107a4565b9250827fffffffffffffffffffffffffffffffffffffffffffffffffffffffffffffffff038211156106d0576106cf6107ae565b5b828201905092915050565b60006106e6826107a4565b91506106f1836107a4565b925082610701576107006107dd565b5b828204905092915050565b6000610717826107a4565b9150610722836107a4565b9250817fffffffffffffffffffffffffffffffffffffffffffffffffffffffffffffffff048311821515161561075b5761075a6107ae565b5b828202905092915050565b600061077182610784565b9050919050565b60008115159050919050565b600073ffffffffffffffffffffffffffffffffffffffff82169050919050565b6000819050919050565b7f4e487b7100000000000000000000000000000000000000000000000000000000600052601160045260246000fd5b7f4e487b7100000000000000000000000000000000000000000000000000000000600052601260045260246000fd5b600080fd5b61081a81610766565b811461082557600080fd5b50565b61083181610778565b811461083c57600080fd5b50565b610848816107a4565b811461085357600080fd5b5056fea2646970667358221220af4868ebb92164f5d2e00676fc54b81fdff1947f311874c73ee50cb5f6f78f1664736f6c63430008070033",
					"opcodes": "PUSH1 0x80 PUSH1 0x40 MSTORE PUSH1 0xB4 PUSH1 0x0 SSTORE PUSH1 0x0 PUSH1 0x1 SSTORE PUSH20 0xAA7726BC0CB085A3C4FBE3B09B91DD7E27F7FEA PUSH1 0x4 PUSH1 0x0 PUSH2 0x100 EXP DUP2 SLOAD DUP2 PUSH20 0xFFFFFFFFFFFFFFFFFFFFFFFFFFFFFFFFFFFFFFFF MUL NOT AND SWAP1 DUP4 PUSH20 0xFFFFFFFFFFFFFFFFFFFFFFFFFFFFFFFFFFFFFFFF AND MUL OR SWAP1 SSTORE POP CALLVALUE DUP1 ISZERO PUSH2 0x6F JUMPI PUSH1 0x0 DUP1 REVERT JUMPDEST POP PUSH2 0x88C DUP1 PUSH2 0x7F PUSH1 0x0 CODECOPY PUSH1 0x0 RETURN INVALID PUSH1 0x80 PUSH1 0x40 MSTORE CALLVALUE DUP1 ISZERO PUSH2 0x10 JUMPI PUSH1 0x0 DUP1 REVERT JUMPDEST POP PUSH1 0x4 CALLDATASIZE LT PUSH2 0x62 JUMPI PUSH1 0x0 CALLDATALOAD PUSH1 0xE0 SHR DUP1 PUSH4 0x180DC0AC EQ PUSH2 0x67 JUMPI DUP1 PUSH4 0x611EFC09 EQ PUSH2 0x85 JUMPI DUP1 PUSH4 0x82760CD2 EQ PUSH2 0xA1 JUMPI DUP1 PUSH4 0xA035B1FE EQ PUSH2 0xBD JUMPI DUP1 PUSH4 0xB07D5526 EQ PUSH2 0xDB JUMPI DUP1 PUSH4 0xD3ACEAE2 EQ PUSH2 0xE5 JUMPI JUMPDEST PUSH1 0x0 DUP1 REVERT JUMPDEST PUSH2 0x6F PUSH2 0x115 JUMP JUMPDEST PUSH1 0x40 MLOAD PUSH2 0x7C SWAP2 SWAP1 PUSH2 0x5EF JUMP JUMPDEST PUSH1 0x40 MLOAD DUP1 SWAP2 SUB SWAP1 RETURN JUMPDEST PUSH2 0x9F PUSH1 0x4 DUP1 CALLDATASIZE SUB DUP2 ADD SWAP1 PUSH2 0x9A SWAP2 SWAP1 PUSH2 0x4F7 JUMP JUMPDEST PUSH2 0x13B JUMP JUMPDEST STOP JUMPDEST PUSH2 0xBB PUSH1 0x4 DUP1 CALLDATASIZE SUB DUP2 ADD SWAP1 PUSH2 0xB6 SWAP2 SWAP1 PUSH2 0x591 JUMP JUMPDEST PUSH2 0x28B JUMP JUMPDEST STOP JUMPDEST PUSH2 0xC5 PUSH2 0x2C4 JUMP JUMPDEST PUSH1 0x40 MLOAD PUSH2 0xD2 SWAP2 SWAP1 PUSH2 0x66A JUMP JUMPDEST PUSH1 0x40 MLOAD DUP1 SWAP2 SUB SWAP1 RETURN JUMPDEST PUSH2 0xE3 PUSH2 0x2CA JUMP JUMPDEST STOP JUMPDEST PUSH2 0xFF PUSH1 0x4 DUP1 CALLDATASIZE SUB DUP2 ADD SWAP1 PUSH2 0xFA SWAP2 SWAP1 PUSH2 0x4CA JUMP JUMPDEST PUSH2 0x45E JUMP JUMPDEST PUSH1 0x40 MLOAD PUSH2 0x10C SWAP2 SWAP1 PUSH2 0x66A JUMP JUMPDEST PUSH1 0x40 MLOAD DUP1 SWAP2 SUB SWAP1 RETURN JUMPDEST PUSH1 0x4 PUSH1 0x0 SWAP1 SLOAD SWAP1 PUSH2 0x100 EXP SWAP1 DIV PUSH20 0xFFFFFFFFFFFFFFFFFFFFFFFFFFFFFFFFFFFFFFFF AND DUP2 JUMP JUMPDEST PUSH1 0x2 SLOAD TIMESTAMP LT ISZERO PUSH2 0x14A JUMPI PUSH1 0x0 DUP1 REVERT JUMPDEST PUSH1 0x3 SLOAD TIMESTAMP GT ISZERO PUSH2 0x159 JUMPI PUSH1 0x0 DUP1 REVERT JUMPDEST PUSH1 0x0 PUSH8 0xDE0B6B3A7640000 PUSH1 0x0 SLOAD DUP4 PUSH2 0x172 SWAP2 SWAP1 PUSH2 0x70C JUMP JUMPDEST PUSH2 0x17C SWAP2 SWAP1 PUSH2 0x6DB JUMP JUMPDEST SWAP1 POP PUSH1 0x4 PUSH1 0x0 SWAP1 SLOAD SWAP1 PUSH2 0x100 EXP SWAP1 DIV PUSH20 0xFFFFFFFFFFFFFFFFFFFFFFFFFFFFFFFFFFFFFFFF AND PUSH20 0xFFFFFFFFFFFFFFFFFFFFFFFFFFFFFFFFFFFFFFFF AND PUSH4 0x23B872DD CALLER ADDRESS DUP5 PUSH1 0x40 MLOAD DUP5 PUSH4 0xFFFFFFFF AND PUSH1 0xE0 SHL DUP2 MSTORE PUSH1 0x4 ADD PUSH2 0x1DD SWAP4 SWAP3 SWAP2 SWAP1 PUSH2 0x60A JUMP JUMPDEST PUSH1 0x20 PUSH1 0x40 MLOAD DUP1 DUP4 SUB DUP2 PUSH1 0x0 DUP8 DUP1 EXTCODESIZE ISZERO DUP1 ISZERO PUSH2 0x1F7 JUMPI PUSH1 0x0 DUP1 REVERT JUMPDEST POP GAS CALL ISZERO DUP1 ISZERO PUSH2 0x20B JUMPI RETURNDATASIZE PUSH1 0x0 DUP1 RETURNDATACOPY RETURNDATASIZE PUSH1 0x0 REVERT JUMPDEST POP POP POP POP PUSH1 0x40 MLOAD RETURNDATASIZE PUSH1 0x1F NOT PUSH1 0x1F DUP3 ADD AND DUP3 ADD DUP1 PUSH1 0x40 MSTORE POP DUP2 ADD SWAP1 PUSH2 0x22F SWAP2 SWAP1 PUSH2 0x537 JUMP JUMPDEST POP DUP2 PUSH1 0x5 PUSH1 0x0 DUP6 PUSH20 0xFFFFFFFFFFFFFFFFFFFFFFFFFFFFFFFFFFFFFFFF AND PUSH20 0xFFFFFFFFFFFFFFFFFFFFFFFFFFFFFFFFFFFFFFFF AND DUP2 MSTORE PUSH1 0x20 ADD SWAP1 DUP2 MSTORE PUSH1 0x20 ADD PUSH1 0x0 KECCAK256 PUSH1 0x0 DUP3 DUP3 SLOAD PUSH2 0x27F SWAP2 SWAP1 PUSH2 0x685 JUMP JUMPDEST SWAP3 POP POP DUP2 SWAP1 SSTORE POP POP POP POP JUMP JUMPDEST TIMESTAMP DUP3 LT ISZERO PUSH2 0x298 JUMPI PUSH1 0x0 DUP1 REVERT JUMPDEST DUP2 DUP2 LT ISZERO PUSH2 0x2A5 JUMPI PUSH1 0x0 DUP1 REVERT JUMPDEST PUSH3 0x278D00 TIMESTAMP PUSH2 0x2B4 SWAP2 SWAP1 PUSH2 0x685 JUMP JUMPDEST DUP2 GT ISZERO PUSH2 0x2C0 JUMPI PUSH1 0x0 DUP1 REVERT JUMPDEST POP POP JUMP JUMPDEST PUSH1 0x0 SLOAD DUP2 JUMP JUMPDEST PUSH1 0x2 SLOAD TIMESTAMP LT ISZERO PUSH2 0x2D9 JUMPI PUSH1 0x0 DUP1 REVERT JUMPDEST PUSH1 0x3 SLOAD TIMESTAMP GT ISZERO PUSH2 0x2E8 JUMPI PUSH1 0x0 DUP1 REVERT JUMPDEST PUSH1 0x0 PUSH1 0x4 PUSH1 0x0 SWAP1 SLOAD SWAP1 PUSH2 0x100 EXP SWAP1 DIV PUSH20 0xFFFFFFFFFFFFFFFFFFFFFFFFFFFFFFFFFFFFFFFF AND PUSH20 0xFFFFFFFFFFFFFFFFFFFFFFFFFFFFFFFFFFFFFFFF AND PUSH4 0x70A08231 ADDRESS PUSH1 0x40 MLOAD DUP3 PUSH4 0xFFFFFFFF AND PUSH1 0xE0 SHL DUP2 MSTORE PUSH1 0x4 ADD PUSH2 0x345 SWAP2 SWAP1 PUSH2 0x5EF JUMP JUMPDEST PUSH1 0x20 PUSH1 0x40 MLOAD DUP1 DUP4 SUB DUP2 DUP7 DUP1 EXTCODESIZE ISZERO DUP1 ISZERO PUSH2 0x35D JUMPI PUSH1 0x0 DUP1 REVERT JUMPDEST POP GAS STATICCALL ISZERO DUP1 ISZERO PUSH2 0x371 JUMPI RETURNDATASIZE PUSH1 0x0 DUP1 RETURNDATACOPY RETURNDATASIZE PUSH1 0x0 REVERT JUMPDEST POP POP POP POP PUSH1 0x40 MLOAD RETURNDATASIZE PUSH1 0x1F NOT PUSH1 0x1F DUP3 ADD AND DUP3 ADD DUP1 PUSH1 0x40 MSTORE POP DUP2 ADD SWAP1 PUSH2 0x395 SWAP2 SWAP1 PUSH2 0x564 JUMP JUMPDEST SWAP1 POP PUSH1 0x4 PUSH1 0x0 SWAP1 SLOAD SWAP1 PUSH2 0x100 EXP SWAP1 DIV PUSH20 0xFFFFFFFFFFFFFFFFFFFFFFFFFFFFFFFFFFFFFFFF AND PUSH20 0xFFFFFFFFFFFFFFFFFFFFFFFFFFFFFFFFFFFFFFFF AND PUSH4 0xA9059CBB PUSH20 0xDDE601EBE61EC5FD0729125D4FD89F0F3B32B296 DUP4 PUSH1 0x40 MLOAD DUP4 PUSH4 0xFFFFFFFF AND PUSH1 0xE0 SHL DUP2 MSTORE PUSH1 0x4 ADD PUSH2 0x408 SWAP3 SWAP2 SWAP1 PUSH2 0x641 JUMP JUMPDEST PUSH1 0x20 PUSH1 0x40 MLOAD DUP1 DUP4 SUB DUP2 PUSH1 0x0 DUP8 DUP1 EXTCODESIZE ISZERO DUP1 ISZERO PUSH2 0x422 JUMPI PUSH1 0x0 DUP1 REVERT JUMPDEST POP GAS CALL ISZERO DUP1 ISZERO PUSH2 0x436 JUMPI RETURNDATASIZE PUSH1 0x0 DUP1 RETURNDATACOPY RETURNDATASIZE PUSH1 0x0 REVERT JUMPDEST POP POP POP POP PUSH1 0x40 MLOAD RETURNDATASIZE PUSH1 0x1F NOT PUSH1 0x1F DUP3 ADD AND DUP3 ADD DUP1 PUSH1 0x40 MSTORE POP DUP2 ADD SWAP1 PUSH2 0x45A SWAP2 SWAP1 PUSH2 0x537 JUMP JUMPDEST POP POP JUMP JUMPDEST PUSH1 0x5 PUSH1 0x20 MSTORE DUP1 PUSH1 0x0 MSTORE PUSH1 0x40 PUSH1 0x0 KECCAK256 PUSH1 0x0 SWAP2 POP SWAP1 POP SLOAD DUP2 JUMP JUMPDEST PUSH1 0x0 DUP2 CALLDATALOAD SWAP1 POP PUSH2 0x485 DUP2 PUSH2 0x811 JUMP JUMPDEST SWAP3 SWAP2 POP POP JUMP JUMPDEST PUSH1 0x0 DUP2 MLOAD SWAP1 POP PUSH2 0x49A DUP2 PUSH2 0x828 JUMP JUMPDEST SWAP3 SWAP2 POP POP JUMP JUMPDEST PUSH1 0x0 DUP2 CALLDATALOAD SWAP1 POP PUSH2 0x4AF DUP2 PUSH2 0x83F JUMP JUMPDEST SWAP3 SWAP2 POP POP JUMP JUMPDEST PUSH1 0x0 DUP2 MLOAD SWAP1 POP PUSH2 0x4C4 DUP2 PUSH2 0x83F JUMP JUMPDEST SWAP3 SWAP2 POP POP JUMP JUMPDEST PUSH1 0x0 PUSH1 0x20 DUP3 DUP5 SUB SLT ISZERO PUSH2 0x4E0 JUMPI PUSH2 0x4DF PUSH2 0x80C JUMP JUMPDEST JUMPDEST PUSH1 0x0 PUSH2 0x4EE DUP5 DUP3 DUP6 ADD PUSH2 0x476 JUMP JUMPDEST SWAP2 POP POP SWAP3 SWAP2 POP POP JUMP JUMPDEST PUSH1 0x0 DUP1 PUSH1 0x40 DUP4 DUP6 SUB SLT ISZERO PUSH2 0x50E JUMPI PUSH2 0x50D PUSH2 0x80C JUMP JUMPDEST JUMPDEST PUSH1 0x0 PUSH2 0x51C DUP6 DUP3 DUP7 ADD PUSH2 0x476 JUMP JUMPDEST SWAP3 POP POP PUSH1 0x20 PUSH2 0x52D DUP6 DUP3 DUP7 ADD PUSH2 0x4A0 JUMP JUMPDEST SWAP2 POP POP SWAP3 POP SWAP3 SWAP1 POP JUMP JUMPDEST PUSH1 0x0 PUSH1 0x20 DUP3 DUP5 SUB SLT ISZERO PUSH2 0x54D JUMPI PUSH2 0x54C PUSH2 0x80C JUMP JUMPDEST JUMPDEST PUSH1 0x0 PUSH2 0x55B DUP5 DUP3 DUP6 ADD PUSH2 0x48B JUMP JUMPDEST SWAP2 POP POP SWAP3 SWAP2 POP POP JUMP JUMPDEST PUSH1 0x0 PUSH1 0x20 DUP3 DUP5 SUB SLT ISZERO PUSH2 0x57A JUMPI PUSH2 0x579 PUSH2 0x80C JUMP JUMPDEST JUMPDEST PUSH1 0x0 PUSH2 0x588 DUP5 DUP3 DUP6 ADD PUSH2 0x4B5 JUMP JUMPDEST SWAP2 POP POP SWAP3 SWAP2 POP POP JUMP JUMPDEST PUSH1 0x0 DUP1 PUSH1 0x40 DUP4 DUP6 SUB SLT ISZERO PUSH2 0x5A8 JUMPI PUSH2 0x5A7 PUSH2 0x80C JUMP JUMPDEST JUMPDEST PUSH1 0x0 PUSH2 0x5B6 DUP6 DUP3 DUP7 ADD PUSH2 0x4A0 JUMP JUMPDEST SWAP3 POP POP PUSH1 0x20 PUSH2 0x5C7 DUP6 DUP3 DUP7 ADD PUSH2 0x4A0 JUMP JUMPDEST SWAP2 POP POP SWAP3 POP SWAP3 SWAP1 POP JUMP JUMPDEST PUSH2 0x5DA DUP2 PUSH2 0x766 JUMP JUMPDEST DUP3 MSTORE POP POP JUMP JUMPDEST PUSH2 0x5E9 DUP2 PUSH2 0x7A4 JUMP JUMPDEST DUP3 MSTORE POP POP JUMP JUMPDEST PUSH1 0x0 PUSH1 0x20 DUP3 ADD SWAP1 POP PUSH2 0x604 PUSH1 0x0 DUP4 ADD DUP5 PUSH2 0x5D1 JUMP JUMPDEST SWAP3 SWAP2 POP POP JUMP JUMPDEST PUSH1 0x0 PUSH1 0x60 DUP3 ADD SWAP1 POP PUSH2 0x61F PUSH1 0x0 DUP4 ADD DUP7 PUSH2 0x5D1 JUMP JUMPDEST PUSH2 0x62C PUSH1 0x20 DUP4 ADD DUP6 PUSH2 0x5D1 JUMP JUMPDEST PUSH2 0x639 PUSH1 0x40 DUP4 ADD DUP5 PUSH2 0x5E0 JUMP JUMPDEST SWAP5 SWAP4 POP POP POP POP JUMP JUMPDEST PUSH1 0x0 PUSH1 0x40 DUP3 ADD SWAP1 POP PUSH2 0x656 PUSH1 0x0 DUP4 ADD DUP6 PUSH2 0x5D1 JUMP JUMPDEST PUSH2 0x663 PUSH1 0x20 DUP4 ADD DUP5 PUSH2 0x5E0 JUMP JUMPDEST SWAP4 SWAP3 POP POP POP JUMP JUMPDEST PUSH1 0x0 PUSH1 0x20 DUP3 ADD SWAP1 POP PUSH2 0x67F PUSH1 0x0 DUP4 ADD DUP5 PUSH2 0x5E0 JUMP JUMPDEST SWAP3 SWAP2 POP POP JUMP JUMPDEST PUSH1 0x0 PUSH2 0x690 DUP3 PUSH2 0x7A4 JUMP JUMPDEST SWAP2 POP PUSH2 0x69B DUP4 PUSH2 0x7A4 JUMP JUMPDEST SWAP3 POP DUP3 PUSH32 0xFFFFFFFFFFFFFFFFFFFFFFFFFFFFFFFFFFFFFFFFFFFFFFFFFFFFFFFFFFFFFFFF SUB DUP3 GT ISZERO PUSH2 0x6D0 JUMPI PUSH2 0x6CF PUSH2 0x7AE JUMP JUMPDEST JUMPDEST DUP3 DUP3 ADD SWAP1 POP SWAP3 SWAP2 POP POP JUMP JUMPDEST PUSH1 0x0 PUSH2 0x6E6 DUP3 PUSH2 0x7A4 JUMP JUMPDEST SWAP2 POP PUSH2 0x6F1 DUP4 PUSH2 0x7A4 JUMP JUMPDEST SWAP3 POP DUP3 PUSH2 0x701 JUMPI PUSH2 0x700 PUSH2 0x7DD JUMP JUMPDEST JUMPDEST DUP3 DUP3 DIV SWAP1 POP SWAP3 SWAP2 POP POP JUMP JUMPDEST PUSH1 0x0 PUSH2 0x717 DUP3 PUSH2 0x7A4 JUMP JUMPDEST SWAP2 POP PUSH2 0x722 DUP4 PUSH2 0x7A4 JUMP JUMPDEST SWAP3 POP DUP2 PUSH32 0xFFFFFFFFFFFFFFFFFFFFFFFFFFFFFFFFFFFFFFFFFFFFFFFFFFFFFFFFFFFFFFFF DIV DUP4 GT DUP3 ISZERO ISZERO AND ISZERO PUSH2 0x75B JUMPI PUSH2 0x75A PUSH2 0x7AE JUMP JUMPDEST JUMPDEST DUP3 DUP3 MUL SWAP1 POP SWAP3 SWAP2 POP POP JUMP JUMPDEST PUSH1 0x0 PUSH2 0x771 DUP3 PUSH2 0x784 JUMP JUMPDEST SWAP1 POP SWAP2 SWAP1 POP JUMP JUMPDEST PUSH1 0x0 DUP2 ISZERO ISZERO SWAP1 POP SWAP2 SWAP1 POP JUMP JUMPDEST PUSH1 0x0 PUSH20 0xFFFFFFFFFFFFFFFFFFFFFFFFFFFFFFFFFFFFFFFF DUP3 AND SWAP1 POP SWAP2 SWAP1 POP JUMP JUMPDEST PUSH1 0x0 DUP2 SWAP1 POP SWAP2 SWAP1 POP JUMP JUMPDEST PUSH32 0x4E487B7100000000000000000000000000000000000000000000000000000000 PUSH1 0x0 MSTORE PUSH1 0x11 PUSH1 0x4 MSTORE PUSH1 0x24 PUSH1 0x0 REVERT JUMPDEST PUSH32 0x4E487B7100000000000000000000000000000000000000000000000000000000 PUSH1 0x0 MSTORE PUSH1 0x12 PUSH1 0x4 MSTORE PUSH1 0x24 PUSH1 0x0 REVERT JUMPDEST PUSH1 0x0 DUP1 REVERT JUMPDEST PUSH2 0x81A DUP2 PUSH2 0x766 JUMP JUMPDEST DUP2 EQ PUSH2 0x825 JUMPI PUSH1 0x0 DUP1 REVERT JUMPDEST POP JUMP JUMPDEST PUSH2 0x831 DUP2 PUSH2 0x778 JUMP JUMPDEST DUP2 EQ PUSH2 0x83C JUMPI PUSH1 0x0 DUP1 REVERT JUMPDEST POP JUMP JUMPDEST PUSH2 0x848 DUP2 PUSH2 0x7A4 JUMP JUMPDEST DUP2 EQ PUSH2 0x853 JUMPI PUSH1 0x0 DUP1 REVERT JUMPDEST POP JUMP INVALID LOG2 PUSH5 0x6970667358 0x22 SLT KECCAK256 0xAF BASEFEE PUSH9 0xEBB92164F5D2E00676 0xFC SLOAD 0xB8 0x1F 0xDF CALL SWAP5 PUSH32 0x311874C73EE50CB5F6F78F1664736F6C63430008070033000000000000000000 "
				},
				"gasEstimates": {
					"creation": {
						"codeDepositCost": "437600",
						"executionCost": "51853",
						"totalCost": "489453"
					},
					"external": {
						"_balance(address)": "2902",
						"axsToken()": "2492",
						"launch(uint256,uint256)": "infinite",
						"price()": "2473",
						"sale(address,uint256)": "infinite",
						"wuthdraw()": "infinite"
					}
				},
				"methodIdentifiers": {
					"_balance(address)": "d3aceae2",
					"axsToken()": "180dc0ac",
					"launch(uint256,uint256)": "82760cd2",
					"price()": "a035b1fe",
					"sale(address,uint256)": "611efc09",
					"wuthdraw()": "b07d5526"
				}
			},
			"storageLayout": {
				"storage": [
					{
						"astId": 87,
						"contract": "TokenSell.sol:Tokensell",
						"label": "price",
						"offset": 0,
						"slot": "0",
						"type": "t_uint256"
					},
					{
						"astId": 90,
						"contract": "TokenSell.sol:Tokensell",
						"label": "userbalance",
						"offset": 0,
						"slot": "1",
						"type": "t_uint256"
					},
					{
						"astId": 92,
						"contract": "TokenSell.sol:Tokensell",
						"label": "starttime",
						"offset": 0,
						"slot": "2",
						"type": "t_uint256"
					},
					{
						"astId": 94,
						"contract": "TokenSell.sol:Tokensell",
						"label": "endtime",
						"offset": 0,
						"slot": "3",
						"type": "t_uint256"
					},
					{
						"astId": 97,
						"contract": "TokenSell.sol:Tokensell",
						"label": "axsToken",
						"offset": 0,
						"slot": "4",
						"type": "t_address"
					},
					{
						"astId": 101,
						"contract": "TokenSell.sol:Tokensell",
						"label": "_balance",
						"offset": 0,
						"slot": "5",
						"type": "t_mapping(t_address,t_uint256)"
					}
				],
				"types": {
					"t_address": {
						"encoding": "inplace",
						"label": "address",
						"numberOfBytes": "20"
					},
					"t_mapping(t_address,t_uint256)": {
						"encoding": "mapping",
						"key": "t_address",
						"label": "mapping(address => uint256)",
						"numberOfBytes": "32",
						"value": "t_uint256"
					},
					"t_uint256": {
						"encoding": "inplace",
						"label": "uint256",
						"numberOfBytes": "32"
					}
				}
			},
			"userdoc": {
				"kind": "user",
				"methods": {},
				"version": 1
			}
		}
	}
}