{
	"TokenSell.sol": {
		"Tokensell": {
			"abi": [
				{
					"inputs": [
						{
							"internalType": "uint256",
							"name": "timeRuns",
							"type": "uint256"
						}
					],
					"stateMutability": "nonpayable",
					"type": "constructor"
				},
				{
					"inputs": [],
					"name": "axsToken",
					"outputs": [
						{
							"internalType": "address",
							"name": "",
							"type": "address"
						}
					],
					"stateMutability": "view",
					"type": "function"
				},
				{
					"inputs": [],
					"name": "endTime",
					"outputs": [
						{
							"internalType": "uint256",
							"name": "",
							"type": "uint256"
						}
					],
					"stateMutability": "view",
					"type": "function"
				},
				{
					"inputs": [],
					"name": "receiveUSDT",
					"outputs": [],
					"stateMutability": "payable",
					"type": "function"
				},
				{
					"inputs": [],
					"name": "startTime",
					"outputs": [
						{
							"internalType": "uint256",
							"name": "",
							"type": "uint256"
						}
					],
					"stateMutability": "view",
					"type": "function"
				}
			],
			"devdoc": {
				"kind": "dev",
				"methods": {},
				"version": 1
			},
			"evm": {
				"assembly": "    /* \"TokenSell.sol\":125:590  contract Tokensell{\r... */\n  mstore(0x40, 0x80)\n    /* \"TokenSell.sol\":236:278  0x0aa7726bc0cB085A3C4fbE3B09b91DD7E27f7fea */\n  0x0aa7726bc0cb085a3c4fbe3b09b91dd7e27f7fea\n    /* \"TokenSell.sol\":210:278  address public axsToken = 0x0aa7726bc0cB085A3C4fbE3B09b91DD7E27f7fea */\n  0x02\n  exp(0x0100, 0x00)\n  dup2\n  sload\n  dup2\n  0xffffffffffffffffffffffffffffffffffffffff\n  mul\n  not\n  and\n  swap1\n  dup4\n  0xffffffffffffffffffffffffffffffffffffffff\n  and\n  mul\n  or\n  swap1\n  sstore\n  pop\n    /* \"TokenSell.sol\":287:389  constructor(uint timeRuns) public{\r... */\n  callvalue\n  dup1\n  iszero\n  tag_1\n  jumpi\n  0x00\n  dup1\n  revert\ntag_1:\n  pop\n  mload(0x40)\n  sub(codesize, bytecodeSize)\n  dup1\n  bytecodeSize\n  dup4\n  codecopy\n  dup2\n  dup2\n  add\n  0x40\n  mstore\n  dup2\n  add\n  swap1\n  tag_2\n  swap2\n  swap1\n  tag_3\n  jump\t// in\ntag_2:\n    /* \"TokenSell.sol\":370:379  1 minutes */\n  0x3c\n    /* \"TokenSell.sol\":359:367  timeRuns */\n  dup2\n    /* \"TokenSell.sol\":359:379  timeRuns * 1 minutes */\n  tag_6\n  swap2\n  swap1\n  tag_7\n  jump\t// in\ntag_6:\n    /* \"TokenSell.sol\":341:356  block.timestamp */\n  timestamp\n    /* \"TokenSell.sol\":341:379  block.timestamp + timeRuns * 1 minutes */\n  tag_8\n  swap2\n  swap1\n  tag_9\n  jump\t// in\ntag_8:\n    /* \"TokenSell.sol\":331:338  endTime */\n  0x01\n    /* \"TokenSell.sol\":331:379  endTime = block.timestamp + timeRuns * 1 minutes */\n  dup2\n  swap1\n  sstore\n  pop\n    /* \"TokenSell.sol\":287:389  constructor(uint timeRuns) public{\r... */\n  pop\n    /* \"TokenSell.sol\":125:590  contract Tokensell{\r... */\n  jump(tag_10)\n    /* \"#utility.yul\":7:150   */\ntag_12:\n    /* \"#utility.yul\":64:69   */\n  0x00\n    /* \"#utility.yul\":95:101   */\n  dup2\n    /* \"#utility.yul\":89:102   */\n  mload\n    /* \"#utility.yul\":80:102   */\n  swap1\n  pop\n    /* \"#utility.yul\":111:144   */\n  tag_14\n    /* \"#utility.yul\":138:143   */\n  dup2\n    /* \"#utility.yul\":111:144   */\n  tag_15\n  jump\t// in\ntag_14:\n    /* \"#utility.yul\":7:150   */\n  swap3\n  swap2\n  pop\n  pop\n  jump\t// out\n    /* \"#utility.yul\":156:507   */\ntag_3:\n    /* \"#utility.yul\":226:232   */\n  0x00\n    /* \"#utility.yul\":275:277   */\n  0x20\n    /* \"#utility.yul\":263:272   */\n  dup3\n    /* \"#utility.yul\":254:261   */\n  dup5\n    /* \"#utility.yul\":250:273   */\n  sub\n    /* \"#utility.yul\":246:278   */\n  slt\n    /* \"#utility.yul\":243:362   */\n  iszero\n  tag_17\n  jumpi\n    /* \"#utility.yul\":281:360   */\n  tag_18\n  tag_19\n  jump\t// in\ntag_18:\n    /* \"#utility.yul\":243:362   */\ntag_17:\n    /* \"#utility.yul\":401:402   */\n  0x00\n    /* \"#utility.yul\":426:490   */\n  tag_20\n    /* \"#utility.yul\":482:489   */\n  dup5\n    /* \"#utility.yul\":473:479   */\n  dup3\n    /* \"#utility.yul\":462:471   */\n  dup6\n    /* \"#utility.yul\":458:480   */\n  add\n    /* \"#utility.yul\":426:490   */\n  tag_12\n  jump\t// in\ntag_20:\n    /* \"#utility.yul\":416:490   */\n  swap2\n  pop\n    /* \"#utility.yul\":372:500   */\n  pop\n    /* \"#utility.yul\":156:507   */\n  swap3\n  swap2\n  pop\n  pop\n  jump\t// out\n    /* \"#utility.yul\":594:899   */\ntag_9:\n    /* \"#utility.yul\":634:637   */\n  0x00\n    /* \"#utility.yul\":653:673   */\n  tag_24\n    /* \"#utility.yul\":671:672   */\n  dup3\n    /* \"#utility.yul\":653:673   */\n  tag_25\n  jump\t// in\ntag_24:\n    /* \"#utility.yul\":648:673   */\n  swap2\n  pop\n    /* \"#utility.yul\":687:707   */\n  tag_26\n    /* \"#utility.yul\":705:706   */\n  dup4\n    /* \"#utility.yul\":687:707   */\n  tag_25\n  jump\t// in\ntag_26:\n    /* \"#utility.yul\":682:707   */\n  swap3\n  pop\n    /* \"#utility.yul\":841:842   */\n  dup3\n    /* \"#utility.yul\":773:839   */\n  0xffffffffffffffffffffffffffffffffffffffffffffffffffffffffffffffff\n    /* \"#utility.yul\":769:843   */\n  sub\n    /* \"#utility.yul\":766:767   */\n  dup3\n    /* \"#utility.yul\":763:844   */\n  gt\n    /* \"#utility.yul\":760:867   */\n  iszero\n  tag_27\n  jumpi\n    /* \"#utility.yul\":847:865   */\n  tag_28\n  tag_29\n  jump\t// in\ntag_28:\n    /* \"#utility.yul\":760:867   */\ntag_27:\n    /* \"#utility.yul\":891:892   */\n  dup3\n    /* \"#utility.yul\":888:889   */\n  dup3\n    /* \"#utility.yul\":884:893   */\n  add\n    /* \"#utility.yul\":877:893   */\n  swap1\n  pop\n    /* \"#utility.yul\":594:899   */\n  swap3\n  swap2\n  pop\n  pop\n  jump\t// out\n    /* \"#utility.yul\":905:1253   */\ntag_7:\n    /* \"#utility.yul\":945:952   */\n  0x00\n    /* \"#utility.yul\":968:988   */\n  tag_31\n    /* \"#utility.yul\":986:987   */\n  dup3\n    /* \"#utility.yul\":968:988   */\n  tag_25\n  jump\t// in\ntag_31:\n    /* \"#utility.yul\":963:988   */\n  swap2\n  pop\n    /* \"#utility.yul\":1002:1022   */\n  tag_32\n    /* \"#utility.yul\":1020:1021   */\n  dup4\n    /* \"#utility.yul\":1002:1022   */\n  tag_25\n  jump\t// in\ntag_32:\n    /* \"#utility.yul\":997:1022   */\n  swap3\n  pop\n    /* \"#utility.yul\":1190:1191   */\n  dup2\n    /* \"#utility.yul\":1122:1188   */\n  0xffffffffffffffffffffffffffffffffffffffffffffffffffffffffffffffff\n    /* \"#utility.yul\":1118:1192   */\n  div\n    /* \"#utility.yul\":1115:1116   */\n  dup4\n    /* \"#utility.yul\":1112:1193   */\n  gt\n    /* \"#utility.yul\":1107:1108   */\n  dup3\n    /* \"#utility.yul\":1100:1109   */\n  iszero\n    /* \"#utility.yul\":1093:1110   */\n  iszero\n    /* \"#utility.yul\":1089:1194   */\n  and\n    /* \"#utility.yul\":1086:1217   */\n  iszero\n  tag_33\n  jumpi\n    /* \"#utility.yul\":1197:1215   */\n  tag_34\n  tag_29\n  jump\t// in\ntag_34:\n    /* \"#utility.yul\":1086:1217   */\ntag_33:\n    /* \"#utility.yul\":1245:1246   */\n  dup3\n    /* \"#utility.yul\":1242:1243   */\n  dup3\n    /* \"#utility.yul\":1238:1247   */\n  mul\n    /* \"#utility.yul\":1227:1247   */\n  swap1\n  pop\n    /* \"#utility.yul\":905:1253   */\n  swap3\n  swap2\n  pop\n  pop\n  jump\t// out\n    /* \"#utility.yul\":1259:1336   */\ntag_25:\n    /* \"#utility.yul\":1296:1303   */\n  0x00\n    /* \"#utility.yul\":1325:1330   */\n  dup2\n    /* \"#utility.yul\":1314:1330   */\n  swap1\n  pop\n    /* \"#utility.yul\":1259:1336   */\n  swap2\n  swap1\n  pop\n  jump\t// out\n    /* \"#utility.yul\":1342:1522   */\ntag_29:\n    /* \"#utility.yul\":1390:1467   */\n  0x4e487b7100000000000000000000000000000000000000000000000000000000\n    /* \"#utility.yul\":1387:1388   */\n  0x00\n    /* \"#utility.yul\":1380:1468   */\n  mstore\n    /* \"#utility.yul\":1487:1491   */\n  0x11\n    /* \"#utility.yul\":1484:1485   */\n  0x04\n    /* \"#utility.yul\":1477:1492   */\n  mstore\n    /* \"#utility.yul\":1511:1515   */\n  0x24\n    /* \"#utility.yul\":1508:1509   */\n  0x00\n    /* \"#utility.yul\":1501:1516   */\n  revert\n    /* \"#utility.yul\":1651:1768   */\ntag_19:\n    /* \"#utility.yul\":1760:1761   */\n  0x00\n    /* \"#utility.yul\":1757:1758   */\n  dup1\n    /* \"#utility.yul\":1750:1762   */\n  revert\n    /* \"#utility.yul\":1774:1896   */\ntag_15:\n    /* \"#utility.yul\":1847:1871   */\n  tag_41\n    /* \"#utility.yul\":1865:1870   */\n  dup2\n    /* \"#utility.yul\":1847:1871   */\n  tag_25\n  jump\t// in\ntag_41:\n    /* \"#utility.yul\":1840:1845   */\n  dup2\n    /* \"#utility.yul\":1837:1872   */\n  eq\n    /* \"#utility.yul\":1827:1890   */\n  tag_42\n  jumpi\n    /* \"#utility.yul\":1886:1887   */\n  0x00\n    /* \"#utility.yul\":1883:1884   */\n  dup1\n    /* \"#utility.yul\":1876:1888   */\n  revert\n    /* \"#utility.yul\":1827:1890   */\ntag_42:\n    /* \"#utility.yul\":1774:1896   */\n  pop\n  jump\t// out\n    /* \"TokenSell.sol\":125:590  contract Tokensell{\r... */\ntag_10:\n  dataSize(sub_0)\n  dup1\n  dataOffset(sub_0)\n  0x00\n  codecopy\n  0x00\n  return\nstop\n\nsub_0: assembly {\n        /* \"TokenSell.sol\":125:590  contract Tokensell{\r... */\n      mstore(0x40, 0x80)\n      jumpi(tag_1, lt(calldatasize, 0x04))\n      shr(0xe0, calldataload(0x00))\n      dup1\n      0x180dc0ac\n      eq\n      tag_2\n      jumpi\n      dup1\n      0x3197cbb6\n      eq\n      tag_3\n      jumpi\n      dup1\n      0x55cf0a69\n      eq\n      tag_4\n      jumpi\n      dup1\n      0x78e97925\n      eq\n      tag_5\n      jumpi\n    tag_1:\n      0x00\n      dup1\n      revert\n        /* \"TokenSell.sol\":210:278  address public axsToken = 0x0aa7726bc0cB085A3C4fbE3B09b91DD7E27f7fea */\n    tag_2:\n      callvalue\n      dup1\n      iszero\n      tag_6\n      jumpi\n      0x00\n      dup1\n      revert\n    tag_6:\n      pop\n      tag_7\n      tag_8\n      jump\t// in\n    tag_7:\n      mload(0x40)\n      tag_9\n      swap2\n      swap1\n      tag_10\n      jump\t// in\n    tag_9:\n      mload(0x40)\n      dup1\n      swap2\n      sub\n      swap1\n      return\n        /* \"TokenSell.sol\":178:197  uint public endTime */\n    tag_3:\n      callvalue\n      dup1\n      iszero\n      tag_11\n      jumpi\n      0x00\n      dup1\n      revert\n    tag_11:\n      pop\n      tag_12\n      tag_13\n      jump\t// in\n    tag_12:\n      mload(0x40)\n      tag_14\n      swap2\n      swap1\n      tag_15\n      jump\t// in\n    tag_14:\n      mload(0x40)\n      dup1\n      swap2\n      sub\n      swap1\n      return\n        /* \"TokenSell.sol\":399:587  function receiveUSDT() public payable{\r... */\n    tag_4:\n      tag_16\n      tag_17\n      jump\t// in\n    tag_16:\n      stop\n        /* \"TokenSell.sol\":150:171  uint public startTime */\n    tag_5:\n      callvalue\n      dup1\n      iszero\n      tag_18\n      jumpi\n      0x00\n      dup1\n      revert\n    tag_18:\n      pop\n      tag_19\n      tag_20\n      jump\t// in\n    tag_19:\n      mload(0x40)\n      tag_21\n      swap2\n      swap1\n      tag_15\n      jump\t// in\n    tag_21:\n      mload(0x40)\n      dup1\n      swap2\n      sub\n      swap1\n      return\n        /* \"TokenSell.sol\":210:278  address public axsToken = 0x0aa7726bc0cB085A3C4fbE3B09b91DD7E27f7fea */\n    tag_8:\n      0x02\n      0x00\n      swap1\n      sload\n      swap1\n      0x0100\n      exp\n      swap1\n      div\n      0xffffffffffffffffffffffffffffffffffffffff\n      and\n      dup2\n      jump\t// out\n        /* \"TokenSell.sol\":178:197  uint public endTime */\n    tag_13:\n      sload(0x01)\n      dup2\n      jump\t// out\n        /* \"TokenSell.sol\":399:587  function receiveUSDT() public payable{\r... */\n    tag_17:\n        /* \"TokenSell.sol\":473:480  endTime */\n      sload(0x01)\n        /* \"TokenSell.sol\":455:470  block.timestamp */\n      timestamp\n        /* \"TokenSell.sol\":455:480  block.timestamp < endTime */\n      lt\n        /* \"TokenSell.sol\":447:481  require(block.timestamp < endTime) */\n      tag_23\n      jumpi\n      0x00\n      dup1\n      revert\n    tag_23:\n        /* \"TokenSell.sol\":512:513  0 */\n      0x00\n        /* \"TokenSell.sol\":500:509  msg.value */\n      callvalue\n        /* \"TokenSell.sol\":500:513  msg.value > 0 */\n      gt\n        /* \"TokenSell.sol\":492:514  require(msg.value > 0) */\n      tag_24\n      jumpi\n      0x00\n      dup1\n      revert\n    tag_24:\n        /* \"TokenSell.sol\":532:540  axsToken */\n      0x02\n      0x00\n      swap1\n      sload\n      swap1\n      0x0100\n      exp\n      swap1\n      div\n      0xffffffffffffffffffffffffffffffffffffffff\n      and\n        /* \"TokenSell.sol\":525:550  IERC20(axsToken).transfer */\n      0xffffffffffffffffffffffffffffffffffffffff\n      and\n      0xa9059cbb\n        /* \"TokenSell.sol\":551:561  msg.sender */\n      caller\n        /* \"TokenSell.sol\":575:578  100 */\n      0x64\n        /* \"TokenSell.sol\":563:572  msg.value */\n      callvalue\n        /* \"TokenSell.sol\":563:578  msg.value * 100 */\n      tag_25\n      swap2\n      swap1\n      tag_26\n      jump\t// in\n    tag_25:\n        /* \"TokenSell.sol\":525:579  IERC20(axsToken).transfer(msg.sender, msg.value * 100) */\n      mload(0x40)\n      dup4\n      0xffffffff\n      and\n      0xe0\n      shl\n      dup2\n      mstore\n      0x04\n      add\n      tag_27\n      swap3\n      swap2\n      swap1\n      tag_28\n      jump\t// in\n    tag_27:\n      0x20\n      mload(0x40)\n      dup1\n      dup4\n      sub\n      dup2\n      0x00\n      dup8\n      dup1\n      extcodesize\n      iszero\n      dup1\n      iszero\n      tag_29\n      jumpi\n      0x00\n      dup1\n      revert\n    tag_29:\n      pop\n      gas\n      call\n      iszero\n      dup1\n      iszero\n      tag_31\n      jumpi\n      returndatasize\n      0x00\n      dup1\n      returndatacopy\n      revert(0x00, returndatasize)\n    tag_31:\n      pop\n      pop\n      pop\n      pop\n      mload(0x40)\n      returndatasize\n      not(0x1f)\n      0x1f\n      dup3\n      add\n      and\n      dup3\n      add\n      dup1\n      0x40\n      mstore\n      pop\n      dup2\n      add\n      swap1\n      tag_32\n      swap2\n      swap1\n      tag_33\n      jump\t// in\n    tag_32:\n      pop\n        /* \"TokenSell.sol\":399:587  function receiveUSDT() public payable{\r... */\n      jump\t// out\n        /* \"TokenSell.sol\":150:171  uint public startTime */\n    tag_20:\n      sload(0x00)\n      dup2\n      jump\t// out\n        /* \"#utility.yul\":7:144   */\n    tag_35:\n        /* \"#utility.yul\":61:66   */\n      0x00\n        /* \"#utility.yul\":92:98   */\n      dup2\n        /* \"#utility.yul\":86:99   */\n      mload\n        /* \"#utility.yul\":77:99   */\n      swap1\n      pop\n        /* \"#utility.yul\":108:138   */\n      tag_37\n        /* \"#utility.yul\":132:137   */\n      dup2\n        /* \"#utility.yul\":108:138   */\n      tag_38\n      jump\t// in\n    tag_37:\n        /* \"#utility.yul\":7:144   */\n      swap3\n      swap2\n      pop\n      pop\n      jump\t// out\n        /* \"#utility.yul\":150:495   */\n    tag_33:\n        /* \"#utility.yul\":217:223   */\n      0x00\n        /* \"#utility.yul\":266:268   */\n      0x20\n        /* \"#utility.yul\":254:263   */\n      dup3\n        /* \"#utility.yul\":245:252   */\n      dup5\n        /* \"#utility.yul\":241:264   */\n      sub\n        /* \"#utility.yul\":237:269   */\n      slt\n        /* \"#utility.yul\":234:353   */\n      iszero\n      tag_40\n      jumpi\n        /* \"#utility.yul\":272:351   */\n      tag_41\n      tag_42\n      jump\t// in\n    tag_41:\n        /* \"#utility.yul\":234:353   */\n    tag_40:\n        /* \"#utility.yul\":392:393   */\n      0x00\n        /* \"#utility.yul\":417:478   */\n      tag_43\n        /* \"#utility.yul\":470:477   */\n      dup5\n        /* \"#utility.yul\":461:467   */\n      dup3\n        /* \"#utility.yul\":450:459   */\n      dup6\n        /* \"#utility.yul\":446:468   */\n      add\n        /* \"#utility.yul\":417:478   */\n      tag_35\n      jump\t// in\n    tag_43:\n        /* \"#utility.yul\":407:478   */\n      swap2\n      pop\n        /* \"#utility.yul\":363:488   */\n      pop\n        /* \"#utility.yul\":150:495   */\n      swap3\n      swap2\n      pop\n      pop\n      jump\t// out\n        /* \"#utility.yul\":501:619   */\n    tag_44:\n        /* \"#utility.yul\":588:612   */\n      tag_46\n        /* \"#utility.yul\":606:611   */\n      dup2\n        /* \"#utility.yul\":588:612   */\n      tag_47\n      jump\t// in\n    tag_46:\n        /* \"#utility.yul\":583:586   */\n      dup3\n        /* \"#utility.yul\":576:613   */\n      mstore\n        /* \"#utility.yul\":501:619   */\n      pop\n      pop\n      jump\t// out\n        /* \"#utility.yul\":625:743   */\n    tag_48:\n        /* \"#utility.yul\":712:736   */\n      tag_50\n        /* \"#utility.yul\":730:735   */\n      dup2\n        /* \"#utility.yul\":712:736   */\n      tag_51\n      jump\t// in\n    tag_50:\n        /* \"#utility.yul\":707:710   */\n      dup3\n        /* \"#utility.yul\":700:737   */\n      mstore\n        /* \"#utility.yul\":625:743   */\n      pop\n      pop\n      jump\t// out\n        /* \"#utility.yul\":749:971   */\n    tag_10:\n        /* \"#utility.yul\":842:846   */\n      0x00\n        /* \"#utility.yul\":880:882   */\n      0x20\n        /* \"#utility.yul\":869:878   */\n      dup3\n        /* \"#utility.yul\":865:883   */\n      add\n        /* \"#utility.yul\":857:883   */\n      swap1\n      pop\n        /* \"#utility.yul\":893:964   */\n      tag_53\n        /* \"#utility.yul\":961:962   */\n      0x00\n        /* \"#utility.yul\":950:959   */\n      dup4\n        /* \"#utility.yul\":946:963   */\n      add\n        /* \"#utility.yul\":937:943   */\n      dup5\n        /* \"#utility.yul\":893:964   */\n      tag_44\n      jump\t// in\n    tag_53:\n        /* \"#utility.yul\":749:971   */\n      swap3\n      swap2\n      pop\n      pop\n      jump\t// out\n        /* \"#utility.yul\":977:1309   */\n    tag_28:\n        /* \"#utility.yul\":1098:1102   */\n      0x00\n        /* \"#utility.yul\":1136:1138   */\n      0x40\n        /* \"#utility.yul\":1125:1134   */\n      dup3\n        /* \"#utility.yul\":1121:1139   */\n      add\n        /* \"#utility.yul\":1113:1139   */\n      swap1\n      pop\n        /* \"#utility.yul\":1149:1220   */\n      tag_55\n        /* \"#utility.yul\":1217:1218   */\n      0x00\n        /* \"#utility.yul\":1206:1215   */\n      dup4\n        /* \"#utility.yul\":1202:1219   */\n      add\n        /* \"#utility.yul\":1193:1199   */\n      dup6\n        /* \"#utility.yul\":1149:1220   */\n      tag_44\n      jump\t// in\n    tag_55:\n        /* \"#utility.yul\":1230:1302   */\n      tag_56\n        /* \"#utility.yul\":1298:1300   */\n      0x20\n        /* \"#utility.yul\":1287:1296   */\n      dup4\n        /* \"#utility.yul\":1283:1301   */\n      add\n        /* \"#utility.yul\":1274:1280   */\n      dup5\n        /* \"#utility.yul\":1230:1302   */\n      tag_48\n      jump\t// in\n    tag_56:\n        /* \"#utility.yul\":977:1309   */\n      swap4\n      swap3\n      pop\n      pop\n      pop\n      jump\t// out\n        /* \"#utility.yul\":1315:1537   */\n    tag_15:\n        /* \"#utility.yul\":1408:1412   */\n      0x00\n        /* \"#utility.yul\":1446:1448   */\n      0x20\n        /* \"#utility.yul\":1435:1444   */\n      dup3\n        /* \"#utility.yul\":1431:1449   */\n      add\n        /* \"#utility.yul\":1423:1449   */\n      swap1\n      pop\n        /* \"#utility.yul\":1459:1530   */\n      tag_58\n        /* \"#utility.yul\":1527:1528   */\n      0x00\n        /* \"#utility.yul\":1516:1525   */\n      dup4\n        /* \"#utility.yul\":1512:1529   */\n      add\n        /* \"#utility.yul\":1503:1509   */\n      dup5\n        /* \"#utility.yul\":1459:1530   */\n      tag_48\n      jump\t// in\n    tag_58:\n        /* \"#utility.yul\":1315:1537   */\n      swap3\n      swap2\n      pop\n      pop\n      jump\t// out\n        /* \"#utility.yul\":1624:1972   */\n    tag_26:\n        /* \"#utility.yul\":1664:1671   */\n      0x00\n        /* \"#utility.yul\":1687:1707   */\n      tag_62\n        /* \"#utility.yul\":1705:1706   */\n      dup3\n        /* \"#utility.yul\":1687:1707   */\n      tag_51\n      jump\t// in\n    tag_62:\n        /* \"#utility.yul\":1682:1707   */\n      swap2\n      pop\n        /* \"#utility.yul\":1721:1741   */\n      tag_63\n        /* \"#utility.yul\":1739:1740   */\n      dup4\n        /* \"#utility.yul\":1721:1741   */\n      tag_51\n      jump\t// in\n    tag_63:\n        /* \"#utility.yul\":1716:1741   */\n      swap3\n      pop\n        /* \"#utility.yul\":1909:1910   */\n      dup2\n        /* \"#utility.yul\":1841:1907   */\n      0xffffffffffffffffffffffffffffffffffffffffffffffffffffffffffffffff\n        /* \"#utility.yul\":1837:1911   */\n      div\n        /* \"#utility.yul\":1834:1835   */\n      dup4\n        /* \"#utility.yul\":1831:1912   */\n      gt\n        /* \"#utility.yul\":1826:1827   */\n      dup3\n        /* \"#utility.yul\":1819:1828   */\n      iszero\n        /* \"#utility.yul\":1812:1829   */\n      iszero\n        /* \"#utility.yul\":1808:1913   */\n      and\n        /* \"#utility.yul\":1805:1936   */\n      iszero\n      tag_64\n      jumpi\n        /* \"#utility.yul\":1916:1934   */\n      tag_65\n      tag_66\n      jump\t// in\n    tag_65:\n        /* \"#utility.yul\":1805:1936   */\n    tag_64:\n        /* \"#utility.yul\":1964:1965   */\n      dup3\n        /* \"#utility.yul\":1961:1962   */\n      dup3\n        /* \"#utility.yul\":1957:1966   */\n      mul\n        /* \"#utility.yul\":1946:1966   */\n      swap1\n      pop\n        /* \"#utility.yul\":1624:1972   */\n      swap3\n      swap2\n      pop\n      pop\n      jump\t// out\n        /* \"#utility.yul\":1978:2074   */\n    tag_47:\n        /* \"#utility.yul\":2015:2022   */\n      0x00\n        /* \"#utility.yul\":2044:2068   */\n      tag_68\n        /* \"#utility.yul\":2062:2067   */\n      dup3\n        /* \"#utility.yul\":2044:2068   */\n      tag_69\n      jump\t// in\n    tag_68:\n        /* \"#utility.yul\":2033:2068   */\n      swap1\n      pop\n        /* \"#utility.yul\":1978:2074   */\n      swap2\n      swap1\n      pop\n      jump\t// out\n        /* \"#utility.yul\":2080:2170   */\n    tag_70:\n        /* \"#utility.yul\":2114:2121   */\n      0x00\n        /* \"#utility.yul\":2157:2162   */\n      dup2\n        /* \"#utility.yul\":2150:2163   */\n      iszero\n        /* \"#utility.yul\":2143:2164   */\n      iszero\n        /* \"#utility.yul\":2132:2164   */\n      swap1\n      pop\n        /* \"#utility.yul\":2080:2170   */\n      swap2\n      swap1\n      pop\n      jump\t// out\n        /* \"#utility.yul\":2176:2302   */\n    tag_69:\n        /* \"#utility.yul\":2213:2220   */\n      0x00\n        /* \"#utility.yul\":2253:2295   */\n      0xffffffffffffffffffffffffffffffffffffffff\n        /* \"#utility.yul\":2246:2251   */\n      dup3\n        /* \"#utility.yul\":2242:2296   */\n      and\n        /* \"#utility.yul\":2231:2296   */\n      swap1\n      pop\n        /* \"#utility.yul\":2176:2302   */\n      swap2\n      swap1\n      pop\n      jump\t// out\n        /* \"#utility.yul\":2308:2385   */\n    tag_51:\n        /* \"#utility.yul\":2345:2352   */\n      0x00\n        /* \"#utility.yul\":2374:2379   */\n      dup2\n        /* \"#utility.yul\":2363:2379   */\n      swap1\n      pop\n        /* \"#utility.yul\":2308:2385   */\n      swap2\n      swap1\n      pop\n      jump\t// out\n        /* \"#utility.yul\":2391:2571   */\n    tag_66:\n        /* \"#utility.yul\":2439:2516   */\n      0x4e487b7100000000000000000000000000000000000000000000000000000000\n        /* \"#utility.yul\":2436:2437   */\n      0x00\n        /* \"#utility.yul\":2429:2517   */\n      mstore\n        /* \"#utility.yul\":2536:2540   */\n      0x11\n        /* \"#utility.yul\":2533:2534   */\n      0x04\n        /* \"#utility.yul\":2526:2541   */\n      mstore\n        /* \"#utility.yul\":2560:2564   */\n      0x24\n        /* \"#utility.yul\":2557:2558   */\n      0x00\n        /* \"#utility.yul\":2550:2565   */\n      revert\n        /* \"#utility.yul\":2700:2817   */\n    tag_42:\n        /* \"#utility.yul\":2809:2810   */\n      0x00\n        /* \"#utility.yul\":2806:2807   */\n      dup1\n        /* \"#utility.yul\":2799:2811   */\n      revert\n        /* \"#utility.yul\":2823:2939   */\n    tag_38:\n        /* \"#utility.yul\":2893:2914   */\n      tag_79\n        /* \"#utility.yul\":2908:2913   */\n      dup2\n        /* \"#utility.yul\":2893:2914   */\n      tag_70\n      jump\t// in\n    tag_79:\n        /* \"#utility.yul\":2886:2891   */\n      dup2\n        /* \"#utility.yul\":2883:2915   */\n      eq\n        /* \"#utility.yul\":2873:2933   */\n      tag_80\n      jumpi\n        /* \"#utility.yul\":2929:2930   */\n      0x00\n        /* \"#utility.yul\":2926:2927   */\n      dup1\n        /* \"#utility.yul\":2919:2931   */\n      revert\n        /* \"#utility.yul\":2873:2933   */\n    tag_80:\n        /* \"#utility.yul\":2823:2939   */\n      pop\n      jump\t// out\n\n    auxdata: 0xa2646970667358221220c75109cd907116673b259702bdaf99e9a6d4d5cff52e79d7acdbeb23e4ac99ca64736f6c63430008070033\n}\n",
				"bytecode": {
					"linkReferences": {},
					"object": "6080604052730aa7726bc0cb085a3c4fbe3b09b91dd7e27f7fea600260006101000a81548173ffffffffffffffffffffffffffffffffffffffff021916908373ffffffffffffffffffffffffffffffffffffffff16021790555034801561006557600080fd5b506040516105bd3803806105bd833981810160405281019061008791906100c0565b603c816100949190610143565b4261009f91906100ed565b600181905550506101f2565b6000815190506100ba816101db565b92915050565b6000602082840312156100d6576100d56101d6565b5b60006100e4848285016100ab565b91505092915050565b60006100f88261019d565b91506101038361019d565b9250827fffffffffffffffffffffffffffffffffffffffffffffffffffffffffffffffff03821115610138576101376101a7565b5b828201905092915050565b600061014e8261019d565b91506101598361019d565b9250817fffffffffffffffffffffffffffffffffffffffffffffffffffffffffffffffff0483118215151615610192576101916101a7565b5b828202905092915050565b6000819050919050565b7f4e487b7100000000000000000000000000000000000000000000000000000000600052601160045260246000fd5b600080fd5b6101e48161019d565b81146101ef57600080fd5b50565b6103bc806102016000396000f3fe60806040526004361061003f5760003560e01c8063180dc0ac146100445780633197cbb61461006f57806355cf0a691461009a57806378e97925146100a4575b600080fd5b34801561005057600080fd5b506100596100cf565b604051610066919061023a565b60405180910390f35b34801561007b57600080fd5b506100846100f5565b604051610091919061027e565b60405180910390f35b6100a26100fb565b005b3480156100b057600080fd5b506100b96101d4565b6040516100c6919061027e565b60405180910390f35b600260009054906101000a900473ffffffffffffffffffffffffffffffffffffffff1681565b60015481565b600154421061010957600080fd5b6000341161011657600080fd5b600260009054906101000a900473ffffffffffffffffffffffffffffffffffffffff1673ffffffffffffffffffffffffffffffffffffffff1663a9059cbb336064346101629190610299565b6040518363ffffffff1660e01b815260040161017f929190610255565b602060405180830381600087803b15801561019957600080fd5b505af11580156101ad573d6000803e3d6000fd5b505050506040513d601f19601f820116820180604052508101906101d191906101ef565b50565b60005481565b6000815190506101e98161036f565b92915050565b6000602082840312156102055761020461036a565b5b6000610213848285016101da565b91505092915050565b610225816102f3565b82525050565b61023481610331565b82525050565b600060208201905061024f600083018461021c565b92915050565b600060408201905061026a600083018561021c565b610277602083018461022b565b9392505050565b6000602082019050610293600083018461022b565b92915050565b60006102a482610331565b91506102af83610331565b9250817fffffffffffffffffffffffffffffffffffffffffffffffffffffffffffffffff04831182151516156102e8576102e761033b565b5b828202905092915050565b60006102fe82610311565b9050919050565b60008115159050919050565b600073ffffffffffffffffffffffffffffffffffffffff82169050919050565b6000819050919050565b7f4e487b7100000000000000000000000000000000000000000000000000000000600052601160045260246000fd5b600080fd5b61037881610305565b811461038357600080fd5b5056fea2646970667358221220c75109cd907116673b259702bdaf99e9a6d4d5cff52e79d7acdbeb23e4ac99ca64736f6c63430008070033",
					"opcodes": "PUSH1 0x80 PUSH1 0x40 MSTORE PUSH20 0xAA7726BC0CB085A3C4FBE3B09B91DD7E27F7FEA PUSH1 0x2 PUSH1 0x0 PUSH2 0x100 EXP DUP2 SLOAD DUP2 PUSH20 0xFFFFFFFFFFFFFFFFFFFFFFFFFFFFFFFFFFFFFFFF MUL NOT AND SWAP1 DUP4 PUSH20 0xFFFFFFFFFFFFFFFFFFFFFFFFFFFFFFFFFFFFFFFF AND MUL OR SWAP1 SSTORE POP CALLVALUE DUP1 ISZERO PUSH2 0x65 JUMPI PUSH1 0x0 DUP1 REVERT JUMPDEST POP PUSH1 0x40 MLOAD PUSH2 0x5BD CODESIZE SUB DUP1 PUSH2 0x5BD DUP4 CODECOPY DUP2 DUP2 ADD PUSH1 0x40 MSTORE DUP2 ADD SWAP1 PUSH2 0x87 SWAP2 SWAP1 PUSH2 0xC0 JUMP JUMPDEST PUSH1 0x3C DUP2 PUSH2 0x94 SWAP2 SWAP1 PUSH2 0x143 JUMP JUMPDEST TIMESTAMP PUSH2 0x9F SWAP2 SWAP1 PUSH2 0xED JUMP JUMPDEST PUSH1 0x1 DUP2 SWAP1 SSTORE POP POP PUSH2 0x1F2 JUMP JUMPDEST PUSH1 0x0 DUP2 MLOAD SWAP1 POP PUSH2 0xBA DUP2 PUSH2 0x1DB JUMP JUMPDEST SWAP3 SWAP2 POP POP JUMP JUMPDEST PUSH1 0x0 PUSH1 0x20 DUP3 DUP5 SUB SLT ISZERO PUSH2 0xD6 JUMPI PUSH2 0xD5 PUSH2 0x1D6 JUMP JUMPDEST JUMPDEST PUSH1 0x0 PUSH2 0xE4 DUP5 DUP3 DUP6 ADD PUSH2 0xAB JUMP JUMPDEST SWAP2 POP POP SWAP3 SWAP2 POP POP JUMP JUMPDEST PUSH1 0x0 PUSH2 0xF8 DUP3 PUSH2 0x19D JUMP JUMPDEST SWAP2 POP PUSH2 0x103 DUP4 PUSH2 0x19D JUMP JUMPDEST SWAP3 POP DUP3 PUSH32 0xFFFFFFFFFFFFFFFFFFFFFFFFFFFFFFFFFFFFFFFFFFFFFFFFFFFFFFFFFFFFFFFF SUB DUP3 GT ISZERO PUSH2 0x138 JUMPI PUSH2 0x137 PUSH2 0x1A7 JUMP JUMPDEST JUMPDEST DUP3 DUP3 ADD SWAP1 POP SWAP3 SWAP2 POP POP JUMP JUMPDEST PUSH1 0x0 PUSH2 0x14E DUP3 PUSH2 0x19D JUMP JUMPDEST SWAP2 POP PUSH2 0x159 DUP4 PUSH2 0x19D JUMP JUMPDEST SWAP3 POP DUP2 PUSH32 0xFFFFFFFFFFFFFFFFFFFFFFFFFFFFFFFFFFFFFFFFFFFFFFFFFFFFFFFFFFFFFFFF DIV DUP4 GT DUP3 ISZERO ISZERO AND ISZERO PUSH2 0x192 JUMPI PUSH2 0x191 PUSH2 0x1A7 JUMP JUMPDEST JUMPDEST DUP3 DUP3 MUL SWAP1 POP SWAP3 SWAP2 POP POP JUMP JUMPDEST PUSH1 0x0 DUP2 SWAP1 POP SWAP2 SWAP1 POP JUMP JUMPDEST PUSH32 0x4E487B7100000000000000000000000000000000000000000000000000000000 PUSH1 0x0 MSTORE PUSH1 0x11 PUSH1 0x4 MSTORE PUSH1 0x24 PUSH1 0x0 REVERT JUMPDEST PUSH1 0x0 DUP1 REVERT JUMPDEST PUSH2 0x1E4 DUP2 PUSH2 0x19D JUMP JUMPDEST DUP2 EQ PUSH2 0x1EF JUMPI PUSH1 0x0 DUP1 REVERT JUMPDEST POP JUMP JUMPDEST PUSH2 0x3BC DUP1 PUSH2 0x201 PUSH1 0x0 CODECOPY PUSH1 0x0 RETURN INVALID PUSH1 0x80 PUSH1 0x40 MSTORE PUSH1 0x4 CALLDATASIZE LT PUSH2 0x3F JUMPI PUSH1 0x0 CALLDATALOAD PUSH1 0xE0 SHR DUP1 PUSH4 0x180DC0AC EQ PUSH2 0x44 JUMPI DUP1 PUSH4 0x3197CBB6 EQ PUSH2 0x6F JUMPI DUP1 PUSH4 0x55CF0A69 EQ PUSH2 0x9A JUMPI DUP1 PUSH4 0x78E97925 EQ PUSH2 0xA4 JUMPI JUMPDEST PUSH1 0x0 DUP1 REVERT JUMPDEST CALLVALUE DUP1 ISZERO PUSH2 0x50 JUMPI PUSH1 0x0 DUP1 REVERT JUMPDEST POP PUSH2 0x59 PUSH2 0xCF JUMP JUMPDEST PUSH1 0x40 MLOAD PUSH2 0x66 SWAP2 SWAP1 PUSH2 0x23A JUMP JUMPDEST PUSH1 0x40 MLOAD DUP1 SWAP2 SUB SWAP1 RETURN JUMPDEST CALLVALUE DUP1 ISZERO PUSH2 0x7B JUMPI PUSH1 0x0 DUP1 REVERT JUMPDEST POP PUSH2 0x84 PUSH2 0xF5 JUMP JUMPDEST PUSH1 0x40 MLOAD PUSH2 0x91 SWAP2 SWAP1 PUSH2 0x27E JUMP JUMPDEST PUSH1 0x40 MLOAD DUP1 SWAP2 SUB SWAP1 RETURN JUMPDEST PUSH2 0xA2 PUSH2 0xFB JUMP JUMPDEST STOP JUMPDEST CALLVALUE DUP1 ISZERO PUSH2 0xB0 JUMPI PUSH1 0x0 DUP1 REVERT JUMPDEST POP PUSH2 0xB9 PUSH2 0x1D4 JUMP JUMPDEST PUSH1 0x40 MLOAD PUSH2 0xC6 SWAP2 SWAP1 PUSH2 0x27E JUMP JUMPDEST PUSH1 0x40 MLOAD DUP1 SWAP2 SUB SWAP1 RETURN JUMPDEST PUSH1 0x2 PUSH1 0x0 SWAP1 SLOAD SWAP1 PUSH2 0x100 EXP SWAP1 DIV PUSH20 0xFFFFFFFFFFFFFFFFFFFFFFFFFFFFFFFFFFFFFFFF AND DUP2 JUMP JUMPDEST PUSH1 0x1 SLOAD DUP2 JUMP JUMPDEST PUSH1 0x1 SLOAD TIMESTAMP LT PUSH2 0x109 JUMPI PUSH1 0x0 DUP1 REVERT JUMPDEST PUSH1 0x0 CALLVALUE GT PUSH2 0x116 JUMPI PUSH1 0x0 DUP1 REVERT JUMPDEST PUSH1 0x2 PUSH1 0x0 SWAP1 SLOAD SWAP1 PUSH2 0x100 EXP SWAP1 DIV PUSH20 0xFFFFFFFFFFFFFFFFFFFFFFFFFFFFFFFFFFFFFFFF AND PUSH20 0xFFFFFFFFFFFFFFFFFFFFFFFFFFFFFFFFFFFFFFFF AND PUSH4 0xA9059CBB CALLER PUSH1 0x64 CALLVALUE PUSH2 0x162 SWAP2 SWAP1 PUSH2 0x299 JUMP JUMPDEST PUSH1 0x40 MLOAD DUP4 PUSH4 0xFFFFFFFF AND PUSH1 0xE0 SHL DUP2 MSTORE PUSH1 0x4 ADD PUSH2 0x17F SWAP3 SWAP2 SWAP1 PUSH2 0x255 JUMP JUMPDEST PUSH1 0x20 PUSH1 0x40 MLOAD DUP1 DUP4 SUB DUP2 PUSH1 0x0 DUP8 DUP1 EXTCODESIZE ISZERO DUP1 ISZERO PUSH2 0x199 JUMPI PUSH1 0x0 DUP1 REVERT JUMPDEST POP GAS CALL ISZERO DUP1 ISZERO PUSH2 0x1AD JUMPI RETURNDATASIZE PUSH1 0x0 DUP1 RETURNDATACOPY RETURNDATASIZE PUSH1 0x0 REVERT JUMPDEST POP POP POP POP PUSH1 0x40 MLOAD RETURNDATASIZE PUSH1 0x1F NOT PUSH1 0x1F DUP3 ADD AND DUP3 ADD DUP1 PUSH1 0x40 MSTORE POP DUP2 ADD SWAP1 PUSH2 0x1D1 SWAP2 SWAP1 PUSH2 0x1EF JUMP JUMPDEST POP JUMP JUMPDEST PUSH1 0x0 SLOAD DUP2 JUMP JUMPDEST PUSH1 0x0 DUP2 MLOAD SWAP1 POP PUSH2 0x1E9 DUP2 PUSH2 0x36F JUMP JUMPDEST SWAP3 SWAP2 POP POP JUMP JUMPDEST PUSH1 0x0 PUSH1 0x20 DUP3 DUP5 SUB SLT ISZERO PUSH2 0x205 JUMPI PUSH2 0x204 PUSH2 0x36A JUMP JUMPDEST JUMPDEST PUSH1 0x0 PUSH2 0x213 DUP5 DUP3 DUP6 ADD PUSH2 0x1DA JUMP JUMPDEST SWAP2 POP POP SWAP3 SWAP2 POP POP JUMP JUMPDEST PUSH2 0x225 DUP2 PUSH2 0x2F3 JUMP JUMPDEST DUP3 MSTORE POP POP JUMP JUMPDEST PUSH2 0x234 DUP2 PUSH2 0x331 JUMP JUMPDEST DUP3 MSTORE POP POP JUMP JUMPDEST PUSH1 0x0 PUSH1 0x20 DUP3 ADD SWAP1 POP PUSH2 0x24F PUSH1 0x0 DUP4 ADD DUP5 PUSH2 0x21C JUMP JUMPDEST SWAP3 SWAP2 POP POP JUMP JUMPDEST PUSH1 0x0 PUSH1 0x40 DUP3 ADD SWAP1 POP PUSH2 0x26A PUSH1 0x0 DUP4 ADD DUP6 PUSH2 0x21C JUMP JUMPDEST PUSH2 0x277 PUSH1 0x20 DUP4 ADD DUP5 PUSH2 0x22B JUMP JUMPDEST SWAP4 SWAP3 POP POP POP JUMP JUMPDEST PUSH1 0x0 PUSH1 0x20 DUP3 ADD SWAP1 POP PUSH2 0x293 PUSH1 0x0 DUP4 ADD DUP5 PUSH2 0x22B JUMP JUMPDEST SWAP3 SWAP2 POP POP JUMP JUMPDEST PUSH1 0x0 PUSH2 0x2A4 DUP3 PUSH2 0x331 JUMP JUMPDEST SWAP2 POP PUSH2 0x2AF DUP4 PUSH2 0x331 JUMP JUMPDEST SWAP3 POP DUP2 PUSH32 0xFFFFFFFFFFFFFFFFFFFFFFFFFFFFFFFFFFFFFFFFFFFFFFFFFFFFFFFFFFFFFFFF DIV DUP4 GT DUP3 ISZERO ISZERO AND ISZERO PUSH2 0x2E8 JUMPI PUSH2 0x2E7 PUSH2 0x33B JUMP JUMPDEST JUMPDEST DUP3 DUP3 MUL SWAP1 POP SWAP3 SWAP2 POP POP JUMP JUMPDEST PUSH1 0x0 PUSH2 0x2FE DUP3 PUSH2 0x311 JUMP JUMPDEST SWAP1 POP SWAP2 SWAP1 POP JUMP JUMPDEST PUSH1 0x0 DUP2 ISZERO ISZERO SWAP1 POP SWAP2 SWAP1 POP JUMP JUMPDEST PUSH1 0x0 PUSH20 0xFFFFFFFFFFFFFFFFFFFFFFFFFFFFFFFFFFFFFFFF DUP3 AND SWAP1 POP SWAP2 SWAP1 POP JUMP JUMPDEST PUSH1 0x0 DUP2 SWAP1 POP SWAP2 SWAP1 POP JUMP JUMPDEST PUSH32 0x4E487B7100000000000000000000000000000000000000000000000000000000 PUSH1 0x0 MSTORE PUSH1 0x11 PUSH1 0x4 MSTORE PUSH1 0x24 PUSH1 0x0 REVERT JUMPDEST PUSH1 0x0 DUP1 REVERT JUMPDEST PUSH2 0x378 DUP2 PUSH2 0x305 JUMP JUMPDEST DUP2 EQ PUSH2 0x383 JUMPI PUSH1 0x0 DUP1 REVERT JUMPDEST POP JUMP INVALID LOG2 PUSH5 0x6970667358 0x22 SLT KECCAK256 0xC7 MLOAD MULMOD 0xCD SWAP1 PUSH18 0x16673B259702BDAF99E9A6D4D5CFF52E79D7 0xAC 0xDB 0xEB 0x23 0xE4 0xAC SWAP10 0xCA PUSH5 0x736F6C6343 STOP ADDMOD SMOD STOP CALLER "
				},
				"gasEstimates": {
					"creation": {
						"codeDepositCost": "191200",
						"executionCost": "infinite",
						"totalCost": "infinite"
					},
					"external": {
						"axsToken()": "2492",
						"endTime()": "2429",
						"receiveUSDT()": "infinite",
						"startTime()": "2473"
					}
				},
				"methodIdentifiers": {
					"axsToken()": "180dc0ac",
					"endTime()": "3197cbb6",
					"receiveUSDT()": "55cf0a69",
					"startTime()": "78e97925"
				}
			},
			"storageLayout": {
				"storage": [
					{
						"astId": 82,
						"contract": "TokenSell.sol:Tokensell",
						"label": "startTime",
						"offset": 0,
						"slot": "0",
						"type": "t_uint256"
					},
					{
						"astId": 84,
						"contract": "TokenSell.sol:Tokensell",
						"label": "endTime",
						"offset": 0,
						"slot": "1",
						"type": "t_uint256"
					},
					{
						"astId": 87,
						"contract": "TokenSell.sol:Tokensell",
						"label": "axsToken",
						"offset": 0,
						"slot": "2",
						"type": "t_address"
					}
				],
				"types": {
					"t_address": {
						"encoding": "inplace",
						"label": "address",
						"numberOfBytes": "20"
					},
					"t_uint256": {
						"encoding": "inplace",
						"label": "uint256",
						"numberOfBytes": "32"
					}
				}
			},
			"userdoc": {
				"kind": "user",
				"methods": {},
				"version": 1
			}
		}
	}
}