{
	"Token.sol": {
		"Token": {
			"abi": [
				{
					"inputs": [
						{
							"internalType": "address",
							"name": "_minter",
							"type": "address"
						}
					],
					"stateMutability": "nonpayable",
					"type": "constructor"
				},
				{
					"inputs": [
						{
							"internalType": "address",
							"name": "",
							"type": "address"
						}
					],
					"name": "balance",
					"outputs": [
						{
							"internalType": "uint256",
							"name": "",
							"type": "uint256"
						}
					],
					"stateMutability": "view",
					"type": "function"
				},
				{
					"inputs": [],
					"name": "decimal",
					"outputs": [
						{
							"internalType": "uint256",
							"name": "",
							"type": "uint256"
						}
					],
					"stateMutability": "view",
					"type": "function"
				},
				{
					"inputs": [
						{
							"internalType": "address",
							"name": "receiver",
							"type": "address"
						},
						{
							"internalType": "uint256",
							"name": "amount",
							"type": "uint256"
						}
					],
					"name": "mint",
					"outputs": [],
					"stateMutability": "nonpayable",
					"type": "function"
				},
				{
					"inputs": [],
					"name": "minter",
					"outputs": [
						{
							"internalType": "address",
							"name": "",
							"type": "address"
						}
					],
					"stateMutability": "view",
					"type": "function"
				},
				{
					"inputs": [],
					"name": "name",
					"outputs": [
						{
							"internalType": "string",
							"name": "",
							"type": "string"
						}
					],
					"stateMutability": "view",
					"type": "function"
				},
				{
					"inputs": [
						{
							"internalType": "address",
							"name": "get",
							"type": "address"
						},
						{
							"internalType": "uint256",
							"name": "amount",
							"type": "uint256"
						}
					],
					"name": "sendnum",
					"outputs": [],
					"stateMutability": "nonpayable",
					"type": "function"
				},
				{
					"inputs": [],
					"name": "symbol",
					"outputs": [
						{
							"internalType": "string",
							"name": "",
							"type": "string"
						}
					],
					"stateMutability": "view",
					"type": "function"
				},
				{
					"inputs": [],
					"name": "totalSupply",
					"outputs": [
						{
							"internalType": "uint256",
							"name": "",
							"type": "uint256"
						}
					],
					"stateMutability": "view",
					"type": "function"
				}
			],
			"devdoc": {
				"kind": "dev",
				"methods": {},
				"version": 1
			},
			"evm": {
				"assembly": "    /* \"Token.sol\":62:842  contract Token {... */\n  mstore(0x40, 0x80)\n    /* \"Token.sol\":83:114  string public name = \"solidity\" */\n  mload(0x40)\n  dup1\n  0x40\n  add\n  0x40\n  mstore\n  dup1\n  0x08\n  dup2\n  mstore\n  0x20\n  add\n  0x736f6c6964697479000000000000000000000000000000000000000000000000\n  dup2\n  mstore\n  pop\n  0x00\n  swap1\n  dup1\n  mload\n  swap1\n  0x20\n  add\n  swap1\n  tag_1\n  swap3\n  swap2\n  swap1\n  tag_2\n  jump\t// in\ntag_1:\n  pop\n    /* \"Token.sol\":120:148  string public symbol = \"SOL\" */\n  mload(0x40)\n  dup1\n  0x40\n  add\n  0x40\n  mstore\n  dup1\n  0x03\n  dup2\n  mstore\n  0x20\n  add\n  0x534f4c0000000000000000000000000000000000000000000000000000000000\n  dup2\n  mstore\n  pop\n  0x01\n  swap1\n  dup1\n  mload\n  swap1\n  0x20\n  add\n  swap1\n  tag_3\n  swap3\n  swap2\n  swap1\n  tag_2\n  jump\t// in\ntag_3:\n  pop\n    /* \"Token.sol\":179:181  18 */\n  0x12\n    /* \"Token.sol\":154:181  uint256 public decimal = 18 */\n  0x02\n  sstore\n    /* \"Token.sol\":216:225  210000000 */\n  0x0c845880\n    /* \"Token.sol\":187:225  uint256 public totalSupply = 210000000 */\n  0x03\n  sstore\n    /* \"Token.sol\":346:413  constructor(address _minter)public{... */\n  callvalue\n  dup1\n  iszero\n  tag_4\n  jumpi\n  0x00\n  dup1\n  revert\ntag_4:\n  pop\n  mload(0x40)\n  sub(codesize, bytecodeSize)\n  dup1\n  bytecodeSize\n  dup4\n  codecopy\n  dup2\n  dup2\n  add\n  0x40\n  mstore\n  dup2\n  add\n  swap1\n  tag_5\n  swap2\n  swap1\n  tag_6\n  jump\t// in\ntag_5:\n    /* \"Token.sol\":399:406  _minter */\n  dup1\n    /* \"Token.sol\":390:396  minter */\n  0x04\n  0x00\n    /* \"Token.sol\":390:406  minter = _minter */\n  0x0100\n  exp\n  dup2\n  sload\n  dup2\n  0xffffffffffffffffffffffffffffffffffffffff\n  mul\n  not\n  and\n  swap1\n  dup4\n  0xffffffffffffffffffffffffffffffffffffffff\n  and\n  mul\n  or\n  swap1\n  sstore\n  pop\n    /* \"Token.sol\":346:413  constructor(address _minter)public{... */\n  pop\n    /* \"Token.sol\":62:842  contract Token {... */\n  jump(tag_9)\ntag_2:\n  dup3\n  dup1\n  sload\n  tag_10\n  swap1\n  tag_11\n  jump\t// in\ntag_10:\n  swap1\n  0x00\n  mstore\n  keccak256(0x00, 0x20)\n  swap1\n  0x1f\n  add\n  0x20\n  swap1\n  div\n  dup2\n  add\n  swap3\n  dup3\n  tag_13\n  jumpi\n  0x00\n  dup6\n  sstore\n  jump(tag_12)\ntag_13:\n  dup3\n  0x1f\n  lt\n  tag_14\n  jumpi\n  dup1\n  mload\n  not(0xff)\n  and\n  dup4\n  dup1\n  add\n  or\n  dup6\n  sstore\n  jump(tag_12)\ntag_14:\n  dup3\n  dup1\n  add\n  0x01\n  add\n  dup6\n  sstore\n  dup3\n  iszero\n  tag_12\n  jumpi\n  swap2\n  dup3\n  add\ntag_15:\n  dup3\n  dup2\n  gt\n  iszero\n  tag_16\n  jumpi\n  dup3\n  mload\n  dup3\n  sstore\n  swap2\n  0x20\n  add\n  swap2\n  swap1\n  0x01\n  add\n  swap1\n  jump(tag_15)\ntag_16:\ntag_12:\n  pop\n  swap1\n  pop\n  tag_17\n  swap2\n  swap1\n  tag_18\n  jump\t// in\ntag_17:\n  pop\n  swap1\n  jump\t// out\ntag_18:\ntag_19:\n  dup1\n  dup3\n  gt\n  iszero\n  tag_20\n  jumpi\n  0x00\n  dup2\n  0x00\n  swap1\n  sstore\n  pop\n  0x01\n  add\n  jump(tag_19)\ntag_20:\n  pop\n  swap1\n  jump\t// out\n    /* \"#utility.yul\":7:150   */\ntag_22:\n    /* \"#utility.yul\":64:69   */\n  0x00\n    /* \"#utility.yul\":95:101   */\n  dup2\n    /* \"#utility.yul\":89:102   */\n  mload\n    /* \"#utility.yul\":80:102   */\n  swap1\n  pop\n    /* \"#utility.yul\":111:144   */\n  tag_24\n    /* \"#utility.yul\":138:143   */\n  dup2\n    /* \"#utility.yul\":111:144   */\n  tag_25\n  jump\t// in\ntag_24:\n    /* \"#utility.yul\":7:150   */\n  swap3\n  swap2\n  pop\n  pop\n  jump\t// out\n    /* \"#utility.yul\":156:507   */\ntag_6:\n    /* \"#utility.yul\":226:232   */\n  0x00\n    /* \"#utility.yul\":275:277   */\n  0x20\n    /* \"#utility.yul\":263:272   */\n  dup3\n    /* \"#utility.yul\":254:261   */\n  dup5\n    /* \"#utility.yul\":250:273   */\n  sub\n    /* \"#utility.yul\":246:278   */\n  slt\n    /* \"#utility.yul\":243:362   */\n  iszero\n  tag_27\n  jumpi\n    /* \"#utility.yul\":281:360   */\n  tag_28\n  tag_29\n  jump\t// in\ntag_28:\n    /* \"#utility.yul\":243:362   */\ntag_27:\n    /* \"#utility.yul\":401:402   */\n  0x00\n    /* \"#utility.yul\":426:490   */\n  tag_30\n    /* \"#utility.yul\":482:489   */\n  dup5\n    /* \"#utility.yul\":473:479   */\n  dup3\n    /* \"#utility.yul\":462:471   */\n  dup6\n    /* \"#utility.yul\":458:480   */\n  add\n    /* \"#utility.yul\":426:490   */\n  tag_22\n  jump\t// in\ntag_30:\n    /* \"#utility.yul\":416:490   */\n  swap2\n  pop\n    /* \"#utility.yul\":372:500   */\n  pop\n    /* \"#utility.yul\":156:507   */\n  swap3\n  swap2\n  pop\n  pop\n  jump\t// out\n    /* \"#utility.yul\":594:690   */\ntag_33:\n    /* \"#utility.yul\":631:638   */\n  0x00\n    /* \"#utility.yul\":660:684   */\n  tag_35\n    /* \"#utility.yul\":678:683   */\n  dup3\n    /* \"#utility.yul\":660:684   */\n  tag_36\n  jump\t// in\ntag_35:\n    /* \"#utility.yul\":649:684   */\n  swap1\n  pop\n    /* \"#utility.yul\":594:690   */\n  swap2\n  swap1\n  pop\n  jump\t// out\n    /* \"#utility.yul\":696:822   */\ntag_36:\n    /* \"#utility.yul\":733:740   */\n  0x00\n    /* \"#utility.yul\":773:815   */\n  0xffffffffffffffffffffffffffffffffffffffff\n    /* \"#utility.yul\":766:771   */\n  dup3\n    /* \"#utility.yul\":762:816   */\n  and\n    /* \"#utility.yul\":751:816   */\n  swap1\n  pop\n    /* \"#utility.yul\":696:822   */\n  swap2\n  swap1\n  pop\n  jump\t// out\n    /* \"#utility.yul\":828:1148   */\ntag_11:\n    /* \"#utility.yul\":872:878   */\n  0x00\n    /* \"#utility.yul\":909:910   */\n  0x02\n    /* \"#utility.yul\":903:907   */\n  dup3\n    /* \"#utility.yul\":899:911   */\n  div\n    /* \"#utility.yul\":889:911   */\n  swap1\n  pop\n    /* \"#utility.yul\":956:957   */\n  0x01\n    /* \"#utility.yul\":950:954   */\n  dup3\n    /* \"#utility.yul\":946:958   */\n  and\n    /* \"#utility.yul\":977:995   */\n  dup1\n    /* \"#utility.yul\":967:1048   */\n  tag_39\n  jumpi\n    /* \"#utility.yul\":1033:1037   */\n  0x7f\n    /* \"#utility.yul\":1025:1031   */\n  dup3\n    /* \"#utility.yul\":1021:1038   */\n  and\n    /* \"#utility.yul\":1011:1038   */\n  swap2\n  pop\n    /* \"#utility.yul\":967:1048   */\ntag_39:\n    /* \"#utility.yul\":1095:1097   */\n  0x20\n    /* \"#utility.yul\":1087:1093   */\n  dup3\n    /* \"#utility.yul\":1084:1098   */\n  lt\n    /* \"#utility.yul\":1064:1082   */\n  dup2\n    /* \"#utility.yul\":1061:1099   */\n  eq\n    /* \"#utility.yul\":1058:1142   */\n  iszero\n  tag_40\n  jumpi\n    /* \"#utility.yul\":1114:1132   */\n  tag_41\n  tag_42\n  jump\t// in\ntag_41:\n    /* \"#utility.yul\":1058:1142   */\ntag_40:\n    /* \"#utility.yul\":879:1148   */\n  pop\n    /* \"#utility.yul\":828:1148   */\n  swap2\n  swap1\n  pop\n  jump\t// out\n    /* \"#utility.yul\":1154:1334   */\ntag_42:\n    /* \"#utility.yul\":1202:1279   */\n  0x4e487b7100000000000000000000000000000000000000000000000000000000\n    /* \"#utility.yul\":1199:1200   */\n  0x00\n    /* \"#utility.yul\":1192:1280   */\n  mstore\n    /* \"#utility.yul\":1299:1303   */\n  0x22\n    /* \"#utility.yul\":1296:1297   */\n  0x04\n    /* \"#utility.yul\":1289:1304   */\n  mstore\n    /* \"#utility.yul\":1323:1327   */\n  0x24\n    /* \"#utility.yul\":1320:1321   */\n  0x00\n    /* \"#utility.yul\":1313:1328   */\n  revert\n    /* \"#utility.yul\":1463:1580   */\ntag_29:\n    /* \"#utility.yul\":1572:1573   */\n  0x00\n    /* \"#utility.yul\":1569:1570   */\n  dup1\n    /* \"#utility.yul\":1562:1574   */\n  revert\n    /* \"#utility.yul\":1586:1708   */\ntag_25:\n    /* \"#utility.yul\":1659:1683   */\n  tag_48\n    /* \"#utility.yul\":1677:1682   */\n  dup2\n    /* \"#utility.yul\":1659:1683   */\n  tag_33\n  jump\t// in\ntag_48:\n    /* \"#utility.yul\":1652:1657   */\n  dup2\n    /* \"#utility.yul\":1649:1684   */\n  eq\n    /* \"#utility.yul\":1639:1702   */\n  tag_49\n  jumpi\n    /* \"#utility.yul\":1698:1699   */\n  0x00\n    /* \"#utility.yul\":1695:1696   */\n  dup1\n    /* \"#utility.yul\":1688:1700   */\n  revert\n    /* \"#utility.yul\":1639:1702   */\ntag_49:\n    /* \"#utility.yul\":1586:1708   */\n  pop\n  jump\t// out\n    /* \"Token.sol\":62:842  contract Token {... */\ntag_9:\n  dataSize(sub_0)\n  dup1\n  dataOffset(sub_0)\n  0x00\n  codecopy\n  0x00\n  return\nstop\n\nsub_0: assembly {\n        /* \"Token.sol\":62:842  contract Token {... */\n      mstore(0x40, 0x80)\n      callvalue\n      dup1\n      iszero\n      tag_1\n      jumpi\n      0x00\n      dup1\n      revert\n    tag_1:\n      pop\n      jumpi(tag_2, lt(calldatasize, 0x04))\n      shr(0xe0, calldataload(0x00))\n      dup1\n      0x76809ce3\n      gt\n      tag_11\n      jumpi\n      dup1\n      0x76809ce3\n      eq\n      tag_7\n      jumpi\n      dup1\n      0x95d89b41\n      eq\n      tag_8\n      jumpi\n      dup1\n      0xb20a7cf6\n      eq\n      tag_9\n      jumpi\n      dup1\n      0xe3d670d7\n      eq\n      tag_10\n      jumpi\n      jump(tag_2)\n    tag_11:\n      dup1\n      0x06fdde03\n      eq\n      tag_3\n      jumpi\n      dup1\n      0x07546172\n      eq\n      tag_4\n      jumpi\n      dup1\n      0x18160ddd\n      eq\n      tag_5\n      jumpi\n      dup1\n      0x40c10f19\n      eq\n      tag_6\n      jumpi\n    tag_2:\n      0x00\n      dup1\n      revert\n        /* \"Token.sol\":83:114  string public name = \"solidity\" */\n    tag_3:\n      tag_12\n      tag_13\n      jump\t// in\n    tag_12:\n      mload(0x40)\n      tag_14\n      swap2\n      swap1\n      tag_15\n      jump\t// in\n    tag_14:\n      mload(0x40)\n      dup1\n      swap2\n      sub\n      swap1\n      return\n        /* \"Token.sol\":231:252  address public minter */\n    tag_4:\n      tag_16\n      tag_17\n      jump\t// in\n    tag_16:\n      mload(0x40)\n      tag_18\n      swap2\n      swap1\n      tag_19\n      jump\t// in\n    tag_18:\n      mload(0x40)\n      dup1\n      swap2\n      sub\n      swap1\n      return\n        /* \"Token.sol\":187:225  uint256 public totalSupply = 210000000 */\n    tag_5:\n      tag_20\n      tag_21\n      jump\t// in\n    tag_20:\n      mload(0x40)\n      tag_22\n      swap2\n      swap1\n      tag_23\n      jump\t// in\n    tag_22:\n      mload(0x40)\n      dup1\n      swap2\n      sub\n      swap1\n      return\n        /* \"Token.sol\":731:836  function mint(address receiver, uint amount) public onlyOwner{... */\n    tag_6:\n      tag_24\n      0x04\n      dup1\n      calldatasize\n      sub\n      dup2\n      add\n      swap1\n      tag_25\n      swap2\n      swap1\n      tag_26\n      jump\t// in\n    tag_25:\n      tag_27\n      jump\t// in\n    tag_24:\n      stop\n        /* \"Token.sol\":154:181  uint256 public decimal = 18 */\n    tag_7:\n      tag_28\n      tag_29\n      jump\t// in\n    tag_28:\n      mload(0x40)\n      tag_30\n      swap2\n      swap1\n      tag_23\n      jump\t// in\n    tag_30:\n      mload(0x40)\n      dup1\n      swap2\n      sub\n      swap1\n      return\n        /* \"Token.sol\":120:148  string public symbol = \"SOL\" */\n    tag_8:\n      tag_31\n      tag_32\n      jump\t// in\n    tag_31:\n      mload(0x40)\n      tag_33\n      swap2\n      swap1\n      tag_15\n      jump\t// in\n    tag_33:\n      mload(0x40)\n      dup1\n      swap2\n      sub\n      swap1\n      return\n        /* \"Token.sol\":530:726  function sendnum(address get, uint amount) public{... */\n    tag_9:\n      tag_34\n      0x04\n      dup1\n      calldatasize\n      sub\n      dup2\n      add\n      swap1\n      tag_35\n      swap2\n      swap1\n      tag_26\n      jump\t// in\n    tag_35:\n      tag_36\n      jump\t// in\n    tag_34:\n      stop\n        /* \"Token.sol\":275:314  mapping(address => uint) public balance */\n    tag_10:\n      tag_37\n      0x04\n      dup1\n      calldatasize\n      sub\n      dup2\n      add\n      swap1\n      tag_38\n      swap2\n      swap1\n      tag_39\n      jump\t// in\n    tag_38:\n      tag_40\n      jump\t// in\n    tag_37:\n      mload(0x40)\n      tag_41\n      swap2\n      swap1\n      tag_23\n      jump\t// in\n    tag_41:\n      mload(0x40)\n      dup1\n      swap2\n      sub\n      swap1\n      return\n        /* \"Token.sol\":83:114  string public name = \"solidity\" */\n    tag_13:\n      0x00\n      dup1\n      sload\n      tag_42\n      swap1\n      tag_43\n      jump\t// in\n    tag_42:\n      dup1\n      0x1f\n      add\n      0x20\n      dup1\n      swap2\n      div\n      mul\n      0x20\n      add\n      mload(0x40)\n      swap1\n      dup2\n      add\n      0x40\n      mstore\n      dup1\n      swap3\n      swap2\n      swap1\n      dup2\n      dup2\n      mstore\n      0x20\n      add\n      dup3\n      dup1\n      sload\n      tag_44\n      swap1\n      tag_43\n      jump\t// in\n    tag_44:\n      dup1\n      iszero\n      tag_45\n      jumpi\n      dup1\n      0x1f\n      lt\n      tag_46\n      jumpi\n      0x0100\n      dup1\n      dup4\n      sload\n      div\n      mul\n      dup4\n      mstore\n      swap2\n      0x20\n      add\n      swap2\n      jump(tag_45)\n    tag_46:\n      dup3\n      add\n      swap2\n      swap1\n      0x00\n      mstore\n      keccak256(0x00, 0x20)\n      swap1\n    tag_47:\n      dup2\n      sload\n      dup2\n      mstore\n      swap1\n      0x01\n      add\n      swap1\n      0x20\n      add\n      dup1\n      dup4\n      gt\n      tag_47\n      jumpi\n      dup3\n      swap1\n      sub\n      0x1f\n      and\n      dup3\n      add\n      swap2\n    tag_45:\n      pop\n      pop\n      pop\n      pop\n      pop\n      dup2\n      jump\t// out\n        /* \"Token.sol\":231:252  address public minter */\n    tag_17:\n      0x04\n      0x00\n      swap1\n      sload\n      swap1\n      0x0100\n      exp\n      swap1\n      div\n      0xffffffffffffffffffffffffffffffffffffffff\n      and\n      dup2\n      jump\t// out\n        /* \"Token.sol\":187:225  uint256 public totalSupply = 210000000 */\n    tag_21:\n      sload(0x03)\n      dup2\n      jump\t// out\n        /* \"Token.sol\":731:836  function mint(address receiver, uint amount) public onlyOwner{... */\n    tag_27:\n        /* \"Token.sol\":478:484  minter */\n      0x04\n      0x00\n      swap1\n      sload\n      swap1\n      0x0100\n      exp\n      swap1\n      div\n      0xffffffffffffffffffffffffffffffffffffffff\n      and\n        /* \"Token.sol\":464:484  msg.sender == minter */\n      0xffffffffffffffffffffffffffffffffffffffff\n      and\n        /* \"Token.sol\":464:474  msg.sender */\n      caller\n        /* \"Token.sol\":464:484  msg.sender == minter */\n      0xffffffffffffffffffffffffffffffffffffffff\n      and\n      eq\n        /* \"Token.sol\":455:507  require (msg.sender == minter,\"not is own account\" ) */\n      tag_49\n      jumpi\n      mload(0x40)\n      0x08c379a000000000000000000000000000000000000000000000000000000000\n      dup2\n      mstore\n      0x04\n      add\n      tag_50\n      swap1\n      tag_51\n      jump\t// in\n    tag_50:\n      mload(0x40)\n      dup1\n      swap2\n      sub\n      swap1\n      revert\n    tag_49:\n        /* \"Token.sol\":823:829  amount */\n      dup1\n        /* \"Token.sol\":802:809  balance */\n      0x05\n        /* \"Token.sol\":802:819  balance[receiver] */\n      0x00\n        /* \"Token.sol\":810:818  receiver */\n      dup5\n        /* \"Token.sol\":802:819  balance[receiver] */\n      0xffffffffffffffffffffffffffffffffffffffff\n      and\n      0xffffffffffffffffffffffffffffffffffffffff\n      and\n      dup2\n      mstore\n      0x20\n      add\n      swap1\n      dup2\n      mstore\n      0x20\n      add\n      0x00\n      keccak256\n      0x00\n        /* \"Token.sol\":802:829  balance[receiver] += amount */\n      dup3\n      dup3\n      sload\n      tag_53\n      swap2\n      swap1\n      tag_54\n      jump\t// in\n    tag_53:\n      swap3\n      pop\n      pop\n      dup2\n      swap1\n      sstore\n      pop\n        /* \"Token.sol\":731:836  function mint(address receiver, uint amount) public onlyOwner{... */\n      pop\n      pop\n      jump\t// out\n        /* \"Token.sol\":154:181  uint256 public decimal = 18 */\n    tag_29:\n      sload(0x02)\n      dup2\n      jump\t// out\n        /* \"Token.sol\":120:148  string public symbol = \"SOL\" */\n    tag_32:\n      0x01\n      dup1\n      sload\n      tag_55\n      swap1\n      tag_43\n      jump\t// in\n    tag_55:\n      dup1\n      0x1f\n      add\n      0x20\n      dup1\n      swap2\n      div\n      mul\n      0x20\n      add\n      mload(0x40)\n      swap1\n      dup2\n      add\n      0x40\n      mstore\n      dup1\n      swap3\n      swap2\n      swap1\n      dup2\n      dup2\n      mstore\n      0x20\n      add\n      dup3\n      dup1\n      sload\n      tag_56\n      swap1\n      tag_43\n      jump\t// in\n    tag_56:\n      dup1\n      iszero\n      tag_57\n      jumpi\n      dup1\n      0x1f\n      lt\n      tag_58\n      jumpi\n      0x0100\n      dup1\n      dup4\n      sload\n      div\n      mul\n      dup4\n      mstore\n      swap2\n      0x20\n      add\n      swap2\n      jump(tag_57)\n    tag_58:\n      dup3\n      add\n      swap2\n      swap1\n      0x00\n      mstore\n      keccak256(0x00, 0x20)\n      swap1\n    tag_59:\n      dup2\n      sload\n      dup2\n      mstore\n      swap1\n      0x01\n      add\n      swap1\n      0x20\n      add\n      dup1\n      dup4\n      gt\n      tag_59\n      jumpi\n      dup3\n      swap1\n      sub\n      0x1f\n      and\n      dup3\n      add\n      swap2\n    tag_57:\n      pop\n      pop\n      pop\n      pop\n      pop\n      dup2\n      jump\t// out\n        /* \"Token.sol\":530:726  function sendnum(address get, uint amount) public{... */\n    tag_36:\n        /* \"Token.sol\":619:625  amount */\n      dup1\n        /* \"Token.sol\":597:607  msg.sender */\n      caller\n        /* \"Token.sol\":597:615  msg.sender.balance */\n      0xffffffffffffffffffffffffffffffffffffffff\n      and\n      balance\n        /* \"Token.sol\":597:625  msg.sender.balance >= amount */\n      lt\n      iszero\n        /* \"Token.sol\":589:639  require(msg.sender.balance >= amount,\"yu e bu zu\") */\n      tag_61\n      jumpi\n      mload(0x40)\n      0x08c379a000000000000000000000000000000000000000000000000000000000\n      dup2\n      mstore\n      0x04\n      add\n      tag_62\n      swap1\n      tag_63\n      jump\t// in\n    tag_62:\n      mload(0x40)\n      dup1\n      swap2\n      sub\n      swap1\n      revert\n    tag_61:\n        /* \"Token.sol\":672:678  amount */\n      dup1\n        /* \"Token.sol\":649:656  balance */\n      0x05\n        /* \"Token.sol\":649:668  balance[msg.sender] */\n      0x00\n        /* \"Token.sol\":657:667  msg.sender */\n      caller\n        /* \"Token.sol\":649:668  balance[msg.sender] */\n      0xffffffffffffffffffffffffffffffffffffffff\n      and\n      0xffffffffffffffffffffffffffffffffffffffff\n      and\n      dup2\n      mstore\n      0x20\n      add\n      swap1\n      dup2\n      mstore\n      0x20\n      add\n      0x00\n      keccak256\n      0x00\n        /* \"Token.sol\":649:678  balance[msg.sender] -= amount */\n      dup3\n      dup3\n      sload\n      tag_64\n      swap2\n      swap1\n      tag_65\n      jump\t// in\n    tag_64:\n      swap3\n      pop\n      pop\n      dup2\n      swap1\n      sstore\n      pop\n        /* \"Token.sol\":704:710  amount */\n      dup1\n        /* \"Token.sol\":688:695  balance */\n      0x05\n        /* \"Token.sol\":688:700  balance[get] */\n      0x00\n        /* \"Token.sol\":696:699  get */\n      dup5\n        /* \"Token.sol\":688:700  balance[get] */\n      0xffffffffffffffffffffffffffffffffffffffff\n      and\n      0xffffffffffffffffffffffffffffffffffffffff\n      and\n      dup2\n      mstore\n      0x20\n      add\n      swap1\n      dup2\n      mstore\n      0x20\n      add\n      0x00\n      keccak256\n      0x00\n        /* \"Token.sol\":688:710  balance[get] += amount */\n      dup3\n      dup3\n      sload\n      tag_66\n      swap2\n      swap1\n      tag_54\n      jump\t// in\n    tag_66:\n      swap3\n      pop\n      pop\n      dup2\n      swap1\n      sstore\n      pop\n        /* \"Token.sol\":530:726  function sendnum(address get, uint amount) public{... */\n      pop\n      pop\n      jump\t// out\n        /* \"Token.sol\":275:314  mapping(address => uint) public balance */\n    tag_40:\n      mstore(0x20, 0x05)\n      dup1\n      0x00\n      mstore\n      keccak256(0x00, 0x40)\n      0x00\n      swap2\n      pop\n      swap1\n      pop\n      sload\n      dup2\n      jump\t// out\n        /* \"#utility.yul\":7:146   */\n    tag_68:\n        /* \"#utility.yul\":53:58   */\n      0x00\n        /* \"#utility.yul\":91:97   */\n      dup2\n        /* \"#utility.yul\":78:98   */\n      calldataload\n        /* \"#utility.yul\":69:98   */\n      swap1\n      pop\n        /* \"#utility.yul\":107:140   */\n      tag_70\n        /* \"#utility.yul\":134:139   */\n      dup2\n        /* \"#utility.yul\":107:140   */\n      tag_71\n      jump\t// in\n    tag_70:\n        /* \"#utility.yul\":7:146   */\n      swap3\n      swap2\n      pop\n      pop\n      jump\t// out\n        /* \"#utility.yul\":152:291   */\n    tag_72:\n        /* \"#utility.yul\":198:203   */\n      0x00\n        /* \"#utility.yul\":236:242   */\n      dup2\n        /* \"#utility.yul\":223:243   */\n      calldataload\n        /* \"#utility.yul\":214:243   */\n      swap1\n      pop\n        /* \"#utility.yul\":252:285   */\n      tag_74\n        /* \"#utility.yul\":279:284   */\n      dup2\n        /* \"#utility.yul\":252:285   */\n      tag_75\n      jump\t// in\n    tag_74:\n        /* \"#utility.yul\":152:291   */\n      swap3\n      swap2\n      pop\n      pop\n      jump\t// out\n        /* \"#utility.yul\":297:626   */\n    tag_39:\n        /* \"#utility.yul\":356:362   */\n      0x00\n        /* \"#utility.yul\":405:407   */\n      0x20\n        /* \"#utility.yul\":393:402   */\n      dup3\n        /* \"#utility.yul\":384:391   */\n      dup5\n        /* \"#utility.yul\":380:403   */\n      sub\n        /* \"#utility.yul\":376:408   */\n      slt\n        /* \"#utility.yul\":373:492   */\n      iszero\n      tag_77\n      jumpi\n        /* \"#utility.yul\":411:490   */\n      tag_78\n      tag_79\n      jump\t// in\n    tag_78:\n        /* \"#utility.yul\":373:492   */\n    tag_77:\n        /* \"#utility.yul\":531:532   */\n      0x00\n        /* \"#utility.yul\":556:609   */\n      tag_80\n        /* \"#utility.yul\":601:608   */\n      dup5\n        /* \"#utility.yul\":592:598   */\n      dup3\n        /* \"#utility.yul\":581:590   */\n      dup6\n        /* \"#utility.yul\":577:599   */\n      add\n        /* \"#utility.yul\":556:609   */\n      tag_68\n      jump\t// in\n    tag_80:\n        /* \"#utility.yul\":546:609   */\n      swap2\n      pop\n        /* \"#utility.yul\":502:619   */\n      pop\n        /* \"#utility.yul\":297:626   */\n      swap3\n      swap2\n      pop\n      pop\n      jump\t// out\n        /* \"#utility.yul\":632:1106   */\n    tag_26:\n        /* \"#utility.yul\":700:706   */\n      0x00\n        /* \"#utility.yul\":708:714   */\n      dup1\n        /* \"#utility.yul\":757:759   */\n      0x40\n        /* \"#utility.yul\":745:754   */\n      dup4\n        /* \"#utility.yul\":736:743   */\n      dup6\n        /* \"#utility.yul\":732:755   */\n      sub\n        /* \"#utility.yul\":728:760   */\n      slt\n        /* \"#utility.yul\":725:844   */\n      iszero\n      tag_82\n      jumpi\n        /* \"#utility.yul\":763:842   */\n      tag_83\n      tag_79\n      jump\t// in\n    tag_83:\n        /* \"#utility.yul\":725:844   */\n    tag_82:\n        /* \"#utility.yul\":883:884   */\n      0x00\n        /* \"#utility.yul\":908:961   */\n      tag_84\n        /* \"#utility.yul\":953:960   */\n      dup6\n        /* \"#utility.yul\":944:950   */\n      dup3\n        /* \"#utility.yul\":933:942   */\n      dup7\n        /* \"#utility.yul\":929:951   */\n      add\n        /* \"#utility.yul\":908:961   */\n      tag_68\n      jump\t// in\n    tag_84:\n        /* \"#utility.yul\":898:961   */\n      swap3\n      pop\n        /* \"#utility.yul\":854:971   */\n      pop\n        /* \"#utility.yul\":1010:1012   */\n      0x20\n        /* \"#utility.yul\":1036:1089   */\n      tag_85\n        /* \"#utility.yul\":1081:1088   */\n      dup6\n        /* \"#utility.yul\":1072:1078   */\n      dup3\n        /* \"#utility.yul\":1061:1070   */\n      dup7\n        /* \"#utility.yul\":1057:1079   */\n      add\n        /* \"#utility.yul\":1036:1089   */\n      tag_72\n      jump\t// in\n    tag_85:\n        /* \"#utility.yul\":1026:1089   */\n      swap2\n      pop\n        /* \"#utility.yul\":981:1099   */\n      pop\n        /* \"#utility.yul\":632:1106   */\n      swap3\n      pop\n      swap3\n      swap1\n      pop\n      jump\t// out\n        /* \"#utility.yul\":1112:1230   */\n    tag_86:\n        /* \"#utility.yul\":1199:1223   */\n      tag_88\n        /* \"#utility.yul\":1217:1222   */\n      dup2\n        /* \"#utility.yul\":1199:1223   */\n      tag_89\n      jump\t// in\n    tag_88:\n        /* \"#utility.yul\":1194:1197   */\n      dup3\n        /* \"#utility.yul\":1187:1224   */\n      mstore\n        /* \"#utility.yul\":1112:1230   */\n      pop\n      pop\n      jump\t// out\n        /* \"#utility.yul\":1236:1600   */\n    tag_90:\n        /* \"#utility.yul\":1324:1327   */\n      0x00\n        /* \"#utility.yul\":1352:1391   */\n      tag_92\n        /* \"#utility.yul\":1385:1390   */\n      dup3\n        /* \"#utility.yul\":1352:1391   */\n      tag_93\n      jump\t// in\n    tag_92:\n        /* \"#utility.yul\":1407:1478   */\n      tag_94\n        /* \"#utility.yul\":1471:1477   */\n      dup2\n        /* \"#utility.yul\":1466:1469   */\n      dup6\n        /* \"#utility.yul\":1407:1478   */\n      tag_95\n      jump\t// in\n    tag_94:\n        /* \"#utility.yul\":1400:1478   */\n      swap4\n      pop\n        /* \"#utility.yul\":1487:1539   */\n      tag_96\n        /* \"#utility.yul\":1532:1538   */\n      dup2\n        /* \"#utility.yul\":1527:1530   */\n      dup6\n        /* \"#utility.yul\":1520:1524   */\n      0x20\n        /* \"#utility.yul\":1513:1518   */\n      dup7\n        /* \"#utility.yul\":1509:1525   */\n      add\n        /* \"#utility.yul\":1487:1539   */\n      tag_97\n      jump\t// in\n    tag_96:\n        /* \"#utility.yul\":1564:1593   */\n      tag_98\n        /* \"#utility.yul\":1586:1592   */\n      dup2\n        /* \"#utility.yul\":1564:1593   */\n      tag_99\n      jump\t// in\n    tag_98:\n        /* \"#utility.yul\":1559:1562   */\n      dup5\n        /* \"#utility.yul\":1555:1594   */\n      add\n        /* \"#utility.yul\":1548:1594   */\n      swap2\n      pop\n        /* \"#utility.yul\":1328:1600   */\n      pop\n        /* \"#utility.yul\":1236:1600   */\n      swap3\n      swap2\n      pop\n      pop\n      jump\t// out\n        /* \"#utility.yul\":1606:1972   */\n    tag_100:\n        /* \"#utility.yul\":1748:1751   */\n      0x00\n        /* \"#utility.yul\":1769:1836   */\n      tag_102\n        /* \"#utility.yul\":1833:1835   */\n      0x12\n        /* \"#utility.yul\":1828:1831   */\n      dup4\n        /* \"#utility.yul\":1769:1836   */\n      tag_95\n      jump\t// in\n    tag_102:\n        /* \"#utility.yul\":1762:1836   */\n      swap2\n      pop\n        /* \"#utility.yul\":1845:1938   */\n      tag_103\n        /* \"#utility.yul\":1934:1937   */\n      dup3\n        /* \"#utility.yul\":1845:1938   */\n      tag_104\n      jump\t// in\n    tag_103:\n        /* \"#utility.yul\":1963:1965   */\n      0x20\n        /* \"#utility.yul\":1958:1961   */\n      dup3\n        /* \"#utility.yul\":1954:1966   */\n      add\n        /* \"#utility.yul\":1947:1966   */\n      swap1\n      pop\n        /* \"#utility.yul\":1606:1972   */\n      swap2\n      swap1\n      pop\n      jump\t// out\n        /* \"#utility.yul\":1978:2344   */\n    tag_105:\n        /* \"#utility.yul\":2120:2123   */\n      0x00\n        /* \"#utility.yul\":2141:2208   */\n      tag_107\n        /* \"#utility.yul\":2205:2207   */\n      0x0a\n        /* \"#utility.yul\":2200:2203   */\n      dup4\n        /* \"#utility.yul\":2141:2208   */\n      tag_95\n      jump\t// in\n    tag_107:\n        /* \"#utility.yul\":2134:2208   */\n      swap2\n      pop\n        /* \"#utility.yul\":2217:2310   */\n      tag_108\n        /* \"#utility.yul\":2306:2309   */\n      dup3\n        /* \"#utility.yul\":2217:2310   */\n      tag_109\n      jump\t// in\n    tag_108:\n        /* \"#utility.yul\":2335:2337   */\n      0x20\n        /* \"#utility.yul\":2330:2333   */\n      dup3\n        /* \"#utility.yul\":2326:2338   */\n      add\n        /* \"#utility.yul\":2319:2338   */\n      swap1\n      pop\n        /* \"#utility.yul\":1978:2344   */\n      swap2\n      swap1\n      pop\n      jump\t// out\n        /* \"#utility.yul\":2350:2468   */\n    tag_110:\n        /* \"#utility.yul\":2437:2461   */\n      tag_112\n        /* \"#utility.yul\":2455:2460   */\n      dup2\n        /* \"#utility.yul\":2437:2461   */\n      tag_113\n      jump\t// in\n    tag_112:\n        /* \"#utility.yul\":2432:2435   */\n      dup3\n        /* \"#utility.yul\":2425:2462   */\n      mstore\n        /* \"#utility.yul\":2350:2468   */\n      pop\n      pop\n      jump\t// out\n        /* \"#utility.yul\":2474:2696   */\n    tag_19:\n        /* \"#utility.yul\":2567:2571   */\n      0x00\n        /* \"#utility.yul\":2605:2607   */\n      0x20\n        /* \"#utility.yul\":2594:2603   */\n      dup3\n        /* \"#utility.yul\":2590:2608   */\n      add\n        /* \"#utility.yul\":2582:2608   */\n      swap1\n      pop\n        /* \"#utility.yul\":2618:2689   */\n      tag_115\n        /* \"#utility.yul\":2686:2687   */\n      0x00\n        /* \"#utility.yul\":2675:2684   */\n      dup4\n        /* \"#utility.yul\":2671:2688   */\n      add\n        /* \"#utility.yul\":2662:2668   */\n      dup5\n        /* \"#utility.yul\":2618:2689   */\n      tag_86\n      jump\t// in\n    tag_115:\n        /* \"#utility.yul\":2474:2696   */\n      swap3\n      swap2\n      pop\n      pop\n      jump\t// out\n        /* \"#utility.yul\":2702:3015   */\n    tag_15:\n        /* \"#utility.yul\":2815:2819   */\n      0x00\n        /* \"#utility.yul\":2853:2855   */\n      0x20\n        /* \"#utility.yul\":2842:2851   */\n      dup3\n        /* \"#utility.yul\":2838:2856   */\n      add\n        /* \"#utility.yul\":2830:2856   */\n      swap1\n      pop\n        /* \"#utility.yul\":2902:2911   */\n      dup2\n        /* \"#utility.yul\":2896:2900   */\n      dup2\n        /* \"#utility.yul\":2892:2912   */\n      sub\n        /* \"#utility.yul\":2888:2889   */\n      0x00\n        /* \"#utility.yul\":2877:2886   */\n      dup4\n        /* \"#utility.yul\":2873:2890   */\n      add\n        /* \"#utility.yul\":2866:2913   */\n      mstore\n        /* \"#utility.yul\":2930:3008   */\n      tag_117\n        /* \"#utility.yul\":3003:3007   */\n      dup2\n        /* \"#utility.yul\":2994:3000   */\n      dup5\n        /* \"#utility.yul\":2930:3008   */\n      tag_90\n      jump\t// in\n    tag_117:\n        /* \"#utility.yul\":2922:3008   */\n      swap1\n      pop\n        /* \"#utility.yul\":2702:3015   */\n      swap3\n      swap2\n      pop\n      pop\n      jump\t// out\n        /* \"#utility.yul\":3021:3440   */\n    tag_51:\n        /* \"#utility.yul\":3187:3191   */\n      0x00\n        /* \"#utility.yul\":3225:3227   */\n      0x20\n        /* \"#utility.yul\":3214:3223   */\n      dup3\n        /* \"#utility.yul\":3210:3228   */\n      add\n        /* \"#utility.yul\":3202:3228   */\n      swap1\n      pop\n        /* \"#utility.yul\":3274:3283   */\n      dup2\n        /* \"#utility.yul\":3268:3272   */\n      dup2\n        /* \"#utility.yul\":3264:3284   */\n      sub\n        /* \"#utility.yul\":3260:3261   */\n      0x00\n        /* \"#utility.yul\":3249:3258   */\n      dup4\n        /* \"#utility.yul\":3245:3262   */\n      add\n        /* \"#utility.yul\":3238:3285   */\n      mstore\n        /* \"#utility.yul\":3302:3433   */\n      tag_119\n        /* \"#utility.yul\":3428:3432   */\n      dup2\n        /* \"#utility.yul\":3302:3433   */\n      tag_100\n      jump\t// in\n    tag_119:\n        /* \"#utility.yul\":3294:3433   */\n      swap1\n      pop\n        /* \"#utility.yul\":3021:3440   */\n      swap2\n      swap1\n      pop\n      jump\t// out\n        /* \"#utility.yul\":3446:3865   */\n    tag_63:\n        /* \"#utility.yul\":3612:3616   */\n      0x00\n        /* \"#utility.yul\":3650:3652   */\n      0x20\n        /* \"#utility.yul\":3639:3648   */\n      dup3\n        /* \"#utility.yul\":3635:3653   */\n      add\n        /* \"#utility.yul\":3627:3653   */\n      swap1\n      pop\n        /* \"#utility.yul\":3699:3708   */\n      dup2\n        /* \"#utility.yul\":3693:3697   */\n      dup2\n        /* \"#utility.yul\":3689:3709   */\n      sub\n        /* \"#utility.yul\":3685:3686   */\n      0x00\n        /* \"#utility.yul\":3674:3683   */\n      dup4\n        /* \"#utility.yul\":3670:3687   */\n      add\n        /* \"#utility.yul\":3663:3710   */\n      mstore\n        /* \"#utility.yul\":3727:3858   */\n      tag_121\n        /* \"#utility.yul\":3853:3857   */\n      dup2\n        /* \"#utility.yul\":3727:3858   */\n      tag_105\n      jump\t// in\n    tag_121:\n        /* \"#utility.yul\":3719:3858   */\n      swap1\n      pop\n        /* \"#utility.yul\":3446:3865   */\n      swap2\n      swap1\n      pop\n      jump\t// out\n        /* \"#utility.yul\":3871:4093   */\n    tag_23:\n        /* \"#utility.yul\":3964:3968   */\n      0x00\n        /* \"#utility.yul\":4002:4004   */\n      0x20\n        /* \"#utility.yul\":3991:4000   */\n      dup3\n        /* \"#utility.yul\":3987:4005   */\n      add\n        /* \"#utility.yul\":3979:4005   */\n      swap1\n      pop\n        /* \"#utility.yul\":4015:4086   */\n      tag_123\n        /* \"#utility.yul\":4083:4084   */\n      0x00\n        /* \"#utility.yul\":4072:4081   */\n      dup4\n        /* \"#utility.yul\":4068:4085   */\n      add\n        /* \"#utility.yul\":4059:4065   */\n      dup5\n        /* \"#utility.yul\":4015:4086   */\n      tag_110\n      jump\t// in\n    tag_123:\n        /* \"#utility.yul\":3871:4093   */\n      swap3\n      swap2\n      pop\n      pop\n      jump\t// out\n        /* \"#utility.yul\":4180:4279   */\n    tag_93:\n        /* \"#utility.yul\":4232:4238   */\n      0x00\n        /* \"#utility.yul\":4266:4271   */\n      dup2\n        /* \"#utility.yul\":4260:4272   */\n      mload\n        /* \"#utility.yul\":4250:4272   */\n      swap1\n      pop\n        /* \"#utility.yul\":4180:4279   */\n      swap2\n      swap1\n      pop\n      jump\t// out\n        /* \"#utility.yul\":4285:4454   */\n    tag_95:\n        /* \"#utility.yul\":4369:4380   */\n      0x00\n        /* \"#utility.yul\":4403:4409   */\n      dup3\n        /* \"#utility.yul\":4398:4401   */\n      dup3\n        /* \"#utility.yul\":4391:4410   */\n      mstore\n        /* \"#utility.yul\":4443:4447   */\n      0x20\n        /* \"#utility.yul\":4438:4441   */\n      dup3\n        /* \"#utility.yul\":4434:4448   */\n      add\n        /* \"#utility.yul\":4419:4448   */\n      swap1\n      pop\n        /* \"#utility.yul\":4285:4454   */\n      swap3\n      swap2\n      pop\n      pop\n      jump\t// out\n        /* \"#utility.yul\":4460:4765   */\n    tag_54:\n        /* \"#utility.yul\":4500:4503   */\n      0x00\n        /* \"#utility.yul\":4519:4539   */\n      tag_129\n        /* \"#utility.yul\":4537:4538   */\n      dup3\n        /* \"#utility.yul\":4519:4539   */\n      tag_113\n      jump\t// in\n    tag_129:\n        /* \"#utility.yul\":4514:4539   */\n      swap2\n      pop\n        /* \"#utility.yul\":4553:4573   */\n      tag_130\n        /* \"#utility.yul\":4571:4572   */\n      dup4\n        /* \"#utility.yul\":4553:4573   */\n      tag_113\n      jump\t// in\n    tag_130:\n        /* \"#utility.yul\":4548:4573   */\n      swap3\n      pop\n        /* \"#utility.yul\":4707:4708   */\n      dup3\n        /* \"#utility.yul\":4639:4705   */\n      0xffffffffffffffffffffffffffffffffffffffffffffffffffffffffffffffff\n        /* \"#utility.yul\":4635:4709   */\n      sub\n        /* \"#utility.yul\":4632:4633   */\n      dup3\n        /* \"#utility.yul\":4629:4710   */\n      gt\n        /* \"#utility.yul\":4626:4733   */\n      iszero\n      tag_131\n      jumpi\n        /* \"#utility.yul\":4713:4731   */\n      tag_132\n      tag_133\n      jump\t// in\n    tag_132:\n        /* \"#utility.yul\":4626:4733   */\n    tag_131:\n        /* \"#utility.yul\":4757:4758   */\n      dup3\n        /* \"#utility.yul\":4754:4755   */\n      dup3\n        /* \"#utility.yul\":4750:4759   */\n      add\n        /* \"#utility.yul\":4743:4759   */\n      swap1\n      pop\n        /* \"#utility.yul\":4460:4765   */\n      swap3\n      swap2\n      pop\n      pop\n      jump\t// out\n        /* \"#utility.yul\":4771:4962   */\n    tag_65:\n        /* \"#utility.yul\":4811:4815   */\n      0x00\n        /* \"#utility.yul\":4831:4851   */\n      tag_135\n        /* \"#utility.yul\":4849:4850   */\n      dup3\n        /* \"#utility.yul\":4831:4851   */\n      tag_113\n      jump\t// in\n    tag_135:\n        /* \"#utility.yul\":4826:4851   */\n      swap2\n      pop\n        /* \"#utility.yul\":4865:4885   */\n      tag_136\n        /* \"#utility.yul\":4883:4884   */\n      dup4\n        /* \"#utility.yul\":4865:4885   */\n      tag_113\n      jump\t// in\n    tag_136:\n        /* \"#utility.yul\":4860:4885   */\n      swap3\n      pop\n        /* \"#utility.yul\":4904:4905   */\n      dup3\n        /* \"#utility.yul\":4901:4902   */\n      dup3\n        /* \"#utility.yul\":4898:4906   */\n      lt\n        /* \"#utility.yul\":4895:4929   */\n      iszero\n      tag_137\n      jumpi\n        /* \"#utility.yul\":4909:4927   */\n      tag_138\n      tag_133\n      jump\t// in\n    tag_138:\n        /* \"#utility.yul\":4895:4929   */\n    tag_137:\n        /* \"#utility.yul\":4954:4955   */\n      dup3\n        /* \"#utility.yul\":4951:4952   */\n      dup3\n        /* \"#utility.yul\":4947:4956   */\n      sub\n        /* \"#utility.yul\":4939:4956   */\n      swap1\n      pop\n        /* \"#utility.yul\":4771:4962   */\n      swap3\n      swap2\n      pop\n      pop\n      jump\t// out\n        /* \"#utility.yul\":4968:5064   */\n    tag_89:\n        /* \"#utility.yul\":5005:5012   */\n      0x00\n        /* \"#utility.yul\":5034:5058   */\n      tag_140\n        /* \"#utility.yul\":5052:5057   */\n      dup3\n        /* \"#utility.yul\":5034:5058   */\n      tag_141\n      jump\t// in\n    tag_140:\n        /* \"#utility.yul\":5023:5058   */\n      swap1\n      pop\n        /* \"#utility.yul\":4968:5064   */\n      swap2\n      swap1\n      pop\n      jump\t// out\n        /* \"#utility.yul\":5070:5196   */\n    tag_141:\n        /* \"#utility.yul\":5107:5114   */\n      0x00\n        /* \"#utility.yul\":5147:5189   */\n      0xffffffffffffffffffffffffffffffffffffffff\n        /* \"#utility.yul\":5140:5145   */\n      dup3\n        /* \"#utility.yul\":5136:5190   */\n      and\n        /* \"#utility.yul\":5125:5190   */\n      swap1\n      pop\n        /* \"#utility.yul\":5070:5196   */\n      swap2\n      swap1\n      pop\n      jump\t// out\n        /* \"#utility.yul\":5202:5279   */\n    tag_113:\n        /* \"#utility.yul\":5239:5246   */\n      0x00\n        /* \"#utility.yul\":5268:5273   */\n      dup2\n        /* \"#utility.yul\":5257:5273   */\n      swap1\n      pop\n        /* \"#utility.yul\":5202:5279   */\n      swap2\n      swap1\n      pop\n      jump\t// out\n        /* \"#utility.yul\":5285:5592   */\n    tag_97:\n        /* \"#utility.yul\":5353:5354   */\n      0x00\n        /* \"#utility.yul\":5363:5476   */\n    tag_145:\n        /* \"#utility.yul\":5377:5383   */\n      dup4\n        /* \"#utility.yul\":5374:5375   */\n      dup2\n        /* \"#utility.yul\":5371:5384   */\n      lt\n        /* \"#utility.yul\":5363:5476   */\n      iszero\n      tag_147\n      jumpi\n        /* \"#utility.yul\":5462:5463   */\n      dup1\n        /* \"#utility.yul\":5457:5460   */\n      dup3\n        /* \"#utility.yul\":5453:5464   */\n      add\n        /* \"#utility.yul\":5447:5465   */\n      mload\n        /* \"#utility.yul\":5443:5444   */\n      dup2\n        /* \"#utility.yul\":5438:5441   */\n      dup5\n        /* \"#utility.yul\":5434:5445   */\n      add\n        /* \"#utility.yul\":5427:5466   */\n      mstore\n        /* \"#utility.yul\":5399:5401   */\n      0x20\n        /* \"#utility.yul\":5396:5397   */\n      dup2\n        /* \"#utility.yul\":5392:5402   */\n      add\n        /* \"#utility.yul\":5387:5402   */\n      swap1\n      pop\n        /* \"#utility.yul\":5363:5476   */\n      jump(tag_145)\n    tag_147:\n        /* \"#utility.yul\":5494:5500   */\n      dup4\n        /* \"#utility.yul\":5491:5492   */\n      dup2\n        /* \"#utility.yul\":5488:5501   */\n      gt\n        /* \"#utility.yul\":5485:5586   */\n      iszero\n      tag_148\n      jumpi\n        /* \"#utility.yul\":5574:5575   */\n      0x00\n        /* \"#utility.yul\":5565:5571   */\n      dup5\n        /* \"#utility.yul\":5560:5563   */\n      dup5\n        /* \"#utility.yul\":5556:5572   */\n      add\n        /* \"#utility.yul\":5549:5576   */\n      mstore\n        /* \"#utility.yul\":5485:5586   */\n    tag_148:\n        /* \"#utility.yul\":5334:5592   */\n      pop\n        /* \"#utility.yul\":5285:5592   */\n      pop\n      pop\n      pop\n      jump\t// out\n        /* \"#utility.yul\":5598:5918   */\n    tag_43:\n        /* \"#utility.yul\":5642:5648   */\n      0x00\n        /* \"#utility.yul\":5679:5680   */\n      0x02\n        /* \"#utility.yul\":5673:5677   */\n      dup3\n        /* \"#utility.yul\":5669:5681   */\n      div\n        /* \"#utility.yul\":5659:5681   */\n      swap1\n      pop\n        /* \"#utility.yul\":5726:5727   */\n      0x01\n        /* \"#utility.yul\":5720:5724   */\n      dup3\n        /* \"#utility.yul\":5716:5728   */\n      and\n        /* \"#utility.yul\":5747:5765   */\n      dup1\n        /* \"#utility.yul\":5737:5818   */\n      tag_150\n      jumpi\n        /* \"#utility.yul\":5803:5807   */\n      0x7f\n        /* \"#utility.yul\":5795:5801   */\n      dup3\n        /* \"#utility.yul\":5791:5808   */\n      and\n        /* \"#utility.yul\":5781:5808   */\n      swap2\n      pop\n        /* \"#utility.yul\":5737:5818   */\n    tag_150:\n        /* \"#utility.yul\":5865:5867   */\n      0x20\n        /* \"#utility.yul\":5857:5863   */\n      dup3\n        /* \"#utility.yul\":5854:5868   */\n      lt\n        /* \"#utility.yul\":5834:5852   */\n      dup2\n        /* \"#utility.yul\":5831:5869   */\n      eq\n        /* \"#utility.yul\":5828:5912   */\n      iszero\n      tag_151\n      jumpi\n        /* \"#utility.yul\":5884:5902   */\n      tag_152\n      tag_153\n      jump\t// in\n    tag_152:\n        /* \"#utility.yul\":5828:5912   */\n    tag_151:\n        /* \"#utility.yul\":5649:5918   */\n      pop\n        /* \"#utility.yul\":5598:5918   */\n      swap2\n      swap1\n      pop\n      jump\t// out\n        /* \"#utility.yul\":5924:6104   */\n    tag_133:\n        /* \"#utility.yul\":5972:6049   */\n      0x4e487b7100000000000000000000000000000000000000000000000000000000\n        /* \"#utility.yul\":5969:5970   */\n      0x00\n        /* \"#utility.yul\":5962:6050   */\n      mstore\n        /* \"#utility.yul\":6069:6073   */\n      0x11\n        /* \"#utility.yul\":6066:6067   */\n      0x04\n        /* \"#utility.yul\":6059:6074   */\n      mstore\n        /* \"#utility.yul\":6093:6097   */\n      0x24\n        /* \"#utility.yul\":6090:6091   */\n      0x00\n        /* \"#utility.yul\":6083:6098   */\n      revert\n        /* \"#utility.yul\":6110:6290   */\n    tag_153:\n        /* \"#utility.yul\":6158:6235   */\n      0x4e487b7100000000000000000000000000000000000000000000000000000000\n        /* \"#utility.yul\":6155:6156   */\n      0x00\n        /* \"#utility.yul\":6148:6236   */\n      mstore\n        /* \"#utility.yul\":6255:6259   */\n      0x22\n        /* \"#utility.yul\":6252:6253   */\n      0x04\n        /* \"#utility.yul\":6245:6260   */\n      mstore\n        /* \"#utility.yul\":6279:6283   */\n      0x24\n        /* \"#utility.yul\":6276:6277   */\n      0x00\n        /* \"#utility.yul\":6269:6284   */\n      revert\n        /* \"#utility.yul\":6419:6536   */\n    tag_79:\n        /* \"#utility.yul\":6528:6529   */\n      0x00\n        /* \"#utility.yul\":6525:6526   */\n      dup1\n        /* \"#utility.yul\":6518:6530   */\n      revert\n        /* \"#utility.yul\":6542:6644   */\n    tag_99:\n        /* \"#utility.yul\":6583:6589   */\n      0x00\n        /* \"#utility.yul\":6634:6636   */\n      0x1f\n        /* \"#utility.yul\":6630:6637   */\n      not\n        /* \"#utility.yul\":6625:6627   */\n      0x1f\n        /* \"#utility.yul\":6618:6623   */\n      dup4\n        /* \"#utility.yul\":6614:6628   */\n      add\n        /* \"#utility.yul\":6610:6638   */\n      and\n        /* \"#utility.yul\":6600:6638   */\n      swap1\n      pop\n        /* \"#utility.yul\":6542:6644   */\n      swap2\n      swap1\n      pop\n      jump\t// out\n        /* \"#utility.yul\":6650:6818   */\n    tag_104:\n        /* \"#utility.yul\":6790:6810   */\n      0x6e6f74206973206f776e206163636f756e740000000000000000000000000000\n        /* \"#utility.yul\":6786:6787   */\n      0x00\n        /* \"#utility.yul\":6778:6784   */\n      dup3\n        /* \"#utility.yul\":6774:6788   */\n      add\n        /* \"#utility.yul\":6767:6811   */\n      mstore\n        /* \"#utility.yul\":6650:6818   */\n      pop\n      jump\t// out\n        /* \"#utility.yul\":6824:6984   */\n    tag_109:\n        /* \"#utility.yul\":6964:6976   */\n      0x79752065206275207a7500000000000000000000000000000000000000000000\n        /* \"#utility.yul\":6960:6961   */\n      0x00\n        /* \"#utility.yul\":6952:6958   */\n      dup3\n        /* \"#utility.yul\":6948:6962   */\n      add\n        /* \"#utility.yul\":6941:6977   */\n      mstore\n        /* \"#utility.yul\":6824:6984   */\n      pop\n      jump\t// out\n        /* \"#utility.yul\":6990:7112   */\n    tag_71:\n        /* \"#utility.yul\":7063:7087   */\n      tag_163\n        /* \"#utility.yul\":7081:7086   */\n      dup2\n        /* \"#utility.yul\":7063:7087   */\n      tag_89\n      jump\t// in\n    tag_163:\n        /* \"#utility.yul\":7056:7061   */\n      dup2\n        /* \"#utility.yul\":7053:7088   */\n      eq\n        /* \"#utility.yul\":7043:7106   */\n      tag_164\n      jumpi\n        /* \"#utility.yul\":7102:7103   */\n      0x00\n        /* \"#utility.yul\":7099:7100   */\n      dup1\n        /* \"#utility.yul\":7092:7104   */\n      revert\n        /* \"#utility.yul\":7043:7106   */\n    tag_164:\n        /* \"#utility.yul\":6990:7112   */\n      pop\n      jump\t// out\n        /* \"#utility.yul\":7118:7240   */\n    tag_75:\n        /* \"#utility.yul\":7191:7215   */\n      tag_166\n        /* \"#utility.yul\":7209:7214   */\n      dup2\n        /* \"#utility.yul\":7191:7215   */\n      tag_113\n      jump\t// in\n    tag_166:\n        /* \"#utility.yul\":7184:7189   */\n      dup2\n        /* \"#utility.yul\":7181:7216   */\n      eq\n        /* \"#utility.yul\":7171:7234   */\n      tag_167\n      jumpi\n        /* \"#utility.yul\":7230:7231   */\n      0x00\n        /* \"#utility.yul\":7227:7228   */\n      dup1\n        /* \"#utility.yul\":7220:7232   */\n      revert\n        /* \"#utility.yul\":7171:7234   */\n    tag_167:\n        /* \"#utility.yul\":7118:7240   */\n      pop\n      jump\t// out\n\n    auxdata: 0xa2646970667358221220819193a5ce78e45d59518fee9aef70da6b45e7f85514dbd9ae51b5738dc0f07f64736f6c63430008070033\n}\n",
				"bytecode": {
					"linkReferences": {},
					"object": "60806040526040518060400160405280600881526020017f736f6c6964697479000000000000000000000000000000000000000000000000815250600090805190602001906200005192919062000128565b506040518060400160405280600381526020017f534f4c0000000000000000000000000000000000000000000000000000000000815250600190805190602001906200009f92919062000128565b506012600255630c845880600355348015620000ba57600080fd5b5060405162000c0b38038062000c0b8339818101604052810190620000e09190620001ef565b80600460006101000a81548173ffffffffffffffffffffffffffffffffffffffff021916908373ffffffffffffffffffffffffffffffffffffffff16021790555050620002d9565b828054620001369062000255565b90600052602060002090601f0160209004810192826200015a5760008555620001a6565b82601f106200017557805160ff1916838001178555620001a6565b82800160010185558215620001a6579182015b82811115620001a557825182559160200191906001019062000188565b5b509050620001b59190620001b9565b5090565b5b80821115620001d4576000816000905550600101620001ba565b5090565b600081519050620001e981620002bf565b92915050565b600060208284031215620002085762000207620002ba565b5b60006200021884828501620001d8565b91505092915050565b60006200022e8262000235565b9050919050565b600073ffffffffffffffffffffffffffffffffffffffff82169050919050565b600060028204905060018216806200026e57607f821691505b602082108114156200028557620002846200028b565b5b50919050565b7f4e487b7100000000000000000000000000000000000000000000000000000000600052602260045260246000fd5b600080fd5b620002ca8162000221565b8114620002d657600080fd5b50565b61092280620002e96000396000f3fe608060405234801561001057600080fd5b50600436106100885760003560e01c806376809ce31161005b57806376809ce31461010357806395d89b4114610121578063b20a7cf61461013f578063e3d670d71461015b57610088565b806306fdde031461008d57806307546172146100ab57806318160ddd146100c957806340c10f19146100e7575b600080fd5b61009561018b565b6040516100a29190610634565b60405180910390f35b6100b3610219565b6040516100c09190610619565b60405180910390f35b6100d161023f565b6040516100de9190610696565b60405180910390f35b61010160048036038101906100fc919061053c565b610245565b005b61010b61032f565b6040516101189190610696565b60405180910390f35b610129610335565b6040516101369190610634565b60405180910390f35b6101596004803603810190610154919061053c565b6103c3565b005b6101756004803603810190610170919061050f565b6104cd565b6040516101829190610696565b60405180910390f35b60008054610198906107c6565b80601f01602080910402602001604051908101604052809291908181526020018280546101c4906107c6565b80156102115780601f106101e657610100808354040283529160200191610211565b820191906000526020600020905b8154815290600101906020018083116101f457829003601f168201915b505050505081565b600460009054906101000a900473ffffffffffffffffffffffffffffffffffffffff1681565b60035481565b600460009054906101000a900473ffffffffffffffffffffffffffffffffffffffff1673ffffffffffffffffffffffffffffffffffffffff163373ffffffffffffffffffffffffffffffffffffffff16146102d5576040517f08c379a00000000000000000000000000000000000000000000000000000000081526004016102cc90610656565b60405180910390fd5b80600560008473ffffffffffffffffffffffffffffffffffffffff1673ffffffffffffffffffffffffffffffffffffffff168152602001908152602001600020600082825461032491906106cd565b925050819055505050565b60025481565b60018054610342906107c6565b80601f016020809104026020016040519081016040528092919081815260200182805461036e906107c6565b80156103bb5780601f10610390576101008083540402835291602001916103bb565b820191906000526020600020905b81548152906001019060200180831161039e57829003601f168201915b505050505081565b803373ffffffffffffffffffffffffffffffffffffffff1631101561041d576040517f08c379a000000000000000000000000000000000000000000000000000000000815260040161041490610676565b60405180910390fd5b80600560003373ffffffffffffffffffffffffffffffffffffffff1673ffffffffffffffffffffffffffffffffffffffff168152602001908152602001600020600082825461046c9190610723565b9250508190555080600560008473ffffffffffffffffffffffffffffffffffffffff1673ffffffffffffffffffffffffffffffffffffffff16815260200190815260200160002060008282546104c291906106cd565b925050819055505050565b60056020528060005260406000206000915090505481565b6000813590506104f4816108be565b92915050565b600081359050610509816108d5565b92915050565b60006020828403121561052557610524610856565b5b6000610533848285016104e5565b91505092915050565b6000806040838503121561055357610552610856565b5b6000610561858286016104e5565b9250506020610572858286016104fa565b9150509250929050565b61058581610757565b82525050565b6000610596826106b1565b6105a081856106bc565b93506105b0818560208601610793565b6105b98161085b565b840191505092915050565b60006105d16012836106bc565b91506105dc8261086c565b602082019050919050565b60006105f4600a836106bc565b91506105ff82610895565b602082019050919050565b61061381610789565b82525050565b600060208201905061062e600083018461057c565b92915050565b6000602082019050818103600083015261064e818461058b565b905092915050565b6000602082019050818103600083015261066f816105c4565b9050919050565b6000602082019050818103600083015261068f816105e7565b9050919050565b60006020820190506106ab600083018461060a565b92915050565b600081519050919050565b600082825260208201905092915050565b60006106d882610789565b91506106e383610789565b9250827fffffffffffffffffffffffffffffffffffffffffffffffffffffffffffffffff03821115610718576107176107f8565b5b828201905092915050565b600061072e82610789565b915061073983610789565b92508282101561074c5761074b6107f8565b5b828203905092915050565b600061076282610769565b9050919050565b600073ffffffffffffffffffffffffffffffffffffffff82169050919050565b6000819050919050565b60005b838110156107b1578082015181840152602081019050610796565b838111156107c0576000848401525b50505050565b600060028204905060018216806107de57607f821691505b602082108114156107f2576107f1610827565b5b50919050565b7f4e487b7100000000000000000000000000000000000000000000000000000000600052601160045260246000fd5b7f4e487b7100000000000000000000000000000000000000000000000000000000600052602260045260246000fd5b600080fd5b6000601f19601f8301169050919050565b7f6e6f74206973206f776e206163636f756e740000000000000000000000000000600082015250565b7f79752065206275207a7500000000000000000000000000000000000000000000600082015250565b6108c781610757565b81146108d257600080fd5b50565b6108de81610789565b81146108e957600080fd5b5056fea2646970667358221220819193a5ce78e45d59518fee9aef70da6b45e7f85514dbd9ae51b5738dc0f07f64736f6c63430008070033",
					"opcodes": "PUSH1 0x80 PUSH1 0x40 MSTORE PUSH1 0x40 MLOAD DUP1 PUSH1 0x40 ADD PUSH1 0x40 MSTORE DUP1 PUSH1 0x8 DUP2 MSTORE PUSH1 0x20 ADD PUSH32 0x736F6C6964697479000000000000000000000000000000000000000000000000 DUP2 MSTORE POP PUSH1 0x0 SWAP1 DUP1 MLOAD SWAP1 PUSH1 0x20 ADD SWAP1 PUSH3 0x51 SWAP3 SWAP2 SWAP1 PUSH3 0x128 JUMP JUMPDEST POP PUSH1 0x40 MLOAD DUP1 PUSH1 0x40 ADD PUSH1 0x40 MSTORE DUP1 PUSH1 0x3 DUP2 MSTORE PUSH1 0x20 ADD PUSH32 0x534F4C0000000000000000000000000000000000000000000000000000000000 DUP2 MSTORE POP PUSH1 0x1 SWAP1 DUP1 MLOAD SWAP1 PUSH1 0x20 ADD SWAP1 PUSH3 0x9F SWAP3 SWAP2 SWAP1 PUSH3 0x128 JUMP JUMPDEST POP PUSH1 0x12 PUSH1 0x2 SSTORE PUSH4 0xC845880 PUSH1 0x3 SSTORE CALLVALUE DUP1 ISZERO PUSH3 0xBA JUMPI PUSH1 0x0 DUP1 REVERT JUMPDEST POP PUSH1 0x40 MLOAD PUSH3 0xC0B CODESIZE SUB DUP1 PUSH3 0xC0B DUP4 CODECOPY DUP2 DUP2 ADD PUSH1 0x40 MSTORE DUP2 ADD SWAP1 PUSH3 0xE0 SWAP2 SWAP1 PUSH3 0x1EF JUMP JUMPDEST DUP1 PUSH1 0x4 PUSH1 0x0 PUSH2 0x100 EXP DUP2 SLOAD DUP2 PUSH20 0xFFFFFFFFFFFFFFFFFFFFFFFFFFFFFFFFFFFFFFFF MUL NOT AND SWAP1 DUP4 PUSH20 0xFFFFFFFFFFFFFFFFFFFFFFFFFFFFFFFFFFFFFFFF AND MUL OR SWAP1 SSTORE POP POP PUSH3 0x2D9 JUMP JUMPDEST DUP3 DUP1 SLOAD PUSH3 0x136 SWAP1 PUSH3 0x255 JUMP JUMPDEST SWAP1 PUSH1 0x0 MSTORE PUSH1 0x20 PUSH1 0x0 KECCAK256 SWAP1 PUSH1 0x1F ADD PUSH1 0x20 SWAP1 DIV DUP2 ADD SWAP3 DUP3 PUSH3 0x15A JUMPI PUSH1 0x0 DUP6 SSTORE PUSH3 0x1A6 JUMP JUMPDEST DUP3 PUSH1 0x1F LT PUSH3 0x175 JUMPI DUP1 MLOAD PUSH1 0xFF NOT AND DUP4 DUP1 ADD OR DUP6 SSTORE PUSH3 0x1A6 JUMP JUMPDEST DUP3 DUP1 ADD PUSH1 0x1 ADD DUP6 SSTORE DUP3 ISZERO PUSH3 0x1A6 JUMPI SWAP2 DUP3 ADD JUMPDEST DUP3 DUP2 GT ISZERO PUSH3 0x1A5 JUMPI DUP3 MLOAD DUP3 SSTORE SWAP2 PUSH1 0x20 ADD SWAP2 SWAP1 PUSH1 0x1 ADD SWAP1 PUSH3 0x188 JUMP JUMPDEST JUMPDEST POP SWAP1 POP PUSH3 0x1B5 SWAP2 SWAP1 PUSH3 0x1B9 JUMP JUMPDEST POP SWAP1 JUMP JUMPDEST JUMPDEST DUP1 DUP3 GT ISZERO PUSH3 0x1D4 JUMPI PUSH1 0x0 DUP2 PUSH1 0x0 SWAP1 SSTORE POP PUSH1 0x1 ADD PUSH3 0x1BA JUMP JUMPDEST POP SWAP1 JUMP JUMPDEST PUSH1 0x0 DUP2 MLOAD SWAP1 POP PUSH3 0x1E9 DUP2 PUSH3 0x2BF JUMP JUMPDEST SWAP3 SWAP2 POP POP JUMP JUMPDEST PUSH1 0x0 PUSH1 0x20 DUP3 DUP5 SUB SLT ISZERO PUSH3 0x208 JUMPI PUSH3 0x207 PUSH3 0x2BA JUMP JUMPDEST JUMPDEST PUSH1 0x0 PUSH3 0x218 DUP5 DUP3 DUP6 ADD PUSH3 0x1D8 JUMP JUMPDEST SWAP2 POP POP SWAP3 SWAP2 POP POP JUMP JUMPDEST PUSH1 0x0 PUSH3 0x22E DUP3 PUSH3 0x235 JUMP JUMPDEST SWAP1 POP SWAP2 SWAP1 POP JUMP JUMPDEST PUSH1 0x0 PUSH20 0xFFFFFFFFFFFFFFFFFFFFFFFFFFFFFFFFFFFFFFFF DUP3 AND SWAP1 POP SWAP2 SWAP1 POP JUMP JUMPDEST PUSH1 0x0 PUSH1 0x2 DUP3 DIV SWAP1 POP PUSH1 0x1 DUP3 AND DUP1 PUSH3 0x26E JUMPI PUSH1 0x7F DUP3 AND SWAP2 POP JUMPDEST PUSH1 0x20 DUP3 LT DUP2 EQ ISZERO PUSH3 0x285 JUMPI PUSH3 0x284 PUSH3 0x28B JUMP JUMPDEST JUMPDEST POP SWAP2 SWAP1 POP JUMP JUMPDEST PUSH32 0x4E487B7100000000000000000000000000000000000000000000000000000000 PUSH1 0x0 MSTORE PUSH1 0x22 PUSH1 0x4 MSTORE PUSH1 0x24 PUSH1 0x0 REVERT JUMPDEST PUSH1 0x0 DUP1 REVERT JUMPDEST PUSH3 0x2CA DUP2 PUSH3 0x221 JUMP JUMPDEST DUP2 EQ PUSH3 0x2D6 JUMPI PUSH1 0x0 DUP1 REVERT JUMPDEST POP JUMP JUMPDEST PUSH2 0x922 DUP1 PUSH3 0x2E9 PUSH1 0x0 CODECOPY PUSH1 0x0 RETURN INVALID PUSH1 0x80 PUSH1 0x40 MSTORE CALLVALUE DUP1 ISZERO PUSH2 0x10 JUMPI PUSH1 0x0 DUP1 REVERT JUMPDEST POP PUSH1 0x4 CALLDATASIZE LT PUSH2 0x88 JUMPI PUSH1 0x0 CALLDATALOAD PUSH1 0xE0 SHR DUP1 PUSH4 0x76809CE3 GT PUSH2 0x5B JUMPI DUP1 PUSH4 0x76809CE3 EQ PUSH2 0x103 JUMPI DUP1 PUSH4 0x95D89B41 EQ PUSH2 0x121 JUMPI DUP1 PUSH4 0xB20A7CF6 EQ PUSH2 0x13F JUMPI DUP1 PUSH4 0xE3D670D7 EQ PUSH2 0x15B JUMPI PUSH2 0x88 JUMP JUMPDEST DUP1 PUSH4 0x6FDDE03 EQ PUSH2 0x8D JUMPI DUP1 PUSH4 0x7546172 EQ PUSH2 0xAB JUMPI DUP1 PUSH4 0x18160DDD EQ PUSH2 0xC9 JUMPI DUP1 PUSH4 0x40C10F19 EQ PUSH2 0xE7 JUMPI JUMPDEST PUSH1 0x0 DUP1 REVERT JUMPDEST PUSH2 0x95 PUSH2 0x18B JUMP JUMPDEST PUSH1 0x40 MLOAD PUSH2 0xA2 SWAP2 SWAP1 PUSH2 0x634 JUMP JUMPDEST PUSH1 0x40 MLOAD DUP1 SWAP2 SUB SWAP1 RETURN JUMPDEST PUSH2 0xB3 PUSH2 0x219 JUMP JUMPDEST PUSH1 0x40 MLOAD PUSH2 0xC0 SWAP2 SWAP1 PUSH2 0x619 JUMP JUMPDEST PUSH1 0x40 MLOAD DUP1 SWAP2 SUB SWAP1 RETURN JUMPDEST PUSH2 0xD1 PUSH2 0x23F JUMP JUMPDEST PUSH1 0x40 MLOAD PUSH2 0xDE SWAP2 SWAP1 PUSH2 0x696 JUMP JUMPDEST PUSH1 0x40 MLOAD DUP1 SWAP2 SUB SWAP1 RETURN JUMPDEST PUSH2 0x101 PUSH1 0x4 DUP1 CALLDATASIZE SUB DUP2 ADD SWAP1 PUSH2 0xFC SWAP2 SWAP1 PUSH2 0x53C JUMP JUMPDEST PUSH2 0x245 JUMP JUMPDEST STOP JUMPDEST PUSH2 0x10B PUSH2 0x32F JUMP JUMPDEST PUSH1 0x40 MLOAD PUSH2 0x118 SWAP2 SWAP1 PUSH2 0x696 JUMP JUMPDEST PUSH1 0x40 MLOAD DUP1 SWAP2 SUB SWAP1 RETURN JUMPDEST PUSH2 0x129 PUSH2 0x335 JUMP JUMPDEST PUSH1 0x40 MLOAD PUSH2 0x136 SWAP2 SWAP1 PUSH2 0x634 JUMP JUMPDEST PUSH1 0x40 MLOAD DUP1 SWAP2 SUB SWAP1 RETURN JUMPDEST PUSH2 0x159 PUSH1 0x4 DUP1 CALLDATASIZE SUB DUP2 ADD SWAP1 PUSH2 0x154 SWAP2 SWAP1 PUSH2 0x53C JUMP JUMPDEST PUSH2 0x3C3 JUMP JUMPDEST STOP JUMPDEST PUSH2 0x175 PUSH1 0x4 DUP1 CALLDATASIZE SUB DUP2 ADD SWAP1 PUSH2 0x170 SWAP2 SWAP1 PUSH2 0x50F JUMP JUMPDEST PUSH2 0x4CD JUMP JUMPDEST PUSH1 0x40 MLOAD PUSH2 0x182 SWAP2 SWAP1 PUSH2 0x696 JUMP JUMPDEST PUSH1 0x40 MLOAD DUP1 SWAP2 SUB SWAP1 RETURN JUMPDEST PUSH1 0x0 DUP1 SLOAD PUSH2 0x198 SWAP1 PUSH2 0x7C6 JUMP JUMPDEST DUP1 PUSH1 0x1F ADD PUSH1 0x20 DUP1 SWAP2 DIV MUL PUSH1 0x20 ADD PUSH1 0x40 MLOAD SWAP1 DUP2 ADD PUSH1 0x40 MSTORE DUP1 SWAP3 SWAP2 SWAP1 DUP2 DUP2 MSTORE PUSH1 0x20 ADD DUP3 DUP1 SLOAD PUSH2 0x1C4 SWAP1 PUSH2 0x7C6 JUMP JUMPDEST DUP1 ISZERO PUSH2 0x211 JUMPI DUP1 PUSH1 0x1F LT PUSH2 0x1E6 JUMPI PUSH2 0x100 DUP1 DUP4 SLOAD DIV MUL DUP4 MSTORE SWAP2 PUSH1 0x20 ADD SWAP2 PUSH2 0x211 JUMP JUMPDEST DUP3 ADD SWAP2 SWAP1 PUSH1 0x0 MSTORE PUSH1 0x20 PUSH1 0x0 KECCAK256 SWAP1 JUMPDEST DUP2 SLOAD DUP2 MSTORE SWAP1 PUSH1 0x1 ADD SWAP1 PUSH1 0x20 ADD DUP1 DUP4 GT PUSH2 0x1F4 JUMPI DUP3 SWAP1 SUB PUSH1 0x1F AND DUP3 ADD SWAP2 JUMPDEST POP POP POP POP POP DUP2 JUMP JUMPDEST PUSH1 0x4 PUSH1 0x0 SWAP1 SLOAD SWAP1 PUSH2 0x100 EXP SWAP1 DIV PUSH20 0xFFFFFFFFFFFFFFFFFFFFFFFFFFFFFFFFFFFFFFFF AND DUP2 JUMP JUMPDEST PUSH1 0x3 SLOAD DUP2 JUMP JUMPDEST PUSH1 0x4 PUSH1 0x0 SWAP1 SLOAD SWAP1 PUSH2 0x100 EXP SWAP1 DIV PUSH20 0xFFFFFFFFFFFFFFFFFFFFFFFFFFFFFFFFFFFFFFFF AND PUSH20 0xFFFFFFFFFFFFFFFFFFFFFFFFFFFFFFFFFFFFFFFF AND CALLER PUSH20 0xFFFFFFFFFFFFFFFFFFFFFFFFFFFFFFFFFFFFFFFF AND EQ PUSH2 0x2D5 JUMPI PUSH1 0x40 MLOAD PUSH32 0x8C379A000000000000000000000000000000000000000000000000000000000 DUP2 MSTORE PUSH1 0x4 ADD PUSH2 0x2CC SWAP1 PUSH2 0x656 JUMP JUMPDEST PUSH1 0x40 MLOAD DUP1 SWAP2 SUB SWAP1 REVERT JUMPDEST DUP1 PUSH1 0x5 PUSH1 0x0 DUP5 PUSH20 0xFFFFFFFFFFFFFFFFFFFFFFFFFFFFFFFFFFFFFFFF AND PUSH20 0xFFFFFFFFFFFFFFFFFFFFFFFFFFFFFFFFFFFFFFFF AND DUP2 MSTORE PUSH1 0x20 ADD SWAP1 DUP2 MSTORE PUSH1 0x20 ADD PUSH1 0x0 KECCAK256 PUSH1 0x0 DUP3 DUP3 SLOAD PUSH2 0x324 SWAP2 SWAP1 PUSH2 0x6CD JUMP JUMPDEST SWAP3 POP POP DUP2 SWAP1 SSTORE POP POP POP JUMP JUMPDEST PUSH1 0x2 SLOAD DUP2 JUMP JUMPDEST PUSH1 0x1 DUP1 SLOAD PUSH2 0x342 SWAP1 PUSH2 0x7C6 JUMP JUMPDEST DUP1 PUSH1 0x1F ADD PUSH1 0x20 DUP1 SWAP2 DIV MUL PUSH1 0x20 ADD PUSH1 0x40 MLOAD SWAP1 DUP2 ADD PUSH1 0x40 MSTORE DUP1 SWAP3 SWAP2 SWAP1 DUP2 DUP2 MSTORE PUSH1 0x20 ADD DUP3 DUP1 SLOAD PUSH2 0x36E SWAP1 PUSH2 0x7C6 JUMP JUMPDEST DUP1 ISZERO PUSH2 0x3BB JUMPI DUP1 PUSH1 0x1F LT PUSH2 0x390 JUMPI PUSH2 0x100 DUP1 DUP4 SLOAD DIV MUL DUP4 MSTORE SWAP2 PUSH1 0x20 ADD SWAP2 PUSH2 0x3BB JUMP JUMPDEST DUP3 ADD SWAP2 SWAP1 PUSH1 0x0 MSTORE PUSH1 0x20 PUSH1 0x0 KECCAK256 SWAP1 JUMPDEST DUP2 SLOAD DUP2 MSTORE SWAP1 PUSH1 0x1 ADD SWAP1 PUSH1 0x20 ADD DUP1 DUP4 GT PUSH2 0x39E JUMPI DUP3 SWAP1 SUB PUSH1 0x1F AND DUP3 ADD SWAP2 JUMPDEST POP POP POP POP POP DUP2 JUMP JUMPDEST DUP1 CALLER PUSH20 0xFFFFFFFFFFFFFFFFFFFFFFFFFFFFFFFFFFFFFFFF AND BALANCE LT ISZERO PUSH2 0x41D JUMPI PUSH1 0x40 MLOAD PUSH32 0x8C379A000000000000000000000000000000000000000000000000000000000 DUP2 MSTORE PUSH1 0x4 ADD PUSH2 0x414 SWAP1 PUSH2 0x676 JUMP JUMPDEST PUSH1 0x40 MLOAD DUP1 SWAP2 SUB SWAP1 REVERT JUMPDEST DUP1 PUSH1 0x5 PUSH1 0x0 CALLER PUSH20 0xFFFFFFFFFFFFFFFFFFFFFFFFFFFFFFFFFFFFFFFF AND PUSH20 0xFFFFFFFFFFFFFFFFFFFFFFFFFFFFFFFFFFFFFFFF AND DUP2 MSTORE PUSH1 0x20 ADD SWAP1 DUP2 MSTORE PUSH1 0x20 ADD PUSH1 0x0 KECCAK256 PUSH1 0x0 DUP3 DUP3 SLOAD PUSH2 0x46C SWAP2 SWAP1 PUSH2 0x723 JUMP JUMPDEST SWAP3 POP POP DUP2 SWAP1 SSTORE POP DUP1 PUSH1 0x5 PUSH1 0x0 DUP5 PUSH20 0xFFFFFFFFFFFFFFFFFFFFFFFFFFFFFFFFFFFFFFFF AND PUSH20 0xFFFFFFFFFFFFFFFFFFFFFFFFFFFFFFFFFFFFFFFF AND DUP2 MSTORE PUSH1 0x20 ADD SWAP1 DUP2 MSTORE PUSH1 0x20 ADD PUSH1 0x0 KECCAK256 PUSH1 0x0 DUP3 DUP3 SLOAD PUSH2 0x4C2 SWAP2 SWAP1 PUSH2 0x6CD JUMP JUMPDEST SWAP3 POP POP DUP2 SWAP1 SSTORE POP POP POP JUMP JUMPDEST PUSH1 0x5 PUSH1 0x20 MSTORE DUP1 PUSH1 0x0 MSTORE PUSH1 0x40 PUSH1 0x0 KECCAK256 PUSH1 0x0 SWAP2 POP SWAP1 POP SLOAD DUP2 JUMP JUMPDEST PUSH1 0x0 DUP2 CALLDATALOAD SWAP1 POP PUSH2 0x4F4 DUP2 PUSH2 0x8BE JUMP JUMPDEST SWAP3 SWAP2 POP POP JUMP JUMPDEST PUSH1 0x0 DUP2 CALLDATALOAD SWAP1 POP PUSH2 0x509 DUP2 PUSH2 0x8D5 JUMP JUMPDEST SWAP3 SWAP2 POP POP JUMP JUMPDEST PUSH1 0x0 PUSH1 0x20 DUP3 DUP5 SUB SLT ISZERO PUSH2 0x525 JUMPI PUSH2 0x524 PUSH2 0x856 JUMP JUMPDEST JUMPDEST PUSH1 0x0 PUSH2 0x533 DUP5 DUP3 DUP6 ADD PUSH2 0x4E5 JUMP JUMPDEST SWAP2 POP POP SWAP3 SWAP2 POP POP JUMP JUMPDEST PUSH1 0x0 DUP1 PUSH1 0x40 DUP4 DUP6 SUB SLT ISZERO PUSH2 0x553 JUMPI PUSH2 0x552 PUSH2 0x856 JUMP JUMPDEST JUMPDEST PUSH1 0x0 PUSH2 0x561 DUP6 DUP3 DUP7 ADD PUSH2 0x4E5 JUMP JUMPDEST SWAP3 POP POP PUSH1 0x20 PUSH2 0x572 DUP6 DUP3 DUP7 ADD PUSH2 0x4FA JUMP JUMPDEST SWAP2 POP POP SWAP3 POP SWAP3 SWAP1 POP JUMP JUMPDEST PUSH2 0x585 DUP2 PUSH2 0x757 JUMP JUMPDEST DUP3 MSTORE POP POP JUMP JUMPDEST PUSH1 0x0 PUSH2 0x596 DUP3 PUSH2 0x6B1 JUMP JUMPDEST PUSH2 0x5A0 DUP2 DUP6 PUSH2 0x6BC JUMP JUMPDEST SWAP4 POP PUSH2 0x5B0 DUP2 DUP6 PUSH1 0x20 DUP7 ADD PUSH2 0x793 JUMP JUMPDEST PUSH2 0x5B9 DUP2 PUSH2 0x85B JUMP JUMPDEST DUP5 ADD SWAP2 POP POP SWAP3 SWAP2 POP POP JUMP JUMPDEST PUSH1 0x0 PUSH2 0x5D1 PUSH1 0x12 DUP4 PUSH2 0x6BC JUMP JUMPDEST SWAP2 POP PUSH2 0x5DC DUP3 PUSH2 0x86C JUMP JUMPDEST PUSH1 0x20 DUP3 ADD SWAP1 POP SWAP2 SWAP1 POP JUMP JUMPDEST PUSH1 0x0 PUSH2 0x5F4 PUSH1 0xA DUP4 PUSH2 0x6BC JUMP JUMPDEST SWAP2 POP PUSH2 0x5FF DUP3 PUSH2 0x895 JUMP JUMPDEST PUSH1 0x20 DUP3 ADD SWAP1 POP SWAP2 SWAP1 POP JUMP JUMPDEST PUSH2 0x613 DUP2 PUSH2 0x789 JUMP JUMPDEST DUP3 MSTORE POP POP JUMP JUMPDEST PUSH1 0x0 PUSH1 0x20 DUP3 ADD SWAP1 POP PUSH2 0x62E PUSH1 0x0 DUP4 ADD DUP5 PUSH2 0x57C JUMP JUMPDEST SWAP3 SWAP2 POP POP JUMP JUMPDEST PUSH1 0x0 PUSH1 0x20 DUP3 ADD SWAP1 POP DUP2 DUP2 SUB PUSH1 0x0 DUP4 ADD MSTORE PUSH2 0x64E DUP2 DUP5 PUSH2 0x58B JUMP JUMPDEST SWAP1 POP SWAP3 SWAP2 POP POP JUMP JUMPDEST PUSH1 0x0 PUSH1 0x20 DUP3 ADD SWAP1 POP DUP2 DUP2 SUB PUSH1 0x0 DUP4 ADD MSTORE PUSH2 0x66F DUP2 PUSH2 0x5C4 JUMP JUMPDEST SWAP1 POP SWAP2 SWAP1 POP JUMP JUMPDEST PUSH1 0x0 PUSH1 0x20 DUP3 ADD SWAP1 POP DUP2 DUP2 SUB PUSH1 0x0 DUP4 ADD MSTORE PUSH2 0x68F DUP2 PUSH2 0x5E7 JUMP JUMPDEST SWAP1 POP SWAP2 SWAP1 POP JUMP JUMPDEST PUSH1 0x0 PUSH1 0x20 DUP3 ADD SWAP1 POP PUSH2 0x6AB PUSH1 0x0 DUP4 ADD DUP5 PUSH2 0x60A JUMP JUMPDEST SWAP3 SWAP2 POP POP JUMP JUMPDEST PUSH1 0x0 DUP2 MLOAD SWAP1 POP SWAP2 SWAP1 POP JUMP JUMPDEST PUSH1 0x0 DUP3 DUP3 MSTORE PUSH1 0x20 DUP3 ADD SWAP1 POP SWAP3 SWAP2 POP POP JUMP JUMPDEST PUSH1 0x0 PUSH2 0x6D8 DUP3 PUSH2 0x789 JUMP JUMPDEST SWAP2 POP PUSH2 0x6E3 DUP4 PUSH2 0x789 JUMP JUMPDEST SWAP3 POP DUP3 PUSH32 0xFFFFFFFFFFFFFFFFFFFFFFFFFFFFFFFFFFFFFFFFFFFFFFFFFFFFFFFFFFFFFFFF SUB DUP3 GT ISZERO PUSH2 0x718 JUMPI PUSH2 0x717 PUSH2 0x7F8 JUMP JUMPDEST JUMPDEST DUP3 DUP3 ADD SWAP1 POP SWAP3 SWAP2 POP POP JUMP JUMPDEST PUSH1 0x0 PUSH2 0x72E DUP3 PUSH2 0x789 JUMP JUMPDEST SWAP2 POP PUSH2 0x739 DUP4 PUSH2 0x789 JUMP JUMPDEST SWAP3 POP DUP3 DUP3 LT ISZERO PUSH2 0x74C JUMPI PUSH2 0x74B PUSH2 0x7F8 JUMP JUMPDEST JUMPDEST DUP3 DUP3 SUB SWAP1 POP SWAP3 SWAP2 POP POP JUMP JUMPDEST PUSH1 0x0 PUSH2 0x762 DUP3 PUSH2 0x769 JUMP JUMPDEST SWAP1 POP SWAP2 SWAP1 POP JUMP JUMPDEST PUSH1 0x0 PUSH20 0xFFFFFFFFFFFFFFFFFFFFFFFFFFFFFFFFFFFFFFFF DUP3 AND SWAP1 POP SWAP2 SWAP1 POP JUMP JUMPDEST PUSH1 0x0 DUP2 SWAP1 POP SWAP2 SWAP1 POP JUMP JUMPDEST PUSH1 0x0 JUMPDEST DUP4 DUP2 LT ISZERO PUSH2 0x7B1 JUMPI DUP1 DUP3 ADD MLOAD DUP2 DUP5 ADD MSTORE PUSH1 0x20 DUP2 ADD SWAP1 POP PUSH2 0x796 JUMP JUMPDEST DUP4 DUP2 GT ISZERO PUSH2 0x7C0 JUMPI PUSH1 0x0 DUP5 DUP5 ADD MSTORE JUMPDEST POP POP POP POP JUMP JUMPDEST PUSH1 0x0 PUSH1 0x2 DUP3 DIV SWAP1 POP PUSH1 0x1 DUP3 AND DUP1 PUSH2 0x7DE JUMPI PUSH1 0x7F DUP3 AND SWAP2 POP JUMPDEST PUSH1 0x20 DUP3 LT DUP2 EQ ISZERO PUSH2 0x7F2 JUMPI PUSH2 0x7F1 PUSH2 0x827 JUMP JUMPDEST JUMPDEST POP SWAP2 SWAP1 POP JUMP JUMPDEST PUSH32 0x4E487B7100000000000000000000000000000000000000000000000000000000 PUSH1 0x0 MSTORE PUSH1 0x11 PUSH1 0x4 MSTORE PUSH1 0x24 PUSH1 0x0 REVERT JUMPDEST PUSH32 0x4E487B7100000000000000000000000000000000000000000000000000000000 PUSH1 0x0 MSTORE PUSH1 0x22 PUSH1 0x4 MSTORE PUSH1 0x24 PUSH1 0x0 REVERT JUMPDEST PUSH1 0x0 DUP1 REVERT JUMPDEST PUSH1 0x0 PUSH1 0x1F NOT PUSH1 0x1F DUP4 ADD AND SWAP1 POP SWAP2 SWAP1 POP JUMP JUMPDEST PUSH32 0x6E6F74206973206F776E206163636F756E740000000000000000000000000000 PUSH1 0x0 DUP3 ADD MSTORE POP JUMP JUMPDEST PUSH32 0x79752065206275207A7500000000000000000000000000000000000000000000 PUSH1 0x0 DUP3 ADD MSTORE POP JUMP JUMPDEST PUSH2 0x8C7 DUP2 PUSH2 0x757 JUMP JUMPDEST DUP2 EQ PUSH2 0x8D2 JUMPI PUSH1 0x0 DUP1 REVERT JUMPDEST POP JUMP JUMPDEST PUSH2 0x8DE DUP2 PUSH2 0x789 JUMP JUMPDEST DUP2 EQ PUSH2 0x8E9 JUMPI PUSH1 0x0 DUP1 REVERT JUMPDEST POP JUMP INVALID LOG2 PUSH5 0x6970667358 0x22 SLT KECCAK256 DUP2 SWAP2 SWAP4 0xA5 0xCE PUSH25 0xE45D59518FEE9AEF70DA6B45E7F85514DBD9AE51B5738DC0F0 PUSH32 0x64736F6C63430008070033000000000000000000000000000000000000000000 "
				},
				"gasEstimates": {
					"creation": {
						"codeDepositCost": "467600",
						"executionCost": "infinite",
						"totalCost": "infinite"
					},
					"external": {
						"balance(address)": "2880",
						"decimal()": "2429",
						"mint(address,uint256)": "infinite",
						"minter()": "2537",
						"name()": "infinite",
						"sendnum(address,uint256)": "infinite",
						"symbol()": "infinite",
						"totalSupply()": "2474"
					}
				},
				"methodIdentifiers": {
					"balance(address)": "e3d670d7",
					"decimal()": "76809ce3",
					"mint(address,uint256)": "40c10f19",
					"minter()": "07546172",
					"name()": "06fdde03",
					"sendnum(address,uint256)": "b20a7cf6",
					"symbol()": "95d89b41",
					"totalSupply()": "18160ddd"
				}
			},
			"storageLayout": {
				"storage": [
					{
						"astId": 4,
						"contract": "Token.sol:Token",
						"label": "name",
						"offset": 0,
						"slot": "0",
						"type": "t_string_storage"
					},
					{
						"astId": 7,
						"contract": "Token.sol:Token",
						"label": "symbol",
						"offset": 0,
						"slot": "1",
						"type": "t_string_storage"
					},
					{
						"astId": 10,
						"contract": "Token.sol:Token",
						"label": "decimal",
						"offset": 0,
						"slot": "2",
						"type": "t_uint256"
					},
					{
						"astId": 13,
						"contract": "Token.sol:Token",
						"label": "totalSupply",
						"offset": 0,
						"slot": "3",
						"type": "t_uint256"
					},
					{
						"astId": 15,
						"contract": "Token.sol:Token",
						"label": "minter",
						"offset": 0,
						"slot": "4",
						"type": "t_address"
					},
					{
						"astId": 19,
						"contract": "Token.sol:Token",
						"label": "balance",
						"offset": 0,
						"slot": "5",
						"type": "t_mapping(t_address,t_uint256)"
					}
				],
				"types": {
					"t_address": {
						"encoding": "inplace",
						"label": "address",
						"numberOfBytes": "20"
					},
					"t_mapping(t_address,t_uint256)": {
						"encoding": "mapping",
						"key": "t_address",
						"label": "mapping(address => uint256)",
						"numberOfBytes": "32",
						"value": "t_uint256"
					},
					"t_string_storage": {
						"encoding": "bytes",
						"label": "string",
						"numberOfBytes": "32"
					},
					"t_uint256": {
						"encoding": "inplace",
						"label": "uint256",
						"numberOfBytes": "32"
					}
				}
			},
			"userdoc": {
				"kind": "user",
				"methods": {},
				"version": 1
			}
		}
	}
}