{
	"Token.sol": {
		"Token": {
			"abi": [
				{
					"inputs": [
						{
							"internalType": "address",
							"name": "",
							"type": "address"
						}
					],
					"name": "balance",
					"outputs": [
						{
							"internalType": "uint256",
							"name": "",
							"type": "uint256"
						}
					],
					"stateMutability": "view",
					"type": "function"
				},
				{
					"inputs": [],
					"name": "decimal",
					"outputs": [
						{
							"internalType": "uint256",
							"name": "",
							"type": "uint256"
						}
					],
					"stateMutability": "view",
					"type": "function"
				},
				{
					"inputs": [
						{
							"internalType": "address",
							"name": "receiver",
							"type": "address"
						},
						{
							"internalType": "uint256",
							"name": "amount",
							"type": "uint256"
						}
					],
					"name": "mint",
					"outputs": [],
					"stateMutability": "nonpayable",
					"type": "function"
				},
				{
					"inputs": [],
					"name": "minter",
					"outputs": [
						{
							"internalType": "address",
							"name": "",
							"type": "address"
						}
					],
					"stateMutability": "view",
					"type": "function"
				},
				{
					"inputs": [],
					"name": "name",
					"outputs": [
						{
							"internalType": "string",
							"name": "",
							"type": "string"
						}
					],
					"stateMutability": "view",
					"type": "function"
				},
				{
					"inputs": [],
					"name": "owner",
					"outputs": [],
					"stateMutability": "nonpayable",
					"type": "function"
				},
				{
					"inputs": [],
					"name": "symbol",
					"outputs": [
						{
							"internalType": "string",
							"name": "",
							"type": "string"
						}
					],
					"stateMutability": "view",
					"type": "function"
				},
				{
					"inputs": [],
					"name": "totalSupply",
					"outputs": [
						{
							"internalType": "uint256",
							"name": "",
							"type": "uint256"
						}
					],
					"stateMutability": "view",
					"type": "function"
				}
			],
			"devdoc": {
				"kind": "dev",
				"methods": {},
				"version": 1
			},
			"evm": {
				"assembly": "    /* \"Token.sol\":62:553  contract Token {... */\n  mstore(0x40, 0x80)\n    /* \"Token.sol\":83:114  string public name = \"solidity\" */\n  mload(0x40)\n  dup1\n  0x40\n  add\n  0x40\n  mstore\n  dup1\n  0x08\n  dup2\n  mstore\n  0x20\n  add\n  0x736f6c6964697479000000000000000000000000000000000000000000000000\n  dup2\n  mstore\n  pop\n  0x00\n  swap1\n  dup1\n  mload\n  swap1\n  0x20\n  add\n  swap1\n  tag_1\n  swap3\n  swap2\n  swap1\n  tag_2\n  jump\t// in\ntag_1:\n  pop\n    /* \"Token.sol\":120:148  string public symbol = \"SOL\" */\n  mload(0x40)\n  dup1\n  0x40\n  add\n  0x40\n  mstore\n  dup1\n  0x03\n  dup2\n  mstore\n  0x20\n  add\n  0x534f4c0000000000000000000000000000000000000000000000000000000000\n  dup2\n  mstore\n  pop\n  0x01\n  swap1\n  dup1\n  mload\n  swap1\n  0x20\n  add\n  swap1\n  tag_3\n  swap3\n  swap2\n  swap1\n  tag_2\n  jump\t// in\ntag_3:\n  pop\n    /* \"Token.sol\":179:181  18 */\n  0x12\n    /* \"Token.sol\":154:181  uint256 public decimal = 18 */\n  0x02\n  sstore\n    /* \"Token.sol\":216:225  210000000 */\n  0x0c845880\n    /* \"Token.sol\":187:225  uint256 public totalSupply = 210000000 */\n  0x03\n  sstore\n    /* \"Token.sol\":62:553  contract Token {... */\n  callvalue\n  dup1\n  iszero\n  tag_4\n  jumpi\n  0x00\n  dup1\n  revert\ntag_4:\n  pop\n  jump(tag_5)\ntag_2:\n  dup3\n  dup1\n  sload\n  tag_6\n  swap1\n  tag_7\n  jump\t// in\ntag_6:\n  swap1\n  0x00\n  mstore\n  keccak256(0x00, 0x20)\n  swap1\n  0x1f\n  add\n  0x20\n  swap1\n  div\n  dup2\n  add\n  swap3\n  dup3\n  tag_9\n  jumpi\n  0x00\n  dup6\n  sstore\n  jump(tag_8)\ntag_9:\n  dup3\n  0x1f\n  lt\n  tag_10\n  jumpi\n  dup1\n  mload\n  not(0xff)\n  and\n  dup4\n  dup1\n  add\n  or\n  dup6\n  sstore\n  jump(tag_8)\ntag_10:\n  dup3\n  dup1\n  add\n  0x01\n  add\n  dup6\n  sstore\n  dup3\n  iszero\n  tag_8\n  jumpi\n  swap2\n  dup3\n  add\ntag_11:\n  dup3\n  dup2\n  gt\n  iszero\n  tag_12\n  jumpi\n  dup3\n  mload\n  dup3\n  sstore\n  swap2\n  0x20\n  add\n  swap2\n  swap1\n  0x01\n  add\n  swap1\n  jump(tag_11)\ntag_12:\ntag_8:\n  pop\n  swap1\n  pop\n  tag_13\n  swap2\n  swap1\n  tag_14\n  jump\t// in\ntag_13:\n  pop\n  swap1\n  jump\t// out\ntag_14:\ntag_15:\n  dup1\n  dup3\n  gt\n  iszero\n  tag_16\n  jumpi\n  0x00\n  dup2\n  0x00\n  swap1\n  sstore\n  pop\n  0x01\n  add\n  jump(tag_15)\ntag_16:\n  pop\n  swap1\n  jump\t// out\n    /* \"#utility.yul\":7:327   */\ntag_7:\n    /* \"#utility.yul\":51:57   */\n  0x00\n    /* \"#utility.yul\":88:89   */\n  0x02\n    /* \"#utility.yul\":82:86   */\n  dup3\n    /* \"#utility.yul\":78:90   */\n  div\n    /* \"#utility.yul\":68:90   */\n  swap1\n  pop\n    /* \"#utility.yul\":135:136   */\n  0x01\n    /* \"#utility.yul\":129:133   */\n  dup3\n    /* \"#utility.yul\":125:137   */\n  and\n    /* \"#utility.yul\":156:174   */\n  dup1\n    /* \"#utility.yul\":146:227   */\n  tag_19\n  jumpi\n    /* \"#utility.yul\":212:216   */\n  0x7f\n    /* \"#utility.yul\":204:210   */\n  dup3\n    /* \"#utility.yul\":200:217   */\n  and\n    /* \"#utility.yul\":190:217   */\n  swap2\n  pop\n    /* \"#utility.yul\":146:227   */\ntag_19:\n    /* \"#utility.yul\":274:276   */\n  0x20\n    /* \"#utility.yul\":266:272   */\n  dup3\n    /* \"#utility.yul\":263:277   */\n  lt\n    /* \"#utility.yul\":243:261   */\n  dup2\n    /* \"#utility.yul\":240:278   */\n  eq\n    /* \"#utility.yul\":237:321   */\n  iszero\n  tag_20\n  jumpi\n    /* \"#utility.yul\":293:311   */\n  tag_21\n  tag_22\n  jump\t// in\ntag_21:\n    /* \"#utility.yul\":237:321   */\ntag_20:\n    /* \"#utility.yul\":58:327   */\n  pop\n    /* \"#utility.yul\":7:327   */\n  swap2\n  swap1\n  pop\n  jump\t// out\n    /* \"#utility.yul\":333:513   */\ntag_22:\n    /* \"#utility.yul\":381:458   */\n  0x4e487b7100000000000000000000000000000000000000000000000000000000\n    /* \"#utility.yul\":378:379   */\n  0x00\n    /* \"#utility.yul\":371:459   */\n  mstore\n    /* \"#utility.yul\":478:482   */\n  0x22\n    /* \"#utility.yul\":475:476   */\n  0x04\n    /* \"#utility.yul\":468:483   */\n  mstore\n    /* \"#utility.yul\":502:506   */\n  0x24\n    /* \"#utility.yul\":499:500   */\n  0x00\n    /* \"#utility.yul\":492:507   */\n  revert\n    /* \"Token.sol\":62:553  contract Token {... */\ntag_5:\n  dataSize(sub_0)\n  dup1\n  dataOffset(sub_0)\n  0x00\n  codecopy\n  0x00\n  return\nstop\n\nsub_0: assembly {\n        /* \"Token.sol\":62:553  contract Token {... */\n      mstore(0x40, 0x80)\n      callvalue\n      dup1\n      iszero\n      tag_1\n      jumpi\n      0x00\n      dup1\n      revert\n    tag_1:\n      pop\n      jumpi(tag_2, lt(calldatasize, 0x04))\n      shr(0xe0, calldataload(0x00))\n      dup1\n      0x76809ce3\n      gt\n      tag_11\n      jumpi\n      dup1\n      0x76809ce3\n      eq\n      tag_7\n      jumpi\n      dup1\n      0x8da5cb5b\n      eq\n      tag_8\n      jumpi\n      dup1\n      0x95d89b41\n      eq\n      tag_9\n      jumpi\n      dup1\n      0xe3d670d7\n      eq\n      tag_10\n      jumpi\n      jump(tag_2)\n    tag_11:\n      dup1\n      0x06fdde03\n      eq\n      tag_3\n      jumpi\n      dup1\n      0x07546172\n      eq\n      tag_4\n      jumpi\n      dup1\n      0x18160ddd\n      eq\n      tag_5\n      jumpi\n      dup1\n      0x40c10f19\n      eq\n      tag_6\n      jumpi\n    tag_2:\n      0x00\n      dup1\n      revert\n        /* \"Token.sol\":83:114  string public name = \"solidity\" */\n    tag_3:\n      tag_12\n      tag_13\n      jump\t// in\n    tag_12:\n      mload(0x40)\n      tag_14\n      swap2\n      swap1\n      tag_15\n      jump\t// in\n    tag_14:\n      mload(0x40)\n      dup1\n      swap2\n      sub\n      swap1\n      return\n        /* \"Token.sol\":231:252  address public minter */\n    tag_4:\n      tag_16\n      tag_17\n      jump\t// in\n    tag_16:\n      mload(0x40)\n      tag_18\n      swap2\n      swap1\n      tag_19\n      jump\t// in\n    tag_18:\n      mload(0x40)\n      dup1\n      swap2\n      sub\n      swap1\n      return\n        /* \"Token.sol\":187:225  uint256 public totalSupply = 210000000 */\n    tag_5:\n      tag_20\n      tag_21\n      jump\t// in\n    tag_20:\n      mload(0x40)\n      tag_22\n      swap2\n      swap1\n      tag_23\n      jump\t// in\n    tag_22:\n      mload(0x40)\n      dup1\n      swap2\n      sub\n      swap1\n      return\n        /* \"Token.sol\":405:547  function mint(address receiver, uint amount) public{... */\n    tag_6:\n      tag_24\n      0x04\n      dup1\n      calldatasize\n      sub\n      dup2\n      add\n      swap1\n      tag_25\n      swap2\n      swap1\n      tag_26\n      jump\t// in\n    tag_25:\n      tag_27\n      jump\t// in\n    tag_24:\n      stop\n        /* \"Token.sol\":154:181  uint256 public decimal = 18 */\n    tag_7:\n      tag_28\n      tag_29\n      jump\t// in\n    tag_28:\n      mload(0x40)\n      tag_30\n      swap2\n      swap1\n      tag_23\n      jump\t// in\n    tag_30:\n      mload(0x40)\n      dup1\n      swap2\n      sub\n      swap1\n      return\n        /* \"Token.sol\":341:400  function owner() public{... */\n    tag_8:\n      tag_31\n      tag_32\n      jump\t// in\n    tag_31:\n      stop\n        /* \"Token.sol\":120:148  string public symbol = \"SOL\" */\n    tag_9:\n      tag_33\n      tag_34\n      jump\t// in\n    tag_33:\n      mload(0x40)\n      tag_35\n      swap2\n      swap1\n      tag_15\n      jump\t// in\n    tag_35:\n      mload(0x40)\n      dup1\n      swap2\n      sub\n      swap1\n      return\n        /* \"Token.sol\":275:314  mapping(address => uint) public balance */\n    tag_10:\n      tag_36\n      0x04\n      dup1\n      calldatasize\n      sub\n      dup2\n      add\n      swap1\n      tag_37\n      swap2\n      swap1\n      tag_38\n      jump\t// in\n    tag_37:\n      tag_39\n      jump\t// in\n    tag_36:\n      mload(0x40)\n      tag_40\n      swap2\n      swap1\n      tag_23\n      jump\t// in\n    tag_40:\n      mload(0x40)\n      dup1\n      swap2\n      sub\n      swap1\n      return\n        /* \"Token.sol\":83:114  string public name = \"solidity\" */\n    tag_13:\n      0x00\n      dup1\n      sload\n      tag_41\n      swap1\n      tag_42\n      jump\t// in\n    tag_41:\n      dup1\n      0x1f\n      add\n      0x20\n      dup1\n      swap2\n      div\n      mul\n      0x20\n      add\n      mload(0x40)\n      swap1\n      dup2\n      add\n      0x40\n      mstore\n      dup1\n      swap3\n      swap2\n      swap1\n      dup2\n      dup2\n      mstore\n      0x20\n      add\n      dup3\n      dup1\n      sload\n      tag_43\n      swap1\n      tag_42\n      jump\t// in\n    tag_43:\n      dup1\n      iszero\n      tag_44\n      jumpi\n      dup1\n      0x1f\n      lt\n      tag_45\n      jumpi\n      0x0100\n      dup1\n      dup4\n      sload\n      div\n      mul\n      dup4\n      mstore\n      swap2\n      0x20\n      add\n      swap2\n      jump(tag_44)\n    tag_45:\n      dup3\n      add\n      swap2\n      swap1\n      0x00\n      mstore\n      keccak256(0x00, 0x20)\n      swap1\n    tag_46:\n      dup2\n      sload\n      dup2\n      mstore\n      swap1\n      0x01\n      add\n      swap1\n      0x20\n      add\n      dup1\n      dup4\n      gt\n      tag_46\n      jumpi\n      dup3\n      swap1\n      sub\n      0x1f\n      and\n      dup3\n      add\n      swap2\n    tag_44:\n      pop\n      pop\n      pop\n      pop\n      pop\n      dup2\n      jump\t// out\n        /* \"Token.sol\":231:252  address public minter */\n    tag_17:\n      0x04\n      0x00\n      swap1\n      sload\n      swap1\n      0x0100\n      exp\n      swap1\n      div\n      0xffffffffffffffffffffffffffffffffffffffff\n      and\n      dup2\n      jump\t// out\n        /* \"Token.sol\":187:225  uint256 public totalSupply = 210000000 */\n    tag_21:\n      sload(0x03)\n      dup2\n      jump\t// out\n        /* \"Token.sol\":405:547  function mint(address receiver, uint amount) public{... */\n    tag_27:\n        /* \"Token.sol\":484:490  minter */\n      0x04\n      0x00\n      swap1\n      sload\n      swap1\n      0x0100\n      exp\n      swap1\n      div\n      0xffffffffffffffffffffffffffffffffffffffff\n      and\n        /* \"Token.sol\":470:490  msg.sender == minter */\n      0xffffffffffffffffffffffffffffffffffffffff\n      and\n        /* \"Token.sol\":470:480  msg.sender */\n      caller\n        /* \"Token.sol\":470:490  msg.sender == minter */\n      0xffffffffffffffffffffffffffffffffffffffff\n      and\n      eq\n        /* \"Token.sol\":466:499  if (msg.sender == minter) return; */\n      iszero\n      tag_48\n      jumpi\n        /* \"Token.sol\":492:499  return; */\n      jump(tag_47)\n        /* \"Token.sol\":466:499  if (msg.sender == minter) return; */\n    tag_48:\n        /* \"Token.sol\":529:535  amount */\n      dup1\n        /* \"Token.sol\":508:515  balance */\n      0x05\n        /* \"Token.sol\":508:525  balance[receiver] */\n      0x00\n        /* \"Token.sol\":516:524  receiver */\n      dup5\n        /* \"Token.sol\":508:525  balance[receiver] */\n      0xffffffffffffffffffffffffffffffffffffffff\n      and\n      0xffffffffffffffffffffffffffffffffffffffff\n      and\n      dup2\n      mstore\n      0x20\n      add\n      swap1\n      dup2\n      mstore\n      0x20\n      add\n      0x00\n      keccak256\n      0x00\n        /* \"Token.sol\":508:535  balance[receiver] += amount */\n      dup3\n      dup3\n      sload\n      tag_49\n      swap2\n      swap1\n      tag_50\n      jump\t// in\n    tag_49:\n      swap3\n      pop\n      pop\n      dup2\n      swap1\n      sstore\n      pop\n        /* \"Token.sol\":405:547  function mint(address receiver, uint amount) public{... */\n    tag_47:\n      pop\n      pop\n      jump\t// out\n        /* \"Token.sol\":154:181  uint256 public decimal = 18 */\n    tag_29:\n      sload(0x02)\n      dup2\n      jump\t// out\n        /* \"Token.sol\":341:400  function owner() public{... */\n    tag_32:\n        /* \"Token.sol\":383:393  msg.sender */\n      caller\n        /* \"Token.sol\":374:380  minter */\n      0x04\n      0x00\n        /* \"Token.sol\":374:393  minter = msg.sender */\n      0x0100\n      exp\n      dup2\n      sload\n      dup2\n      0xffffffffffffffffffffffffffffffffffffffff\n      mul\n      not\n      and\n      swap1\n      dup4\n      0xffffffffffffffffffffffffffffffffffffffff\n      and\n      mul\n      or\n      swap1\n      sstore\n      pop\n        /* \"Token.sol\":341:400  function owner() public{... */\n      jump\t// out\n        /* \"Token.sol\":120:148  string public symbol = \"SOL\" */\n    tag_34:\n      0x01\n      dup1\n      sload\n      tag_52\n      swap1\n      tag_42\n      jump\t// in\n    tag_52:\n      dup1\n      0x1f\n      add\n      0x20\n      dup1\n      swap2\n      div\n      mul\n      0x20\n      add\n      mload(0x40)\n      swap1\n      dup2\n      add\n      0x40\n      mstore\n      dup1\n      swap3\n      swap2\n      swap1\n      dup2\n      dup2\n      mstore\n      0x20\n      add\n      dup3\n      dup1\n      sload\n      tag_53\n      swap1\n      tag_42\n      jump\t// in\n    tag_53:\n      dup1\n      iszero\n      tag_54\n      jumpi\n      dup1\n      0x1f\n      lt\n      tag_55\n      jumpi\n      0x0100\n      dup1\n      dup4\n      sload\n      div\n      mul\n      dup4\n      mstore\n      swap2\n      0x20\n      add\n      swap2\n      jump(tag_54)\n    tag_55:\n      dup3\n      add\n      swap2\n      swap1\n      0x00\n      mstore\n      keccak256(0x00, 0x20)\n      swap1\n    tag_56:\n      dup2\n      sload\n      dup2\n      mstore\n      swap1\n      0x01\n      add\n      swap1\n      0x20\n      add\n      dup1\n      dup4\n      gt\n      tag_56\n      jumpi\n      dup3\n      swap1\n      sub\n      0x1f\n      and\n      dup3\n      add\n      swap2\n    tag_54:\n      pop\n      pop\n      pop\n      pop\n      pop\n      dup2\n      jump\t// out\n        /* \"Token.sol\":275:314  mapping(address => uint) public balance */\n    tag_39:\n      mstore(0x20, 0x05)\n      dup1\n      0x00\n      mstore\n      keccak256(0x00, 0x40)\n      0x00\n      swap2\n      pop\n      swap1\n      pop\n      sload\n      dup2\n      jump\t// out\n        /* \"#utility.yul\":7:146   */\n    tag_58:\n        /* \"#utility.yul\":53:58   */\n      0x00\n        /* \"#utility.yul\":91:97   */\n      dup2\n        /* \"#utility.yul\":78:98   */\n      calldataload\n        /* \"#utility.yul\":69:98   */\n      swap1\n      pop\n        /* \"#utility.yul\":107:140   */\n      tag_60\n        /* \"#utility.yul\":134:139   */\n      dup2\n        /* \"#utility.yul\":107:140   */\n      tag_61\n      jump\t// in\n    tag_60:\n        /* \"#utility.yul\":7:146   */\n      swap3\n      swap2\n      pop\n      pop\n      jump\t// out\n        /* \"#utility.yul\":152:291   */\n    tag_62:\n        /* \"#utility.yul\":198:203   */\n      0x00\n        /* \"#utility.yul\":236:242   */\n      dup2\n        /* \"#utility.yul\":223:243   */\n      calldataload\n        /* \"#utility.yul\":214:243   */\n      swap1\n      pop\n        /* \"#utility.yul\":252:285   */\n      tag_64\n        /* \"#utility.yul\":279:284   */\n      dup2\n        /* \"#utility.yul\":252:285   */\n      tag_65\n      jump\t// in\n    tag_64:\n        /* \"#utility.yul\":152:291   */\n      swap3\n      swap2\n      pop\n      pop\n      jump\t// out\n        /* \"#utility.yul\":297:626   */\n    tag_38:\n        /* \"#utility.yul\":356:362   */\n      0x00\n        /* \"#utility.yul\":405:407   */\n      0x20\n        /* \"#utility.yul\":393:402   */\n      dup3\n        /* \"#utility.yul\":384:391   */\n      dup5\n        /* \"#utility.yul\":380:403   */\n      sub\n        /* \"#utility.yul\":376:408   */\n      slt\n        /* \"#utility.yul\":373:492   */\n      iszero\n      tag_67\n      jumpi\n        /* \"#utility.yul\":411:490   */\n      tag_68\n      tag_69\n      jump\t// in\n    tag_68:\n        /* \"#utility.yul\":373:492   */\n    tag_67:\n        /* \"#utility.yul\":531:532   */\n      0x00\n        /* \"#utility.yul\":556:609   */\n      tag_70\n        /* \"#utility.yul\":601:608   */\n      dup5\n        /* \"#utility.yul\":592:598   */\n      dup3\n        /* \"#utility.yul\":581:590   */\n      dup6\n        /* \"#utility.yul\":577:599   */\n      add\n        /* \"#utility.yul\":556:609   */\n      tag_58\n      jump\t// in\n    tag_70:\n        /* \"#utility.yul\":546:609   */\n      swap2\n      pop\n        /* \"#utility.yul\":502:619   */\n      pop\n        /* \"#utility.yul\":297:626   */\n      swap3\n      swap2\n      pop\n      pop\n      jump\t// out\n        /* \"#utility.yul\":632:1106   */\n    tag_26:\n        /* \"#utility.yul\":700:706   */\n      0x00\n        /* \"#utility.yul\":708:714   */\n      dup1\n        /* \"#utility.yul\":757:759   */\n      0x40\n        /* \"#utility.yul\":745:754   */\n      dup4\n        /* \"#utility.yul\":736:743   */\n      dup6\n        /* \"#utility.yul\":732:755   */\n      sub\n        /* \"#utility.yul\":728:760   */\n      slt\n        /* \"#utility.yul\":725:844   */\n      iszero\n      tag_72\n      jumpi\n        /* \"#utility.yul\":763:842   */\n      tag_73\n      tag_69\n      jump\t// in\n    tag_73:\n        /* \"#utility.yul\":725:844   */\n    tag_72:\n        /* \"#utility.yul\":883:884   */\n      0x00\n        /* \"#utility.yul\":908:961   */\n      tag_74\n        /* \"#utility.yul\":953:960   */\n      dup6\n        /* \"#utility.yul\":944:950   */\n      dup3\n        /* \"#utility.yul\":933:942   */\n      dup7\n        /* \"#utility.yul\":929:951   */\n      add\n        /* \"#utility.yul\":908:961   */\n      tag_58\n      jump\t// in\n    tag_74:\n        /* \"#utility.yul\":898:961   */\n      swap3\n      pop\n        /* \"#utility.yul\":854:971   */\n      pop\n        /* \"#utility.yul\":1010:1012   */\n      0x20\n        /* \"#utility.yul\":1036:1089   */\n      tag_75\n        /* \"#utility.yul\":1081:1088   */\n      dup6\n        /* \"#utility.yul\":1072:1078   */\n      dup3\n        /* \"#utility.yul\":1061:1070   */\n      dup7\n        /* \"#utility.yul\":1057:1079   */\n      add\n        /* \"#utility.yul\":1036:1089   */\n      tag_62\n      jump\t// in\n    tag_75:\n        /* \"#utility.yul\":1026:1089   */\n      swap2\n      pop\n        /* \"#utility.yul\":981:1099   */\n      pop\n        /* \"#utility.yul\":632:1106   */\n      swap3\n      pop\n      swap3\n      swap1\n      pop\n      jump\t// out\n        /* \"#utility.yul\":1112:1230   */\n    tag_76:\n        /* \"#utility.yul\":1199:1223   */\n      tag_78\n        /* \"#utility.yul\":1217:1222   */\n      dup2\n        /* \"#utility.yul\":1199:1223   */\n      tag_79\n      jump\t// in\n    tag_78:\n        /* \"#utility.yul\":1194:1197   */\n      dup3\n        /* \"#utility.yul\":1187:1224   */\n      mstore\n        /* \"#utility.yul\":1112:1230   */\n      pop\n      pop\n      jump\t// out\n        /* \"#utility.yul\":1236:1600   */\n    tag_80:\n        /* \"#utility.yul\":1324:1327   */\n      0x00\n        /* \"#utility.yul\":1352:1391   */\n      tag_82\n        /* \"#utility.yul\":1385:1390   */\n      dup3\n        /* \"#utility.yul\":1352:1391   */\n      tag_83\n      jump\t// in\n    tag_82:\n        /* \"#utility.yul\":1407:1478   */\n      tag_84\n        /* \"#utility.yul\":1471:1477   */\n      dup2\n        /* \"#utility.yul\":1466:1469   */\n      dup6\n        /* \"#utility.yul\":1407:1478   */\n      tag_85\n      jump\t// in\n    tag_84:\n        /* \"#utility.yul\":1400:1478   */\n      swap4\n      pop\n        /* \"#utility.yul\":1487:1539   */\n      tag_86\n        /* \"#utility.yul\":1532:1538   */\n      dup2\n        /* \"#utility.yul\":1527:1530   */\n      dup6\n        /* \"#utility.yul\":1520:1524   */\n      0x20\n        /* \"#utility.yul\":1513:1518   */\n      dup7\n        /* \"#utility.yul\":1509:1525   */\n      add\n        /* \"#utility.yul\":1487:1539   */\n      tag_87\n      jump\t// in\n    tag_86:\n        /* \"#utility.yul\":1564:1593   */\n      tag_88\n        /* \"#utility.yul\":1586:1592   */\n      dup2\n        /* \"#utility.yul\":1564:1593   */\n      tag_89\n      jump\t// in\n    tag_88:\n        /* \"#utility.yul\":1559:1562   */\n      dup5\n        /* \"#utility.yul\":1555:1594   */\n      add\n        /* \"#utility.yul\":1548:1594   */\n      swap2\n      pop\n        /* \"#utility.yul\":1328:1600   */\n      pop\n        /* \"#utility.yul\":1236:1600   */\n      swap3\n      swap2\n      pop\n      pop\n      jump\t// out\n        /* \"#utility.yul\":1606:1724   */\n    tag_90:\n        /* \"#utility.yul\":1693:1717   */\n      tag_92\n        /* \"#utility.yul\":1711:1716   */\n      dup2\n        /* \"#utility.yul\":1693:1717   */\n      tag_93\n      jump\t// in\n    tag_92:\n        /* \"#utility.yul\":1688:1691   */\n      dup3\n        /* \"#utility.yul\":1681:1718   */\n      mstore\n        /* \"#utility.yul\":1606:1724   */\n      pop\n      pop\n      jump\t// out\n        /* \"#utility.yul\":1730:1952   */\n    tag_19:\n        /* \"#utility.yul\":1823:1827   */\n      0x00\n        /* \"#utility.yul\":1861:1863   */\n      0x20\n        /* \"#utility.yul\":1850:1859   */\n      dup3\n        /* \"#utility.yul\":1846:1864   */\n      add\n        /* \"#utility.yul\":1838:1864   */\n      swap1\n      pop\n        /* \"#utility.yul\":1874:1945   */\n      tag_95\n        /* \"#utility.yul\":1942:1943   */\n      0x00\n        /* \"#utility.yul\":1931:1940   */\n      dup4\n        /* \"#utility.yul\":1927:1944   */\n      add\n        /* \"#utility.yul\":1918:1924   */\n      dup5\n        /* \"#utility.yul\":1874:1945   */\n      tag_76\n      jump\t// in\n    tag_95:\n        /* \"#utility.yul\":1730:1952   */\n      swap3\n      swap2\n      pop\n      pop\n      jump\t// out\n        /* \"#utility.yul\":1958:2271   */\n    tag_15:\n        /* \"#utility.yul\":2071:2075   */\n      0x00\n        /* \"#utility.yul\":2109:2111   */\n      0x20\n        /* \"#utility.yul\":2098:2107   */\n      dup3\n        /* \"#utility.yul\":2094:2112   */\n      add\n        /* \"#utility.yul\":2086:2112   */\n      swap1\n      pop\n        /* \"#utility.yul\":2158:2167   */\n      dup2\n        /* \"#utility.yul\":2152:2156   */\n      dup2\n        /* \"#utility.yul\":2148:2168   */\n      sub\n        /* \"#utility.yul\":2144:2145   */\n      0x00\n        /* \"#utility.yul\":2133:2142   */\n      dup4\n        /* \"#utility.yul\":2129:2146   */\n      add\n        /* \"#utility.yul\":2122:2169   */\n      mstore\n        /* \"#utility.yul\":2186:2264   */\n      tag_97\n        /* \"#utility.yul\":2259:2263   */\n      dup2\n        /* \"#utility.yul\":2250:2256   */\n      dup5\n        /* \"#utility.yul\":2186:2264   */\n      tag_80\n      jump\t// in\n    tag_97:\n        /* \"#utility.yul\":2178:2264   */\n      swap1\n      pop\n        /* \"#utility.yul\":1958:2271   */\n      swap3\n      swap2\n      pop\n      pop\n      jump\t// out\n        /* \"#utility.yul\":2277:2499   */\n    tag_23:\n        /* \"#utility.yul\":2370:2374   */\n      0x00\n        /* \"#utility.yul\":2408:2410   */\n      0x20\n        /* \"#utility.yul\":2397:2406   */\n      dup3\n        /* \"#utility.yul\":2393:2411   */\n      add\n        /* \"#utility.yul\":2385:2411   */\n      swap1\n      pop\n        /* \"#utility.yul\":2421:2492   */\n      tag_99\n        /* \"#utility.yul\":2489:2490   */\n      0x00\n        /* \"#utility.yul\":2478:2487   */\n      dup4\n        /* \"#utility.yul\":2474:2491   */\n      add\n        /* \"#utility.yul\":2465:2471   */\n      dup5\n        /* \"#utility.yul\":2421:2492   */\n      tag_90\n      jump\t// in\n    tag_99:\n        /* \"#utility.yul\":2277:2499   */\n      swap3\n      swap2\n      pop\n      pop\n      jump\t// out\n        /* \"#utility.yul\":2586:2685   */\n    tag_83:\n        /* \"#utility.yul\":2638:2644   */\n      0x00\n        /* \"#utility.yul\":2672:2677   */\n      dup2\n        /* \"#utility.yul\":2666:2678   */\n      mload\n        /* \"#utility.yul\":2656:2678   */\n      swap1\n      pop\n        /* \"#utility.yul\":2586:2685   */\n      swap2\n      swap1\n      pop\n      jump\t// out\n        /* \"#utility.yul\":2691:2860   */\n    tag_85:\n        /* \"#utility.yul\":2775:2786   */\n      0x00\n        /* \"#utility.yul\":2809:2815   */\n      dup3\n        /* \"#utility.yul\":2804:2807   */\n      dup3\n        /* \"#utility.yul\":2797:2816   */\n      mstore\n        /* \"#utility.yul\":2849:2853   */\n      0x20\n        /* \"#utility.yul\":2844:2847   */\n      dup3\n        /* \"#utility.yul\":2840:2854   */\n      add\n        /* \"#utility.yul\":2825:2854   */\n      swap1\n      pop\n        /* \"#utility.yul\":2691:2860   */\n      swap3\n      swap2\n      pop\n      pop\n      jump\t// out\n        /* \"#utility.yul\":2866:3171   */\n    tag_50:\n        /* \"#utility.yul\":2906:2909   */\n      0x00\n        /* \"#utility.yul\":2925:2945   */\n      tag_105\n        /* \"#utility.yul\":2943:2944   */\n      dup3\n        /* \"#utility.yul\":2925:2945   */\n      tag_93\n      jump\t// in\n    tag_105:\n        /* \"#utility.yul\":2920:2945   */\n      swap2\n      pop\n        /* \"#utility.yul\":2959:2979   */\n      tag_106\n        /* \"#utility.yul\":2977:2978   */\n      dup4\n        /* \"#utility.yul\":2959:2979   */\n      tag_93\n      jump\t// in\n    tag_106:\n        /* \"#utility.yul\":2954:2979   */\n      swap3\n      pop\n        /* \"#utility.yul\":3113:3114   */\n      dup3\n        /* \"#utility.yul\":3045:3111   */\n      0xffffffffffffffffffffffffffffffffffffffffffffffffffffffffffffffff\n        /* \"#utility.yul\":3041:3115   */\n      sub\n        /* \"#utility.yul\":3038:3039   */\n      dup3\n        /* \"#utility.yul\":3035:3116   */\n      gt\n        /* \"#utility.yul\":3032:3139   */\n      iszero\n      tag_107\n      jumpi\n        /* \"#utility.yul\":3119:3137   */\n      tag_108\n      tag_109\n      jump\t// in\n    tag_108:\n        /* \"#utility.yul\":3032:3139   */\n    tag_107:\n        /* \"#utility.yul\":3163:3164   */\n      dup3\n        /* \"#utility.yul\":3160:3161   */\n      dup3\n        /* \"#utility.yul\":3156:3165   */\n      add\n        /* \"#utility.yul\":3149:3165   */\n      swap1\n      pop\n        /* \"#utility.yul\":2866:3171   */\n      swap3\n      swap2\n      pop\n      pop\n      jump\t// out\n        /* \"#utility.yul\":3177:3273   */\n    tag_79:\n        /* \"#utility.yul\":3214:3221   */\n      0x00\n        /* \"#utility.yul\":3243:3267   */\n      tag_111\n        /* \"#utility.yul\":3261:3266   */\n      dup3\n        /* \"#utility.yul\":3243:3267   */\n      tag_112\n      jump\t// in\n    tag_111:\n        /* \"#utility.yul\":3232:3267   */\n      swap1\n      pop\n        /* \"#utility.yul\":3177:3273   */\n      swap2\n      swap1\n      pop\n      jump\t// out\n        /* \"#utility.yul\":3279:3405   */\n    tag_112:\n        /* \"#utility.yul\":3316:3323   */\n      0x00\n        /* \"#utility.yul\":3356:3398   */\n      0xffffffffffffffffffffffffffffffffffffffff\n        /* \"#utility.yul\":3349:3354   */\n      dup3\n        /* \"#utility.yul\":3345:3399   */\n      and\n        /* \"#utility.yul\":3334:3399   */\n      swap1\n      pop\n        /* \"#utility.yul\":3279:3405   */\n      swap2\n      swap1\n      pop\n      jump\t// out\n        /* \"#utility.yul\":3411:3488   */\n    tag_93:\n        /* \"#utility.yul\":3448:3455   */\n      0x00\n        /* \"#utility.yul\":3477:3482   */\n      dup2\n        /* \"#utility.yul\":3466:3482   */\n      swap1\n      pop\n        /* \"#utility.yul\":3411:3488   */\n      swap2\n      swap1\n      pop\n      jump\t// out\n        /* \"#utility.yul\":3494:3801   */\n    tag_87:\n        /* \"#utility.yul\":3562:3563   */\n      0x00\n        /* \"#utility.yul\":3572:3685   */\n    tag_116:\n        /* \"#utility.yul\":3586:3592   */\n      dup4\n        /* \"#utility.yul\":3583:3584   */\n      dup2\n        /* \"#utility.yul\":3580:3593   */\n      lt\n        /* \"#utility.yul\":3572:3685   */\n      iszero\n      tag_118\n      jumpi\n        /* \"#utility.yul\":3671:3672   */\n      dup1\n        /* \"#utility.yul\":3666:3669   */\n      dup3\n        /* \"#utility.yul\":3662:3673   */\n      add\n        /* \"#utility.yul\":3656:3674   */\n      mload\n        /* \"#utility.yul\":3652:3653   */\n      dup2\n        /* \"#utility.yul\":3647:3650   */\n      dup5\n        /* \"#utility.yul\":3643:3654   */\n      add\n        /* \"#utility.yul\":3636:3675   */\n      mstore\n        /* \"#utility.yul\":3608:3610   */\n      0x20\n        /* \"#utility.yul\":3605:3606   */\n      dup2\n        /* \"#utility.yul\":3601:3611   */\n      add\n        /* \"#utility.yul\":3596:3611   */\n      swap1\n      pop\n        /* \"#utility.yul\":3572:3685   */\n      jump(tag_116)\n    tag_118:\n        /* \"#utility.yul\":3703:3709   */\n      dup4\n        /* \"#utility.yul\":3700:3701   */\n      dup2\n        /* \"#utility.yul\":3697:3710   */\n      gt\n        /* \"#utility.yul\":3694:3795   */\n      iszero\n      tag_119\n      jumpi\n        /* \"#utility.yul\":3783:3784   */\n      0x00\n        /* \"#utility.yul\":3774:3780   */\n      dup5\n        /* \"#utility.yul\":3769:3772   */\n      dup5\n        /* \"#utility.yul\":3765:3781   */\n      add\n        /* \"#utility.yul\":3758:3785   */\n      mstore\n        /* \"#utility.yul\":3694:3795   */\n    tag_119:\n        /* \"#utility.yul\":3543:3801   */\n      pop\n        /* \"#utility.yul\":3494:3801   */\n      pop\n      pop\n      pop\n      jump\t// out\n        /* \"#utility.yul\":3807:4127   */\n    tag_42:\n        /* \"#utility.yul\":3851:3857   */\n      0x00\n        /* \"#utility.yul\":3888:3889   */\n      0x02\n        /* \"#utility.yul\":3882:3886   */\n      dup3\n        /* \"#utility.yul\":3878:3890   */\n      div\n        /* \"#utility.yul\":3868:3890   */\n      swap1\n      pop\n        /* \"#utility.yul\":3935:3936   */\n      0x01\n        /* \"#utility.yul\":3929:3933   */\n      dup3\n        /* \"#utility.yul\":3925:3937   */\n      and\n        /* \"#utility.yul\":3956:3974   */\n      dup1\n        /* \"#utility.yul\":3946:4027   */\n      tag_121\n      jumpi\n        /* \"#utility.yul\":4012:4016   */\n      0x7f\n        /* \"#utility.yul\":4004:4010   */\n      dup3\n        /* \"#utility.yul\":4000:4017   */\n      and\n        /* \"#utility.yul\":3990:4017   */\n      swap2\n      pop\n        /* \"#utility.yul\":3946:4027   */\n    tag_121:\n        /* \"#utility.yul\":4074:4076   */\n      0x20\n        /* \"#utility.yul\":4066:4072   */\n      dup3\n        /* \"#utility.yul\":4063:4077   */\n      lt\n        /* \"#utility.yul\":4043:4061   */\n      dup2\n        /* \"#utility.yul\":4040:4078   */\n      eq\n        /* \"#utility.yul\":4037:4121   */\n      iszero\n      tag_122\n      jumpi\n        /* \"#utility.yul\":4093:4111   */\n      tag_123\n      tag_124\n      jump\t// in\n    tag_123:\n        /* \"#utility.yul\":4037:4121   */\n    tag_122:\n        /* \"#utility.yul\":3858:4127   */\n      pop\n        /* \"#utility.yul\":3807:4127   */\n      swap2\n      swap1\n      pop\n      jump\t// out\n        /* \"#utility.yul\":4133:4313   */\n    tag_109:\n        /* \"#utility.yul\":4181:4258   */\n      0x4e487b7100000000000000000000000000000000000000000000000000000000\n        /* \"#utility.yul\":4178:4179   */\n      0x00\n        /* \"#utility.yul\":4171:4259   */\n      mstore\n        /* \"#utility.yul\":4278:4282   */\n      0x11\n        /* \"#utility.yul\":4275:4276   */\n      0x04\n        /* \"#utility.yul\":4268:4283   */\n      mstore\n        /* \"#utility.yul\":4302:4306   */\n      0x24\n        /* \"#utility.yul\":4299:4300   */\n      0x00\n        /* \"#utility.yul\":4292:4307   */\n      revert\n        /* \"#utility.yul\":4319:4499   */\n    tag_124:\n        /* \"#utility.yul\":4367:4444   */\n      0x4e487b7100000000000000000000000000000000000000000000000000000000\n        /* \"#utility.yul\":4364:4365   */\n      0x00\n        /* \"#utility.yul\":4357:4445   */\n      mstore\n        /* \"#utility.yul\":4464:4468   */\n      0x22\n        /* \"#utility.yul\":4461:4462   */\n      0x04\n        /* \"#utility.yul\":4454:4469   */\n      mstore\n        /* \"#utility.yul\":4488:4492   */\n      0x24\n        /* \"#utility.yul\":4485:4486   */\n      0x00\n        /* \"#utility.yul\":4478:4493   */\n      revert\n        /* \"#utility.yul\":4628:4745   */\n    tag_69:\n        /* \"#utility.yul\":4737:4738   */\n      0x00\n        /* \"#utility.yul\":4734:4735   */\n      dup1\n        /* \"#utility.yul\":4727:4739   */\n      revert\n        /* \"#utility.yul\":4751:4853   */\n    tag_89:\n        /* \"#utility.yul\":4792:4798   */\n      0x00\n        /* \"#utility.yul\":4843:4845   */\n      0x1f\n        /* \"#utility.yul\":4839:4846   */\n      not\n        /* \"#utility.yul\":4834:4836   */\n      0x1f\n        /* \"#utility.yul\":4827:4832   */\n      dup4\n        /* \"#utility.yul\":4823:4837   */\n      add\n        /* \"#utility.yul\":4819:4847   */\n      and\n        /* \"#utility.yul\":4809:4847   */\n      swap1\n      pop\n        /* \"#utility.yul\":4751:4853   */\n      swap2\n      swap1\n      pop\n      jump\t// out\n        /* \"#utility.yul\":4859:4981   */\n    tag_61:\n        /* \"#utility.yul\":4932:4956   */\n      tag_132\n        /* \"#utility.yul\":4950:4955   */\n      dup2\n        /* \"#utility.yul\":4932:4956   */\n      tag_79\n      jump\t// in\n    tag_132:\n        /* \"#utility.yul\":4925:4930   */\n      dup2\n        /* \"#utility.yul\":4922:4957   */\n      eq\n        /* \"#utility.yul\":4912:4975   */\n      tag_133\n      jumpi\n        /* \"#utility.yul\":4971:4972   */\n      0x00\n        /* \"#utility.yul\":4968:4969   */\n      dup1\n        /* \"#utility.yul\":4961:4973   */\n      revert\n        /* \"#utility.yul\":4912:4975   */\n    tag_133:\n        /* \"#utility.yul\":4859:4981   */\n      pop\n      jump\t// out\n        /* \"#utility.yul\":4987:5109   */\n    tag_65:\n        /* \"#utility.yul\":5060:5084   */\n      tag_135\n        /* \"#utility.yul\":5078:5083   */\n      dup2\n        /* \"#utility.yul\":5060:5084   */\n      tag_93\n      jump\t// in\n    tag_135:\n        /* \"#utility.yul\":5053:5058   */\n      dup2\n        /* \"#utility.yul\":5050:5085   */\n      eq\n        /* \"#utility.yul\":5040:5103   */\n      tag_136\n      jumpi\n        /* \"#utility.yul\":5099:5100   */\n      0x00\n        /* \"#utility.yul\":5096:5097   */\n      dup1\n        /* \"#utility.yul\":5089:5101   */\n      revert\n        /* \"#utility.yul\":5040:5103   */\n    tag_136:\n        /* \"#utility.yul\":4987:5109   */\n      pop\n      jump\t// out\n\n    auxdata: 0xa26469706673582212202046c1c035330d75e9b5e0ec93402d4d6776474438e8fe52e7cceb73fc0ad5d264736f6c63430008070033\n}\n",
				"bytecode": {
					"linkReferences": {},
					"object": "60806040526040518060400160405280600881526020017f736f6c69646974790000000000000000000000000000000000000000000000008152506000908051906020019061004f9291906100bb565b506040518060400160405280600381526020017f534f4c00000000000000000000000000000000000000000000000000000000008152506001908051906020019061009b9291906100bb565b506012600255630c8458806003553480156100b557600080fd5b506101bf565b8280546100c79061015e565b90600052602060002090601f0160209004810192826100e95760008555610130565b82601f1061010257805160ff1916838001178555610130565b82800160010185558215610130579182015b8281111561012f578251825591602001919060010190610114565b5b50905061013d9190610141565b5090565b5b8082111561015a576000816000905550600101610142565b5090565b6000600282049050600182168061017657607f821691505b6020821081141561018a57610189610190565b5b50919050565b7f4e487b7100000000000000000000000000000000000000000000000000000000600052602260045260246000fd5b610709806101ce6000396000f3fe608060405234801561001057600080fd5b50600436106100885760003560e01c806376809ce31161005b57806376809ce3146101035780638da5cb5b1461012157806395d89b411461012b578063e3d670d71461014957610088565b806306fdde031461008d57806307546172146100ab57806318160ddd146100c957806340c10f19146100e7575b600080fd5b610095610179565b6040516100a291906104e1565b60405180910390f35b6100b3610207565b6040516100c091906104c6565b60405180910390f35b6100d161022d565b6040516100de9190610503565b60405180910390f35b61010160048036038101906100fc919061042f565b610233565b005b61010b6102e9565b6040516101189190610503565b60405180910390f35b6101296102ef565b005b610133610332565b60405161014091906104e1565b60405180910390f35b610163600480360381019061015e9190610402565b6103c0565b6040516101709190610503565b60405180910390f35b60008054610186906105ff565b80601f01602080910402602001604051908101604052809291908181526020018280546101b2906105ff565b80156101ff5780601f106101d4576101008083540402835291602001916101ff565b820191906000526020600020905b8154815290600101906020018083116101e257829003601f168201915b505050505081565b600460009054906101000a900473ffffffffffffffffffffffffffffffffffffffff1681565b60035481565b600460009054906101000a900473ffffffffffffffffffffffffffffffffffffffff1673ffffffffffffffffffffffffffffffffffffffff163373ffffffffffffffffffffffffffffffffffffffff16141561028e576102e5565b80600560008473ffffffffffffffffffffffffffffffffffffffff1673ffffffffffffffffffffffffffffffffffffffff16815260200190815260200160002060008282546102dd919061053a565b925050819055505b5050565b60025481565b33600460006101000a81548173ffffffffffffffffffffffffffffffffffffffff021916908373ffffffffffffffffffffffffffffffffffffffff160217905550565b6001805461033f906105ff565b80601f016020809104026020016040519081016040528092919081815260200182805461036b906105ff565b80156103b85780601f1061038d576101008083540402835291602001916103b8565b820191906000526020600020905b81548152906001019060200180831161039b57829003601f168201915b505050505081565b60056020528060005260406000206000915090505481565b6000813590506103e7816106a5565b92915050565b6000813590506103fc816106bc565b92915050565b6000602082840312156104185761041761068f565b5b6000610426848285016103d8565b91505092915050565b600080604083850312156104465761044561068f565b5b6000610454858286016103d8565b9250506020610465858286016103ed565b9150509250929050565b61047881610590565b82525050565b60006104898261051e565b6104938185610529565b93506104a38185602086016105cc565b6104ac81610694565b840191505092915050565b6104c0816105c2565b82525050565b60006020820190506104db600083018461046f565b92915050565b600060208201905081810360008301526104fb818461047e565b905092915050565b600060208201905061051860008301846104b7565b92915050565b600081519050919050565b600082825260208201905092915050565b6000610545826105c2565b9150610550836105c2565b9250827fffffffffffffffffffffffffffffffffffffffffffffffffffffffffffffffff0382111561058557610584610631565b5b828201905092915050565b600061059b826105a2565b9050919050565b600073ffffffffffffffffffffffffffffffffffffffff82169050919050565b6000819050919050565b60005b838110156105ea5780820151818401526020810190506105cf565b838111156105f9576000848401525b50505050565b6000600282049050600182168061061757607f821691505b6020821081141561062b5761062a610660565b5b50919050565b7f4e487b7100000000000000000000000000000000000000000000000000000000600052601160045260246000fd5b7f4e487b7100000000000000000000000000000000000000000000000000000000600052602260045260246000fd5b600080fd5b6000601f19601f8301169050919050565b6106ae81610590565b81146106b957600080fd5b50565b6106c5816105c2565b81146106d057600080fd5b5056fea26469706673582212202046c1c035330d75e9b5e0ec93402d4d6776474438e8fe52e7cceb73fc0ad5d264736f6c63430008070033",
					"opcodes": "PUSH1 0x80 PUSH1 0x40 MSTORE PUSH1 0x40 MLOAD DUP1 PUSH1 0x40 ADD PUSH1 0x40 MSTORE DUP1 PUSH1 0x8 DUP2 MSTORE PUSH1 0x20 ADD PUSH32 0x736F6C6964697479000000000000000000000000000000000000000000000000 DUP2 MSTORE POP PUSH1 0x0 SWAP1 DUP1 MLOAD SWAP1 PUSH1 0x20 ADD SWAP1 PUSH2 0x4F SWAP3 SWAP2 SWAP1 PUSH2 0xBB JUMP JUMPDEST POP PUSH1 0x40 MLOAD DUP1 PUSH1 0x40 ADD PUSH1 0x40 MSTORE DUP1 PUSH1 0x3 DUP2 MSTORE PUSH1 0x20 ADD PUSH32 0x534F4C0000000000000000000000000000000000000000000000000000000000 DUP2 MSTORE POP PUSH1 0x1 SWAP1 DUP1 MLOAD SWAP1 PUSH1 0x20 ADD SWAP1 PUSH2 0x9B SWAP3 SWAP2 SWAP1 PUSH2 0xBB JUMP JUMPDEST POP PUSH1 0x12 PUSH1 0x2 SSTORE PUSH4 0xC845880 PUSH1 0x3 SSTORE CALLVALUE DUP1 ISZERO PUSH2 0xB5 JUMPI PUSH1 0x0 DUP1 REVERT JUMPDEST POP PUSH2 0x1BF JUMP JUMPDEST DUP3 DUP1 SLOAD PUSH2 0xC7 SWAP1 PUSH2 0x15E JUMP JUMPDEST SWAP1 PUSH1 0x0 MSTORE PUSH1 0x20 PUSH1 0x0 KECCAK256 SWAP1 PUSH1 0x1F ADD PUSH1 0x20 SWAP1 DIV DUP2 ADD SWAP3 DUP3 PUSH2 0xE9 JUMPI PUSH1 0x0 DUP6 SSTORE PUSH2 0x130 JUMP JUMPDEST DUP3 PUSH1 0x1F LT PUSH2 0x102 JUMPI DUP1 MLOAD PUSH1 0xFF NOT AND DUP4 DUP1 ADD OR DUP6 SSTORE PUSH2 0x130 JUMP JUMPDEST DUP3 DUP1 ADD PUSH1 0x1 ADD DUP6 SSTORE DUP3 ISZERO PUSH2 0x130 JUMPI SWAP2 DUP3 ADD JUMPDEST DUP3 DUP2 GT ISZERO PUSH2 0x12F JUMPI DUP3 MLOAD DUP3 SSTORE SWAP2 PUSH1 0x20 ADD SWAP2 SWAP1 PUSH1 0x1 ADD SWAP1 PUSH2 0x114 JUMP JUMPDEST JUMPDEST POP SWAP1 POP PUSH2 0x13D SWAP2 SWAP1 PUSH2 0x141 JUMP JUMPDEST POP SWAP1 JUMP JUMPDEST JUMPDEST DUP1 DUP3 GT ISZERO PUSH2 0x15A JUMPI PUSH1 0x0 DUP2 PUSH1 0x0 SWAP1 SSTORE POP PUSH1 0x1 ADD PUSH2 0x142 JUMP JUMPDEST POP SWAP1 JUMP JUMPDEST PUSH1 0x0 PUSH1 0x2 DUP3 DIV SWAP1 POP PUSH1 0x1 DUP3 AND DUP1 PUSH2 0x176 JUMPI PUSH1 0x7F DUP3 AND SWAP2 POP JUMPDEST PUSH1 0x20 DUP3 LT DUP2 EQ ISZERO PUSH2 0x18A JUMPI PUSH2 0x189 PUSH2 0x190 JUMP JUMPDEST JUMPDEST POP SWAP2 SWAP1 POP JUMP JUMPDEST PUSH32 0x4E487B7100000000000000000000000000000000000000000000000000000000 PUSH1 0x0 MSTORE PUSH1 0x22 PUSH1 0x4 MSTORE PUSH1 0x24 PUSH1 0x0 REVERT JUMPDEST PUSH2 0x709 DUP1 PUSH2 0x1CE PUSH1 0x0 CODECOPY PUSH1 0x0 RETURN INVALID PUSH1 0x80 PUSH1 0x40 MSTORE CALLVALUE DUP1 ISZERO PUSH2 0x10 JUMPI PUSH1 0x0 DUP1 REVERT JUMPDEST POP PUSH1 0x4 CALLDATASIZE LT PUSH2 0x88 JUMPI PUSH1 0x0 CALLDATALOAD PUSH1 0xE0 SHR DUP1 PUSH4 0x76809CE3 GT PUSH2 0x5B JUMPI DUP1 PUSH4 0x76809CE3 EQ PUSH2 0x103 JUMPI DUP1 PUSH4 0x8DA5CB5B EQ PUSH2 0x121 JUMPI DUP1 PUSH4 0x95D89B41 EQ PUSH2 0x12B JUMPI DUP1 PUSH4 0xE3D670D7 EQ PUSH2 0x149 JUMPI PUSH2 0x88 JUMP JUMPDEST DUP1 PUSH4 0x6FDDE03 EQ PUSH2 0x8D JUMPI DUP1 PUSH4 0x7546172 EQ PUSH2 0xAB JUMPI DUP1 PUSH4 0x18160DDD EQ PUSH2 0xC9 JUMPI DUP1 PUSH4 0x40C10F19 EQ PUSH2 0xE7 JUMPI JUMPDEST PUSH1 0x0 DUP1 REVERT JUMPDEST PUSH2 0x95 PUSH2 0x179 JUMP JUMPDEST PUSH1 0x40 MLOAD PUSH2 0xA2 SWAP2 SWAP1 PUSH2 0x4E1 JUMP JUMPDEST PUSH1 0x40 MLOAD DUP1 SWAP2 SUB SWAP1 RETURN JUMPDEST PUSH2 0xB3 PUSH2 0x207 JUMP JUMPDEST PUSH1 0x40 MLOAD PUSH2 0xC0 SWAP2 SWAP1 PUSH2 0x4C6 JUMP JUMPDEST PUSH1 0x40 MLOAD DUP1 SWAP2 SUB SWAP1 RETURN JUMPDEST PUSH2 0xD1 PUSH2 0x22D JUMP JUMPDEST PUSH1 0x40 MLOAD PUSH2 0xDE SWAP2 SWAP1 PUSH2 0x503 JUMP JUMPDEST PUSH1 0x40 MLOAD DUP1 SWAP2 SUB SWAP1 RETURN JUMPDEST PUSH2 0x101 PUSH1 0x4 DUP1 CALLDATASIZE SUB DUP2 ADD SWAP1 PUSH2 0xFC SWAP2 SWAP1 PUSH2 0x42F JUMP JUMPDEST PUSH2 0x233 JUMP JUMPDEST STOP JUMPDEST PUSH2 0x10B PUSH2 0x2E9 JUMP JUMPDEST PUSH1 0x40 MLOAD PUSH2 0x118 SWAP2 SWAP1 PUSH2 0x503 JUMP JUMPDEST PUSH1 0x40 MLOAD DUP1 SWAP2 SUB SWAP1 RETURN JUMPDEST PUSH2 0x129 PUSH2 0x2EF JUMP JUMPDEST STOP JUMPDEST PUSH2 0x133 PUSH2 0x332 JUMP JUMPDEST PUSH1 0x40 MLOAD PUSH2 0x140 SWAP2 SWAP1 PUSH2 0x4E1 JUMP JUMPDEST PUSH1 0x40 MLOAD DUP1 SWAP2 SUB SWAP1 RETURN JUMPDEST PUSH2 0x163 PUSH1 0x4 DUP1 CALLDATASIZE SUB DUP2 ADD SWAP1 PUSH2 0x15E SWAP2 SWAP1 PUSH2 0x402 JUMP JUMPDEST PUSH2 0x3C0 JUMP JUMPDEST PUSH1 0x40 MLOAD PUSH2 0x170 SWAP2 SWAP1 PUSH2 0x503 JUMP JUMPDEST PUSH1 0x40 MLOAD DUP1 SWAP2 SUB SWAP1 RETURN JUMPDEST PUSH1 0x0 DUP1 SLOAD PUSH2 0x186 SWAP1 PUSH2 0x5FF JUMP JUMPDEST DUP1 PUSH1 0x1F ADD PUSH1 0x20 DUP1 SWAP2 DIV MUL PUSH1 0x20 ADD PUSH1 0x40 MLOAD SWAP1 DUP2 ADD PUSH1 0x40 MSTORE DUP1 SWAP3 SWAP2 SWAP1 DUP2 DUP2 MSTORE PUSH1 0x20 ADD DUP3 DUP1 SLOAD PUSH2 0x1B2 SWAP1 PUSH2 0x5FF JUMP JUMPDEST DUP1 ISZERO PUSH2 0x1FF JUMPI DUP1 PUSH1 0x1F LT PUSH2 0x1D4 JUMPI PUSH2 0x100 DUP1 DUP4 SLOAD DIV MUL DUP4 MSTORE SWAP2 PUSH1 0x20 ADD SWAP2 PUSH2 0x1FF JUMP JUMPDEST DUP3 ADD SWAP2 SWAP1 PUSH1 0x0 MSTORE PUSH1 0x20 PUSH1 0x0 KECCAK256 SWAP1 JUMPDEST DUP2 SLOAD DUP2 MSTORE SWAP1 PUSH1 0x1 ADD SWAP1 PUSH1 0x20 ADD DUP1 DUP4 GT PUSH2 0x1E2 JUMPI DUP3 SWAP1 SUB PUSH1 0x1F AND DUP3 ADD SWAP2 JUMPDEST POP POP POP POP POP DUP2 JUMP JUMPDEST PUSH1 0x4 PUSH1 0x0 SWAP1 SLOAD SWAP1 PUSH2 0x100 EXP SWAP1 DIV PUSH20 0xFFFFFFFFFFFFFFFFFFFFFFFFFFFFFFFFFFFFFFFF AND DUP2 JUMP JUMPDEST PUSH1 0x3 SLOAD DUP2 JUMP JUMPDEST PUSH1 0x4 PUSH1 0x0 SWAP1 SLOAD SWAP1 PUSH2 0x100 EXP SWAP1 DIV PUSH20 0xFFFFFFFFFFFFFFFFFFFFFFFFFFFFFFFFFFFFFFFF AND PUSH20 0xFFFFFFFFFFFFFFFFFFFFFFFFFFFFFFFFFFFFFFFF AND CALLER PUSH20 0xFFFFFFFFFFFFFFFFFFFFFFFFFFFFFFFFFFFFFFFF AND EQ ISZERO PUSH2 0x28E JUMPI PUSH2 0x2E5 JUMP JUMPDEST DUP1 PUSH1 0x5 PUSH1 0x0 DUP5 PUSH20 0xFFFFFFFFFFFFFFFFFFFFFFFFFFFFFFFFFFFFFFFF AND PUSH20 0xFFFFFFFFFFFFFFFFFFFFFFFFFFFFFFFFFFFFFFFF AND DUP2 MSTORE PUSH1 0x20 ADD SWAP1 DUP2 MSTORE PUSH1 0x20 ADD PUSH1 0x0 KECCAK256 PUSH1 0x0 DUP3 DUP3 SLOAD PUSH2 0x2DD SWAP2 SWAP1 PUSH2 0x53A JUMP JUMPDEST SWAP3 POP POP DUP2 SWAP1 SSTORE POP JUMPDEST POP POP JUMP JUMPDEST PUSH1 0x2 SLOAD DUP2 JUMP JUMPDEST CALLER PUSH1 0x4 PUSH1 0x0 PUSH2 0x100 EXP DUP2 SLOAD DUP2 PUSH20 0xFFFFFFFFFFFFFFFFFFFFFFFFFFFFFFFFFFFFFFFF MUL NOT AND SWAP1 DUP4 PUSH20 0xFFFFFFFFFFFFFFFFFFFFFFFFFFFFFFFFFFFFFFFF AND MUL OR SWAP1 SSTORE POP JUMP JUMPDEST PUSH1 0x1 DUP1 SLOAD PUSH2 0x33F SWAP1 PUSH2 0x5FF JUMP JUMPDEST DUP1 PUSH1 0x1F ADD PUSH1 0x20 DUP1 SWAP2 DIV MUL PUSH1 0x20 ADD PUSH1 0x40 MLOAD SWAP1 DUP2 ADD PUSH1 0x40 MSTORE DUP1 SWAP3 SWAP2 SWAP1 DUP2 DUP2 MSTORE PUSH1 0x20 ADD DUP3 DUP1 SLOAD PUSH2 0x36B SWAP1 PUSH2 0x5FF JUMP JUMPDEST DUP1 ISZERO PUSH2 0x3B8 JUMPI DUP1 PUSH1 0x1F LT PUSH2 0x38D JUMPI PUSH2 0x100 DUP1 DUP4 SLOAD DIV MUL DUP4 MSTORE SWAP2 PUSH1 0x20 ADD SWAP2 PUSH2 0x3B8 JUMP JUMPDEST DUP3 ADD SWAP2 SWAP1 PUSH1 0x0 MSTORE PUSH1 0x20 PUSH1 0x0 KECCAK256 SWAP1 JUMPDEST DUP2 SLOAD DUP2 MSTORE SWAP1 PUSH1 0x1 ADD SWAP1 PUSH1 0x20 ADD DUP1 DUP4 GT PUSH2 0x39B JUMPI DUP3 SWAP1 SUB PUSH1 0x1F AND DUP3 ADD SWAP2 JUMPDEST POP POP POP POP POP DUP2 JUMP JUMPDEST PUSH1 0x5 PUSH1 0x20 MSTORE DUP1 PUSH1 0x0 MSTORE PUSH1 0x40 PUSH1 0x0 KECCAK256 PUSH1 0x0 SWAP2 POP SWAP1 POP SLOAD DUP2 JUMP JUMPDEST PUSH1 0x0 DUP2 CALLDATALOAD SWAP1 POP PUSH2 0x3E7 DUP2 PUSH2 0x6A5 JUMP JUMPDEST SWAP3 SWAP2 POP POP JUMP JUMPDEST PUSH1 0x0 DUP2 CALLDATALOAD SWAP1 POP PUSH2 0x3FC DUP2 PUSH2 0x6BC JUMP JUMPDEST SWAP3 SWAP2 POP POP JUMP JUMPDEST PUSH1 0x0 PUSH1 0x20 DUP3 DUP5 SUB SLT ISZERO PUSH2 0x418 JUMPI PUSH2 0x417 PUSH2 0x68F JUMP JUMPDEST JUMPDEST PUSH1 0x0 PUSH2 0x426 DUP5 DUP3 DUP6 ADD PUSH2 0x3D8 JUMP JUMPDEST SWAP2 POP POP SWAP3 SWAP2 POP POP JUMP JUMPDEST PUSH1 0x0 DUP1 PUSH1 0x40 DUP4 DUP6 SUB SLT ISZERO PUSH2 0x446 JUMPI PUSH2 0x445 PUSH2 0x68F JUMP JUMPDEST JUMPDEST PUSH1 0x0 PUSH2 0x454 DUP6 DUP3 DUP7 ADD PUSH2 0x3D8 JUMP JUMPDEST SWAP3 POP POP PUSH1 0x20 PUSH2 0x465 DUP6 DUP3 DUP7 ADD PUSH2 0x3ED JUMP JUMPDEST SWAP2 POP POP SWAP3 POP SWAP3 SWAP1 POP JUMP JUMPDEST PUSH2 0x478 DUP2 PUSH2 0x590 JUMP JUMPDEST DUP3 MSTORE POP POP JUMP JUMPDEST PUSH1 0x0 PUSH2 0x489 DUP3 PUSH2 0x51E JUMP JUMPDEST PUSH2 0x493 DUP2 DUP6 PUSH2 0x529 JUMP JUMPDEST SWAP4 POP PUSH2 0x4A3 DUP2 DUP6 PUSH1 0x20 DUP7 ADD PUSH2 0x5CC JUMP JUMPDEST PUSH2 0x4AC DUP2 PUSH2 0x694 JUMP JUMPDEST DUP5 ADD SWAP2 POP POP SWAP3 SWAP2 POP POP JUMP JUMPDEST PUSH2 0x4C0 DUP2 PUSH2 0x5C2 JUMP JUMPDEST DUP3 MSTORE POP POP JUMP JUMPDEST PUSH1 0x0 PUSH1 0x20 DUP3 ADD SWAP1 POP PUSH2 0x4DB PUSH1 0x0 DUP4 ADD DUP5 PUSH2 0x46F JUMP JUMPDEST SWAP3 SWAP2 POP POP JUMP JUMPDEST PUSH1 0x0 PUSH1 0x20 DUP3 ADD SWAP1 POP DUP2 DUP2 SUB PUSH1 0x0 DUP4 ADD MSTORE PUSH2 0x4FB DUP2 DUP5 PUSH2 0x47E JUMP JUMPDEST SWAP1 POP SWAP3 SWAP2 POP POP JUMP JUMPDEST PUSH1 0x0 PUSH1 0x20 DUP3 ADD SWAP1 POP PUSH2 0x518 PUSH1 0x0 DUP4 ADD DUP5 PUSH2 0x4B7 JUMP JUMPDEST SWAP3 SWAP2 POP POP JUMP JUMPDEST PUSH1 0x0 DUP2 MLOAD SWAP1 POP SWAP2 SWAP1 POP JUMP JUMPDEST PUSH1 0x0 DUP3 DUP3 MSTORE PUSH1 0x20 DUP3 ADD SWAP1 POP SWAP3 SWAP2 POP POP JUMP JUMPDEST PUSH1 0x0 PUSH2 0x545 DUP3 PUSH2 0x5C2 JUMP JUMPDEST SWAP2 POP PUSH2 0x550 DUP4 PUSH2 0x5C2 JUMP JUMPDEST SWAP3 POP DUP3 PUSH32 0xFFFFFFFFFFFFFFFFFFFFFFFFFFFFFFFFFFFFFFFFFFFFFFFFFFFFFFFFFFFFFFFF SUB DUP3 GT ISZERO PUSH2 0x585 JUMPI PUSH2 0x584 PUSH2 0x631 JUMP JUMPDEST JUMPDEST DUP3 DUP3 ADD SWAP1 POP SWAP3 SWAP2 POP POP JUMP JUMPDEST PUSH1 0x0 PUSH2 0x59B DUP3 PUSH2 0x5A2 JUMP JUMPDEST SWAP1 POP SWAP2 SWAP1 POP JUMP JUMPDEST PUSH1 0x0 PUSH20 0xFFFFFFFFFFFFFFFFFFFFFFFFFFFFFFFFFFFFFFFF DUP3 AND SWAP1 POP SWAP2 SWAP1 POP JUMP JUMPDEST PUSH1 0x0 DUP2 SWAP1 POP SWAP2 SWAP1 POP JUMP JUMPDEST PUSH1 0x0 JUMPDEST DUP4 DUP2 LT ISZERO PUSH2 0x5EA JUMPI DUP1 DUP3 ADD MLOAD DUP2 DUP5 ADD MSTORE PUSH1 0x20 DUP2 ADD SWAP1 POP PUSH2 0x5CF JUMP JUMPDEST DUP4 DUP2 GT ISZERO PUSH2 0x5F9 JUMPI PUSH1 0x0 DUP5 DUP5 ADD MSTORE JUMPDEST POP POP POP POP JUMP JUMPDEST PUSH1 0x0 PUSH1 0x2 DUP3 DIV SWAP1 POP PUSH1 0x1 DUP3 AND DUP1 PUSH2 0x617 JUMPI PUSH1 0x7F DUP3 AND SWAP2 POP JUMPDEST PUSH1 0x20 DUP3 LT DUP2 EQ ISZERO PUSH2 0x62B JUMPI PUSH2 0x62A PUSH2 0x660 JUMP JUMPDEST JUMPDEST POP SWAP2 SWAP1 POP JUMP JUMPDEST PUSH32 0x4E487B7100000000000000000000000000000000000000000000000000000000 PUSH1 0x0 MSTORE PUSH1 0x11 PUSH1 0x4 MSTORE PUSH1 0x24 PUSH1 0x0 REVERT JUMPDEST PUSH32 0x4E487B7100000000000000000000000000000000000000000000000000000000 PUSH1 0x0 MSTORE PUSH1 0x22 PUSH1 0x4 MSTORE PUSH1 0x24 PUSH1 0x0 REVERT JUMPDEST PUSH1 0x0 DUP1 REVERT JUMPDEST PUSH1 0x0 PUSH1 0x1F NOT PUSH1 0x1F DUP4 ADD AND SWAP1 POP SWAP2 SWAP1 POP JUMP JUMPDEST PUSH2 0x6AE DUP2 PUSH2 0x590 JUMP JUMPDEST DUP2 EQ PUSH2 0x6B9 JUMPI PUSH1 0x0 DUP1 REVERT JUMPDEST POP JUMP JUMPDEST PUSH2 0x6C5 DUP2 PUSH2 0x5C2 JUMP JUMPDEST DUP2 EQ PUSH2 0x6D0 JUMPI PUSH1 0x0 DUP1 REVERT JUMPDEST POP JUMP INVALID LOG2 PUSH5 0x6970667358 0x22 SLT KECCAK256 KECCAK256 CHAINID 0xC1 0xC0 CALLDATALOAD CALLER 0xD PUSH22 0xE9B5E0EC93402D4D6776474438E8FE52E7CCEB73FC0A 0xD5 0xD2 PUSH5 0x736F6C6343 STOP ADDMOD SMOD STOP CALLER "
				},
				"gasEstimates": {
					"creation": {
						"codeDepositCost": "360200",
						"executionCost": "infinite",
						"totalCost": "infinite"
					},
					"external": {
						"balance(address)": "2880",
						"decimal()": "2429",
						"mint(address,uint256)": "infinite",
						"minter()": "2537",
						"name()": "infinite",
						"owner()": "24432",
						"symbol()": "infinite",
						"totalSupply()": "2474"
					}
				},
				"methodIdentifiers": {
					"balance(address)": "e3d670d7",
					"decimal()": "76809ce3",
					"mint(address,uint256)": "40c10f19",
					"minter()": "07546172",
					"name()": "06fdde03",
					"owner()": "8da5cb5b",
					"symbol()": "95d89b41",
					"totalSupply()": "18160ddd"
				}
			},
			"storageLayout": {
				"storage": [
					{
						"astId": 4,
						"contract": "Token.sol:Token",
						"label": "name",
						"offset": 0,
						"slot": "0",
						"type": "t_string_storage"
					},
					{
						"astId": 7,
						"contract": "Token.sol:Token",
						"label": "symbol",
						"offset": 0,
						"slot": "1",
						"type": "t_string_storage"
					},
					{
						"astId": 10,
						"contract": "Token.sol:Token",
						"label": "decimal",
						"offset": 0,
						"slot": "2",
						"type": "t_uint256"
					},
					{
						"astId": 13,
						"contract": "Token.sol:Token",
						"label": "totalSupply",
						"offset": 0,
						"slot": "3",
						"type": "t_uint256"
					},
					{
						"astId": 15,
						"contract": "Token.sol:Token",
						"label": "minter",
						"offset": 0,
						"slot": "4",
						"type": "t_address"
					},
					{
						"astId": 19,
						"contract": "Token.sol:Token",
						"label": "balance",
						"offset": 0,
						"slot": "5",
						"type": "t_mapping(t_address,t_uint256)"
					}
				],
				"types": {
					"t_address": {
						"encoding": "inplace",
						"label": "address",
						"numberOfBytes": "20"
					},
					"t_mapping(t_address,t_uint256)": {
						"encoding": "mapping",
						"key": "t_address",
						"label": "mapping(address => uint256)",
						"numberOfBytes": "32",
						"value": "t_uint256"
					},
					"t_string_storage": {
						"encoding": "bytes",
						"label": "string",
						"numberOfBytes": "32"
					},
					"t_uint256": {
						"encoding": "inplace",
						"label": "uint256",
						"numberOfBytes": "32"
					}
				}
			},
			"userdoc": {
				"kind": "user",
				"methods": {},
				"version": 1
			}
		}
	}
}