{
	"Token.sol": {
		"Token": {
			"abi": [
				{
					"inputs": [
						{
							"internalType": "address",
							"name": "_minter",
							"type": "address"
						}
					],
					"stateMutability": "nonpayable",
					"type": "constructor"
				},
				{
					"inputs": [
						{
							"internalType": "address",
							"name": "",
							"type": "address"
						}
					],
					"name": "balance",
					"outputs": [
						{
							"internalType": "uint256",
							"name": "",
							"type": "uint256"
						}
					],
					"stateMutability": "view",
					"type": "function"
				},
				{
					"inputs": [],
					"name": "decimal",
					"outputs": [
						{
							"internalType": "uint256",
							"name": "",
							"type": "uint256"
						}
					],
					"stateMutability": "view",
					"type": "function"
				},
				{
					"inputs": [
						{
							"internalType": "address",
							"name": "receiver",
							"type": "address"
						},
						{
							"internalType": "uint256",
							"name": "amount",
							"type": "uint256"
						}
					],
					"name": "mint",
					"outputs": [],
					"stateMutability": "nonpayable",
					"type": "function"
				},
				{
					"inputs": [],
					"name": "minter",
					"outputs": [
						{
							"internalType": "address",
							"name": "",
							"type": "address"
						}
					],
					"stateMutability": "view",
					"type": "function"
				},
				{
					"inputs": [],
					"name": "name",
					"outputs": [
						{
							"internalType": "string",
							"name": "",
							"type": "string"
						}
					],
					"stateMutability": "view",
					"type": "function"
				},
				{
					"inputs": [
						{
							"internalType": "address",
							"name": "get",
							"type": "address"
						},
						{
							"internalType": "uint256",
							"name": "amount",
							"type": "uint256"
						}
					],
					"name": "sendnum",
					"outputs": [],
					"stateMutability": "payable",
					"type": "function"
				},
				{
					"inputs": [],
					"name": "symbol",
					"outputs": [
						{
							"internalType": "string",
							"name": "",
							"type": "string"
						}
					],
					"stateMutability": "view",
					"type": "function"
				},
				{
					"inputs": [],
					"name": "totalSupply",
					"outputs": [
						{
							"internalType": "uint256",
							"name": "",
							"type": "uint256"
						}
					],
					"stateMutability": "view",
					"type": "function"
				}
			],
			"devdoc": {
				"kind": "dev",
				"methods": {},
				"version": 1
			},
			"evm": {
				"assembly": "    /* \"Token.sol\":62:836  contract Token {... */\n  mstore(0x40, 0x80)\n    /* \"Token.sol\":83:114  string public name = \"solidity\" */\n  mload(0x40)\n  dup1\n  0x40\n  add\n  0x40\n  mstore\n  dup1\n  0x08\n  dup2\n  mstore\n  0x20\n  add\n  0x736f6c6964697479000000000000000000000000000000000000000000000000\n  dup2\n  mstore\n  pop\n  0x00\n  swap1\n  dup1\n  mload\n  swap1\n  0x20\n  add\n  swap1\n  tag_1\n  swap3\n  swap2\n  swap1\n  tag_2\n  jump\t// in\ntag_1:\n  pop\n    /* \"Token.sol\":120:148  string public symbol = \"SOL\" */\n  mload(0x40)\n  dup1\n  0x40\n  add\n  0x40\n  mstore\n  dup1\n  0x03\n  dup2\n  mstore\n  0x20\n  add\n  0x534f4c0000000000000000000000000000000000000000000000000000000000\n  dup2\n  mstore\n  pop\n  0x01\n  swap1\n  dup1\n  mload\n  swap1\n  0x20\n  add\n  swap1\n  tag_3\n  swap3\n  swap2\n  swap1\n  tag_2\n  jump\t// in\ntag_3:\n  pop\n    /* \"Token.sol\":179:181  18 */\n  0x12\n    /* \"Token.sol\":154:181  uint256 public decimal = 18 */\n  0x02\n  sstore\n    /* \"Token.sol\":216:225  210000000 */\n  0x0c845880\n    /* \"Token.sol\":187:225  uint256 public totalSupply = 210000000 */\n  0x03\n  sstore\n    /* \"Token.sol\":346:413  constructor(address _minter)public{... */\n  callvalue\n  dup1\n  iszero\n  tag_4\n  jumpi\n  0x00\n  dup1\n  revert\ntag_4:\n  pop\n  mload(0x40)\n  sub(codesize, bytecodeSize)\n  dup1\n  bytecodeSize\n  dup4\n  codecopy\n  dup2\n  dup2\n  add\n  0x40\n  mstore\n  dup2\n  add\n  swap1\n  tag_5\n  swap2\n  swap1\n  tag_6\n  jump\t// in\ntag_5:\n    /* \"Token.sol\":399:406  _minter */\n  dup1\n    /* \"Token.sol\":390:396  minter */\n  0x04\n  0x00\n    /* \"Token.sol\":390:406  minter = _minter */\n  0x0100\n  exp\n  dup2\n  sload\n  dup2\n  0xffffffffffffffffffffffffffffffffffffffff\n  mul\n  not\n  and\n  swap1\n  dup4\n  0xffffffffffffffffffffffffffffffffffffffff\n  and\n  mul\n  or\n  swap1\n  sstore\n  pop\n    /* \"Token.sol\":346:413  constructor(address _minter)public{... */\n  pop\n    /* \"Token.sol\":62:836  contract Token {... */\n  jump(tag_9)\ntag_2:\n  dup3\n  dup1\n  sload\n  tag_10\n  swap1\n  tag_11\n  jump\t// in\ntag_10:\n  swap1\n  0x00\n  mstore\n  keccak256(0x00, 0x20)\n  swap1\n  0x1f\n  add\n  0x20\n  swap1\n  div\n  dup2\n  add\n  swap3\n  dup3\n  tag_13\n  jumpi\n  0x00\n  dup6\n  sstore\n  jump(tag_12)\ntag_13:\n  dup3\n  0x1f\n  lt\n  tag_14\n  jumpi\n  dup1\n  mload\n  not(0xff)\n  and\n  dup4\n  dup1\n  add\n  or\n  dup6\n  sstore\n  jump(tag_12)\ntag_14:\n  dup3\n  dup1\n  add\n  0x01\n  add\n  dup6\n  sstore\n  dup3\n  iszero\n  tag_12\n  jumpi\n  swap2\n  dup3\n  add\ntag_15:\n  dup3\n  dup2\n  gt\n  iszero\n  tag_16\n  jumpi\n  dup3\n  mload\n  dup3\n  sstore\n  swap2\n  0x20\n  add\n  swap2\n  swap1\n  0x01\n  add\n  swap1\n  jump(tag_15)\ntag_16:\ntag_12:\n  pop\n  swap1\n  pop\n  tag_17\n  swap2\n  swap1\n  tag_18\n  jump\t// in\ntag_17:\n  pop\n  swap1\n  jump\t// out\ntag_18:\ntag_19:\n  dup1\n  dup3\n  gt\n  iszero\n  tag_20\n  jumpi\n  0x00\n  dup2\n  0x00\n  swap1\n  sstore\n  pop\n  0x01\n  add\n  jump(tag_19)\ntag_20:\n  pop\n  swap1\n  jump\t// out\n    /* \"#utility.yul\":7:150   */\ntag_22:\n    /* \"#utility.yul\":64:69   */\n  0x00\n    /* \"#utility.yul\":95:101   */\n  dup2\n    /* \"#utility.yul\":89:102   */\n  mload\n    /* \"#utility.yul\":80:102   */\n  swap1\n  pop\n    /* \"#utility.yul\":111:144   */\n  tag_24\n    /* \"#utility.yul\":138:143   */\n  dup2\n    /* \"#utility.yul\":111:144   */\n  tag_25\n  jump\t// in\ntag_24:\n    /* \"#utility.yul\":7:150   */\n  swap3\n  swap2\n  pop\n  pop\n  jump\t// out\n    /* \"#utility.yul\":156:507   */\ntag_6:\n    /* \"#utility.yul\":226:232   */\n  0x00\n    /* \"#utility.yul\":275:277   */\n  0x20\n    /* \"#utility.yul\":263:272   */\n  dup3\n    /* \"#utility.yul\":254:261   */\n  dup5\n    /* \"#utility.yul\":250:273   */\n  sub\n    /* \"#utility.yul\":246:278   */\n  slt\n    /* \"#utility.yul\":243:362   */\n  iszero\n  tag_27\n  jumpi\n    /* \"#utility.yul\":281:360   */\n  tag_28\n  tag_29\n  jump\t// in\ntag_28:\n    /* \"#utility.yul\":243:362   */\ntag_27:\n    /* \"#utility.yul\":401:402   */\n  0x00\n    /* \"#utility.yul\":426:490   */\n  tag_30\n    /* \"#utility.yul\":482:489   */\n  dup5\n    /* \"#utility.yul\":473:479   */\n  dup3\n    /* \"#utility.yul\":462:471   */\n  dup6\n    /* \"#utility.yul\":458:480   */\n  add\n    /* \"#utility.yul\":426:490   */\n  tag_22\n  jump\t// in\ntag_30:\n    /* \"#utility.yul\":416:490   */\n  swap2\n  pop\n    /* \"#utility.yul\":372:500   */\n  pop\n    /* \"#utility.yul\":156:507   */\n  swap3\n  swap2\n  pop\n  pop\n  jump\t// out\n    /* \"#utility.yul\":594:690   */\ntag_33:\n    /* \"#utility.yul\":631:638   */\n  0x00\n    /* \"#utility.yul\":660:684   */\n  tag_35\n    /* \"#utility.yul\":678:683   */\n  dup3\n    /* \"#utility.yul\":660:684   */\n  tag_36\n  jump\t// in\ntag_35:\n    /* \"#utility.yul\":649:684   */\n  swap1\n  pop\n    /* \"#utility.yul\":594:690   */\n  swap2\n  swap1\n  pop\n  jump\t// out\n    /* \"#utility.yul\":696:822   */\ntag_36:\n    /* \"#utility.yul\":733:740   */\n  0x00\n    /* \"#utility.yul\":773:815   */\n  0xffffffffffffffffffffffffffffffffffffffff\n    /* \"#utility.yul\":766:771   */\n  dup3\n    /* \"#utility.yul\":762:816   */\n  and\n    /* \"#utility.yul\":751:816   */\n  swap1\n  pop\n    /* \"#utility.yul\":696:822   */\n  swap2\n  swap1\n  pop\n  jump\t// out\n    /* \"#utility.yul\":828:1148   */\ntag_11:\n    /* \"#utility.yul\":872:878   */\n  0x00\n    /* \"#utility.yul\":909:910   */\n  0x02\n    /* \"#utility.yul\":903:907   */\n  dup3\n    /* \"#utility.yul\":899:911   */\n  div\n    /* \"#utility.yul\":889:911   */\n  swap1\n  pop\n    /* \"#utility.yul\":956:957   */\n  0x01\n    /* \"#utility.yul\":950:954   */\n  dup3\n    /* \"#utility.yul\":946:958   */\n  and\n    /* \"#utility.yul\":977:995   */\n  dup1\n    /* \"#utility.yul\":967:1048   */\n  tag_39\n  jumpi\n    /* \"#utility.yul\":1033:1037   */\n  0x7f\n    /* \"#utility.yul\":1025:1031   */\n  dup3\n    /* \"#utility.yul\":1021:1038   */\n  and\n    /* \"#utility.yul\":1011:1038   */\n  swap2\n  pop\n    /* \"#utility.yul\":967:1048   */\ntag_39:\n    /* \"#utility.yul\":1095:1097   */\n  0x20\n    /* \"#utility.yul\":1087:1093   */\n  dup3\n    /* \"#utility.yul\":1084:1098   */\n  lt\n    /* \"#utility.yul\":1064:1082   */\n  dup2\n    /* \"#utility.yul\":1061:1099   */\n  eq\n    /* \"#utility.yul\":1058:1142   */\n  iszero\n  tag_40\n  jumpi\n    /* \"#utility.yul\":1114:1132   */\n  tag_41\n  tag_42\n  jump\t// in\ntag_41:\n    /* \"#utility.yul\":1058:1142   */\ntag_40:\n    /* \"#utility.yul\":879:1148   */\n  pop\n    /* \"#utility.yul\":828:1148   */\n  swap2\n  swap1\n  pop\n  jump\t// out\n    /* \"#utility.yul\":1154:1334   */\ntag_42:\n    /* \"#utility.yul\":1202:1279   */\n  0x4e487b7100000000000000000000000000000000000000000000000000000000\n    /* \"#utility.yul\":1199:1200   */\n  0x00\n    /* \"#utility.yul\":1192:1280   */\n  mstore\n    /* \"#utility.yul\":1299:1303   */\n  0x22\n    /* \"#utility.yul\":1296:1297   */\n  0x04\n    /* \"#utility.yul\":1289:1304   */\n  mstore\n    /* \"#utility.yul\":1323:1327   */\n  0x24\n    /* \"#utility.yul\":1320:1321   */\n  0x00\n    /* \"#utility.yul\":1313:1328   */\n  revert\n    /* \"#utility.yul\":1463:1580   */\ntag_29:\n    /* \"#utility.yul\":1572:1573   */\n  0x00\n    /* \"#utility.yul\":1569:1570   */\n  dup1\n    /* \"#utility.yul\":1562:1574   */\n  revert\n    /* \"#utility.yul\":1586:1708   */\ntag_25:\n    /* \"#utility.yul\":1659:1683   */\n  tag_48\n    /* \"#utility.yul\":1677:1682   */\n  dup2\n    /* \"#utility.yul\":1659:1683   */\n  tag_33\n  jump\t// in\ntag_48:\n    /* \"#utility.yul\":1652:1657   */\n  dup2\n    /* \"#utility.yul\":1649:1684   */\n  eq\n    /* \"#utility.yul\":1639:1702   */\n  tag_49\n  jumpi\n    /* \"#utility.yul\":1698:1699   */\n  0x00\n    /* \"#utility.yul\":1695:1696   */\n  dup1\n    /* \"#utility.yul\":1688:1700   */\n  revert\n    /* \"#utility.yul\":1639:1702   */\ntag_49:\n    /* \"#utility.yul\":1586:1708   */\n  pop\n  jump\t// out\n    /* \"Token.sol\":62:836  contract Token {... */\ntag_9:\n  dataSize(sub_0)\n  dup1\n  dataOffset(sub_0)\n  0x00\n  codecopy\n  0x00\n  return\nstop\n\nsub_0: assembly {\n        /* \"Token.sol\":62:836  contract Token {... */\n      mstore(0x40, 0x80)\n      jumpi(tag_1, lt(calldatasize, 0x04))\n      shr(0xe0, calldataload(0x00))\n      dup1\n      0x76809ce3\n      gt\n      tag_10\n      jumpi\n      dup1\n      0x76809ce3\n      eq\n      tag_6\n      jumpi\n      dup1\n      0x95d89b41\n      eq\n      tag_7\n      jumpi\n      dup1\n      0xb20a7cf6\n      eq\n      tag_8\n      jumpi\n      dup1\n      0xe3d670d7\n      eq\n      tag_9\n      jumpi\n      jump(tag_1)\n    tag_10:\n      dup1\n      0x06fdde03\n      eq\n      tag_2\n      jumpi\n      dup1\n      0x07546172\n      eq\n      tag_3\n      jumpi\n      dup1\n      0x18160ddd\n      eq\n      tag_4\n      jumpi\n      dup1\n      0x40c10f19\n      eq\n      tag_5\n      jumpi\n    tag_1:\n      0x00\n      dup1\n      revert\n        /* \"Token.sol\":83:114  string public name = \"solidity\" */\n    tag_2:\n      callvalue\n      dup1\n      iszero\n      tag_11\n      jumpi\n      0x00\n      dup1\n      revert\n    tag_11:\n      pop\n      tag_12\n      tag_13\n      jump\t// in\n    tag_12:\n      mload(0x40)\n      tag_14\n      swap2\n      swap1\n      tag_15\n      jump\t// in\n    tag_14:\n      mload(0x40)\n      dup1\n      swap2\n      sub\n      swap1\n      return\n        /* \"Token.sol\":231:252  address public minter */\n    tag_3:\n      callvalue\n      dup1\n      iszero\n      tag_16\n      jumpi\n      0x00\n      dup1\n      revert\n    tag_16:\n      pop\n      tag_17\n      tag_18\n      jump\t// in\n    tag_17:\n      mload(0x40)\n      tag_19\n      swap2\n      swap1\n      tag_20\n      jump\t// in\n    tag_19:\n      mload(0x40)\n      dup1\n      swap2\n      sub\n      swap1\n      return\n        /* \"Token.sol\":187:225  uint256 public totalSupply = 210000000 */\n    tag_4:\n      callvalue\n      dup1\n      iszero\n      tag_21\n      jumpi\n      0x00\n      dup1\n      revert\n    tag_21:\n      pop\n      tag_22\n      tag_23\n      jump\t// in\n    tag_22:\n      mload(0x40)\n      tag_24\n      swap2\n      swap1\n      tag_25\n      jump\t// in\n    tag_24:\n      mload(0x40)\n      dup1\n      swap2\n      sub\n      swap1\n      return\n        /* \"Token.sol\":725:830  function mint(address receiver, uint amount) public onlyOwner{... */\n    tag_5:\n      callvalue\n      dup1\n      iszero\n      tag_26\n      jumpi\n      0x00\n      dup1\n      revert\n    tag_26:\n      pop\n      tag_27\n      0x04\n      dup1\n      calldatasize\n      sub\n      dup2\n      add\n      swap1\n      tag_28\n      swap2\n      swap1\n      tag_29\n      jump\t// in\n    tag_28:\n      tag_30\n      jump\t// in\n    tag_27:\n      stop\n        /* \"Token.sol\":154:181  uint256 public decimal = 18 */\n    tag_6:\n      callvalue\n      dup1\n      iszero\n      tag_31\n      jumpi\n      0x00\n      dup1\n      revert\n    tag_31:\n      pop\n      tag_32\n      tag_33\n      jump\t// in\n    tag_32:\n      mload(0x40)\n      tag_34\n      swap2\n      swap1\n      tag_25\n      jump\t// in\n    tag_34:\n      mload(0x40)\n      dup1\n      swap2\n      sub\n      swap1\n      return\n        /* \"Token.sol\":120:148  string public symbol = \"SOL\" */\n    tag_7:\n      callvalue\n      dup1\n      iszero\n      tag_35\n      jumpi\n      0x00\n      dup1\n      revert\n    tag_35:\n      pop\n      tag_36\n      tag_37\n      jump\t// in\n    tag_36:\n      mload(0x40)\n      tag_38\n      swap2\n      swap1\n      tag_15\n      jump\t// in\n    tag_38:\n      mload(0x40)\n      dup1\n      swap2\n      sub\n      swap1\n      return\n        /* \"Token.sol\":530:720  function sendnum(address get, uint amount)payable public{... */\n    tag_8:\n      tag_39\n      0x04\n      dup1\n      calldatasize\n      sub\n      dup2\n      add\n      swap1\n      tag_40\n      swap2\n      swap1\n      tag_29\n      jump\t// in\n    tag_40:\n      tag_41\n      jump\t// in\n    tag_39:\n      stop\n        /* \"Token.sol\":275:314  mapping(address => uint) public balance */\n    tag_9:\n      callvalue\n      dup1\n      iszero\n      tag_42\n      jumpi\n      0x00\n      dup1\n      revert\n    tag_42:\n      pop\n      tag_43\n      0x04\n      dup1\n      calldatasize\n      sub\n      dup2\n      add\n      swap1\n      tag_44\n      swap2\n      swap1\n      tag_45\n      jump\t// in\n    tag_44:\n      tag_46\n      jump\t// in\n    tag_43:\n      mload(0x40)\n      tag_47\n      swap2\n      swap1\n      tag_25\n      jump\t// in\n    tag_47:\n      mload(0x40)\n      dup1\n      swap2\n      sub\n      swap1\n      return\n        /* \"Token.sol\":83:114  string public name = \"solidity\" */\n    tag_13:\n      0x00\n      dup1\n      sload\n      tag_48\n      swap1\n      tag_49\n      jump\t// in\n    tag_48:\n      dup1\n      0x1f\n      add\n      0x20\n      dup1\n      swap2\n      div\n      mul\n      0x20\n      add\n      mload(0x40)\n      swap1\n      dup2\n      add\n      0x40\n      mstore\n      dup1\n      swap3\n      swap2\n      swap1\n      dup2\n      dup2\n      mstore\n      0x20\n      add\n      dup3\n      dup1\n      sload\n      tag_50\n      swap1\n      tag_49\n      jump\t// in\n    tag_50:\n      dup1\n      iszero\n      tag_51\n      jumpi\n      dup1\n      0x1f\n      lt\n      tag_52\n      jumpi\n      0x0100\n      dup1\n      dup4\n      sload\n      div\n      mul\n      dup4\n      mstore\n      swap2\n      0x20\n      add\n      swap2\n      jump(tag_51)\n    tag_52:\n      dup3\n      add\n      swap2\n      swap1\n      0x00\n      mstore\n      keccak256(0x00, 0x20)\n      swap1\n    tag_53:\n      dup2\n      sload\n      dup2\n      mstore\n      swap1\n      0x01\n      add\n      swap1\n      0x20\n      add\n      dup1\n      dup4\n      gt\n      tag_53\n      jumpi\n      dup3\n      swap1\n      sub\n      0x1f\n      and\n      dup3\n      add\n      swap2\n    tag_51:\n      pop\n      pop\n      pop\n      pop\n      pop\n      dup2\n      jump\t// out\n        /* \"Token.sol\":231:252  address public minter */\n    tag_18:\n      0x04\n      0x00\n      swap1\n      sload\n      swap1\n      0x0100\n      exp\n      swap1\n      div\n      0xffffffffffffffffffffffffffffffffffffffff\n      and\n      dup2\n      jump\t// out\n        /* \"Token.sol\":187:225  uint256 public totalSupply = 210000000 */\n    tag_23:\n      sload(0x03)\n      dup2\n      jump\t// out\n        /* \"Token.sol\":725:830  function mint(address receiver, uint amount) public onlyOwner{... */\n    tag_30:\n        /* \"Token.sol\":478:484  minter */\n      0x04\n      0x00\n      swap1\n      sload\n      swap1\n      0x0100\n      exp\n      swap1\n      div\n      0xffffffffffffffffffffffffffffffffffffffff\n      and\n        /* \"Token.sol\":464:484  msg.sender == minter */\n      0xffffffffffffffffffffffffffffffffffffffff\n      and\n        /* \"Token.sol\":464:474  msg.sender */\n      caller\n        /* \"Token.sol\":464:484  msg.sender == minter */\n      0xffffffffffffffffffffffffffffffffffffffff\n      and\n      eq\n        /* \"Token.sol\":455:507  require (msg.sender == minter,\"not is own account\" ) */\n      tag_55\n      jumpi\n      mload(0x40)\n      0x08c379a000000000000000000000000000000000000000000000000000000000\n      dup2\n      mstore\n      0x04\n      add\n      tag_56\n      swap1\n      tag_57\n      jump\t// in\n    tag_56:\n      mload(0x40)\n      dup1\n      swap2\n      sub\n      swap1\n      revert\n    tag_55:\n        /* \"Token.sol\":817:823  amount */\n      dup1\n        /* \"Token.sol\":796:803  balance */\n      0x05\n        /* \"Token.sol\":796:813  balance[receiver] */\n      0x00\n        /* \"Token.sol\":804:812  receiver */\n      dup5\n        /* \"Token.sol\":796:813  balance[receiver] */\n      0xffffffffffffffffffffffffffffffffffffffff\n      and\n      0xffffffffffffffffffffffffffffffffffffffff\n      and\n      dup2\n      mstore\n      0x20\n      add\n      swap1\n      dup2\n      mstore\n      0x20\n      add\n      0x00\n      keccak256\n      0x00\n        /* \"Token.sol\":796:823  balance[receiver] += amount */\n      dup3\n      dup3\n      sload\n      tag_59\n      swap2\n      swap1\n      tag_60\n      jump\t// in\n    tag_59:\n      swap3\n      pop\n      pop\n      dup2\n      swap1\n      sstore\n      pop\n        /* \"Token.sol\":725:830  function mint(address receiver, uint amount) public onlyOwner{... */\n      pop\n      pop\n      jump\t// out\n        /* \"Token.sol\":154:181  uint256 public decimal = 18 */\n    tag_33:\n      sload(0x02)\n      dup2\n      jump\t// out\n        /* \"Token.sol\":120:148  string public symbol = \"SOL\" */\n    tag_37:\n      0x01\n      dup1\n      sload\n      tag_61\n      swap1\n      tag_49\n      jump\t// in\n    tag_61:\n      dup1\n      0x1f\n      add\n      0x20\n      dup1\n      swap2\n      div\n      mul\n      0x20\n      add\n      mload(0x40)\n      swap1\n      dup2\n      add\n      0x40\n      mstore\n      dup1\n      swap3\n      swap2\n      swap1\n      dup2\n      dup2\n      mstore\n      0x20\n      add\n      dup3\n      dup1\n      sload\n      tag_62\n      swap1\n      tag_49\n      jump\t// in\n    tag_62:\n      dup1\n      iszero\n      tag_63\n      jumpi\n      dup1\n      0x1f\n      lt\n      tag_64\n      jumpi\n      0x0100\n      dup1\n      dup4\n      sload\n      div\n      mul\n      dup4\n      mstore\n      swap2\n      0x20\n      add\n      swap2\n      jump(tag_63)\n    tag_64:\n      dup3\n      add\n      swap2\n      swap1\n      0x00\n      mstore\n      keccak256(0x00, 0x20)\n      swap1\n    tag_65:\n      dup2\n      sload\n      dup2\n      mstore\n      swap1\n      0x01\n      add\n      swap1\n      0x20\n      add\n      dup1\n      dup4\n      gt\n      tag_65\n      jumpi\n      dup3\n      swap1\n      sub\n      0x1f\n      and\n      dup3\n      add\n      swap2\n    tag_63:\n      pop\n      pop\n      pop\n      pop\n      pop\n      dup2\n      jump\t// out\n        /* \"Token.sol\":530:720  function sendnum(address get, uint amount)payable public{... */\n    tag_41:\n        /* \"Token.sol\":626:632  amount */\n      dup1\n        /* \"Token.sol\":604:614  msg.sender */\n      caller\n        /* \"Token.sol\":604:622  msg.sender.balance */\n      0xffffffffffffffffffffffffffffffffffffffff\n      and\n      balance\n        /* \"Token.sol\":604:632  msg.sender.balance >= amount */\n      lt\n      iszero\n        /* \"Token.sol\":596:633  require(msg.sender.balance >= amount) */\n      tag_67\n      jumpi\n      0x00\n      dup1\n      revert\n    tag_67:\n        /* \"Token.sol\":666:672  amount */\n      dup1\n        /* \"Token.sol\":643:650  balance */\n      0x05\n        /* \"Token.sol\":643:662  balance[msg.sender] */\n      0x00\n        /* \"Token.sol\":651:661  msg.sender */\n      caller\n        /* \"Token.sol\":643:662  balance[msg.sender] */\n      0xffffffffffffffffffffffffffffffffffffffff\n      and\n      0xffffffffffffffffffffffffffffffffffffffff\n      and\n      dup2\n      mstore\n      0x20\n      add\n      swap1\n      dup2\n      mstore\n      0x20\n      add\n      0x00\n      keccak256\n      0x00\n        /* \"Token.sol\":643:672  balance[msg.sender] -= amount */\n      dup3\n      dup3\n      sload\n      tag_68\n      swap2\n      swap1\n      tag_69\n      jump\t// in\n    tag_68:\n      swap3\n      pop\n      pop\n      dup2\n      swap1\n      sstore\n      pop\n        /* \"Token.sol\":698:704  amount */\n      dup1\n        /* \"Token.sol\":682:689  balance */\n      0x05\n        /* \"Token.sol\":682:694  balance[get] */\n      0x00\n        /* \"Token.sol\":690:693  get */\n      dup5\n        /* \"Token.sol\":682:694  balance[get] */\n      0xffffffffffffffffffffffffffffffffffffffff\n      and\n      0xffffffffffffffffffffffffffffffffffffffff\n      and\n      dup2\n      mstore\n      0x20\n      add\n      swap1\n      dup2\n      mstore\n      0x20\n      add\n      0x00\n      keccak256\n      0x00\n        /* \"Token.sol\":682:704  balance[get] += amount */\n      dup3\n      dup3\n      sload\n      tag_70\n      swap2\n      swap1\n      tag_60\n      jump\t// in\n    tag_70:\n      swap3\n      pop\n      pop\n      dup2\n      swap1\n      sstore\n      pop\n        /* \"Token.sol\":530:720  function sendnum(address get, uint amount)payable public{... */\n      pop\n      pop\n      jump\t// out\n        /* \"Token.sol\":275:314  mapping(address => uint) public balance */\n    tag_46:\n      mstore(0x20, 0x05)\n      dup1\n      0x00\n      mstore\n      keccak256(0x00, 0x40)\n      0x00\n      swap2\n      pop\n      swap1\n      pop\n      sload\n      dup2\n      jump\t// out\n        /* \"#utility.yul\":7:146   */\n    tag_72:\n        /* \"#utility.yul\":53:58   */\n      0x00\n        /* \"#utility.yul\":91:97   */\n      dup2\n        /* \"#utility.yul\":78:98   */\n      calldataload\n        /* \"#utility.yul\":69:98   */\n      swap1\n      pop\n        /* \"#utility.yul\":107:140   */\n      tag_74\n        /* \"#utility.yul\":134:139   */\n      dup2\n        /* \"#utility.yul\":107:140   */\n      tag_75\n      jump\t// in\n    tag_74:\n        /* \"#utility.yul\":7:146   */\n      swap3\n      swap2\n      pop\n      pop\n      jump\t// out\n        /* \"#utility.yul\":152:291   */\n    tag_76:\n        /* \"#utility.yul\":198:203   */\n      0x00\n        /* \"#utility.yul\":236:242   */\n      dup2\n        /* \"#utility.yul\":223:243   */\n      calldataload\n        /* \"#utility.yul\":214:243   */\n      swap1\n      pop\n        /* \"#utility.yul\":252:285   */\n      tag_78\n        /* \"#utility.yul\":279:284   */\n      dup2\n        /* \"#utility.yul\":252:285   */\n      tag_79\n      jump\t// in\n    tag_78:\n        /* \"#utility.yul\":152:291   */\n      swap3\n      swap2\n      pop\n      pop\n      jump\t// out\n        /* \"#utility.yul\":297:626   */\n    tag_45:\n        /* \"#utility.yul\":356:362   */\n      0x00\n        /* \"#utility.yul\":405:407   */\n      0x20\n        /* \"#utility.yul\":393:402   */\n      dup3\n        /* \"#utility.yul\":384:391   */\n      dup5\n        /* \"#utility.yul\":380:403   */\n      sub\n        /* \"#utility.yul\":376:408   */\n      slt\n        /* \"#utility.yul\":373:492   */\n      iszero\n      tag_81\n      jumpi\n        /* \"#utility.yul\":411:490   */\n      tag_82\n      tag_83\n      jump\t// in\n    tag_82:\n        /* \"#utility.yul\":373:492   */\n    tag_81:\n        /* \"#utility.yul\":531:532   */\n      0x00\n        /* \"#utility.yul\":556:609   */\n      tag_84\n        /* \"#utility.yul\":601:608   */\n      dup5\n        /* \"#utility.yul\":592:598   */\n      dup3\n        /* \"#utility.yul\":581:590   */\n      dup6\n        /* \"#utility.yul\":577:599   */\n      add\n        /* \"#utility.yul\":556:609   */\n      tag_72\n      jump\t// in\n    tag_84:\n        /* \"#utility.yul\":546:609   */\n      swap2\n      pop\n        /* \"#utility.yul\":502:619   */\n      pop\n        /* \"#utility.yul\":297:626   */\n      swap3\n      swap2\n      pop\n      pop\n      jump\t// out\n        /* \"#utility.yul\":632:1106   */\n    tag_29:\n        /* \"#utility.yul\":700:706   */\n      0x00\n        /* \"#utility.yul\":708:714   */\n      dup1\n        /* \"#utility.yul\":757:759   */\n      0x40\n        /* \"#utility.yul\":745:754   */\n      dup4\n        /* \"#utility.yul\":736:743   */\n      dup6\n        /* \"#utility.yul\":732:755   */\n      sub\n        /* \"#utility.yul\":728:760   */\n      slt\n        /* \"#utility.yul\":725:844   */\n      iszero\n      tag_86\n      jumpi\n        /* \"#utility.yul\":763:842   */\n      tag_87\n      tag_83\n      jump\t// in\n    tag_87:\n        /* \"#utility.yul\":725:844   */\n    tag_86:\n        /* \"#utility.yul\":883:884   */\n      0x00\n        /* \"#utility.yul\":908:961   */\n      tag_88\n        /* \"#utility.yul\":953:960   */\n      dup6\n        /* \"#utility.yul\":944:950   */\n      dup3\n        /* \"#utility.yul\":933:942   */\n      dup7\n        /* \"#utility.yul\":929:951   */\n      add\n        /* \"#utility.yul\":908:961   */\n      tag_72\n      jump\t// in\n    tag_88:\n        /* \"#utility.yul\":898:961   */\n      swap3\n      pop\n        /* \"#utility.yul\":854:971   */\n      pop\n        /* \"#utility.yul\":1010:1012   */\n      0x20\n        /* \"#utility.yul\":1036:1089   */\n      tag_89\n        /* \"#utility.yul\":1081:1088   */\n      dup6\n        /* \"#utility.yul\":1072:1078   */\n      dup3\n        /* \"#utility.yul\":1061:1070   */\n      dup7\n        /* \"#utility.yul\":1057:1079   */\n      add\n        /* \"#utility.yul\":1036:1089   */\n      tag_76\n      jump\t// in\n    tag_89:\n        /* \"#utility.yul\":1026:1089   */\n      swap2\n      pop\n        /* \"#utility.yul\":981:1099   */\n      pop\n        /* \"#utility.yul\":632:1106   */\n      swap3\n      pop\n      swap3\n      swap1\n      pop\n      jump\t// out\n        /* \"#utility.yul\":1112:1230   */\n    tag_90:\n        /* \"#utility.yul\":1199:1223   */\n      tag_92\n        /* \"#utility.yul\":1217:1222   */\n      dup2\n        /* \"#utility.yul\":1199:1223   */\n      tag_93\n      jump\t// in\n    tag_92:\n        /* \"#utility.yul\":1194:1197   */\n      dup3\n        /* \"#utility.yul\":1187:1224   */\n      mstore\n        /* \"#utility.yul\":1112:1230   */\n      pop\n      pop\n      jump\t// out\n        /* \"#utility.yul\":1236:1600   */\n    tag_94:\n        /* \"#utility.yul\":1324:1327   */\n      0x00\n        /* \"#utility.yul\":1352:1391   */\n      tag_96\n        /* \"#utility.yul\":1385:1390   */\n      dup3\n        /* \"#utility.yul\":1352:1391   */\n      tag_97\n      jump\t// in\n    tag_96:\n        /* \"#utility.yul\":1407:1478   */\n      tag_98\n        /* \"#utility.yul\":1471:1477   */\n      dup2\n        /* \"#utility.yul\":1466:1469   */\n      dup6\n        /* \"#utility.yul\":1407:1478   */\n      tag_99\n      jump\t// in\n    tag_98:\n        /* \"#utility.yul\":1400:1478   */\n      swap4\n      pop\n        /* \"#utility.yul\":1487:1539   */\n      tag_100\n        /* \"#utility.yul\":1532:1538   */\n      dup2\n        /* \"#utility.yul\":1527:1530   */\n      dup6\n        /* \"#utility.yul\":1520:1524   */\n      0x20\n        /* \"#utility.yul\":1513:1518   */\n      dup7\n        /* \"#utility.yul\":1509:1525   */\n      add\n        /* \"#utility.yul\":1487:1539   */\n      tag_101\n      jump\t// in\n    tag_100:\n        /* \"#utility.yul\":1564:1593   */\n      tag_102\n        /* \"#utility.yul\":1586:1592   */\n      dup2\n        /* \"#utility.yul\":1564:1593   */\n      tag_103\n      jump\t// in\n    tag_102:\n        /* \"#utility.yul\":1559:1562   */\n      dup5\n        /* \"#utility.yul\":1555:1594   */\n      add\n        /* \"#utility.yul\":1548:1594   */\n      swap2\n      pop\n        /* \"#utility.yul\":1328:1600   */\n      pop\n        /* \"#utility.yul\":1236:1600   */\n      swap3\n      swap2\n      pop\n      pop\n      jump\t// out\n        /* \"#utility.yul\":1606:1972   */\n    tag_104:\n        /* \"#utility.yul\":1748:1751   */\n      0x00\n        /* \"#utility.yul\":1769:1836   */\n      tag_106\n        /* \"#utility.yul\":1833:1835   */\n      0x12\n        /* \"#utility.yul\":1828:1831   */\n      dup4\n        /* \"#utility.yul\":1769:1836   */\n      tag_99\n      jump\t// in\n    tag_106:\n        /* \"#utility.yul\":1762:1836   */\n      swap2\n      pop\n        /* \"#utility.yul\":1845:1938   */\n      tag_107\n        /* \"#utility.yul\":1934:1937   */\n      dup3\n        /* \"#utility.yul\":1845:1938   */\n      tag_108\n      jump\t// in\n    tag_107:\n        /* \"#utility.yul\":1963:1965   */\n      0x20\n        /* \"#utility.yul\":1958:1961   */\n      dup3\n        /* \"#utility.yul\":1954:1966   */\n      add\n        /* \"#utility.yul\":1947:1966   */\n      swap1\n      pop\n        /* \"#utility.yul\":1606:1972   */\n      swap2\n      swap1\n      pop\n      jump\t// out\n        /* \"#utility.yul\":1978:2096   */\n    tag_109:\n        /* \"#utility.yul\":2065:2089   */\n      tag_111\n        /* \"#utility.yul\":2083:2088   */\n      dup2\n        /* \"#utility.yul\":2065:2089   */\n      tag_112\n      jump\t// in\n    tag_111:\n        /* \"#utility.yul\":2060:2063   */\n      dup3\n        /* \"#utility.yul\":2053:2090   */\n      mstore\n        /* \"#utility.yul\":1978:2096   */\n      pop\n      pop\n      jump\t// out\n        /* \"#utility.yul\":2102:2324   */\n    tag_20:\n        /* \"#utility.yul\":2195:2199   */\n      0x00\n        /* \"#utility.yul\":2233:2235   */\n      0x20\n        /* \"#utility.yul\":2222:2231   */\n      dup3\n        /* \"#utility.yul\":2218:2236   */\n      add\n        /* \"#utility.yul\":2210:2236   */\n      swap1\n      pop\n        /* \"#utility.yul\":2246:2317   */\n      tag_114\n        /* \"#utility.yul\":2314:2315   */\n      0x00\n        /* \"#utility.yul\":2303:2312   */\n      dup4\n        /* \"#utility.yul\":2299:2316   */\n      add\n        /* \"#utility.yul\":2290:2296   */\n      dup5\n        /* \"#utility.yul\":2246:2317   */\n      tag_90\n      jump\t// in\n    tag_114:\n        /* \"#utility.yul\":2102:2324   */\n      swap3\n      swap2\n      pop\n      pop\n      jump\t// out\n        /* \"#utility.yul\":2330:2643   */\n    tag_15:\n        /* \"#utility.yul\":2443:2447   */\n      0x00\n        /* \"#utility.yul\":2481:2483   */\n      0x20\n        /* \"#utility.yul\":2470:2479   */\n      dup3\n        /* \"#utility.yul\":2466:2484   */\n      add\n        /* \"#utility.yul\":2458:2484   */\n      swap1\n      pop\n        /* \"#utility.yul\":2530:2539   */\n      dup2\n        /* \"#utility.yul\":2524:2528   */\n      dup2\n        /* \"#utility.yul\":2520:2540   */\n      sub\n        /* \"#utility.yul\":2516:2517   */\n      0x00\n        /* \"#utility.yul\":2505:2514   */\n      dup4\n        /* \"#utility.yul\":2501:2518   */\n      add\n        /* \"#utility.yul\":2494:2541   */\n      mstore\n        /* \"#utility.yul\":2558:2636   */\n      tag_116\n        /* \"#utility.yul\":2631:2635   */\n      dup2\n        /* \"#utility.yul\":2622:2628   */\n      dup5\n        /* \"#utility.yul\":2558:2636   */\n      tag_94\n      jump\t// in\n    tag_116:\n        /* \"#utility.yul\":2550:2636   */\n      swap1\n      pop\n        /* \"#utility.yul\":2330:2643   */\n      swap3\n      swap2\n      pop\n      pop\n      jump\t// out\n        /* \"#utility.yul\":2649:3068   */\n    tag_57:\n        /* \"#utility.yul\":2815:2819   */\n      0x00\n        /* \"#utility.yul\":2853:2855   */\n      0x20\n        /* \"#utility.yul\":2842:2851   */\n      dup3\n        /* \"#utility.yul\":2838:2856   */\n      add\n        /* \"#utility.yul\":2830:2856   */\n      swap1\n      pop\n        /* \"#utility.yul\":2902:2911   */\n      dup2\n        /* \"#utility.yul\":2896:2900   */\n      dup2\n        /* \"#utility.yul\":2892:2912   */\n      sub\n        /* \"#utility.yul\":2888:2889   */\n      0x00\n        /* \"#utility.yul\":2877:2886   */\n      dup4\n        /* \"#utility.yul\":2873:2890   */\n      add\n        /* \"#utility.yul\":2866:2913   */\n      mstore\n        /* \"#utility.yul\":2930:3061   */\n      tag_118\n        /* \"#utility.yul\":3056:3060   */\n      dup2\n        /* \"#utility.yul\":2930:3061   */\n      tag_104\n      jump\t// in\n    tag_118:\n        /* \"#utility.yul\":2922:3061   */\n      swap1\n      pop\n        /* \"#utility.yul\":2649:3068   */\n      swap2\n      swap1\n      pop\n      jump\t// out\n        /* \"#utility.yul\":3074:3296   */\n    tag_25:\n        /* \"#utility.yul\":3167:3171   */\n      0x00\n        /* \"#utility.yul\":3205:3207   */\n      0x20\n        /* \"#utility.yul\":3194:3203   */\n      dup3\n        /* \"#utility.yul\":3190:3208   */\n      add\n        /* \"#utility.yul\":3182:3208   */\n      swap1\n      pop\n        /* \"#utility.yul\":3218:3289   */\n      tag_120\n        /* \"#utility.yul\":3286:3287   */\n      0x00\n        /* \"#utility.yul\":3275:3284   */\n      dup4\n        /* \"#utility.yul\":3271:3288   */\n      add\n        /* \"#utility.yul\":3262:3268   */\n      dup5\n        /* \"#utility.yul\":3218:3289   */\n      tag_109\n      jump\t// in\n    tag_120:\n        /* \"#utility.yul\":3074:3296   */\n      swap3\n      swap2\n      pop\n      pop\n      jump\t// out\n        /* \"#utility.yul\":3383:3482   */\n    tag_97:\n        /* \"#utility.yul\":3435:3441   */\n      0x00\n        /* \"#utility.yul\":3469:3474   */\n      dup2\n        /* \"#utility.yul\":3463:3475   */\n      mload\n        /* \"#utility.yul\":3453:3475   */\n      swap1\n      pop\n        /* \"#utility.yul\":3383:3482   */\n      swap2\n      swap1\n      pop\n      jump\t// out\n        /* \"#utility.yul\":3488:3657   */\n    tag_99:\n        /* \"#utility.yul\":3572:3583   */\n      0x00\n        /* \"#utility.yul\":3606:3612   */\n      dup3\n        /* \"#utility.yul\":3601:3604   */\n      dup3\n        /* \"#utility.yul\":3594:3613   */\n      mstore\n        /* \"#utility.yul\":3646:3650   */\n      0x20\n        /* \"#utility.yul\":3641:3644   */\n      dup3\n        /* \"#utility.yul\":3637:3651   */\n      add\n        /* \"#utility.yul\":3622:3651   */\n      swap1\n      pop\n        /* \"#utility.yul\":3488:3657   */\n      swap3\n      swap2\n      pop\n      pop\n      jump\t// out\n        /* \"#utility.yul\":3663:3968   */\n    tag_60:\n        /* \"#utility.yul\":3703:3706   */\n      0x00\n        /* \"#utility.yul\":3722:3742   */\n      tag_126\n        /* \"#utility.yul\":3740:3741   */\n      dup3\n        /* \"#utility.yul\":3722:3742   */\n      tag_112\n      jump\t// in\n    tag_126:\n        /* \"#utility.yul\":3717:3742   */\n      swap2\n      pop\n        /* \"#utility.yul\":3756:3776   */\n      tag_127\n        /* \"#utility.yul\":3774:3775   */\n      dup4\n        /* \"#utility.yul\":3756:3776   */\n      tag_112\n      jump\t// in\n    tag_127:\n        /* \"#utility.yul\":3751:3776   */\n      swap3\n      pop\n        /* \"#utility.yul\":3910:3911   */\n      dup3\n        /* \"#utility.yul\":3842:3908   */\n      0xffffffffffffffffffffffffffffffffffffffffffffffffffffffffffffffff\n        /* \"#utility.yul\":3838:3912   */\n      sub\n        /* \"#utility.yul\":3835:3836   */\n      dup3\n        /* \"#utility.yul\":3832:3913   */\n      gt\n        /* \"#utility.yul\":3829:3936   */\n      iszero\n      tag_128\n      jumpi\n        /* \"#utility.yul\":3916:3934   */\n      tag_129\n      tag_130\n      jump\t// in\n    tag_129:\n        /* \"#utility.yul\":3829:3936   */\n    tag_128:\n        /* \"#utility.yul\":3960:3961   */\n      dup3\n        /* \"#utility.yul\":3957:3958   */\n      dup3\n        /* \"#utility.yul\":3953:3962   */\n      add\n        /* \"#utility.yul\":3946:3962   */\n      swap1\n      pop\n        /* \"#utility.yul\":3663:3968   */\n      swap3\n      swap2\n      pop\n      pop\n      jump\t// out\n        /* \"#utility.yul\":3974:4165   */\n    tag_69:\n        /* \"#utility.yul\":4014:4018   */\n      0x00\n        /* \"#utility.yul\":4034:4054   */\n      tag_132\n        /* \"#utility.yul\":4052:4053   */\n      dup3\n        /* \"#utility.yul\":4034:4054   */\n      tag_112\n      jump\t// in\n    tag_132:\n        /* \"#utility.yul\":4029:4054   */\n      swap2\n      pop\n        /* \"#utility.yul\":4068:4088   */\n      tag_133\n        /* \"#utility.yul\":4086:4087   */\n      dup4\n        /* \"#utility.yul\":4068:4088   */\n      tag_112\n      jump\t// in\n    tag_133:\n        /* \"#utility.yul\":4063:4088   */\n      swap3\n      pop\n        /* \"#utility.yul\":4107:4108   */\n      dup3\n        /* \"#utility.yul\":4104:4105   */\n      dup3\n        /* \"#utility.yul\":4101:4109   */\n      lt\n        /* \"#utility.yul\":4098:4132   */\n      iszero\n      tag_134\n      jumpi\n        /* \"#utility.yul\":4112:4130   */\n      tag_135\n      tag_130\n      jump\t// in\n    tag_135:\n        /* \"#utility.yul\":4098:4132   */\n    tag_134:\n        /* \"#utility.yul\":4157:4158   */\n      dup3\n        /* \"#utility.yul\":4154:4155   */\n      dup3\n        /* \"#utility.yul\":4150:4159   */\n      sub\n        /* \"#utility.yul\":4142:4159   */\n      swap1\n      pop\n        /* \"#utility.yul\":3974:4165   */\n      swap3\n      swap2\n      pop\n      pop\n      jump\t// out\n        /* \"#utility.yul\":4171:4267   */\n    tag_93:\n        /* \"#utility.yul\":4208:4215   */\n      0x00\n        /* \"#utility.yul\":4237:4261   */\n      tag_137\n        /* \"#utility.yul\":4255:4260   */\n      dup3\n        /* \"#utility.yul\":4237:4261   */\n      tag_138\n      jump\t// in\n    tag_137:\n        /* \"#utility.yul\":4226:4261   */\n      swap1\n      pop\n        /* \"#utility.yul\":4171:4267   */\n      swap2\n      swap1\n      pop\n      jump\t// out\n        /* \"#utility.yul\":4273:4399   */\n    tag_138:\n        /* \"#utility.yul\":4310:4317   */\n      0x00\n        /* \"#utility.yul\":4350:4392   */\n      0xffffffffffffffffffffffffffffffffffffffff\n        /* \"#utility.yul\":4343:4348   */\n      dup3\n        /* \"#utility.yul\":4339:4393   */\n      and\n        /* \"#utility.yul\":4328:4393   */\n      swap1\n      pop\n        /* \"#utility.yul\":4273:4399   */\n      swap2\n      swap1\n      pop\n      jump\t// out\n        /* \"#utility.yul\":4405:4482   */\n    tag_112:\n        /* \"#utility.yul\":4442:4449   */\n      0x00\n        /* \"#utility.yul\":4471:4476   */\n      dup2\n        /* \"#utility.yul\":4460:4476   */\n      swap1\n      pop\n        /* \"#utility.yul\":4405:4482   */\n      swap2\n      swap1\n      pop\n      jump\t// out\n        /* \"#utility.yul\":4488:4795   */\n    tag_101:\n        /* \"#utility.yul\":4556:4557   */\n      0x00\n        /* \"#utility.yul\":4566:4679   */\n    tag_142:\n        /* \"#utility.yul\":4580:4586   */\n      dup4\n        /* \"#utility.yul\":4577:4578   */\n      dup2\n        /* \"#utility.yul\":4574:4587   */\n      lt\n        /* \"#utility.yul\":4566:4679   */\n      iszero\n      tag_144\n      jumpi\n        /* \"#utility.yul\":4665:4666   */\n      dup1\n        /* \"#utility.yul\":4660:4663   */\n      dup3\n        /* \"#utility.yul\":4656:4667   */\n      add\n        /* \"#utility.yul\":4650:4668   */\n      mload\n        /* \"#utility.yul\":4646:4647   */\n      dup2\n        /* \"#utility.yul\":4641:4644   */\n      dup5\n        /* \"#utility.yul\":4637:4648   */\n      add\n        /* \"#utility.yul\":4630:4669   */\n      mstore\n        /* \"#utility.yul\":4602:4604   */\n      0x20\n        /* \"#utility.yul\":4599:4600   */\n      dup2\n        /* \"#utility.yul\":4595:4605   */\n      add\n        /* \"#utility.yul\":4590:4605   */\n      swap1\n      pop\n        /* \"#utility.yul\":4566:4679   */\n      jump(tag_142)\n    tag_144:\n        /* \"#utility.yul\":4697:4703   */\n      dup4\n        /* \"#utility.yul\":4694:4695   */\n      dup2\n        /* \"#utility.yul\":4691:4704   */\n      gt\n        /* \"#utility.yul\":4688:4789   */\n      iszero\n      tag_145\n      jumpi\n        /* \"#utility.yul\":4777:4778   */\n      0x00\n        /* \"#utility.yul\":4768:4774   */\n      dup5\n        /* \"#utility.yul\":4763:4766   */\n      dup5\n        /* \"#utility.yul\":4759:4775   */\n      add\n        /* \"#utility.yul\":4752:4779   */\n      mstore\n        /* \"#utility.yul\":4688:4789   */\n    tag_145:\n        /* \"#utility.yul\":4537:4795   */\n      pop\n        /* \"#utility.yul\":4488:4795   */\n      pop\n      pop\n      pop\n      jump\t// out\n        /* \"#utility.yul\":4801:5121   */\n    tag_49:\n        /* \"#utility.yul\":4845:4851   */\n      0x00\n        /* \"#utility.yul\":4882:4883   */\n      0x02\n        /* \"#utility.yul\":4876:4880   */\n      dup3\n        /* \"#utility.yul\":4872:4884   */\n      div\n        /* \"#utility.yul\":4862:4884   */\n      swap1\n      pop\n        /* \"#utility.yul\":4929:4930   */\n      0x01\n        /* \"#utility.yul\":4923:4927   */\n      dup3\n        /* \"#utility.yul\":4919:4931   */\n      and\n        /* \"#utility.yul\":4950:4968   */\n      dup1\n        /* \"#utility.yul\":4940:5021   */\n      tag_147\n      jumpi\n        /* \"#utility.yul\":5006:5010   */\n      0x7f\n        /* \"#utility.yul\":4998:5004   */\n      dup3\n        /* \"#utility.yul\":4994:5011   */\n      and\n        /* \"#utility.yul\":4984:5011   */\n      swap2\n      pop\n        /* \"#utility.yul\":4940:5021   */\n    tag_147:\n        /* \"#utility.yul\":5068:5070   */\n      0x20\n        /* \"#utility.yul\":5060:5066   */\n      dup3\n        /* \"#utility.yul\":5057:5071   */\n      lt\n        /* \"#utility.yul\":5037:5055   */\n      dup2\n        /* \"#utility.yul\":5034:5072   */\n      eq\n        /* \"#utility.yul\":5031:5115   */\n      iszero\n      tag_148\n      jumpi\n        /* \"#utility.yul\":5087:5105   */\n      tag_149\n      tag_150\n      jump\t// in\n    tag_149:\n        /* \"#utility.yul\":5031:5115   */\n    tag_148:\n        /* \"#utility.yul\":4852:5121   */\n      pop\n        /* \"#utility.yul\":4801:5121   */\n      swap2\n      swap1\n      pop\n      jump\t// out\n        /* \"#utility.yul\":5127:5307   */\n    tag_130:\n        /* \"#utility.yul\":5175:5252   */\n      0x4e487b7100000000000000000000000000000000000000000000000000000000\n        /* \"#utility.yul\":5172:5173   */\n      0x00\n        /* \"#utility.yul\":5165:5253   */\n      mstore\n        /* \"#utility.yul\":5272:5276   */\n      0x11\n        /* \"#utility.yul\":5269:5270   */\n      0x04\n        /* \"#utility.yul\":5262:5277   */\n      mstore\n        /* \"#utility.yul\":5296:5300   */\n      0x24\n        /* \"#utility.yul\":5293:5294   */\n      0x00\n        /* \"#utility.yul\":5286:5301   */\n      revert\n        /* \"#utility.yul\":5313:5493   */\n    tag_150:\n        /* \"#utility.yul\":5361:5438   */\n      0x4e487b7100000000000000000000000000000000000000000000000000000000\n        /* \"#utility.yul\":5358:5359   */\n      0x00\n        /* \"#utility.yul\":5351:5439   */\n      mstore\n        /* \"#utility.yul\":5458:5462   */\n      0x22\n        /* \"#utility.yul\":5455:5456   */\n      0x04\n        /* \"#utility.yul\":5448:5463   */\n      mstore\n        /* \"#utility.yul\":5482:5486   */\n      0x24\n        /* \"#utility.yul\":5479:5480   */\n      0x00\n        /* \"#utility.yul\":5472:5487   */\n      revert\n        /* \"#utility.yul\":5622:5739   */\n    tag_83:\n        /* \"#utility.yul\":5731:5732   */\n      0x00\n        /* \"#utility.yul\":5728:5729   */\n      dup1\n        /* \"#utility.yul\":5721:5733   */\n      revert\n        /* \"#utility.yul\":5745:5847   */\n    tag_103:\n        /* \"#utility.yul\":5786:5792   */\n      0x00\n        /* \"#utility.yul\":5837:5839   */\n      0x1f\n        /* \"#utility.yul\":5833:5840   */\n      not\n        /* \"#utility.yul\":5828:5830   */\n      0x1f\n        /* \"#utility.yul\":5821:5826   */\n      dup4\n        /* \"#utility.yul\":5817:5831   */\n      add\n        /* \"#utility.yul\":5813:5841   */\n      and\n        /* \"#utility.yul\":5803:5841   */\n      swap1\n      pop\n        /* \"#utility.yul\":5745:5847   */\n      swap2\n      swap1\n      pop\n      jump\t// out\n        /* \"#utility.yul\":5853:6021   */\n    tag_108:\n        /* \"#utility.yul\":5993:6013   */\n      0x6e6f74206973206f776e206163636f756e740000000000000000000000000000\n        /* \"#utility.yul\":5989:5990   */\n      0x00\n        /* \"#utility.yul\":5981:5987   */\n      dup3\n        /* \"#utility.yul\":5977:5991   */\n      add\n        /* \"#utility.yul\":5970:6014   */\n      mstore\n        /* \"#utility.yul\":5853:6021   */\n      pop\n      jump\t// out\n        /* \"#utility.yul\":6027:6149   */\n    tag_75:\n        /* \"#utility.yul\":6100:6124   */\n      tag_159\n        /* \"#utility.yul\":6118:6123   */\n      dup2\n        /* \"#utility.yul\":6100:6124   */\n      tag_93\n      jump\t// in\n    tag_159:\n        /* \"#utility.yul\":6093:6098   */\n      dup2\n        /* \"#utility.yul\":6090:6125   */\n      eq\n        /* \"#utility.yul\":6080:6143   */\n      tag_160\n      jumpi\n        /* \"#utility.yul\":6139:6140   */\n      0x00\n        /* \"#utility.yul\":6136:6137   */\n      dup1\n        /* \"#utility.yul\":6129:6141   */\n      revert\n        /* \"#utility.yul\":6080:6143   */\n    tag_160:\n        /* \"#utility.yul\":6027:6149   */\n      pop\n      jump\t// out\n        /* \"#utility.yul\":6155:6277   */\n    tag_79:\n        /* \"#utility.yul\":6228:6252   */\n      tag_162\n        /* \"#utility.yul\":6246:6251   */\n      dup2\n        /* \"#utility.yul\":6228:6252   */\n      tag_112\n      jump\t// in\n    tag_162:\n        /* \"#utility.yul\":6221:6226   */\n      dup2\n        /* \"#utility.yul\":6218:6253   */\n      eq\n        /* \"#utility.yul\":6208:6271   */\n      tag_163\n      jumpi\n        /* \"#utility.yul\":6267:6268   */\n      0x00\n        /* \"#utility.yul\":6264:6265   */\n      dup1\n        /* \"#utility.yul\":6257:6269   */\n      revert\n        /* \"#utility.yul\":6208:6271   */\n    tag_163:\n        /* \"#utility.yul\":6155:6277   */\n      pop\n      jump\t// out\n\n    auxdata: 0xa2646970667358221220839dd26d027a1a363e596171487993e7fed6ca1cd24924d9cdb97dd777fda9db64736f6c63430008070033\n}\n",
				"bytecode": {
					"linkReferences": {},
					"object": "60806040526040518060400160405280600881526020017f736f6c6964697479000000000000000000000000000000000000000000000000815250600090805190602001906200005192919062000128565b506040518060400160405280600381526020017f534f4c0000000000000000000000000000000000000000000000000000000000815250600190805190602001906200009f92919062000128565b506012600255630c845880600355348015620000ba57600080fd5b5060405162000bb738038062000bb78339818101604052810190620000e09190620001ef565b80600460006101000a81548173ffffffffffffffffffffffffffffffffffffffff021916908373ffffffffffffffffffffffffffffffffffffffff16021790555050620002d9565b828054620001369062000255565b90600052602060002090601f0160209004810192826200015a5760008555620001a6565b82601f106200017557805160ff1916838001178555620001a6565b82800160010185558215620001a6579182015b82811115620001a557825182559160200191906001019062000188565b5b509050620001b59190620001b9565b5090565b5b80821115620001d4576000816000905550600101620001ba565b5090565b600081519050620001e981620002bf565b92915050565b600060208284031215620002085762000207620002ba565b5b60006200021884828501620001d8565b91505092915050565b60006200022e8262000235565b9050919050565b600073ffffffffffffffffffffffffffffffffffffffff82169050919050565b600060028204905060018216806200026e57607f821691505b602082108114156200028557620002846200028b565b5b50919050565b7f4e487b7100000000000000000000000000000000000000000000000000000000600052602260045260246000fd5b600080fd5b620002ca8162000221565b8114620002d657600080fd5b50565b6108ce80620002e96000396000f3fe60806040526004361061007b5760003560e01c806376809ce31161004e57806376809ce31461012a57806395d89b4114610155578063b20a7cf614610180578063e3d670d71461019c5761007b565b806306fdde031461008057806307546172146100ab57806318160ddd146100d657806340c10f1914610101575b600080fd5b34801561008c57600080fd5b506100956101d9565b6040516100a29190610629565b60405180910390f35b3480156100b757600080fd5b506100c0610267565b6040516100cd919061060e565b60405180910390f35b3480156100e257600080fd5b506100eb61028d565b6040516100f8919061066b565b60405180910390f35b34801561010d57600080fd5b5061012860048036038101906101239190610554565b610293565b005b34801561013657600080fd5b5061013f61037d565b60405161014c919061066b565b60405180910390f35b34801561016157600080fd5b5061016a610383565b6040516101779190610629565b60405180910390f35b61019a60048036038101906101959190610554565b610411565b005b3480156101a857600080fd5b506101c360048036038101906101be9190610527565b6104e5565b6040516101d0919061066b565b60405180910390f35b600080546101e69061079b565b80601f01602080910402602001604051908101604052809291908181526020018280546102129061079b565b801561025f5780601f106102345761010080835404028352916020019161025f565b820191906000526020600020905b81548152906001019060200180831161024257829003601f168201915b505050505081565b600460009054906101000a900473ffffffffffffffffffffffffffffffffffffffff1681565b60035481565b600460009054906101000a900473ffffffffffffffffffffffffffffffffffffffff1673ffffffffffffffffffffffffffffffffffffffff163373ffffffffffffffffffffffffffffffffffffffff1614610323576040517f08c379a000000000000000000000000000000000000000000000000000000000815260040161031a9061064b565b60405180910390fd5b80600560008473ffffffffffffffffffffffffffffffffffffffff1673ffffffffffffffffffffffffffffffffffffffff168152602001908152602001600020600082825461037291906106a2565b925050819055505050565b60025481565b600180546103909061079b565b80601f01602080910402602001604051908101604052809291908181526020018280546103bc9061079b565b80156104095780601f106103de57610100808354040283529160200191610409565b820191906000526020600020905b8154815290600101906020018083116103ec57829003601f168201915b505050505081565b803373ffffffffffffffffffffffffffffffffffffffff1631101561043557600080fd5b80600560003373ffffffffffffffffffffffffffffffffffffffff1673ffffffffffffffffffffffffffffffffffffffff168152602001908152602001600020600082825461048491906106f8565b9250508190555080600560008473ffffffffffffffffffffffffffffffffffffffff1673ffffffffffffffffffffffffffffffffffffffff16815260200190815260200160002060008282546104da91906106a2565b925050819055505050565b60056020528060005260406000206000915090505481565b60008135905061050c8161086a565b92915050565b60008135905061052181610881565b92915050565b60006020828403121561053d5761053c61082b565b5b600061054b848285016104fd565b91505092915050565b6000806040838503121561056b5761056a61082b565b5b6000610579858286016104fd565b925050602061058a85828601610512565b9150509250929050565b61059d8161072c565b82525050565b60006105ae82610686565b6105b88185610691565b93506105c8818560208601610768565b6105d181610830565b840191505092915050565b60006105e9601283610691565b91506105f482610841565b602082019050919050565b6106088161075e565b82525050565b60006020820190506106236000830184610594565b92915050565b6000602082019050818103600083015261064381846105a3565b905092915050565b60006020820190508181036000830152610664816105dc565b9050919050565b600060208201905061068060008301846105ff565b92915050565b600081519050919050565b600082825260208201905092915050565b60006106ad8261075e565b91506106b88361075e565b9250827fffffffffffffffffffffffffffffffffffffffffffffffffffffffffffffffff038211156106ed576106ec6107cd565b5b828201905092915050565b60006107038261075e565b915061070e8361075e565b925082821015610721576107206107cd565b5b828203905092915050565b60006107378261073e565b9050919050565b600073ffffffffffffffffffffffffffffffffffffffff82169050919050565b6000819050919050565b60005b8381101561078657808201518184015260208101905061076b565b83811115610795576000848401525b50505050565b600060028204905060018216806107b357607f821691505b602082108114156107c7576107c66107fc565b5b50919050565b7f4e487b7100000000000000000000000000000000000000000000000000000000600052601160045260246000fd5b7f4e487b7100000000000000000000000000000000000000000000000000000000600052602260045260246000fd5b600080fd5b6000601f19601f8301169050919050565b7f6e6f74206973206f776e206163636f756e740000000000000000000000000000600082015250565b6108738161072c565b811461087e57600080fd5b50565b61088a8161075e565b811461089557600080fd5b5056fea2646970667358221220839dd26d027a1a363e596171487993e7fed6ca1cd24924d9cdb97dd777fda9db64736f6c63430008070033",
					"opcodes": "PUSH1 0x80 PUSH1 0x40 MSTORE PUSH1 0x40 MLOAD DUP1 PUSH1 0x40 ADD PUSH1 0x40 MSTORE DUP1 PUSH1 0x8 DUP2 MSTORE PUSH1 0x20 ADD PUSH32 0x736F6C6964697479000000000000000000000000000000000000000000000000 DUP2 MSTORE POP PUSH1 0x0 SWAP1 DUP1 MLOAD SWAP1 PUSH1 0x20 ADD SWAP1 PUSH3 0x51 SWAP3 SWAP2 SWAP1 PUSH3 0x128 JUMP JUMPDEST POP PUSH1 0x40 MLOAD DUP1 PUSH1 0x40 ADD PUSH1 0x40 MSTORE DUP1 PUSH1 0x3 DUP2 MSTORE PUSH1 0x20 ADD PUSH32 0x534F4C0000000000000000000000000000000000000000000000000000000000 DUP2 MSTORE POP PUSH1 0x1 SWAP1 DUP1 MLOAD SWAP1 PUSH1 0x20 ADD SWAP1 PUSH3 0x9F SWAP3 SWAP2 SWAP1 PUSH3 0x128 JUMP JUMPDEST POP PUSH1 0x12 PUSH1 0x2 SSTORE PUSH4 0xC845880 PUSH1 0x3 SSTORE CALLVALUE DUP1 ISZERO PUSH3 0xBA JUMPI PUSH1 0x0 DUP1 REVERT JUMPDEST POP PUSH1 0x40 MLOAD PUSH3 0xBB7 CODESIZE SUB DUP1 PUSH3 0xBB7 DUP4 CODECOPY DUP2 DUP2 ADD PUSH1 0x40 MSTORE DUP2 ADD SWAP1 PUSH3 0xE0 SWAP2 SWAP1 PUSH3 0x1EF JUMP JUMPDEST DUP1 PUSH1 0x4 PUSH1 0x0 PUSH2 0x100 EXP DUP2 SLOAD DUP2 PUSH20 0xFFFFFFFFFFFFFFFFFFFFFFFFFFFFFFFFFFFFFFFF MUL NOT AND SWAP1 DUP4 PUSH20 0xFFFFFFFFFFFFFFFFFFFFFFFFFFFFFFFFFFFFFFFF AND MUL OR SWAP1 SSTORE POP POP PUSH3 0x2D9 JUMP JUMPDEST DUP3 DUP1 SLOAD PUSH3 0x136 SWAP1 PUSH3 0x255 JUMP JUMPDEST SWAP1 PUSH1 0x0 MSTORE PUSH1 0x20 PUSH1 0x0 KECCAK256 SWAP1 PUSH1 0x1F ADD PUSH1 0x20 SWAP1 DIV DUP2 ADD SWAP3 DUP3 PUSH3 0x15A JUMPI PUSH1 0x0 DUP6 SSTORE PUSH3 0x1A6 JUMP JUMPDEST DUP3 PUSH1 0x1F LT PUSH3 0x175 JUMPI DUP1 MLOAD PUSH1 0xFF NOT AND DUP4 DUP1 ADD OR DUP6 SSTORE PUSH3 0x1A6 JUMP JUMPDEST DUP3 DUP1 ADD PUSH1 0x1 ADD DUP6 SSTORE DUP3 ISZERO PUSH3 0x1A6 JUMPI SWAP2 DUP3 ADD JUMPDEST DUP3 DUP2 GT ISZERO PUSH3 0x1A5 JUMPI DUP3 MLOAD DUP3 SSTORE SWAP2 PUSH1 0x20 ADD SWAP2 SWAP1 PUSH1 0x1 ADD SWAP1 PUSH3 0x188 JUMP JUMPDEST JUMPDEST POP SWAP1 POP PUSH3 0x1B5 SWAP2 SWAP1 PUSH3 0x1B9 JUMP JUMPDEST POP SWAP1 JUMP JUMPDEST JUMPDEST DUP1 DUP3 GT ISZERO PUSH3 0x1D4 JUMPI PUSH1 0x0 DUP2 PUSH1 0x0 SWAP1 SSTORE POP PUSH1 0x1 ADD PUSH3 0x1BA JUMP JUMPDEST POP SWAP1 JUMP JUMPDEST PUSH1 0x0 DUP2 MLOAD SWAP1 POP PUSH3 0x1E9 DUP2 PUSH3 0x2BF JUMP JUMPDEST SWAP3 SWAP2 POP POP JUMP JUMPDEST PUSH1 0x0 PUSH1 0x20 DUP3 DUP5 SUB SLT ISZERO PUSH3 0x208 JUMPI PUSH3 0x207 PUSH3 0x2BA JUMP JUMPDEST JUMPDEST PUSH1 0x0 PUSH3 0x218 DUP5 DUP3 DUP6 ADD PUSH3 0x1D8 JUMP JUMPDEST SWAP2 POP POP SWAP3 SWAP2 POP POP JUMP JUMPDEST PUSH1 0x0 PUSH3 0x22E DUP3 PUSH3 0x235 JUMP JUMPDEST SWAP1 POP SWAP2 SWAP1 POP JUMP JUMPDEST PUSH1 0x0 PUSH20 0xFFFFFFFFFFFFFFFFFFFFFFFFFFFFFFFFFFFFFFFF DUP3 AND SWAP1 POP SWAP2 SWAP1 POP JUMP JUMPDEST PUSH1 0x0 PUSH1 0x2 DUP3 DIV SWAP1 POP PUSH1 0x1 DUP3 AND DUP1 PUSH3 0x26E JUMPI PUSH1 0x7F DUP3 AND SWAP2 POP JUMPDEST PUSH1 0x20 DUP3 LT DUP2 EQ ISZERO PUSH3 0x285 JUMPI PUSH3 0x284 PUSH3 0x28B JUMP JUMPDEST JUMPDEST POP SWAP2 SWAP1 POP JUMP JUMPDEST PUSH32 0x4E487B7100000000000000000000000000000000000000000000000000000000 PUSH1 0x0 MSTORE PUSH1 0x22 PUSH1 0x4 MSTORE PUSH1 0x24 PUSH1 0x0 REVERT JUMPDEST PUSH1 0x0 DUP1 REVERT JUMPDEST PUSH3 0x2CA DUP2 PUSH3 0x221 JUMP JUMPDEST DUP2 EQ PUSH3 0x2D6 JUMPI PUSH1 0x0 DUP1 REVERT JUMPDEST POP JUMP JUMPDEST PUSH2 0x8CE DUP1 PUSH3 0x2E9 PUSH1 0x0 CODECOPY PUSH1 0x0 RETURN INVALID PUSH1 0x80 PUSH1 0x40 MSTORE PUSH1 0x4 CALLDATASIZE LT PUSH2 0x7B JUMPI PUSH1 0x0 CALLDATALOAD PUSH1 0xE0 SHR DUP1 PUSH4 0x76809CE3 GT PUSH2 0x4E JUMPI DUP1 PUSH4 0x76809CE3 EQ PUSH2 0x12A JUMPI DUP1 PUSH4 0x95D89B41 EQ PUSH2 0x155 JUMPI DUP1 PUSH4 0xB20A7CF6 EQ PUSH2 0x180 JUMPI DUP1 PUSH4 0xE3D670D7 EQ PUSH2 0x19C JUMPI PUSH2 0x7B JUMP JUMPDEST DUP1 PUSH4 0x6FDDE03 EQ PUSH2 0x80 JUMPI DUP1 PUSH4 0x7546172 EQ PUSH2 0xAB JUMPI DUP1 PUSH4 0x18160DDD EQ PUSH2 0xD6 JUMPI DUP1 PUSH4 0x40C10F19 EQ PUSH2 0x101 JUMPI JUMPDEST PUSH1 0x0 DUP1 REVERT JUMPDEST CALLVALUE DUP1 ISZERO PUSH2 0x8C JUMPI PUSH1 0x0 DUP1 REVERT JUMPDEST POP PUSH2 0x95 PUSH2 0x1D9 JUMP JUMPDEST PUSH1 0x40 MLOAD PUSH2 0xA2 SWAP2 SWAP1 PUSH2 0x629 JUMP JUMPDEST PUSH1 0x40 MLOAD DUP1 SWAP2 SUB SWAP1 RETURN JUMPDEST CALLVALUE DUP1 ISZERO PUSH2 0xB7 JUMPI PUSH1 0x0 DUP1 REVERT JUMPDEST POP PUSH2 0xC0 PUSH2 0x267 JUMP JUMPDEST PUSH1 0x40 MLOAD PUSH2 0xCD SWAP2 SWAP1 PUSH2 0x60E JUMP JUMPDEST PUSH1 0x40 MLOAD DUP1 SWAP2 SUB SWAP1 RETURN JUMPDEST CALLVALUE DUP1 ISZERO PUSH2 0xE2 JUMPI PUSH1 0x0 DUP1 REVERT JUMPDEST POP PUSH2 0xEB PUSH2 0x28D JUMP JUMPDEST PUSH1 0x40 MLOAD PUSH2 0xF8 SWAP2 SWAP1 PUSH2 0x66B JUMP JUMPDEST PUSH1 0x40 MLOAD DUP1 SWAP2 SUB SWAP1 RETURN JUMPDEST CALLVALUE DUP1 ISZERO PUSH2 0x10D JUMPI PUSH1 0x0 DUP1 REVERT JUMPDEST POP PUSH2 0x128 PUSH1 0x4 DUP1 CALLDATASIZE SUB DUP2 ADD SWAP1 PUSH2 0x123 SWAP2 SWAP1 PUSH2 0x554 JUMP JUMPDEST PUSH2 0x293 JUMP JUMPDEST STOP JUMPDEST CALLVALUE DUP1 ISZERO PUSH2 0x136 JUMPI PUSH1 0x0 DUP1 REVERT JUMPDEST POP PUSH2 0x13F PUSH2 0x37D JUMP JUMPDEST PUSH1 0x40 MLOAD PUSH2 0x14C SWAP2 SWAP1 PUSH2 0x66B JUMP JUMPDEST PUSH1 0x40 MLOAD DUP1 SWAP2 SUB SWAP1 RETURN JUMPDEST CALLVALUE DUP1 ISZERO PUSH2 0x161 JUMPI PUSH1 0x0 DUP1 REVERT JUMPDEST POP PUSH2 0x16A PUSH2 0x383 JUMP JUMPDEST PUSH1 0x40 MLOAD PUSH2 0x177 SWAP2 SWAP1 PUSH2 0x629 JUMP JUMPDEST PUSH1 0x40 MLOAD DUP1 SWAP2 SUB SWAP1 RETURN JUMPDEST PUSH2 0x19A PUSH1 0x4 DUP1 CALLDATASIZE SUB DUP2 ADD SWAP1 PUSH2 0x195 SWAP2 SWAP1 PUSH2 0x554 JUMP JUMPDEST PUSH2 0x411 JUMP JUMPDEST STOP JUMPDEST CALLVALUE DUP1 ISZERO PUSH2 0x1A8 JUMPI PUSH1 0x0 DUP1 REVERT JUMPDEST POP PUSH2 0x1C3 PUSH1 0x4 DUP1 CALLDATASIZE SUB DUP2 ADD SWAP1 PUSH2 0x1BE SWAP2 SWAP1 PUSH2 0x527 JUMP JUMPDEST PUSH2 0x4E5 JUMP JUMPDEST PUSH1 0x40 MLOAD PUSH2 0x1D0 SWAP2 SWAP1 PUSH2 0x66B JUMP JUMPDEST PUSH1 0x40 MLOAD DUP1 SWAP2 SUB SWAP1 RETURN JUMPDEST PUSH1 0x0 DUP1 SLOAD PUSH2 0x1E6 SWAP1 PUSH2 0x79B JUMP JUMPDEST DUP1 PUSH1 0x1F ADD PUSH1 0x20 DUP1 SWAP2 DIV MUL PUSH1 0x20 ADD PUSH1 0x40 MLOAD SWAP1 DUP2 ADD PUSH1 0x40 MSTORE DUP1 SWAP3 SWAP2 SWAP1 DUP2 DUP2 MSTORE PUSH1 0x20 ADD DUP3 DUP1 SLOAD PUSH2 0x212 SWAP1 PUSH2 0x79B JUMP JUMPDEST DUP1 ISZERO PUSH2 0x25F JUMPI DUP1 PUSH1 0x1F LT PUSH2 0x234 JUMPI PUSH2 0x100 DUP1 DUP4 SLOAD DIV MUL DUP4 MSTORE SWAP2 PUSH1 0x20 ADD SWAP2 PUSH2 0x25F JUMP JUMPDEST DUP3 ADD SWAP2 SWAP1 PUSH1 0x0 MSTORE PUSH1 0x20 PUSH1 0x0 KECCAK256 SWAP1 JUMPDEST DUP2 SLOAD DUP2 MSTORE SWAP1 PUSH1 0x1 ADD SWAP1 PUSH1 0x20 ADD DUP1 DUP4 GT PUSH2 0x242 JUMPI DUP3 SWAP1 SUB PUSH1 0x1F AND DUP3 ADD SWAP2 JUMPDEST POP POP POP POP POP DUP2 JUMP JUMPDEST PUSH1 0x4 PUSH1 0x0 SWAP1 SLOAD SWAP1 PUSH2 0x100 EXP SWAP1 DIV PUSH20 0xFFFFFFFFFFFFFFFFFFFFFFFFFFFFFFFFFFFFFFFF AND DUP2 JUMP JUMPDEST PUSH1 0x3 SLOAD DUP2 JUMP JUMPDEST PUSH1 0x4 PUSH1 0x0 SWAP1 SLOAD SWAP1 PUSH2 0x100 EXP SWAP1 DIV PUSH20 0xFFFFFFFFFFFFFFFFFFFFFFFFFFFFFFFFFFFFFFFF AND PUSH20 0xFFFFFFFFFFFFFFFFFFFFFFFFFFFFFFFFFFFFFFFF AND CALLER PUSH20 0xFFFFFFFFFFFFFFFFFFFFFFFFFFFFFFFFFFFFFFFF AND EQ PUSH2 0x323 JUMPI PUSH1 0x40 MLOAD PUSH32 0x8C379A000000000000000000000000000000000000000000000000000000000 DUP2 MSTORE PUSH1 0x4 ADD PUSH2 0x31A SWAP1 PUSH2 0x64B JUMP JUMPDEST PUSH1 0x40 MLOAD DUP1 SWAP2 SUB SWAP1 REVERT JUMPDEST DUP1 PUSH1 0x5 PUSH1 0x0 DUP5 PUSH20 0xFFFFFFFFFFFFFFFFFFFFFFFFFFFFFFFFFFFFFFFF AND PUSH20 0xFFFFFFFFFFFFFFFFFFFFFFFFFFFFFFFFFFFFFFFF AND DUP2 MSTORE PUSH1 0x20 ADD SWAP1 DUP2 MSTORE PUSH1 0x20 ADD PUSH1 0x0 KECCAK256 PUSH1 0x0 DUP3 DUP3 SLOAD PUSH2 0x372 SWAP2 SWAP1 PUSH2 0x6A2 JUMP JUMPDEST SWAP3 POP POP DUP2 SWAP1 SSTORE POP POP POP JUMP JUMPDEST PUSH1 0x2 SLOAD DUP2 JUMP JUMPDEST PUSH1 0x1 DUP1 SLOAD PUSH2 0x390 SWAP1 PUSH2 0x79B JUMP JUMPDEST DUP1 PUSH1 0x1F ADD PUSH1 0x20 DUP1 SWAP2 DIV MUL PUSH1 0x20 ADD PUSH1 0x40 MLOAD SWAP1 DUP2 ADD PUSH1 0x40 MSTORE DUP1 SWAP3 SWAP2 SWAP1 DUP2 DUP2 MSTORE PUSH1 0x20 ADD DUP3 DUP1 SLOAD PUSH2 0x3BC SWAP1 PUSH2 0x79B JUMP JUMPDEST DUP1 ISZERO PUSH2 0x409 JUMPI DUP1 PUSH1 0x1F LT PUSH2 0x3DE JUMPI PUSH2 0x100 DUP1 DUP4 SLOAD DIV MUL DUP4 MSTORE SWAP2 PUSH1 0x20 ADD SWAP2 PUSH2 0x409 JUMP JUMPDEST DUP3 ADD SWAP2 SWAP1 PUSH1 0x0 MSTORE PUSH1 0x20 PUSH1 0x0 KECCAK256 SWAP1 JUMPDEST DUP2 SLOAD DUP2 MSTORE SWAP1 PUSH1 0x1 ADD SWAP1 PUSH1 0x20 ADD DUP1 DUP4 GT PUSH2 0x3EC JUMPI DUP3 SWAP1 SUB PUSH1 0x1F AND DUP3 ADD SWAP2 JUMPDEST POP POP POP POP POP DUP2 JUMP JUMPDEST DUP1 CALLER PUSH20 0xFFFFFFFFFFFFFFFFFFFFFFFFFFFFFFFFFFFFFFFF AND BALANCE LT ISZERO PUSH2 0x435 JUMPI PUSH1 0x0 DUP1 REVERT JUMPDEST DUP1 PUSH1 0x5 PUSH1 0x0 CALLER PUSH20 0xFFFFFFFFFFFFFFFFFFFFFFFFFFFFFFFFFFFFFFFF AND PUSH20 0xFFFFFFFFFFFFFFFFFFFFFFFFFFFFFFFFFFFFFFFF AND DUP2 MSTORE PUSH1 0x20 ADD SWAP1 DUP2 MSTORE PUSH1 0x20 ADD PUSH1 0x0 KECCAK256 PUSH1 0x0 DUP3 DUP3 SLOAD PUSH2 0x484 SWAP2 SWAP1 PUSH2 0x6F8 JUMP JUMPDEST SWAP3 POP POP DUP2 SWAP1 SSTORE POP DUP1 PUSH1 0x5 PUSH1 0x0 DUP5 PUSH20 0xFFFFFFFFFFFFFFFFFFFFFFFFFFFFFFFFFFFFFFFF AND PUSH20 0xFFFFFFFFFFFFFFFFFFFFFFFFFFFFFFFFFFFFFFFF AND DUP2 MSTORE PUSH1 0x20 ADD SWAP1 DUP2 MSTORE PUSH1 0x20 ADD PUSH1 0x0 KECCAK256 PUSH1 0x0 DUP3 DUP3 SLOAD PUSH2 0x4DA SWAP2 SWAP1 PUSH2 0x6A2 JUMP JUMPDEST SWAP3 POP POP DUP2 SWAP1 SSTORE POP POP POP JUMP JUMPDEST PUSH1 0x5 PUSH1 0x20 MSTORE DUP1 PUSH1 0x0 MSTORE PUSH1 0x40 PUSH1 0x0 KECCAK256 PUSH1 0x0 SWAP2 POP SWAP1 POP SLOAD DUP2 JUMP JUMPDEST PUSH1 0x0 DUP2 CALLDATALOAD SWAP1 POP PUSH2 0x50C DUP2 PUSH2 0x86A JUMP JUMPDEST SWAP3 SWAP2 POP POP JUMP JUMPDEST PUSH1 0x0 DUP2 CALLDATALOAD SWAP1 POP PUSH2 0x521 DUP2 PUSH2 0x881 JUMP JUMPDEST SWAP3 SWAP2 POP POP JUMP JUMPDEST PUSH1 0x0 PUSH1 0x20 DUP3 DUP5 SUB SLT ISZERO PUSH2 0x53D JUMPI PUSH2 0x53C PUSH2 0x82B JUMP JUMPDEST JUMPDEST PUSH1 0x0 PUSH2 0x54B DUP5 DUP3 DUP6 ADD PUSH2 0x4FD JUMP JUMPDEST SWAP2 POP POP SWAP3 SWAP2 POP POP JUMP JUMPDEST PUSH1 0x0 DUP1 PUSH1 0x40 DUP4 DUP6 SUB SLT ISZERO PUSH2 0x56B JUMPI PUSH2 0x56A PUSH2 0x82B JUMP JUMPDEST JUMPDEST PUSH1 0x0 PUSH2 0x579 DUP6 DUP3 DUP7 ADD PUSH2 0x4FD JUMP JUMPDEST SWAP3 POP POP PUSH1 0x20 PUSH2 0x58A DUP6 DUP3 DUP7 ADD PUSH2 0x512 JUMP JUMPDEST SWAP2 POP POP SWAP3 POP SWAP3 SWAP1 POP JUMP JUMPDEST PUSH2 0x59D DUP2 PUSH2 0x72C JUMP JUMPDEST DUP3 MSTORE POP POP JUMP JUMPDEST PUSH1 0x0 PUSH2 0x5AE DUP3 PUSH2 0x686 JUMP JUMPDEST PUSH2 0x5B8 DUP2 DUP6 PUSH2 0x691 JUMP JUMPDEST SWAP4 POP PUSH2 0x5C8 DUP2 DUP6 PUSH1 0x20 DUP7 ADD PUSH2 0x768 JUMP JUMPDEST PUSH2 0x5D1 DUP2 PUSH2 0x830 JUMP JUMPDEST DUP5 ADD SWAP2 POP POP SWAP3 SWAP2 POP POP JUMP JUMPDEST PUSH1 0x0 PUSH2 0x5E9 PUSH1 0x12 DUP4 PUSH2 0x691 JUMP JUMPDEST SWAP2 POP PUSH2 0x5F4 DUP3 PUSH2 0x841 JUMP JUMPDEST PUSH1 0x20 DUP3 ADD SWAP1 POP SWAP2 SWAP1 POP JUMP JUMPDEST PUSH2 0x608 DUP2 PUSH2 0x75E JUMP JUMPDEST DUP3 MSTORE POP POP JUMP JUMPDEST PUSH1 0x0 PUSH1 0x20 DUP3 ADD SWAP1 POP PUSH2 0x623 PUSH1 0x0 DUP4 ADD DUP5 PUSH2 0x594 JUMP JUMPDEST SWAP3 SWAP2 POP POP JUMP JUMPDEST PUSH1 0x0 PUSH1 0x20 DUP3 ADD SWAP1 POP DUP2 DUP2 SUB PUSH1 0x0 DUP4 ADD MSTORE PUSH2 0x643 DUP2 DUP5 PUSH2 0x5A3 JUMP JUMPDEST SWAP1 POP SWAP3 SWAP2 POP POP JUMP JUMPDEST PUSH1 0x0 PUSH1 0x20 DUP3 ADD SWAP1 POP DUP2 DUP2 SUB PUSH1 0x0 DUP4 ADD MSTORE PUSH2 0x664 DUP2 PUSH2 0x5DC JUMP JUMPDEST SWAP1 POP SWAP2 SWAP1 POP JUMP JUMPDEST PUSH1 0x0 PUSH1 0x20 DUP3 ADD SWAP1 POP PUSH2 0x680 PUSH1 0x0 DUP4 ADD DUP5 PUSH2 0x5FF JUMP JUMPDEST SWAP3 SWAP2 POP POP JUMP JUMPDEST PUSH1 0x0 DUP2 MLOAD SWAP1 POP SWAP2 SWAP1 POP JUMP JUMPDEST PUSH1 0x0 DUP3 DUP3 MSTORE PUSH1 0x20 DUP3 ADD SWAP1 POP SWAP3 SWAP2 POP POP JUMP JUMPDEST PUSH1 0x0 PUSH2 0x6AD DUP3 PUSH2 0x75E JUMP JUMPDEST SWAP2 POP PUSH2 0x6B8 DUP4 PUSH2 0x75E JUMP JUMPDEST SWAP3 POP DUP3 PUSH32 0xFFFFFFFFFFFFFFFFFFFFFFFFFFFFFFFFFFFFFFFFFFFFFFFFFFFFFFFFFFFFFFFF SUB DUP3 GT ISZERO PUSH2 0x6ED JUMPI PUSH2 0x6EC PUSH2 0x7CD JUMP JUMPDEST JUMPDEST DUP3 DUP3 ADD SWAP1 POP SWAP3 SWAP2 POP POP JUMP JUMPDEST PUSH1 0x0 PUSH2 0x703 DUP3 PUSH2 0x75E JUMP JUMPDEST SWAP2 POP PUSH2 0x70E DUP4 PUSH2 0x75E JUMP JUMPDEST SWAP3 POP DUP3 DUP3 LT ISZERO PUSH2 0x721 JUMPI PUSH2 0x720 PUSH2 0x7CD JUMP JUMPDEST JUMPDEST DUP3 DUP3 SUB SWAP1 POP SWAP3 SWAP2 POP POP JUMP JUMPDEST PUSH1 0x0 PUSH2 0x737 DUP3 PUSH2 0x73E JUMP JUMPDEST SWAP1 POP SWAP2 SWAP1 POP JUMP JUMPDEST PUSH1 0x0 PUSH20 0xFFFFFFFFFFFFFFFFFFFFFFFFFFFFFFFFFFFFFFFF DUP3 AND SWAP1 POP SWAP2 SWAP1 POP JUMP JUMPDEST PUSH1 0x0 DUP2 SWAP1 POP SWAP2 SWAP1 POP JUMP JUMPDEST PUSH1 0x0 JUMPDEST DUP4 DUP2 LT ISZERO PUSH2 0x786 JUMPI DUP1 DUP3 ADD MLOAD DUP2 DUP5 ADD MSTORE PUSH1 0x20 DUP2 ADD SWAP1 POP PUSH2 0x76B JUMP JUMPDEST DUP4 DUP2 GT ISZERO PUSH2 0x795 JUMPI PUSH1 0x0 DUP5 DUP5 ADD MSTORE JUMPDEST POP POP POP POP JUMP JUMPDEST PUSH1 0x0 PUSH1 0x2 DUP3 DIV SWAP1 POP PUSH1 0x1 DUP3 AND DUP1 PUSH2 0x7B3 JUMPI PUSH1 0x7F DUP3 AND SWAP2 POP JUMPDEST PUSH1 0x20 DUP3 LT DUP2 EQ ISZERO PUSH2 0x7C7 JUMPI PUSH2 0x7C6 PUSH2 0x7FC JUMP JUMPDEST JUMPDEST POP SWAP2 SWAP1 POP JUMP JUMPDEST PUSH32 0x4E487B7100000000000000000000000000000000000000000000000000000000 PUSH1 0x0 MSTORE PUSH1 0x11 PUSH1 0x4 MSTORE PUSH1 0x24 PUSH1 0x0 REVERT JUMPDEST PUSH32 0x4E487B7100000000000000000000000000000000000000000000000000000000 PUSH1 0x0 MSTORE PUSH1 0x22 PUSH1 0x4 MSTORE PUSH1 0x24 PUSH1 0x0 REVERT JUMPDEST PUSH1 0x0 DUP1 REVERT JUMPDEST PUSH1 0x0 PUSH1 0x1F NOT PUSH1 0x1F DUP4 ADD AND SWAP1 POP SWAP2 SWAP1 POP JUMP JUMPDEST PUSH32 0x6E6F74206973206F776E206163636F756E740000000000000000000000000000 PUSH1 0x0 DUP3 ADD MSTORE POP JUMP JUMPDEST PUSH2 0x873 DUP2 PUSH2 0x72C JUMP JUMPDEST DUP2 EQ PUSH2 0x87E JUMPI PUSH1 0x0 DUP1 REVERT JUMPDEST POP JUMP JUMPDEST PUSH2 0x88A DUP2 PUSH2 0x75E JUMP JUMPDEST DUP2 EQ PUSH2 0x895 JUMPI PUSH1 0x0 DUP1 REVERT JUMPDEST POP JUMP INVALID LOG2 PUSH5 0x6970667358 0x22 SLT KECCAK256 DUP4 SWAP14 0xD2 PUSH14 0x27A1A363E596171487993E7FED6 0xCA SHR 0xD2 0x49 0x24 0xD9 0xCD 0xB9 PUSH30 0xD777FDA9DB64736F6C634300080700330000000000000000000000000000 "
				},
				"gasEstimates": {
					"creation": {
						"codeDepositCost": "450800",
						"executionCost": "infinite",
						"totalCost": "infinite"
					},
					"external": {
						"balance(address)": "2880",
						"decimal()": "2429",
						"mint(address,uint256)": "infinite",
						"minter()": "2537",
						"name()": "infinite",
						"sendnum(address,uint256)": "infinite",
						"symbol()": "infinite",
						"totalSupply()": "2474"
					}
				},
				"methodIdentifiers": {
					"balance(address)": "e3d670d7",
					"decimal()": "76809ce3",
					"mint(address,uint256)": "40c10f19",
					"minter()": "07546172",
					"name()": "06fdde03",
					"sendnum(address,uint256)": "b20a7cf6",
					"symbol()": "95d89b41",
					"totalSupply()": "18160ddd"
				}
			},
			"storageLayout": {
				"storage": [
					{
						"astId": 4,
						"contract": "Token.sol:Token",
						"label": "name",
						"offset": 0,
						"slot": "0",
						"type": "t_string_storage"
					},
					{
						"astId": 7,
						"contract": "Token.sol:Token",
						"label": "symbol",
						"offset": 0,
						"slot": "1",
						"type": "t_string_storage"
					},
					{
						"astId": 10,
						"contract": "Token.sol:Token",
						"label": "decimal",
						"offset": 0,
						"slot": "2",
						"type": "t_uint256"
					},
					{
						"astId": 13,
						"contract": "Token.sol:Token",
						"label": "totalSupply",
						"offset": 0,
						"slot": "3",
						"type": "t_uint256"
					},
					{
						"astId": 15,
						"contract": "Token.sol:Token",
						"label": "minter",
						"offset": 0,
						"slot": "4",
						"type": "t_address"
					},
					{
						"astId": 19,
						"contract": "Token.sol:Token",
						"label": "balance",
						"offset": 0,
						"slot": "5",
						"type": "t_mapping(t_address,t_uint256)"
					}
				],
				"types": {
					"t_address": {
						"encoding": "inplace",
						"label": "address",
						"numberOfBytes": "20"
					},
					"t_mapping(t_address,t_uint256)": {
						"encoding": "mapping",
						"key": "t_address",
						"label": "mapping(address => uint256)",
						"numberOfBytes": "32",
						"value": "t_uint256"
					},
					"t_string_storage": {
						"encoding": "bytes",
						"label": "string",
						"numberOfBytes": "32"
					},
					"t_uint256": {
						"encoding": "inplace",
						"label": "uint256",
						"numberOfBytes": "32"
					}
				}
			},
			"userdoc": {
				"kind": "user",
				"methods": {},
				"version": 1
			}
		}
	}
}