{
	"TokenSell.sol": {
		"Tokensell": {
			"abi": [
				{
					"inputs": [],
					"name": "axsToken",
					"outputs": [
						{
							"internalType": "address",
							"name": "",
							"type": "address"
						}
					],
					"stateMutability": "view",
					"type": "function"
				},
				{
					"inputs": [],
					"name": "receiveUSDT",
					"outputs": [],
					"stateMutability": "payable",
					"type": "function"
				}
			],
			"devdoc": {
				"kind": "dev",
				"methods": {},
				"version": 1
			},
			"evm": {
				"assembly": "    /* \"TokenSell.sol\":125:380  contract Tokensell{\r... */\n  mstore(0x40, 0x80)\n    /* \"TokenSell.sol\":218:260  0x0aa7726bc0cB085A3C4fbE3B09b91DD7E27f7fea */\n  0x0aa7726bc0cb085a3c4fbe3b09b91dd7e27f7fea\n    /* \"TokenSell.sol\":192:260  address public axsToken = 0x0aa7726bc0cB085A3C4fbE3B09b91DD7E27f7fea */\n  0x00\n  dup1\n  0x0100\n  exp\n  dup2\n  sload\n  dup2\n  0xffffffffffffffffffffffffffffffffffffffff\n  mul\n  not\n  and\n  swap1\n  dup4\n  0xffffffffffffffffffffffffffffffffffffffff\n  and\n  mul\n  or\n  swap1\n  sstore\n  pop\n    /* \"TokenSell.sol\":125:380  contract Tokensell{\r... */\n  callvalue\n  dup1\n  iszero\n  tag_1\n  jumpi\n  0x00\n  dup1\n  revert\ntag_1:\n  pop\n  dataSize(sub_0)\n  dup1\n  dataOffset(sub_0)\n  0x00\n  codecopy\n  0x00\n  return\nstop\n\nsub_0: assembly {\n        /* \"TokenSell.sol\":125:380  contract Tokensell{\r... */\n      mstore(0x40, 0x80)\n      jumpi(tag_1, lt(calldatasize, 0x04))\n      shr(0xe0, calldataload(0x00))\n      dup1\n      0x180dc0ac\n      eq\n      tag_2\n      jumpi\n      dup1\n      0x55cf0a69\n      eq\n      tag_3\n      jumpi\n    tag_1:\n      0x00\n      dup1\n      revert\n        /* \"TokenSell.sol\":192:260  address public axsToken = 0x0aa7726bc0cB085A3C4fbE3B09b91DD7E27f7fea */\n    tag_2:\n      callvalue\n      dup1\n      iszero\n      tag_4\n      jumpi\n      0x00\n      dup1\n      revert\n    tag_4:\n      pop\n      tag_5\n      tag_6\n      jump\t// in\n    tag_5:\n      mload(0x40)\n      tag_7\n      swap2\n      swap1\n      tag_8\n      jump\t// in\n    tag_7:\n      mload(0x40)\n      dup1\n      swap2\n      sub\n      swap1\n      return\n        /* \"TokenSell.sol\":267:377  function receiveUSDT() public payable{\r... */\n    tag_3:\n      tag_9\n      tag_10\n      jump\t// in\n    tag_9:\n      stop\n        /* \"TokenSell.sol\":192:260  address public axsToken = 0x0aa7726bc0cB085A3C4fbE3B09b91DD7E27f7fea */\n    tag_6:\n      0x00\n      dup1\n      sload\n      swap1\n      0x0100\n      exp\n      swap1\n      div\n      0xffffffffffffffffffffffffffffffffffffffff\n      and\n      dup2\n      jump\t// out\n        /* \"TokenSell.sol\":267:377  function receiveUSDT() public payable{\r... */\n    tag_10:\n        /* \"TokenSell.sol\":322:330  axsToken */\n      0x00\n      dup1\n      sload\n      swap1\n      0x0100\n      exp\n      swap1\n      div\n      0xffffffffffffffffffffffffffffffffffffffff\n      and\n        /* \"TokenSell.sol\":315:340  IERC20(axsToken).transfer */\n      0xffffffffffffffffffffffffffffffffffffffff\n      and\n      0xa9059cbb\n        /* \"TokenSell.sol\":341:351  msg.sender */\n      caller\n        /* \"TokenSell.sol\":365:368  100 */\n      0x64\n        /* \"TokenSell.sol\":353:362  msg.value */\n      callvalue\n        /* \"TokenSell.sol\":353:368  msg.value * 100 */\n      tag_12\n      swap2\n      swap1\n      tag_13\n      jump\t// in\n    tag_12:\n        /* \"TokenSell.sol\":315:369  IERC20(axsToken).transfer(msg.sender, msg.value * 100) */\n      mload(0x40)\n      dup4\n      0xffffffff\n      and\n      0xe0\n      shl\n      dup2\n      mstore\n      0x04\n      add\n      tag_14\n      swap3\n      swap2\n      swap1\n      tag_15\n      jump\t// in\n    tag_14:\n      0x20\n      mload(0x40)\n      dup1\n      dup4\n      sub\n      dup2\n      0x00\n      dup8\n      dup1\n      extcodesize\n      iszero\n      dup1\n      iszero\n      tag_16\n      jumpi\n      0x00\n      dup1\n      revert\n    tag_16:\n      pop\n      gas\n      call\n      iszero\n      dup1\n      iszero\n      tag_18\n      jumpi\n      returndatasize\n      0x00\n      dup1\n      returndatacopy\n      revert(0x00, returndatasize)\n    tag_18:\n      pop\n      pop\n      pop\n      pop\n      mload(0x40)\n      returndatasize\n      not(0x1f)\n      0x1f\n      dup3\n      add\n      and\n      dup3\n      add\n      dup1\n      0x40\n      mstore\n      pop\n      dup2\n      add\n      swap1\n      tag_19\n      swap2\n      swap1\n      tag_20\n      jump\t// in\n    tag_19:\n      pop\n        /* \"TokenSell.sol\":267:377  function receiveUSDT() public payable{\r... */\n      jump\t// out\n        /* \"#utility.yul\":7:144   */\n    tag_22:\n        /* \"#utility.yul\":61:66   */\n      0x00\n        /* \"#utility.yul\":92:98   */\n      dup2\n        /* \"#utility.yul\":86:99   */\n      mload\n        /* \"#utility.yul\":77:99   */\n      swap1\n      pop\n        /* \"#utility.yul\":108:138   */\n      tag_24\n        /* \"#utility.yul\":132:137   */\n      dup2\n        /* \"#utility.yul\":108:138   */\n      tag_25\n      jump\t// in\n    tag_24:\n        /* \"#utility.yul\":7:144   */\n      swap3\n      swap2\n      pop\n      pop\n      jump\t// out\n        /* \"#utility.yul\":150:495   */\n    tag_20:\n        /* \"#utility.yul\":217:223   */\n      0x00\n        /* \"#utility.yul\":266:268   */\n      0x20\n        /* \"#utility.yul\":254:263   */\n      dup3\n        /* \"#utility.yul\":245:252   */\n      dup5\n        /* \"#utility.yul\":241:264   */\n      sub\n        /* \"#utility.yul\":237:269   */\n      slt\n        /* \"#utility.yul\":234:353   */\n      iszero\n      tag_27\n      jumpi\n        /* \"#utility.yul\":272:351   */\n      tag_28\n      tag_29\n      jump\t// in\n    tag_28:\n        /* \"#utility.yul\":234:353   */\n    tag_27:\n        /* \"#utility.yul\":392:393   */\n      0x00\n        /* \"#utility.yul\":417:478   */\n      tag_30\n        /* \"#utility.yul\":470:477   */\n      dup5\n        /* \"#utility.yul\":461:467   */\n      dup3\n        /* \"#utility.yul\":450:459   */\n      dup6\n        /* \"#utility.yul\":446:468   */\n      add\n        /* \"#utility.yul\":417:478   */\n      tag_22\n      jump\t// in\n    tag_30:\n        /* \"#utility.yul\":407:478   */\n      swap2\n      pop\n        /* \"#utility.yul\":363:488   */\n      pop\n        /* \"#utility.yul\":150:495   */\n      swap3\n      swap2\n      pop\n      pop\n      jump\t// out\n        /* \"#utility.yul\":501:619   */\n    tag_31:\n        /* \"#utility.yul\":588:612   */\n      tag_33\n        /* \"#utility.yul\":606:611   */\n      dup2\n        /* \"#utility.yul\":588:612   */\n      tag_34\n      jump\t// in\n    tag_33:\n        /* \"#utility.yul\":583:586   */\n      dup3\n        /* \"#utility.yul\":576:613   */\n      mstore\n        /* \"#utility.yul\":501:619   */\n      pop\n      pop\n      jump\t// out\n        /* \"#utility.yul\":625:743   */\n    tag_35:\n        /* \"#utility.yul\":712:736   */\n      tag_37\n        /* \"#utility.yul\":730:735   */\n      dup2\n        /* \"#utility.yul\":712:736   */\n      tag_38\n      jump\t// in\n    tag_37:\n        /* \"#utility.yul\":707:710   */\n      dup3\n        /* \"#utility.yul\":700:737   */\n      mstore\n        /* \"#utility.yul\":625:743   */\n      pop\n      pop\n      jump\t// out\n        /* \"#utility.yul\":749:971   */\n    tag_8:\n        /* \"#utility.yul\":842:846   */\n      0x00\n        /* \"#utility.yul\":880:882   */\n      0x20\n        /* \"#utility.yul\":869:878   */\n      dup3\n        /* \"#utility.yul\":865:883   */\n      add\n        /* \"#utility.yul\":857:883   */\n      swap1\n      pop\n        /* \"#utility.yul\":893:964   */\n      tag_40\n        /* \"#utility.yul\":961:962   */\n      0x00\n        /* \"#utility.yul\":950:959   */\n      dup4\n        /* \"#utility.yul\":946:963   */\n      add\n        /* \"#utility.yul\":937:943   */\n      dup5\n        /* \"#utility.yul\":893:964   */\n      tag_31\n      jump\t// in\n    tag_40:\n        /* \"#utility.yul\":749:971   */\n      swap3\n      swap2\n      pop\n      pop\n      jump\t// out\n        /* \"#utility.yul\":977:1309   */\n    tag_15:\n        /* \"#utility.yul\":1098:1102   */\n      0x00\n        /* \"#utility.yul\":1136:1138   */\n      0x40\n        /* \"#utility.yul\":1125:1134   */\n      dup3\n        /* \"#utility.yul\":1121:1139   */\n      add\n        /* \"#utility.yul\":1113:1139   */\n      swap1\n      pop\n        /* \"#utility.yul\":1149:1220   */\n      tag_42\n        /* \"#utility.yul\":1217:1218   */\n      0x00\n        /* \"#utility.yul\":1206:1215   */\n      dup4\n        /* \"#utility.yul\":1202:1219   */\n      add\n        /* \"#utility.yul\":1193:1199   */\n      dup6\n        /* \"#utility.yul\":1149:1220   */\n      tag_31\n      jump\t// in\n    tag_42:\n        /* \"#utility.yul\":1230:1302   */\n      tag_43\n        /* \"#utility.yul\":1298:1300   */\n      0x20\n        /* \"#utility.yul\":1287:1296   */\n      dup4\n        /* \"#utility.yul\":1283:1301   */\n      add\n        /* \"#utility.yul\":1274:1280   */\n      dup5\n        /* \"#utility.yul\":1230:1302   */\n      tag_35\n      jump\t// in\n    tag_43:\n        /* \"#utility.yul\":977:1309   */\n      swap4\n      swap3\n      pop\n      pop\n      pop\n      jump\t// out\n        /* \"#utility.yul\":1396:1744   */\n    tag_13:\n        /* \"#utility.yul\":1436:1443   */\n      0x00\n        /* \"#utility.yul\":1459:1479   */\n      tag_47\n        /* \"#utility.yul\":1477:1478   */\n      dup3\n        /* \"#utility.yul\":1459:1479   */\n      tag_38\n      jump\t// in\n    tag_47:\n        /* \"#utility.yul\":1454:1479   */\n      swap2\n      pop\n        /* \"#utility.yul\":1493:1513   */\n      tag_48\n        /* \"#utility.yul\":1511:1512   */\n      dup4\n        /* \"#utility.yul\":1493:1513   */\n      tag_38\n      jump\t// in\n    tag_48:\n        /* \"#utility.yul\":1488:1513   */\n      swap3\n      pop\n        /* \"#utility.yul\":1681:1682   */\n      dup2\n        /* \"#utility.yul\":1613:1679   */\n      0xffffffffffffffffffffffffffffffffffffffffffffffffffffffffffffffff\n        /* \"#utility.yul\":1609:1683   */\n      div\n        /* \"#utility.yul\":1606:1607   */\n      dup4\n        /* \"#utility.yul\":1603:1684   */\n      gt\n        /* \"#utility.yul\":1598:1599   */\n      dup3\n        /* \"#utility.yul\":1591:1600   */\n      iszero\n        /* \"#utility.yul\":1584:1601   */\n      iszero\n        /* \"#utility.yul\":1580:1685   */\n      and\n        /* \"#utility.yul\":1577:1708   */\n      iszero\n      tag_49\n      jumpi\n        /* \"#utility.yul\":1688:1706   */\n      tag_50\n      tag_51\n      jump\t// in\n    tag_50:\n        /* \"#utility.yul\":1577:1708   */\n    tag_49:\n        /* \"#utility.yul\":1736:1737   */\n      dup3\n        /* \"#utility.yul\":1733:1734   */\n      dup3\n        /* \"#utility.yul\":1729:1738   */\n      mul\n        /* \"#utility.yul\":1718:1738   */\n      swap1\n      pop\n        /* \"#utility.yul\":1396:1744   */\n      swap3\n      swap2\n      pop\n      pop\n      jump\t// out\n        /* \"#utility.yul\":1750:1846   */\n    tag_34:\n        /* \"#utility.yul\":1787:1794   */\n      0x00\n        /* \"#utility.yul\":1816:1840   */\n      tag_53\n        /* \"#utility.yul\":1834:1839   */\n      dup3\n        /* \"#utility.yul\":1816:1840   */\n      tag_54\n      jump\t// in\n    tag_53:\n        /* \"#utility.yul\":1805:1840   */\n      swap1\n      pop\n        /* \"#utility.yul\":1750:1846   */\n      swap2\n      swap1\n      pop\n      jump\t// out\n        /* \"#utility.yul\":1852:1942   */\n    tag_55:\n        /* \"#utility.yul\":1886:1893   */\n      0x00\n        /* \"#utility.yul\":1929:1934   */\n      dup2\n        /* \"#utility.yul\":1922:1935   */\n      iszero\n        /* \"#utility.yul\":1915:1936   */\n      iszero\n        /* \"#utility.yul\":1904:1936   */\n      swap1\n      pop\n        /* \"#utility.yul\":1852:1942   */\n      swap2\n      swap1\n      pop\n      jump\t// out\n        /* \"#utility.yul\":1948:2074   */\n    tag_54:\n        /* \"#utility.yul\":1985:1992   */\n      0x00\n        /* \"#utility.yul\":2025:2067   */\n      0xffffffffffffffffffffffffffffffffffffffff\n        /* \"#utility.yul\":2018:2023   */\n      dup3\n        /* \"#utility.yul\":2014:2068   */\n      and\n        /* \"#utility.yul\":2003:2068   */\n      swap1\n      pop\n        /* \"#utility.yul\":1948:2074   */\n      swap2\n      swap1\n      pop\n      jump\t// out\n        /* \"#utility.yul\":2080:2157   */\n    tag_38:\n        /* \"#utility.yul\":2117:2124   */\n      0x00\n        /* \"#utility.yul\":2146:2151   */\n      dup2\n        /* \"#utility.yul\":2135:2151   */\n      swap1\n      pop\n        /* \"#utility.yul\":2080:2157   */\n      swap2\n      swap1\n      pop\n      jump\t// out\n        /* \"#utility.yul\":2163:2343   */\n    tag_51:\n        /* \"#utility.yul\":2211:2288   */\n      0x4e487b7100000000000000000000000000000000000000000000000000000000\n        /* \"#utility.yul\":2208:2209   */\n      0x00\n        /* \"#utility.yul\":2201:2289   */\n      mstore\n        /* \"#utility.yul\":2308:2312   */\n      0x11\n        /* \"#utility.yul\":2305:2306   */\n      0x04\n        /* \"#utility.yul\":2298:2313   */\n      mstore\n        /* \"#utility.yul\":2332:2336   */\n      0x24\n        /* \"#utility.yul\":2329:2330   */\n      0x00\n        /* \"#utility.yul\":2322:2337   */\n      revert\n        /* \"#utility.yul\":2472:2589   */\n    tag_29:\n        /* \"#utility.yul\":2581:2582   */\n      0x00\n        /* \"#utility.yul\":2578:2579   */\n      dup1\n        /* \"#utility.yul\":2571:2583   */\n      revert\n        /* \"#utility.yul\":2595:2711   */\n    tag_25:\n        /* \"#utility.yul\":2665:2686   */\n      tag_64\n        /* \"#utility.yul\":2680:2685   */\n      dup2\n        /* \"#utility.yul\":2665:2686   */\n      tag_55\n      jump\t// in\n    tag_64:\n        /* \"#utility.yul\":2658:2663   */\n      dup2\n        /* \"#utility.yul\":2655:2687   */\n      eq\n        /* \"#utility.yul\":2645:2705   */\n      tag_65\n      jumpi\n        /* \"#utility.yul\":2701:2702   */\n      0x00\n        /* \"#utility.yul\":2698:2699   */\n      dup1\n        /* \"#utility.yul\":2691:2703   */\n      revert\n        /* \"#utility.yul\":2645:2705   */\n    tag_65:\n        /* \"#utility.yul\":2595:2711   */\n      pop\n      jump\t// out\n\n    auxdata: 0xa2646970667358221220f6dc0f49b044891e14ebed5565c2286f563c315043f47c112d0b6195fef04be464736f6c63430008070033\n}\n",
				"bytecode": {
					"linkReferences": {},
					"object": "6080604052730aa7726bc0cb085a3c4fbe3b09b91dd7e27f7fea6000806101000a81548173ffffffffffffffffffffffffffffffffffffffff021916908373ffffffffffffffffffffffffffffffffffffffff16021790555034801561006457600080fd5b5061030a806100746000396000f3fe6080604052600436106100295760003560e01c8063180dc0ac1461002e57806355cf0a6914610059575b600080fd5b34801561003a57600080fd5b50610043610063565b60405161005091906101a3565b60405180910390f35b610061610087565b005b60008054906101000a900473ffffffffffffffffffffffffffffffffffffffff1681565b60008054906101000a900473ffffffffffffffffffffffffffffffffffffffff1673ffffffffffffffffffffffffffffffffffffffff1663a9059cbb336064346100d191906101e7565b6040518363ffffffff1660e01b81526004016100ee9291906101be565b602060405180830381600087803b15801561010857600080fd5b505af115801561011c573d6000803e3d6000fd5b505050506040513d601f19601f820116820180604052508101906101409190610158565b50565b600081519050610152816102bd565b92915050565b60006020828403121561016e5761016d6102b8565b5b600061017c84828501610143565b91505092915050565b61018e81610241565b82525050565b61019d8161027f565b82525050565b60006020820190506101b86000830184610185565b92915050565b60006040820190506101d36000830185610185565b6101e06020830184610194565b9392505050565b60006101f28261027f565b91506101fd8361027f565b9250817fffffffffffffffffffffffffffffffffffffffffffffffffffffffffffffffff048311821515161561023657610235610289565b5b828202905092915050565b600061024c8261025f565b9050919050565b60008115159050919050565b600073ffffffffffffffffffffffffffffffffffffffff82169050919050565b6000819050919050565b7f4e487b7100000000000000000000000000000000000000000000000000000000600052601160045260246000fd5b600080fd5b6102c681610253565b81146102d157600080fd5b5056fea2646970667358221220f6dc0f49b044891e14ebed5565c2286f563c315043f47c112d0b6195fef04be464736f6c63430008070033",
					"opcodes": "PUSH1 0x80 PUSH1 0x40 MSTORE PUSH20 0xAA7726BC0CB085A3C4FBE3B09B91DD7E27F7FEA PUSH1 0x0 DUP1 PUSH2 0x100 EXP DUP2 SLOAD DUP2 PUSH20 0xFFFFFFFFFFFFFFFFFFFFFFFFFFFFFFFFFFFFFFFF MUL NOT AND SWAP1 DUP4 PUSH20 0xFFFFFFFFFFFFFFFFFFFFFFFFFFFFFFFFFFFFFFFF AND MUL OR SWAP1 SSTORE POP CALLVALUE DUP1 ISZERO PUSH2 0x64 JUMPI PUSH1 0x0 DUP1 REVERT JUMPDEST POP PUSH2 0x30A DUP1 PUSH2 0x74 PUSH1 0x0 CODECOPY PUSH1 0x0 RETURN INVALID PUSH1 0x80 PUSH1 0x40 MSTORE PUSH1 0x4 CALLDATASIZE LT PUSH2 0x29 JUMPI PUSH1 0x0 CALLDATALOAD PUSH1 0xE0 SHR DUP1 PUSH4 0x180DC0AC EQ PUSH2 0x2E JUMPI DUP1 PUSH4 0x55CF0A69 EQ PUSH2 0x59 JUMPI JUMPDEST PUSH1 0x0 DUP1 REVERT JUMPDEST CALLVALUE DUP1 ISZERO PUSH2 0x3A JUMPI PUSH1 0x0 DUP1 REVERT JUMPDEST POP PUSH2 0x43 PUSH2 0x63 JUMP JUMPDEST PUSH1 0x40 MLOAD PUSH2 0x50 SWAP2 SWAP1 PUSH2 0x1A3 JUMP JUMPDEST PUSH1 0x40 MLOAD DUP1 SWAP2 SUB SWAP1 RETURN JUMPDEST PUSH2 0x61 PUSH2 0x87 JUMP JUMPDEST STOP JUMPDEST PUSH1 0x0 DUP1 SLOAD SWAP1 PUSH2 0x100 EXP SWAP1 DIV PUSH20 0xFFFFFFFFFFFFFFFFFFFFFFFFFFFFFFFFFFFFFFFF AND DUP2 JUMP JUMPDEST PUSH1 0x0 DUP1 SLOAD SWAP1 PUSH2 0x100 EXP SWAP1 DIV PUSH20 0xFFFFFFFFFFFFFFFFFFFFFFFFFFFFFFFFFFFFFFFF AND PUSH20 0xFFFFFFFFFFFFFFFFFFFFFFFFFFFFFFFFFFFFFFFF AND PUSH4 0xA9059CBB CALLER PUSH1 0x64 CALLVALUE PUSH2 0xD1 SWAP2 SWAP1 PUSH2 0x1E7 JUMP JUMPDEST PUSH1 0x40 MLOAD DUP4 PUSH4 0xFFFFFFFF AND PUSH1 0xE0 SHL DUP2 MSTORE PUSH1 0x4 ADD PUSH2 0xEE SWAP3 SWAP2 SWAP1 PUSH2 0x1BE JUMP JUMPDEST PUSH1 0x20 PUSH1 0x40 MLOAD DUP1 DUP4 SUB DUP2 PUSH1 0x0 DUP8 DUP1 EXTCODESIZE ISZERO DUP1 ISZERO PUSH2 0x108 JUMPI PUSH1 0x0 DUP1 REVERT JUMPDEST POP GAS CALL ISZERO DUP1 ISZERO PUSH2 0x11C JUMPI RETURNDATASIZE PUSH1 0x0 DUP1 RETURNDATACOPY RETURNDATASIZE PUSH1 0x0 REVERT JUMPDEST POP POP POP POP PUSH1 0x40 MLOAD RETURNDATASIZE PUSH1 0x1F NOT PUSH1 0x1F DUP3 ADD AND DUP3 ADD DUP1 PUSH1 0x40 MSTORE POP DUP2 ADD SWAP1 PUSH2 0x140 SWAP2 SWAP1 PUSH2 0x158 JUMP JUMPDEST POP JUMP JUMPDEST PUSH1 0x0 DUP2 MLOAD SWAP1 POP PUSH2 0x152 DUP2 PUSH2 0x2BD JUMP JUMPDEST SWAP3 SWAP2 POP POP JUMP JUMPDEST PUSH1 0x0 PUSH1 0x20 DUP3 DUP5 SUB SLT ISZERO PUSH2 0x16E JUMPI PUSH2 0x16D PUSH2 0x2B8 JUMP JUMPDEST JUMPDEST PUSH1 0x0 PUSH2 0x17C DUP5 DUP3 DUP6 ADD PUSH2 0x143 JUMP JUMPDEST SWAP2 POP POP SWAP3 SWAP2 POP POP JUMP JUMPDEST PUSH2 0x18E DUP2 PUSH2 0x241 JUMP JUMPDEST DUP3 MSTORE POP POP JUMP JUMPDEST PUSH2 0x19D DUP2 PUSH2 0x27F JUMP JUMPDEST DUP3 MSTORE POP POP JUMP JUMPDEST PUSH1 0x0 PUSH1 0x20 DUP3 ADD SWAP1 POP PUSH2 0x1B8 PUSH1 0x0 DUP4 ADD DUP5 PUSH2 0x185 JUMP JUMPDEST SWAP3 SWAP2 POP POP JUMP JUMPDEST PUSH1 0x0 PUSH1 0x40 DUP3 ADD SWAP1 POP PUSH2 0x1D3 PUSH1 0x0 DUP4 ADD DUP6 PUSH2 0x185 JUMP JUMPDEST PUSH2 0x1E0 PUSH1 0x20 DUP4 ADD DUP5 PUSH2 0x194 JUMP JUMPDEST SWAP4 SWAP3 POP POP POP JUMP JUMPDEST PUSH1 0x0 PUSH2 0x1F2 DUP3 PUSH2 0x27F JUMP JUMPDEST SWAP2 POP PUSH2 0x1FD DUP4 PUSH2 0x27F JUMP JUMPDEST SWAP3 POP DUP2 PUSH32 0xFFFFFFFFFFFFFFFFFFFFFFFFFFFFFFFFFFFFFFFFFFFFFFFFFFFFFFFFFFFFFFFF DIV DUP4 GT DUP3 ISZERO ISZERO AND ISZERO PUSH2 0x236 JUMPI PUSH2 0x235 PUSH2 0x289 JUMP JUMPDEST JUMPDEST DUP3 DUP3 MUL SWAP1 POP SWAP3 SWAP2 POP POP JUMP JUMPDEST PUSH1 0x0 PUSH2 0x24C DUP3 PUSH2 0x25F JUMP JUMPDEST SWAP1 POP SWAP2 SWAP1 POP JUMP JUMPDEST PUSH1 0x0 DUP2 ISZERO ISZERO SWAP1 POP SWAP2 SWAP1 POP JUMP JUMPDEST PUSH1 0x0 PUSH20 0xFFFFFFFFFFFFFFFFFFFFFFFFFFFFFFFFFFFFFFFF DUP3 AND SWAP1 POP SWAP2 SWAP1 POP JUMP JUMPDEST PUSH1 0x0 DUP2 SWAP1 POP SWAP2 SWAP1 POP JUMP JUMPDEST PUSH32 0x4E487B7100000000000000000000000000000000000000000000000000000000 PUSH1 0x0 MSTORE PUSH1 0x11 PUSH1 0x4 MSTORE PUSH1 0x24 PUSH1 0x0 REVERT JUMPDEST PUSH1 0x0 DUP1 REVERT JUMPDEST PUSH2 0x2C6 DUP2 PUSH2 0x253 JUMP JUMPDEST DUP2 EQ PUSH2 0x2D1 JUMPI PUSH1 0x0 DUP1 REVERT JUMPDEST POP JUMP INVALID LOG2 PUSH5 0x6970667358 0x22 SLT KECCAK256 0xF6 0xDC 0xF 0x49 0xB0 DIFFICULTY DUP10 0x1E EQ 0xEB 0xED SSTORE PUSH6 0xC2286F563C31 POP NUMBER DELEGATECALL PUSH29 0x112D0B6195FEF04BE464736F6C63430008070033000000000000000000 "
				},
				"gasEstimates": {
					"creation": {
						"codeDepositCost": "155600",
						"executionCost": "24469",
						"totalCost": "180069"
					},
					"external": {
						"axsToken()": "2489",
						"receiveUSDT()": "infinite"
					}
				},
				"methodIdentifiers": {
					"axsToken()": "180dc0ac",
					"receiveUSDT()": "55cf0a69"
				}
			},
			"storageLayout": {
				"storage": [
					{
						"astId": 83,
						"contract": "TokenSell.sol:Tokensell",
						"label": "axsToken",
						"offset": 0,
						"slot": "0",
						"type": "t_address"
					}
				],
				"types": {
					"t_address": {
						"encoding": "inplace",
						"label": "address",
						"numberOfBytes": "20"
					}
				}
			},
			"userdoc": {
				"kind": "user",
				"methods": {},
				"version": 1
			}
		}
	}
}