{
	"Token.sol": {
		"Token": {
			"abi": [
				{
					"inputs": [
						{
							"internalType": "address",
							"name": "_minter",
							"type": "address"
						}
					],
					"stateMutability": "nonpayable",
					"type": "constructor"
				},
				{
					"inputs": [
						{
							"internalType": "address",
							"name": "",
							"type": "address"
						}
					],
					"name": "balance",
					"outputs": [
						{
							"internalType": "uint256",
							"name": "",
							"type": "uint256"
						}
					],
					"stateMutability": "view",
					"type": "function"
				},
				{
					"inputs": [],
					"name": "decimal",
					"outputs": [
						{
							"internalType": "uint256",
							"name": "",
							"type": "uint256"
						}
					],
					"stateMutability": "view",
					"type": "function"
				},
				{
					"inputs": [
						{
							"internalType": "address",
							"name": "receiver",
							"type": "address"
						},
						{
							"internalType": "uint256",
							"name": "amount",
							"type": "uint256"
						}
					],
					"name": "mint",
					"outputs": [],
					"stateMutability": "nonpayable",
					"type": "function"
				},
				{
					"inputs": [],
					"name": "minter",
					"outputs": [
						{
							"internalType": "address",
							"name": "",
							"type": "address"
						}
					],
					"stateMutability": "view",
					"type": "function"
				},
				{
					"inputs": [],
					"name": "name",
					"outputs": [
						{
							"internalType": "string",
							"name": "",
							"type": "string"
						}
					],
					"stateMutability": "view",
					"type": "function"
				},
				{
					"inputs": [],
					"name": "symbol",
					"outputs": [
						{
							"internalType": "string",
							"name": "",
							"type": "string"
						}
					],
					"stateMutability": "view",
					"type": "function"
				},
				{
					"inputs": [],
					"name": "totalSupply",
					"outputs": [
						{
							"internalType": "uint256",
							"name": "",
							"type": "uint256"
						}
					],
					"stateMutability": "view",
					"type": "function"
				}
			],
			"devdoc": {
				"kind": "dev",
				"methods": {},
				"version": 1
			},
			"evm": {
				"assembly": "    /* \"Token.sol\":62:641  contract Token {... */\n  mstore(0x40, 0x80)\n    /* \"Token.sol\":83:114  string public name = \"solidity\" */\n  mload(0x40)\n  dup1\n  0x40\n  add\n  0x40\n  mstore\n  dup1\n  0x08\n  dup2\n  mstore\n  0x20\n  add\n  0x736f6c6964697479000000000000000000000000000000000000000000000000\n  dup2\n  mstore\n  pop\n  0x00\n  swap1\n  dup1\n  mload\n  swap1\n  0x20\n  add\n  swap1\n  tag_1\n  swap3\n  swap2\n  swap1\n  tag_2\n  jump\t// in\ntag_1:\n  pop\n    /* \"Token.sol\":120:148  string public symbol = \"SOL\" */\n  mload(0x40)\n  dup1\n  0x40\n  add\n  0x40\n  mstore\n  dup1\n  0x03\n  dup2\n  mstore\n  0x20\n  add\n  0x534f4c0000000000000000000000000000000000000000000000000000000000\n  dup2\n  mstore\n  pop\n  0x01\n  swap1\n  dup1\n  mload\n  swap1\n  0x20\n  add\n  swap1\n  tag_3\n  swap3\n  swap2\n  swap1\n  tag_2\n  jump\t// in\ntag_3:\n  pop\n    /* \"Token.sol\":179:181  18 */\n  0x12\n    /* \"Token.sol\":154:181  uint256 public decimal = 18 */\n  0x02\n  sstore\n    /* \"Token.sol\":216:225  210000000 */\n  0x0c845880\n    /* \"Token.sol\":187:225  uint256 public totalSupply = 210000000 */\n  0x03\n  sstore\n    /* \"Token.sol\":346:413  constructor(address _minter)public{... */\n  callvalue\n  dup1\n  iszero\n  tag_4\n  jumpi\n  0x00\n  dup1\n  revert\ntag_4:\n  pop\n  mload(0x40)\n  sub(codesize, bytecodeSize)\n  dup1\n  bytecodeSize\n  dup4\n  codecopy\n  dup2\n  dup2\n  add\n  0x40\n  mstore\n  dup2\n  add\n  swap1\n  tag_5\n  swap2\n  swap1\n  tag_6\n  jump\t// in\ntag_5:\n    /* \"Token.sol\":399:406  _minter */\n  dup1\n    /* \"Token.sol\":390:396  minter */\n  0x04\n  0x00\n    /* \"Token.sol\":390:406  minter = _minter */\n  0x0100\n  exp\n  dup2\n  sload\n  dup2\n  0xffffffffffffffffffffffffffffffffffffffff\n  mul\n  not\n  and\n  swap1\n  dup4\n  0xffffffffffffffffffffffffffffffffffffffff\n  and\n  mul\n  or\n  swap1\n  sstore\n  pop\n    /* \"Token.sol\":346:413  constructor(address _minter)public{... */\n  pop\n    /* \"Token.sol\":62:641  contract Token {... */\n  jump(tag_9)\ntag_2:\n  dup3\n  dup1\n  sload\n  tag_10\n  swap1\n  tag_11\n  jump\t// in\ntag_10:\n  swap1\n  0x00\n  mstore\n  keccak256(0x00, 0x20)\n  swap1\n  0x1f\n  add\n  0x20\n  swap1\n  div\n  dup2\n  add\n  swap3\n  dup3\n  tag_13\n  jumpi\n  0x00\n  dup6\n  sstore\n  jump(tag_12)\ntag_13:\n  dup3\n  0x1f\n  lt\n  tag_14\n  jumpi\n  dup1\n  mload\n  not(0xff)\n  and\n  dup4\n  dup1\n  add\n  or\n  dup6\n  sstore\n  jump(tag_12)\ntag_14:\n  dup3\n  dup1\n  add\n  0x01\n  add\n  dup6\n  sstore\n  dup3\n  iszero\n  tag_12\n  jumpi\n  swap2\n  dup3\n  add\ntag_15:\n  dup3\n  dup2\n  gt\n  iszero\n  tag_16\n  jumpi\n  dup3\n  mload\n  dup3\n  sstore\n  swap2\n  0x20\n  add\n  swap2\n  swap1\n  0x01\n  add\n  swap1\n  jump(tag_15)\ntag_16:\ntag_12:\n  pop\n  swap1\n  pop\n  tag_17\n  swap2\n  swap1\n  tag_18\n  jump\t// in\ntag_17:\n  pop\n  swap1\n  jump\t// out\ntag_18:\ntag_19:\n  dup1\n  dup3\n  gt\n  iszero\n  tag_20\n  jumpi\n  0x00\n  dup2\n  0x00\n  swap1\n  sstore\n  pop\n  0x01\n  add\n  jump(tag_19)\ntag_20:\n  pop\n  swap1\n  jump\t// out\n    /* \"#utility.yul\":7:150   */\ntag_22:\n    /* \"#utility.yul\":64:69   */\n  0x00\n    /* \"#utility.yul\":95:101   */\n  dup2\n    /* \"#utility.yul\":89:102   */\n  mload\n    /* \"#utility.yul\":80:102   */\n  swap1\n  pop\n    /* \"#utility.yul\":111:144   */\n  tag_24\n    /* \"#utility.yul\":138:143   */\n  dup2\n    /* \"#utility.yul\":111:144   */\n  tag_25\n  jump\t// in\ntag_24:\n    /* \"#utility.yul\":7:150   */\n  swap3\n  swap2\n  pop\n  pop\n  jump\t// out\n    /* \"#utility.yul\":156:507   */\ntag_6:\n    /* \"#utility.yul\":226:232   */\n  0x00\n    /* \"#utility.yul\":275:277   */\n  0x20\n    /* \"#utility.yul\":263:272   */\n  dup3\n    /* \"#utility.yul\":254:261   */\n  dup5\n    /* \"#utility.yul\":250:273   */\n  sub\n    /* \"#utility.yul\":246:278   */\n  slt\n    /* \"#utility.yul\":243:362   */\n  iszero\n  tag_27\n  jumpi\n    /* \"#utility.yul\":281:360   */\n  tag_28\n  tag_29\n  jump\t// in\ntag_28:\n    /* \"#utility.yul\":243:362   */\ntag_27:\n    /* \"#utility.yul\":401:402   */\n  0x00\n    /* \"#utility.yul\":426:490   */\n  tag_30\n    /* \"#utility.yul\":482:489   */\n  dup5\n    /* \"#utility.yul\":473:479   */\n  dup3\n    /* \"#utility.yul\":462:471   */\n  dup6\n    /* \"#utility.yul\":458:480   */\n  add\n    /* \"#utility.yul\":426:490   */\n  tag_22\n  jump\t// in\ntag_30:\n    /* \"#utility.yul\":416:490   */\n  swap2\n  pop\n    /* \"#utility.yul\":372:500   */\n  pop\n    /* \"#utility.yul\":156:507   */\n  swap3\n  swap2\n  pop\n  pop\n  jump\t// out\n    /* \"#utility.yul\":594:690   */\ntag_33:\n    /* \"#utility.yul\":631:638   */\n  0x00\n    /* \"#utility.yul\":660:684   */\n  tag_35\n    /* \"#utility.yul\":678:683   */\n  dup3\n    /* \"#utility.yul\":660:684   */\n  tag_36\n  jump\t// in\ntag_35:\n    /* \"#utility.yul\":649:684   */\n  swap1\n  pop\n    /* \"#utility.yul\":594:690   */\n  swap2\n  swap1\n  pop\n  jump\t// out\n    /* \"#utility.yul\":696:822   */\ntag_36:\n    /* \"#utility.yul\":733:740   */\n  0x00\n    /* \"#utility.yul\":773:815   */\n  0xffffffffffffffffffffffffffffffffffffffff\n    /* \"#utility.yul\":766:771   */\n  dup3\n    /* \"#utility.yul\":762:816   */\n  and\n    /* \"#utility.yul\":751:816   */\n  swap1\n  pop\n    /* \"#utility.yul\":696:822   */\n  swap2\n  swap1\n  pop\n  jump\t// out\n    /* \"#utility.yul\":828:1148   */\ntag_11:\n    /* \"#utility.yul\":872:878   */\n  0x00\n    /* \"#utility.yul\":909:910   */\n  0x02\n    /* \"#utility.yul\":903:907   */\n  dup3\n    /* \"#utility.yul\":899:911   */\n  div\n    /* \"#utility.yul\":889:911   */\n  swap1\n  pop\n    /* \"#utility.yul\":956:957   */\n  0x01\n    /* \"#utility.yul\":950:954   */\n  dup3\n    /* \"#utility.yul\":946:958   */\n  and\n    /* \"#utility.yul\":977:995   */\n  dup1\n    /* \"#utility.yul\":967:1048   */\n  tag_39\n  jumpi\n    /* \"#utility.yul\":1033:1037   */\n  0x7f\n    /* \"#utility.yul\":1025:1031   */\n  dup3\n    /* \"#utility.yul\":1021:1038   */\n  and\n    /* \"#utility.yul\":1011:1038   */\n  swap2\n  pop\n    /* \"#utility.yul\":967:1048   */\ntag_39:\n    /* \"#utility.yul\":1095:1097   */\n  0x20\n    /* \"#utility.yul\":1087:1093   */\n  dup3\n    /* \"#utility.yul\":1084:1098   */\n  lt\n    /* \"#utility.yul\":1064:1082   */\n  dup2\n    /* \"#utility.yul\":1061:1099   */\n  eq\n    /* \"#utility.yul\":1058:1142   */\n  iszero\n  tag_40\n  jumpi\n    /* \"#utility.yul\":1114:1132   */\n  tag_41\n  tag_42\n  jump\t// in\ntag_41:\n    /* \"#utility.yul\":1058:1142   */\ntag_40:\n    /* \"#utility.yul\":879:1148   */\n  pop\n    /* \"#utility.yul\":828:1148   */\n  swap2\n  swap1\n  pop\n  jump\t// out\n    /* \"#utility.yul\":1154:1334   */\ntag_42:\n    /* \"#utility.yul\":1202:1279   */\n  0x4e487b7100000000000000000000000000000000000000000000000000000000\n    /* \"#utility.yul\":1199:1200   */\n  0x00\n    /* \"#utility.yul\":1192:1280   */\n  mstore\n    /* \"#utility.yul\":1299:1303   */\n  0x22\n    /* \"#utility.yul\":1296:1297   */\n  0x04\n    /* \"#utility.yul\":1289:1304   */\n  mstore\n    /* \"#utility.yul\":1323:1327   */\n  0x24\n    /* \"#utility.yul\":1320:1321   */\n  0x00\n    /* \"#utility.yul\":1313:1328   */\n  revert\n    /* \"#utility.yul\":1463:1580   */\ntag_29:\n    /* \"#utility.yul\":1572:1573   */\n  0x00\n    /* \"#utility.yul\":1569:1570   */\n  dup1\n    /* \"#utility.yul\":1562:1574   */\n  revert\n    /* \"#utility.yul\":1586:1708   */\ntag_25:\n    /* \"#utility.yul\":1659:1683   */\n  tag_48\n    /* \"#utility.yul\":1677:1682   */\n  dup2\n    /* \"#utility.yul\":1659:1683   */\n  tag_33\n  jump\t// in\ntag_48:\n    /* \"#utility.yul\":1652:1657   */\n  dup2\n    /* \"#utility.yul\":1649:1684   */\n  eq\n    /* \"#utility.yul\":1639:1702   */\n  tag_49\n  jumpi\n    /* \"#utility.yul\":1698:1699   */\n  0x00\n    /* \"#utility.yul\":1695:1696   */\n  dup1\n    /* \"#utility.yul\":1688:1700   */\n  revert\n    /* \"#utility.yul\":1639:1702   */\ntag_49:\n    /* \"#utility.yul\":1586:1708   */\n  pop\n  jump\t// out\n    /* \"Token.sol\":62:641  contract Token {... */\ntag_9:\n  dataSize(sub_0)\n  dup1\n  dataOffset(sub_0)\n  0x00\n  codecopy\n  0x00\n  return\nstop\n\nsub_0: assembly {\n        /* \"Token.sol\":62:641  contract Token {... */\n      mstore(0x40, 0x80)\n      callvalue\n      dup1\n      iszero\n      tag_1\n      jumpi\n      0x00\n      dup1\n      revert\n    tag_1:\n      pop\n      jumpi(tag_2, lt(calldatasize, 0x04))\n      shr(0xe0, calldataload(0x00))\n      dup1\n      0x40c10f19\n      gt\n      tag_10\n      jumpi\n      dup1\n      0x40c10f19\n      eq\n      tag_6\n      jumpi\n      dup1\n      0x76809ce3\n      eq\n      tag_7\n      jumpi\n      dup1\n      0x95d89b41\n      eq\n      tag_8\n      jumpi\n      dup1\n      0xe3d670d7\n      eq\n      tag_9\n      jumpi\n      jump(tag_2)\n    tag_10:\n      dup1\n      0x06fdde03\n      eq\n      tag_3\n      jumpi\n      dup1\n      0x07546172\n      eq\n      tag_4\n      jumpi\n      dup1\n      0x18160ddd\n      eq\n      tag_5\n      jumpi\n    tag_2:\n      0x00\n      dup1\n      revert\n        /* \"Token.sol\":83:114  string public name = \"solidity\" */\n    tag_3:\n      tag_11\n      tag_12\n      jump\t// in\n    tag_11:\n      mload(0x40)\n      tag_13\n      swap2\n      swap1\n      tag_14\n      jump\t// in\n    tag_13:\n      mload(0x40)\n      dup1\n      swap2\n      sub\n      swap1\n      return\n        /* \"Token.sol\":231:252  address public minter */\n    tag_4:\n      tag_15\n      tag_16\n      jump\t// in\n    tag_15:\n      mload(0x40)\n      tag_17\n      swap2\n      swap1\n      tag_18\n      jump\t// in\n    tag_17:\n      mload(0x40)\n      dup1\n      swap2\n      sub\n      swap1\n      return\n        /* \"Token.sol\":187:225  uint256 public totalSupply = 210000000 */\n    tag_5:\n      tag_19\n      tag_20\n      jump\t// in\n    tag_19:\n      mload(0x40)\n      tag_21\n      swap2\n      swap1\n      tag_22\n      jump\t// in\n    tag_21:\n      mload(0x40)\n      dup1\n      swap2\n      sub\n      swap1\n      return\n        /* \"Token.sol\":530:635  function mint(address receiver, uint amount) public onlyOwner{... */\n    tag_6:\n      tag_23\n      0x04\n      dup1\n      calldatasize\n      sub\n      dup2\n      add\n      swap1\n      tag_24\n      swap2\n      swap1\n      tag_25\n      jump\t// in\n    tag_24:\n      tag_26\n      jump\t// in\n    tag_23:\n      stop\n        /* \"Token.sol\":154:181  uint256 public decimal = 18 */\n    tag_7:\n      tag_27\n      tag_28\n      jump\t// in\n    tag_27:\n      mload(0x40)\n      tag_29\n      swap2\n      swap1\n      tag_22\n      jump\t// in\n    tag_29:\n      mload(0x40)\n      dup1\n      swap2\n      sub\n      swap1\n      return\n        /* \"Token.sol\":120:148  string public symbol = \"SOL\" */\n    tag_8:\n      tag_30\n      tag_31\n      jump\t// in\n    tag_30:\n      mload(0x40)\n      tag_32\n      swap2\n      swap1\n      tag_14\n      jump\t// in\n    tag_32:\n      mload(0x40)\n      dup1\n      swap2\n      sub\n      swap1\n      return\n        /* \"Token.sol\":275:314  mapping(address => uint) public balance */\n    tag_9:\n      tag_33\n      0x04\n      dup1\n      calldatasize\n      sub\n      dup2\n      add\n      swap1\n      tag_34\n      swap2\n      swap1\n      tag_35\n      jump\t// in\n    tag_34:\n      tag_36\n      jump\t// in\n    tag_33:\n      mload(0x40)\n      tag_37\n      swap2\n      swap1\n      tag_22\n      jump\t// in\n    tag_37:\n      mload(0x40)\n      dup1\n      swap2\n      sub\n      swap1\n      return\n        /* \"Token.sol\":83:114  string public name = \"solidity\" */\n    tag_12:\n      0x00\n      dup1\n      sload\n      tag_38\n      swap1\n      tag_39\n      jump\t// in\n    tag_38:\n      dup1\n      0x1f\n      add\n      0x20\n      dup1\n      swap2\n      div\n      mul\n      0x20\n      add\n      mload(0x40)\n      swap1\n      dup2\n      add\n      0x40\n      mstore\n      dup1\n      swap3\n      swap2\n      swap1\n      dup2\n      dup2\n      mstore\n      0x20\n      add\n      dup3\n      dup1\n      sload\n      tag_40\n      swap1\n      tag_39\n      jump\t// in\n    tag_40:\n      dup1\n      iszero\n      tag_41\n      jumpi\n      dup1\n      0x1f\n      lt\n      tag_42\n      jumpi\n      0x0100\n      dup1\n      dup4\n      sload\n      div\n      mul\n      dup4\n      mstore\n      swap2\n      0x20\n      add\n      swap2\n      jump(tag_41)\n    tag_42:\n      dup3\n      add\n      swap2\n      swap1\n      0x00\n      mstore\n      keccak256(0x00, 0x20)\n      swap1\n    tag_43:\n      dup2\n      sload\n      dup2\n      mstore\n      swap1\n      0x01\n      add\n      swap1\n      0x20\n      add\n      dup1\n      dup4\n      gt\n      tag_43\n      jumpi\n      dup3\n      swap1\n      sub\n      0x1f\n      and\n      dup3\n      add\n      swap2\n    tag_41:\n      pop\n      pop\n      pop\n      pop\n      pop\n      dup2\n      jump\t// out\n        /* \"Token.sol\":231:252  address public minter */\n    tag_16:\n      0x04\n      0x00\n      swap1\n      sload\n      swap1\n      0x0100\n      exp\n      swap1\n      div\n      0xffffffffffffffffffffffffffffffffffffffff\n      and\n      dup2\n      jump\t// out\n        /* \"Token.sol\":187:225  uint256 public totalSupply = 210000000 */\n    tag_20:\n      sload(0x03)\n      dup2\n      jump\t// out\n        /* \"Token.sol\":530:635  function mint(address receiver, uint amount) public onlyOwner{... */\n    tag_26:\n        /* \"Token.sol\":478:484  minter */\n      0x04\n      0x00\n      swap1\n      sload\n      swap1\n      0x0100\n      exp\n      swap1\n      div\n      0xffffffffffffffffffffffffffffffffffffffff\n      and\n        /* \"Token.sol\":464:484  msg.sender == minter */\n      0xffffffffffffffffffffffffffffffffffffffff\n      and\n        /* \"Token.sol\":464:474  msg.sender */\n      caller\n        /* \"Token.sol\":464:484  msg.sender == minter */\n      0xffffffffffffffffffffffffffffffffffffffff\n      and\n      eq\n        /* \"Token.sol\":455:507  require (msg.sender == minter,\"not is own account\" ) */\n      tag_45\n      jumpi\n      mload(0x40)\n      0x08c379a000000000000000000000000000000000000000000000000000000000\n      dup2\n      mstore\n      0x04\n      add\n      tag_46\n      swap1\n      tag_47\n      jump\t// in\n    tag_46:\n      mload(0x40)\n      dup1\n      swap2\n      sub\n      swap1\n      revert\n    tag_45:\n        /* \"Token.sol\":622:628  amount */\n      dup1\n        /* \"Token.sol\":601:608  balance */\n      0x05\n        /* \"Token.sol\":601:618  balance[receiver] */\n      0x00\n        /* \"Token.sol\":609:617  receiver */\n      dup5\n        /* \"Token.sol\":601:618  balance[receiver] */\n      0xffffffffffffffffffffffffffffffffffffffff\n      and\n      0xffffffffffffffffffffffffffffffffffffffff\n      and\n      dup2\n      mstore\n      0x20\n      add\n      swap1\n      dup2\n      mstore\n      0x20\n      add\n      0x00\n      keccak256\n      0x00\n        /* \"Token.sol\":601:628  balance[receiver] += amount */\n      dup3\n      dup3\n      sload\n      tag_49\n      swap2\n      swap1\n      tag_50\n      jump\t// in\n    tag_49:\n      swap3\n      pop\n      pop\n      dup2\n      swap1\n      sstore\n      pop\n        /* \"Token.sol\":530:635  function mint(address receiver, uint amount) public onlyOwner{... */\n      pop\n      pop\n      jump\t// out\n        /* \"Token.sol\":154:181  uint256 public decimal = 18 */\n    tag_28:\n      sload(0x02)\n      dup2\n      jump\t// out\n        /* \"Token.sol\":120:148  string public symbol = \"SOL\" */\n    tag_31:\n      0x01\n      dup1\n      sload\n      tag_51\n      swap1\n      tag_39\n      jump\t// in\n    tag_51:\n      dup1\n      0x1f\n      add\n      0x20\n      dup1\n      swap2\n      div\n      mul\n      0x20\n      add\n      mload(0x40)\n      swap1\n      dup2\n      add\n      0x40\n      mstore\n      dup1\n      swap3\n      swap2\n      swap1\n      dup2\n      dup2\n      mstore\n      0x20\n      add\n      dup3\n      dup1\n      sload\n      tag_52\n      swap1\n      tag_39\n      jump\t// in\n    tag_52:\n      dup1\n      iszero\n      tag_53\n      jumpi\n      dup1\n      0x1f\n      lt\n      tag_54\n      jumpi\n      0x0100\n      dup1\n      dup4\n      sload\n      div\n      mul\n      dup4\n      mstore\n      swap2\n      0x20\n      add\n      swap2\n      jump(tag_53)\n    tag_54:\n      dup3\n      add\n      swap2\n      swap1\n      0x00\n      mstore\n      keccak256(0x00, 0x20)\n      swap1\n    tag_55:\n      dup2\n      sload\n      dup2\n      mstore\n      swap1\n      0x01\n      add\n      swap1\n      0x20\n      add\n      dup1\n      dup4\n      gt\n      tag_55\n      jumpi\n      dup3\n      swap1\n      sub\n      0x1f\n      and\n      dup3\n      add\n      swap2\n    tag_53:\n      pop\n      pop\n      pop\n      pop\n      pop\n      dup2\n      jump\t// out\n        /* \"Token.sol\":275:314  mapping(address => uint) public balance */\n    tag_36:\n      mstore(0x20, 0x05)\n      dup1\n      0x00\n      mstore\n      keccak256(0x00, 0x40)\n      0x00\n      swap2\n      pop\n      swap1\n      pop\n      sload\n      dup2\n      jump\t// out\n        /* \"#utility.yul\":7:146   */\n    tag_57:\n        /* \"#utility.yul\":53:58   */\n      0x00\n        /* \"#utility.yul\":91:97   */\n      dup2\n        /* \"#utility.yul\":78:98   */\n      calldataload\n        /* \"#utility.yul\":69:98   */\n      swap1\n      pop\n        /* \"#utility.yul\":107:140   */\n      tag_59\n        /* \"#utility.yul\":134:139   */\n      dup2\n        /* \"#utility.yul\":107:140   */\n      tag_60\n      jump\t// in\n    tag_59:\n        /* \"#utility.yul\":7:146   */\n      swap3\n      swap2\n      pop\n      pop\n      jump\t// out\n        /* \"#utility.yul\":152:291   */\n    tag_61:\n        /* \"#utility.yul\":198:203   */\n      0x00\n        /* \"#utility.yul\":236:242   */\n      dup2\n        /* \"#utility.yul\":223:243   */\n      calldataload\n        /* \"#utility.yul\":214:243   */\n      swap1\n      pop\n        /* \"#utility.yul\":252:285   */\n      tag_63\n        /* \"#utility.yul\":279:284   */\n      dup2\n        /* \"#utility.yul\":252:285   */\n      tag_64\n      jump\t// in\n    tag_63:\n        /* \"#utility.yul\":152:291   */\n      swap3\n      swap2\n      pop\n      pop\n      jump\t// out\n        /* \"#utility.yul\":297:626   */\n    tag_35:\n        /* \"#utility.yul\":356:362   */\n      0x00\n        /* \"#utility.yul\":405:407   */\n      0x20\n        /* \"#utility.yul\":393:402   */\n      dup3\n        /* \"#utility.yul\":384:391   */\n      dup5\n        /* \"#utility.yul\":380:403   */\n      sub\n        /* \"#utility.yul\":376:408   */\n      slt\n        /* \"#utility.yul\":373:492   */\n      iszero\n      tag_66\n      jumpi\n        /* \"#utility.yul\":411:490   */\n      tag_67\n      tag_68\n      jump\t// in\n    tag_67:\n        /* \"#utility.yul\":373:492   */\n    tag_66:\n        /* \"#utility.yul\":531:532   */\n      0x00\n        /* \"#utility.yul\":556:609   */\n      tag_69\n        /* \"#utility.yul\":601:608   */\n      dup5\n        /* \"#utility.yul\":592:598   */\n      dup3\n        /* \"#utility.yul\":581:590   */\n      dup6\n        /* \"#utility.yul\":577:599   */\n      add\n        /* \"#utility.yul\":556:609   */\n      tag_57\n      jump\t// in\n    tag_69:\n        /* \"#utility.yul\":546:609   */\n      swap2\n      pop\n        /* \"#utility.yul\":502:619   */\n      pop\n        /* \"#utility.yul\":297:626   */\n      swap3\n      swap2\n      pop\n      pop\n      jump\t// out\n        /* \"#utility.yul\":632:1106   */\n    tag_25:\n        /* \"#utility.yul\":700:706   */\n      0x00\n        /* \"#utility.yul\":708:714   */\n      dup1\n        /* \"#utility.yul\":757:759   */\n      0x40\n        /* \"#utility.yul\":745:754   */\n      dup4\n        /* \"#utility.yul\":736:743   */\n      dup6\n        /* \"#utility.yul\":732:755   */\n      sub\n        /* \"#utility.yul\":728:760   */\n      slt\n        /* \"#utility.yul\":725:844   */\n      iszero\n      tag_71\n      jumpi\n        /* \"#utility.yul\":763:842   */\n      tag_72\n      tag_68\n      jump\t// in\n    tag_72:\n        /* \"#utility.yul\":725:844   */\n    tag_71:\n        /* \"#utility.yul\":883:884   */\n      0x00\n        /* \"#utility.yul\":908:961   */\n      tag_73\n        /* \"#utility.yul\":953:960   */\n      dup6\n        /* \"#utility.yul\":944:950   */\n      dup3\n        /* \"#utility.yul\":933:942   */\n      dup7\n        /* \"#utility.yul\":929:951   */\n      add\n        /* \"#utility.yul\":908:961   */\n      tag_57\n      jump\t// in\n    tag_73:\n        /* \"#utility.yul\":898:961   */\n      swap3\n      pop\n        /* \"#utility.yul\":854:971   */\n      pop\n        /* \"#utility.yul\":1010:1012   */\n      0x20\n        /* \"#utility.yul\":1036:1089   */\n      tag_74\n        /* \"#utility.yul\":1081:1088   */\n      dup6\n        /* \"#utility.yul\":1072:1078   */\n      dup3\n        /* \"#utility.yul\":1061:1070   */\n      dup7\n        /* \"#utility.yul\":1057:1079   */\n      add\n        /* \"#utility.yul\":1036:1089   */\n      tag_61\n      jump\t// in\n    tag_74:\n        /* \"#utility.yul\":1026:1089   */\n      swap2\n      pop\n        /* \"#utility.yul\":981:1099   */\n      pop\n        /* \"#utility.yul\":632:1106   */\n      swap3\n      pop\n      swap3\n      swap1\n      pop\n      jump\t// out\n        /* \"#utility.yul\":1112:1230   */\n    tag_75:\n        /* \"#utility.yul\":1199:1223   */\n      tag_77\n        /* \"#utility.yul\":1217:1222   */\n      dup2\n        /* \"#utility.yul\":1199:1223   */\n      tag_78\n      jump\t// in\n    tag_77:\n        /* \"#utility.yul\":1194:1197   */\n      dup3\n        /* \"#utility.yul\":1187:1224   */\n      mstore\n        /* \"#utility.yul\":1112:1230   */\n      pop\n      pop\n      jump\t// out\n        /* \"#utility.yul\":1236:1600   */\n    tag_79:\n        /* \"#utility.yul\":1324:1327   */\n      0x00\n        /* \"#utility.yul\":1352:1391   */\n      tag_81\n        /* \"#utility.yul\":1385:1390   */\n      dup3\n        /* \"#utility.yul\":1352:1391   */\n      tag_82\n      jump\t// in\n    tag_81:\n        /* \"#utility.yul\":1407:1478   */\n      tag_83\n        /* \"#utility.yul\":1471:1477   */\n      dup2\n        /* \"#utility.yul\":1466:1469   */\n      dup6\n        /* \"#utility.yul\":1407:1478   */\n      tag_84\n      jump\t// in\n    tag_83:\n        /* \"#utility.yul\":1400:1478   */\n      swap4\n      pop\n        /* \"#utility.yul\":1487:1539   */\n      tag_85\n        /* \"#utility.yul\":1532:1538   */\n      dup2\n        /* \"#utility.yul\":1527:1530   */\n      dup6\n        /* \"#utility.yul\":1520:1524   */\n      0x20\n        /* \"#utility.yul\":1513:1518   */\n      dup7\n        /* \"#utility.yul\":1509:1525   */\n      add\n        /* \"#utility.yul\":1487:1539   */\n      tag_86\n      jump\t// in\n    tag_85:\n        /* \"#utility.yul\":1564:1593   */\n      tag_87\n        /* \"#utility.yul\":1586:1592   */\n      dup2\n        /* \"#utility.yul\":1564:1593   */\n      tag_88\n      jump\t// in\n    tag_87:\n        /* \"#utility.yul\":1559:1562   */\n      dup5\n        /* \"#utility.yul\":1555:1594   */\n      add\n        /* \"#utility.yul\":1548:1594   */\n      swap2\n      pop\n        /* \"#utility.yul\":1328:1600   */\n      pop\n        /* \"#utility.yul\":1236:1600   */\n      swap3\n      swap2\n      pop\n      pop\n      jump\t// out\n        /* \"#utility.yul\":1606:1972   */\n    tag_89:\n        /* \"#utility.yul\":1748:1751   */\n      0x00\n        /* \"#utility.yul\":1769:1836   */\n      tag_91\n        /* \"#utility.yul\":1833:1835   */\n      0x12\n        /* \"#utility.yul\":1828:1831   */\n      dup4\n        /* \"#utility.yul\":1769:1836   */\n      tag_84\n      jump\t// in\n    tag_91:\n        /* \"#utility.yul\":1762:1836   */\n      swap2\n      pop\n        /* \"#utility.yul\":1845:1938   */\n      tag_92\n        /* \"#utility.yul\":1934:1937   */\n      dup3\n        /* \"#utility.yul\":1845:1938   */\n      tag_93\n      jump\t// in\n    tag_92:\n        /* \"#utility.yul\":1963:1965   */\n      0x20\n        /* \"#utility.yul\":1958:1961   */\n      dup3\n        /* \"#utility.yul\":1954:1966   */\n      add\n        /* \"#utility.yul\":1947:1966   */\n      swap1\n      pop\n        /* \"#utility.yul\":1606:1972   */\n      swap2\n      swap1\n      pop\n      jump\t// out\n        /* \"#utility.yul\":1978:2096   */\n    tag_94:\n        /* \"#utility.yul\":2065:2089   */\n      tag_96\n        /* \"#utility.yul\":2083:2088   */\n      dup2\n        /* \"#utility.yul\":2065:2089   */\n      tag_97\n      jump\t// in\n    tag_96:\n        /* \"#utility.yul\":2060:2063   */\n      dup3\n        /* \"#utility.yul\":2053:2090   */\n      mstore\n        /* \"#utility.yul\":1978:2096   */\n      pop\n      pop\n      jump\t// out\n        /* \"#utility.yul\":2102:2324   */\n    tag_18:\n        /* \"#utility.yul\":2195:2199   */\n      0x00\n        /* \"#utility.yul\":2233:2235   */\n      0x20\n        /* \"#utility.yul\":2222:2231   */\n      dup3\n        /* \"#utility.yul\":2218:2236   */\n      add\n        /* \"#utility.yul\":2210:2236   */\n      swap1\n      pop\n        /* \"#utility.yul\":2246:2317   */\n      tag_99\n        /* \"#utility.yul\":2314:2315   */\n      0x00\n        /* \"#utility.yul\":2303:2312   */\n      dup4\n        /* \"#utility.yul\":2299:2316   */\n      add\n        /* \"#utility.yul\":2290:2296   */\n      dup5\n        /* \"#utility.yul\":2246:2317   */\n      tag_75\n      jump\t// in\n    tag_99:\n        /* \"#utility.yul\":2102:2324   */\n      swap3\n      swap2\n      pop\n      pop\n      jump\t// out\n        /* \"#utility.yul\":2330:2643   */\n    tag_14:\n        /* \"#utility.yul\":2443:2447   */\n      0x00\n        /* \"#utility.yul\":2481:2483   */\n      0x20\n        /* \"#utility.yul\":2470:2479   */\n      dup3\n        /* \"#utility.yul\":2466:2484   */\n      add\n        /* \"#utility.yul\":2458:2484   */\n      swap1\n      pop\n        /* \"#utility.yul\":2530:2539   */\n      dup2\n        /* \"#utility.yul\":2524:2528   */\n      dup2\n        /* \"#utility.yul\":2520:2540   */\n      sub\n        /* \"#utility.yul\":2516:2517   */\n      0x00\n        /* \"#utility.yul\":2505:2514   */\n      dup4\n        /* \"#utility.yul\":2501:2518   */\n      add\n        /* \"#utility.yul\":2494:2541   */\n      mstore\n        /* \"#utility.yul\":2558:2636   */\n      tag_101\n        /* \"#utility.yul\":2631:2635   */\n      dup2\n        /* \"#utility.yul\":2622:2628   */\n      dup5\n        /* \"#utility.yul\":2558:2636   */\n      tag_79\n      jump\t// in\n    tag_101:\n        /* \"#utility.yul\":2550:2636   */\n      swap1\n      pop\n        /* \"#utility.yul\":2330:2643   */\n      swap3\n      swap2\n      pop\n      pop\n      jump\t// out\n        /* \"#utility.yul\":2649:3068   */\n    tag_47:\n        /* \"#utility.yul\":2815:2819   */\n      0x00\n        /* \"#utility.yul\":2853:2855   */\n      0x20\n        /* \"#utility.yul\":2842:2851   */\n      dup3\n        /* \"#utility.yul\":2838:2856   */\n      add\n        /* \"#utility.yul\":2830:2856   */\n      swap1\n      pop\n        /* \"#utility.yul\":2902:2911   */\n      dup2\n        /* \"#utility.yul\":2896:2900   */\n      dup2\n        /* \"#utility.yul\":2892:2912   */\n      sub\n        /* \"#utility.yul\":2888:2889   */\n      0x00\n        /* \"#utility.yul\":2877:2886   */\n      dup4\n        /* \"#utility.yul\":2873:2890   */\n      add\n        /* \"#utility.yul\":2866:2913   */\n      mstore\n        /* \"#utility.yul\":2930:3061   */\n      tag_103\n        /* \"#utility.yul\":3056:3060   */\n      dup2\n        /* \"#utility.yul\":2930:3061   */\n      tag_89\n      jump\t// in\n    tag_103:\n        /* \"#utility.yul\":2922:3061   */\n      swap1\n      pop\n        /* \"#utility.yul\":2649:3068   */\n      swap2\n      swap1\n      pop\n      jump\t// out\n        /* \"#utility.yul\":3074:3296   */\n    tag_22:\n        /* \"#utility.yul\":3167:3171   */\n      0x00\n        /* \"#utility.yul\":3205:3207   */\n      0x20\n        /* \"#utility.yul\":3194:3203   */\n      dup3\n        /* \"#utility.yul\":3190:3208   */\n      add\n        /* \"#utility.yul\":3182:3208   */\n      swap1\n      pop\n        /* \"#utility.yul\":3218:3289   */\n      tag_105\n        /* \"#utility.yul\":3286:3287   */\n      0x00\n        /* \"#utility.yul\":3275:3284   */\n      dup4\n        /* \"#utility.yul\":3271:3288   */\n      add\n        /* \"#utility.yul\":3262:3268   */\n      dup5\n        /* \"#utility.yul\":3218:3289   */\n      tag_94\n      jump\t// in\n    tag_105:\n        /* \"#utility.yul\":3074:3296   */\n      swap3\n      swap2\n      pop\n      pop\n      jump\t// out\n        /* \"#utility.yul\":3383:3482   */\n    tag_82:\n        /* \"#utility.yul\":3435:3441   */\n      0x00\n        /* \"#utility.yul\":3469:3474   */\n      dup2\n        /* \"#utility.yul\":3463:3475   */\n      mload\n        /* \"#utility.yul\":3453:3475   */\n      swap1\n      pop\n        /* \"#utility.yul\":3383:3482   */\n      swap2\n      swap1\n      pop\n      jump\t// out\n        /* \"#utility.yul\":3488:3657   */\n    tag_84:\n        /* \"#utility.yul\":3572:3583   */\n      0x00\n        /* \"#utility.yul\":3606:3612   */\n      dup3\n        /* \"#utility.yul\":3601:3604   */\n      dup3\n        /* \"#utility.yul\":3594:3613   */\n      mstore\n        /* \"#utility.yul\":3646:3650   */\n      0x20\n        /* \"#utility.yul\":3641:3644   */\n      dup3\n        /* \"#utility.yul\":3637:3651   */\n      add\n        /* \"#utility.yul\":3622:3651   */\n      swap1\n      pop\n        /* \"#utility.yul\":3488:3657   */\n      swap3\n      swap2\n      pop\n      pop\n      jump\t// out\n        /* \"#utility.yul\":3663:3968   */\n    tag_50:\n        /* \"#utility.yul\":3703:3706   */\n      0x00\n        /* \"#utility.yul\":3722:3742   */\n      tag_111\n        /* \"#utility.yul\":3740:3741   */\n      dup3\n        /* \"#utility.yul\":3722:3742   */\n      tag_97\n      jump\t// in\n    tag_111:\n        /* \"#utility.yul\":3717:3742   */\n      swap2\n      pop\n        /* \"#utility.yul\":3756:3776   */\n      tag_112\n        /* \"#utility.yul\":3774:3775   */\n      dup4\n        /* \"#utility.yul\":3756:3776   */\n      tag_97\n      jump\t// in\n    tag_112:\n        /* \"#utility.yul\":3751:3776   */\n      swap3\n      pop\n        /* \"#utility.yul\":3910:3911   */\n      dup3\n        /* \"#utility.yul\":3842:3908   */\n      0xffffffffffffffffffffffffffffffffffffffffffffffffffffffffffffffff\n        /* \"#utility.yul\":3838:3912   */\n      sub\n        /* \"#utility.yul\":3835:3836   */\n      dup3\n        /* \"#utility.yul\":3832:3913   */\n      gt\n        /* \"#utility.yul\":3829:3936   */\n      iszero\n      tag_113\n      jumpi\n        /* \"#utility.yul\":3916:3934   */\n      tag_114\n      tag_115\n      jump\t// in\n    tag_114:\n        /* \"#utility.yul\":3829:3936   */\n    tag_113:\n        /* \"#utility.yul\":3960:3961   */\n      dup3\n        /* \"#utility.yul\":3957:3958   */\n      dup3\n        /* \"#utility.yul\":3953:3962   */\n      add\n        /* \"#utility.yul\":3946:3962   */\n      swap1\n      pop\n        /* \"#utility.yul\":3663:3968   */\n      swap3\n      swap2\n      pop\n      pop\n      jump\t// out\n        /* \"#utility.yul\":3974:4070   */\n    tag_78:\n        /* \"#utility.yul\":4011:4018   */\n      0x00\n        /* \"#utility.yul\":4040:4064   */\n      tag_117\n        /* \"#utility.yul\":4058:4063   */\n      dup3\n        /* \"#utility.yul\":4040:4064   */\n      tag_118\n      jump\t// in\n    tag_117:\n        /* \"#utility.yul\":4029:4064   */\n      swap1\n      pop\n        /* \"#utility.yul\":3974:4070   */\n      swap2\n      swap1\n      pop\n      jump\t// out\n        /* \"#utility.yul\":4076:4202   */\n    tag_118:\n        /* \"#utility.yul\":4113:4120   */\n      0x00\n        /* \"#utility.yul\":4153:4195   */\n      0xffffffffffffffffffffffffffffffffffffffff\n        /* \"#utility.yul\":4146:4151   */\n      dup3\n        /* \"#utility.yul\":4142:4196   */\n      and\n        /* \"#utility.yul\":4131:4196   */\n      swap1\n      pop\n        /* \"#utility.yul\":4076:4202   */\n      swap2\n      swap1\n      pop\n      jump\t// out\n        /* \"#utility.yul\":4208:4285   */\n    tag_97:\n        /* \"#utility.yul\":4245:4252   */\n      0x00\n        /* \"#utility.yul\":4274:4279   */\n      dup2\n        /* \"#utility.yul\":4263:4279   */\n      swap1\n      pop\n        /* \"#utility.yul\":4208:4285   */\n      swap2\n      swap1\n      pop\n      jump\t// out\n        /* \"#utility.yul\":4291:4598   */\n    tag_86:\n        /* \"#utility.yul\":4359:4360   */\n      0x00\n        /* \"#utility.yul\":4369:4482   */\n    tag_122:\n        /* \"#utility.yul\":4383:4389   */\n      dup4\n        /* \"#utility.yul\":4380:4381   */\n      dup2\n        /* \"#utility.yul\":4377:4390   */\n      lt\n        /* \"#utility.yul\":4369:4482   */\n      iszero\n      tag_124\n      jumpi\n        /* \"#utility.yul\":4468:4469   */\n      dup1\n        /* \"#utility.yul\":4463:4466   */\n      dup3\n        /* \"#utility.yul\":4459:4470   */\n      add\n        /* \"#utility.yul\":4453:4471   */\n      mload\n        /* \"#utility.yul\":4449:4450   */\n      dup2\n        /* \"#utility.yul\":4444:4447   */\n      dup5\n        /* \"#utility.yul\":4440:4451   */\n      add\n        /* \"#utility.yul\":4433:4472   */\n      mstore\n        /* \"#utility.yul\":4405:4407   */\n      0x20\n        /* \"#utility.yul\":4402:4403   */\n      dup2\n        /* \"#utility.yul\":4398:4408   */\n      add\n        /* \"#utility.yul\":4393:4408   */\n      swap1\n      pop\n        /* \"#utility.yul\":4369:4482   */\n      jump(tag_122)\n    tag_124:\n        /* \"#utility.yul\":4500:4506   */\n      dup4\n        /* \"#utility.yul\":4497:4498   */\n      dup2\n        /* \"#utility.yul\":4494:4507   */\n      gt\n        /* \"#utility.yul\":4491:4592   */\n      iszero\n      tag_125\n      jumpi\n        /* \"#utility.yul\":4580:4581   */\n      0x00\n        /* \"#utility.yul\":4571:4577   */\n      dup5\n        /* \"#utility.yul\":4566:4569   */\n      dup5\n        /* \"#utility.yul\":4562:4578   */\n      add\n        /* \"#utility.yul\":4555:4582   */\n      mstore\n        /* \"#utility.yul\":4491:4592   */\n    tag_125:\n        /* \"#utility.yul\":4340:4598   */\n      pop\n        /* \"#utility.yul\":4291:4598   */\n      pop\n      pop\n      pop\n      jump\t// out\n        /* \"#utility.yul\":4604:4924   */\n    tag_39:\n        /* \"#utility.yul\":4648:4654   */\n      0x00\n        /* \"#utility.yul\":4685:4686   */\n      0x02\n        /* \"#utility.yul\":4679:4683   */\n      dup3\n        /* \"#utility.yul\":4675:4687   */\n      div\n        /* \"#utility.yul\":4665:4687   */\n      swap1\n      pop\n        /* \"#utility.yul\":4732:4733   */\n      0x01\n        /* \"#utility.yul\":4726:4730   */\n      dup3\n        /* \"#utility.yul\":4722:4734   */\n      and\n        /* \"#utility.yul\":4753:4771   */\n      dup1\n        /* \"#utility.yul\":4743:4824   */\n      tag_127\n      jumpi\n        /* \"#utility.yul\":4809:4813   */\n      0x7f\n        /* \"#utility.yul\":4801:4807   */\n      dup3\n        /* \"#utility.yul\":4797:4814   */\n      and\n        /* \"#utility.yul\":4787:4814   */\n      swap2\n      pop\n        /* \"#utility.yul\":4743:4824   */\n    tag_127:\n        /* \"#utility.yul\":4871:4873   */\n      0x20\n        /* \"#utility.yul\":4863:4869   */\n      dup3\n        /* \"#utility.yul\":4860:4874   */\n      lt\n        /* \"#utility.yul\":4840:4858   */\n      dup2\n        /* \"#utility.yul\":4837:4875   */\n      eq\n        /* \"#utility.yul\":4834:4918   */\n      iszero\n      tag_128\n      jumpi\n        /* \"#utility.yul\":4890:4908   */\n      tag_129\n      tag_130\n      jump\t// in\n    tag_129:\n        /* \"#utility.yul\":4834:4918   */\n    tag_128:\n        /* \"#utility.yul\":4655:4924   */\n      pop\n        /* \"#utility.yul\":4604:4924   */\n      swap2\n      swap1\n      pop\n      jump\t// out\n        /* \"#utility.yul\":4930:5110   */\n    tag_115:\n        /* \"#utility.yul\":4978:5055   */\n      0x4e487b7100000000000000000000000000000000000000000000000000000000\n        /* \"#utility.yul\":4975:4976   */\n      0x00\n        /* \"#utility.yul\":4968:5056   */\n      mstore\n        /* \"#utility.yul\":5075:5079   */\n      0x11\n        /* \"#utility.yul\":5072:5073   */\n      0x04\n        /* \"#utility.yul\":5065:5080   */\n      mstore\n        /* \"#utility.yul\":5099:5103   */\n      0x24\n        /* \"#utility.yul\":5096:5097   */\n      0x00\n        /* \"#utility.yul\":5089:5104   */\n      revert\n        /* \"#utility.yul\":5116:5296   */\n    tag_130:\n        /* \"#utility.yul\":5164:5241   */\n      0x4e487b7100000000000000000000000000000000000000000000000000000000\n        /* \"#utility.yul\":5161:5162   */\n      0x00\n        /* \"#utility.yul\":5154:5242   */\n      mstore\n        /* \"#utility.yul\":5261:5265   */\n      0x22\n        /* \"#utility.yul\":5258:5259   */\n      0x04\n        /* \"#utility.yul\":5251:5266   */\n      mstore\n        /* \"#utility.yul\":5285:5289   */\n      0x24\n        /* \"#utility.yul\":5282:5283   */\n      0x00\n        /* \"#utility.yul\":5275:5290   */\n      revert\n        /* \"#utility.yul\":5425:5542   */\n    tag_68:\n        /* \"#utility.yul\":5534:5535   */\n      0x00\n        /* \"#utility.yul\":5531:5532   */\n      dup1\n        /* \"#utility.yul\":5524:5536   */\n      revert\n        /* \"#utility.yul\":5548:5650   */\n    tag_88:\n        /* \"#utility.yul\":5589:5595   */\n      0x00\n        /* \"#utility.yul\":5640:5642   */\n      0x1f\n        /* \"#utility.yul\":5636:5643   */\n      not\n        /* \"#utility.yul\":5631:5633   */\n      0x1f\n        /* \"#utility.yul\":5624:5629   */\n      dup4\n        /* \"#utility.yul\":5620:5634   */\n      add\n        /* \"#utility.yul\":5616:5644   */\n      and\n        /* \"#utility.yul\":5606:5644   */\n      swap1\n      pop\n        /* \"#utility.yul\":5548:5650   */\n      swap2\n      swap1\n      pop\n      jump\t// out\n        /* \"#utility.yul\":5656:5824   */\n    tag_93:\n        /* \"#utility.yul\":5796:5816   */\n      0x6e6f74206973206f776e206163636f756e740000000000000000000000000000\n        /* \"#utility.yul\":5792:5793   */\n      0x00\n        /* \"#utility.yul\":5784:5790   */\n      dup3\n        /* \"#utility.yul\":5780:5794   */\n      add\n        /* \"#utility.yul\":5773:5817   */\n      mstore\n        /* \"#utility.yul\":5656:5824   */\n      pop\n      jump\t// out\n        /* \"#utility.yul\":5830:5952   */\n    tag_60:\n        /* \"#utility.yul\":5903:5927   */\n      tag_139\n        /* \"#utility.yul\":5921:5926   */\n      dup2\n        /* \"#utility.yul\":5903:5927   */\n      tag_78\n      jump\t// in\n    tag_139:\n        /* \"#utility.yul\":5896:5901   */\n      dup2\n        /* \"#utility.yul\":5893:5928   */\n      eq\n        /* \"#utility.yul\":5883:5946   */\n      tag_140\n      jumpi\n        /* \"#utility.yul\":5942:5943   */\n      0x00\n        /* \"#utility.yul\":5939:5940   */\n      dup1\n        /* \"#utility.yul\":5932:5944   */\n      revert\n        /* \"#utility.yul\":5883:5946   */\n    tag_140:\n        /* \"#utility.yul\":5830:5952   */\n      pop\n      jump\t// out\n        /* \"#utility.yul\":5958:6080   */\n    tag_64:\n        /* \"#utility.yul\":6031:6055   */\n      tag_142\n        /* \"#utility.yul\":6049:6054   */\n      dup2\n        /* \"#utility.yul\":6031:6055   */\n      tag_97\n      jump\t// in\n    tag_142:\n        /* \"#utility.yul\":6024:6029   */\n      dup2\n        /* \"#utility.yul\":6021:6056   */\n      eq\n        /* \"#utility.yul\":6011:6074   */\n      tag_143\n      jumpi\n        /* \"#utility.yul\":6070:6071   */\n      0x00\n        /* \"#utility.yul\":6067:6068   */\n      dup1\n        /* \"#utility.yul\":6060:6072   */\n      revert\n        /* \"#utility.yul\":6011:6074   */\n    tag_143:\n        /* \"#utility.yul\":5958:6080   */\n      pop\n      jump\t// out\n\n    auxdata: 0xa2646970667358221220bc937f034eadfc5b89bb3de9d0d6da1ee39da70e784846b19c20ed9637d83e4964736f6c63430008070033\n}\n",
				"bytecode": {
					"linkReferences": {},
					"object": "60806040526040518060400160405280600881526020017f736f6c6964697479000000000000000000000000000000000000000000000000815250600090805190602001906200005192919062000128565b506040518060400160405280600381526020017f534f4c0000000000000000000000000000000000000000000000000000000000815250600190805190602001906200009f92919062000128565b506012600255630c845880600355348015620000ba57600080fd5b5060405162000a3a38038062000a3a8339818101604052810190620000e09190620001ef565b80600460006101000a81548173ffffffffffffffffffffffffffffffffffffffff021916908373ffffffffffffffffffffffffffffffffffffffff16021790555050620002d9565b828054620001369062000255565b90600052602060002090601f0160209004810192826200015a5760008555620001a6565b82601f106200017557805160ff1916838001178555620001a6565b82800160010185558215620001a6579182015b82811115620001a557825182559160200191906001019062000188565b5b509050620001b59190620001b9565b5090565b5b80821115620001d4576000816000905550600101620001ba565b5090565b600081519050620001e981620002bf565b92915050565b600060208284031215620002085762000207620002ba565b5b60006200021884828501620001d8565b91505092915050565b60006200022e8262000235565b9050919050565b600073ffffffffffffffffffffffffffffffffffffffff82169050919050565b600060028204905060018216806200026e57607f821691505b602082108114156200028557620002846200028b565b5b50919050565b7f4e487b7100000000000000000000000000000000000000000000000000000000600052602260045260246000fd5b600080fd5b620002ca8162000221565b8114620002d657600080fd5b50565b61075180620002e96000396000f3fe608060405234801561001057600080fd5b506004361061007d5760003560e01c806340c10f191161005b57806340c10f19146100dc57806376809ce3146100f857806395d89b4114610116578063e3d670d7146101345761007d565b806306fdde031461008257806307546172146100a057806318160ddd146100be575b600080fd5b61008a610164565b60405161009791906104e0565b60405180910390f35b6100a86101f2565b6040516100b591906104c5565b60405180910390f35b6100c6610218565b6040516100d39190610522565b60405180910390f35b6100f660048036038101906100f1919061040b565b61021e565b005b610100610308565b60405161010d9190610522565b60405180910390f35b61011e61030e565b60405161012b91906104e0565b60405180910390f35b61014e600480360381019061014991906103de565b61039c565b60405161015b9190610522565b60405180910390f35b600080546101719061061e565b80601f016020809104026020016040519081016040528092919081815260200182805461019d9061061e565b80156101ea5780601f106101bf576101008083540402835291602001916101ea565b820191906000526020600020905b8154815290600101906020018083116101cd57829003601f168201915b505050505081565b600460009054906101000a900473ffffffffffffffffffffffffffffffffffffffff1681565b60035481565b600460009054906101000a900473ffffffffffffffffffffffffffffffffffffffff1673ffffffffffffffffffffffffffffffffffffffff163373ffffffffffffffffffffffffffffffffffffffff16146102ae576040517f08c379a00000000000000000000000000000000000000000000000000000000081526004016102a590610502565b60405180910390fd5b80600560008473ffffffffffffffffffffffffffffffffffffffff1673ffffffffffffffffffffffffffffffffffffffff16815260200190815260200160002060008282546102fd9190610559565b925050819055505050565b60025481565b6001805461031b9061061e565b80601f01602080910402602001604051908101604052809291908181526020018280546103479061061e565b80156103945780601f1061036957610100808354040283529160200191610394565b820191906000526020600020905b81548152906001019060200180831161037757829003601f168201915b505050505081565b60056020528060005260406000206000915090505481565b6000813590506103c3816106ed565b92915050565b6000813590506103d881610704565b92915050565b6000602082840312156103f4576103f36106ae565b5b6000610402848285016103b4565b91505092915050565b60008060408385031215610422576104216106ae565b5b6000610430858286016103b4565b9250506020610441858286016103c9565b9150509250929050565b610454816105af565b82525050565b60006104658261053d565b61046f8185610548565b935061047f8185602086016105eb565b610488816106b3565b840191505092915050565b60006104a0601283610548565b91506104ab826106c4565b602082019050919050565b6104bf816105e1565b82525050565b60006020820190506104da600083018461044b565b92915050565b600060208201905081810360008301526104fa818461045a565b905092915050565b6000602082019050818103600083015261051b81610493565b9050919050565b600060208201905061053760008301846104b6565b92915050565b600081519050919050565b600082825260208201905092915050565b6000610564826105e1565b915061056f836105e1565b9250827fffffffffffffffffffffffffffffffffffffffffffffffffffffffffffffffff038211156105a4576105a3610650565b5b828201905092915050565b60006105ba826105c1565b9050919050565b600073ffffffffffffffffffffffffffffffffffffffff82169050919050565b6000819050919050565b60005b838110156106095780820151818401526020810190506105ee565b83811115610618576000848401525b50505050565b6000600282049050600182168061063657607f821691505b6020821081141561064a5761064961067f565b5b50919050565b7f4e487b7100000000000000000000000000000000000000000000000000000000600052601160045260246000fd5b7f4e487b7100000000000000000000000000000000000000000000000000000000600052602260045260246000fd5b600080fd5b6000601f19601f8301169050919050565b7f6e6f74206973206f776e206163636f756e740000000000000000000000000000600082015250565b6106f6816105af565b811461070157600080fd5b50565b61070d816105e1565b811461071857600080fd5b5056fea2646970667358221220bc937f034eadfc5b89bb3de9d0d6da1ee39da70e784846b19c20ed9637d83e4964736f6c63430008070033",
					"opcodes": "PUSH1 0x80 PUSH1 0x40 MSTORE PUSH1 0x40 MLOAD DUP1 PUSH1 0x40 ADD PUSH1 0x40 MSTORE DUP1 PUSH1 0x8 DUP2 MSTORE PUSH1 0x20 ADD PUSH32 0x736F6C6964697479000000000000000000000000000000000000000000000000 DUP2 MSTORE POP PUSH1 0x0 SWAP1 DUP1 MLOAD SWAP1 PUSH1 0x20 ADD SWAP1 PUSH3 0x51 SWAP3 SWAP2 SWAP1 PUSH3 0x128 JUMP JUMPDEST POP PUSH1 0x40 MLOAD DUP1 PUSH1 0x40 ADD PUSH1 0x40 MSTORE DUP1 PUSH1 0x3 DUP2 MSTORE PUSH1 0x20 ADD PUSH32 0x534F4C0000000000000000000000000000000000000000000000000000000000 DUP2 MSTORE POP PUSH1 0x1 SWAP1 DUP1 MLOAD SWAP1 PUSH1 0x20 ADD SWAP1 PUSH3 0x9F SWAP3 SWAP2 SWAP1 PUSH3 0x128 JUMP JUMPDEST POP PUSH1 0x12 PUSH1 0x2 SSTORE PUSH4 0xC845880 PUSH1 0x3 SSTORE CALLVALUE DUP1 ISZERO PUSH3 0xBA JUMPI PUSH1 0x0 DUP1 REVERT JUMPDEST POP PUSH1 0x40 MLOAD PUSH3 0xA3A CODESIZE SUB DUP1 PUSH3 0xA3A DUP4 CODECOPY DUP2 DUP2 ADD PUSH1 0x40 MSTORE DUP2 ADD SWAP1 PUSH3 0xE0 SWAP2 SWAP1 PUSH3 0x1EF JUMP JUMPDEST DUP1 PUSH1 0x4 PUSH1 0x0 PUSH2 0x100 EXP DUP2 SLOAD DUP2 PUSH20 0xFFFFFFFFFFFFFFFFFFFFFFFFFFFFFFFFFFFFFFFF MUL NOT AND SWAP1 DUP4 PUSH20 0xFFFFFFFFFFFFFFFFFFFFFFFFFFFFFFFFFFFFFFFF AND MUL OR SWAP1 SSTORE POP POP PUSH3 0x2D9 JUMP JUMPDEST DUP3 DUP1 SLOAD PUSH3 0x136 SWAP1 PUSH3 0x255 JUMP JUMPDEST SWAP1 PUSH1 0x0 MSTORE PUSH1 0x20 PUSH1 0x0 KECCAK256 SWAP1 PUSH1 0x1F ADD PUSH1 0x20 SWAP1 DIV DUP2 ADD SWAP3 DUP3 PUSH3 0x15A JUMPI PUSH1 0x0 DUP6 SSTORE PUSH3 0x1A6 JUMP JUMPDEST DUP3 PUSH1 0x1F LT PUSH3 0x175 JUMPI DUP1 MLOAD PUSH1 0xFF NOT AND DUP4 DUP1 ADD OR DUP6 SSTORE PUSH3 0x1A6 JUMP JUMPDEST DUP3 DUP1 ADD PUSH1 0x1 ADD DUP6 SSTORE DUP3 ISZERO PUSH3 0x1A6 JUMPI SWAP2 DUP3 ADD JUMPDEST DUP3 DUP2 GT ISZERO PUSH3 0x1A5 JUMPI DUP3 MLOAD DUP3 SSTORE SWAP2 PUSH1 0x20 ADD SWAP2 SWAP1 PUSH1 0x1 ADD SWAP1 PUSH3 0x188 JUMP JUMPDEST JUMPDEST POP SWAP1 POP PUSH3 0x1B5 SWAP2 SWAP1 PUSH3 0x1B9 JUMP JUMPDEST POP SWAP1 JUMP JUMPDEST JUMPDEST DUP1 DUP3 GT ISZERO PUSH3 0x1D4 JUMPI PUSH1 0x0 DUP2 PUSH1 0x0 SWAP1 SSTORE POP PUSH1 0x1 ADD PUSH3 0x1BA JUMP JUMPDEST POP SWAP1 JUMP JUMPDEST PUSH1 0x0 DUP2 MLOAD SWAP1 POP PUSH3 0x1E9 DUP2 PUSH3 0x2BF JUMP JUMPDEST SWAP3 SWAP2 POP POP JUMP JUMPDEST PUSH1 0x0 PUSH1 0x20 DUP3 DUP5 SUB SLT ISZERO PUSH3 0x208 JUMPI PUSH3 0x207 PUSH3 0x2BA JUMP JUMPDEST JUMPDEST PUSH1 0x0 PUSH3 0x218 DUP5 DUP3 DUP6 ADD PUSH3 0x1D8 JUMP JUMPDEST SWAP2 POP POP SWAP3 SWAP2 POP POP JUMP JUMPDEST PUSH1 0x0 PUSH3 0x22E DUP3 PUSH3 0x235 JUMP JUMPDEST SWAP1 POP SWAP2 SWAP1 POP JUMP JUMPDEST PUSH1 0x0 PUSH20 0xFFFFFFFFFFFFFFFFFFFFFFFFFFFFFFFFFFFFFFFF DUP3 AND SWAP1 POP SWAP2 SWAP1 POP JUMP JUMPDEST PUSH1 0x0 PUSH1 0x2 DUP3 DIV SWAP1 POP PUSH1 0x1 DUP3 AND DUP1 PUSH3 0x26E JUMPI PUSH1 0x7F DUP3 AND SWAP2 POP JUMPDEST PUSH1 0x20 DUP3 LT DUP2 EQ ISZERO PUSH3 0x285 JUMPI PUSH3 0x284 PUSH3 0x28B JUMP JUMPDEST JUMPDEST POP SWAP2 SWAP1 POP JUMP JUMPDEST PUSH32 0x4E487B7100000000000000000000000000000000000000000000000000000000 PUSH1 0x0 MSTORE PUSH1 0x22 PUSH1 0x4 MSTORE PUSH1 0x24 PUSH1 0x0 REVERT JUMPDEST PUSH1 0x0 DUP1 REVERT JUMPDEST PUSH3 0x2CA DUP2 PUSH3 0x221 JUMP JUMPDEST DUP2 EQ PUSH3 0x2D6 JUMPI PUSH1 0x0 DUP1 REVERT JUMPDEST POP JUMP JUMPDEST PUSH2 0x751 DUP1 PUSH3 0x2E9 PUSH1 0x0 CODECOPY PUSH1 0x0 RETURN INVALID PUSH1 0x80 PUSH1 0x40 MSTORE CALLVALUE DUP1 ISZERO PUSH2 0x10 JUMPI PUSH1 0x0 DUP1 REVERT JUMPDEST POP PUSH1 0x4 CALLDATASIZE LT PUSH2 0x7D JUMPI PUSH1 0x0 CALLDATALOAD PUSH1 0xE0 SHR DUP1 PUSH4 0x40C10F19 GT PUSH2 0x5B JUMPI DUP1 PUSH4 0x40C10F19 EQ PUSH2 0xDC JUMPI DUP1 PUSH4 0x76809CE3 EQ PUSH2 0xF8 JUMPI DUP1 PUSH4 0x95D89B41 EQ PUSH2 0x116 JUMPI DUP1 PUSH4 0xE3D670D7 EQ PUSH2 0x134 JUMPI PUSH2 0x7D JUMP JUMPDEST DUP1 PUSH4 0x6FDDE03 EQ PUSH2 0x82 JUMPI DUP1 PUSH4 0x7546172 EQ PUSH2 0xA0 JUMPI DUP1 PUSH4 0x18160DDD EQ PUSH2 0xBE JUMPI JUMPDEST PUSH1 0x0 DUP1 REVERT JUMPDEST PUSH2 0x8A PUSH2 0x164 JUMP JUMPDEST PUSH1 0x40 MLOAD PUSH2 0x97 SWAP2 SWAP1 PUSH2 0x4E0 JUMP JUMPDEST PUSH1 0x40 MLOAD DUP1 SWAP2 SUB SWAP1 RETURN JUMPDEST PUSH2 0xA8 PUSH2 0x1F2 JUMP JUMPDEST PUSH1 0x40 MLOAD PUSH2 0xB5 SWAP2 SWAP1 PUSH2 0x4C5 JUMP JUMPDEST PUSH1 0x40 MLOAD DUP1 SWAP2 SUB SWAP1 RETURN JUMPDEST PUSH2 0xC6 PUSH2 0x218 JUMP JUMPDEST PUSH1 0x40 MLOAD PUSH2 0xD3 SWAP2 SWAP1 PUSH2 0x522 JUMP JUMPDEST PUSH1 0x40 MLOAD DUP1 SWAP2 SUB SWAP1 RETURN JUMPDEST PUSH2 0xF6 PUSH1 0x4 DUP1 CALLDATASIZE SUB DUP2 ADD SWAP1 PUSH2 0xF1 SWAP2 SWAP1 PUSH2 0x40B JUMP JUMPDEST PUSH2 0x21E JUMP JUMPDEST STOP JUMPDEST PUSH2 0x100 PUSH2 0x308 JUMP JUMPDEST PUSH1 0x40 MLOAD PUSH2 0x10D SWAP2 SWAP1 PUSH2 0x522 JUMP JUMPDEST PUSH1 0x40 MLOAD DUP1 SWAP2 SUB SWAP1 RETURN JUMPDEST PUSH2 0x11E PUSH2 0x30E JUMP JUMPDEST PUSH1 0x40 MLOAD PUSH2 0x12B SWAP2 SWAP1 PUSH2 0x4E0 JUMP JUMPDEST PUSH1 0x40 MLOAD DUP1 SWAP2 SUB SWAP1 RETURN JUMPDEST PUSH2 0x14E PUSH1 0x4 DUP1 CALLDATASIZE SUB DUP2 ADD SWAP1 PUSH2 0x149 SWAP2 SWAP1 PUSH2 0x3DE JUMP JUMPDEST PUSH2 0x39C JUMP JUMPDEST PUSH1 0x40 MLOAD PUSH2 0x15B SWAP2 SWAP1 PUSH2 0x522 JUMP JUMPDEST PUSH1 0x40 MLOAD DUP1 SWAP2 SUB SWAP1 RETURN JUMPDEST PUSH1 0x0 DUP1 SLOAD PUSH2 0x171 SWAP1 PUSH2 0x61E JUMP JUMPDEST DUP1 PUSH1 0x1F ADD PUSH1 0x20 DUP1 SWAP2 DIV MUL PUSH1 0x20 ADD PUSH1 0x40 MLOAD SWAP1 DUP2 ADD PUSH1 0x40 MSTORE DUP1 SWAP3 SWAP2 SWAP1 DUP2 DUP2 MSTORE PUSH1 0x20 ADD DUP3 DUP1 SLOAD PUSH2 0x19D SWAP1 PUSH2 0x61E JUMP JUMPDEST DUP1 ISZERO PUSH2 0x1EA JUMPI DUP1 PUSH1 0x1F LT PUSH2 0x1BF JUMPI PUSH2 0x100 DUP1 DUP4 SLOAD DIV MUL DUP4 MSTORE SWAP2 PUSH1 0x20 ADD SWAP2 PUSH2 0x1EA JUMP JUMPDEST DUP3 ADD SWAP2 SWAP1 PUSH1 0x0 MSTORE PUSH1 0x20 PUSH1 0x0 KECCAK256 SWAP1 JUMPDEST DUP2 SLOAD DUP2 MSTORE SWAP1 PUSH1 0x1 ADD SWAP1 PUSH1 0x20 ADD DUP1 DUP4 GT PUSH2 0x1CD JUMPI DUP3 SWAP1 SUB PUSH1 0x1F AND DUP3 ADD SWAP2 JUMPDEST POP POP POP POP POP DUP2 JUMP JUMPDEST PUSH1 0x4 PUSH1 0x0 SWAP1 SLOAD SWAP1 PUSH2 0x100 EXP SWAP1 DIV PUSH20 0xFFFFFFFFFFFFFFFFFFFFFFFFFFFFFFFFFFFFFFFF AND DUP2 JUMP JUMPDEST PUSH1 0x3 SLOAD DUP2 JUMP JUMPDEST PUSH1 0x4 PUSH1 0x0 SWAP1 SLOAD SWAP1 PUSH2 0x100 EXP SWAP1 DIV PUSH20 0xFFFFFFFFFFFFFFFFFFFFFFFFFFFFFFFFFFFFFFFF AND PUSH20 0xFFFFFFFFFFFFFFFFFFFFFFFFFFFFFFFFFFFFFFFF AND CALLER PUSH20 0xFFFFFFFFFFFFFFFFFFFFFFFFFFFFFFFFFFFFFFFF AND EQ PUSH2 0x2AE JUMPI PUSH1 0x40 MLOAD PUSH32 0x8C379A000000000000000000000000000000000000000000000000000000000 DUP2 MSTORE PUSH1 0x4 ADD PUSH2 0x2A5 SWAP1 PUSH2 0x502 JUMP JUMPDEST PUSH1 0x40 MLOAD DUP1 SWAP2 SUB SWAP1 REVERT JUMPDEST DUP1 PUSH1 0x5 PUSH1 0x0 DUP5 PUSH20 0xFFFFFFFFFFFFFFFFFFFFFFFFFFFFFFFFFFFFFFFF AND PUSH20 0xFFFFFFFFFFFFFFFFFFFFFFFFFFFFFFFFFFFFFFFF AND DUP2 MSTORE PUSH1 0x20 ADD SWAP1 DUP2 MSTORE PUSH1 0x20 ADD PUSH1 0x0 KECCAK256 PUSH1 0x0 DUP3 DUP3 SLOAD PUSH2 0x2FD SWAP2 SWAP1 PUSH2 0x559 JUMP JUMPDEST SWAP3 POP POP DUP2 SWAP1 SSTORE POP POP POP JUMP JUMPDEST PUSH1 0x2 SLOAD DUP2 JUMP JUMPDEST PUSH1 0x1 DUP1 SLOAD PUSH2 0x31B SWAP1 PUSH2 0x61E JUMP JUMPDEST DUP1 PUSH1 0x1F ADD PUSH1 0x20 DUP1 SWAP2 DIV MUL PUSH1 0x20 ADD PUSH1 0x40 MLOAD SWAP1 DUP2 ADD PUSH1 0x40 MSTORE DUP1 SWAP3 SWAP2 SWAP1 DUP2 DUP2 MSTORE PUSH1 0x20 ADD DUP3 DUP1 SLOAD PUSH2 0x347 SWAP1 PUSH2 0x61E JUMP JUMPDEST DUP1 ISZERO PUSH2 0x394 JUMPI DUP1 PUSH1 0x1F LT PUSH2 0x369 JUMPI PUSH2 0x100 DUP1 DUP4 SLOAD DIV MUL DUP4 MSTORE SWAP2 PUSH1 0x20 ADD SWAP2 PUSH2 0x394 JUMP JUMPDEST DUP3 ADD SWAP2 SWAP1 PUSH1 0x0 MSTORE PUSH1 0x20 PUSH1 0x0 KECCAK256 SWAP1 JUMPDEST DUP2 SLOAD DUP2 MSTORE SWAP1 PUSH1 0x1 ADD SWAP1 PUSH1 0x20 ADD DUP1 DUP4 GT PUSH2 0x377 JUMPI DUP3 SWAP1 SUB PUSH1 0x1F AND DUP3 ADD SWAP2 JUMPDEST POP POP POP POP POP DUP2 JUMP JUMPDEST PUSH1 0x5 PUSH1 0x20 MSTORE DUP1 PUSH1 0x0 MSTORE PUSH1 0x40 PUSH1 0x0 KECCAK256 PUSH1 0x0 SWAP2 POP SWAP1 POP SLOAD DUP2 JUMP JUMPDEST PUSH1 0x0 DUP2 CALLDATALOAD SWAP1 POP PUSH2 0x3C3 DUP2 PUSH2 0x6ED JUMP JUMPDEST SWAP3 SWAP2 POP POP JUMP JUMPDEST PUSH1 0x0 DUP2 CALLDATALOAD SWAP1 POP PUSH2 0x3D8 DUP2 PUSH2 0x704 JUMP JUMPDEST SWAP3 SWAP2 POP POP JUMP JUMPDEST PUSH1 0x0 PUSH1 0x20 DUP3 DUP5 SUB SLT ISZERO PUSH2 0x3F4 JUMPI PUSH2 0x3F3 PUSH2 0x6AE JUMP JUMPDEST JUMPDEST PUSH1 0x0 PUSH2 0x402 DUP5 DUP3 DUP6 ADD PUSH2 0x3B4 JUMP JUMPDEST SWAP2 POP POP SWAP3 SWAP2 POP POP JUMP JUMPDEST PUSH1 0x0 DUP1 PUSH1 0x40 DUP4 DUP6 SUB SLT ISZERO PUSH2 0x422 JUMPI PUSH2 0x421 PUSH2 0x6AE JUMP JUMPDEST JUMPDEST PUSH1 0x0 PUSH2 0x430 DUP6 DUP3 DUP7 ADD PUSH2 0x3B4 JUMP JUMPDEST SWAP3 POP POP PUSH1 0x20 PUSH2 0x441 DUP6 DUP3 DUP7 ADD PUSH2 0x3C9 JUMP JUMPDEST SWAP2 POP POP SWAP3 POP SWAP3 SWAP1 POP JUMP JUMPDEST PUSH2 0x454 DUP2 PUSH2 0x5AF JUMP JUMPDEST DUP3 MSTORE POP POP JUMP JUMPDEST PUSH1 0x0 PUSH2 0x465 DUP3 PUSH2 0x53D JUMP JUMPDEST PUSH2 0x46F DUP2 DUP6 PUSH2 0x548 JUMP JUMPDEST SWAP4 POP PUSH2 0x47F DUP2 DUP6 PUSH1 0x20 DUP7 ADD PUSH2 0x5EB JUMP JUMPDEST PUSH2 0x488 DUP2 PUSH2 0x6B3 JUMP JUMPDEST DUP5 ADD SWAP2 POP POP SWAP3 SWAP2 POP POP JUMP JUMPDEST PUSH1 0x0 PUSH2 0x4A0 PUSH1 0x12 DUP4 PUSH2 0x548 JUMP JUMPDEST SWAP2 POP PUSH2 0x4AB DUP3 PUSH2 0x6C4 JUMP JUMPDEST PUSH1 0x20 DUP3 ADD SWAP1 POP SWAP2 SWAP1 POP JUMP JUMPDEST PUSH2 0x4BF DUP2 PUSH2 0x5E1 JUMP JUMPDEST DUP3 MSTORE POP POP JUMP JUMPDEST PUSH1 0x0 PUSH1 0x20 DUP3 ADD SWAP1 POP PUSH2 0x4DA PUSH1 0x0 DUP4 ADD DUP5 PUSH2 0x44B JUMP JUMPDEST SWAP3 SWAP2 POP POP JUMP JUMPDEST PUSH1 0x0 PUSH1 0x20 DUP3 ADD SWAP1 POP DUP2 DUP2 SUB PUSH1 0x0 DUP4 ADD MSTORE PUSH2 0x4FA DUP2 DUP5 PUSH2 0x45A JUMP JUMPDEST SWAP1 POP SWAP3 SWAP2 POP POP JUMP JUMPDEST PUSH1 0x0 PUSH1 0x20 DUP3 ADD SWAP1 POP DUP2 DUP2 SUB PUSH1 0x0 DUP4 ADD MSTORE PUSH2 0x51B DUP2 PUSH2 0x493 JUMP JUMPDEST SWAP1 POP SWAP2 SWAP1 POP JUMP JUMPDEST PUSH1 0x0 PUSH1 0x20 DUP3 ADD SWAP1 POP PUSH2 0x537 PUSH1 0x0 DUP4 ADD DUP5 PUSH2 0x4B6 JUMP JUMPDEST SWAP3 SWAP2 POP POP JUMP JUMPDEST PUSH1 0x0 DUP2 MLOAD SWAP1 POP SWAP2 SWAP1 POP JUMP JUMPDEST PUSH1 0x0 DUP3 DUP3 MSTORE PUSH1 0x20 DUP3 ADD SWAP1 POP SWAP3 SWAP2 POP POP JUMP JUMPDEST PUSH1 0x0 PUSH2 0x564 DUP3 PUSH2 0x5E1 JUMP JUMPDEST SWAP2 POP PUSH2 0x56F DUP4 PUSH2 0x5E1 JUMP JUMPDEST SWAP3 POP DUP3 PUSH32 0xFFFFFFFFFFFFFFFFFFFFFFFFFFFFFFFFFFFFFFFFFFFFFFFFFFFFFFFFFFFFFFFF SUB DUP3 GT ISZERO PUSH2 0x5A4 JUMPI PUSH2 0x5A3 PUSH2 0x650 JUMP JUMPDEST JUMPDEST DUP3 DUP3 ADD SWAP1 POP SWAP3 SWAP2 POP POP JUMP JUMPDEST PUSH1 0x0 PUSH2 0x5BA DUP3 PUSH2 0x5C1 JUMP JUMPDEST SWAP1 POP SWAP2 SWAP1 POP JUMP JUMPDEST PUSH1 0x0 PUSH20 0xFFFFFFFFFFFFFFFFFFFFFFFFFFFFFFFFFFFFFFFF DUP3 AND SWAP1 POP SWAP2 SWAP1 POP JUMP JUMPDEST PUSH1 0x0 DUP2 SWAP1 POP SWAP2 SWAP1 POP JUMP JUMPDEST PUSH1 0x0 JUMPDEST DUP4 DUP2 LT ISZERO PUSH2 0x609 JUMPI DUP1 DUP3 ADD MLOAD DUP2 DUP5 ADD MSTORE PUSH1 0x20 DUP2 ADD SWAP1 POP PUSH2 0x5EE JUMP JUMPDEST DUP4 DUP2 GT ISZERO PUSH2 0x618 JUMPI PUSH1 0x0 DUP5 DUP5 ADD MSTORE JUMPDEST POP POP POP POP JUMP JUMPDEST PUSH1 0x0 PUSH1 0x2 DUP3 DIV SWAP1 POP PUSH1 0x1 DUP3 AND DUP1 PUSH2 0x636 JUMPI PUSH1 0x7F DUP3 AND SWAP2 POP JUMPDEST PUSH1 0x20 DUP3 LT DUP2 EQ ISZERO PUSH2 0x64A JUMPI PUSH2 0x649 PUSH2 0x67F JUMP JUMPDEST JUMPDEST POP SWAP2 SWAP1 POP JUMP JUMPDEST PUSH32 0x4E487B7100000000000000000000000000000000000000000000000000000000 PUSH1 0x0 MSTORE PUSH1 0x11 PUSH1 0x4 MSTORE PUSH1 0x24 PUSH1 0x0 REVERT JUMPDEST PUSH32 0x4E487B7100000000000000000000000000000000000000000000000000000000 PUSH1 0x0 MSTORE PUSH1 0x22 PUSH1 0x4 MSTORE PUSH1 0x24 PUSH1 0x0 REVERT JUMPDEST PUSH1 0x0 DUP1 REVERT JUMPDEST PUSH1 0x0 PUSH1 0x1F NOT PUSH1 0x1F DUP4 ADD AND SWAP1 POP SWAP2 SWAP1 POP JUMP JUMPDEST PUSH32 0x6E6F74206973206F776E206163636F756E740000000000000000000000000000 PUSH1 0x0 DUP3 ADD MSTORE POP JUMP JUMPDEST PUSH2 0x6F6 DUP2 PUSH2 0x5AF JUMP JUMPDEST DUP2 EQ PUSH2 0x701 JUMPI PUSH1 0x0 DUP1 REVERT JUMPDEST POP JUMP JUMPDEST PUSH2 0x70D DUP2 PUSH2 0x5E1 JUMP JUMPDEST DUP2 EQ PUSH2 0x718 JUMPI PUSH1 0x0 DUP1 REVERT JUMPDEST POP JUMP INVALID LOG2 PUSH5 0x6970667358 0x22 SLT KECCAK256 0xBC SWAP4 PUSH32 0x34EADFC5B89BB3DE9D0D6DA1EE39DA70E784846B19C20ED9637D83E4964736F PUSH13 0x63430008070033000000000000 "
				},
				"gasEstimates": {
					"creation": {
						"codeDepositCost": "374600",
						"executionCost": "infinite",
						"totalCost": "infinite"
					},
					"external": {
						"balance(address)": "2880",
						"decimal()": "2451",
						"mint(address,uint256)": "infinite",
						"minter()": "2537",
						"name()": "infinite",
						"symbol()": "infinite",
						"totalSupply()": "2474"
					}
				},
				"methodIdentifiers": {
					"balance(address)": "e3d670d7",
					"decimal()": "76809ce3",
					"mint(address,uint256)": "40c10f19",
					"minter()": "07546172",
					"name()": "06fdde03",
					"symbol()": "95d89b41",
					"totalSupply()": "18160ddd"
				}
			},
			"storageLayout": {
				"storage": [
					{
						"astId": 4,
						"contract": "Token.sol:Token",
						"label": "name",
						"offset": 0,
						"slot": "0",
						"type": "t_string_storage"
					},
					{
						"astId": 7,
						"contract": "Token.sol:Token",
						"label": "symbol",
						"offset": 0,
						"slot": "1",
						"type": "t_string_storage"
					},
					{
						"astId": 10,
						"contract": "Token.sol:Token",
						"label": "decimal",
						"offset": 0,
						"slot": "2",
						"type": "t_uint256"
					},
					{
						"astId": 13,
						"contract": "Token.sol:Token",
						"label": "totalSupply",
						"offset": 0,
						"slot": "3",
						"type": "t_uint256"
					},
					{
						"astId": 15,
						"contract": "Token.sol:Token",
						"label": "minter",
						"offset": 0,
						"slot": "4",
						"type": "t_address"
					},
					{
						"astId": 19,
						"contract": "Token.sol:Token",
						"label": "balance",
						"offset": 0,
						"slot": "5",
						"type": "t_mapping(t_address,t_uint256)"
					}
				],
				"types": {
					"t_address": {
						"encoding": "inplace",
						"label": "address",
						"numberOfBytes": "20"
					},
					"t_mapping(t_address,t_uint256)": {
						"encoding": "mapping",
						"key": "t_address",
						"label": "mapping(address => uint256)",
						"numberOfBytes": "32",
						"value": "t_uint256"
					},
					"t_string_storage": {
						"encoding": "bytes",
						"label": "string",
						"numberOfBytes": "32"
					},
					"t_uint256": {
						"encoding": "inplace",
						"label": "uint256",
						"numberOfBytes": "32"
					}
				}
			},
			"userdoc": {
				"kind": "user",
				"methods": {},
				"version": 1
			}
		}
	}
}